:100000000C9491040C94B9040C94B9040C948424B9
:100010000C9484240C9484240C94B9040C94B90496
:100020000C94B9040C94B9040C94B9040C94B9045C
:100030000C94B9040C94B9040C94B9040C94B9044C
:100040000C940C230C94B9040C9468190C94421968
:100050000C94B9040C94B9040C94B9040C94B9042C
:100060000C9456230C94B9044572726F7220646527
:100070006C6574696E672070686F6E653A202B003E
:1000800044656C6574652070686F6E653A202B005E
:10009000506175736554696D652069733A20004439
:1000A000656C61794265666F72654775617264203F
:1000B00069733A200050434644656C617942656635
:1000C0006F7265416C61726D2069733A20005365EF
:1000D000636F6E6444656C61794265666F726541F9
:1000E0006C61726D2069733A20004D61696E4465E0
:1000F0006C61794265666F7265416C61726D2069F1
:10010000733A20005761746368506F776572546961
:100110006D652069733A200052696E6754696D6598
:100120002069733A200053656E736F7220646174A6
:10013000612073617665642E004572726F72207360
:10014000656E736F72206E756D62657200666169AF
:100150006C65642E007061737365642E0054657362
:100160007420004661696C65642063656C6C3A209C
:10017000004200454550524F4D3A20004E6F7420CA
:100180007573652E0041362E0053494D3830304C82
:100190002E004D353930652E005265626F6F742E1A
:1001A000004175746F6465746563742E002E204D74
:1001B0006F64656D3A200043757272656E742049F4
:1001C000443A200050726576696F75732049443A4D
:1001D000200041542B435553443D312C2200534DB4
:1001E000532072656D6F766564003400302C3400E6
:1001F00041542B434D47443D006F70656E00636C66
:10020000656172736D73006C65646F0074657374FF
:100210006F0067756172646F66660067756172640E
:100220006F6E007061757365006D6F6E6579006942
:100230006E666F00706366666F7263656F006C6FE9
:10024000770068696768007365636F6E6473656ED5
:10025000736F726C6576656C006C6F7700686967A8
:1002600068006D61696E73656E736F726C6576653B
:100270006C0045787444657669636554696D6520E2
:1002800069733A200065787464657669636574699A
:100290006D65006C6F770065787464657669636579
:1002A0006C6576656C006D6F64656D696400726580
:1002B000626F6F74006C69737470686F6E6500694B
:1002C00032637363616E006D656D74657374006C89
:1002D00069737473656E736F72006C697374636FA6
:1002E0006E66696700656469746D61696E70686FD8
:1002F0006E65006564697473656E736F720044693E
:100300007361626C6564004F4E206D6F6465006EB2
:1003100032004F4E2F4F4646206D6F6465006E31A0
:1003200000477561726420627574746F6E3A2000C4
:100330006775617264627574746F6E6F003300323A
:10034000006E320031006E310057617463682074B2
:10035000686520706F776572204F007761746368FD
:10036000706F7765726F00726573657473656E7315
:100370006F72007265736574636F6E666967007291
:100380006573657470686F6E650066756C6C726518
:1003900073657400616C61726D70696E74696D650E
:1003A0000072696E6774696D650077617463687067
:1003B0006F77657274696D6500706366007365635D
:1003C0006F6E64006D61696E0064656C6179626571
:1003D000666F7265616C61726D0064656C617962F3
:1003E00065666F7265677561726400736C656570D0
:1003F00074696D650062616C616E63656E756D0038
:1004000064656C65746570686F6E650061646470C6
:10041000686F6E650020617420626F6F74004753CF
:100420004D20416C61726D2031372E30382E3130C5
:10043000206669782D303100506F776572207375B2
:1004400070706C7920726573746F72656400506FA0
:1004500077657220737570706C7920646973636F4F
:100460006E6E656374656420004D61696E2073650E
:100470006E736F7221004D61696E2073656E736FCC
:100480007221005365636F6E642073656E736F72C3
:1004900021005365636F6E642073656E736F722104
:1004A00000206D696E757465732061676F003B0095
:1004B0004154442B00416C61726D2052696E673A61
:1004C000202B005072696D6172792070686F6E65C3
:1004D0003A202B0041542B435553443D3000555393
:1004E00053442071756572793A20002B435553446B
:1004F0003A00534D532066726F6D3A202B002C2228
:10050000002C2C002B434D543A0052696E67206634
:10051000726F6D3A202B002C0052494E47000000AC
:100520000000240027002A0000000008000201004B
:100530000003040700000000000000004C656E6727
:10054000746820746F2072657475726E3A20004270
:10055000616C616E6365206E756D6265723A200034
:100560004C6F61642064656661756C742062616CB7
:10057000616E636520646174612E0044656C65740E
:10058000652062616C616E636520646174612E0038
:10059000416C61726D496E74657276616C2069732D
:1005A0003A20004C6F61642064656661756C74204C
:1005B00070686F6E6520646174612E0044656C65BF
:1005C00074696E672070686F6E6520646174612E57
:1005D00000690070007200730050686F6E6500E281
:1005E000849600526561642061727261792070683E
:1005F0006F6E653A004175746F646574656374006D
:100600004D6F64656D49443A2000504346466F7211
:1006100063653A2000205043463A2000205365632A
:100620006F6E643A2000204D61696E3A2000446587
:100630006C61794265666F7265416C61726D002014
:100640005365636F6E643A2000204D61696E3A20F5
:100650000053656E736F724C6576656C002054694B
:100660006D653A2000204C6576656C3A200045782F
:10067000744465766963650044656C6179426566BA
:100680006F726547756172643A20004775617264E4
:10069000427574746F6E3A20002054696D653A207B
:1006A00000204D6F64653A20005761746368506F95
:1006B00077657200416C61726D50696E54696D6549
:1006C0003A2000536C65657054696D653A200047A7
:1006D000756172643A20004C65643A200054657379
:1006E000743A200052696E6754696D653A20005271
:1006F00065616420656570726F6D636F6E666967B2
:100700003A004C6F61642064656661756C742065A5
:100710006570726F6D636F6E666967206461746186
:100720002E0044656C6574696E6720656570726F34
:100730006D636F6E66696720646174612E00415459
:100740004530004154453000415445310041542B5F
:10075000434E4D493D322C320041542B43534353B9
:100760003D2247534D220041542B434D47463D31D6
:100770000041542B434C49503D310044657465633E
:10078000746564204D6F64656D49443A20004136BC
:100790000053494D383030004D353930004154490F
:1007A000004154004775617264204F46462E002078
:1007B000427574746F6E002050686F6E65202B0058
:1007C00020436F6E736F6C65004C6F6164206465CD
:1007D0006661756C742073656E736F7220646174EA
:1007E000612E0044656C6574696E672073656E7375
:1007F0006F7220646174612E0053656E736F722096
:10080000646174613A0041542B4348555000220002
:1008100041542B434D47533D22004775617264207C
:100820004F4E2E0050686F6E652061646465642EC3
:100830000050686F6E6520616C7265616479206537
:10084000786973747320696E207468652063656CC1
:100850006C3A20004572726F722C2077726F6E674F
:100860002063656C6C2E004572726F722C206E6F67
:100870007420736574206D61696E2070686F6E6599
:100880002E0050686F6E652073657474696E6773AF
:10089000206368616E6765642E0049324320646599
:1008A0007669636573206E6F7420666F756E640081
:1008B00030004572726F7220617420307800646578
:1008C00074656374656420504346383537340030AE
:1008D0000049324320646576696365206174203085
:1008E000780000000000250028002B000000000018
:1008F0002300260029000404040404040404020262
:10090000020202020303030303030102040810208E
:100910004080010204081020010204081020C235A2
:10092000863511241FBECFEFD8E0DEBFCDBF13E068
:10093000A0E0B1E0E8ECF5E702C005900D92A2332B
:10094000B107D9F726E0A2E3B3E001C01D92A737B3
:10095000B207E1F714E0C0E9D4E004C02197FE013A
:100960000E947938CF38D107C9F70E94A62C0C9481
:10097000D73A0C940000AF92BF92CF92DF92EF92E1
:10098000FF920F931F93CF93DF93CDB7DEB7E0971E
:100990000FB6F894DEBF0FBECDBF8091F503813056
:1009A00031F468E476E08BE795E00E941E1967E079
:1009B00073E0CE0142960E94781861EE72E0CE019B
:1009C00001960E947818AE014E5E5F4FBE016F5FC8
:1009D0007F4F88E496E00E941C15CE0101960E948C
:1009E000DC17CE0142960E94DC1767E073E0CE016F
:1009F00042960E94781866E073E0CE0101960E944C
:100A00007818AE014E5E5F4FBE016F5F7F4F88E486
:100A100096E00E941C15CE0101960E94DC17CE01C3
:100A200042960E94DC170091480610914906011574
:100A3000110539F48091F903813011F00C947F1085
:100A40000DC0F80180818823A9F3082E000C990BB2
:100A50000E947B3AF80181938F01F3CF6CE074E040
:100A6000CE0101960E946618BE016F5F7F4F88E439
:100A700096E00E9421168C01CE0101960E94DC179F
:100A800017FD0FC068E476E0CE0101960E946F1852
:100A900061E0CE0101960E94D128CE0101960E940C
:100AA000DC1760E074E0CE0101960E946618BE017A
:100AB0006F5F7F4F88E496E00E9421168C01CE0183
:100AC00001960E94DC1717FD0EC168E476E0CE01A6
:100AD00084960E946F1863EE72E0CE0142960E94E7
:100AE0007818BE016E5E7F4FCE0184960E94171665
:100AF0004AE0BC01CE0101960E940D18CE0101967C
:100B00000E941115AB014F5F5F4FBE016C5D7F4FBF
:100B1000CE014E960E948B21CE0101960E94DC17D9
:100B2000CE0142960E94DC1767E073E0CE01019689
:100B30000E94781865EE72E0CE0142960E94781805
:100B4000AE014F5F5F4FBE016E5E7F4FCE014E968E
:100B50000E941C15CE0142960E94DC17CE01019620
:100B60000E94DC176AEE72E0CE0142960E9478186D
:100B7000BE016E5E7F4FCE014E960E9417164AE070
:100B8000BC01CE0101960E940D18CE0101960E9473
:100B90001115AB014F5F5F4FBE01625E7F4FCE010B
:100BA00048960E948B21CE0101960E94DC17CE014F
:100BB00042960E94DC17BE01685E7F4FCE014296CE
:100BC0000E946F1806EE11E021E03DE0F32E6E0169
:100BD000F5E0CF0ED11C64EE73E0F80180819181C5
:100BE00028AB0E940025BC01CE0101960E94781816
:100BF000BE016E5E7F4FCE0101960E943B16E82E2D
:100C0000CE0101960E94DC1728A9EE2009F441C00C
:100C100019821A821B821C82F6012F2D11922A95AD
:100C2000E9F7BE016F5F7F4FF801808191810E94DB
:100C30002625F8018081918160E043960E94592524
:100C4000F8018081918160E044960E945925F80165
:100C50008081918160E045960E945925F80180814C
:100C6000918160E046960E94592560E870E08BE72C
:100C700095E00E94E118BE016E5E7F4F8BE795E024
:100C80000E941E190E94CB270E942C1D0E943D1B12
:100C900020E0095E1F4FF2E0053B1F0709F09BCFE4
:100CA000213089F468E670E08BE795E00E94E11856
:100CB000BE016E5E7F4F8BE795E00E941E190E9479
:100CC000CB270E94551BCE0142960E94DC17CE0115
:100CD00048960E94DC17CE014E960E94DC17CE018A
:100CE00084960E94DC1765EF73E0CE0101960E94A6
:100CF0006618BE016F5F7F4F88E496E00E94211660
:100D00008C01CE0101960E94DC1717FDB5C063EE81
:100D100072E0CE0101960E947818BE016F5F7F4F8E
:100D200088E496E00E9417164AE0BC01CE01429684
:100D30000E940D18CE0142960E941115AB014F5F23
:100D40005F4F68E476E0CE0148960E948B21CE0189
:100D500042960E94DC17CE0101960E94DC176CEED1
:100D600072E0CE0101960E947818BE016F5F7F4F3E
:100D7000CE0148960E9421164AE0BC01CE014E9653
:100D80000E940D18CE014E960E9411159B0140E065
:100D900050E0BE01685E7F4FCE0142960E948D18E2
:100DA000CE014E960E94DC17CE0101960E94DC1700
:100DB0006CEE72E0CE014E960E947818BE01625E23
:100DC0007F4F88E496E00E9417164AE0BC01CE01EE
:100DD00084960E940D18CE0184960E941115AB01D5
:100DE0004F5F5F4F68E476E0CE0101960E948B2151
:100DF000CE0184960E94DC17CE014E960E94DC172D
:100E0000CE0101960E941115162FBE016E5E7F4F16
:100E1000CE014E960E946F1841E150E062E373E00C
:100E2000CE014E960E945A2C62E373E08EE190E070
:100E30000E942625612F80E390E00E94592561E001
:100E400081E390E00E9459250E94FB208BE795E00A
:100E50000E941A190E943D1BCE014E960E94DC177B
:100E6000CE0101960E94DC17CE0142960E94DC174B
:100E7000CE0148960E94DC176BEE73E0CE0101961E
:100E80000E946618BE016F5F7F4F88E496E00E9463
:100E900021168C01CE0101960E94DC1717FD67C058
:100EA00063EE72E0CE0101960E947818BE016F5F7A
:100EB0007F4F88E496E00E9417164AE0BC01CE01FD
:100EC00048960E940D18CE0148960E941115AB015C
:100ED0004F5F5F4F68E476E0CE0142960E948B211F
:100EE000CE0148960E94DC17CE0101960E94DC17C5
:100EF000BE016E5E7F4FCE0101960E946F18CE013B
:100F000001960E941115DC01CB010197A109B109DD
:100F1000CC97A105B10510F00C946112CE01019699
:100F20000E941115162F8FE090E00E945925612F25
:100F300070E0709302016093010160E970E08BE75B
:100F400095E00E94E1188FE090E00E9469256AE038
:100F500070E00E94E82B0E94CB270E943D1BCE012F
:100F600001960E94DC17CE0142960E94DC176AEDC2
:100F700073E0CE0101960E946618BE016F5F7F4F3D
:100F800088E496E00E9421168C01CE0101960E9411
:100F9000DC1717FD60C063EE72E0CE0101960E947F
:100FA0007818BE016F5F7F4F88E496E00E941716A5
:100FB0004AE0BC01CE0148960E940D18CE01489629
:100FC0000E941115AB014F5F5F4F68E476E0CE01E0
:100FD00042960E948B21CE0148960E94DC17CE01DA
:100FE00001960E94DC17BE016E5E7F4FCE01019616
:100FF0000E946F18CE0101960E9411156F3F710576
:101000008105910519F010F00C947712CE0101962C
:101010000E941115162F85E190E00E94592510932A
:1010200018046FE970E08BE795E00E94E11885E114
:1010300090E00E9469256AE070E00E94E82B0E941F
:10104000CB270E943D1BCE0101960E94DC17CE01EA
:1010500042960E94DC1769EC73E0CE0101960E9473
:101060006618BE016F5F7F4F88E496E00E942116EC
:101070008C01CE0101960E94DC1717FDC4C064EC00
:1010800073E0CE0101960E946618BE016F5F7F4F2C
:1010900088E496E00E942116192FCE0101960E9445
:1010A000DC176DEB73E0CE0101960E946618BE015D
:1010B0006F5F7F4F88E496E00E9421167C01CE018D
:1010C00001960E94DC17F7FE05C01095111F11272D
:1010D000111F01C012E069EB73E0CE0101960E947E
:1010E0006618BE016F5F7F4F88E496E00E9421166C
:1010F0007C01CE0101960E94DC17F7FE13E063EE3F
:1011000072E0CE0101960E947818BE016F5F7F4F9A
:1011100088E496E00E9417164AE0BC01CE0148968A
:101120000E940D18CE0148960E941115AB014F5F29
:101130005F4F68E476E0CE0142960E948B21CE019B
:1011400048960E94DC17CE0101960E94DC17BE0172
:101150006E5E7F4FCE0101960E946F18CE01019600
:101160000E9411156F3F71058105910519F010F06E
:101170000C948B12CE0101960E941115062F11308E
:1011800079F487E090E00E9459250093CA036AEE43
:1011900070E08BE795E00E94E11887E090E021C0C5
:1011A000123079F489E090E00E9459250093CC0335
:1011B0006EEC70E08BE795E00E94E11889E090E02A
:1011C00010C01330A1F486E190E00E9459250093ED
:1011D000CF0365EB70E08BE795E00E94E11886E1B4
:1011E00090E00E9469256AE070E00E94E82B0E946E
:1011F000CB270E943D1BCE0101960E94DC17CE0139
:1012000042960E94DC176AEA73E0CE0101960E94C2
:101210006618BE016F5F7F4F88E496E00E9421163A
:101220008C01CE0101960E94DC1717FD60C063EEB1
:1012300072E0CE0101960E947818BE016F5F7F4F69
:1012400088E496E00E9417164AE0BC01CE01489659
:101250000E940D18CE0148960E941115AB014F5FF8
:101260005F4F68E476E0CE0142960E948B21CE016A
:1012700048960E94DC17CE0101960E94DC17BE0141
:101280006E5E7F4FCE0101960E946F18CE010196CF
:101290000E9411156F3F71058105910519F010F03D
:1012A0000C949F12CE0101960E941115162F87E112
:1012B00090E00E9459251093CE0364E071E08BE723
:1012C00095E00E94E11887E190E00E9469256AE0BC
:1012D00070E00E94E82B0E94CB270E943D1BCE01AC
:1012E00001960E94DC17CE0142960E94DC1761EA4B
:1012F00073E0CE0101960E946618BE016F5F7F4FBA
:1013000088E496E00E9421168C01CE0101960E948D
:10131000DC1717FD68C063EE72E0CE0101960E94F3
:101320007818BE016F5F7F4F88E496E00E94171621
:101330004AE0BC01CE0148960E940D18CE014896A5
:101340000E941115AB014F5F5F4F68E476E0CE015C
:1013500042960E948B21CE0148960E94DC17CE0156
:1013600001960E94DC17BE016E5E7F4FCE01019692
:101370000E946F18CE0101960E941115DC01CB016D
:101380000A97A109B109863F9105A105B10510F0A1
:101390000C94B312CE0101960E941115162F88E10C
:1013A00090E00E945925612F70E07093B90160931D
:1013B000B80168E171E08BE795E00E94E11888E1EF
:1013C00090E00E9469256AE070E00E94E82B0E948C
:1013D000CB270E943D1BCE0101960E94DC17CE0157
:1013E00042960E94DC1764E973E0CE0101960E94E8
:1013F0006618BE016F5F7F4F88E496E00E94211659
:101400008C01CE0101960E94DC1717FD4EC063EEE1
:1014100072E0CE0101960E947818BE016F5F7F4F87
:1014200088E496E00E9417164AE0BC01CE01489677
:101430000E940D18CE0148960E941115AB014F5F16
:101440005F4F68E476E0CE0142960E948B21CE0188
:1014500048960E94DC17CE0101960E94DC17BE015F
:101460006E5E7F4FCE0101960E946F18CE010196ED
:101470000E941115DC01CB010197A109B109803C43
:10148000984AA105B10510F00C94C912CE0101963D
:101490000E941115CB010E94991ECE0101960E9457
:1014A000DC17CE0142960E94DC176AE873E0CE0199
:1014B00001960E946618BE016F5F7F4F88E496E038
:1014C0000E9421168C01CE0101960E94DC1717FDA7
:1014D0001AC06FEF80E090E00E9459250E94BD1E67
:1014E0006FEF83E690E00E9459250E94331E6FEF54
:1014F00081E390E00E9459250E94FB200E943D1B41
:10150000E0E0F0E009956FE773E0CE0101960E94FC
:101510006618BE016F5F7F4F88E496E00E94211637
:101520008C01CE0101960E94DC1717FD0CC06FEFF5
:1015300083E690E00E9459250E94331E0E943D1BC5
:10154000E0E0F0E0099563E773E0CE0101960E94C8
:101550006618BE016F5F7F4F88E496E00E942116F7
:101560008C01CE0101960E94DC1717FD0CC06FEFB5
:1015700080E090E00E9459250E94BD1E0E943D1B04
:10158000E0E0F0E0099567E673E0CE0101960E9485
:101590006618BE016F5F7F4F88E496E00E942116B7
:1015A0008C01CE0101960E94DC1717FD0CC06FEF75
:1015B00082E690E00E9459250E9458270E943D1B18
:1015C000E0E0F0E009956BE573E0CE0101960E9442
:1015D0006618BE016F5F7F4F88E496E00E94211677
:1015E0008C01CE0101960E94DC1717FD75C069E4DD
:1015F00073E084E296E00E944D1766E473E0CE014A
:1016000001960E946618BE016F5F7F4F88E496E0E6
:101610000E9421168C01CE0101960E94DC1717FD55
:1016200006C081E08093080164E473E019C061E4BE
:1016300073E0CE0101960E946618BE016F5F7F4F76
:1016400088E496E00E9421168C01CE0101960E944A
:10165000DC1717FD0CC082E0809308016FE373E094
:101660008BE795E00E94E1186EEE72E00AC01092DE
:1016700008016DE373E08BE795E00E94E11860EFED
:1016800072E084E296E00E943E176091080183E1D7
:1016900090E00E9459258091F8038130E9F46AEEC8
:1016A00072E0CE0101960E9478186CE376E0CE01DC
:1016B00001960E94F216BC01CE0142960E946F185C
:1016C000CE0142960E946B25CE0142960E94DC1705
:1016D000CE0101960E94DC1760E373E0CE01019613
:1016E0000E946618BE016F5F7F4F88E496E00E94FB
:1016F00021168C01CE0101960E94DC1717FD69C0EE
:1017000061E273E084E296E00E944D176EE173E0BF
:10171000CE0101960E946618BE016F5F7F4F88E47C
:1017200096E00E9421168C01CE0101960E94DC17E2
:1017300017FD06C081E080936C0362E173E01EC078
:101740006FE073E0CE0101960E946618BE016F5FE4
:101750007F4F88E496E00E9421168C01CE0101960D
:101760000E94DC1717FD06C082E080936C0367E0DF
:1017700073E004C010926C036EEF72E084E296E0B6
:101780000E946D1660916C0384E190E00E945925DF
:101790008091F8038130E9F46AEE72E0CE0101969F
:1017A0000E9478186CE376E0CE0101960E94F21652
:1017B000BC01CE0142960E946F18CE0142960E9453
:1017C0006B25CE0142960E94DC17CE0101960E9445
:1017D000DC1763EF72E0CE0101960E946618BE012D
:1017E0006F5F7F4F88E496E00E9421168C01CE0146
:1017F00001960E94DC1717FD26C168E476E0CE0151
:101800008A960E946F1863EE72E0CE0142960E94A3
:101810007818BE016E5E7F4FCE018A960E94171621
:101820004AE0BC01CE0101960E940D18CE0101963E
:101830000E941115AB014F5F5F4FBE01665D7F4F88
:10184000CE0184960E948B21CE0101960E94DC1766
:10185000CE0142960E94DC1763EF72E0CE01019642
:101860000E947818BE016F5F7F4FCE0184960E9460
:101870002116092FCE0101960E94DC1767E073E064
:10188000CE0101960E94781863EF72E0CE01429675
:101890000E947818AE014F5F5F4FBE016E5E7F4FB2
:1018A000CE0184960E941C15CE0142960E94DC1740
:1018B000CE0101960E94DC176AEE72E0CE014296DC
:1018C0000E947818BE016E5E7F4FCE0184960E9402
:1018D00021164AE0BC01CE0101960E940D18CE01EE
:1018E00001960E9411159B0140E050E0BE016C5D25
:1018F0007F4FCE014E960E948D18CE0101960E9418
:10190000DC17CE0142960E94DC176AEE72E0CE012F
:1019100042960E947818BE016E5E7F4FCE0184967B
:101920000E9417164AE0BC01CE0101960E940D18D4
:10193000CE0101960E941115AB014F5F5F4FBE01B2
:101940006C5D7F4FCE0148960E948B21CE0101969F
:101950000E94DC17CE0142960E94DC17CE014E9603
:101960000E941115162FBE01685E7F4FCE010196B1
:101970000E946F181150183048F069E371E08BE74E
:1019800095E00E9430190E94551B45C046E250E088
:1019900063E473E0CE0101960E945A2CC12ED12C33
:1019A00025E1129FF0011124E75FFE4F838994899E
:1019B00023E4E22E23E0F22EFC01E354F3405F0126
:1019C000C5018E0D9F1DF70161917F019B8B8A8B55
:1019D000CE0142960E946B21F9E6EF16F3E0FF0676
:1019E00079F7602F6095661F6627661F85E18C9DDD
:1019F000F0018D9DF00D1124E75FFE4F83899489DE
:101A000087960E94592566E271E08BE795E00E9477
:101A100030190E943D1B0E94CB270E94FC26CE015C
:101A200001960E94DC17CE0148960E94DC17CE0179
:101A30004E960E94DC17CE0184960E94DC17CE01E0
:101A40008A960E94DC1765EE72E0CE0101960E9434
:101A50006618BE016F5F7F4F88E496E00E942116F2
:101A60008C01CE0101960E94DC1717FD0FC068E4BF
:101A700076E0CE0101960E946F1862E0CE010196D9
:101A80000E94D128CE0101960E94DC176AED72E017
:101A9000CE0101960E946618BE016F5F7F4F88E4F9
:101AA00096E00E9421168C01CE0101960E94DC175F
:101AB00017FD04C00E94BD1E0E94FB206FEC72E067
:101AC000CE0101960E946618BE016F5F7F4F88E4C9
:101AD00096E00E9421168C01CE0101960E94DC172F
:101AE00017FF0E94FC2667EC72E0CE0101960E946F
:101AF0006618BE016F5F7F4F88E496E00E94211652
:101B00008C01CE0101960E94DC1717FD84C00E9453
:101B1000FC362DEF30E040E050E00E94B73782E025
:101B2000D82ED60E63E771E08BE795E00E94E118AE
:101B30004AE060E074E080E090E00E94A52B61E75D
:101B400071E08BE795E00E94301900E010E06D2D08
:101B5000C8010E94A93765E070E080E090E00E9433
:101B60002F1A0F5F1F4F011524E0120781F7E12C98
:101B7000F12C00E010E0C8010E9469258D1529F1C3
:101B800063E671E08BE795E00E94E118C8010E94CE
:101B90006925C82E4AE0B801CE0101960E94E117DE
:101BA00060E376E0CE0101960E94F2166C2D0E9451
:101BB0003017BC018BE795E00E941E19CE010196FB
:101BC0000E94DC173FEFE31AF30A65E070E080E063
:101BD00090E00E942F1A0F5F1F4F011584E0180735
:101BE00051F66DE571E08BE795E00E94E118E11494
:101BF000F10409F0E4C465E571E08BE795E00E942B
:101C000030190E94CB2764EF71E080E090E00E94E1
:101C10002F1AF70109956FEB72E0CE0101960E9431
:101C20006618BE016F5F7F4F88E496E00E94211620
:101C30008C01CE0101960E94DC1717FF0E94CF276E
:101C400065EB72E0CE0101960E946618BE016F5FDF
:101C50007F4F88E496E00E9421168C01CE01019608
:101C60000E94DC1717FF0E942C1D6EEA72E0CE0165
:101C700001960E946618BE016F5F7F4F88E496E070
:101C80000E9421168C01CE0101960E94DC1717FDDF
:101C900009C064EF71E080E090E00E942F1AE0E05C
:101CA000F0E0099566EA72E0CE0101960E9466189E
:101CB000BE016F5F7F4F88E496E00E9421168C0181
:101CC000CE0101960E94DC1717FD99C063EE72E009
:101CD000CE0142960E947818BE016E5E7F4F88E466
:101CE00096E00E9417164AE0BC01CE0148960E9479
:101CF0000D18CE0148960E941115AB014F5F5F4F42
:101D000068E476E0CE0101960E948B21CE014896D0
:101D10000E94DC17CE0142960E94DC17CE0101968C
:101D20000E9411156B3071058105910508F04EC4B4
:101D3000CE0101960E941115162F64EC71E08BE71D
:101D400095E00E94E1188091FA03082E000C990B8F
:101D50000E94422C612F89E190E00E945925109346
:101D6000FA0367EB71E08BE795E00E94E118609160
:101D7000FA03062E000C770B880B990B97FF03C014
:101D80000E941B2C03C04AE00E94A52B6DEA71E063
:101D90008BE795E00E94E118111116C061EA71E02D
:101DA0008BE795E00E94301969E971E08BE795E0D7
:101DB0000E94301964EF71E080E090E00E942F1AD9
:101DC000E0E0F0E0099515C0113019F462E971E026
:101DD0000CC0123019F469E871E007C0133019F42F
:101DE00065E871E002C06CE771E08BE795E00E9466
:101DF00030190E94CB27CE0101960E94DC1767E9BB
:101E000072E0CE0101960E946618BE016F5F7F4F9F
:101E100088E496E00E9421168C01CE0101960E9472
:101E2000DC1717FD24C063E972E0CE0101960E9421
:101E30006618BE016F5F7F4F88E496E00E9421160E
:101E40008C01CE0101960E94DC1717FD02C060E0F4
:101E500001C061E08AE190E00E94592564EF71E0E1
:101E600080E090E00E942F1AE0E0F0E0099565E83C
:101E700072E0CE0101960E946618BE016F5F7F4F2F
:101E800088E496E00E9421168C01CE0101960E9402
:101E9000DC1717FD62C063EE72E0CE0101960E946E
:101EA0007818BE016F5F7F4F88E496E00E94171696
:101EB0004AE0BC01CE0148960E940D18CE0148961A
:101EC0000E941115AB014F5F5F4F68E476E0CE01D1
:101ED00042960E948B21CE0148960E94DC17CE01CB
:101EE00001960E94DC17BE016E5E7F4FCE01019607
:101EF0000E946F18CE0101960E9411156F3F710567
:101F00008105910511F008F077C3CE0101960E947A
:101F100011158BE190E00E945925CE0101960E9497
:101F200011156093000162E772E08BE795E00E9473
:101F3000E1188BE190E00E9469256AE070E00E9460
:101F4000E82B0E94CB270E943D1BCE0101960E94E8
:101F5000DC17CE0142960E94DC1762E672E0CE01E9
:101F600001960E946618BE016F5F7F4F88E496E07D
:101F70000E9421168C01CE0101960E94DC1717FDEC
:101F80003AC06DE572E0CE0101960E946618BE016E
:101F90006F5F7F4F88E496E00E9421168C01CE018E
:101FA00001960E94DC1717FD02C061E017C069E5C9
:101FB00072E0CE0101960E946618BE016F5F7F4FEE
:101FC00088E496E00E9421168C01CE0101960E94C1
:101FD000DC1717FD02C060E001C062E086E090E01F
:101FE0000E94592564EF71E080E090E00E942F1A72
:101FF000E0E0F0E0099567E472E0CE0101960E940E
:102000006618BE016F5F7F4F88E496E00E9421163C
:102010008C01CE0101960E94DC1717FD3AC062E4E4
:1020200072E0CE0101960E946618BE016F5F7F4F7D
:1020300088E496E00E9421168C01CE0101960E9450
:10204000DC1717FD02C061E017C06EE372E0CE013D
:1020500001960E946618BE016F5F7F4F88E496E08C
:102060000E9421168C01CE0101960E94DC1717FDFB
:1020700002C060E001C062E088E090E00E94592563
:1020800064EF71E080E090E00E942F1AE0E0F0E061
:10209000099564E372E0CE0101960E946618BE01C4
:1020A0006F5F7F4F88E496E00E9421168C01CE017D
:1020B00001960E94DC1717FD20C066EF72E0CE018A
:1020C00001960E947818BE016F5F7F4F88E496E00A
:1020D0000E9421168C01CE0101960E94DC1717FD8B
:1020E00004C081E08093C80302C01092C8036091CD
:1020F000C8038CE190E00E9459251092F9036FE229
:1021000072E0CE0101960E946618BE016F5F7F4F9C
:1021100088E496E00E9421168C01CE0101960E946F
:10212000DC1717FD37C066E376E084E296E00E9494
:102130008C1760ED77E080E090E00E942F1A80918C
:10214000F8038130E9F46AEE72E0CE0101960E9454
:1021500078186CE376E0CE0101960E94F216BC017D
:10216000CE0142960E946F18CE0142960E946B25C6
:10217000CE0142960E94DC17CE0101960E94DC1728
:102180008091F503813031F464E276E08BE795E0ED
:102190000E941E1969E272E0CE0101960E94661843
:1021A000BE016F5F7F4F88E496E00E9421168C018C
:1021B000CE0101960E94DC1717FD22C08091F50325
:1021C000813011F48093F70368EE73E080E090E0D3
:1021D0000E942F1A62ED71E084E596E00E94E118FA
:1021E0006EE476E084E596E00E94D31868EF72E032
:1021F00084E596E00E94051984E596E00E941A198C
:1022000063E272E0CE0101960E946618BE016F5F24
:102210007F4F88E496E00E9421168C01CE01019642
:102220000E94DC1717FD12C060E08BE00E94C3190A
:102230002091010130910201A0E6BAEE0E944238DD
:102240000E942F1A61E08BE00E94C3196BE172E0DB
:10225000CE0101960E946618BE016F5F7F4F88E431
:1022600096E00E9421168C01CE0101960E94DC1797
:1022700017FD04C08091F5030E941B1B62E172E010
:10228000CE0101960E946618BE016F5F7F4F88E401
:1022900096E00E9421168C01CE0101960E94DC1767
:1022A00017FD0CC08091F503813011F48093F70382
:1022B0001092CD03109254050E948C1A6CE072E0CB
:1022C000CE0101960E946618BE016F5F7F4F88E4C1
:1022D00096E00E9421168C01CE0101960E94DC1727
:1022E00017FD26C066EF72E0CE0101960E947818B5
:1022F000BE016F5F7F4F88E496E00E9421168C013B
:10230000CE0101960E94DC1717FD04C081E0809386
:10231000F60306C01092F60361E08BE00E94C31939
:102320006091F6038CE090E00E9459250E949D1B6D
:1023300067E072E0CE0101960E946618BE016F5FF1
:102340007F4F88E496E00E9421168C01CE01019611
:102350000E94DC1717FD25C066EF72E0CE010196E2
:102360000E947818BE016F5F7F4F88E496E00E945C
:1023700021168C01CE0101960E94DC1717FD05C0C5
:1023800081E08093B40160E003C01092B40161E089
:102390008CE00E94C3196091B4018DE090E00E942E
:1023A00059256EEF71E0CE0101960E946618BE01BC
:1023B0006F5F7F4F88E496E00E9421168C01CE016A
:1023C00001960E94DC1717FD23C060EF71E084E5E1
:1023D00096E00E94E1188091FA03813031F46CEEAE
:1023E00071E084E596E00E9430198091FA038250F2
:1023F000823030F46AEE71E084E596E00E94301994
:102400006EED71E08BE795E00E9430190E943D1B54
:1024100069EF71E0CE0101960E946618BE016F5F00
:102420007F4F88E496E00E9421168C01CE01019630
:102430000E94DC1717FD30C0809103018130A9F4A0
:1024400061E081E10E94C3194091000128EE33E070
:102450004203B001439F700D1124072E000C880B1E
:10246000990B0E942F1A60E014C060E081E10E9485
:10247000C3194091000128EE33E04203B001439FAD
:10248000700D1124072E000C880B990B0E942F1A37
:1024900061E081E10E94C3191092F8031092F503E4
:1024A000E0960FB6F894DEBF0FBECDBFDF91CF919F
:1024B0001F910F91FF90EF90DF90CF90BF90AF9062
:1024C000089560910101709102014AE0CE014896A1
:1024D0000E94E117BE01685E7F4FCE0101960E9407
:1024E000A317CE0148960E94DC170C948E074AE091
:1024F00060911804CE0148960E943918BE01685EAA
:102500007F4FCE0101960E94A317CE0148960E94EC
:10251000DC170C9406084AE06091CF03CE01489680
:102520000E943918BE01685E7F4FCE0101960E945D
:10253000A317CE0148960E94DC170C94BA084AE013
:102540006091CE03CE0148960E943918BE01685EA4
:102550007F4FCE0101960E94A317CE0148960E949C
:10256000DC170C9452096091B8017091B9014AE0EE
:10257000CE0148960E94E117BE01685E7F4FCE01F2
:1025800001960E94A317CE0148960E94DC170C9476
:10259000CA096091B1017091B2014AE0CE0148963A
:1025A0000E94E117BE01685E7F4FCE0101960E9436
:1025B000A317CE0148960E94DC170C94460A6DE4DE
:1025C00071E08BE795E00E94301925CB6091FA030A
:1025D000062E000C770B4AE0CE0142960E940D18A1
:1025E000BE016E5E7F4FCE0101960E94A317CE0101
:1025F00042960E94DC179CCB60910001062E000CD5
:10260000770B4AE0CE0148960E940D18BE01685E25
:102610007F4FCE0101960E94A317CE0148960E94DB
:10262000DC1773CC0895CF92DF92EF92FF920F9355
:102630001F93CF93DF936C017A018B01C0E0D0E050
:10264000CE15DF0589F0D8016D918D01D601ED9190
:10265000FC910190F081E02DC6010995892B11F4C0
:102660007E0102C02196ECCFC701DF91CF911F916F
:102670000F91FF90EF90DF90CF900895FC01538D64
:10268000448D252F30E0842F90E0821B930B54174C
:1026900010F0CF96089501970895FC01918D828DD9
:1026A000981761F0828DDF01A80FB11D5D968C91A6
:1026B000928D9F5F9F73928F90E008958FEF9FEFB1
:1026C0000895FC01918D828D981731F0828DE80F6D
:1026D000F11D858D90E008958FEF9FEF0895FC0127
:1026E000918D228D892F90E0805C9F4F821B9109F4
:1026F0008F73992708958BE795E00E946F1321E06F
:10270000892B09F420E0822F0895FC01848DDF01DC
:10271000A80FB11DA35ABF4F2C91848D90E0019654
:102720008F739927848FA689B7892C93A089B18943
:102730008C9180648C93938D848D981306C002884D
:10274000F389E02D80818F7D80830895EF92FF9241
:102750000F931F93CF93DF93EC0181E0888F9B8DC4
:102760008C8D981305C0E889F989808185FD24C086
:10277000F62E0B8D10E00F5F1F4F0F731127E02E09
:102780008C8DE8120CC00FB607FCFACFE889F989E6
:10279000808185FFF5CFCE010E948513F1CF8B8D0F
:1027A000FE01E80FF11DE35AFF4FF0820B8FEA891B
:1027B000FB898081806207C0EE89FF896083E88998
:1027C000F98980818064808381E090E0DF91CF91FE
:1027D0001F910F91FF90EF900895CF93DF93EC013D
:1027E000888D8823C9F0EA89FB89808185FD05C031
:1027F000A889B9898C9186FD0FC00FB607FCF5CF6B
:10280000808185FFF2CFA889B9898C9185FFEDCFB2
:10281000CE010E948513E7CFDF91CF91089580E02C
:1028200090E0892B29F00E947B1381110C94000009
:102830000895833081F028F4813099F08230A1F03E
:1028400008958730A9F08830B9F08430D1F48091B0
:1028500080008F7D03C0809180008F7780938000FF
:10286000089584B58F7702C084B58F7D84BD0895A7
:102870008091B0008F7703C08091B0008F7D8093EE
:10288000B00008953FB7F894809114049091150416
:10289000A0911604B091170426B5A89B05C02F3F40
:1028A00019F00196A11DB11D3FBFBA2FA92F982F76
:1028B0008827820F911DA11DB11DBC01CD0142E0F1
:1028C000660F771F881F991F4A95D1F708950E94B8
:1028D000763AAF92BF92CF92DF92EF92FF920F9330
:1028E0001F93CF93DF937B018A01FB0144815581C4
:1028F0004115510561F1FC01248135812115310516
:1029000031F12417350718F10217130718F0890160
:1029100001501109FC01A080B180C501DFEFCFEFAC
:102920006501C00ED11EC816D906A0F0F70160815E
:1029300071810E94BD3A009769F09C012A193B09F8
:102940000217130710F0D22FC32F0196ECCF8FEF91
:102950009FEF02C08D2F9C2FDF91CF911F910F9180
:10296000FF90EF90DF90CF90BF90AF9008950F93BE
:102970001F93CF93DF93EC0188819981009729F011
:102980002A813B812617370788F48B016F5F7F4FC1
:102990000E94AC39009761F0998388831B830A8376
:1029A0002C813D81232B11F4FC01108281E001C0B8
:1029B00080E0DF91CF911F910F910895CF93DF9326
:1029C000EC0188819981009711F00E9414391982D5
:1029D00018821D821C821B821A82DF91CF9108957A
:1029E000EF92FF920F931F93CF93DF93EC017B0144
:1029F0008A01BA010E94B714811104C0CE010E945D
:102A0000DE1407C01D830C83B701888199810E9461
:102A1000A73ACE01DF91CF911F910F91FF90EF90D8
:102A20000895FC0180819181009711F00C940A3780
:102A300060E070E0CB0108952F923F924F925F9239
:102A40006F927F928F929F92AF92BF92CF92DF92BE
:102A5000EF92FF920F931F93CF93DF93FC0144807B
:102A600055804114510409F4CFC0FB016480758086
:102A70006114710409F4C8C07A016B01EC01FA0118
:102A8000A480B580A618B70808811981A114B104E3
:102A9000C1F4F60160817181C8010E94BD3AEC0168
:102AA000892B09F4B1C0F70160817181448155819E
:102AB000CE010E94833AF701048115810C0F1D1F7E
:102AC000E8CFB7FE02C0480106C0FB01208031807C
:102AD0004201C80142C0F60160817181C4010E94B7
:102AE000BD3A2C01892B19F1320168187908A3012C
:102AF000B401C8010E94833A060D171DF7016081D9
:102B0000718144815581C8010E94833AF701848113
:102B10009581080F191FF60184809580840C951CFF
:102B20008C819D818A0D9B1D9D838C83D4CFB401A4
:102B3000C801DF91CF911F910F91FF90EF90DF902F
:102B4000CF90BF90AF909F908F907F906F905F904D
:102B50004F903F902F900C94A73AB1010E94BD3A3C
:102B6000009729F0860D971D8A0C9B1CF6CF8414C4
:102B7000950409F449C08A819B818815990560F400
:102B8000B4016F5F7F4FC8010E94AC390097E1F13B
:102B9000998388839B828A824C815D81415051094F
:102BA00057FD32C0B601CE010E9469148C0197FD19
:102BB0002BC088819981F60124813581200F311F36
:102BC000820F931F4C815D81421B530BBC018A0D08
:102BD0009B1D0E948C3A8C819D818A0D9B1D9D833B
:102BE0008C8328813981F901E80FF91F10828881CF
:102BF0009981F7016081718144815581800F911F16
:102C00000E94833AA801CACFDF91CF911F910F9103
:102C1000FF90EF90DF90CF90BF90AF909F908F90FC
:102C20007F906F905F904F903F902F900895FC01A0
:102C300044815581FB0124813581421B530B0C9447
:102C40006914CF93DF93FC0124813581232B71F02C
:102C5000FB01DC01CD91DC9160817181CE010E948C
:102C6000BD3A009719F08C1B9D0B02C08FEF9FEFB0
:102C7000DF91CF910895FC0124813581FB014481CE
:102C800055812417350721F5FC0180819181FB01D5
:102C900060817181009719F061157105A1F46115CA
:102CA000710549F0232BB1F0FB01808190E09195F3
:102CB000819591090AC0009769F0232B59F0FC0116
:102CC000808190E002C00E949E3A21E0892B19F099
:102CD00020E001C021E0822F0895EF92FF920F9330
:102CE0001F93CF93DF936115710511F480E01EC02F
:102CF0008B01EC01CB010E9438370097B1F02C8199
:102D00003D817C01E20EF31EB701CE010E94B71493
:102D1000882361F3288139818C819D81B801820FDC
:102D2000931F0E943137FD82EC8281E0DF91CF91C9
:102D30001F910F91FF90EF900895CF93DF93EC01D7
:102D40000E946D16811103C0CE010E94DE14CE01D7
:102D5000DF91CF910895EF92FF920F931F93CF933E
:102D6000DF93FC01248135816115710511F480E048
:102D700019C041155105A9F07B01EC018A01020F30
:102D8000131FB8010E94B714882389F32881398161
:102D90008C819D81B701820F931F0E94A73A1D83EA
:102DA0000C8381E0DF91CF911F910F91FF90EF9005
:102DB0000895CF93DF93EC016115710561F0FB017C
:102DC00001900020E9F73197AF01461B570B0E9495
:102DD000AB16811103C0CE010E94DE14CE01DF913B
:102DE000CF910895CF93DF93EC01FB01448155818E
:102DF000608171810E94AB16811103C0CE010E94D7
:102E0000DE14CE01DF91CF910895EF92FF920F93E0
:102E10001F93CF93DF9300D000D0CDB7DEB77C01F6
:102E2000862F4AE08E010F5F1F4FB80190E00E948D
:102E30004C37F80101900020E9F73197AF01401BB2
:102E4000510BB801C7010E94AB160F900F900F9065
:102E50000F90DF91CF911F910F91FF90EF90089508
:102E6000CF93DF93EC010E940517811103C0CE01BF
:102E70000E94DE14CE01DF91CF9108956115710596
:102E800051F0FB0101900020E9F73197AF01461B9B
:102E9000570B0C94AB1680E00895EF92FF920F93BE
:102EA0001F93CF93DF93EC018B016115710551F0F6
:102EB000CB010E9438377C01BC01CE010E94B714BF
:102EC000811104C0CE010E94DE1407C0FD82EC8295
:102ED000B801888199810E943137CE01DF91CF916D
:102EE0001F910F91FF90EF900895CF93DF93EC0126
:102EF0006115710559F0FB0101900020E9F7319748
:102F0000AF01461B570B0E94F01402C00E94DE1452
:102F1000CE01DF91CF910895CF93DF93EC01FB01B8
:102F20008617970761F0608171816115710529F03D
:102F3000448155810E94F01402C00E94DE14CE012B
:102F4000DF91CF9108950F931F93CF93DF938C015F
:102F5000EB01FC01808191810097B1F0688179815A
:102F60006115710579F0428153812C813D814217B1
:102F7000530740F00E94A73A8C819D81F801958308
:102F8000848313C00E94143988819981F801918348
:102F900080838A819B81938382838C819D819583A9
:102FA0008483198218821B821A821D821C82DF91FF
:102FB000CF911F910F910895FC01808191810C9414
:102FC00014390F931F93CF93DF93CDB7DEB761977B
:102FD0000FB6F894DEBF0FBECDBF8C01CB01F80158
:102FE00011821082138212821582148250E0BE0177
:102FF0006F5F7F4F0E946C37BE016F5F7F4FC801CC
:103000000E94751761960FB6F894DEBF0FBECDBF54
:10301000DF91CF911F910F9108950F931F93CF933D
:10302000DF93CDB7DEB762970FB6F894DEBF0FBE61
:10303000CDBF8C01CB01F801118210821382128264
:103040001582148250E0BE016F5F7F4F0E944137AE
:10305000BE016F5F7F4FC8010E94751762960FB661
:10306000F894DEBF0FBECDBFDF91CF911F910F91BE
:1030700008950F931F93CF93DF93CDB7DEB72997B2
:103080000FB6F894DEBF0FBECDBF8C01862FF801BE
:1030900011821082138212821582148250E0BE01C6
:1030A0006F5F7F4F90E00E946C37BE016F5F7F4F74
:1030B000C8010E94751729960FB6F894DEBF0FBE9F
:1030C000CDBFDF91CF911F910F910895FC01118227
:1030D000108213821282158214820C944D17FC0107
:1030E0001182108213821282158214820C948C1722
:1030F000FC011182108213821282158214826115E2
:10310000710551F0FB0101900020E9F73197AF0103
:10311000461B570B0C94F0140895BF92CF92DF9288
:10312000EF92FF920F931F93CF93DF937C016B017C
:103130008A01E9012417350720F4812F8901C42F62
:10314000D82F67E073E0C7010E947818D601149663
:103150008D919C91159708171907D0F48C179D072E
:1031600008F4EC01D601ED91FC911197EC0FFD1FD5
:10317000B08010824D915C91BA01600F711FC70140
:103180000E947517D601ED91FC91EC0FFD1FB082E6
:10319000C701DF91CF911F910F91FF90EF90DF90CA
:1031A000CF90BF900895DC01ED91FC91DB01149666
:1031B0004D915C9115976D917C910280F381E02D8A
:1031C0000994EF92FF920F931F93CF93DF938C019B
:1031D0007B01C0E0D0E0F701EC0FFD1F6491662396
:1031E00061F0D801ED91FC910190F081E02DC801D2
:1031F0000995892B11F02196EECFCE01DF91CF9169
:103200001F910F91FF90EF9008956115710579F06E
:10321000FB0101900020E9F73197AF01461B570BE6
:10322000DC01ED91FC910280F381E02D099480E0B6
:1032300090E0089565E073E00C9405190F931F93D7
:10324000CF93DF93EC010E94D3188C01CE010E9432
:103250001A19800F911FDF91CF911F910F9108953F
:103260000F931F93CF93DF93EC010E94E1188C0121
:10327000CE010E941A19800F911FDF91CF911F91EB
:103280000F9108951F920F920FB60F9211242F9352
:103290003F934F935F936F937F938F939F93AF93DE
:1032A000BF93EF93FF938BE795E00E948513FF9107
:1032B000EF91BF91AF919F918F917F916F915F91AE
:1032C0004F913F912F910F900FBE0F901F90189527
:1032D0001F920F920FB60F9211242F938F939F93EB
:1032E000EF93FF93E0918B05F0918C058081E09145
:1032F0009105F091920582FD12C090818091940514
:103300008F5F8F7320919505821751F0E09194059E
:10331000F0E0E558FA4F958F8093940501C08081C5
:10332000FF91EF919F918F912F910F900FBE0F9072
:103330001F901895CF93DF93282F30E0F901E85DB7
:10334000FA4F8491F901E65FF64FD491F901EA5002
:10335000F74FC491CC2391F081110E941914EC2FE6
:10336000F0E0EE0FFF1FE451F74FA591B491EC91FF
:10337000ED2381E090E021F480E002C080E090E065
:10338000DF91CF9108951F93CF93DF93282F30E0E3
:10339000F901E85DFA4F8491F901E65FF64FD491A7
:1033A000F901EA50F74FC491CC23C9F0162F8111CF
:1033B0000E941914EC2FF0E0EE0FFF1FEE51F74FB3
:1033C000A591B4918FB7F894111105C09C91ED2F80
:1033D000E095E92302C0EC91ED2BEC938FBFDF91D8
:1033E000CF911F910895CF93DF9390E0FC01E65FAA
:1033F000F64F2491FC01EA50F74F8491882361F144
:1034000090E0880F991FFC01E25EFA4FC591D491BC
:10341000FC01EE51F74FA591B491611109C09FB71E
:10342000F8948881209582238883EC912E230BC009
:10343000623061F49FB7F8943881822F809583239E
:103440008883EC912E2B2C939FBF06C08FB7F894E6
:10345000E8812E2B28838FBFDF91CF9108958F9223
:103460009F92AF92BF92CF92DF92EF92FF926B0149
:103470007C010E9442144B015C01C114D104E1049F
:10348000F104F1F00E944214DC01CB018819990982
:10349000AA09BB09883E9340A105B10570F321E05C
:1034A000C21AD108E108F10888EE880E83E0981E60
:1034B000A11CB11CC114D104E104F10419F7DDCF42
:1034C000FF90EF90DF90CF90BF90AF909F908F9044
:1034D000089580916B03813019F46FEA77E006C09C
:1034E0008091F703813031F460EC77E086E396E079
:1034F0000C946D1667EB77E086E396E00E946D16FC
:10350000409140065091410660913C0670913D0605
:1035100086E396E00C94AB160F931F93CF93DF9343
:10352000CDB7DEB762970FB6F894DEBF0FBECDBF42
:103530001092B70160E08EE090E00E94592564EAA5
:1035400077E086E396E00E944D170E94691A66E3D1
:1035500076E08BE795E00E941E1966E376E084E250
:1035600096E00E948C1768EE73E080E090E00E9485
:103570002F1A0AEB11E0F8018589968946960E9478
:1035800069258130D1F568EE73E080E090E00E941B
:103590002F1A64EE73E0F801858996890E94002550
:1035A000BC01CE0107960E9478186AEE72E0CE0147
:1035B00001960E947818BE01695F7F4FCE01019687
:1035C0000E94F216BC01CE010D960E946F18CE012A
:1035D0000D960E946B25CE010D960E94DC17CE0140
:1035E00001960E94DC17CE0107960E94DC1768EE58
:1035F00073E080E090E00E942F1A095E1F4FF2E016
:10360000003A1F0709F0B7CF80916C03823021F494
:10361000109205011092040110926B031092F703AF
:1036200062960FB6F894DEBF0FBECDBFDF91CF918B
:103630001F910F910895813011F48093F7030E9438
:1036400000236093190470931A0480931B049093D1
:103650001C0481E08093CD030C94C7258091B701B1
:10366000813031F41092CD03109254050C948C1AD1
:10367000811102C00C941B1B089561E08BE00E9435
:10368000C31964E670E080E090E00E942F1A60E0C9
:103690008BE00E94C31964E670E080E090E00E9435
:1036A0002F1A61E08BE00C94C3190E943D1B0C940F
:1036B0003D1BCF92DF92FF920F931F93CF93DF9327
:1036C00000D000D000D0CDB7DEB76C010AEB11E01E
:1036D00064EE73E0F801858996890E940025BC019B
:1036E000CE0101960E947818B601CE0101960E9483
:1036F0003B16F82ECE0101960E94DC17FF2041F008
:10370000B6018CE396E00E948C17FF24F39406C068
:10371000095E1F4FF2E0003A1F07D1F68F2D269663
:103720000FB6F894DEBF0FBECDBFDF91CF911F91D2
:103730000F91FF90DF90CF9008950F931F93CF9339
:10374000DF9300D000D000D0CDB7DEB760ED77E0DA
:1037500080E090E00E942F1A0E94632B10926F0667
:1037600010926E0610926D0610926C0610926B0607
:1037700010926A068DE991E090937106809370062D
:1037800090916006963108F057C02DEB30E03093F1
:103790006B0620936A062BE931E030936D06209387
:1037A0006C062CE231E030936F0620936E06209178
:1037B0006800983050F031E09E3008F430E081E04D
:1037C00001C0880F3A95EAF701C084E0822B80930C
:1037D0006800983038F09E3040F0963148F020E094
:1037E00030E008C02DE630E005C02BE630E002C036
:1037F0002CE630E03093680620936706983030F46A
:1038000081E001C0880F9A95EAF70EC0292F30E0B9
:103810009E3018F42850310902C02E50310981E041
:1038200001C0880F2A95EAF7809369068091700697
:10383000909171060197F1F780916E0690916F0655
:10384000892B49F1E0911F04F091200486E0E435D2
:10385000F80709F1309739F0A389B4899C918589DB
:10386000809589238C93809172068E7F8093720657
:1038700010921D0410921E0484E596E0909320049B
:1038800080931F04E0916706F09168069081809113
:103890006906892B80831AE061EA77E084E596E087
:1038A0000E94301968EC70E080E090E00E942F1ACE
:1038B000115091F76DE977E084E596E00E943019A8
:1038C0006AE070E080E090E00E942F1A84E596E0C4
:1038D0000E94C122892B09F471C084E596E00E9400
:1038E000C122892B79F084E596E00E94D922809349
:1038F000FB030E94912C64E170E080E090E00E9464
:103900002F1AEBCF8091FA03811152C068E977E05A
:10391000CE0101960E946618BE016F5F7F4F88E45A
:1039200096E00E9421168C01CE0101960E94DC17C0
:1039300017FD03C081E08093FA0361E977E0CE01CF
:1039400001960E946618BE016F5F7F4F88E496E083
:103950000E9421168C01CE0101960E94DC1717FDF2
:1039600003C082E08093FA036EE877E0CE0101960F
:103970000E946618BE016F5F7F4F88E496E00E9448
:1039800021168C01CE0101960E94DC1717FD03C0A1
:1039900083E08093FA036BE777E08BE795E00E9482
:1039A000E1188091FA03082E000C990B0E94422C1A
:1039B00067E073E088E496E00E94751761E777E0BE
:1039C00084E596E00E94301964E670E080E090E0C3
:1039D0000E942F1A67E677E084E596E00E9430198E
:1039E00064E670E080E090E00E942F1A69E577E0DD
:1039F00084E596E00E94301964E670E080E090E093
:103A00000E942F1A6DE477E084E596E00E94301959
:103A100064E670E080E090E00E942F1A8091F60347
:103A2000813019F468E477E002C063E477E084E56C
:103A300096E00E9430196EE377E084E596E00E94FC
:103A4000301926960FB6F894DEBF0FBECDBFDF91BA
:103A5000CF911F910F910895AF92BF92CF92DF92B5
:103A6000EF92FF920F931F93CF93DF9300D000D07C
:103A700000D0CDB7DEB763EE75E08BE795E00E942E
:103A800030196FED75E08BE795E00E94E11860E377
:103A900076E0CE0101960E946F1869ED75E0CE01C7
:103AA00001960E949D16BC018BE795E00E94D318F9
:103AB000CE0101960E94DC1760E376E0CE0101960C
:103AC0000E946F1867ED75E0CE0101960E949D1669
:103AD000BC018BE795E00E94D318CE0101960E94AD
:103AE000DC1760E376E0CE0101960E946F1865ED69
:103AF00075E0CE0101960E949D16BC018BE795E012
:103B00000E94D318CE0101960E94DC1760E376E094
:103B1000CE0101960E946F1863ED75E0CE0101960B
:103B20000E949D16BC018BE795E00E94D318CE0140
:103B300001960E94DC1760E376E0CE0101960E94B8
:103B40006F1861ED75E0CE0101960E949D16BC01D3
:103B50008BE795E00E941E19CE0101960E94DC17AA
:103B60000AEB11E0E12CF12C64EE73E0F801858999
:103B700096890E940025F8018589968943960E94BE
:103B80006925D82EFFEFEF1AFF0A4AE0B701CE01F0
:103B900001960E940D1860E376E0CE0101960E9426
:103BA000F21664EE73E00E94D91660E376E00E949C
:103BB000F2166D2D0E943017BC018BE795E00E9434
:103BC000D318CE0101960E94DC17F801C588D6886B
:103BD000C60146960E946925B82EC60145960E94E8
:103BE0006925A82EC60144960E946925D82E60E357
:103BF00076E0CE0101960E946F186D2DCE010196E0
:103C00000E94301760E376E00E94F2166A2D0E944F
:103C1000301760E376E00E94F2166B2D0E94301799
:103C2000BC018BE795E00E941E19CE0101960E940F
:103C3000DC17095E1F4FFAE0EF16F10409F094CF8C
:103C40000E94CB2726960FB6F894DEBF0FBECDBFDD
:103C5000DF91CF911F910F91FF90EF90DF90CF9068
:103C6000BF90AF900895CF93DF9383E690E00E94DA
:103C70006925813009F450C06CEB75E08BE795E065
:103C80000E943019C4E6D0E06FEFCE010E945925A2
:103C90006AE070E080E090E00E942F1A2196C0391F
:103CA00081E0D80789F763EA75E08BE795E00E9429
:103CB00030190E94CB27CEECD1E0BE0164517109CE
:103CC00089819A810E942625FE01339789819A81F4
:103CD000608143960E945925FE01329789819A811D
:103CE000608144960E945925FE01319789819A810D
:103CF000608145960E94592589819A8168814696FE
:103D00000E945925679682E0C43BD807B1F661E06E
:103D100083E690E00E94592583E690E00E946925A1
:103D2000813021F4DF91CF910C942C1DDF91CF9144
:103D30000895CF93DF93D82FC92F682F80E190E0AB
:103D40000E94A9376C2F81E190E00E94A937D0939F
:103D5000B101C093B20160E975E08BE795E00E9484
:103D6000E1188091B1019091B2010E94092C0E944A
:103D7000CB27DF91CF910C943D1BCF93DF9380E055
:103D800090E00E946925813009F490C062E277E0FA
:103D90008BE795E00E943019C0E0D0E06FEFCE01D4
:103DA0000E9459256AE070E080E090E00E942F1A9E
:103DB0002196CE31D10591F762E077E08BE795E06F
:103DC0000E9430190E94CB2760E086E090E00E94BC
:103DD000592560E087E090E00E94592561E088E085
:103DE00090E00E94592560E089E090E00E9459250A
:103DF00061E08AE090E00E94592561E08BE090E06C
:103E00000E94592560E08CE090E00E94592561E015
:103E10008DE090E00E94592561E08EE090E00E94E4
:103E200059256FE08FE090E00E9459258CE390E0E7
:103E30000E94991E60E082E190E00E94592561E0B5
:103E400083E190E00E94592560E084E190E00E94C7
:103E5000592560E085E190E00E94592560E086E107
:103E600090E00E94592560E087E190E00E9459258A
:103E700068E288E190E00E94592560E089E190E0E5
:103E80000E94592561E08AE190E00E94592561E095
:103E90008BE190E00E94592560E08CE190E00E9467
:103EA000592561E080E090E00E94592580E090E093
:103EB0000E946925813009F09BC16FEE76E08BE7A7
:103EC00095E00E9430190E94CB2788E190E00E9483
:103ED000692590E09093B9018093B80164EE76E093
:103EE0008BE795E00E94E1188091B8019091B901AB
:103EF0000E94092C8CE090E00E9469258093F603D3
:103F00006DED76E08BE795E00E94E1188091F60375
:103F1000082E000C990B0E94422C8DE090E00E942C
:103F200069258093B40167ED76E08BE795E00E9408
:103F3000E1188091B401082E000C990B0E94422CCC
:103F40008EE090E00E9469258093B7016FEC76E0E7
:103F50008BE795E00E94E1188091B701082E000CD4
:103F6000990B0E94422C8FE090E00E94692590E01E
:103F7000909302018093010163EC76E08BE795E07A
:103F80000E94E11880910101909102010E94092C88
:103F900080E190E00E946925C82F81E190E00E94B5
:103FA0006925C093B1018093B20164EB76E08BE7A1
:103FB00095E00E94E1188091B1019091B2010E94B8
:103FC000092C83E190E00E9469258093080187E134
:103FD00090E00E9469258093CE0369EA76E08BE742
:103FE00095E00E94301961EA76E08BE795E00E9447
:103FF000E11880910801082E000C990B0E94422CB8
:1040000069E976E08BE795E00E94E1186AE070E0EC
:104010008091CE030E94E82B84E190E00E94692504
:1040200080936C036BE876E08BE795E00E94E118E3
:1040300080916C03082E000C990B0E94422C85E1A4
:1040400090E00E9469258093180468E776E08BE78A
:1040500095E00E94E1186AE070E0809118040E94E7
:10406000E82B8AE190E00E946925809303018BE1AF
:1040700090E00E946925809300016EE676E08BE770
:1040800095E00E94301965E676E08BE795E00E94A6
:10409000E11880910301082E000C990B0E94422C1C
:1040A0006DE576E08BE795E00E94E11880910001D4
:1040B000082E000C990B0E94422C86E090E00E9492
:1040C00069258093CB0388E090E00E946925809366
:1040D000B50161E576E08BE795E00E94301969E46F
:1040E00076E08BE795E00E94E1188091CB03082EE3
:1040F000000C990B0E94422C6FE376E08BE795E071
:104100000E94E1188091B501082E000C990B0E94C5
:10411000422C87E090E00E9469258093CA0389E0E1
:1041200090E00E9469258093CC0386E190E00E9494
:1041300069258093CF036EE276E08BE795E00E94DD
:10414000301966E276E08BE795E00E94E1186AE0BC
:1041500070E08091CA030E94E82B6CE176E08BE767
:1041600095E00E94E1186AE070E08091CC030E9423
:10417000E82B65E176E08BE795E00E94E1186AE0C4
:1041800070E08091CF030E94E82B8CE190E00E94C8
:1041900069258093C8036AE076E08BE795E00E948A
:1041A000E1188091C803082E000C990B0E94422C44
:1041B00089E190E00E9469258093FA0360E076E04F
:1041C0008BE795E00E94E1188091FA03811107C006
:1041D00065EF75E08BE795E00E94301905C0082E69
:1041E000000C990B0E94422CDF91CF910C94CB27AD
:1041F000DF91CF91089581E390E00E94692581309D
:1042000081F16BE775E08BE795E00E94301960E67D
:1042100075E08BE795E00E9430190E94CB2768E09B
:1042200073E08EE496E00E94751786E18093A00209
:1042300041E150E062E373E08EE496E00E945A2C84
:1042400062E373E08EE190E00E9426256091A00277
:1042500080E390E00E94592561E081E390E00E94B4
:10426000592581E390E00E946925813059F562E388
:1042700073E08EE190E00E940025BC018EE496E0A0
:104280000E94751780E390E00E9469258093A00248
:104290006FE475E08BE795E00E94E1186EE476E04C
:1042A0008BE795E00E941E196CE375E08BE795E0C3
:1042B0000E94E1186AE070E08091A0020E94E82B61
:1042C0000C94CB270895CF93C9E00E943D1BC150A9
:1042D000E1F7CF910895EF92FF920F931F93CF9341
:1042E000DF931F92CDB7DEB77C01FC010081118105
:1042F000C80169830E94A1376981681719F0C80154
:104300000E94A937C7010F90DF91CF911F910F91A4
:10431000FF90EF900895CF93DF93EC01FB01248190
:1043200035810E948D18CE01DF91CF91089585EDE2
:104330008093BC008091BC0084FDFCCF109293035D
:10434000089540912405262F30E0240F311D21329D
:104350003105DCF4209193032430C9F4FC0180E0A2
:1043600090E0861758F4309124052191DC01AE5F6E
:10437000BA4FA30FB11D2C930196F3CF8091240562
:10438000680F6093240580E0089581E0089582E03D
:1043900008950895E091B4038091B503E81730F4CF
:1043A000F0E0EC56FC4F808190E008958FEF9FEF96
:1043B00008959091B4038091B503981750F4E92FB4
:1043C000F0E0EC56FC4F208130E09F5F9093B40307
:1043D00002C02FEF3FEFC90108958091B50390E02F
:1043E0002091B403821B91090895CF92DF92EF923E
:1043F000FF920F931F93CF93DF937C01262F972F6C
:104400008A0180914104882391F0C62FD72F6E0135
:10441000C40ED51ECC15DD0571F06991D701ED9163
:10442000FC910190F081E02DC7010995F3CF642F35
:10443000822F0E94A121C801DF91CF911F910F917E
:10444000FF90EF90DF90CF900895CF93DF931F926E
:10445000CDB7DEB76983209141042223D1F02091AA
:104460006903203240F021E030E0FC0133832283F5
:1044700080E090E015C080916A03E82FF0E0EF5DE6
:10448000FB4F998190838F5F80936A0380936903C8
:1044900005C061E0CE0101960E94A12181E090E07B
:1044A0000F90DF91CF91089520911F043091200447
:1044B0002817390771F490911E0480911D049817F4
:1044C00041F0E0911E04F0E0EE5BFB4F808190E054
:1044D00008958FEF9FEF089508951F93CF93DF9373
:1044E000DC015C962D913C915D972115310539F4E5
:1044F00081E090E013969C938E9312973DC0519665
:10450000ED91FC91529750969C915097892F8095F0
:104510001FB75E964C915E9741FB772770F941FD7E
:104520006095F8944081772311F0492B01C048230E
:104530004083E9012197F1F748E0508160FF02C014
:10454000592B01C058235083E9012197F1F7669553
:10455000415099F7772321F090818923808303C00C
:104560008081982B90831FBF5C968D919C915D9765
:104570000197F1F721E030E0C901DF91CF911F9160
:10458000089520911F04309120042817390771F4F1
:1045900080911D0420911E0490E080549F4F821B47
:1045A000910960EC70E00E945138089580E090E03D
:1045B000089520911F043091200428173907C9F469
:1045C00090911E0480911D04981799F0E0911E04AB
:1045D000F0E0EE5BFB4F208180911E0490E001969D
:1045E00060EC70E00E94513880931E04822F90E0AE
:1045F00008958FEF9FEF0895089580E090E008956B
:104600002FB7F89460914A0570914B0580914C0545
:1046100090914D052FBF08951F920F920FB60F92E4
:1046200011242F933F938F939F93AF93BF938091C8
:104630004A0590914B05A0914C05B0914D053091E4
:10464000490523E0230F2D3720F40196A11DB11D4C
:1046500005C026E8230F0296A11DB11D2093490530
:1046600080934A0590934B05A0934C05B0934D055C
:104670008091140490911504A0911604B091170430
:104680000196A11DB11D8093140490931504A0936D
:104690001604B0931704BF91AF919F918F913F91F2
:1046A0002F910F900FBE0F901F9018951F920F9291
:1046B0000FB60F9211242F933F934F935F936F93F5
:1046C0007F938F939F93AF93BF93EF93FF938091CB
:1046D000B900887F803609F49CC068F5883209F4F7
:1046E0005BC090F4803109F454C038F4882309F495
:1046F000F6C0883009F44DC0F6C0883109F44CC0CA
:10470000803209F45DC0EFC0803409F468C048F419
:10471000803309F455C0883309F0E5C080939103D4
:10472000D8C0803509F44FC0883509F45DC088349D
:1047300009F0D9C0D6C0883909F4C7C0A8F48837B1
:1047400009F467C038F4883609F463C0803709F487
:1047500060C0C9C0883809F4B8C0803909F45FC0A6
:10476000803809F0C0C05BC0803B09F486C038F4D3
:10477000803A09F466C0883A09F47FC0B4C0803C2E
:1047800009F4A7C0883C09F4A4C0883B09F48AC096
:10479000AAC080918E0310C09091900380918F03E6
:1047A000981770F5E091900381E08E0F809390034D
:1047B000F0E0E359FC4F80818093BB0085EC86C01C
:1047C000809391038EC0E091900381E08E0F8093DF
:1047D00090038091BB00F0E0E359FC4F80839091FF
:1047E000900380918F036EC0E091900381E08E0F63
:1047F000809390038091BB00F0E0E359FC4F8083ED
:104800008091920381116DC081E080938D0384EAD1
:1048100061C083E08093930310924805CFCF8091CD
:104820004805803208F051C0E091480581E08E0FC4
:10483000809348058091BB00F0E0E85DFA4F8083EB
:10484000BDCF85EC8093BC00109293038091480506
:10485000803230F4E0914805F0E0E85DFA4F1082D4
:104860006091480570E0E0912605F091270588E207
:1048700095E009951092480536C084E08093930333
:104880001092250510922405E0912205F091230550
:10489000099580912405811105C081E0809324054C
:1048A00010920205E091250581E08E0F8093250589
:1048B000F0E0EE5FFA4F80818093BB009091250578
:1048C00080912405981708F479CF85E88093BC007F
:1048D0000AC085EC8093BC001092930304C0109230
:1048E00091030E949721FF91EF91BF91AF919F910A
:1048F0008F917F916F915F914F913F912F910F9089
:104900000FBE0F901F9018951F920F920FB60F9227
:1049100011242F933F934F935F936F937F938F93C4
:104920009F93AF93BF93EF93FF93E0911F04F09198
:104930002004309709F453C0968DA685B7858585E8
:1049400091FF04C09C91892329F449C09C9189233B
:1049500009F045C0A389B4899C91858980958923F4
:104960008C93868997890197F1F7608D718DA68563
:10497000B785558538E020E0CB010197F1F7822F0C
:1049800090E095958795282F4C91452309F0206854
:10499000315091F7868D81FD209580911D0490E026
:1049A000019660EC70E00E94513890911E049817B7
:1049B00049F0A0911D04B0E0AE5BBB4F2C938093F7
:1049C0001D0403C0868D8160868F828D938D019733
:1049D000F1F7A389B4899C918589892B8C93FF91E8
:1049E000EF91BF91AF919F918F917F916F915F9167
:1049F0004F913F912F910F900FBE0F901F901895E0
:104A0000CF92DF92EF92FF920F931F93CF93DF939A
:104A1000EB017B0121E1E20EF11C8B016C01C61A56
:104A2000D70AC601800F911F0E94A137F801819318
:104A30008F01EE15FF05A9F7CE01DF91CF911F91F0
:104A40000F91FF90EF90DF90CF900895AF92BF92BB
:104A5000CF92DF92EF92FF920F931F93CF93DF934A
:104A600000D0CDB7DEB78B016B0121E1C20ED11CA6
:104A70007B015C01A61AB70A95012E0D3F1DF701B7
:104A800061917F013A832983CE0101960E946B21B7
:104A9000EC14FD0489F7C8010F900F90DF91CF91BE
:104AA0001F910F91FF90EF90DF90CF90BF90AF904C
:104AB0000895CF93DF9300D0CDB7DEB79A83898373
:104AC000CE0101960E946B210F900F90DF91CF9144
:104AD00008950C94A137CF93DF93EC0168EE73E057
:104AE00080E090E00E942F1A60E178E084E596E093
:104AF0000E94E118BE0184E596E00E94D3186EE0A2
:104B000078E084E596E00E94301964EF71E080E07F
:104B100090E00E942F1A64E276E084E596E00E941D
:104B2000D31864EF71E080E090E00E942F1AE091CA
:104B30005406F09155060190F081E02D6AE184E57C
:104B400096E0099564EF71E080E090E00E942F1AF2
:104B50006EE073E08BE795E00E940519BE018BE7DC
:104B600095E00E94D31860E376E08BE795E00E9421
:104B7000D31864E276E08BE795E00E941E1968E89E
:104B800073E180E090E0DF91CF910C942F1A0F93A6
:104B90001F93CF93DF93CDB7DEB762970FB6F8942C
:104BA000DEBF0FBECDBF0E940023009119041091FB
:104BB0001A0420911B0430911C04601B710B820BA2
:104BC000930B28EE33E040E050E00E9420388091C3
:104BD000180490E0A0E0B0E082179307A407B5079F
:104BE00008F075C011E01093B70161E08EE090E02D
:104BF0000E9459251093B3016AE178E086E396E0BC
:104C00000E944D170E94691A66E376E08BE795E0F3
:104C10000E941E1966E376E084E296E00E948C17FB
:104C200068EE73E080E090E00E942F1A0AEB11E03A
:104C3000F8018589968946960E9469258130D1F5CB
:104C400068EE73E080E090E00E942F1A64EE73E05B
:104C5000F801858996890E940025BC01CE0107963E
:104C60000E9478186AEE72E0CE010D960E947818C4
:104C7000BE01695F7F4FCE010D960E94F216BC0106
:104C8000CE0101960E946F18CE0101960E946B25FD
:104C9000CE0101960E94DC17CE010D960E94DC1712
:104CA000CE0107960E94DC1768EE73E080E090E08A
:104CB0000E942F1A095E1F4FF2E0003A1F0709F009
:104CC000B7CF10926B031092F7031092CD03629648
:104CD0000FB6F894DEBF0FBECDBFDF91CF911F910D
:104CE0000F91089560ED77E080E090E00E942F1A28
:104CF00066E078E084E596E00E9430191092D203D5
:104D00000895CF92DF92EF92FF920F931F93CF936C
:104D1000DF93CDB7DEB762970FB6F894DEBF0FBE54
:104D2000CDBF9091B701913009F057C0182F8AEB91
:104D3000E82E81E0F82E0AE0113031F4F701C58841
:104D4000D688C601439607C01230D9F5F701C58849
:104D5000D688C60145960E946925813091F564EE9A
:104D600073E0C6010E940025BC01CE0107960E9497
:104D700078186AEE72E0CE0101960E947818BE01A2
:104D8000695F7F4FCE0101960E94F216BC01CE01F1
:104D90000D960E946F18CE010D960E946B25CE01D4
:104DA0000D960E94DC17CE0101960E94DC17CE0101
:104DB00007960E94DC1768EE73E080E090E00E94A6
:104DC0002F1A0150F7E1EF0EF11C0111B5CF113090
:104DD00021F41093D0031093D10362960FB6F89488
:104DE000DEBF0FBECDBFDF91CF911F910F91FF901E
:104DF000EF90DF90CF900895DF92EF92FF920F93A4
:104E00001F93CF93DF9300D000D000D0CDB7DEB793
:104E100069EF77E08BE795E00E94301989E0E82E92
:104E200081E0F82E00E010E0F701838994890E9468
:104E30008B2BF7018389948987960E946925D82E48
:104E40000F5F1F4F4AE0B801CE0101960E940D1876
:104E500060E376E0CE0101960E94F21665E575E00A
:104E60000E94D91660E376E00E94F2166D2D0E9432
:104E70003017BC018BE795E00E941E19CE01019608
:104E80000E94DC17F5E1EF0EF11C0830110561F608
:104E90000E94CB2726960FB6F894DEBF0FBECDBF7B
:104EA000DF91CF911F910F91FF90EF90DF900895C8
:104EB000AF92BF92CF92DF92EF92FF920F931F9328
:104EC000CF93DF9300D0CDB7DEB782E690E00E94AB
:104ED0006925813009F452C063EE77E08BE795E0F5
:104EE0000E94301904EF11E06FEFC8010E945925AC
:104EF0006AE070E080E090E00E942F1A0F5F1F4F81
:104F0000053383E0180781F769EC77E08BE795E0DC
:104F10000E9430190E94CB2709E011E08BE1A82EF6
:104F200081E0B82EF801C388D4887801C01AD10A6C
:104F3000C6018E0D9F1DF70161917F019A838983C0
:104F4000CE0101960E946B21EA14FB0489F7F80157
:104F500083899489F701608187960E9459250B5EA9
:104F60001F4F5701F5E1AF0EB11C81E0013B18075F
:104F7000C9F661E082E690E00E9459250F900F90FB
:104F8000DF91CF911F910F91FF90EF90DF90CF9025
:104F9000BF90AF9008958BE795E00C941A197F921B
:104FA0008F929F92AF92BF92CF92DF92EF92FF9239
:104FB0000F931F93CF93DF93C12CD12C7601C39411
:104FC000D0E0BB24B39462E0A62E99249A9475EEA7
:104FD000872EE5EC7E2ECC2DB0924104C0924E057A
:104FE00010926A0310926903909193039111FCCF80
:104FF000A0929303B0929203909291031092900327
:1050000010928F0310928E0380918E038601960179
:10501000220F331F282B20938E0380918D03813024
:1050200069F410928D0380918E038093BB00809170
:10503000BC0083FDF8CF7092BC0002C08092BC001F
:10504000809193038230E1F3809191038F3F69F067
:1050500080919103803231F080919103803321F06F
:1050600094E003C092E001C093E010926A031092B2
:10507000690310924104911138C061ED78E08BE72B
:1050800095E00E94E11880E1C816D104E104F10422
:1050900030F46FEC78E08BE795E00E94E11840E196
:1050A000C701B6010E94A52B80EE8C0F883018F046
:1050B000C853C830B0F460E376E08BE795E00E9417
:1050C000D3186EEB78E08BE795E00E9430191093CF
:1050D000B7030093B6038091C9038F5F8093C90320
:1050E00002C00E94CB27DF5F19C09430B9F462EB95
:1050F00078E08BE795E00E94E118E0E1CE16D1045C
:10510000E104F10430F460EB78E08BE795E00E9475
:10511000E11860E170E08C2F0E94E82BFFEFCF1ABE
:10512000DF0AEF0AFF0A8FE7C816D104E104F10491
:1051300009F051CFD11106C06AE978E08BE795E01C
:105140000E9430198091C9038823E9F00E94FC264F
:1051500009E011E0C0ECD3E0FC2EE8E0FE0EF8011F
:105160008389948987960E94692589930B5E1F4FD6
:10517000FC12F5CF0E94CB27E8EBF3E088E08E0F1E
:1051800011928E13FDCFDF91CF911F910F91FF9060
:10519000EF90DF90CF90BF90AF909F908F907F90D7
:1051A00008958F929F92AF92BF92CF92DF92EF922B
:1051B000FF920F931F93CF93DF93CDB7DEB76E9718
:1051C0000FB6F894DEBF0FBECDBF7C01162F63EE85
:1051D00072E0CE0101960E947818BE016F5F7F4F8A
:1051E000C7010E9417164AE0BC01CE0107960E9433
:1051F0000D18CE0107960E941115AB014F5F5F4F4E
:10520000B701CE0143960E948B21CE0107960E94E2
:10521000DC17CE0101960E94DC1765E173E0CE0138
:1052200001960E947818BE016F5F7F4FCE014396B2
:105230000E942116D92ECE0101960E94DC17D0942F
:10524000DD1CDD24DD1C67E173E0CE0101960E94C8
:105250007818BE016F5F7F4FCE0143960E942116E2
:10526000C92ECE0101960E94DC17C094CC1CCC2420
:10527000CC1C69E173E0CE0101960E947818BE0152
:105280006F5F7F4FCE0143960E942116E92ECE011B
:1052900001960E94DC17E094EE1CEE24EE1C6BE1FC
:1052A00073E0CE0101960E947818BE016F5F7F4FB8
:1052B000CE0143960E942116F92ECE0101960E943E
:1052C000DC17F094FF1CFF24FF1C67E073E0CE01A5
:1052D00007960E94781865E173E0CE0101960E945E
:1052E0007818AE01495F5F4FBE016F5F7F4FCE01FF
:1052F00043960E941C15CE0101960E94DC17CE0138
:1053000007960E94DC1767E073E0CE0107960E94C3
:10531000781867E173E0CE0101960E947818AE011B
:10532000495F5F4FBE016F5F7F4FCE0143960E9482
:105330001C15CE0101960E94DC17CE0107960E9433
:10534000DC1767E073E0CE0107960E94781869E1E8
:1053500073E0CE0101960E947818AE01495F5F4F5D
:10536000BE016F5F7F4FCE0143960E941C15CE0198
:1053700001960E94DC17CE0107960E94DC1767E0B9
:1053800073E0CE0107960E9478186BE173E0CE01BE
:1053900001960E947818AE01495F5F4FBE016F5FB2
:1053A0007F4FCE0143960E941C15CE0101960E94AC
:1053B000DC17CE0107960E94DC1767E073E0CE0190
:1053C00007960E94781865EE72E0CE0101960E9461
:1053D0007818AE01495F5F4FBE016F5F7F4FCE010E
:1053E00043960E941C15CE0101960E94DC17CE0147
:1053F00007960E94DC176AEE72E0CE0101960E94C9
:105400007818BE016F5F7F4FCE0143960E94211630
:105410004AE0BC01CE0107960E940D18CE01079606
:105420000E9411159B0140E050E0BE016D5E7F4F70
:10543000CE010D960E948D18CE0107960E94DC17B2
:10544000CE0101960E94DC176AEE72E0CE01019651
:105450000E947818BE016F5F7F4FCE0143960E9475
:1054600017164AE0BC01CE0149960E940D18CE01E4
:1054700049960E941115AB014F5F5F4FBE016D5EF3
:105480007F4FCE0107960E948B21CE0149960E9444
:10549000DC17CE0101960E94DC17113009F0C8C05C
:1054A000CE010D960E941115062FBE01695F7F4F38
:1054B000CE0149960E946F1864EE73E08091CF018F
:1054C0009091D0010E940025BC01CE0101960E945E
:1054D00078188D819E81892B39F0E981FA8180814C
:1054E000882319F010E001C011E0CE0101960E945E
:1054F000DC17112361F067E678E08BE795E00E9406
:1055000030190E94CB270E94551B80E001C081E02A
:105510009EEF900F9A3058F064E578E08BE795E0C5
:105520000E9430190E94CB270E94551B7CC08130FD
:1055300009F079C001508AEB882E81E0982EAA24C8
:10554000A394B12C64EE73E0F401858996890E94DE
:105550000025BC01CE0101960E947818BE01675E4D
:105560007F4FCE0101960E943B16182FCE01019667
:105570000E94DC17112391F061E378E08BE795E05E
:105580000E94E118C5010E94422C0E94CB278FEF98
:105590008A0D801719F0F12CE12CD12CF7E18F0E38
:1055A000911C8FEFA81AB80AEBE0AE16B10451F6C1
:1055B00041E150E063ED73E0CE0149960E945A2C20
:1055C000F7E10F9F8001112406541E4F63ED73E035
:1055D000F801858996890E942625F8018589968992
:1055E0006D2D43960E945925F801858996896C2D69
:1055F00044960E945925F801858996896E2D459615
:105600000E945925F801858996896F2D46960E943A
:10561000592564E278E08BE795E00E9430190E94FA
:10562000CB270E943D1BCE0149960E94DC172CC05F
:10563000123051F58091CF019091D0016D2D43969C
:105640000E9459258091CF019091D0016C2D4496F4
:105650000E9459258091CF019091D0016E2D4596E1
:105660000E9459258091CF019091D0016F2D4696CF
:105670000E94592562E878E08BE795E00E94301996
:105680000E94CB270E943D1BCE0107960E94DC178B
:10569000CE010D960E94DC17CE0143960E94DC17C6
:1056A0006E960FB6F894DEBF0FBECDBFDF91CF91DF
:1056B0001F910F91FF90EF90DF90CF90BF90AF9030
:1056C0009F908F900895EBE7F5E0A089B18982E083
:1056D0008C93A485B5851C92A685B7858FEC8C9399
:1056E000108EA489B58986E08C93A289B3898C91A8
:1056F00080618C93A289B3898C9188608C93A289F4
:10570000B3898C9180688C930288F389E02D808125
:105710008F7D808308950F931F93CF93DF93C5E50B
:10572000D5E08C0105551540C8018C0F9D1F0E94C6
:10573000A137899385E0CB37D807B1F785E595E0A8
:10574000DF91CF911F910F9108958F929F92AF9209
:10575000BF920F931F93CF93DF93CDB7DEB7A1977F
:105760000FB6F894DEBF0FBECDBF19A2423008F4C9
:105770004AE08E010F5D1F4F842E912CA12CB12C7D
:10578000A50194010E942038E62FB901CA010150F9
:105790001109EA3014F4E05D01C0E95CD801EC9332
:1057A000232B242B252B61F7B8018BE795E00E9472
:1057B0000519A1960FB6F894DEBF0FBECDBFDF91DD
:1057C000CF911F910F91BF90AF909F908F900895B0
:1057D000CF93DF93AB01672B61F4E0917B05F091F0
:1057E0007C050190F081E02D682F8BE795E009950D
:1057F00006C0682F70E080E090E00E94A52BEC01CD
:105800008BE795E00E941A198C0F9D1FDF91CF91B5
:105810000895CF93DF93BC0180E090E04AE00E94BE
:10582000A52BEC018BE795E00E941A198C0F9D1FA8
:10583000DF91CF910895CF92DF92EF92FF92CF93B5
:10584000DF936B017C01E0917B05F0917C05019079
:10585000F081E02D6DE28BE795E00995EC0166277C
:105860007727CB016C197D098E099F094AE00E94B8
:10587000A52B8C0F9D1FDF91CF91FF90EF90DF90B4
:10588000CF900895CF93DF93BC01990F880B990BAC
:1058900097FF03C00E941B2C03C04AE00E94A52B67
:1058A000EC018BE795E00E941A198C0F9D1FDF9188
:1058B000CF9108950F931F93CF93DF93FC01248121
:1058C00035812115310519F4FB01108211C0EA015F
:1058D00021972C173D0708F4E9018B01FC01608139
:1058E0007181AE01C8010E94AE3AC00FD11F18826B
:1058F000DF91CF911F910F910895809154058111EF
:105900000AC00E9400236093500570935105809354
:1059100052059093530581E08093540580934F0581
:105920000895CF93DF9300D0CDB7DEB789831A8275
:1059300041E050E0BE016F5F7F4F88E496E00E9437
:10594000AB160F900F90DF91CF910895CF93DF9317
:10595000CDB7DEB76E970FB6F894DEBF0FBECDBFE2
:10596000789484B5826084BD84B5816084BD85B53A
:10597000826085BD85B5816085BD80916E00816046
:1059800080936E00109281008091810082608093EC
:1059900081008091810081608093810080918000EE
:1059A0008160809380008091B10084608093B10019
:1059B0008091B00081608093B00080917A00846013
:1059C00080937A0080917A00826080937A0080913F
:1059D0007A00816080937A0080917A008068809359
:1059E0007A001092C1000E94632B1092B4031092AF
:1059F000B50310926A03109269031092930381E039
:105A00008093920310928D0361E082E10E94C3199A
:105A100061E083E10E94C3198091B9008E7F809379
:105A2000B9008091B9008D7F8093B90088E480939C
:105A3000B80085E48093BC006EE174E08BE795E0EC
:105A40000E9430190E94CB2764EC79E080E090E05E
:105A50000E942F1A80E480937C0080917A008064F9
:105A600080937A0080917A0086FDFCCF6091780067
:105A70008091790070E0782B072E000C880B990B31
:105A8000611571058105910511F00E9401370E9491
:105A9000BD1E0E94FB200E94331E0E9458270E94B8
:105AA000CF2761E08AE00E94F31961E08CE00E9458
:105AB000F31961E08BE00E94F31961E08AE00E9433
:105AC000C31961E08CE00E94C31961E08BE00E9481
:105AD000C31960E08AE00E94C31964EF71E080E0BE
