:100000000C9468040C9490040C9490040C942E248A
:100010000C942E240C942E240C9490040C94900494
:100020000C9490040C9490040C9490040C94900400
:100030000C9490040C9490040C9490040C949004F0
:100040000C94B6220C9490040C944F190C9429191A
:100050000C9490040C9490040C9490040C949004D0
:100060000C9400230C9490044572726F72206465A6
:100070006C6574696E672070686F6E653A202B003E
:1000800044656C6574652070686F6E653A202B005E
:10009000506175736554696D652069733A20004439
:1000A000656C61794265666F72654775617264203F
:1000B00069733A200044656C61794265666F7265C8
:1000C000416C61726D2069733A20005761746368F6
:1000D000506F77657254696D652069733A200052DC
:1000E000696E6754696D652069733A200053656EC7
:1000F000736F7220646174612073617665642E0091
:100100004572726F722073656E736F72206E756DBB
:10011000626572006661696C65642E00706173735C
:1001200065642E005465737420004661696C6564D3
:100130002063656C6C3A20004200454550524F4D9B
:100140003A20004E6F74207573652E0041362E00E4
:1001500053494D3830304C2E004D353930652E0026
:100160005265626F6F742E004175746F64657465BB
:1001700063742E002E204D6F64656D3A2000437528
:100180007272656E742049443A2000507265766937
:100190006F75732049443A200041542B4355534412
:1001A0003D312C2200534D532072656D6F7665648E
:1001B000003400302C340041542B434D47443D0063
:1001C0006F70656E00636C656172736D73006C6552
:1001D000646F00746573746F0067756172646F6635
:1001E000660067756172646F6E007061757365009B
:1001F0006D6F6E6579002E2000496E666F3A205053
:100200004952204F00696E666F00457874446576E8
:1002100069636554696D652069733A200065787477
:1002200064657669636574696D650068696768000F
:100230006C6F77006578746465766963656C657664
:10024000656C006D6F64656D6964007265626F6FE7
:1002500074006C69737470686F6E650069326373E3
:1002600063616E006D656D74657374006C697374A1
:1002700073656E736F72006C697374636F6E666919
:100280006700656469746D61696E70686F6E6500A2
:100290006564697473656E736F720044697361623B
:1002A0006C6564004F4E206D6F6465006E32004FC8
:1002B0004E2F4F4646206D6F6465006E31004775C6
:1002C00061726420627574746F6E3A2000677561A4
:1002D0007264627574746F6E6F006E32006E3100FE
:1002E00057617463682074686520706F7765722049
:1002F0004F007761746368706F7765726F00504963
:1003000052204F007069726F00536D73204F00735D
:100310006D736F005265656420537769746368205C
:100320004F00726565647377697463686F00726506
:1003300073657473656E736F720072657365746351
:100340006F6E66696700726573657470686F6E655D
:100350000066756C6C726573657400616C61726DBA
:1003600070696E74696D650072696E6774696D6538
:10037000007761746368706F77657274696D65008A
:1003800064656C61796265666F7265616C61726DDE
:100390000064656C61796265666F7265677561722C
:1003A0006400736C65657074696D650062616C6191
:1003B0006E63656E756D0064656C65746570686FFD
:1003C0006E650061646470686F6E650053696C658A
:1003D0006E74206D6F646521004F46462E004F4EAF
:1003E0002E0047534D20416C61726D2031372E3005
:1003F000382E3033202D204F6E6520796561722EA6
:100400002E2E00506F77657220737570706C792096
:10041000726573746F72656400506F7765722073D4
:100420007570706C7920646973636F6E6E65637448
:10043000656420004D61696E2073656E736F722173
:10044000005049522073656E736F722100206D69F0
:100450006E757465732061676F003B004154442BD7
:1004600000416C61726D2052696E673A202B00501A
:1004700072696D6172792070686F6E653A202B0029
:1004800041542B435553443D300055535344207140
:10049000756572793A20002B435553443A00534D09
:1004A000532066726F6D3A202B002C22002C2C00FA
:1004B0002B434D543A0052696E672066726F6D3A55
:1004C000202B002C0052494E470000000000240061
:1004D00027002A00000000080002010000030407B2
:1004E00000000000000000004C656E677468207416
:1004F0006F2072657475726E3A200042616C616E95
:100500006365206E756D6265723A20004C6F6164A0
:100510002064656661756C742062616C616E6365F0
:1005200020646174612E0044656C657465206261AD
:100530006C616E636520646174612E00416C617250
:100540006D496E74657276616C2069733A20004C57
:100550006F61642064656661756C742070686F6E8D
:100560006520646174612E0044656C6574696E6712
:100570002070686F6E6520646174612E0069007080
:10058000007200730050686F6E6500E2849600523E
:100590006561642061727261792070686F6E653A7E
:1005A000004175746F646574656374004D6F6465B4
:1005B0006D49443A20004578744465766963655412
:1005C000696D653A20004578744465766963654CC9
:1005D0006576656C3A200044656C61794265666FAA
:1005E0007265416C61726D3A200044656C617942BC
:1005F00065666F726547756172643A200047756180
:100600007264427574746F6E3A2000576174636847
:10061000506F77657254696D653A20005761746355
:1006200068506F7765723A20005049524775617281
:10063000643A20005265656453776974636847754E
:100640006172643A2000416C61726D50696E546948
:100650006D653A2000536C65657054696D653A208C
:100660000047756172643A20004C65643A2000547A
:100670006573743A200052696E6754696D653A205B
:100680000053656E64536D733A20005265616420B7
:10069000656570726F6D636F6E6669673A004C6F67
:1006A00061642064656661756C7420656570726F45
:1006B0006D636F6E66696720646174612E004465C6
:1006C0006C6574696E6720656570726F6D636F6EBF
:1006D00066696720646174612E00415445300041B1
:1006E0005445310041542B434E4D493D322C32008C
:1006F00041542B435343533D2247534D2200415411
:100700002B434D47463D310041542B434C49503D0E
:1007100031004465746563746564204D6F64656D74
:1007200049443A200041360053494D383030004D9D
:1007300035393000415449004154004775617264B5
:10074000204F46462E0020427574746F6E00205074
:10075000686F6E65202B0020436F6E736F6C6500B1
:1007600041542B4348555000220041542B434D47E0
:10077000533D22004775617264204F4E2E00506831
:100780006F6E652061646465642E0050686F6E65ED
:1007900020616C7265616479206578697374732077
:1007A000696E207468652063656C6C3A2000457240
:1007B000726F722C2077726F6E67206E756D626536
:1007C00072206F662063656C6C732E004572726FC9
:1007D000722C206669727374207265676973746520
:1007E000722061207072696D6172792070686F6E1D
:1007F000652E0050686F6E652073657474696E674E
:1008000073206368616E6765642E0049324320641B
:10081000657669636573206E6F7420666F756E64AC
:100820000030004572726F7220617420307800646D
:100830006574656374656420504346383537340009
:100840003000493243206465766963652061742015
:100850003078004C6F61642064656661756C74204B
:1008600073656E736F7220646174612E0044656CF1
:100870006574696E672073656E736F72206461744E
:10088000612E0053656E736F7220646174613A006B
:1008900000000000250028002B00000000002300BD
:1008A00026002900040404040404040402020202D1
:1008B0000202030303030303010204081020408023
:1008C0000102040810200102040810206D353135A2
:1008D00011241FBECFEFD8E0DEBFCDBF13E0A0E0F4
:1008E000B1E0EEE1F5E702C005900D92A034B1074A
:1008F000D9F726E0A0E4B3E001C01D92A438B20706
:10090000E1F714E0C7E6D4E004C02197FE010E949D
:100910002438C636D107C9F70E947C2C0C94823A41
:100920000C940000AF92BF92CF92DF92EF92FF92B1
:100930000F931F93CF93DF93CDB7DEB7E0970FB63A
:10094000F894DEBF0FBECDBF80910004813031F43A
:1009500065E576E088E895E00E94051968E073E0B7
:10096000CE0142960E945F1862EE72E0CE010196BF
:100970000E945F18AE014E5E5F4FBE016F5F7F4FFA
:1009800085E596E00E941215CE0101960E94C317DC
:10099000CE0142960E94C31768E073E0CE014296F2
:1009A0000E945F1867E073E0CE0101960E945F1815
:1009B000AE014E5E5F4FBE016F5F7F4F85E596E0F3
:1009C0000E941215CE0101960E94C317CE014296D5
:1009D0000E94C31700915506109156060115110586
:1009E00039F480910404813011F00C9474100DC01E
:1009F000F80180818823A9F3082E000C990B0E942E
:100A0000263AF80181938F01F3CF63EC73E0CE01B6
:100A100001960E944D18BE016F5F7F4F85E596E0FD
:100A20000E9417168C01CE0101960E94C31717FD74
:100A30000FC065E576E0CE0101960E94561861E090
:100A4000CE0101960E949428CE0101960E94C31700
:100A500067EB73E0CE0101960E944D18BE016F5FF7
:100A60007F4F85E596E00E9417168C01CE01019616
:100A70000E94C31717FD0EC165E576E0CE0184968E
:100A80000E94561864EE72E0CE0142960E945F18F2
:100A9000BE016E5E7F4FCE0184960E940D164AE025
:100AA000BC01CE0101960E94F417CE0101960E946E
:100AB0000715AB014F5F5F4FBE016C5D7F4FCE01ED
:100AC0004E960E94D620CE0101960E94C317CE01F9
:100AD00042960E94C31768E073E0CE0101960E941F
:100AE0005F1866EE72E0CE0142960E945F18AE017A
:100AF0004F5F5F4FBE016E5E7F4FCE014E960E94EC
:100B00001215CE0142960E94C317CE0101960E9493
:100B1000C3176BEE72E0CE0142960E945F18BE01D1
:100B20006E5E7F4FCE014E960E940D164AE0BC01CC
:100B3000CE0101960E94F417CE0101960E9407157E
:100B4000AB014F5F5F4FBE01625E7F4FCE014896A3
:100B50000E94D620CE0101960E94C317CE01429674
:100B60000E94C317BE01685E7F4FCE0142960E946D
:100B7000561807EE11E021E03DE0F32E6E01F5E09E
:100B8000CF0ED11C6FEE73E0F8018081918128AB0C
:100B90000E94AA24BC01CE0101960E945F18BE01EA
:100BA0006E5E7F4FCE0101960E943116E82ECE0177
:100BB00001960E94C31728A9EE2009F441C01982AA
:100BC0001A821B821C82F6012F2D11922A95E9F7B9
:100BD000BE016F5F7F4FF801808191810E94D02418
:100BE000F8018081918160E043960E940325F8011D
:100BF0008081918160E044960E940325F801808104
:100C0000918160E045960E940325F80180819181E1
:100C100060E046960E94032560E870E088E895E071
:100C20000E94C818BE016E5E7F4F88E895E00E9462
:100C300005190E94BF260E94D41C0E94EB1A20E0D6
:100C4000095E1F4FF2E0063B1F0709F09BCF2130E2
:100C500089F468E670E088E895E00E94C818BE0153
:100C60006E5E7F4F88E895E00E9405190E94BF26BE
:100C70000E94031BCE0142960E94C317CE014896E4
:100C80000E94C317CE014E960E94C317CE018496D0
:100C90000E94C3176CEA73E0CE0101960E944D18C2
:100CA000BE016F5F7F4F85E596E00E9417168C01AD
:100CB000CE0101960E94C31717FDB5C064EE72E025
:100CC000CE0101960E945F18BE016F5F7F4F85E5E0
:100CD00096E00E940D164AE0BC01CE0142960E94A9
:100CE000F417CE0142960E940715AB014F5F5F4F8C
:100CF00065E576E0CE0148960E94D620CE01429668
:100D00000E94C317CE0101960E94C3176DEE72E0D8
:100D1000CE0101960E945F18BE016F5F7F4FCE012A
:100D200048960E9417164AE0BC01CE014E960E94DA
:100D3000F417CE014E960E9407159B0140E050E04B
:100D4000BE01685E7F4FCE0142960E947418CE01AC
:100D50004E960E94C317CE0101960E94C3176DEEF6
:100D600072E0CE014E960E945F18BE01625E7F4F18
:100D700085E596E00E940D164AE0BC01CE018496FE
:100D80000E94F417CE0184960E940715AB014F5FB5
:100D90005F4F65E576E0CE0101960E94D620CE0138
:100DA00084960E94C317CE014E960E94C317CE01AF
:100DB00001960E940715162FBE016E5E7F4FCE0171
:100DC0004E960E94561841E150E060E473E0CE0177
:100DD0004E960E941D2C60E473E08EE190E00E942C
:100DE000D024612F80E390E00E94032561E081E33D
:100DF00090E00E9403250E944E2088E895E00E9422
:100E000001190E94EB1ACE014E960E94C317CE0123
:100E100001960E94C317CE0142960E94C317CE01CD
:100E200048960E94C31762EA73E0CE0101960E94C1
:100E30004D18BE016F5F7F4F85E596E00E94171643
:100E40008C01CE0101960E94C31717FD67C064EEA6
:100E500072E0CE0101960E945F18BE016F5F7F4F66
:100E600085E596E00E940D164AE0BC01CE01489649
:100E70000E94F417CE0148960E940715AB014F5F00
:100E80005F4F65E576E0CE0142960E94D620CE0106
:100E900048960E94C317CE0101960E94C317BE0157
:100EA0006E5E7F4FCE0101960E945618CE010196CC
:100EB0000E940715DC01CB010197A109B109CC976C
:100EC000A105B10510F00C947C12CE0101960E9490
:100ED0000715162F8FE090E00E940325612F70E028
:100EE000709302016093010160E970E088E895E089
:100EF0000E94C8188FE090E00E9413256AE070E01D
:100F00000E94AB2B0E94BF260E94EB1ACE010196D5
:100F10000E94C317CE0142960E94C31761E973E095
:100F2000CE0101960E944D18BE016F5F7F4F85E58F
:100F300096E00E9417168C01CE0101960E94C317FD
:100F400017FD60C064EE72E0CE0101960E945F184A
:100F5000BE016F5F7F4F85E596E00E940D164AE067
:100F6000BC01CE0148960E94F417CE0148960E941B
:100F70000715AB014F5F5F4F65E576E0CE01429606
:100F80000E94D620CE0148960E94C317CE0101963A
:100F90000E94C317BE016E5E7F4FCE0101960E9474
:100FA0005618CE0101960E9407156F3F7105810505
:100FB000910519F010F00C949212CE0101960E9446
:100FC0000715162F85E190E00E9403251093200459
:100FD0006FE970E088E895E00E94C81885E190E02C
:100FE0000E9413256AE070E00E94AB2B0E94BF268E
:100FF0000E94EB1ACE0101960E94C317CE014296C1
:101000000E94C31760E873E0CE0101960E944D185C
:10101000BE016F5F7F4F85E596E00E9417168C0139
:10102000CE0101960E94C31717FD60C064EE72E006
:10103000CE0101960E945F18BE016F5F7F4F85E56C
:1010400096E00E940D164AE0BC01CE0148960E942F
:10105000F417CE0148960E940715AB014F5F5F4F12
:1010600065E576E0CE0142960E94D620CE014896F4
:101070000E94C317CE0101960E94C317BE016E5E87
:101080007F4FCE0101960E945618CE0101960E9414
:1010900007156F3F71058105910519F010F00C944B
:1010A000A612CE0101960E940715162F86E190E048
:1010B0000E9403251093DA0365EB70E088E895E061
:1010C0000E94C81886E190E00E9413256AE070E053
:1010D0000E94AB2B0E94BF260E94EB1ACE01019604
:1010E0000E94C317CE0142960E94C31761E773E0C6
:1010F000CE0101960E944D18BE016F5F7F4F85E5BE
:1011000096E00E9417168C01CE0101960E94C3172B
:1011100017FD60C064EE72E0CE0101960E945F1878
:10112000BE016F5F7F4F85E596E00E940D164AE095
:10113000BC01CE0148960E94F417CE0148960E9449
:101140000715AB014F5F5F4F65E576E0CE01429634
:101150000E94D620CE0148960E94C317CE01019668
:101160000E94C317BE016E5E7F4FCE0101960E94A2
:101170005618CE0101960E9407156F3F7105810533
:10118000910519F010F00C94BA12CE0101960E944C
:101190000715162F87E190E00E9403251093D903CD
:1011A0006BEC70E088E895E00E94C81887E190E059
:1011B0000E9413256AE070E00E94AB2B0E94BF26BC
:1011C0000E94EB1ACE0101960E94C317CE014296EF
:1011D0000E94C31768E673E0CE0101960E944D1885
:1011E000BE016F5F7F4F85E596E00E9417168C0168
:1011F000CE0101960E94C31717FD68C064EE72E02D
:10120000CE0101960E945F18BE016F5F7F4F85E59A
:1012100096E00E940D164AE0BC01CE0148960E945D
:10122000F417CE0148960E940715AB014F5F5F4F40
:1012300065E576E0CE0142960E94D620CE01489622
:101240000E94C317CE0101960E94C317BE016E5EB5
:101250007F4FCE0101960E945618CE0101960E9442
:101260000715DC01CB010A97A109B109863F910559
:10127000A105B10510F00C94CE12CE0101960E948A
:101280000715162F88E190E00E940325612F70E07A
:101290007093BA016093B9016FED70E088E895E052
:1012A0000E94C81888E190E00E9413256AE070E06F
:1012B0000E94AB2B0E94BF260E94EB1ACE01019622
:1012C0000E94C317CE0142960E94C3176BE573E0DC
:1012D000CE0101960E944D18BE016F5F7F4F85E5DC
:1012E00096E00E9417168C01CE0101960E94C3174A
:1012F00017FD4EC064EE72E0CE0101960E945F18A9
:10130000BE016F5F7F4F85E596E00E940D164AE0B3
:10131000BC01CE0148960E94F417CE0148960E9467
:101320000715AB014F5F5F4F65E576E0CE01429652
:101330000E94D620CE0148960E94C317CE01019686
:101340000E94C317BE016E5E7F4FCE0101960E94C0
:101350005618CE0101960E940715DC01CB010197BA
:10136000A109B109803C984AA105B10510F00C947F
:10137000E412CE0101960E940715CB010E94411E86
:10138000CE0101960E94C317CE0142960E94C31758
:1013900061E573E0CE0101960E944D18BE016F5FBA
:1013A0007F4F85E596E00E9417168C01CE010196CD
:1013B0000E94C31717FD1AC06FEF80E090E00E94F3
:1013C00003250E94651E6FEF83E690E00E940325CF
:1013D0000E94DB1D6FEF81E390E00E9403250E94D5
:1013E0004E200E94EB1AE0E0F0E0099566E473E01D
:1013F000CE0101960E944D18BE016F5F7F4F85E5BB
:1014000096E00E9417168C01CE0101960E94C31728
:1014100017FD0CC06FEF83E690E00E9403250E9449
:10142000DB1D0E94EB1AE0E0F0E009956AE373E04F
:10143000CE0101960E944D18BE016F5F7F4F85E57A
:1014400096E00E9417168C01CE0101960E94C317E8
:1014500017FD0CC06FEF80E090E00E9403250E9412
:10146000651E0E94EB1AE0E0F0E009956EE273E081
:10147000CE0101960E944D18BE016F5F7F4F85E53A
:1014800096E00E9417168C01CE0101960E94C317A8
:1014900017FD0CC06FEF82E690E00E9403250E94CA
:1014A0001F270E94EB1AE0E0F0E0099562E273E08A
:1014B000CE0101960E944D18BE016F5F7F4F85E5FA
:1014C00096E00E9417168C01CE0101960E94C31768
:1014D00017FD4EC064E173E081E396E00E9434178B
:1014E0006FEE72E0CE0101960E945F18BE016F5F41
:1014F0007F4F85E596E00E9417168C01CE0101967C
:101500000E94C31717FD06C081E08093B50181EFEB
:1015100092E004C01092B50183EF92E00E946B2C20
:101520006091B5018BE090E00E9403258091030457
:101530008130F1F46BEE72E0CE0101960E945F18EB
:1015400069E476E0CE0101960E94E816BC01CE0166
:1015500042960E94561860E0CE0142960E941525E0
:10156000CE0142960E94C317CE0101960E94C31776
:101570006FE073E0CE0101960E944D18BE016F5FCF
:101580007F4F85E596E00E9417168C01CE010196EB
:101590000E94C31717FD73C069E073E081E396E012
:1015A0000E9434176FEE72E0CE0101960E945F1820
:1015B000BE016F5F7F4F85E596E00E9417168C0194
:1015C000CE0101960E94C31717FD2BC081E08093C6
:1015D000030181EF92E00E946B2C80910304813023
:1015E00009F047C06BEE72E0CE0101960E945F18D1
:1015F00069E476E0CE0101960E94E816BC01CE01B6
:1016000042960E94561860E0CE0142960E9415252F
:10161000CE0142960E94C317CE0101960E94C317C5
:1016200028C083EF92E00E946B2C809103048130EC
:10163000F1F46BEE72E0CE0101960E945F1869E44E
:1016400076E0CE0101960E94E816BC01CE014296DA
:101650000E94561860E0CE0142960E941525CE01E8
:1016600042960E94C317CE0101960E94C3171092A2
:101670000301609103018AE090E00E94032564E089
:1016800073E0CE0101960E944D18BE016F5F7F4F3F
:1016900085E596E00E9417168C01CE0101960E9406
:1016A000C31717FD4EC06EEF72E081E396E00E9413
:1016B00034176FEE72E0CE0101960E945F18BE01F2
:1016C0006F5F7F4F85E596E00E9417168C01CE0173
:1016D00001960E94C31717FD06C081E08093D703CF
:1016E00081EF92E004C01092D70383EF92E00E9452
:1016F0006B2C6091D70382E190E00E9403258091DA
:1017000003048130F1F46BEE72E0CE0101960E9489
:101710005F1869E476E0CE0101960E94E816BC01EC
:10172000CE0142960E94561860E0CE0142960E9479
:101730001525CE0142960E94C317CE0101960E9444
:10174000C31762EF72E0CE0101960E944D18BE01F0
:101750006F5F7F4F85E596E00E9417168C01CE01E2
:1017600001960E94C31717FD64C060EE72E081E32A
:1017700096E00E9434176DED72E0CE0101960E9452
:101780004D18BE016F5F7F4F85E596E00E941716EA
:101790008C01CE0101960E94C31717FD02C081E0A3
:1017A00015C06AED72E0CE0101960E944D18BE018F
:1017B0006F5F7F4F85E596E00E9417168C01CE0182
:1017C00001960E94C31717FD06C082E080930901AD
:1017D00081EF92E004C01092090183EF92E00E9431
:1017E0006B2C6091090183E190E00E9403258091B8
:1017F00003048130F1F46BEE72E0CE0101960E9499
:101800005F1869E476E0CE0101960E94E816BC01FB
:10181000CE0142960E94561860E0CE0142960E9488
:101820001525CE0142960E94C317CE0101960E9453
:10183000C3176DEC72E0CE0101960E944D18BE01F7
:101840006F5F7F4F85E596E00E9417168C01CE01F1
:1018500001960E94C31717FD6AC06EEB72E081E328
:1018600096E00E9434176BEB72E0CE0101960E9465
:101870004D18BE016F5F7F4F85E596E00E941716F9
:101880008C01CE0101960E94C31717FD06C081E0AE
:1018900080937A036FEA72E01EC06CEA72E0CE01B8
:1018A00001960E944D18BE016F5F7F4F85E596E05F
:1018B0000E9417168C01CE0101960E94C31717FDD6
:1018C00006C082E080937A0364EA72E004C010925A
:1018D0007A036BE972E081E396E00E9463166091FF
:1018E0007A0384E190E00E94032580910304813013
:1018F000F1F46BEE72E0CE0101960E945F1869E48C
:1019000076E0CE0101960E94E816BC01CE01429617
:101910000E94561860E0CE0142960E941525CE0125
:1019200042960E94C317CE0101960E94C31760E938
:1019300072E0CE0101960E944D18BE016F5F7F4F8D
:1019400085E596E00E9417168C01CE0101960E9453
:10195000C31717FD26C165E576E0CE018A960E9481
:10196000561864EE72E0CE0142960E945F18BE01E6
:101970006E5E7F4FCE018A960E940D164AE0BC0132
:10198000CE0101960E94F417CE0101960E94071520
:10199000AB014F5F5F4FBE01665D7F4FCE01849606
:1019A0000E94D620CE0101960E94C317CE01429616
:1019B0000E94C31766EF72E0CE0101960E945F1885
:1019C000BE016F5F7F4FCE0184960E941716092FCC
:1019D000CE0101960E94C31768E073E0CE01019624
:1019E0000E945F1866EF72E0CE0142960E945F1877
:1019F000AE014F5F5F4FBE016E5E7F4FCE0184969A
:101A00000E941215CE0142960E94C317CE01019684
:101A10000E94C3176BEE72E0CE0142960E945F18DF
:101A2000BE016E5E7F4FCE0184960E9417164AE07B
:101A3000BC01CE0101960E94F417CE0101960E94CE
:101A400007159B0140E050E0BE016C5D7F4FCE0169
:101A50004E960E947418CE0101960E94C317CE01C3
:101A600042960E94C3176BEE72E0CE0142960E942E
:101A70005F18BE016E5E7F4FCE0184960E940D16E8
:101A80004AE0BC01CE0101960E94F417CE010196F6
:101A90000E940715AB014F5F5F4FBE016C5D7F4F2A
:101AA000CE0148960E94D620CE0101960E94C3170F
:101AB000CE0142960E94C317CE014E960E94071592
:101AC000162FBE01685E7F4FCE0101960E94561808
:101AD0001150183048F060E071E088E895E00E940D
:101AE00017190E94031B45C046E250E061E573E010
:101AF000CE0101960E941D2CC12ED12C25E1129FF2
:101B0000F0011124E65FFE4F8389948921E5E22EDE
:101B100023E0F22EFC01E155F3405F01C5018E0D7B
:101B20009F1DF70161917F019B8B8A8BCE014296AD
:101B30000E94B620F7E7EF16F3E0FF0679F7602F73
:101B40006095661F6627661F85E18C9DF0018D9D5F
:101B5000F00D1124E65FFE4F8389948987960E94D9
:101B600003256DEE70E088E895E00E9417190E9449
:101B7000EB1A0E94BF260E94C326CE0101960E9446
:101B8000C317CE0148960E94C317CE014E960E94FD
:101B9000C317CE0184960E94C317CE018A960E9475
:101BA000C31762E872E0CE0101960E944D18BE0193
:101BB0006F5F7F4F85E596E00E9417168C01CE017E
:101BC00001960E94C31717FD0FC065E576E0CE01B0
:101BD00001960E94561862E0CE0101960E94942858
:101BE000CE0101960E94C31767E772E0CE0101960D
:101BF0000E944D18BE016F5F7F4F85E596E00E9401
:101C000017168C01CE0101960E94C31717FD04C060
:101C10000E94651E0E944E206CE672E0CE01019685
:101C20000E944D18BE016F5F7F4F85E596E00E94D0
:101C300017168C01CE0101960E94C31717FF0E9450
:101C4000C32664E672E0CE0101960E944D18BE01E3
:101C50006F5F7F4F85E596E00E9417168C01CE01DD
:101C600001960E94C31717FD84C00E94A7362DEF6E
:101C700030E040E050E00E94623782E0D82ED60E7D
:101C80006AE371E088E895E00E94C8184AE060E0E5
:101C900074E080E090E00E94682B68E371E088E8DF
:101CA00095E00E94171900E010E06D2DC8010E9418
:101CB000543765E070E080E090E00E9470220F5F92
:101CC0001F4F011524E0120781F7E12CF12C00E0F1
:101CD00010E0C8010E9413258D1529F16AE271E018
:101CE00088E895E00E94C818C8010E941325C82EF4
:101CF0004AE0B801CE0101960E94C8176DE376E074
:101D0000CE0101960E94E8166C2D0E942617BC0198
:101D100088E895E00E940519CE0101960E94C3173C
:101D20003FEFE31AF30A65E070E080E090E00E9484
:101D300070220F5F1F4F011584E0180751F664E20F
:101D400071E088E895E00E94C818E114F10409F0F8
:101D500051C46CE171E088E895E00E9417190E9477
:101D6000BF2664EF71E080E090E00E947022F701EE
:101D700009956CE572E0CE0101960E944D18BE01F6
:101D80006F5F7F4F85E596E00E9417168C01CE01AC
:101D900001960E94C31717FF0E94922762E572E026
:101DA000CE0101960E944D18BE016F5F7F4F85E501
:101DB00096E00E9417168C01CE0101960E94C3176F
:101DC00017FF0E94D41C6BE472E0CE0101960E94C2
:101DD0004D18BE016F5F7F4F85E596E00E94171694
:101DE0008C01CE0101960E94C31717FD09C064EF54
:101DF00071E080E090E00E947022E0E0F0E0099560
:101E000063E472E0CE0101960E944D18BE016F5F3F
:101E10007F4F85E596E00E9417168C01CE01019652
:101E20000E94C31717FD99C064EE72E0CE0142967E
:101E30000E945F18BE016E5E7F4F85E596E00E94AE
:101E40000D164AE0BC01CE0148960E94F417CE015F
:101E500048960E940715AB014F5F5F4F65E576E03E
:101E6000CE0101960E94D620CE0148960E94C3174B
:101E7000CE0142960E94C317CE0101960E9407151B
:101E80006B3071058105910508F0BBC3CE01019649
:101E90000E940715162F6BE871E088E895E00E9414
:101EA000C81880910504082E000C990B0E94052C7F
:101EB000612F89E190E00E940325109305046EE7ED
:101EC00071E088E895E00E94C81860910504062E2C
:101ED000000C770B880B990B97FF03C00E94DE2B39
:101EE00003C04AE00E94682B64E771E088E895E04F
:101EF0000E94C818111116C068E671E088E895E0E4
:101F00000E94171960E671E088E895E00E941719B1
:101F100064EF71E080E090E00E947022E0E0F0E089
:101F2000099515C0113019F469E571E00CC0123043
:101F300019F460E571E007C0133019F46CE471E046
:101F400002C063E471E088E895E00E9417190E94DE
:101F5000BF26CE0101960E94C31764E372E0CE0152
:101F600001960E944D18BE016F5F7F4F85E596E098
:101F70000E9417168C01CE0101960E94C31717FD0F
:101F80003BC060E372E0CE0101960E944D18BE0195
:101F90006F5F7F4F85E596E00E9417168C01CE019A
:101FA00001960E94C31717FD05C060E08AE190E02A
:101FB0000E9403256BE272E0CE0101960E944D184B
:101FC000BE016F5F7F4F85E596E00E9417168C017A
:101FD000CE0101960E94C31717FD05C061E08AE19A
:101FE00090E00E94032564EF71E080E090E00E94A1
:101FF0007022E0E0F0E009956DE172E0CE0101961B
:102000000E944D18BE016F5F7F4F85E596E00E94EC
:1020100017168C01CE0101960E94C31717FD62C0EE
:1020200064EE72E0CE0101960E945F18BE016F5F00
:102030007F4F85E596E00E940D164AE0BC01CE0177
:1020400048960E94F417CE0148960E940715AB01EE
:102050004F5F5F4F65E576E0CE0142960E94D62045
:10206000CE0148960E94C317CE0101960E94C31765
:10207000BE016E5E7F4FCE0101960E945618CE01C2
:1020800001960E9407156F3F71058105910511F0BA
:1020900008F0CDC2CE0101960E9407158BE190E0B9
:1020A0000E940325CE0101960E940715609300014E
:1020B0006AE072E088E895E00E94C8188BE190E041
:1020C0000E9413256AE070E00E94AB2B0E94BF269D
:1020D0000E94EB1ACE0101960E94C317CE014296D0
:1020E0000E94C3171092040465E072E0CE010196CD
:1020F0000E944D18BE016F5F7F4F85E596E00E94FC
:1021000017168C01CE0101960E94C31717FD55C00A
:1021100069EF71E081E396E00E9434178091D70364
:10212000811103C083EF92E002C081EF92E00E9430
:102130006B2C66EF71E081E396E00E94631640919C
:10214000470650914806609143067091440681E32A
:1021500096E00E94A11660ED77E080E090E00E949A
:102160007022809103048130F1F46BEE72E0CE01B5
:1021700001960E945F1869E476E0CE0101960E9404
:10218000E816BC01CE0142960E94561861E0CE01CD
:1021900042960E941525CE0142960E94C317CE0199
:1021A00001960E94C31780910004813031F461E3ED
:1021B00076E088E895E00E94051960EF71E0CE01B5
:1021C00001960E944D18BE016F5F7F4F85E596E036
:1021D0000E9417168C01CE0101960E94C31717FDAD
:1021E00022C080910004813011F48093020468EED3
:1021F00073E080E090E00E94702269E971E081E67E
:1022000096E00E94C8186BE576E081E696E00E94B1
:10221000BA1869EF72E081E696E00E94EC1881E658
:1022200096E00E9401196AEE71E0CE0101960E94CB
:102230004D18BE016F5F7F4F85E596E00E9417162F
:102240008C01CE0101960E94C31717FD12C060E0F9
:102250008BE00E94AA192091010130910201A0E6B1
:10226000BAEE0E94ED370E94702261E08BE00E947E
:10227000AA1962EE71E0CE0101960E944D18BE01CE
:102280006F5F7F4F85E596E00E9417168C01CE01A7
:1022900001960E94C31717FD04C0809100040E949C
:1022A000C91A69ED71E0CE0101960E944D18BE0178
:1022B0006F5F7F4F85E596E00E9417168C01CE0177
:1022C00001960E94C31717FD0CC080910004813055
:1022D00011F4809302041092D803109261050E94B9
:1022E000391A63ED71E0CE0101960E944D18BE01CE
:1022F0006F5F7F4F85E596E00E9417168C01CE0137
:1023000001960E94C31717FD2AC06FEE72E0CE013E
:1023100001960E945F18BE016F5F7F4F85E596E0D2
:102320000E9417168C01CE0101960E94C31717FD5B
:1023300009C081E08093010461E08CE090E00E949C
:1023400003250BC01092010460E08CE090E00E9435
:10235000032561E08BE00E94AA190E944B1B6EECE2
:1023600071E0CE0101960E944D18BE016F5F7F4F54
:1023700085E596E00E9417168C01CE0101960E9419
:10238000C31717FD29C06FEE72E0CE0101960E94BF
:102390005F18BE016F5F7F4F85E596E00E941716BC
:1023A0008C01CE0101960E94C31717FD0AC081E07F
:1023B0008093B60161E08DE090E00E94032560E02B
:1023C00008C01092B60160E08DE090E00E94032505
:1023D00061E08CE00E94AA1965EC71E0CE010196E3
:1023E0000E944D18BE016F5F7F4F85E596E00E9409
:1023F00017168C01CE0101960E94C31717FD23C04A
:1024000067EB71E081E696E00E94C81880910504B0
:10241000813031F463EB71E081E696E00E94171998
:10242000809105048250823030F461EB71E081E6E6
:1024300096E00E94171965EA71E088E895E00E942D
:1024400017190E94EB1A60EC71E0CE0101960E9410
:102450004D18BE016F5F7F4F85E596E00E9417160D
:102460008C01CE0101960E94C31717FD30C08091E8
:1024700004018130A9F461E081E10E94AA19409130
:10248000000128EE33E04203B001439F700D112498
:10249000072E000C880B990B0E94702260E014C07C
:1024A00060E081E10E94AA194091000128EE33E02A
:1024B0004203B001439F700D1124072E000C880BBE
:1024C000990B0E94702261E081E10E94AA1910928A
:1024D000030410920004E0960FB6F894DEBF0FBE1E
:1024E000CDBFDF91CF911F910F91FF90EF90DF90C3
:1024F000CF90BF90AF90089560910101709102015B
:102500004AE0CE0148960E94C817BE01685E7F4F20
:10251000CE0101960E948A17CE0148960E94C317E9
:102520000C9465074AE060912004CE0148960E9411
:102530002018BE01685E7F4FCE0101960E948A1767
:10254000CE0148960E94C3170C94DD074AE06091C3
:10255000DA03CE0148960E942018BE01685E7F4FC4
:10256000CE0101960E948A17CE0148960E94C31799
:102570000C9451084AE06091D903CE0148960E941C
:102580002018BE01685E7F4FCE0101960E948A1717
:10259000CE0148960E94C3170C94C5086091B901FA
:1025A0007091BA014AE0CE0148960E94C817BE0158
:1025B000685E7F4FCE0101960E948A17CE01489631
:1025C0000E94C3170C943D096091B2017091B30150
:1025D0004AE0CE0148960E94C817BE01685E7F4F50
:1025E000CE0101960E948A17CE0148960E94C31719
:1025F0000C94B90964E171E088E895E00E9417192C
:10260000B8CB60910504062E000C770B4AE0CE0192
:1026100042960E94F417BE016E5E7F4FCE01019676
:102620000E948A17CE0142960E94C3172FCC609158
:102630000001062E000C770B4AE0CE0148960E945E
:10264000F417BE01685E7F4FCE0101960E948A1783
:10265000CE0148960E94C3171DCD0895CF92DF92F8
:10266000EF92FF920F931F93CF93DF936C017A0148
:102670008B01C0E0D0E0CE15DF0589F0D8016D9167
:102680008D01D601ED91FC910190F081E02DC60104
:102690000995892B11F47E0102C02196ECCFC70168
:1026A000DF91CF911F910F91FF90EF90DF90CF902E
:1026B0000895FC01538D448D252F30E0842F90E048
:1026C000821B930B541710F0CF960895019708952D
:1026D000FC01918D828D981761F0828DDF01A80F2A
:1026E000B11D5D968C91928D9F5F9F73928F90E04C
:1026F00008958FEF9FEF0895FC01918D828D9817BB
:1027000031F0828DE80FF11D858D90E008958FEFF7
:102710009FEF0895FC01918D228D892F90E0805CC0
:102720009F4F821B91098F739927089588E895E040
:102730000E948A1321E0892B09F420E0822F08955A
:10274000FC01848DDF01A80FB11DA35ABF4F2C914E
:10275000848D90E001968F739927848FA689B7891D
:102760002C93A089B1898C9180648C93938D848DF6
:10277000981306C00288F389E02D80818F7D8083C5
:102780000895EF92FF920F931F93CF93DF93EC0185
:1027900081E0888F9B8D8C8D981305C0E889F9891D
:1027A000808185FD24C0F62E0B8D10E00F5F1F4F3A
:1027B0000F731127E02E8C8DE8120CC00FB607FCAA
:1027C000FACFE889F989808185FFF5CFCE010E9493
:1027D000A013F1CF8B8DFE01E80FF11DE35AFF4FDF
:1027E000F0820B8FEA89FB898081806207C0EE89C5
:1027F000FF896083E889F98980818064808381E032
:1028000090E0DF91CF911F910F91FF90EF9008958D
:10281000CF93DF93EC01888D8823C9F0EA89FB8987
:10282000808185FD05C0A889B9898C9186FD0FC07E
:102830000FB607FCF5CF808185FFF2CFA889B98953
:102840008C9185FFEDCFCE010E94A013E7CFDF91E1
:10285000CF91089580E090E0892B29F00E94961393
:1028600081110C9400000895833081F028F48130A8
:1028700099F08230A1F008958730A9F08830B9F03E
:102880008430D1F4809180008F7D03C080918000DE
:102890008F7780938000089584B58F7702C084B5C8
:1028A0008F7D84BD08958091B0008F7703C08091A3
:1028B000B0008F7D8093B00008950E94213AAF92BE
:1028C000BF92CF92DF92EF92FF920F931F93CF931D
:1028D000DF937B018A01FB0144815581411551053C
:1028E00061F1FC01248135812115310531F1241775
:1028F000350718F10217130718F089010150110963
:10290000FC01A080B180C501DFEFCFEF6501C00EF3
:10291000D11EC816D906A0F0F701608171810E940E
:10292000683A009769F09C012A193B0902171307BE
:1029300010F0D22FC32F0196ECCF8FEF9FEF02C084
:102940008D2F9C2FDF91CF911F910F91FF90EF90D2
:10295000DF90CF90BF90AF9008950F931F93CF93C8
:10296000DF93EC0188819981009729F02A813B81CE
:102970002617370788F48B016F5F7F4F0E94573906
:10298000009761F0998388831B830A832C813D81A2
:10299000232B11F4FC01108281E001C080E0DF9163
:1029A000CF911F910F910895CF93DF93EC01888110
:1029B0009981009711F00E94BF38198218821D82F8
:1029C0001C821B821A82DF91CF910895EF92FF92B1
:1029D0000F931F93CF93DF93EC017B018A01BA0120
:1029E0000E94AD14811104C0CE010E94D41407C00E
:1029F0001D830C83B701888199810E94523ACE01D0
:102A0000DF91CF911F910F91FF90EF900895FC01FE
:102A100080819181009711F00C94B53660E070E0F0
:102A2000CB0108952F923F924F925F926F927F92C7
:102A30008F929F92AF92BF92CF92DF92EF92FF92CE
:102A40000F931F93CF93DF93FC0144805580411473
:102A5000510409F4CFC0FB016480758061147104D6
:102A600009F4C8C07A016B01EC01FA01A480B580B9
:102A7000A618B70808811981A114B104C1F4F601A0
:102A800060817181C8010E94683AEC01892B09F4C8
:102A9000B1C0F7016081718144815581CE010E94EE
:102AA0002E3AF701048115810C0F1D1FE8CFB7FEE8
:102AB00002C0480106C0FB01208031804201C801EC
:102AC00042C0F60160817181C4010E94683A2C0104
:102AD000892B19F1320168187908A301B401C801E2
:102AE0000E942E3A060D171DF70160817181448105
:102AF0005581C8010E942E3AF70184819581080F03
:102B0000191FF60184809580840C951C8C819D8111
:102B10008A0D9B1D9D838C83D4CFB401C801DF91A6
:102B2000CF911F910F91FF90EF90DF90CF90BF90CA
:102B3000AF909F908F907F906F905F904F903F905D
:102B40002F900C94523AB1010E94683A009729F0F4
:102B5000860D971D8A0C9B1CF6CF8414950409F4EE
:102B600049C08A819B818815990560F4B4016F5F23
:102B70007F4FC8010E9457390097E1F199838883FC
:102B80009B828A824C815D814150510957FD32C040
:102B9000B601CE010E945F148C0197FD2BC0888185
:102BA0009981F60124813581200F311F820F931FF7
:102BB0004C815D81421B530BBC018A0D9B1D0E9401
:102BC000373A8C819D818A0D9B1D9D838C83288142
:102BD0003981F901E80FF91F108288819981F70185
:102BE0006081718144815581800F911F0E942E3A2E
:102BF000A801CACFDF91CF911F910F91FF90EF9065
:102C0000DF90CF90BF90AF909F908F907F906F900C
:102C10005F904F903F902F900895FC014481558123
:102C2000FB0124813581421B530B0C945F14CF931D
:102C3000DF93FC0124813581232B71F0FB01DC0142
:102C4000CD91DC9160817181CE010E94683A00973C
:102C500019F08C1B9D0B02C08FEF9FEFDF91CF917E
:102C60000895FC0124813581FB014481558124179D
:102C7000350721F5FC0180819181FB016081718123
:102C8000009719F061157105A1F46115710549F0FE
:102C9000232BB1F0FB01808190E091958195910902
:102CA0000AC0009769F0232B59F0FC01808190E065
:102CB00002C00E94493A21E0892B19F020E001C0AE
:102CC00021E0822F0895EF92FF920F931F93CF93ED
:102CD000DF936115710511F480E01EC08B01EC01DA
:102CE000CB010E94E3360097B1F02C813D817C013D
:102CF000E20EF31EB701CE010E94AD14882361F3EA
:102D0000288139818C819D81B801820F931F0E9497
:102D1000DC36FD82EC8281E0DF91CF911F910F9133
:102D2000FF90EF900895CF93DF93EC010E9463161C
:102D3000811103C0CE010E94D414CE01DF91CF9146
:102D40000895EF92FF920F931F93CF93DF93FC01AF
:102D5000248135816115710511F480E019C0411598
:102D60005105A9F07B01EC018A01020F131FB80184
:102D70000E94AD14882389F3288139818C819D813B
:102D8000B701820F931F0E94523A1D830C8381E08A
:102D9000DF91CF911F910F91FF90EF900895CF9306
:102DA000DF93EC016115710561F0FB0101900020DA
:102DB000E9F73197AF01461B570B0E94A11681110D
:102DC00003C0CE010E94D414CE01DF91CF910895AB
:102DD000CF93DF93EC01FB014481558160817181C8
:102DE0000E94A116811103C0CE010E94D414CE010D
:102DF000DF91CF910895EF92FF920F931F93CF939E
:102E0000DF9300D000D0CDB7DEB77C01862F4AE03B
:102E10008E010F5F1F4FB80190E00E94F736F80156
:102E200001900020E9F73197AF01401B510BB80129
:102E3000C7010E94A1160F900F900F900F90DF9185
:102E4000CF911F910F91FF90EF900895CF93DF9353
:102E5000EC010E94FB16811103C0CE010E94D41424
:102E6000CE01DF91CF910895EF92FF920F931F93C0
:102E7000CF93DF93EC018B016115710551F0CB010C
:102E80000E94E3367C01BC01CE010E94AD14811189
:102E900004C0CE010E94D41407C0FD82EC82B801A8
:102EA000888199810E94DC36CE01DF91CF911F91FC
:102EB0000F91FF90EF900895CF93DF93EC01611590
:102EC000710559F0FB0101900020E9F73197AF013E
:102ED000461B570B0E94E61402C00E94D414CE0178
:102EE000DF91CF910895CF93DF93EC01FB0186171B
:102EF000970761F0608171816115710529F0448146
:102F000055810E94E61402C00E94D414CE01DF91C4
:102F1000CF9108950F931F93CF93DF938C01EB0113
:102F2000FC01808191810097B1F068817981611500
:102F3000710579F0428153812C813D8142175307FD
:102F400040F00E94523A8C819D81F80195838483E0
:102F500013C00E94BF3888819981F80191838083D2
:102F60008A819B81938382838C819D8195838483D5
:102F7000198218821B821A821D821C82DF91CF91D6
:102F80001F910F910895FC01808191810C94BF38AD
:102F90000F931F93CF93DF93CDB7DEB761970FB633
:102FA000F894DEBF0FBECDBF8C01CB01F8011182BA
:102FB0001082138212821582148250E0BE016F5F6C
:102FC0007F4F0E941737BE016F5F7F4FC8010E947D
:102FD0005C1761960FB6F894DEBF0FBECDBFDF91D0
:102FE000CF911F910F9108950F931F93CF93DF936C
:102FF000CDB7DEB762970FB6F894DEBF0FBECDBF78
:103000008C01CB01F8011182108213821282158289
:10301000148250E0BE016F5F7F4F0E94EC36BE010C
:103020006F5F7F4FC8010E945C1762960FB6F894DD
:10303000DEBF0FBECDBFDF91CF911F910F910895DD
:103040000F931F93CF93DF93CDB7DEB729970FB6BA
:10305000F894DEBF0FBECDBF8C01862FF801118220
:103060001082138212821582148250E0BE016F5FBB
:103070007F4F90E00E941737BE016F5F7F4FC801FE
:103080000E945C1729960FB6F894DEBF0FBECDBF25
:10309000DF91CF911F910F910895FC011182108251
:1030A00013821282158214820C943417FC0111824F
:1030B000108213821282158214820C947317FC0101
:1030C0001182108213821282158214826115710599
:1030D00051F0FB0101900020E9F73197AF01461B49
:1030E000570B0C94E6140895BF92CF92DF92EF92A3
:1030F000FF920F931F93CF93DF937C016B018A01A3
:10310000E9012417350720F4812F8901C42FD82F16
:1031100068E073E0C7010E945F18D60114968D9194
:103120009C91159708171907D0F48C179D0708F480
:10313000EC01D601ED91FC911197EC0FFD1FB080D1
:1031400010824D915C91BA01600F711FC7010E94FE
:103150005C17D601ED91FC91EC0FFD1FB082C70109
:10316000DF91CF911F910F91FF90EF90DF90CF9063
:10317000BF900895DC01ED91FC91DB0114964D9117
:103180005C9115976D917C910280F381E02D0994FB
:10319000EF92FF920F931F93CF93DF938C017B01EC
:1031A000C0E0D0E0F701EC0FFD1F6491662361F0F1
:1031B000D801ED91FC910190F081E02DC8010995B5
:1031C000892B11F02196EECFCE01DF91CF911F9187
:1031D0000F91FF90EF9008956115710579F0FB0153
:1031E00001900020E9F73197AF01461B570BDC0136
:1031F000ED91FC910280F381E02D099480E090E054
:10320000089566E073E00C94EC180F931F93CF932E
:10321000DF93EC010E94BA188C01CE010E940119C3
:10322000800F911FDF91CF911F910F9108950F9300
:103230001F93CF93DF93EC010E94C8188C01CE013D
:103240000E940119800F911FDF91CF911F910F9163
:1032500008951F920F920FB60F9211242F933F9350
:103260004F935F936F937F938F939F93AF93BF938E
:10327000EF93FF9388E895E00E94A013FF91EF91F0
:10328000BF91AF919F918F917F916F915F914F917E
:103290003F912F910F900FBE0F901F9018951F9286
:1032A0000F920FB60F9211242F938F939F93EF934A
:1032B000FF93E0919805F09199058081E0919E053A
:1032C000F0919F0582FD12C090818091A1058F5FD2
:1032D0008F732091A205821751F0E091A105F0E0D3
:1032E000E857FA4F958F8093A10501C08081FF9127
:1032F000EF919F918F912F910F900FBE0F901F9084
:103300001895CF93DF93282F30E0F901EC52FB4F53
:103310008491F901E854F74FD491F901EC55F74F36
:10332000C491CC2391F081110E943414EC2FF0E071
:10333000EE0FFF1FE656F74FA591B491EC91ED23E8
:1033400081E090E021F480E002C080E090E0DF9135
:10335000CF9108951F93CF93DF93282F30E0F90189
:10336000EC52FB4F8491F901E854F74FD491F901E5
:10337000EC55F74FC491CC23C9F0162F81110E9450
:103380003414EC2FF0E0EE0FFF1FE057F74FA5913C
:10339000B4918FB7F894111105C09C91ED2FE09571
:1033A000E92302C0EC91ED2BEC938FBFDF91CF911D
:1033B0001F910895CF93DF9390E0FC01E854F74FFD
:1033C0002491FC01EC55F74F8491882361F190E042
:1033D000880F991FFC01E653FB4FC591D491FC0166
:1033E000E057F74FA591B491611109C09FB7F894C8
:1033F0008881209582238883EC912E230BC0623034
:1034000061F49FB7F8943881822F80958323888355
:10341000EC912E2B2C939FBF06C08FB7F894E881B8
:103420002E2B28838FBFDF91CF9108958091790350
:10343000813019F466E477E006C08091020481309F
:1034400031F467E577E083E496E00C9463166EE46C
:1034500077E083E496E00E94631640914D06509118
:103460004E066091490670914A0683E496E00C94FA
:10347000A1160F931F93CF93DF93CDB7DEB762975B
:103480000FB6F894DEBF0FBECDBF1092B80160E05A
:103490008EE090E00E9403256BE377E083E496E002
:1034A0000E9434170E94161A63E476E088E895E0DB
:1034B0000E94051963E476E081E396E00E947317A9
:1034C00068EE73E080E090E00E9470220BEB11E068
:1034D000F8018589968946960E9413258130D9F591
:1034E00068EE73E080E090E00E9470226FEE73E07F
:1034F000F801858996890E94AA24BC01CE0107960D
:103500000E945F186BEE72E0CE0101960E945F1878
:10351000BE01695F7F4FCE0101960E94E816BC0193
:10352000CE010D960E94561860E0CE010D960E94C5
:103530001525CE010D960E94C317CE0101960E945B
:10354000C317CE0107960E94C31768EE73E080E0B0
:1035500090E00E947022095E1F4FF2E0013A1F07BF
:1035600009F0B6CF80917A03823021F410920601DF
:1035700010920501109279031092020462960FB620
:10358000F894DEBF0FBECDBFDF91CF911F910F9199
:103590000895813011F4809302040E94AA2260935E
:1035A000210470932204809323049093240481E0E7
:1035B0008093D8030C947F258091B801813031F439
:1035C0001092D803109261050C94391A811102C02F
:1035D0000C94C91A089561E08BE00E94AA1964E670
:1035E00070E080E090E00E94702260E08BE00E943A
:1035F000AA1964E670E080E090E00E94702261E029
:103600008BE00C94AA190E94EB1A0C94EB1ACF923F
:10361000DF92FF920F931F93CF93DF9300D000D0E0
:1036200000D0CDB7DEB76C010BEB11E06FEE73E0AD
:10363000F801858996890E94AA24BC01CE010196D1
:103640000E945F18B601CE0101960E943116F82E35
:10365000CE0101960E94C317FF2041F0B60189E414
:1036600096E00E947317FF24F39406C0095E1F4F73
:10367000F2E0013A1F07D1F68F2D26960FB6F89487
:10368000DEBF0FBECDBFDF91CF911F910F91FF9095
:10369000DF90CF9008950F931F93CF93DF9300D0C7
:1036A00000D000D0CDB7DEB760ED77E080E090E0ED
:1036B0000E9470220E94262B10927C0610927B069C
:1036C00010927A0610927906109278061092770678
:1036D0008DE991E090937E0680937D0690916D0632
:1036E000963108F057C02DEB30E0309378062093E8
:1036F00077062BE931E030937A06209379062CE2A5
:1037000031E030937C0620937B062091680098304E
:1037100050F031E09E3008F430E081E001C0880FC5
:103720003A95EAF701C084E0822B809368009830D4
:1037300038F09E3040F0963148F020E030E008C08C
:103740002DE630E005C02BE630E002C02CE630E08C
:103750003093750620937406983030F481E001C0F0
:10376000880F9A95EAF70EC0292F30E09E3018F4A2
:103770002850310902C02E50310981E001C0880F64
:103780002A95EAF78093760680917D0690917E06D1
:103790000197F1F780917B0690917C06892B49F186
:1037A000E0912704F091280486E0E136F80709F15A
:1037B000309739F0A389B4899C91858980958923B4
:1037C0008C9380917F068E7F80937F0610922504D4
:1037D0001092260481E696E09093280480932704B3
:1037E000E0917406F0917506908180917606892BA0
:1037F00080831AE068E377E081E696E00E9417197B
:1038000068EC70E080E090E00E947022115091F727
:1038100064E377E081E696E00E9417196AE070E0C1
:1038200080E090E00E94702281E696E00E943122C2
:10383000892B09F471C081E696E00E943122892B20
:1038400079F081E696E00E944922809306040E9466
:10385000562C64E170E080E090E00E947022EBCF93
:1038600080910504811152C06FE277E0CE0101968C
:103870000E944D18BE016F5F7F4F85E596E00E9464
:1038800017168C01CE0101960E94C31717FD03C0C5
:1038900081E08093050468E277E0CE0101960E9402
:1038A0004D18BE016F5F7F4F85E596E00E941716A9
:1038B0008C01CE0101960E94C31717FD03C082E060
:1038C0008093050465E277E0CE0101960E944D18D1
:1038D000BE016F5F7F4F85E596E00E9417168C0151
:1038E000CE0101960E94C31717FD03C083E08093A9
:1038F000050462E177E088E895E00E94C8188091AD
:103900000504082E000C990B0E94052C68E073E05A
:1039100085E596E00E945C1768E077E081E696E036
:103920000E94171964E670E080E090E00E94702227
:103930006EEF76E081E696E00E94171964E670E08B
:1039400080E090E00E94702260EF76E081E696E0F1
:103950000E94171964E670E080E090E00E947022F7
:1039600064EE76E081E696E00E94171964E670E066
:1039700080E090E00E94702280910104813019F46F
:103980006FED76E002C06AED76E081E696E00E9497
:10399000171926960FB6F894DEBF0FBECDBFDF9184
:1039A000CF911F910F910895AF92BF92CF92DF9266
:1039B000EF92FF920F931F93CF93DF9300D000D02D
:1039C00000D0CDB7DEB76FE875E088E895E00E94DB
:1039D00017196BE875E088E895E00E94C8186DE358
:1039E00076E0CE0101960E94561865E875E0CE019A
:1039F00001960E949316BC0188E895E00E94BA18CF
:103A0000CE0101960E94C3176DE376E0CE010196C8
:103A10000E94561863E875E0CE0101960E94931645
:103A2000BC0188E895E00E94BA18CE0101960E9478
:103A3000C3176DE376E0CE0101960E94561861E847
:103A400075E0CE0101960E949316BC0188E895E0CE
:103A50000E94BA18CE0101960E94C3176DE376E06A
:103A6000CE0101960E9456186FE775E0CE010196CF
:103A70000E949316BC0188E895E00E94BA18CE0116
:103A800001960E94C3176DE376E0CE0101960E9475
:103A900056186DE775E0CE0101960E949316BC01A1
:103AA00088E895E00E940519CE0101960E94C3178F
:103AB0000BEB11E0E12CF12C6FEE73E0F80185893E
:103AC00096890E94AA24F8018589968943960E94C6
:103AD0001325D82EFFEFEF1AFF0A4AE0B701CE01F7
:103AE00001960E94F4176DE376E0CE0101960E94E4
:103AF000E8166FEE73E00E94CF166DE376E00E9449
:103B0000E8166D2D0E942617BC0188E895E00E94FA
:103B1000BA18CE0101960E94C317F801C588D6884D
:103B2000C60146960E941325B82EC60145960E94EE
:103B30001325A82EC60144960E941325D82E6DE3A6
:103B400076E0CE0101960E9456186D2DCE010196A9
:103B50000E9426176DE376E00E94E8166A2D0E9407
:103B600026176DE376E00E94E8166B2D0E9426175B
:103B7000BC0188E895E00E940519CE0101960E94DB
:103B8000C317095E1F4FFAE0EF16F10409F094CF56
:103B90000E94BF2626960FB6F894DEBF0FBECDBF9B
:103BA000DF91CF911F910F91FF90EF90DF90CF9019
:103BB000BF90AF900895CF93DF9383E690E00E948B
:103BC0001325813009F450C068E675E088E895E077
:103BD0000E941719C4E6D0E06FEFCE010E940325C2
:103BE0006AE070E080E090E00E9470222196C03987
:103BF00081E0D80789F76FE475E088E895E00E94D6
:103C000017190E94BF26CFECD1E0BE0164517109A3
:103C100089819A810E94D024FE01339789819A81FB
:103C2000608143960E940325FE01329789819A8123
:103C3000608144960E940325FE01319789819A8113
:103C4000608145960E94032589819A816881469604
:103C50000E940325679682E0C53BD807B1F661E074
:103C600083E690E00E94032583E690E00E941325FE
:103C7000813021F4DF91CF910C94D41CDF91CF914E
:103C80000895CF93DF93D82FC92F682F80E190E05C
:103C90000E9454376C2F81E190E00E945437D093FA
:103CA000B201C093B3016CE375E088E895E00E942F
:103CB000C8188091B2019091B3010E94CC2B0E9450
:103CC000BF26DF91CF910C94EB1ACF93DF9380E066
:103CD00090E00E941325813009F477C06EEB76E006
:103CE00088E895E00E941719C0E0D0E06FEFCE01A0
:103CF0000E9403256AE070E080E090E00E9470225C
:103D00002196CE31D10591F76EE976E088E895E00D
:103D10000E9417190E94BF2661E08AE090E00E948D
:103D2000032561E08BE090E00E94032560E08CE0D9
:103D300090E00E94032561E08DE090E00E94032561
:103D400061E08EE090E00E9403256FE08FE090E05C
:103D50000E9403258CE390E00E94411E60E082E116
:103D600090E00E94032561E083E190E00E9403253A
:103D700060E084E190E00E94032560E085E190E04E
:103D80000E94032560E086E190E00E94032560E048
:103D900087E190E00E94032568E288E190E00E94BC
:103DA000032560E089E190E00E94032561E08AE15B
:103DB00090E00E94032561E08BE190E00E940325E2
:103DC00061E080E090E00E94032580E090E00E94A6
:103DD0001325813009F05FC16BE876E088E895E053
:103DE0000E9417190E94BF268AE090E00E941325C6
:103DF0008093030161E876E088E895E00E94C818A6
:103E000080910301082E000C990B0E94052C88E17B
:103E100090E00E94132590E09093BA018093B9013D
:103E200066E776E088E895E00E94C8188091B901BD
:103E30009091BA010E94CC2B8CE090E00E94132557
:103E4000809301046FE676E088E895E00E94C81848
:103E500080910104082E000C990B0E94052C8DE026
:103E600090E00E9413258093B60169E676E088E829
:103E700095E00E94C8188091B601082E000C990B9D
:103E80000E94052C8EE090E00E9413258093B801DB
:103E900061E676E088E895E00E94C8188091B80154
:103EA000082E000C990B0E94052C8FE090E00E94D8
:103EB000132590E0909302018093010165E576E07F
:103EC00088E895E00E94C818809101019091020154
:103ED0000E94CC2B80E190E00E941325C82F81E145
:103EE00090E00E941325C093B2018093B30166E471
:103EF00076E088E895E00E94C8188091B201909120
:103F0000B3010E94CC2B8BE090E00E94132580939C
:103F1000B50164E376E088E895E00E94C8188091D6
:103F2000B501082E000C990B0E94052C82E190E04F
:103F30000E9413258093D70369E276E088E895E034
:103F40000E94C8188091D703082E000C990B0E947C
:103F5000052C83E190E00E941325809309016CE118
:103F600076E088E895E00E94C81880910901082E43
:103F7000000C990B0E94052C87E190E00E9413250C
:103F80008093D9036BE076E088E895E00E94C8183A
:103F90006AE070E08091D9030E94AB2B84E190E04D
:103FA0000E94132580937A036DEF75E088E895E011
:103FB0000E94C81880917A03082E000C990B0E9469
:103FC000052C85E190E00E941325809320046AEE81
:103FD00075E088E895E00E94C8186AE070E080917A
:103FE00020040E94AB2B86E190E00E941325809371
:103FF000DA0367ED75E088E895E00E94C8186AE08A
:1040000070E08091DA030E94AB2B8AE190E00E947D
:1040100013258093040166EC75E088E895E00E9422
:10402000C81880910401082E000C990B0E94052CE1
:104030008BE190E00E9413258093000166EB75E010
:1040400088E895E00E94C81880910001082E000CB5
:10405000990B0E94052C89E190E00E941325809322
:1040600005046CEA75E088E895E00E94C818809124
:104070000504811107C061EA75E088E895E00E94B7
:10408000171905C0082E000C990B0E94052CDF9112
:10409000CF910C94BF26DF91CF91089581E390E0FA
:1040A0000E941325813081F167E275E088E895E090
:1040B0000E9417196CE075E088E895E00E941719D6
:1040C0000E94BF2669E073E08BE596E00E945C17D2
:1040D00086E18093A10241E150E060E473E08BE56A
:1040E00096E00E941D2C60E473E08EE190E00E9457
:1040F000D0246091A10280E390E00E94032561E05A
:1041000081E390E00E94032581E390E00E94132563
:10411000813059F560E473E08EE190E00E94AA24BA
:10412000BC018BE596E00E945C1780E390E00E9462
:1041300013258093A1026BEF74E088E895E00E945C
:10414000C8186BE576E088E895E00E94051968EEEE
:1041500074E088E895E00E94C8186AE070E08091F9
:10416000A1020E94AB2B0C94BF260895EF92FF9200
:104170000F931F93CF93DF931F92CDB7DEB77C01D0
:10418000FC0100811181C80169830E944C3769815B
:10419000681719F0C8010E945437C7010F90DF91CA
:1041A000CF911F910F91FF90EF900895CF93DF93E0
:1041B000EC01FB01248135810E947418CE01DF914E
:1041C000CF9108953FB7F894809156059091570587
:1041D000A0915805B091590526B5A89B05C02F3F61
:1041E00019F00196A11DB11D3FBFBA2FA92F982F1D
:1041F0008827820F911DA11DB11DBC01CD0142E098
:10420000660F771F881F991F4A95D1F7089585ED8E
:104210008093BC008091BC0084FDFCCF1092A10370
:10422000089540912C05262F30E0240F311D2132B6
:104230003105DCF42091A1032430C9F4FC0180E0B5
:1042400090E0861758F430912C052191DC01A65F8F
:10425000BA4FA30FB11D2C930196F3CF80912C057B
:10426000680F60932C0580E0089581E0089582E056
:1042700008950895E091C2038091C303E81730F4D4
:10428000F0E0EE55FC4F808190E008958FEF9FEFB6
:1042900008959091C2038091C303981750F4E92FB9
:1042A000F0E0EE55FC4F208130E09F5F9093C20319
:1042B00002C02FEF3FEFC90108958091C30390E042
:1042C0002091C203821B91090895CF92DF92EF9251
:1042D000FF920F931F93CF93DF937C01262F972F8D
:1042E0008A0180914904882391F0C62FD72F6E014F
:1042F000C40ED51ECC15DD0571F06991D701ED9185
:10430000FC910190F081E02DC7010995F3CF642F56
:10431000822F0E941121C801DF91CF911F910F912F
:10432000FF90EF90DF90CF900895CF93DF931F928F
:10433000CDB7DEB76983209149042223D1F02091C3
:104340007703203240F021E030E0FC013383228308
:1043500080E090E015C080917803E82FF0E0E75D01
:10436000FB4F998190838F5F8093780380937703CD
:1043700005C061E0CE0101960E94112181E090E02C
:104380000F90DF91CF910895209127043091280458
:104390002817390771F49091260480912504981705
:1043A00041F0E0912604F0E0E65BFB4F808190E075
:1043B00008958FEF9FEF089508951F93CF93DF9394
:1043C000DC015C962D913C915D972115310539F406
:1043D00081E090E013969C938E9312973DC0519686
:1043E000ED91FC91529750969C915097892F809512
:1043F0001FB75E964C915E9741FB772770F941FDA0
:104400006095F8944081772311F0492B01C048232F
:104410004083E9012197F1F748E0508160FF02C035
:10442000592B01C058235083E9012197F1F7669574
:10443000415099F7772321F090818923808303C02D
:104440008081982B90831FBF5C968D919C915D9786
:104450000197F1F721E030E0C901DF91CF911F9181
:10446000089520912704309128042817390771F402
:10447000809125042091260490E080549F4F821B58
:10448000910960EC70E00E94FC37089580E090E0B4
:104490000895209127043091280428173907C9F47A
:1044A0009091260480912504981799F0E0912604B4
:1044B000F0E0E65BFB4F20818091260490E00196BE
:1044C00060EC70E00E94FC3780932604822F90E01D
:1044D00008958FEF9FEF0895089580E090E008958C
:1044E0008F929F92AF92BF92CF92DF92EF92FF9204
:1044F0006B017C010E94E2204B015C01C114D104DC
:10450000E104F104F1F00E94E220DC01CB01881902
:104510009909AA09BB09883E9340A105B10570F32A
:1045200021E0C21AD108E108F10888EE880E83E084
:10453000981EA11CB11CC114D104E104F10419F7A7
:10454000DDCFFF90EF90DF90CF90BF90AF909F9026
:104550008F9008952FB7F89460915205709153058C
:1045600080915405909155052FBF08951F920F9289
:104570000FB60F9211242F933F938F939F93AF9376
:10458000BF938091520590915305A0915405B0912D
:1045900055053091510523E0230F2D3720F4019666
:1045A000A11DB11D05C026E8230F0296A11DB11D56
:1045B000209351058093520590935305A093540581
:1045C000B09355058091560590915705A0915805D7
:1045D000B09159050196A11DB11D80935605909388
:1045E0005705A0935805B0935905BF91AF919F917E
:1045F0008F913F912F910F900FBE0F901F901895A4
:104600001F920F920FB60F9211242F933F934F9347
:104610005F936F937F938F939F93AF93BF93EF932A
:10462000FF938091B900887F803609F49CC068F5BB
:10463000883209F45BC090F4803109F454C038F436
:10464000882309F4F6C0883009F44DC0F6C08831DB
:1046500009F44CC0803209F45DC0EFC0803409F425
:1046600068C048F4803309F455C0883309F0E5C0C8
:1046700080939F03D8C0803509F44FC0883509F472
:104680005DC0883409F0D9C0D6C0883909F4C7C0E4
:10469000A8F4883709F467C038F4883609F463C091
:1046A000803709F460C0C9C0883809F4B8C08039BF
:1046B00009F45FC0803809F0C0C05BC0803B09F4DA
:1046C00086C038F4803A09F466C0883A09F47FC09D
:1046D000B4C0803C09F4A7C0883C09F4A4C0883B5E
:1046E00009F48AC0AAC080919C0310C090919E03D7
:1046F00080919D03981770F5E0919E0381E08E0FE5
:1047000080939E03F0E0E558FC4F80818093BB00CE
:1047100085EC86C080939F038EC0E0919E0381E06C
:104720008E0F80939E038091BB00F0E0E558FC4F14
:10473000808390919E0380919D036EC0E0919E03C3
:1047400081E08E0F80939E038091BB00F0E0E558DE
:10475000FC4F80838091A00381116DC081E0809324
:104760009B0384EA61C083E08093A103109250050B
:10477000CFCF80915005803208F051C0E0915005B4
:1047800081E08E0F809350058091BB00F0E0E05DEA
:10479000FA4F8083BDCF85EC8093BC001092A103BB
:1047A00080915005803230F4E0915005F0E0E05DFA
:1047B000FA4F10826091500570E0E0912E05F09163
:1047C0002F0580E395E009951092500536C084E0EE
:1047D0008093A10310922D0510922C05E0912A05DB
:1047E000F0912B05099580912C05811105C081E080
:1047F00080932C0510920A05E0912D0581E08E0F23
:1048000080932D05F0E0E65FFA4F80818093BB0036
:1048100090912D0580912C05981708F479CF85E8A3
:104820008093BC000AC085EC8093BC001092A10369
:1048300004C010929F030E940721FF91EF91BF9146
:10484000AF919F918F917F916F915F914F913F9128
:104850002F910F900FBE0F901F9018951F920F92DF
:104860000FB60F9211242F933F934F935F936F9343
:104870007F938F939F93AF93BF93EF93FF93E091B9
:104880002704F0912804309709F453C0968DA6852B
:10489000B785858591FF04C09C91892329F449C07F
:1048A0009C91892309F045C0A389B4899C9185898D
:1048B000809589238C93868997890197F1F7608D7C
:1048C000718DA685B785558538E020E0CB0101972D
:1048D000F1F7822F90E095958795282F4C914523ED
:1048E00009F02068315091F7868D81FD20958091E7
:1048F000250490E0019660EC70E00E94FC379091F6
:104900002604981749F0A0912504B0E0A65BBB4FA0
:104910002C938093250403C0868D8160868F828DC1
:10492000938D0197F1F7A389B4899C918589892B8F
:104930008C93FF91EF91BF91AF919F918F917F9158
:104940006F915F914F913F912F910F900FBE0F90FC
:104950001F901895CF92DF92EF92FF920F931F93C3
:10496000CF93DF93EB017B0121E1E20EF11C8B0180
:104970006C01C61AD70AC601800F911F0E944C37DE
:10498000F80181938F01EE15FF05A9F7CE01DF91A4
:10499000CF911F910F91FF90EF90DF90CF900895EE
:1049A000AF92BF92CF92DF92EF92FF920F931F933D
:1049B000CF93DF9300D0CDB7DEB78B016B0121E140
:1049C000C20ED11C7B015C01A61AB70A95012E0DFF
:1049D0003F1DF70161917F013A832983CE01019642
:1049E0000E94B620EC14FD0489F7C8010F900F90C7
:1049F000DF91CF911F910F91FF90EF90DF90CF90BB
:104A0000BF90AF900895CF93DF9300D0CDB7DEB7BE
:104A10009A838983CE0101960E94B6200F900F9051
:104A2000DF91CF9108950C944C37CF93DF93EC0135
:104A300080910301813019F0613009F047C068EEC0
:104A400073E080E090E00E9470226AE677E081E601
:104A500096E00E94C818BE0181E696E00E94BA184E
:104A600068E677E081E696E00E94171964EF71E04E
:104A700080E090E00E94702261E376E081E696E0BB
:104A80000E94BA1864EF71E080E090E00E9470220A
:104A9000E0916106F09162060190F081E02D6AE1FB
:104AA00081E696E0099564EF71E080E090E00E9475
:104AB000702263E173E088E895E00E94EC1868E8F2
:104AC00073E180E090E00E94702206C06FE073E026
:104AD00088E895E00E94EC18BE0188E895E00E9405
:104AE000BA186DE376E088E895E00E94BA1861E3B1
:104AF00076E088E895E0DF91CF910C9405190F934B
:104B00001F93CF93DF93CDB7DEB762970FB6F894BC
:104B1000DEBF0FBECDBF0E94AA22009121041091DA
:104B200022042091230430912404601B710B820B1A
:104B3000930B28EE33E040E050E00E94CB378091A9
:104B4000200490E0A0E0B0E082179307A407B50727
:104B500008F076C011E01093B80161E08EE090E0BB
:104B60000E9403251093B40164E777E083E496E0A4
:104B70000E9434170E94161A63E476E088E895E0F4
:104B80000E94051963E476E081E396E00E947317C2
:104B900068EE73E080E090E00E9470220BEB11E081
:104BA000F8018589968946960E9413258130D9F5AA
:104BB00068EE73E080E090E00E9470226FEE73E098
:104BC000F801858996890E94AA24BC01CE01079626
:104BD0000E945F186BEE72E0CE010D960E945F1886
:104BE000BE01695F7F4FCE010D960E94E816BC01A1
:104BF000CE0101960E94561860E0CE0101960E94F7
:104C00001525CE0101960E94C317CE010D960E9474
:104C1000C317CE0107960E94C31768EE73E080E0C9
:104C200090E00E947022095E1F4FF2E0013A1F07D8
:104C300009F0B6CF10927903109202041092D803B3
:104C400062960FB6F894DEBF0FBECDBFDF91CF9155
:104C50001F910F91089560ED77E080E090E00E9451
:104C6000702260E677E081E696E00E9417191092C4
:104C7000DD030895AF92BF92CF92DF92FF920F9320
:104C80001F93CF93DF93CDB7DEB762970FB6F8943B
:104C9000DEBF0FBECDBF9091B801913049F4162F01
:104CA000082F8BEBA82E81E0B82E9AE0F92E48C091
:104CB000813009F054C0F3CF1230E1F5F501C58819
:104CC000D688C60145960E941325813099F56FEE6E
:104CD00073E0C6010E94AA24BC01CE0107960E947F
:104CE0005F186BEE72E0CE0101960E945F18BE0164
:104CF000695F7F4FCE0101960E94E816BC01CE018C
:104D00000D960E945618602FCE010D960E94152513
:104D1000CE010D960E94C317CE0101960E94C317C3
:104D2000CE0107960E94C31768EE73E080E090E022
:104D30000E947022FA94F7E1AF0EB11CFF2049F0F7
:104D4000113009F0B9CFF501C588D688C601439660
:104D5000BACF113021F41093DB031093DC03629679
:104D60000FB6F894DEBF0FBECDBFDF91CF911F917C
:104D70000F91FF90DF90CF90BF90AF90089588E89B
:104D800095E00C940119DF92EF92FF920F931F931D
:104D9000CF93DF9300D000D000D0CDB7DEB763E86B
:104DA00078E088E895E00E9417198AE0E82E81E013
:104DB000F82E00E010E0F701838994890E944E2BC1
:104DC000F7018389948987960E941325D82E0F5F57
:104DD0001F4F4AE0B801CE0101960E94F4176DE31F
:104DE00076E0CE0101960E94E81662E675E00E9428
:104DF000CF166DE376E00E94E8166D2D0E9426170F
:104E0000BC0188E895E00E940519CE0101960E9438
:104E1000C317F5E1EF0EF11C0830110561F60E9491
:104E2000BF2626960FB6F894DEBF0FBECDBFDF912A
:104E3000CF911F910F91FF90EF90DF900895AF9267
:104E4000BF92CF92DF92EF92FF920F931F93CF9377
:104E5000DF9300D0CDB7DEB782E690E00E94132545
:104E6000813009F452C06DE678E088E895E00E9450
:104E7000171904EF11E06FEFC8010E9403256AE0E3
:104E800070E080E090E00E9470220F5F1F4F0533BA
:104E900083E0180781F763E578E088E895E00E94F1
:104EA00017190E94BF260AE011E08CE1A82E81E0CC
:104EB000B82EF801C388D4887801C01AD10AC60177
:104EC0008E0D9F1DF70161917F019A838983CE0129
:104ED00001960E94B620EA14FB0489F7F801838941
:104EE0009489F701608187960E9403250B5E1F4F0E
:104EF0005701F5E1AF0EB11C81E0023B1807C9F67E
:104F000061E082E690E00E9403250F900F90DF9110
:104F1000CF911F910F91FF90EF90DF90CF90BF90B6
:104F2000AF9008957F928F929F92AF92BF92CF924F
:104F3000DF92EF92FF920F931F93CF93DF93C12CD9
:104F4000D12C7601C394D0E0BB24B39462E0A62EAA
:104F500099249A9475EE872EE5EC7E2ECC2DB09296
:104F60004904C0925A0510927803109277039091E9
:104F7000A1039111FCCFA092A103B092A003909243
:104F80009F0310929E0310929D0310929C038091A8
:104F90009C0386019601220F331F282B20939C032C
:104FA00080919B03813069F410929B0380919C0354
:104FB0008093BB008091BC0083FDF8CF7092BC0051
:104FC00002C08092BC008091A1038230E1F3809105
:104FD0009F038F3F69F080919F03803231F0809171
:104FE0009F03803321F094E003C092E001C093E07E
:104FF000109278031092770310924904911138C0EF
:1050000062E478E088E895E00E94C81880E1C8165C
:10501000D104E104F10430F460E478E088E895E03C
:105020000E94C81840E1C701B6010E94682B80EEBB
:105030008C0F883018F0C853C830B0F46DE376E0B8
:1050400088E895E00E94BA186FE278E088E895E079
:105050000E9417191093C5030093C4038091D603CF
:105060008F5F8093D60302C00E94BF26DF5F19C006
:105070009430B9F463E278E088E895E00E94C818BB
:10508000E0E1CE16D104E104F10430F461E278E00D
:1050900088E895E00E94C81860E170E08C2F0E94BB
:1050A000AB2BFFEFCF1ADF0AEF0AFF0A8FE7C81614
:1050B000D104E104F10409F051CFD11106C06BE035
:1050C00078E088E895E00E9417198091D60388233C
:1050D000E9F00E94C3260AE011E0CEECD3E0FC2EFA
:1050E000E8E0FE0EF8018389948987960E941325D3
:1050F00089930B5E1F4FFC12F5CF0E94BF26E6EC92
:10510000F3E088E08E0F11928E13FDCFDF91CF91E7
:105110001F910F91FF90EF90DF90CF90BF90AF90D5
:105120009F908F907F9008958F929F92AF92BF92A1
:10513000CF92DF92EF92FF920F931F93CF93DF9363
:10514000CDB7DEB76E970FB6F894DEBF0FBECDBFFA
:105150007C01162F64EE72E0CE0101960E945F186A
:10516000BE016F5F7F4FC7010E940D164AE0BC0170
:10517000CE0107960E94F417CE0107960E940715EC
:10518000AB014F5F5F4FB701CE0143960E94D6201F
:10519000CE0107960E94C317CE0101960E94C31745
:1051A0006AE173E0CE0101960E945F18BE016F5F55
:1051B0007F4FCE0143960E941716D92ECE0101963D
:1051C0000E94C317D094DD1CDD24DD1C6CE173E06C
:1051D000CE0101960E945F18BE016F5F7F4FCE0126
:1051E00043960E941716C92ECE0101960E94C3173E
:1051F000C094CC1CCC24CC1C6EE173E0CE01019693
:105200000E945F18BE016F5F7F4FCE0143960E94E0
:105210001716E92ECE0101960E94C317E094EE1CEA
:10522000EE24EE1C60E273E0CE0101960E945F184E
:10523000BE016F5F7F4FCE0143960E941716F92E75
:10524000CE0101960E94C317F094FF1CFF24FF1C9F
:1052500068E073E0CE0107960E945F186AE173E090
:10526000CE0101960E945F18AE01495F5F4FBE01FB
:105270006F5F7F4FCE0143960E941215CE010196BB
:105280000E94C317CE0107960E94C31768E073E01F
:10529000CE0107960E945F186CE173E0CE01019683
:1052A0000E945F18AE01495F5F4FBE016F5F7F4F85
:1052B000CE0143960E941215CE0101960E94C3179B
:1052C000CE0107960E94C31768E073E0CE010796EF
:1052D0000E945F186EE173E0CE0101960E945F1894
:1052E000AE01495F5F4FBE016F5F7F4FCE014396B6
:1052F0000E941215CE0101960E94C317CE01079697
:105300000E94C31768E073E0CE0107960E945F1801
:1053100060E273E0CE0101960E945F18AE01495F22
:105320005F4FBE016F5F7F4FCE0143960E94121503
:10533000CE0101960E94C317CE0107960E94C317A3
:1053400068E073E0CE0107960E945F1866EE72E097
:10535000CE0101960E945F18AE01495F5F4FBE010A
:105360006F5F7F4FCE0143960E941215CE010196CA
:105370000E94C317CE0107960E94C3176BEE72E01E
:10538000CE0101960E945F18BE016F5F7F4FCE0174
:1053900043960E9417164AE0BC01CE0107960E9470
:1053A000F417CE0107960E9407159B0140E050E0DC
:1053B000BE016D5E7F4FCE010D960E947418CE0126
:1053C00007960E94C317CE0101960E94C3176BEE89
:1053D00072E0CE0101960E945F18BE016F5F7F4FA1
:1053E000CE0143960E940D164AE0BC01CE014996BB
:1053F0000E94F417CE0149960E940715AB014F5F3A
:105400005F4FBE016D5E7F4FCE0107960E94D62092
:10541000CE0149960E94C317CE0101960E94C31780
:10542000113009F0C8C0CE010D960E940715062F55
:10543000BE01695F7F4FCE0149960E9456186FEEFC
:1054400073E08091D0019091D1010E94AA24BC0107
:10545000CE0101960E945F188D819E81892B39F0C3
:10546000E981FA818081882319F010E001C011E000
:10547000CE0101960E94C317112361F06CEC77E016
:1054800088E895E00E9417190E94BF260E94031B1E
:1054900080E001C081E09EEF900F9A3058F06EEAF4
:1054A00077E088E895E00E9417190E94BF260E94C5
:1054B000031B7CC0813009F079C001508BEB882E32
:1054C00081E0982EAA24A394B12C6FEE73E0F4012E
:1054D000858996890E94AA24BC01CE0101960E946A
:1054E0005F18BE01675E7F4FCE0101960E943116A4
:1054F000182FCE0101960E94C317112391F06BE87B
:1055000077E088E895E00E94C818C5010E94052C44
:105510000E94BF268FEF8A0D801719F0F12CE12C25
:10552000D12CF7E18F0E911C8FEFA81AB80AEBE08F
:10553000AE16B10451F641E150E06EED73E0CE01DC
:1055400049960E941D2CF7E10F9F800111240554FC
:105550001E4F6EED73E0F801858996890E94D02474
:10556000F801858996896D2D43960E940325F801DF
:10557000858996896C2D44960E940325F8018589BA
:1055800096896E2D45960E940325F8018589968996
:105590006F2D46960E9403256EE777E088E895E038
:1055A0000E9417190E94BF260E94EB1ACE0149964D
:1055B0000E94C3172CC0123051F58091D0019091F8
:1055C000D1016D2D43960E9403258091D0019091C9
:1055D000D1016C2D44960E9403258091D0019091B9
:1055E000D1016E2D45960E9403258091D0019091A6
:1055F000D1016F2D46960E94032563EF77E088E87E
:1056000095E00E9417190E94BF260E94EB1ACE0156
:1056100007960E94C317CE010D960E94C317CE01B4
:1056200043960E94C3176E960FB6F894DEBF0FBE66
:10563000CDBFDF91CF911F910F91FF90EF90DF9041
:10564000CF90BF90AF909F908F900895E8E8F5E0DD
:10565000A089B18982E08C93A485B5851C92A6852A
:10566000B7858FEC8C93108EA489B58986E08C93D6
:10567000A289B3898C9180618C93A289B3898C9122
:1056800088608C93A289B3898C9180688C930288FE
:10569000F389E02D80818F7D808308950F931F9380
:1056A000CF93DF93C2E6D5E08C0102561540C801C6
:1056B0008C0F9D1F0E944C37899385E0C838D8070E
:1056C000B1F782E695E0DF91CF911F910F91089598
:1056D0008F929F92AF92BF920F931F93CF93DF93BE
:1056E000CDB7DEB7A1970FB6F894DEBF0FBECDBF22
:1056F00019A2423008F44AE08E010F5D1F4F842E3C
:10570000912CA12CB12CA50194010E94CB37E62F3E
:10571000B901CA0101501109EA3014F4E05D01C079
:10572000E95CD801EC93232B242B252B61F7B801DE
:1057300088E895E00E94EC18A1960FB6F894DEBFB9
:105740000FBECDBFDF91CF911F910F91BF90AF9052
:105750009F908F900895CF93DF93AB01672B61F4F7
:10576000E0918805F09189050190F081E02D682F86
:1057700088E895E0099506C0682F70E080E090E029
:105780000E94682BEC0188E895E00E9401198C0FBB
:105790009D1FDF91CF910895CF93DF93BC0180E0EF
:1057A00090E04AE00E94682BEC0188E895E00E94B6
:1057B00001198C0F9D1FDF91CF910895CF92DF9239
:1057C000EF92FF92CF93DF936B017C01E09188050C
:1057D000F09189050190F081E02D6DE288E895E077
:1057E0000995EC0166277727CB016C197D098E0995
:1057F0009F094AE00E94682B8C0F9D1FDF91CF917B
:10580000FF90EF90DF90CF900895CF93DF93BC018E
:10581000990F880B990B97FF03C00E94DE2B03C0E2
:105820004AE00E94682BEC0188E895E00E9401198B
:105830008C0F9D1FDF91CF9108950F931F93CF93EE
:10584000DF93FC01248135812115310519F4FB0119
:10585000108211C0EA0121972C173D0708F4E901D5
:105860008B01FC0160817181AE01C8010E94593A2F
:10587000C00FD11F1882DF91CF911F910F91089512
:105880008091610581110AC00E94AA2260935D0582
:1058900070935E0580935F059093600581E080932F
:1058A000610510925C0580935B050895CF93DF93AB
:1058B00000D0CDB7DEB789831A8241E050E0BE0147
:1058C0006F5F7F4F85E596E00E94A1160F900F90C5
:1058D000DF91CF910895009769F0FC0101900020BD
:1058E000E9F73197AF01481B590BBC0181E396E002
:1058F0000C94A11680E00895CF93DF93CDB7DEB767
:105900006E970FB6F894DEBF0FBECDBF789484B506
:10591000826084BD84B5816084BD85B5826085BDAB
:1059200085B5816085BD80916E00816080936E0039
:10593000109281008091810082608093810080912B
:1059400081008160809381008091800081608093DC
:1059500080008091B10084608093B1008091B0009C
:1059600081608093B00080917A00846080937A0097
:1059700080917A00826080937A0080917A008160C1
:1059800080937A0080917A00806880937A001092E8
:10599000C1000E94262B1092C2031092C3031092E2
:1059A0007803109277031092A10381E08093A00303
:1059B00010929B0361E082E10E94AA1961E083E1F9
:1059C0000E94AA198091B9008E7F8093B9008091BE
:1059D000B9008D7F8093B90088E48093B80085E496
:1059E0008093BC0062EE73E088E895E00E9417198E
:1059F0000E94BF2664EC79E080E090E00E94702273
:105A000080E480937C0080917A00806480937A00A7
:105A100080917A0086FDFCCF6091780080917900BA
:105A200070E0782B072E000C880B990B611571051F
:105A30008105910511F00E94AC360E94651E0E94FE
:105A40004E200E94DB1D0E941F270E94922761E0CA
:105A50008AE00E94DA1961E08CE00E94DA1961E0C4
:105A60008BE00E94DA1961E08AE00E94AA1961E0E5
:105A70008CE00E94AA1961E08BE00E94AA1960E004
:105A80008AE00E94AA1964EF71E080E090E00E9431
:105A9000702261E08AE00E94AA1960E08CE00E9416
:105AA000AA1964EF71E080E090E00E94702261E04A
:105AB0008CE00E94AA1960E08BE00E94AA1964EFB2
:105AC00071E080E090E00E94702261E08BE00E9433
:105AD000AA1960E086E00E94DA1960E08EE00E9478
