:100000000C943B040C9463040C9463040C945E19EC
:100010000C945E190C945E190C9463040C946304A4
:100020000C9463040C9463040C9463040C946304B4
:100030000C9463040C9463040C9463040C946304A4
:100040000C94E6170C9463040C94D9160C94B31614
:100050000C9463040C9463040C9463040C94630484
:100060000C9430180C9463044D61696E2073656EB6
:10007000736F7221005049522073656E736F722145
:10008000004164646564207072696D6172792070EA
:10009000686F6E653A202B00546865207072696D38
:1000A0006172792070686F6E65206E756D62657221
:1000B00020616C72656164792061646465642E00FE
:1000C0004C656E677468206F662063686172616357
:1000D0007465727320746F2072657475726E3A2045
:1000E0000052657175657374206E756D626572205E
:1000F00062616C616E6365206D6F646966696564D9
:100100003A2000506175736554696D6520697320EC
:10011000757064617465643A200041544400415430
:100120002B435553443D31006C65646F6666006C2B
:1001300065646F6E00746573746F666600746573D2
:10014000746F6E00636C656172736D7300696E66C7
:100150006F0067756172646F6666006775617264CF
:100160006F6E007061757365006D6F6E6579006507
:1001700064697473656E736F7200504952204F66E4
:1001800066007069726F666600504952204F6E00BB
:100190007069726F6E00536D73204F666600736DE9
:1001A000736F666600536D73204F6E00736D736FCF
:1001B0006E0052696E67204F66660072696E676FE7
:1001C00066660052696E67204F6E0072696E676FD7
:1001D0006E007265736574636F6E66696700726541
:1001E00073657470686F6E650066756C6C726573AC
:1001F000657400616C61726D70696E74696D650023
:10020000736C65657074696D650062616C616E63C5
:10021000656E756D0064656C65746570686F6E659C
:100220000061646470686F6E650054657374206665
:1002300061696C65642E005465737420706173731A
:1002400065642E004661696C65642063656C6C3A78
:10025000200054657374206E756D6265723A2000DB
:100260002042797465732E00454550524F4D206CE5
:10027000656E6774683A200043757272656E74200B
:1002800076616C7565204D6F64656D4944203D2035
:10029000004E6F20617661696C61626C65206D6FE4
:1002A00064656D732E00456D756C617465206D6FAE
:1002B00064656D3A2053494D3830304C00456D75BA
:1002C0006C617465206D6F64656D3A204D35393011
:1002D000650050726576696F75732076616C75651F
:1002E000204D6F64656D4944203D20006374657343
:1002F00074006564697473656E736F72006932634C
:100300007363616E0064656C65746570686F6E65BB
:100310000061646470686F6E65006D6F64656D691F
:1003200064006D656D746573740066756C6C7265E0
:1003300073657400726573657470686F6E650072C2
:1003400065736574636F6E666967006C697374705A
:10035000686F6E6500636C656172736D7300415404
:100360002B435553443D300055535344207175651C
:10037000727920666F72203A202B002B435553442C
:100380003A00534D532066726F6D203A202B002B9C
:10039000434D543A004154483000415448300052D3
:1003A000696E672066726F6D203A202B0052494EAD
:1003B00047002B50425245414459000000000024A0
:1003C0000027002A000000000800020100000304CA
:1003D00007000000000000000050686F6E6520619B
:1003E000646465642E004572726F722C20746869B3
:1003F000732070686F6E6520616C7265616479202E
:1004000065786973747320696E207468652063650C
:100410006C6C3A20004572726F722C206F6E6C7992
:1004200020746865207072696D6172792070686FE0
:100430006E652063616E2061646420616464697428
:10044000696F6E616C2070686F6E65732E00457207
:10045000726F722C2066697273742072656769739B
:100460007465722061207072696D617279207068A4
:100470006F6E652E000A000D002873702900610060
:100480006D0061006D004572726F722064656C656D
:1004900074696E672070686F6E653A202B00446542
:1004A0006C6574652070686F6E653A202B000A00D9
:1004B0000D002873702900D09C65737361676573A4
:1004C0002072656D6F7665640041542B434D47443F
:1004D0003D340041542B434D47443D302C34004EB5
:1004E0006F20493243206465766963657320666FC7
:1004F000756E640A0030004572726F72206174205C
:1005000030780064657465637465642050434638D0
:100510003537340A00300049324320646576696318
:10052000652061742030780053656E736F7220739C
:10053000657474696E67733A0053656E736F7220E9
:1005400073657474696E67732073617665642E00D9
:100550004572726F722073656E736F72206E756D67
:10056000626572000A000D0023680023680053656D
:100570006E74212000220041542B434D47533D22ED
:10058000004E4F542053656E7421200052657374E1
:100590006F72652064656661756C742073656E7337
:1005A0006F7220646174612E0044656C6574696EBD
:1005B000672073656E736F7220646174612E0041F1
:1005C0007474656E74696F6E2120456E61626C652E
:1005D000642073696C656E74206D6F64652E2053A2
:1005E0004D532077696C6C206E6F742062652073A8
:1005F000656E742E00537461727420776F726B692C
:100600006E672E002E005468652073797374656DD3
:1006100020697320737461727465642C20696E693B
:100620007469616C697A6174696F6E20706172615E
:100630006D65746572732E0041726475696E6F200A
:1006400047534D20416C61726D2031372E3031009F
:10065000526561642061727261792070686F6E65A5
:100660003A0050495247756172643A2000416C610A
:10067000726D496E74657276616C3A2000506175D6
:10068000736554696D653A200047756172643A205C
:10069000004C65644F6E3A20004C65645465737479
:1006A0004F6E3A2000416C61726D52696E673A205C
:1006B0000053656E64536D733A2000526561642087
:1006C000636F6E66696775726174696F6E206565C8
:1006D00070726F6D636F6E6669673A00526573740E
:1006E0006F72652064656661756C742065657072F3
:1006F0006F6D636F6E66696720646174612E00447C
:10070000656C6574696E6720656570726F6D636F87
:100710006E66696720646174612E00415445310042
:1007200041542B434E4D493D322C320041542B4312
:100730005343533D2247534D220041542B434D47D1
:10074000463D310041542B434C49503D310041540A
:100750004900415449004154003B004154442B009E
:100760004775617264204F66660047756172642048
:100770004F6E0000000000250028002B0000000044
:1007800000230026002900040404040404040402D5
:10079000020202020203030303030301020408101E
:1007A0002040800102040810200102040810204C9F
:1007B000656E677468206F66206368617261637438
:1007C00065727320746F2072657475726E3A2000C2
:1007D000546865206E756D626572206F6620626177
:1007E0006C616E636520696E71756972793A20007B
:1007F000526573746F72652064656661756C7420F0
:1008000062616C616E636520646174612E00446591
:100810006C6574696E672062616C616E63652064EB
:100820006174612E00416C61726D496E74657276FF
:10083000616C20697320757064617465643A20008E
:10084000526573746F72652064656661756C74209F
:1008500070686F6E6520646174612E0044656C651C
:1008600074696E672070686F6E6520646174612EB4
:1008700000006331892F11241FBECFEFD8E0DEBF07
:10088000CDBF13E0A0E0B1E0EEEFFCE602C00590C2
:100890000D92AE33B107D9F726E0AEE3B3E001C065
:1008A0001D92A935B207E1F714E0CAE3D4E004C011
:1008B0002197FE010E947132C933D107C9F70E9406
:1008C000C12F0C9472360C9400002F923F924F92DD
:1008D0005F926F927F928F929F92AF92BF92CF92D0
:1008E000DF92EF92FF920F931F93CF93DF93CDB7D9
:1008F000DEB7AA970FB6F894DEBF0FBECDBF8091CA
:10090000F304811109C0809126058111D9C061E0ED
:100910008BE00E943417D4C00BEE14E083EEC82E97
:1009200084E0D82E93EDA92E91E0B92EE12CF12C84
:100930004424439425EE322E35EC232E4CE6642ECF
:1009400043E0742E8091F40490911F059111FCCF27
:1009500040921F0540921E052FEF20938C031092AA
:10096000AE031092AD034092AF039091AF03880F96
:10097000892B8093AF0380911D05813069F410921B
:100980001D058091AF038093BB008091BC0083FD67
:10099000F8CF2092BC0002C03092BC0080911F05AD
:1009A0008130E1F38091AE03811103C08091AE03E9
:1009B00001C081E0ADE8B3E0ECE6F3E09E2F9619CC
:1009C000981718F49D919193F9CF10922305809375
:1009D0002205882329F08FEE95E00E94211501C0A1
:1009E00080E090E00E2C02C0959587950A94E2F77E
:1009F000382F3170532E4601F6018081831340C099
:100A0000F801808181113CC0408264E670E080E0A2
:100A100090E00E94A01780917E02813021F460E076
:100A20008CE00E943417F501838994890E94E22C9E
:100A30006CE275E0CE0107960E94B8256BEF75E079
:100A4000CE0101960E94AF25BE01695F7F4FCE01A6
:100A500001960E947324BC01CE010D960E94AF2521
:100A6000CE010D960E94F627CE010D960E94ED2430
:100A7000CE0101960E94ED24CE0107960E94ED243E
:100A8000FFEFCF1ADF0AF4018081851559F0F801D4
:100A90008081813039F4108264E670E080E090E07B
:100AA0000E94A017FFEFEF1AFF0A0F5F1F4F25E10B
:100AB000A20EB11C38E0E316F10409F043CF23CFB6
:100AC00010912605113071F50E94DA17C0903F038E
:100AD000D0904003E0904103F09042039B01AC01B1
:100AE0002C193D094E095F0969017A0135E6C316E3
:100AF000D104E104F104B0F060933F03709340032C
:100B0000809341039093420380913E03811103C07F
:100B100010933E0302C010923E0360913E038BE0AF
:100B20000E94341780918102813041F461E08CE0B1
:100B30000E94341760E08AE00E943417809181029D
:100B400081110CC061E08AE00E94341780917E021E
:100B5000813021F460E08CE00E9434170E94DA17A3
:100B600000912705109128052091290530912A052B
:100B7000AB01BC01401B510B620B730BE0917B027C
:100B8000F0917C0228EE33E0E29FC001E39F900DDC
:100B9000F29F900D1124A0E0B0E084179507A607FE
:100BA000B70740F460E084E00E94341761E085E01C
:100BB0000E94341786E00E940B1780934303811133
:100BC0003DC080918002811139C081E08093800214
:100BD00064E670E080E090E00E94A01780917E02C1
:100BE000813021F460E08CE00E94341768E670E008
:100BF000CE0107960E9477256BEF75E0CE010D962A
:100C00000E94AF25BE01695F7F4FCE010D960E9405
:100C10007324BC01CE0101960E94AF25CE0101963E
:100C20000E94F627CE0101960E94ED24CE010D967A
:100C30000E94ED24CE0107960E94ED24809143038B
:100C4000813061F480918002813041F41092800201
:100C500064E670E080E090E00E94A0178091250596
:100C6000813009F05CC08EE00E940B178093440332
:100C7000813009F040C09091000191113CC08093F7
:100C8000000164E670E080E090E00E94A01780918F
:100C90007E02813021F460E08CE00E94341765E729
:100CA00070E0CE0107960E9477256BEF75E0CE01CC
:100CB00001960E94AF25BE01695F7F4FCE0101966C
:100CC0000E947324BC01CE010D960E94AF25CE0177
:100CD0000D960E94F627CE010D960E94ED24CE01BE
:100CE00001960E94ED24CE0107960E94ED2461E05A
:100CF0008DE00E94341780914403811110C08091CF
:100D00000001813061F41092000164E670E080E03F
:100D100090E00E94A01760E08DE00E94341785E209
:100D200096E00E940916892B11F40C94691085E253
:100D300096E00E940916892BC1F085E296E00E9498
:100D400021168093460389831A8241E050E0BE0158
:100D50006F5F7F4F89E196E00E94FB2364E170E0C2
:100D600080E090E00E94A017E2CF8091E204823000
:100D700011F412E001C011E062EB73E0CE010196C4
:100D80000E947725BE016F5F7F4F89E196E00E9448
:100D9000AF237C01CE0101960E94ED24F7FE0E9454
:100DA0004D296DEA73E0CE0101960E947725BE01C0
:100DB0006F5F7F4F89E196E00E94AF237C01CE01F7
:100DC00001960E94ED24F7FCFCC069E176E082E523
:100DD00095E00E948B1667EC72E083E196E00E943A
:100DE00086246DEB72E0CE010D960E94B825BE01FF
:100DF000635F7F4F89E196E00E94AF234AE0BC0128
:100E0000CE0143960E941E25CE0143960E949F224A
:100E10006B017C016FEB72E0CE0101960E94B82558
:100E2000BE016F5F7F4F89E196E00E94AF234AE0E9
:100E3000BC01CE0107960E941E25CE0107960E9496
:100E40009F22960121503109412F50E0460F571F34
:100E500069E176E0CE0149960E94CD25BE01675E2C
:100E60007F4F83E196E00E94B424CE0149960E9410
:100E7000ED24CE0107960E94ED24CE0101960E943A
:100E8000ED24CE0143960E94ED24CE010D960E94E2
:100E9000ED246FE973E082E595E00E94521663E16C
:100EA00076E082E595E00E948B1663E176E0CE0164
:100EB00007960E94AF2561ED74E080911401909136
:100EC00015010E94DA19BC01CE0101960E94B825D5
:100ED000CE0101960E94A92C182FCE0101960E94E6
:100EE000ED24112391F141E150E060EC74E0CE017A
:100EF00007960E94E62D60EC74E0809114019091B9
:100F000015010E94001A809114019091150161E071
:100F100042960E94331A809114019091150161E06C
:100F200043960E94331A61E870E082E595E00E94E2
:100F30005216BE01695F7F4F82E595E00E948B16D5
:100F40000E94DE1A0E94C92808C068E970E082E5A4
:100F500095E00E949F160E94DE1ACE0107960E941D
:100F6000ED2463E176E0CE0101960E94AF25CE012B
:100F700001960E94F128182FCE0101960E94ED24BF
:100F80001130B9F46AE973E085E296E00E949F1699
:100F900010932B0580918102813021F40E94062755
:100FA0000C94631081110C9463100E9413260C940E
:100FB000631065E973E085E296E00E949F160C9449
:100FC00063106FE873E0CE0101960E947725BE01A1
:100FD0006F5F7F4F89E196E00E94AF238C01CE01C5
:100FE00001960E94ED2417FDA9C769E176E082E52C
:100FF00095E00E948B1667EC72E083E196E00E9418
:1010000086246DEB72E0CE010D960E94B825BE01DC
:10101000635F7F4F89E196E00E94AF234AE0BC0105
:10102000CE0143960E941E25CE0143960E949F2228
:101030006B017C016FEB72E0CE0101960E94B82536
:10104000BE016F5F7F4F89E196E00E94AF234AE0C7
:10105000BC01CE0107960E941E25CE0107960E9474
:101060009F22960121503109AB014E5F5F4F69E12C
:1010700076E0CE0149960E94CD25BE01675E7F4F86
:1010800083E196E00E94B424CE0149960E94ED24AB
:10109000CE0107960E94ED24CE0101960E94ED2418
:1010A000CE0143960E94ED24CE010D960E94ED24C0
:1010B00062E873E082E595E00E94521663E176E013
:1010C00082E595E00E948B1663E176E0CE01019601
:1010D0000E94AF25CE0101960E94F128182FCE0163
:1010E00001960E94ED24113009F0EDC763E176E02E
:1010F000CE0107960E94AF2561ED74E08091140146
:10110000909115010E94DA19BC01CE0101960E944E
:10111000B825BE01695F7F4FCE0101960E94C923A9
:10112000082FCE0101960E94ED24CE0107960E9461
:10113000ED2401111093450381E080932B050E945B
:10114000092E80914503813009F0F0C461E272E01C
:10115000CE0101960E947725BE016F5F7F4F89E126
:1011600096E00E94AF238C01CE0101960E94ED24EF
:1011700017FD0EC069E176E0CE0101960E94AF2511
:10118000CE0101960E94811FCE0101960E94ED249E
:1011900065E172E0CE0101960E947725BE016F5F86
:1011A0007F4F89E196E00E94AF238C01CE0101962A
:1011B0000E94ED2417FD0EC069E176E0CE01019694
:1011C0000E94AF25CE0101960E94331ECE010196EA
:1011D0000E94ED246AE072E0CE0101960E9477251C
:1011E000BE016F5F7F4F89E196E00E94AF238C01C3
:1011F000CE0101960E94ED2417FDFFC061EC72E064
:10120000CE0107960E94B825BE01695F7F4F89E134
:1012100096E00E94A5234AE0BC01CE0101960E94FF
:101220001E25CE0101960E949F22AB014F5F5F4FAA
:1012300069E176E0CE0149960E947D2FCE010196AC
:101240000E94ED24CE0107960E94ED2467EC72E027
:10125000CE0101960E94B82566EC72E0CE01079699
:101260000E94B825AE014F5F5F4FBE01695F7F4F9F
:10127000CE0149960E94AA22CE0107960E94ED2433
:10128000CE0101960E94ED2463EC72E0CE01079638
:101290000E94B825BE01695F7F4FCE0149960E942A
:1012A000AF234AE0BC01CE0101960E941E25CE016B
:1012B00001960E949F229B0140E050E0BE01675EC4
:1012C0007F4FCE0143960E94CD25CE0101960E940C
:1012D000ED24CE0107960E94ED2463EC72E0CE016E
:1012E00007960E94B825BE01695F7F4F89E196E0AD
:1012F0000E94A5234AE0BC01CE0101960E941E2552
:10130000CE0101960E949F22AB014F5F5F4F69E1C2
:1013100076E0CE010D960E947D2FCE0101960E94AF
:10132000ED24CE0107960E94ED24CE010D960E9479
:101330009F22162FBE016D5E7F4FCE0101960E9447
:10134000AF2541E150E064E476E0CE0101960E94D1
:10135000E62D64E476E08EE190E00E94001A612FB1
:1013600080E390E00E94331A61E081E390E00E9404
:10137000331A61EE70E082E595E00E94521664E453
:1013800076E08EE190E00E94DA19BC0182E595E0FA
:101390000E94761665EC72E082E595E00E94761672
:1013A00060EC70E082E595E00E94521680E390E0E8
:1013B0000E94431A682F70E080E090E04AE00E94AB
:1013C000A32D65EC72E082E595E00E9476160E94FE
:1013D000D32E0E94DE1A0E94C928CE0101960E94D7
:1013E000ED24CE010D960E94ED24CE0143960E947D
:1013F000ED24CE0149960E94ED2460E072E0CE011A
:1014000001960E947725BE016F5F7F4F89E196E0CC
:101410000E94AF238C01CE0101960E94ED2417FD9E
:101420008EC061EC72E0CE0107960E94B825BE0125
:10143000695F7F4F89E196E00E94A5234AE0BC01E5
:10144000CE0101960E941E25CE0101960E949F2288
:10145000AB014F5F5F4F69E176E0CE010D960E94D0
:101460007D2FCE0101960E94ED24CE0107960E94A9
:10147000ED2467EC72E0CE0101960E94B82566EC7F
:1014800072E0CE0107960E94B825AE014F5F5F4F14
:10149000BE01695F7F4FCE010D960E94AA22CE0148
:1014A00007960E94ED24CE0101960E94ED24BE0114
:1014B000635F7F4FCE0107960E94AF25CE0107964E
:1014C0000E949F22DC01CB010197A109B109CC97B1
:1014D000A105B10510F00C943D13CE0107960E94B2
:1014E0009F22162F8FE090E00E94331A10937D0206
:1014F00063E071E082E595E00E9452168FE090E093
:101500000E94431A4AE0682FCE0101960E944A25A4
:10151000BE016F5F7F4F82E595E00E948B16CE0182
:1015200001960E94ED240E94DE1A0E94C928CE0175
:1015300007960E94ED24CE010D960E94ED2463EFE4
:1015400071E0CE0101960E947725BE016F5F7F4F4B
:1015500089E196E00E94AF238C01CE0101960E94A2
:10156000ED2417FD6CC061EC72E0CE0107960E947D
:10157000B825BE01695F7F4F89E196E00E94A523EF
:101580004AE0BC01CE0101960E941E25CE010196C3
:101590000E949F22AB014F5F5F4F69E176E0CE0171
:1015A0000D960E947D2FCE0101960E94ED24CE0162
:1015B00007960E94ED2467EC72E0CE0101960E942E
:1015C000B82566EC72E0CE0107960E94B825AE0100
:1015D0004F5F5F4FBE01695F7F4FCE010D960E9446
:1015E000AA22CE0107960E94ED24CE0101960E9408
:1015F000ED24BE01635F7F4FCE0107960E94AF25A9
:10160000CE0107960E949F22DC01CB010197A10920
:10161000B109803C984AA105B10510F00C94511312
:10162000CE0107960E949F22CB010E94922ECE01EE
:1016300007960E94ED24CE010D960E94ED2469EEDE
:1016400071E0CE0101960E947725BE016F5F7F4F4A
:1016500089E196E00E94AF238C01CE0101960E94A1
:10166000ED2417FD1CC06FEF80E090E00E94331A5C
:101670000E946E2A68EE73E080E090E00E94A0175E
:101680006FEF83E690E00E94331A0E941E2E68EEF0
:1016900073E080E090E00E94A0170E94C9286EEDE0
:1016A00071E0CE0101960E947725BE016F5F7F4FEA
:1016B00089E196E00E94AF238C01CE0101960E9441
:1016C000ED2417FD09C06FEF83E690E00E94331A06
:1016D0000E941E2E0E94C92862ED71E0CE01019683
:1016E0000E947725BE016F5F7F4F89E196E00E94DF
:1016F000AF238C01CE0101960E94ED2417FD09C095
:101700006FEF80E090E00E94331A0E946E2A0E94E0
:10171000C9286BEC71E0CE0101960E947725BE01CD
:101720006F5F7F4F89E196E00E94AF238C01CE016D
:1017300001960E94ED2417FD3EC068EE73E080E044
:1017400090E00E94A01781E080937F0261E08BE02F
:1017500090E00E94331A65E073E0CE0107960E9484
:10176000B8256DE076E0CE0107960E947324BC0197
:10177000CE0101960E94AF2563EC71E0CE010D967B
:101780000E947725BE016F5F7F4FCE010D960E94AC
:10179000451ACE010D960E94ED24CE0101960E94BD
:1017A000ED24CE0107960E94ED2468EE73E080E000
:1017B00090E00E94A0176BEB71E0CE0101960E94B1
:1017C0007725BE016F5F7F4F89E196E00E94AF23CE
:1017D0008C01CE0101960E94ED2417FD3DC068EEFC
:1017E00073E080E090E00E94A01710927F0260E01A
:1017F0008BE090E00E94331A65E073E0CE0107961B
:101800000E94B8256DE076E0CE0107960E94732411
:10181000BC01CE0101960E94AF2562EB71E0CE01C2
:101820000D960E947725BE016F5F7F4FCE010D960A
:101830000E94451ACE010D960E94ED24CE0101961C
:101840000E94ED24CE0107960E94ED2468EE73E01D
:1018500080E090E00E94A0176CEA71E0CE01019652
:101860000E947725BE016F5F7F4F89E196E00E945D
:10187000AF238C01CE0101960E94ED2417FD3EC0DE
:1018800068EE73E080E090E00E94A01781E0809312
:10189000240561E08AE090E00E94331A65E073E07D
:1018A000CE0107960E94B8256DE076E0CE0107963E
:1018B0000E947324BC01CE0101960E94AF2565EA07
:1018C00071E0CE010D960E947725BE016F5F7F4FBC
:1018D000CE010D960E94451ACE010D960E94ED2470
:1018E000CE0101960E94ED24CE0107960E94ED24C0
:1018F00068EE73E080E090E00E94A0176EE971E06E
:10190000CE0101960E947725BE016F5F7F4F89E16E
:1019100096E00E94AF238C01CE0101960E94ED2437
:1019200017FD3DC068EE73E080E090E00E94A017D4
:1019300065E073E0CE0107960E94B8256DE076E081
:10194000CE0107960E947324BC01CE0101960E942D
:10195000AF2566E971E0CE010D960E947725BE01A4
:101960006F5F7F4FCE010D960E94451ACE010D96F6
:101970000E94ED24CE0101960E94ED24CE0107962F
:101980000E94ED241092240560E08AE090E00E941D
:10199000331A68EE73E080E090E00E94A01760E9DF
:1019A00071E0CE0101960E947725BE016F5F7F4FE7
:1019B00089E196E00E94AF238C01CE0101960E943E
:1019C000ED2417FD3EC068EE73E080E090E00E94D9
:1019D000A01781E08093250561E082E190E00E94FC
:1019E000331A65E073E0CE0107960E94B8256DE0DA
:1019F00076E0CE0107960E947324BC01CE010196C9
:101A00000E94AF2569E871E0CE010D960E9477250E
:101A1000BE016F5F7F4FCE010D960E94451ACE0129
:101A20000D960E94ED24CE0101960E94ED24CE0178
:101A300007960E94ED2468EE73E080E090E00E943B
:101A4000A01762E871E0CE0101960E947725BE01E1
:101A50006F5F7F4F89E196E00E94AF238C01CE013A
:101A600001960E94ED2417FD5FC068EE73E080E0F0
:101A700090E00E94A0171092250560E082E190E0BE
:101A80000E94331A65E073E0CE0107960E94B825E4
:101A90006DE076E0CE0107960E947324BC01CE0172
:101AA00001960E94AF256AE771E0CE010D960E9473
:101AB0007725BE016F5F7F4FCE010D960E94451ABC
:101AC000CE010D960E94ED24CE0101960E94ED24D8
:101AD000CE0107960E94ED2468EE73E080E090E06E
:101AE0000E94A0176FE671E0CE0101960E94772553
:101AF000BE016F5F7F4F89E196E00E94AF238C01AA
:101B0000CE0101960E94ED2417FD0EC069E176E03A
:101B1000CE0101960E94AF25CE0101960E945A1B6C
:101B2000CE0101960E94ED241092450369E671E012
:101B3000CE0101960E947725BE016F5F7F4F89E13C
:101B400096E00E94AF238C01CE0101960E94ED2405
:101B500017FD2AC068EE73E080E090E00E94A017B5
:101B60006EE171E085E296E00E949F1668EC70E0FD
:101B700080E090E00E94A0176AE171E085E296E0C3
:101B80000E9452166FE176E085E296E00E948B1685
:101B900068EC70E080E090E00E94A01768EE73E0CF
:101BA00080E090E00E94A01763E671E0CE0101960C
:101BB0000E947725BE016F5F7F4F89E196E00E940A
:101BC000AF238C01CE0101960E94ED2417FD60C069
:101BD00068EE73E080E090E00E94A01765E073E09B
:101BE000CE0107960E94B8256DE076E0CE010796FB
:101BF0000E947324BC01CE0101960E94AF254AE0E9
:101C000060917D02CE0143960E944A2568EC72E005
:101C1000CE0149960E94B825BE016D5E7F4FCE0170
:101C200049960E9473246FEC72E00E945A24BC0112
:101C3000CE010D960E94AF25BE016F5F7F4FCE0192
:101C40000D960E94451ACE010D960E94ED24CE01FC
:101C500049960E94ED24CE0143960E94ED24CE01C8
:101C600001960E94ED24CE0107960E94ED2460E0CB
:101C70008BE00E94341720917D0230E0A0E6BAEE9E
:101C80000E9463360E94A01761E08BE00E94341727
:101C90006BE571E0CE0101960E947725BE016F5F72
:101CA0007F4F89E196E00E94AF238C01CE0101961F
:101CB0000E94ED2417FD08C068EE73E080E090E01C
:101CC0000E94A0170E94132662E571E0CE010196E2
:101CD0000E947725BE016F5F7F4F89E196E00E94E9
:101CE000AF238C01CE0101960E94ED2417FD08C0A0
:101CF00068EE73E080E090E00E94A0170E94062743
:101D00006DE471E0CE0101960E947725BE016F5F00
:101D10007F4F89E196E00E94AF238C01CE010196AE
:101D20000E94ED2417FD45C068EE73E080E090E06E
:101D30000E94A01765E073E0CE0107960E94B825C7
:101D40006DE076E0CE0107960E947324BC01CE01BF
:101D500001960E94AF2564ED72E0CE0143960E9489
:101D6000B82567E076E0CE0143960E947324BC015B
:101D7000CE010D960E94AF25BE016F5F7F4FCE0151
:101D80000D960E94451ACE010D960E94ED24CE01BB
:101D900043960E94ED24CE0101960E94ED24CE01CF
:101DA00007960E94ED2468EE73E080E090E00E94C8
:101DB000A01764E471E0CE0101960E947725BE0170
:101DC0006F5F7F4F89E196E00E94AF238C01CE01C7
:101DD00001960E94ED2417FD08C00E94111E68EEB6
:101DE00073E080E090E00E94A0176DE371E0CE0107
:101DF00001960E947725BE016F5F7F4F89E196E0D3
:101E00000E94AF238C01CE0101960E94ED2417FDA4
:101E100014C068EE73E080E090E00E94A01781E0BB
:101E20008093260561E08CE090E00E94331A68EE12
:101E300073E080E090E00E94A01765E371E0CE01BE
:101E400001960E947725BE016F5F7F4F89E196E082
:101E50000E94AF238C01CE0101960E94ED2417FD54
:101E600017C068EE73E080E090E00E94A017109227
:101E7000260560E08CE090E00E94331A61E08BE080
:101E80000E94341768EE73E080E090E00E94A01793
:101E90006FE271E0CE0101960E947725BE016F5F6F
:101EA0007F4F89E196E00E94AF238C01CE0101961D
:101EB0000E94ED2417FD18C068EE73E080E090E00A
:101EC0000E94A01781E080937E0261E08DE090E0A7
:101ED0000E94331A60E08CE00E94341768EE73E0D1
:101EE00080E090E00E94A01768E271E0CE010196C8
:101EF0000E947725BE016F5F7F4F89E196E00E94C7
:101F0000AF238C01CE0101960E94ED2417FDDBC0AA
:101F100068EE73E080E090E00E94A01710927E02CD
:101F200060E08DE090E00E94331A61E08CE00E9456
:101F3000341768EE73E080E090E0BCC06BE773E0BC
:101F4000CE0101960E947725BE016F5F7F4F89E128
:101F500096E00E94AF238C01CE0101960E94ED24F1
:101F600017FDABC068E673E082E595E00E9452166B
:101F70006DE076E082E595E00E948B1669E176E0FF
:101F800082E595E00E948B166FEB72E0CE01019620
:101F90000E94B825BE016F5F7F4F89E196E00E94E5
:101FA000AF238C01CE0101960E94ED2417FD78C06D
:101FB00065E073E0CE014F960E94B8256DE076E0B3
:101FC000CE014F960E947324BC01CE0185960E94DB
:101FD000AF256FEB72E0CE010D960E94B825BE01D1
:101FE000635F7F4F89E196E00E94AF234AE0BC0126
:101FF000CE0143960E941E25CE0143960E949F2249
:102000002091820230E08901060F171F6FEB72E00A
:10201000CE0101960E94B825BE016F5F7F4F89E116
:1020200096E00E94AF234AE0BC01CE0107960E94D1
:102030001E25CE0107960E949F22AB014F5F5F4F86
:10204000980169E176E0CE0149960E94CD25BE0156
:102050006B5D7F4FCE0149960E94451ACE0149968D
:102060000E94ED24CE0107960E94ED24CE01019638
:102070000E94ED24CE0143960E94ED24CE010D96E0
:102080000E94ED24CE0185960E94ED24CE014F964C
:102090000E94ED2468EE73E080E090E00E94A017BB
:1020A0006EE573E085E296E00E949F1668EC70E0B2
:1020B00080E090E00E94A01706C069E176E082E52A
:1020C00095E00E948B1667EC72E089E196E00E9431
:1020D000862482E595E00E94E713892B09F410C35A
:1020E00082E595E00E94E713892BC1F082E595E037
:1020F0000E94C5138093460389831A8241E050E011
:10210000BE016F5F7F4F89E196E00E94FB2364E18F
:1021100070E080E090E00E94A017E2CF69E176E0F5
:1021200085E296E00E948B160E94092E65E573E019
:10213000CE0101960E947725BE016F5F7F4F89E136
:1021400096E00E94AF238C01CE0101960E94ED24FF
:1021500017FD08C00E94111E60ED77E080E090E05E
:102160000E94A0176BE473E0CE0101960E947725D0
:10217000BE016F5F7F4F89E196E00E94AF238C0123
:10218000CE0101960E94ED2417FF0E94202C6FE3E0
:1021900073E0CE0101960E947725BE016F5F7F4FED
:1021A00089E196E00E94AF238C01CE0101960E9446
:1021B000ED2417FD07C06FEF80E090E00E94331A16
:1021C0000E946E2A64E373E0CE0101960E94772597
:1021D000BE016F5F7F4F89E196E00E94AF238C01C3
:1021E000CE0101960E94ED2417FD07C06FEF83E634
:1021F00090E00E94331A0E941E2E6AE273E0CE0124
:1022000001960E947725BE016F5F7F4F89E196E0BE
:102210000E94AF238C01CE0101960E94ED2417FD90
:1022200027C06FEF80E090E00E94331A0E946E2A70
:1022300068EE73E080E090E00E94A0176FEF83E605
:1022400090E00E94331A0E941E2E68EE73E080E038
:1022500090E00E94A0176FEF81E390E00E94331A94
:102260000E94D32E68EE73E080E090E00E94A017F9
:1022700062E273E0CE0101960E947725BE016F5F96
:102280007F4F89E196E00E94AF238C01CE01019639
:102290000E94ED2417FDA6C00E941D352DEF30E0F1
:1022A00040E050E00E94D8356B017C0152E0C50E41
:1022B000D11CE11CF11CBC2C68E672E082E595E0C3
:1022C0000E9452164AE060E074E0CE0101960E943E
:1022D000F224BE016F5F7F4F82E595E00E944416B5
:1022E000CE0101960E94ED2460E672E082E595E061
:1022F0000E949F1662E572E082E595E00E94521608
:102300004AE06C2DCE0101960E944A25BE016F5F06
:102310007F4F82E595E00E948B16CE0101960E94C8
:10232000ED2400E010E06B2DC8010E94CA3565E085
:1023300070E080E090E00E94A0170F5F1F4F011532
:1023400084E0180781F7E12CF12C00E010E0C801CF
:102350000E94431A8B1581F164E472E082E595E0F6
:102360000E945216C8010E94431AD82E4AE0B801B2
:10237000CE0107960E94F224BE01695F7F4FCE0115
:1023800001960E94AF2561E076E0CE0101960E94A1
:1023900073246D2D0E942924BC0182E595E00E94E2
:1023A0008B16CE0101960E94ED24CE0107960E9465
:1023B000ED249FEFE91AF90A65E070E080E090E013
:1023C0000E94A0170F5F1F4F0115E4E01E0709F0E0
:1023D000BECFEF2809F07BC167E372E082E595E0AC
:1023E0000E949F166AE173E0CE0101960E94772554
:1023F000BE016F5F7F4F89E196E00E94AF238C01A1
:10240000CE0101960E94ED2417FDABC06BED72E08A
:10241000CE0107960E94B825BE01695F7F4F89E112
:1024200096E00E94A5234AE0BC01CE0101960E94DD
:102430001E25CE0101960E949F22AB014F5F5F4F88
:1024400069E176E0CE010D960E947D2FCE010196C6
:102450000E94ED24CE0107960E94ED2467EC72E005
:10246000CE0101960E94B8256DED72E0CE0107966F
:102470000E94B825AE014F5F5F4FBE01695F7F4F7D
:10248000CE010D960E94AA22CE0107960E94ED244D
:10249000CE0101960E94ED24CE010D960E949F224E
:1024A000DC01CB010197A109B1090A97A105B1058A
:1024B00008F010C1CE010D960E949F22162F62EDEA
:1024C00072E082E595E00E9452166091E204062EC9
:1024D000000C770B4AE0CE0101960E941E25BE013A
:1024E0006F5F7F4F82E595E00E948B16CE010196CB
:1024F0000E94ED24113029F41093E2046DEB72E098
:102500000BC0123029F41093E20466EA72E004C0B2
:102510001092E20461E972E082E595E00E949F1664
:1025200068E772E082E595E00E9452166091E2044D
:10253000062E000C770B4AE0CE0101960E941E2564
:10254000BE016F5F7F4F82E595E00E948B16CE0142
:1025500001960E94ED240E94DE1ACE010D960E9483
:10256000ED2461E173E0CE0101960E947725BE0162
:102570006F5F7F4F89E196E00E94AF238C01CE010F
:1025800001960E94ED2417FD0EC069E176E0CE01B0
:1025900001960E94AF25CE0101960E94811FCE01B7
:1025A00001960E94ED2465E073E0CE0101960E9441
:1025B0007725BE016F5F7F4F89E196E00E94AF23D0
:1025C0008C01CE0101960E94ED2417FD0EC069E139
:1025D00076E0CE0101960E94AF25CE0101960E94C1
:1025E000331ECE0101960E94ED246DEF72E0CE0104
:1025F00001960E947725BE016F5F7F4F89E196E0CB
:102600000E94AF238C01CE0101960E94ED2417FF9A
:102610000E940D1D62EF72E0CE0101960E947725A7
:10262000BE016F5F7F4F89E196E00E94AF238C016E
:10263000CE0101960E94ED2417FD0EC069E176E0FF
:10264000CE0101960E94AF25CE0101960E945A1B31
:10265000CE0101960E94ED246CEE72E0CE0101964F
:102660000E947725CE0101960E94ED2467EC72E06E
:1026700089E196E00E94862443C04AE060917D0291
:10268000CE0101960E944A25BE016F5F7F4FCE01A9
:1026900007960E94B424CE0101960E94ED240C946A
:1026A0006D0A60917B0270917C024AE0CE01019636
:1026B0000E94F224BE016F5F7F4FCE0107960E94F9
:1026C000B424CE0101960E94ED240C94100B6AE212
:1026D00072E084CE6091E204062E000C770B4AE093
:1026E000CE0101960E941E25BE016F5F7F4FCE0175
:1026F0000D960E94B424CE0101960E94ED24DACEFC
:10270000AA960FB6F894DEBF0FBECDBFDF91CF9172
:102710001F910F91FF90EF90DF90CF90BF90AF90FF
:102720009F908F907F906F905F904F903F902F90F1
:1027300008950895CF92DF92EF92FF920F931F9327
:10274000CF93DF936C017A018B01C0E0D0E0CE150E
:10275000DF0589F0D8016D918D01D601ED91FC91D5
:102760000190F081E02DC6010995892B11F47E01BD
:1027700002C02196ECCFC701DF91CF911F910F913D
:10278000FF90EF90DF90CF900895FC01918D828DA6
:10279000981761F0828DDF01A80FB11D5D968C91B5
:1027A000928D9F5F9F73928F90E008958FEF9FEFC0
:1027B0000895FC01918D828D981731F0828DE80F7C
:1027C000F11D858D90E008958FEF9FEF0895FC0136
:1027D000918D228D892F90E0805C9F4F821B910903
:1027E0008F739927089582E595E00E94E71321E011
:1027F000892B09F420E0822F0895FC01848DDF01EC
:10280000A80FB11DA35ABF4F2C91848D90E0019663
:102810008F739927848FA689B7892C93A089B18952
:102820008C9180648C93938D848D981306C002885C
:10283000F389E02D80818F7D80830895EF92FF9250
:102840000F931F93CF93DF93EC0181E0888F9B8DD3
:102850008C8D981305C0E889F989808185FD24C095
:10286000F62E0B8D10E00F5F1F4F0F731127E02E18
:102870008C8DE8120CC00FB607FCFACFE889F989F5
:10288000808185FFF5CFCE010E94FD13F1CF8B8DA6
:10289000FE01E80FF11DE35AFF4FF0820B8FEA892A
:1028A000FB898081806207C0EE89FF896083E889A7
:1028B000F98980818064808381E090E0DF91CF910D
:1028C0001F910F91FF90EF900895CF93DF93EC014C
:1028D000888D8823C9F0EA89FB89808185FD05C040
:1028E000A889B9898C9186FD0FC00FB607FCF5CF7A
:1028F000808185FFF2CFA889B9898C9185FFEDCFC2
:10290000CE010E94FD13E7CFDF91CF91089580E0C3
:1029100090E0892B29F00E94F31381110C940000A0
:102920000895833081F028F4813099F08230A1F04D
:1029300008958730A9F08830B9F08430D1F48091BF
:1029400080008F7D03C0809180008F77809380000E
:10295000089584B58F7702C084B58F7D84BD0895B6
:102960008091B0008F7703C08091B0008F7D8093FD
:10297000B00008953FB7F8948091BC049091BD04D5
:10298000A091BE04B091BF0426B5A89B05C02F3FFF
:1029900019F00196A11DB11D3FBFBA2FA92F982F85
:1029A0008827820F911DA11DB11DBC01CD0142E000
:1029B000660F771F881F991F4A95D1F7089585EDF7
:1029C0008093BC008091BC0084FDFCCF10921F0559
:1029D000089540919204262F30E0240F311D2132BA
:1029E0003105DCF420911F052430C9F4FC0180E09E
:1029F00090E0861758F4309192042191DC01A0599F
:102A0000BB4FA30FB11D2C930196F3CF809192047D
:102A1000680F6093920480E0089581E0089582E059
:102A200008950895E091230580912205E81730F478
:102A3000F0E0E459FC4F808190E008958FEF9FEF24
:102A400008959091230580912205981750F4E92F5D
:102A5000F0E0E459FC4F208130E09F5F9093230524
:102A600002C02FEF3FEFC90108958091220590E049
:102A700020912305821B91090895CF92DF92EF9256
:102A8000FF920F931F93CF93DF937C01262F972FF5
:102A90008A0180916B03882391F0C62FD72F6E0196
:102AA000C40ED51ECC15DD0571F06991D701ED91ED
:102AB000FC910190F081E02DC7010995F3CF642FBF
:102AC000822F0E94E914C801DF91CF911F910F91CD
:102AD000FF90EF90DF90CF900895CF93DF931F92F8
:102AE000CDB7DEB7698320916B032223D1F020910B
:102AF0002005203240F021E030E0FC0133832283C6
:102B000080E090E015C080912105E82FF0E0E55BC2
:102B1000FC4F998190838F5F8093210580932005DE
:102B200005C061E0CE0101960E94E91481E090E0C9
:102B30000F90DF91CF9108952091490330914A037E
:102B40002817390771F4909148038091470398172B
:102B500041F0E0914803F0E0E055FC4F808190E0C7
:102B600008958FEF9FEF089508951F93CF93DF93FC
:102B7000DC015C962D913C915D972115310539F46E
:102B800081E090E013969C938E9312973DC05196EE
:102B9000ED91FC91529750969C915097892F80957A
:102BA0001FB75E964C915E9741FB772770F941FD08
:102BB0006095F8944081772311F0492B01C0482398
:102BC0004083E9012197F1F748E0508160FF02C09E
:102BD000592B01C058235083E9012197F1F76695DD
:102BE000415099F7772321F090818923808303C096
:102BF0008081982B90831FBF5C968D919C915D97EF
:102C00000197F1F721E030E0C901DF91CF911F91E9
:102C100008952091490330914A032817390771F428
:102C2000809147032091480390E080549F4F821B7E
:102C3000910960EC70E00E944932089580E090E0D4
:102C400008952091490330914A0328173907C9F4A0
:102C50009091480380914703981799F0E0914803B9
:102C6000F0E0E055FC4F20818091480390E0019610
:102C700060EC70E00E94493280934803822F90E01C
:102C800008958FEF9FEF0895DC01ED91FC91DB013A
:102C900014964D915C9115976D917C910280F38112
:102CA000E02D0994EF92FF920F931F93CF93DF9340
:102CB0008C017B01C0E0D0E0F701EC0FFD1F6491B7
:102CC000662361F0D801ED91FC910190F081E02D37
:102CD000C8010995892B11F02196EECFCE01DF9125
:102CE000CF911F910F91FF90EF900895611571059D
:102CF00079F0FB0101900020E9F73197AF01461B05
:102D0000570BDC01ED91FC910280F381E02D0994D9
:102D100080E090E008950F931F93CF93DF93EC0131
:102D20000E9444168C0165EC72E0CE010E9476167A
:102D3000800F911FDF91CF911F910F9108950F93F5
:102D40001F93CF93DF93EC010E9452168C0165EC28
:102D500072E0CE010E947616800F911FDF91CF9115
:102D60001F910F9108951F920F920FB60F92112489
:102D70002F933F934F935F936F937F938F939F9383
:102D8000AF93BF93EF93FF9382E595E00E94FD130D
:102D9000FF91EF91BF91AF919F918F917F916F9133
:102DA0005F914F913F912F910F900FBE0F901F9009
:102DB00018951F920F920FB60F9211242F938F9395
:102DC0009F93EF93FF93E0916205F09163058081FB
:102DD000E0916805F091690582FD12C090818091B3
:102DE0006B058F5F8F7320916C05821751F0E09116
:102DF0006B05F0E0EE5AFA4F958F80936B0501C09A
:102E00008081FF91EF919F918F912F910F900FBE35
:102E10000F901F901895CF93DF93282F30E0F90182
:102E2000EB53FC4F8491F901E556F84FD491F90129
:102E3000E957F84FC491CC2391F081110E9491146D
:102E4000EC2FF0E0EE0FFF1FE358F84FA591B4917F
:102E5000EC91ED2381E090E021F480E002C080E07D
:102E600090E0DF91CF9108951F93CF93DF93282FA8
:102E700030E0F901EB53FC4F8491F901E556F84F2E
:102E8000D491F901E957F84FC491CC23C9F0162F1A
:102E900081110E949114EC2FF0E0EE0FFF1FED580E
:102EA000F84FA591B4918FB7F894111105C09C917A
:102EB000ED2FE095E92302C0EC91ED2BEC938FBF51
:102EC000DF91CF911F910895CF93DF9390E0FC01A4
:102ED000E556F84F2491FC01E957F84F8491882377
:102EE00061F190E0880F991FFC01E554FC4FC591FA
:102EF000D491FC01ED58F84FA591B491611109C02E
:102F00009FB7F8948881209582238883EC912E23A3
:102F10000BC0623061F49FB7F8943881822F80959E
:102F200083238883EC912E2B2C939FBF06C08FB7F1
:102F3000F894E8812E2B28838FBFDF91CF910895DD
:102F40008F929F92AF92BF92CF92DF92EF92FF92B9
:102F50006B017C010E94BA144B015C01C114D104C5
:102F6000E104F104F1F00E94BA14DC01CB018819EC
:102F70009909AA09BB09883E9340A105B10570F3E0
:102F800021E0C21AD108E108F10888EE880E83E03A
:102F9000981EA11CB11CC114D104E104F10419F75D
:102FA000DDCFFF90EF90DF90CF90BF90AF909F90DC
:102FB0008F9008952FB7F8946091B8047091B90478
:102FC0008091BA049091BB042FBF08951F920F9275
:102FD0000FB60F9211242F933F938F939F93AF932C
:102FE000BF938091B8049091B904A091BA04B091B4
:102FF000BB043091B70423E0230F2D3720F4019652
:10300000A11DB11D05C026E8230F0296A11DB11D0B
:103010002093B7048093B8049093B904A093BA04A2
:10302000B093BB048091BC049091BD04A091BE04F8
:10303000B091BF040196A11DB11D8093BC04909373
:10304000BD04A093BE04B093BF04BF91AF919F9104
:103050008F913F912F910F900FBE0F901F90189559
:103060001F920F920FB60F9211242F933F934F93FD
:103070005F936F937F938F939F93AF93BF93EF93E0
:10308000FF938091B900887F803609F49CC068F571
:10309000883209F45BC090F4803109F454C038F4EC
:1030A000882309F4F6C0883009F44DC0F6C0883191
:1030B00009F44CC0803209F45DC0EFC0803409F4DB
:1030C00068C048F4803309F455C0883309F0E5C07E
:1030D00080938C03D8C0803509F44FC0883509F43B
:1030E0005DC0883409F0D9C0D6C0883909F4C7C09A
:1030F000A8F4883709F467C038F4883609F463C047
:10310000803709F460C0C9C0883809F4B8C0803974
:1031100009F45FC0803809F0C0C05BC0803B09F48F
:1031200086C038F4803A09F466C0883A09F47FC052
:10313000B4C0803C09F4A7C0883C09F4A4C0883B13
:1031400009F48AC0AAC08091AF0310C09091AE0369
:103150008091AD03981770F5E091AE0381E08E0F7A
:103160008093AE03F0E0E357FC4F80818093BB0077
:1031700085EC86C080938C038EC0E091AE0381E025
:103180008E0F8093AE038091BB00F0E0E357FC4FBD
:1031900080839091AE038091AD036EC0E091AE0349
:1031A00081E08E0F8093AE038091BB00F0E0E35787
:1031B000FC4F808380911E0581116DC081E080935A
:1031C0001D0584EA61C083E080931F051092B60458
:1031D000CFCF8091B604803208F051C0E091B604A0
:1031E00081E08E0F8093B6048091BB00F0E0EA5638
:1031F000FB4F8083BDCF85EC8093BC0010921F05F0
:103200008091B604803230F4E091B604F0E0EA56E2
:10321000FB4F10826091B60470E0E0919404F0914D
:10322000950486E994E009951092B60436C084E0CE
:1032300080931F051092930410929204E0919004E1
:10324000F0919104099580919204811105C081E06B
:103250008093920410927004E091930481E08E0FA9
:1032600080939304F0E0E059FB4F80818093BB0092
:103270009091930480919204981708F479CF85E88F
:103280008093BC000AC085EC8093BC0010921F059F
:1032900004C010928C030E94DF14FF91EF91BF9144
:1032A000AF919F918F917F916F915F914F913F91DE
:1032B0002F910F900FBE0F901F9018951F920F9295
:1032C0000FB60F9211242F933F934F935F936F93F9
:1032D0007F938F939F93AF93BF93EF93FF93E0916F
:1032E0004903F0914A03309709F453C0968DA6859F
:1032F000B785858591FF04C09C91892329F449C035
:103300009C91892309F045C0A389B4899C91858942
:10331000809589238C93868997890197F1F7608D31
:10332000718DA685B785558538E020E0CB010197E2
:10333000F1F7822F90E095958795282F4C914523A2
:1033400009F02068315091F7868D81FD209580919C
:10335000470390E0019660EC70E00E944932909142
:103360004803981749F0A0914703B0E0A055BC4F1F
:103370002C938093470303C0868D8160868F828D56
:10338000938D0197F1F7A389B4899C918589892B45
:103390008C93FF91EF91BF91AF919F918F917F910E
:1033A0006F915F914F913F912F910F900FBE0F90B2
:1033B0001F901895CF92DF92EF92FF920F931F9379
:1033C000CF93DF93EB017B0121E1E20EF11C8B0136
:1033D0006C01C61AD70AC601800F911F0E94C23520
:1033E000F80181938F01EE15FF05A9F7CE01DF915A
:1033F000CF911F910F91FF90EF90DF90CF900895A4
:10340000AF92BF92CF92DF92EF92FF920F931F93F2
:10341000CF93DF9300D0CDB7DEB78B016B0121E1F5
:10342000C20ED11C7B015C01A61AB70A95012E0DB4
:103430003F1DF70161917F013A832983CE010196F7
:103440000E945D2FEC14FD0489F7C8010F900F90C6
:10345000DF91CF911F910F91FF90EF90DF90CF9070
:10346000BF90AF900895CF93DF9300D0CDB7DEB774
:103470009A838983CE0101960E945D2F0F900F9051
:10348000DF91CF9108950C94C235EF92FF920F9384
:103490001F93CF93DF9300D000D000D0CDB7DEB71D
:1034A0008C017B0180912405813009F057C067E7CA
:1034B00075E085E296E00E945216B70185E296E03B
:1034C0000E94441665E775E085E296E00E949F162B
:1034D00064EF71E080E090E00E94A017B80185E2FF
:1034E00096E00E94441664EF71E080E090E00E9454
:1034F000A017E0912506F09126060190F081E02DBD
:103500006AE185E296E0099564EF71E080E090E081
:103510000E94A0176EE675E082E595E00E945216C3
:10352000B701CE0101960E94AF2561E076E0CE01A1
:1035300001960E947324B8010E947324BC0182E5A5
:1035400095E00E948B16CE0101960E94ED2468E85A
:1035500073E180E090E00E94A01723C068EE73E062
:1035600080E090E00E94A01761E875E082E595E0B8
:103570000E949F16B701CE0101960E94AF2561E01F
:1035800076E0CE0101960E947324B8010E94732454
:10359000BC0182E595E00E948B16CE0101960E9447
:1035A000ED2426960FB6F894DEBF0FBECDBFDF9197
:1035B000CF911F910F91FF90EF90089565EC72E00D
:1035C00082E595E00C947616DF92EF92FF920F93CE
:1035D0001F93CF93DF93CDB7DEB762970FB6F89402
:1035E000DEBF0FBECDBF68E275E082E595E00E94C8
:1035F0009F1683EDE82E81E0F82E00E010E0F70141
:10360000838994890E94E22CF701838994898796A3
:103610000E94431AD82E0F5F1F4F4AE0B801CE0117
:1036200001960E941E25BE016F5F7F4FCE01079657
:103630000E94AF2561E076E0CE0107960E947324D8
:103640006CE275E00E945A2461E076E00E947324E7
:103650006D2D0E942924BC01CE010D960E94AF253C
:10366000BE01635F7F4F82E595E00E948B16CE011D
:103670000D960E94ED24CE0107960E94ED24CE0106
:1036800001960E94ED24F5E1EF0EF11C08301105C2
:1036900009F0B5CF0E94DE1A62960FB6F894DEBF2D
:1036A0000FBECDBFDF91CF911F910F91FF90EF9093
:1036B000DF900895AF92BF92CF92DF92EF92FF9288
:1036C0000F931F93CF93DF93CDB7DEB7AA970FB6B3
:1036D000F894DEBF0FBECDBF8C0161EC72E0CE016D
:1036E00001960E94B825BE016F5F7F4FC8010E94FE
:1036F000A5234AE0BC01CE0107960E941E25CE01FB
:1037000007960E949F22AB014F5F5F4FB801CE0129
:103710004F960E947D2FCE0107960E94ED24CE0188
:1037200001960E94ED246BE675E0CE0101960E94A1
:103730007725BE016F5F7F4FCE014F960E94AF236A
:10374000092FCE0101960E94ED240095001F00274D
:10375000001F67EC72E0CE0107960E94B82568E66C
:1037600075E0CE0101960E947725AE01495F5F4F5B
:10377000BE016F5F7F4FCE014F960E94AA22CE01FD
:1037800001960E94ED24CE0107960E94ED2467EC7D
:1037900072E0CE0107960E94B82566E675E0CE017C
:1037A00001960E947725AE01495F5F4FBE016F5FB2
:1037B0007F4FCE014F960E94AA22CE0101960E9411
:1037C000ED24CE0107960E94ED2467EC72E0CE0155
:1037D00007960E94B82564E675E0CE0101960E9426
:1037E0007725AE01495F5F4FBE016F5F7F4FCE010E
:1037F0004F960E94AA22CE0101960E94ED24CE018E
:1038000007960E94ED2465E073E0CE0101960E94C8
:10381000B825BE016F5F7F4FCE014F960E94AF2348
:103820004AE0BC01CE0107960E941E25CE010796F4
:103830000E949F229B0140E050E0BE01615E7F4FED
:10384000CE0149960E94CD25CE0107960E94ED2417
:10385000CE0101960E94ED2465E073E0CE01019651
:103860000E94B825BE016F5F7F4FCE014F960E9428
:10387000A5234AE0BC01CE0107960E941E25CE0179
:1038800007960E949F22AB014F5F5F4FBE01615EB2
:103890007F4FCE0143960E947D2FCE0107960E9456
:1038A000ED24CE0101960E94ED24CE0149960E949E
:1038B0009F22162FBE016D5E7F4FCE0185960E941E
:1038C000AF254AE0602FCE0101960E944A254AE0CA
:1038D000612FCE010D960E944A25BE01635F7F4F86
:1038E000CE0107960E94AF2561E076E0CE010796F3
:1038F0000E947324BE016B5D7F4F0E94732461E0C0
:1039000076E00E947324BE016F5F7F4F0E94732494
:10391000BC0182E595E00E948B16CE0107960E94BD
:10392000ED24CE010D960E94ED24CE0101960E9459
:10393000ED241150183058F060E575E082E595E00F
:103940000E949F160E94DE1A0E94ED2845C046E2A2
:1039500050E067EF74E0CE0185960E94E62DC12EFF
:10396000D12C25E1129FF0011124ED52FE4F8389E5
:10397000948927EFE22E24E0F22EFC01E75FF44069
:103980005F01C5018E0D9F1DF70161917F019A8333
:103990008983CE0101960E945D2FFDE1EF16F5E0CF
:1039A000FF0679F785E18C9DF0018D9DF00D1124C6
:1039B000ED52FE4F83899489602F87960E94331AB7
:1039C00069E375E082E595E00E949F160E94DE1A89
:1039D0000E94E41A0E94C928CE0185960E94ED2417
:1039E000CE0143960E94ED24CE0149960E94ED241B
:1039F000CE014F960E94ED24AA960FB6F894DEBF32
:103A00000FBECDBFDF91CF911F910F91FF90EF902F
:103A1000DF90CF90BF90AF9008957F928F929F924A
:103A2000AF92BF92CF92DF92EF92FF920F931F93CC
:103A3000CF93DF93C12CD12C7601C394C0E0BB247B
:103A4000B39462E0A62E99249A9475EE872EE5EC45
:103A50007E2EDC2DB0926B03C092F60410922105ED
:103A60001092200580911F058111FCCFA0921F05A7
:103A7000B0921E0590928C031092AE031092AD038B
:103A80001092AF039091AF0386019601220F331F6E
:103A9000292B2093AF0390911D05913069F410926A
:103AA0001D059091AF039093BB009091BC0093FDD6
:103AB000F8CF7092BC0002C08092BC0090911F05AC
:103AC0009230E1F390918C039F3F69F080918C03D9
:103AD000803231F080918C03803321F084E003C088
:103AE00082E001C083E0109221051092200510921F
:103AF0006B03811134C067E175E082E595E00E94B7
:103B0000521680E1C816D104E104F10430F465E1F5
:103B100075E082E595E00E94521640E1C701B601CA
:103B20000E94A32DD052D830B0F461E076E082E557
:103B300095E00E94441663E075E082E595E00E94FE
:103B40009F161093F5040093F4048091F3048F5FA3
:103B50008093F30402C00E94DE1ACF5F1FC084303E
:103B6000E9F467EF74E082E595E00E945216E0E127
:103B7000CE16D104E104F10430F465EF74E082E57F
:103B800095E00E94521640E1C701B6010E94A32DA4
:103B900065EC72E082E595E00E947616FFEFCF1AA1
:103BA000DF0AEF0AFF0A8FE7C816D104E104F10427
:103BB00009F04FCFC11106C06FED74E082E595E0CA
:103BC0000E949F168091F3048823E9F00E94E41A72
:103BD00003ED11E0C3EED4E0FC2EE8E0FE0EF801A8
:103BE0008389948987960E94431A89930B5E1F4F9D
:103BF000FC12F5CF0E94DE1AEBEEF4E088E08E0FA7
:103C000011928E13FDCFDF91CF911F910F91FF90F5
:103C1000EF90DF90CF90BF90AF909F908F907F906C
:103C200008958091E204813031F463ED74E085E21F
:103C300096E00E949F168091E204823031F469EC94
:103C400074E085E296E00E949F1660ED77E080E0E8
:103C500090E00E94A01767EB74E082E595E00E9477
:103C60009F160C94C928CF92DF92EF92FF920F9388
:103C70001F93CF93DF93CDB7DEB7A4970FB6F89419
:103C8000DEBF0FBECDBF8C0161EC72E0CE010196AC
:103C90000E94B825BE016F5F7F4FC8010E94A52317
:103CA0004AE0BC01CE0142960E941E25CE014296FA
:103CB0000E949F22AB014F5F5F4FB801CE01489633
:103CC0000E947D2FCE0142960E94ED24CE010196E6
:103CD0000E94ED2467EC72E0CE0142960E94B82566
:103CE00062EB74E0CE0101960E947725AE014E5E34
:103CF0005F4FBE016F5F7F4FCE0148960E94AA22A0
:103D0000CE0101960E94ED24CE0142960E94ED2440
:103D100067EC72E0CE0142960E94B82560EB74E039
:103D2000CE0101960E947725AE014E5E5F4FBE0127
:103D30006F5F7F4FCE0148960E94AA22CE01019666
:103D40000E94ED24CE0142960E94ED2467EC72E0C1
:103D5000CE0142960E94B8256EEA74E0CE0101962B
:103D60000E947725AE014E5E5F4FBE016F5F7F4FB1
:103D7000CE0148960E94AA22CE0101960E94ED240F
:103D8000CE0142960E94ED2465E073E0CE010196DB
:103D90000E94B825BE016F5F7F4FCE0148960E94FA
:103DA000A5234AE0BC01CE014E960E941E25CE01FD
:103DB0004E960E949F22AB014F5F5F4FBE01685E2F
:103DC0007F4FCE0142960E947D2FCE014E960E94DB
:103DD000ED24CE0101960E94ED24BE016E5E7F4F60
:103DE000CE014E960E94AF2509E211E021E08DE060
:103DF000F82E6E0185E0C80ED11C61ED74E0F8016B
:103E0000808191812CA30E94DA19BC01CE01019618
:103E10000E94B825BE01625E7F4FCE0101960E94CE
:103E2000C923E82ECE0101960E94ED242CA1EE209C
:103E300099F119821A821B821C82F6018F2D119230
:103E40008A95E9F7BE016F5F7F4FF801808191810C
:103E50000E94001AF8018081918160E042960E94E0
:103E6000331AF8018081918160E043960E94331AF1
:103E70006EE974E082E595E00E945216BE01625E32
:103E80007F4F82E595E00E948B160E94DE1A0E9409
:103E9000202C0E94C92820E00B5E1F4FF1E0063E57
:103EA0001F0709F0AACF213089F466E874E082E5A3
:103EB00095E00E945216BE01625E7F4F82E595E05A
:103EC0000E948B160E94DE1A0E94ED28CE014E96AB
:103ED0000E94ED24CE0142960E94ED24CE01489628
:103EE0000E94ED24A4960FB6F894DEBF0FBECDBF9E
:103EF000DF91CF911F910F91FF90EF90DF90CF90C6
:103F000008959F92AF92BF92CF92DF92EF92FF926D
:103F10000F931F93CF93DF93CDB7DEB7E0970FB624
:103F2000F894DEBF0FBECDBF8C0161EC72E0CE0114
:103F300001960E94B825BE016F5F7F4FC8010E94A5
:103F4000A5234AE0BC01CE0107960E941E25CE01A2
:103F500007960E949F22AB014F5F5F4FB801CE01D1
:103F600085960E947D2FCE0107960E94ED24CE01FA
:103F700001960E94ED2464E874E0CE0101960E944F
:103F80007725BE016F5F7F4FCE0185960E94AF23DC
:103F9000E92ECE0101960E94ED24E094EE1CEE2461
:103FA000EE1C62E874E0CE0101960E947725BE0106
:103FB0006F5F7F4FCE0185960E94AF23F92ECE0111
:103FC00001960E94ED24F094FF1CFF24FF1C67EC77
:103FD00072E0CE0107960E94B82560E874E0CE0139
:103FE00001960E947725AE01495F5F4FBE016F5F6A
:103FF0007F4FCE0185960E94AA22CE0101960E9493
:10400000ED24CE0107960E94ED2467EC72E0CE010C
:1040100007960E94B8256EE774E0CE0101960E94D3
:104020007725AE01495F5F4FBE016F5F7F4FCE01C5
:1040300085960E94AA22CE0101960E94ED24CE010F
:1040400007960E94ED2467EC72E0CE0107960E946D
:10405000B82569E774E0CE0101960E947725AE018C
:10406000495F5F4FBE016F5F7F4FCE0185960E9413
:10407000AA22CE0101960E94ED24CE0107960E944D
:10408000ED2467EC72E0CE0107960E94B82567E741
:1040900074E0CE0101960E947725AE01495F5F4F23
:1040A000BE016F5F7F4FCE0185960E94AA22CE018E
:1040B00001960E94ED24CE0107960E94ED2467EC44
:1040C00072E0CE0107960E94B82565E774E0CE0144
:1040D00001960E947725AE01495F5F4FBE016F5F79
:1040E0007F4FCE0185960E94AA22CE0101960E94A2
:1040F000ED24CE0107960E94ED2465E073E0CE0129
:1041000001960E94B825BE016F5F7F4FCE01859654
:104110000E94AF234AE0BC01CE0107960E941E25F3
:10412000CE0107960E949F229B0140E050E0BE0115
:104130006B5D7F4FCE014F960E94CD25CE01079635
:104140000E94ED24CE0101960E94ED2465E073E00B
:10415000CE0101960E94B825BE016F5F7F4FCE0150
:1041600085960E94A5234AE0BC01CE0107960E94D5
:104170001E25CE0107960E949F22AB014F5F5F4F25
:10418000BE016B5D7F4FCE0149960E947D2FCE010F
:1041900007960E94ED24CE0101960E94ED24CE01E7
:1041A0004F960E949F22062FBE01675E7F4FCE0171
:1041B0008B960E94AF254AE06F2DCE0101960E949A
:1041C0004A254AE06E2DCE0107960E944A254AE014
:1041D000602FCE0143960E944A25BE016D5E7F4F3F
:1041E000CE010D960E94AF2561E076E0CE010D96DE
:1041F0000E947324BE01655D7F4F0E94732461E0BD
:1042000076E00E947324BE01695F7F4F0E94732491
:1042100061E076E00E947324BE016F5F7F4F0E94D1
:104220007324BC0182E595E00E948B16CE010D96A9
:104230000E94ED24CE0143960E94ED24CE01079604
:104240000E94ED24CE0101960E94ED2461ED74E000
:1042500080911401909115010E94DA19BC01CE01E0
:1042600001960E94B825CE0101960E94A92C182F14
:10427000CE0101960E94ED24112361F06EE474E0FA
:1042800082E595E00E949F160E94DE1A0E94ED28AA
:1042900010E001C011E08EEF800F8A3058F065E128
:1042A00074E082E595E00E949F160E94DE1A0E944B
:1042B000ED2810E081E0A82E81E0B82EC12CD12C91
:1042C00061ED74E0F501838994890E94DA19BC01DB
:1042D000CE0101960E94B825BE01655D7F4FCE01DB
:1042E00001960E94C923982ECE0101960E94ED24CA
:1042F000C60101966C019920E1F066EE73E082E55B
:1043000095E00E9452164AE0B601CE0101960E9445
:104310001E25BE016F5F7F4F82E595E00E948B16E0
:10432000CE0101960E94ED240E94DE1A0E94ED2823
:1043300010E095E1A90EB11CEAE0CE16D10409F017
:10434000BFCF113081F541E150E060EC74E0CE0167
:104350008B960E94E62D0150F5E10F9F80011124FC
:104360000F5F1E4F60EC74E0F801838994890E940E
:10437000001AF801838994896E2D42960E94331A9F
:10438000F801838994896F2D43960E94331A69ED51
:1043900073E082E595E00E949F160E94DE1A0E945B
:1043A000202C0E94C928CE018B960E94ED24CE01BC
:1043B00049960E94ED24CE014F960E94ED24CE0135
:1043C00085960E94ED24E0960FB6F894DEBF0FBEEE
:1043D000CDBFDF91CF911F910F91FF90EF90DF90B4
:1043E000CF90BF90AF909F9008950E946E34AF928F
:1043F000BF92CF92DF92EF92FF920F931F93CF93D2
:10440000DF937B018A01FB014481558141155105F0
:1044100061F1FC01248135812115310531F1241729
:10442000350718F10217130718F089010150110917
:10443000FC01A080B180C501DFEFCFEF6501C00EA8
:10444000D11EC816D906A0F0F701608171810E94C3
:10445000B534009769F09C012A193B09021713072C
:1044600010F0D22FC32F0196ECCF8FEF9FEF02C039
:104470008D2F9C2FDF91CF911F910F91FF90EF9087
:10448000DF90CF90BF90AF9008950F931F93CF937D
:10449000DF93EC0188819981009729F02A813B8183
:1044A0002617370788F48B016F5F7F4F0E94A43374
:1044B000009761F0998388831B830A832C813D8157
:1044C000232B11F4FC01108281E001C080E0DF9118
:1044D000CF911F910F910895CF93DF93EC018881C5
:1044E0009981009711F00E940C33198218821D8265
:1044F0001C821B821A82DF91CF910895EF92FF9266
:104500000F931F93CF93DF93EC017B018A01BA01D4
:104510000E944522811104C0CE010E946C2207C076
:104520001D830C83B701888199810E949F34CE013D
:10453000DF91CF911F910F91FF90EF900895FC01B3
:1045400080819181009711F00C942B3560E070E030
:10455000CB0108952F923F924F925F926F927F927C
:104560008F929F92AF92BF92CF92DF92EF92FF9283
:104570000F931F93CF93DF93FC0144805580411428
:10458000510409F4CFC0FB0164807580611471048B
:1045900009F4C8C07A016B01EC01FA01A480B5806E
:1045A000A618B70808811981A114B104C1F4F60155
:1045B00060817181C8010E94B534EC01892B09F436
:1045C000B1C0F7016081718144815581CE010E94A3
:1045D0007B34F701048115810C0F1D1FE8CFB7FE56
:1045E00002C0480106C0FB01208031804201C801A1
:1045F00042C0F60160817181C4010E94B5342C0172
:10460000892B19F1320168187908A301B401C80196
:104610000E947B34060D171DF70160817181448172
:104620005581C8010E947B34F70184819581080F70
:10463000191FF60184809580840C951C8C819D81C6
:104640008A0D9B1D9D838C83D4CFB401C801DF915B
:10465000CF911F910F91FF90EF90DF90CF90BF907F
:10466000AF909F908F907F906F905F904F903F9012
:104670002F900C949F34B1010E94B534009729F01B
:10468000860D971D8A0C9B1CF6CF8414950409F4A3
:1046900049C08A819B818815990560F4B4016F5FD8
:1046A0007F4FC8010E94A4330097E1F1998388836A
:1046B0009B828A824C815D814150510957FD32C0F5
:1046C000B601CE010E94F7218C0197FD2BC0888195
:1046D0009981F60124813581200F311F820F931FAC
:1046E0004C815D81421B530BBC018A0D9B1D0E94B6
:1046F00084348C819D818A0D9B1D9D838C832881B0
:104700003981F901E80FF91F108288819981F70139
:104710006081718144815581800F911F0E947B349B
:10472000A801CACFDF91CF911F910F91FF90EF9019
:10473000DF90CF90BF90AF909F908F907F906F90C1
:104740005F904F903F902F900895FC0144815581D8
:10475000FB0124813581421B530B0C94F721CF932D
:10476000DF93FC0124813581232B71F0FB01DC01F7
:10477000CD91DC9160817181CE010E94B5340097AA
:1047800019F08C1B9D0B02C08FEF9FEFDF91CF9133
:104790000895FC0124813581FB0144815581241752
:1047A000350721F5FC0180819181FB0160817181D8
:1047B000009719F061157105A1F46115710549F0B3
:1047C000232BB1F0FB01808190E0919581959109B7
:1047D0000AC0009769F0232B59F0FC01808190E01A
:1047E00002C00E94963421E0892B19F020E001C01C
:1047F00021E0822F0895EF92FF920F931F93CF93A2
:10480000DF93FC01248135816115710511F480E08D
:1048100019C041155105A9F07B01EC018A01020F75
:10482000131FB8010E944522882389F3288139810A
:104830008C819D81B701820F931F0E949F341D833D
:104840000C8381E0DF91CF911F910F91FF90EF904A
:104850000895EF92FF920F931F93CF93DF9300D0B1
:1048600000D0CDB7DEB77C01862F4AE08E010F5F06
:104870001F4FB80190E00E946D35F80101900020B3
:10488000E9F73197AF01401B510BB801C7010E94F6
:10489000FB23811103C0C7010E946C22C7010F9046
:1048A0000F900F900F90DF91CF911F910F91FF907C
:1048B000EF900895CF93DF93EC016115710561F0DE
:1048C000FB0101900020E9F73197AF01461B570B20
:1048D0000E94FB23811103C0CE010E946C22CE01F5
:1048E000DF91CF910895CF93DF93EC01FB014481D9
:1048F0005581608171810E94FB23811103C0CE012B
:104900000E946C22CE01DF91CF910895CF93DF9367
:10491000EC016115710559F0FB0101900020E9F7E8
:104920003197AF01461B570B0E947E2202C00E94A6
:104930006C22CE01DF91CF910895CF93DF93EC01EC
:10494000FB018617970761F0608171816115710520
:1049500029F0448155810E947E2202C00E946C226F
:10496000CE01DF91CF9108950F931F93CF93DF93E3
:104970008C01EB01FC01808191810097B1F068818D
:1049800079816115710579F0428153812C813D81D6
:104990004217530740F00E949F348C819D81F8019B
:1049A0009583848313C00E940C3388819981F80118
:1049B000918380838A819B81938382838C819D8173
:1049C00095838483198218821B821A821D821C821D
:1049D000DF91CF911F910F910895FC01808191810A
:1049E0000C940C330F931F93CF93DF93CDB7DEB7A7
:1049F00061970FB6F894DEBF0FBECDBF8C01CB011F
:104A0000F80111821082138212821582148250E002
:104A1000BE016F5F7F4F0E948D35BE016F5F7F4F7C
:104A2000C8010E94862461960FB6F894DEBF0FBEBF
:104A3000CDBFDF91CF911F910F9108950F931F93D9
:104A4000CF93DF93CDB7DEB762970FB6F894DEBF92
:104A50000FBECDBF8C01CB01F801118210821382F1
:104A600012821582148250E0BE016F5F7F4F0E9458
:104A70006235BE016F5F7F4FC8010E948624629637
:104A80000FB6F894DEBF0FBECDBFDF91CF911F915F
:104A90000F9108950F931F93CF93DF93CDB7DEB798
:104AA00029970FB6F894DEBF0FBECDBF8C01862FBD
:104AB000F80111821082138212821582148250E052
:104AC000BE016F5F7F4F90E00E948D35BE016F5F2A
:104AD0007F4FC8010E94862429960FB6F894DEBF46
:104AE0000FBECDBFDF91CF911F910F910895EF922F
:104AF000FF920F931F93CF93DF93EC0119821882DB
:104B00001B821A821D821C826115710509F18B01BD
:104B1000CB010E9459357C01BC01CE010E94452287
:104B2000811109C0CE01DF91CF911F910F91FF90AC
:104B3000EF900C946C22FD82EC82B80188819981FF
:104B4000DF91CF911F910F91FF90EF900C94523510
:104B5000DF91CF911F910F91FF90EF900895FC018D
:104B60001182108213821282158214820C949D2469
:104B7000FC01118210821382128215821482611547
:104B8000710551F0FB0101900020E9F73197AF0169
:104B9000461B570B0C947E220895BF92CF92DF9252
:104BA000EF92FF920F931F93CF93DF937C016B01E2
:104BB0008A01E9012417350720F4812F8901C42FC8
:104BC000D82F67EC72E0C7010E94B825D601149671
:104BD0008D919C91159708171907D0F48C179D0794
:104BE00008F4EC01D601ED91FC911197EC0FFD1F3B
:104BF000B08010824D915C91BA01600F711FC701A6
:104C00000E948624D601ED91FC91EC0FFD1FB0822D
:104C1000C701DF91CF911F910F91FF90EF90DF902F
:104C2000CF90BF900895EF92FF920F931F93CF9371
:104C3000DF93CDB7DEB768970FB6F894DEBF0FBE2F
:104C4000CDBF11E01093810261E08EE090E00E9400
:104C5000331A1093800262EE72E0CE0101960E9438
:104C6000B8256DE076E0CE0101960E947324BC0168
:104C700087E096E00E949D24CE0101960E94ED24DB
:104C800067E076E082E595E00E948B1668EE73E0BF
:104C900080E090E00E94A01701E011E0F801E388B5
:104CA000F488C70143960E94431A813009F060C01E
:104CB00061ED74E0C7010E94DA19BC01CE010196D2
:104CC0000E94B825BE016F5F7F4F8DE096E00E9485
:104CD000C923F82ECE0101960E94ED24F110109206
:104CE0002B0568EE73E080E090E00E94A01761ED74
:104CF00074E0F801838994890E94DA19BC01CE011D
:104D00000D960E94B82565E073E0CE0107960E94DB
:104D1000B825BE01635F7F4FCE0107960E947324C2
:104D2000BC01CE0143960E94AF2567E076E0CE013C
:104D300001960E94AF25BE016D5E7F4FCE010196A8
:104D40000E94451ACE0101960E94ED24CE014396A1
:104D50000E94ED24CE0107960E94ED24CE010D960F
:104D60000E94ED2468EE73E080E090E00E94A017BE
:104D70000B5E1F4FF1E0033D1F0709F08FCF8091BD
:104D80002B058130B1F568EE73E080E090E00E9481
:104D9000A01765E073E0CE0107960E94B8256DE08C
:104DA00076E0CE0107960E947324BC01CE010D96D9
:104DB0000E94AF256AE677E0CE0101960E94772532
:104DC000BE01635F7F4FCE0101960E94451ACE015E
:104DD00001960E94ED24CE010D960E94ED24CE0195
:104DE00007960E94ED2468EE73E080E090E00E9458
:104DF000A01768960FB6F894DEBF0FBECDBFDF9147
:104E0000CF911F910F91FF90EF900895EF92FF9235
:104E10000F931F93CF93DF93CDB7DEB768970FB68D
:104E2000F894DEBF0FBECDBF1092810260E08EE02D
:104E300090E00E94331A64EF72E0CE0101960E9466
:104E4000B8256DE076E0CE0101960E947324BC0186
:104E500087E096E00E949D24CE0101960E94ED24F9
:104E600067E076E082E595E00E948B1668EE73E0DD
:104E700080E090E00E94A01701E011E0F801E388D3
:104E8000F488C70143960E94431A813009F060C03C
:104E900061ED74E0C7010E94DA19BC01CE010196F0
:104EA0000E94B825BE016F5F7F4F8DE096E00E94A3
:104EB000C923F82ECE0101960E94ED24F110109224
:104EC0002B0568EE73E080E090E00E94A01761ED92
:104ED00074E0F801838994890E94DA19BC01CE013B
:104EE0000D960E94B82565E073E0CE0107960E94FA
:104EF000B825BE01635F7F4FCE0107960E947324E1
:104F0000BC01CE0143960E94AF2567E076E0CE015A
:104F100001960E94AF25BE016D5E7F4FCE010196C6
:104F20000E94451ACE0101960E94ED24CE014396BF
:104F30000E94ED24CE0107960E94ED24CE010D962D
:104F40000E94ED2468EE73E080E090E00E94A017DC
:104F50000B5E1F4FF1E0033D1F0709F08FCF8091DB
:104F60002B058130B1F568EE73E080E090E00E949F
:104F7000A01765E073E0CE0107960E94B8256DE0AA
:104F800076E0CE0107960E947324BC01CE010D96F7
:104F90000E94AF2560E677E0CE0101960E9477255A
:104FA000BE01635F7F4FCE0101960E94451ACE017C
:104FB00001960E94ED24CE010D960E94ED24CE01B3
:104FC00007960E94ED2468EE73E080E090E00E9476
:104FD000A01768960FB6F894DEBF0FBECDBFDF9165
:104FE000CF911F910F91FF90EF900895CF92DF9294
:104FF000EF92FF920F931F93CF93DF93CDB7DEB75E
:1050000068970FB6F894DEBF0FBECDBF2091810226
:10501000213009F0AFC07C0161E084E00E943417C8
:1050200060E085E00E9434170E94DA17609327053C
:10503000709328058093290590932A05B70182E58E
:1050400095E00E948B1601E011E0F801C388D48836
:10505000C60143960E94431A8130F1F561ED74E078
:10506000C6010E94DA19BC01CE010D960E94B82536
:1050700065E073E0CE0107960E94B825BE01635F2C
:105080007F4FCE0107960E947324BC01CE01439648
:105090000E94AF25B701CE0101960E94AF25BE0147
:1050A0006D5E7F4FCE0101960E94451ACE0101969A
:1050B0000E94ED24CE0143960E94ED24CE01079676
:1050C0000E94ED24CE010D960E94ED2468EE73E05F
:1050D00080E090E00E94A0170B5E1F4FF1E0033DBF
:1050E0001F0709F0B2CF80917F02813009F042C0E2
:1050F00061ED74E080911401909115010E94DA191C
:10510000BC01CE0101960E94B825CE0101960E94F5
:10511000A92C182FCE0101960E94ED2411112AC04E
:105120006BE577E085E296E00E94521661ED74E04F
:1051300080911401909115010E94DA19BC01CE01F1
:1051400001960E94B825BE016F5F7F4F85E296E011
:105150000E944416CE0101960E94ED2469E577E095
:1051600085E296E00E949F1668EE73E080E090E092
:105170000E94A01768960FB6F894DEBF0FBECDBF91
:10518000DF91CF911F910F91FF90EF90DF90CF9023
:10519000089561E08BE00E94341760E08DE00E948A
:1051A000341764E670E080E090E00E94A01760E0B1
:1051B0008BE00E94341761E08DE00E94341764E6B2
:1051C00070E080E090E00E94A01761E08BE00E9418
:1051D000341760E08DE00C9434170E94C9280C94B9
:1051E000C928DF92EF92FF920F931F93CF93DF9323
:1051F00000D000D000D0CDB7DEB77C0101E011E0D7
:1052000061ED74E0F801838994890E94DA19BC0188
:10521000CE0101960E94B825B701CE0101960E94E9
:10522000C923D82ECE0101960E94ED24D11008C0CA
:105230000B5E1F4FF1E0033D1F0711F780E01FC019
:1052400061ED74E0F801838994890E94DA19BC0148
:10525000CE0101960E94B825BE016F5F7F4F8DE0A1
:1052600096E00E94B424CE0101960E94ED24F8013C
:105270008389948942960E94431A8130C9F6269602
:105280000FB6F894DEBF0FBECDBFDF91CF911F9157
:105290000F91FF90EF90DF90089560ED77E080E050
:1052A00090E00E94A0170E94BA2C10924006109223
:1052B0003F0610923E0610923D0610923C06109258
:1052C0003B068DE991E090934206809341069091D0
:1052D0003106963108F057C02DEB30E030933C0694
:1052E00020933B062BE931E030933E0620933D06A8
:1052F0002CE231E03093400620933F062091680075
:10530000983050F031E09E3008F430E081E001C088
:10531000880F3A95EAF701C084E0822B80936800F9
:10532000983038F09E3040F0963148F020E030E080
:1053300008C02DE630E005C02BE630E002C02CE6C8
:1053400030E03093390620933806983030F481E00D
:1053500001C0880F9A95EAF70EC0292F30E09E30E1
:1053600018F42850310902C02E50310981E001C0E3
:10537000880F2A95EAF780933A068091410690912A
:1053800042060197F1F780913F0690914006892BE4
:1053900049F1E0914903F0914A0386E0E532F807CC
:1053A00009F1309739F0A389B4899C91858980955A
:1053B00089238C93809143068E7F809343061092BD
:1053C00047031092480385E296E090934A03809346
:1053D0004903E0913806F0913906908180913A06B0
:1053E000892B808366E577E085E296E00E949F1630
:1053F00064E670E080E090E00E94A01762E577E04C
:1054000085E296E00E949F1664E670E080E090E0FE
:105410000E94A01787E093E00E94FC2C882319F0DB
:1054200081E08093E2046EE477E085E296E00E94FA
:105430009F1664E670E080E090E00E94A0178CE088
:1054400093E00E94FC2C882319F082E08093E20410
:1054500064E670E080E090E00E94A01764E477E0EA
:1054600085E296E00E949F1664E670E080E090E09E
:105470000E94A0176AE377E085E296E00E949F16FB
:1054800064E670E080E090E00E94A0176CE277E0B4
:1054900085E296E00E949F1664E670E080E090E06E
:1054A0000E94A01760E277E085E296E00E949F16D6
:1054B00064E670E080E090E00E94A0178091E20432
:1054C000813031F46BE177E085E296E00E949F162F
:1054D00064E670E080E090E00C94A0170F931F93B7
:1054E000CF93DF9300D000D000D0CDB7DEB780E0FF
:1054F00090E00E94431A813009F459C06FEF76E0C2
:1055000082E595E00E949F1600E010E06FEFC80171
:105510000E94331A6AE070E080E090E00E94A017D9
:105520000F5F1F4F0431110589F76CED76E082E5BE
:1055300095E00E949F160E94DE1A61E08AE090E0EA
:105540000E94331A61E08BE090E00E94331A60E021
:105550008CE090E00E94331A61E08DE090E00E94C0
:10556000331A61E08EE090E00E94331A6FE08FE022
:1055700090E00E94331A8CE390E00E94922E60E04B
:1055800082E190E00E94331A61E080E090E00E94A6
:10559000331A61E08DE00E94341760ED77E080E01F
:1055A00090E00E94A01760E08DE00E94341780E038
:1055B00090E00E94431A813009F037C16BEB76E02E
:1055C00082E595E00E949F168AE090E00E94431ACF
:1055D0008093240561EB76E082E595E00E94521607
:1055E00060912405062E000C770B4AE0CE0101964F
:1055F0000E941E25BE016F5F7F4F82E595E00E94ED
:105600008B16CE0101960E94ED248BE090E00E9463
:10561000431A80937F0265EA76E082E595E00E9476
:10562000521660917F02062E000C770B4AE0CE01E5
:1056300001960E941E25BE016F5F7F4F82E595E0B7
:105640000E948B16CE0101960E94ED248CE090E022
:105650000E94431A8093260569E976E082E595E089
:105660000E94521660912605062E000C770B4AE028
:10567000CE0101960E941E25BE016F5F7F4F82E51D
:1056800095E00E948B16CE0101960E94ED248DE0DC
:1056900090E00E94431A80937E0261E976E082E501
:1056A00095E00E94521660917E02062E000C770B48
:1056B0004AE0CE0101960E941E25BE016F5F7F4F1A
:1056C00082E595E00E948B16CE0101960E94ED24A2
:1056D0008EE090E00E94431A8093810269E876E0B0
:1056E00082E595E00E94521660918102062E000C20
:1056F000770B4AE0CE0101960E941E25BE016F5F26
:105700007F4F82E595E00E948B16CE0101960E94A4
:10571000ED248FE090E00E94431A80937D026DE7B4
:1057200076E082E595E00E9452164AE060917D02A3
:10573000CE0101960E944A25BE016F5F7F4F82E530
:1057400095E00E948B16CE0101960E94ED2480E127
:1057500090E00E94431A182F81E190E00E94431AC2
:1057600010937B0280937C026DE676E082E595E003
:105770000E94521660917B0270917C024AE0CE0139
:1057800001960E94F224BE016F5F7F4F82E595E093
:105790000E948B16CE0101960E94ED2482E190E0DA
:1057A0000E94431A8093250562E676E082E595E043
:1057B0000E94521660912505062E000C770B4AE0D8
:1057C000CE0101960E941E25BE016F5F7F4F82E5CC
:1057D00095E00E948B16CE0101960E94ED248091E7
:1057E0008102813049F467E076E0CE0101960E94A3
:1057F000AF2563E173E00AC0811115C067E076E070
:10580000CE0101960E94AF2566E173E0CE010196BC
:105810000E945A24BC0187E096E00E949D24CE019C
:1058200001960E94ED240E94DE1A26960FB6F89487
:10583000DEBF0FBECDBFDF91CF911F910F910895B5
:10584000BF92CF92DF92EF92FF920F931F93CF936D
:10585000DF93CDB7DEB762970FB6F894DEBF0FBE09
:10586000CDBF60E576E082E595E00E949F1681E07D
:10587000E82E81E0F82E00E010E061ED74E0F70121
:10588000838994890E94DA19F701C388D488C601F4
:1058900043960E94431AB82EC60142960E94431AAC
:1058A000D82E0F5F1F4F4AE0B801CE0101960E942B
:1058B0001E25BE016F5F7F4FCE0107960E94AF2568
:1058C00061E076E0CE0107960E94732461ED74E0FA
:1058D0000E945A2461E076E00E9473246D2D0E949C
:1058E000292461E076E00E9473246B2D0E94292414
:1058F000BC01CE010D960E94AF25BE01635F7F4FB4
:1059000082E595E00E948B16CE010D960E94ED2453
:10591000CE0107960E94ED24CE0101960E94ED244F
:10592000F5E1EF0EF11C0A30110509F0A6CF0E9437
:10593000DE1A62960FB6F894DEBF0FBECDBFDF91C0
:10594000CF911F910F91FF90EF90DF90CF90BF907C
:105950000895DC0114962D913C911597232B41F06D
:10596000ED91FC9181E09081992319F080E00895F8
:1059700081E00895E2E5F5E0A089B18982E08C93A9
:10598000A485B5851C92A685B7858FEC8C93108E67
:10599000A489B58986E08C93A289B3898C918061B2
:1059A0008C93A289B3898C9188608C93A289B389E6
:1059B0008C9180688C930288F389E02D80818F7DA3
:1059C000808308950F931F93CF93DF93CCE2D5E0AC
:1059D0008C010C521540C8018C0F9D1F0E94C235CE
:1059E000899385E0C235D807B1F78CE295E0DF9165
:1059F000CF911F910F9108958F929F92AF92BF9276
:105A0000CF92DF92EF92FF920F931F93CF93DF938A
:105A1000FC0101900020E9F731978F01081B190B59
:105A200019F420E030E07EC0EC01E12CF12C0E9462
:105A3000DA1760932D0670932E0680932F069093AD
:105A40003006E0912506F09126060680F781E02DCC
:105A500085E296E0099597FD0BC0FE01EE0DFF1D56
:105A60002081022E000C330B8217930709F553C0D7
:105A70000E94DA1780902D0690902E06A0902F0697
:105A8000B0903006DC01CB0188199909AA09BB093D
:105A90008090290690902A06A0902B06B0902C06A4
:105AA00088159905AA05BB0560F22FEF3FEF3AC0B4
:105AB000E114F10421F420E030E07901B8CF97013E
:105AC000A90141505109FE01E40FF51F6081062E26
:105AD000000C770B86179707D1F44115510569F330
