:100000000C945E040C9486040C9486040C94BF2318
:100010000C94BF230C94BF230C9486040C94860488
:100020000C9486040C9486040C9486040C94860428
:100030000C9486040C9486040C9486040C94860418
:100040000C9447220C9486040C9417190C94F11804
:100050000C9486040C9486040C9486040C948604F8
:100060000C9491220C9486044572726F7220646520
:100070006C6574696E672070686F6E653A202B003E
:1000800044656C6574652070686F6E653A202B005E
:10009000506175736554696D652069733A20004439
:1000A000656C61794265666F72654775617264203F
:1000B00069733A200044656C61794265666F7265C8
:1000C000416C61726D2069733A20005761746368F6
:1000D000506F77657254696D652069733A200052DC
:1000E000696E6754696D652069733A2000576174C1
:1000F00063682074686520706F776572204F46468C
:1001000000477561726420627574746F6E3A204F97
:100110004E2F4F4646206D6F6465004775617264CF
:1001200020627574746F6E3A204F4E206D6F646557
:1001300000477561726420627574746F6E204F465B
:10014000460053656E736F72206461746120736141
:100150007665642E004572726F722073656E736FE0
:1001600072206E756D626572006661696C65642EE1
:10017000007061737365642E0054657374200046CB
:1001800061696C65642063656C6C3A2000420045CF
:100190004550524F4D3A200043757272656E74207F
:1001A0004944203D20004E6F206D6F64656D2E0028
:1001B00053494D3830304C004D3539306500456D70
:1001C000756C6174653A200050726576696F75735D
:1001D000204944203D200041542B435553443D3198
:1001E0002C2200534D532072656D6F766564003488
:1001F00000302C340041542B434D47443D00636C88
:10020000656172736D73006C65646F6666006C6522
:10021000646F6E00746573746F66660074657374E2
:100220006F6E004E2E200046462E2000496E666FEF
:100230003A20504952204F00696E666F0067756121
:1002400072646F66660067756172646F6E007061DC
:10025000757365006D6F6E6579003D006D6F646547
:100260006D6964006C69737470686F6E65006932E3
:10027000637363616E006D656D74657374006C69A2
:10028000737473656E736F72006C697374636F6EF1
:1002900066696700656469746D61696E70686F6E28
:1002A00065006564697473656E736F72006775616C
:1002B0007264627574746F6E6F66660067756172E2
:1002C00064627574746F6E6F6E320067756172640C
:1002D000627574746F6E6F6E3100776174636870ED
:1002E0006F7765726F6666007761746368706F77A9
:1002F00065726F6E32007761746368706F776572D4
:100300006F6E3100504952204F4646007069726F3F
:10031000666600504952204F4E007069726F6E0041
:10032000536D73204F464600736D736F66660053BE
:100330006D73204F4E00736D736F6E0052696E6760
:10034000204F46460072696E676F66660052696E9E
:1003500067204F4E0072696E676F6E00726573653D
:100360007473656E736F72007265736574636F6E1C
:1003700066696700726573657470686F6E650066A4
:10038000756C6C726573657400616C61726D706917
:100390006E74696D650072696E6774696D6500776A
:1003A00061746368706F77657274696D6500646508
:1003B0006C61796265666F7265616C61726D006413
:1003C000656C61796265666F7265677561726400FC
:1003D000736C65657074696D650062616C616E63F4
:1003E000656E756D0064656C65746570686F6E65CB
:1003F0000061646470686F6E650053696C656E744B
:10040000206D6F646521004F46462E004F4E2E0032
:1004100047534D20416C61726D2031372E30352E9F
:10042000323600506F77657220737570706C79206A
:10043000726573746F72656400506F7765722073B4
:100440007570706C7920646973636F6E6E65637428
:10045000656420004D61696E2073656E736F722153
:10046000005049522073656E736F722100206D69D0
:100470006E757465732061676F005072696D61728B
:10048000792070686F6E653A202B0041542B4355DC
:1004900053443D3000555353442071756572793A89
:1004A00020002B435553443A00534D532066726F3E
:1004B0006D3A202B002C22002C2C002B434D543A5B
:1004C0000052696E672066726F6D3A202B002C0017
:1004D00052494E470000000000240027002A000077
:1004E00000000800020100000304070000000000F3
:1004F00000000041542B43485550004C656E677412
:100500006820746F2072657475726E3A20004E75A3
:100510006D6265723A20004C6F61642064656661AB
:10052000756C742062616C616E63652064617461D6
:100530002E0044656C6574696E672062616C616E43
:10054000636520646174612E00416C61726D496E57
:1005500074657276616C2069733A20004C6F616437
:100560002064656661756C742070686F6E652064C8
:100570006174612E0044656C6574696E67207068F3
:100580006F6E6520646174612E0052656164206144
:10059000727261792070686F6E653A0044656C61B3
:1005A000794265666F7265416C61726D3A200044F4
:1005B000656C61794265666F726547756172643A10
:1005C00020004775617264427574746F6E3A200042
:1005D0005761746368506F77657254696D653A202E
:1005E000005761746368506F7765723A2000504914
:1005F0005247756172643A2000416C61726D5069B6
:100600006E54696D653A2000536C65657054696D70
:10061000653A200047756172643A20004C65643A7F
:100620002000546573743A200052696E6754696DF6
:10063000653A2000416C61726D52696E673A200024
:1006400053656E64536D733A200052656164206592
:100650006570726F6D636F6E6669673A004C6F61AB
:10066000642064656661756C7420656570726F6D79
:10067000636F6E66696720646174612E0044656C07
:100680006574696E6720656570726F6D636F6E6605
:10069000696720646174612E004154453000415403
:1006A00045310041542B434E4D493D322C320041DF
:1006B000542B435343533D2247534D220041542B67
:1006C000434D47463D310041542B434C49503D3149
:1006D0000041360053494D383030004D3539300037
:1006E000415449004154004775617264204F4646A9
:1006F000004775617264204F46462E002042757493
:10070000746F6E002050686F6E65202B0020436F61
:100710006E736F6C65004775617264204F4E0047C1
:1007200075617264204F4E2E004932432064657615
:1007300069636573206E6F7420666F756E64003038
:10074000004572726F7220617420307800646574A5
:100750006563746564205043463835373400300093
:10076000493243206465766963652061742030787E
:10077000004C6F61642064656661756C74207365FC
:100780006E736F7220646174612E0044656C6574D1
:10079000696E672073656E736F7220646174612E79
:1007A0000053656E736F7220646174613A003B00A0
:1007B0004154442B00416C61726D2052696E673A5E
:1007C000202B00220041542B434D47533D22000073
:1007D000000000250028002B000000000023002658
:1007E00000290004040404040404040202020202B6
:1007F00002030303030303010204081020408001E5
:100800000204081020010204081020576174636874
:100810002074686520706F776572204F4E005068B5
:100820006F6E652061646465642E004572726F723C
:100830002C20746869732070686F6E6520616C721B
:10084000656164792065786973747320696E2074BA
:1008500068652063656C6C3A20004572726F722C7B
:100860002077726F6E67206E756D626572206F669D
:100870002063656C6C732E004572726F722C20665B
:100880006972737420726567697374657220612080
:100890007072696D6172792070686F6E652E00509C
:1008A000686F6E652073657474696E677320636822
:1008B000616E6765642E00009235563511241FBEA7
:1008C000CFEFD8E0DEBFCDBF13E0A0E0B1E0E8E6B7
:1008D000F5E702C005900D92A834B107D9F726E0DC
:1008E000A8E4B3E001C01D92A538B207E1F714E017
:1008F000CDE5D4E004C02197FE010E944938CC35F3
:10090000D107C9F70E94112D0C94A73A0C9400004E
:10091000AF92BF92CF92DF92EF92FF920F931F930D
:10092000CF93DF93CDB7DEB7E0970FB6F894DEBF75
:100930000FBECDBF80910504813031F460E576E0D3
:1009400089E895E00E94CD1865E073E0CE014296FB
:100950000E9427186AED72E0CE0101960E942718C6
:10096000AE014E5E5F4FBE016F5F7F4F80E596E048
:100970000E94B514CE0101960E948B17CE014296BB
:100980000E948B1765E073E0CE0142960E94271803
:1009900064E073E0CE0101960E942718AE014E5E1E
:1009A0005F4FBE016F5F7F4F80E596E00E94B514F8
:1009B000CE0101960E948B17CE0142960E948B17A2
:1009C00000915006109151060115110539F48091DE
:1009D0000904813011F00C9450100DC0F801808191
:1009E0008823A9F3082E000C990B0E944B3AF801BA
:1009F00081938F01F3CF61EF73E0CE0101960E94E6
:100A00001518BE016F5F7F4F80E596E00E94BA1512
:100A10008C01CE0101960E948B1717FD0FC060E577
:100A200076E0CE0101960E941E1861E0CE0101968B
:100A30000E94392ACE0101960E948B1765EE73E061
:100A4000CE0101960E941518BE016F5F7F4F80E5B1
:100A500096E00E94BA158C01CE0101960E948B1778
:100A600017FD0EC160E576E0CE0184960E941E1847
:100A70006CED72E0CE0142960E942718BE016E5EB8
:100A80007F4FCE0184960E94B0154AE0BC01CE0192
:100A900001960E94BC17CE0101960E94AA14AB01D8
:100AA0004F5F5F4FBE016C5D7F4FCE014E960E943F
:100AB000A520CE0101960E948B17CE0142960E947E
:100AC0008B1765E073E0CE0101960E9427186EED4A
:100AD00072E0CE0142960E942718AE014F5F5F4F31
:100AE000BE016E5E7F4FCE014E960E94B514CE01C0
:100AF00042960E948B17CE0101960E948B1763EEDF
:100B000072E0CE0142960E942718BE016E5E7F4FB2
:100B1000CE014E960E94B0154AE0BC01CE0101966E
:100B20000E94BC17CE0101960E94AA14AB014F5F30
:100B30005F4FBE01625E7F4FCE0148960E94A520A6
:100B4000CE0101960E948B17CE0142960E948B1710
:100B5000BE01685E7F4FCE0142960E941E1802EED3
:100B600011E021E03DE0F32E6E01F5E0CF0ED11C47
:100B700064EF73E0F8018081918128AB0E943B24EF
:100B8000BC01CE0101960E942718BE016E5E7F4F08
:100B9000CE0101960E94D415E82ECE0101960E9446
:100BA0008B1728A9EE2009F441C019821A821B82F2
:100BB0001C82F6012F2D11922A95E9F7BE016F5F75
:100BC0007F4FF801808191810E946124F80180812A
:100BD000918160E042960E949424F8018081918185
:100BE00060E043960E949424F8018081918160E046
:100BF00044960E949424F8018081918160E045969A
:100C00000E94942460E870E089E895E00E949018C2
:100C1000BE016E5E7F4F89E895E00E94CD180E946C
:100C200019270E942C1D0E944E1B20E0095E1F4FB9
:100C3000F2E0013B1F0709F09BCF213089F468E601
:100C400070E089E895E00E949018BE016E5E7F4FCB
:100C500089E895E00E94CD180E9419270E94661B22
:100C6000CE0142960E948B17CE0148960E948B17A8
:100C7000CE014E960E948B17CE0184960E948B1750
:100C80006AED73E0CE0101960E941518BE016F5FF8
:100C90007F4F80E596E00E94BA158C01CE01019647
:100CA0000E948B1717FDB5C06CED72E0CE01019666
:100CB0000E942718BE016F5F7F4F80E596E00E947B
:100CC000B0154AE0BC01CE0142960E94BC17CE018D
:100CD00042960E94AA14AB014F5F5F4F60E576E039
:100CE000CE0148960E94A520CE0142960E948B1705
:100CF000CE0101960E948B1765EE72E0CE0101963F
:100D00000E942718BE016F5F7F4FCE0148960E9458
:100D1000BA154AE0BC01CE014E960E94BC17CE0126
:100D20004E960E94AA149B0140E050E0BE01685E0E
:100D30007F4FCE0142960E943C18CE014E960E94F3
:100D40008B17CE0101960E948B1765EE72E0CE01E3
:100D50004E960E942718BE01625E7F4F80E596E0A6
:100D60000E94B0154AE0BC01CE0184960E94BC17D7
:100D7000CE0184960E94AA14AB014F5F5F4F60E5DD
:100D800076E0CE0101960E94A520CE0184960E94B5
:100D90008B17CE014E960E948B17CE0101960E94B2
:100DA000AA14162FBE016E5E7F4FCE014E960E9492
:100DB0001E1841E150E068E473E0CE014E960E94B7
:100DC000DF2968E473E08EE190E00E946124612FE6
:100DD00080E390E00E94942461E081E390E00E942F
:100DE00094240E94112089E895E00E94C9180E946D
:100DF0004E1BCE014E960E948B17CE0101960E948B
:100E00008B17CE0142960E948B17CE0148960E9406
:100E10008B1760ED73E0CE0101960E941518BE019C
:100E20006F5F7F4F80E596E00E94BA158C01CE017E
:100E300001960E948B1717FD67C06CED72E0CE0122
:100E400001960E942718BE016F5F7F4F80E596E0F4
:100E50000E94B0154AE0BC01CE0148960E94BC1722
:100E6000CE0148960E94AA14AB014F5F5F4F60E528
:100E700076E0CE0142960E94A520CE0148960E94BF
:100E80008B17CE0101960E948B17BE016E5E7F4FBD
:100E9000CE0101960E941E18CE0101960E94AA144E
:100EA000DC01CB010197A109B109CC97A105B105DE
:100EB00010F00C947712CE0101960E94AA14162FFE
:100EC0008FE090E00E949424612F70E07093010104
:100ED0006093000160E970E089E895E00E94901855
:100EE0008FE090E00E94A4246AE070E00E947329E1
:100EF0000E9419270E944E1BCE0101960E948B175B
:100F0000CE0142960E948B176FEB73E0CE010196E3
:100F10000E941518BE016F5F7F4F80E596E00E942A
:100F2000BA158C01CE0101960E948B1717FD60C087
:100F30006CED72E0CE0101960E942718BE016F5F32
:100F40007F4F80E596E00E94B0154AE0BC01CE01DB
:100F500048960E94BC17CE0148960E94AA14AB0185
:100F60004F5F5F4F60E576E0CE0142960E94A5207C
:100F7000CE0148960E948B17CE0101960E948B17D6
:100F8000BE016E5E7F4FCE0101960E941E18CE01FB
:100F900001960E94AA146F3F71058105910519F011
:100FA00010F00C948D12CE0101960E94AA14162FF7
:100FB00085E190E00E949424109321046FE970E091
:100FC00089E895E00E94901885E190E00E94A424B1
:100FD0006AE070E00E9473290E9419270E944E1B4C
:100FE000CE0101960E948B17CE0142960E948B176C
:100FF0006EEA73E0CE0101960E941518BE016F5F84
:101000007F4F80E596E00E94BA158C01CE010196D3
:101010000E948B1717FD60C06CED72E0CE01019647
:101020000E942718BE016F5F7F4F80E596E00E9407
:10103000B0154AE0BC01CE0148960E94BC17CE0113
:1010400048960E94AA14AB014F5F5F4F60E576E0BF
:10105000CE0142960E94A520CE0148960E948B1791
:10106000CE0101960E948B17BE016E5E7F4FCE01AE
:1010700001960E941E18CE0101960E94AA146F3F8D
:1010800071058105910519F010F00C94A112CE01A3
:1010900001960E94AA14162F86E190E00E949424E3
:1010A0001093E20365EB70E089E895E00E949018E8
:1010B00086E190E00E94A4246AE070E00E94732917
:1010C0000E9419270E944E1BCE0101960E948B1789
:1010D000CE0142960E948B176FE973E0CE01019614
:1010E0000E941518BE016F5F7F4F80E596E00E9459
:1010F000BA158C01CE0101960E948B1717FD60C0B6
:101100006CED72E0CE0101960E942718BE016F5F60
:101110007F4F80E596E00E94B0154AE0BC01CE0109
:1011200048960E94BC17CE0148960E94AA14AB01B3
:101130004F5F5F4F60E576E0CE0142960E94A520AA
:10114000CE0148960E948B17CE0101960E948B1704
:10115000BE016E5E7F4FCE0101960E941E18CE0129
:1011600001960E94AA146F3F71058105910519F03F
:1011700010F00C94B512CE0101960E94AA14162FFD
:1011800087E190E00E9494241093E1036BEC70E0FF
:1011900089E895E00E94901887E190E00E94A424DD
:1011A0006AE070E00E9473290E9419270E944E1B7A
:1011B000CE0101960E948B17CE0142960E948B179A
:1011C00066E973E0CE0101960E941518BE016F5FBB
:1011D0007F4F80E596E00E94BA158C01CE01019602
:1011E0000E948B1717FD68C06CED72E0CE0101966E
:1011F0000E942718BE016F5F7F4F80E596E00E9436
:10120000B0154AE0BC01CE0148960E94BC17CE0141
:1012100048960E94AA14AB014F5F5F4F60E576E0ED
:10122000CE0142960E94A520CE0148960E948B17BF
:10123000CE0101960E948B17BE016E5E7F4FCE01DC
:1012400001960E941E18CE0101960E94AA14DC018C
:10125000CB010A97A109B109863F9105A105B10506
:1012600010F00C94C912CE0101960E94AA14162FF8
:1012700088E190E00E949424612F70E070939E02B8
:1012800060939D026FED70E089E895E00E949018F0
:1012900088E190E00E94A4246AE070E00E94732933
:1012A0000E9419270E944E1BCE0101960E948B17A7
:1012B000CE0142960E948B1769E873E0CE01019639
:1012C0000E941518BE016F5F7F4F80E596E00E9477
:1012D000BA158C01CE0101960E948B1717FD4EC0E6
:1012E0006CED72E0CE0101960E942718BE016F5F7F
:1012F0007F4F80E596E00E94B0154AE0BC01CE0128
:1013000048960E94BC17CE0148960E94AA14AB01D1
:101310004F5F5F4F60E576E0CE0142960E94A520C8
:10132000CE0148960E948B17CE0101960E948B1722
:10133000BE016E5E7F4FCE0101960E941E18CE0147
:1013400001960E94AA14DC01CB010197A109B10901
:10135000803C984AA105B10510F00C94DF12CE0133
:1013600001960E94AA14CB010E94571ECE0101963D
:101370000E948B17CE0142960E948B176FE773E095
:10138000CE0101960E941518BE016F5F7F4F80E568
:1013900096E00E94BA158C01CE0101960E948B172F
:1013A00017FD1AC06FEF80E090E00E9494240E9425
:1013B0007B1E6FEF83E690E00E9494240E94F11D53
:1013C0006FEF81E390E00E9494240E9411200E941C
:1013D0004E1BE0E0F0E0099564E773E0CE01019672
:1013E0000E941518BE016F5F7F4F80E596E00E9456
:1013F000BA158C01CE0101960E948B1717FD0CC007
:101400006FEF83E690E00E9494240E94F11D0E94F9
:101410004E1BE0E0F0E0099568E673E0CE0101962E
:101420000E941518BE016F5F7F4F80E596E00E9415
:10143000BA158C01CE0101960E948B1717FD0CC0C6
:101440006FEF80E090E00E9494240E947B1E0E9437
:101450004E1BE0E0F0E009956CE573E0CE010196EB
:101460000E941518BE016F5F7F4F80E596E00E94D5
:10147000BA158C01CE0101960E948B1717FD0CC086
:101480006FEF82E690E00E9494240E9479270E94E8
:101490004E1BE0E0F0E0099565E573E0CE010196B2
:1014A0000E941518BE016F5F7F4F80E596E00E9495
:1014B000BA158C01CE0101960E948B1717FD37C01B
:1014C00081E080939F0261E08BE090E00E94942491
:1014D00080910804813059F563EE72E0CE014296A6
:1014E0000E94271864E476E0CE0142960E9401171C
:1014F000BC01CE0148960E941E186DE473E0CE0137
:1015000001960E94151840E0BE01685E7F4FCE0133
:1015100001960E94B325CE0101960E948B17CE0141
:1015200048960E948B17CE0142960E948B1765E465
:1015300073E0CE0101960E941518BE016F5F7F4FC8
:1015400080E596E00E94BA158C01CE0101960E94BA
:101550008B1717FD36C010929F0260E08BE090E081
:101560000E94942480910804813059F563EE72E062
:10157000CE0142960E94271864E476E0CE0142969E
:101580000E940117BC01CE0148960E941E186CE310
:1015900073E0CE0101960E94151840E0BE01685E1E
:1015A0007F4FCE0101960E94B325CE0101960E9485
:1015B0008B17CE0148960E948B17CE0142960E944F
:1015C0008B1766E373E0CE0101960E941518BE01E9
:1015D0006F5F7F4F80E596E00E94BA158C01CE01C7
:1015E00001960E948B1717FD37C081E0809302019E
:1015F00061E08AE090E00E949424809108048130A8
:1016000059F563EE72E0CE0142960E94271864E419
:1016100076E0CE0142960E940117BC01CE014896A9
:101620000E941E186FE273E0CE0101960E94151809
:1016300040E0BE01685E7F4FCE0101960E94B32557
:10164000CE0101960E948B17CE0148960E948B17FF
:10165000CE0142960E948B1768E273E0CE0101969C
:101660000E941518BE016F5F7F4F80E596E00E94D3
:10167000BA158C01CE0101960E948B1717FD36C05A
:1016800080910804813059F563EE72E0CE014296F4
:101690000E94271864E476E0CE0142960E9401176A
:1016A000BC01CE0148960E941E1860E273E0CE0194
:1016B00001960E94151840E0BE01685E7F4FCE0182
:1016C00001960E94B325CE0101960E948B17CE0190
:1016D00048960E948B17CE0142960E948B1710925B
:1016E000020160E08AE090E00E9494246AE173E0E5
:1016F000CE0101960E941518BE016F5F7F4F80E5F5
:1017000096E00E94BA158C01CE0101960E948B17BB
:1017100017FD37C081E08093DF0361E082E190E054
:101720000E94942480910804813059F563EE72E0A0
:10173000CE0142960E94271864E476E0CE014296DC
:101740000E940117BC01CE0148960E941E1863E159
:1017500073E0CE0101960E94151840E0BE01685E5C
:101760007F4FCE0101960E94B325CE0101960E94C3
:101770008B17CE0148960E948B17CE0142960E948D
:101780008B176CE073E0CE0101960E941518BE0124
:101790006F5F7F4F80E596E00E94BA158C01CE0105
:1017A00001960E948B1717FD36C01092DF0360E090
:1017B00082E190E00E94942480910804813059F5E0
:1017C00063EE72E0CE0142960E94271864E476E050
:1017D000CE0142960E940117BC01CE0148960E949C
:1017E0001E1864E073E0CE0101960E94151840E0D7
:1017F000BE01685E7F4FCE0101960E94B325CE01E7
:1018000001960E948B17CE0148960E948B17CE013D
:1018100042960E948B1766EF72E0CE0101960E94FD
:101820001518BE016F5F7F4F80E596E00E94BA15E4
:101830008C01CE0101960E948B1717FD05C061E057
:10184000809108040E94C42C68EE72E0CE010196DB
:101850000E941518BE016F5F7F4F80E596E00E94E1
:10186000BA158C01CE0101960E948B1717FD05C099
:1018700062E0809108040E94C42C6AED72E0CE01FF
:1018800001960E941518BE016F5F7F4F80E596E0BC
:101890000E94BA158C01CE0101960E948B1717FD8C
:1018A0003AC0109108041092070160E083E190E0D3
:1018B0000E949424113079F580910804813059F503
:1018C00063EE72E0CE0142960E94271864E476E04F
:1018D000CE0142960E940117BC01CE0148960E949B
:1018E0001E186DEE70E0CE0101960E94151840E0C2
:1018F000BE01685E7F4FCE0101960E94B325CE01E6
:1019000001960E948B17CE0148960E948B17CE013C
:1019100042960E948B176BEC72E0CE0101960E94FA
:101920001518BE016F5F7F4F80E596E00E94BA15E3
:101930008C01CE0101960E948B1717FD3BC01091C0
:10194000080481E08093820361E084E190E00E94DA
:101950009424113079F580910804813059F563EEB3
:1019600072E0CE0142960E94271864E476E0CE0130
:1019700042960E940117BC01CE0148960E941E1893
:1019800061E071E0CE0101960E94151840E0BE01B1
:10199000685E7F4FCE0101960E94B325CE0101966D
:1019A0000E948B17CE0148960E948B17CE0142965B
:1019B0000E948B176CEB72E0CE0101960E94151805
:1019C000BE016F5F7F4F80E596E00E94BA158C01E3
:1019D000CE0101960E948B1717FD3BC010910804A1
:1019E00082E08093820362E084E190E00E9494248C
:1019F000113079F580910804813059F563EE72E079
:101A0000CE0142960E94271864E476E0CE01429609
:101A10000E940117BC01CE0148960E941E186BE17E
:101A200071E0CE0101960E94151840E0BE01685E8B
:101A30007F4FCE0101960E94B325CE0101960E94F0
:101A40008B17CE0148960E948B17CE0142960E94BA
:101A50008B176DEA72E0CE0101960E941518BE0147
:101A60006F5F7F4F80E596E00E94BA158C01CE0132
:101A700001960E948B1717FD3AC01091080410922E
:101A8000820360E084E190E00E949424113079F5B3
:101A900080910804813059F563EE72E0CE014296E0
:101AA0000E94271864E476E0CE0142960E94011756
:101AB000BC01CE0148960E941E1861E371E0CE0180
:101AC00001960E94151840E0BE01685E7F4FCE016E
:101AD00001960E94B325CE0101960E948B17CE017C
:101AE00048960E948B17CE0142960E948B1762EA9D
:101AF00072E0CE0101960E941518BE016F5F7F4F04
:101B000080E596E00E94BA158C01CE0101960E94F4
:101B10008B1717FD26C160E576E0CE018A960E94FC
:101B20001E186CED72E0CE0142960E942718BE018D
:101B30006E5E7F4FCE018A960E94B0154AE0BC01CE
:101B4000CE0101960E94BC17CE0101960E94AA14F4
:101B5000AB014F5F5F4FBE01665D7F4FCE01849644
:101B60000E94A520CE0101960E948B17CE014296BD
:101B70000E948B1767EE72E0CE0101960E94271833
:101B8000BE016F5F7F4FCE0184960E94BA15092F68
:101B9000CE0101960E948B1765E073E0CE0101969D
:101BA0000E94271867EE72E0CE0142960E94271825
:101BB000AE014F5F5F4FBE016E5E7F4FCE018496D8
:101BC0000E94B514CE0142960E948B17CE01019659
:101BD0000E948B1763EE72E0CE0142960E94271896
:101BE000BE016E5E7F4FCE0184960E94BA154AE018
:101BF000BC01CE0101960E94BC17CE0101960E9445
:101C0000AA149B0140E050E0BE016C5D7F4FCE0105
:101C10004E960E943C18CE0101960E948B17CE0171
:101C200042960E948B1763EE72E0CE0142960E94AC
:101C30002718BE016E5E7F4FCE0184960E94B015BC
:101C40004AE0BC01CE0101960E94BC17CE0101966C
:101C50000E94AA14AB014F5F5F4FBE016C5D7F4FC6
:101C6000CE0148960E94A520CE0101960E948B17B6
:101C7000CE0142960E948B17CE014E960E94AA1466
:101C8000162FBE01685E7F4FCE0101960E941E187E
:101C90001150183048F065E571E089E895E00E9440
:101CA000DF180E94661B45C046E250E069E573E01C
:101CB000CE0101960E94DF29C12ED12C25E1129F71
:101CC000F0011124E85FFE4F8389948929E5E22E13
:101CD00023E0F22EFC01E955F3405F01C5018E0DB2
:101CE0009F1DF70161917F019B8B8A8BCE014296EC
:101CF0000E948520FFE7EF16F3E0FF0679F7602FDB
:101D00006095661F6627661F85E18C9DF0018D9D9D
:101D1000F00D1124E85FFE4F8389948987960E9415
:101D2000942462E471E089E895E00E94DF180E9443
:101D30004E1B0E9419270E941D27CE0101960E946A
:101D40008B17CE0148960E948B17CE014E960E94AB
:101D50008B17CE0184960E948B17CE018A960E9423
:101D60008B1764E972E0CE0101960E941518BE013E
:101D70006F5F7F4F80E596E00E94BA158C01CE011F
:101D800001960E948B1717FD0FC060E576E0CE012B
:101D900001960E941E1862E0CE0101960E94392A27
:101DA000CE0101960E948B1769E872E0CE01019680
:101DB0000E941518BE016F5F7F4F80E596E00E947C
:101DC000BA158C01CE0101960E948B1717FD04C035
:101DD0000E947B1E0E9411206EE772E0CE010196E8
:101DE0000E941518BE016F5F7F4F80E596E00E944C
:101DF000BA158C01CE0101960E948B1717FF0E9425
:101E00001D2766E772E0CE0101960E941518BE01FB
:101E10006F5F7F4F80E596E00E94BA158C01CE017E
:101E200001960E948B1717FD84C00E94CC362DEFBF
:101E300030E040E050E00E94873782E0D82ED60E96
:101E40006FE871E089E895E00E9490184AE060E050
:101E500074E080E090E00E9430296DE871E089E84C
:101E600095E00E94DF1800E010E06D2DC8010E948F
:101E7000793765E070E080E090E00E94DE190F5F46
:101E80001F4F011524E0120781F7E12CF12C00E02F
:101E900010E0C8010E94A4248D1529F16FE771E0BC
:101EA00089E895E00E949018C8010E94A424C82ED9
:101EB0004AE0B801CE0101960E94901768E376E0EF
:101EC000CE0101960E9401176C2D0E94DA16BC010A
:101ED00089E895E00E94CD18CE0101960E948B17EB
:101EE0003FEFE31AF30A65E070E080E090E00E94C3
:101EF000DE190F5F1F4F011584E0180751F669E7DF
:101F000071E089E895E00E949018E114F10409F06D
:101F10006CC361E771E089E895E00E94DF180E94D8
:101F2000192764EF71E080E090E00E94DE19F7016C
:101F300009956EE672E0CE0101960E941518BE0169
:101F40006F5F7F4F80E596E00E94BA158C01CE014D
:101F500001960E948B1717FF0E94EC2764E672E03F
:101F6000CE0101960E941518BE016F5F7F4F80E57C
:101F700096E00E94BA158C01CE0101960E948B1743
:101F800017FF0E942C1D6CE572E0CE0101960E94A5
:101F90001518BE016F5F7F4F80E596E00E94BA156D
:101FA0008C01CE0101960E948B1717FD77C06AE560
:101FB00072E0CE0142960E941518BE016E5E7F4F00
:101FC00080E596E00E94B0154AE0BC01CE0148963B
:101FD0000E94BC17CE0148960E94AA14AB014F5F25
:101FE0005F4F60E576E0CE0101960E94A520CE010C
:101FF00048960E948B17CE0142960E948B17CE0105
:1020000001960E94AA14DC01CB010197A109B10934
:102010000A97A105B10508F0EFC2CE0101960E9412
:10202000AA14162F68EC71E089E895E00E949018D8
:1020300080910B04082E000C990B0E94A6296EEBD0
:1020400071E089E895E00E949018113029F410930E
:102050000B0468EB71E00BC0123029F410930B04F1
:1020600060EB71E004C010920B0466EA71E089E84D
:1020700095E00E94DF1868E971E089E895E00E9428
:10208000901880910B04082E000C990B0E94A62931
:102090000E941927CE0101960E948B171092090405
:1020A00064E572E0CE0101960E941518BE016F5FD3
:1020B0007F4F80E596E00E94BA158C01CE01019613
:1020C0000E948B1717FD22C080910504813011F406
:1020D0008093070468EE73E080E090E00E94DE19D0
:1020E00067ED71E082E696E00E94901866E576E082
:1020F00082E696E00E9482186AEE72E082E696E03E
:102100000E94B41882E696E00E94C9186EE472E05C
:10211000CE0101960E941518BE016F5F7F4F80E5CA
:1021200096E00E94BA158C01CE0101960E948B1791
:1021300017FD63C080910804813009F04CC063EE44
:1021400072E0CE014E960E94271864E476E0CE013C
:102150004E960E940117BC01CE0184960E941E1863
:1021600060910001709101014AE0CE0142960E9407
:1021700090176FEE72E0CE0101960E942718BE0103
:102180006E5E7F4FCE0101960E94011766EF72E0EE
:102190000E94E816BC01CE0148960E941E1841E03C
:1021A000BE016C5D7F4FCE0148960E94B325CE01E3
:1021B00048960E948B17CE0101960E948B17CE0184
:1021C00042960E948B17CE0184960E948B17CE01F7
:1021D0004E960E948B1760E08BE00E94721920914E
:1021E000000130910101A0E6BAEE0E9412380E946F
:1021F000DE1961E08BE00E94721966E472E0CE01A4
:1022000001960E941518BE016F5F7F4F80E596E032
:102210000E94BA158C01CE0101960E948B1717FD02
:1022200004C0809105040E942C1B6DE372E0CE0176
:1022300001960E941518BE016F5F7F4F80E596E002
:102240000E94BA158C01CE0101960E948B1717FDD2
:102250000CC080910504813011F480930704109222
:10226000E003109262050E943B1A68E372E0CE011F
:1022700001960E941518BE016F5F7F4F80E596E0C2
:102280000E94BA158C01CE0101960E948B1717FD92
:1022900064C06CE272E0CE0101960E941518809134
:1022A000DF03811103C067E272E002C063E272E003
:1022B000CE0101960E9406164091420650914306B7
:1022C00060913E0670913F06CE0101960E9436163F
:1022D00060ED77E080E090E00E94DE1980910804D4
:1022E000813061F563EE72E0CE0148960E942718B6
:1022F00064E476E0CE0148960E940117BC01CE014D
:102300004E960E941E18BE016F5F7F4FCE0142960F
:102310000E941E1841E0BE01625E7F4FCE014296D0
:102320000E94B325CE0142960E948B17CE014E9695
:102330000E948B17CE0148960E948B17809105044E
:10234000813039F4BE016F5F7F4F89E895E00E94CC
:10235000CD18CE0101960E948B176CE172E0CE0180
:1023600001960E941518BE016F5F7F4F80E596E0D1
:102370000E94BA158C01CE0101960E948B1717FDA1
:102380000AC081E08093060461E08CE090E00E9446
:1023900094240E94B41B64E172E0CE0101960E9475
:1023A0001518BE016F5F7F4F80E596E00E94BA1559
:1023B0008C01CE0101960E948B1717FD0DC0109263
:1023C000060460E08CE090E00E94942461E08BE0E1
:1023D0000E9472190E94B41B6EE072E0CE01019659
:1023E0000E941518BE016F5F7F4F80E596E00E9446
:1023F000BA158C01CE0101960E948B1717FD0CC0F7
:1024000081E08093B30161E08DE090E00E9494242C
:1024100060E08CE00E94721967E072E0CE010196E4
:102420000E941518BE016F5F7F4F80E596E00E9405
:10243000BA158C01CE0101960E948B1717FD0BC0B7
:102440001092B30160E08DE090E00E94942461E07E
:102450008CE00E9472196EEF71E0CE0101960E942D
:102460001518BE016F5F7F4F80E596E00E94BA1598
:102470008C01CE0101960E948B1717FD23C065EFDA
:1024800071E082E696E00E94901880910B04813002
:1024900031F461EF71E082E696E00E94DF188091EE
:1024A0000B048250823030F46FEE71E082E696E0E9
:1024B0000E94DF1863EE71E089E895E00E94DF1862
:1024C0000E944E1B1092080410920504E0960FB66D
:1024D000F894DEBF0FBECDBFDF91CF911F910F915A
:1024E000FF90EF90DF90CF90BF90AF9008956091F4
:1024F0000001709101014AE0CE0148960E949017B8
:10250000BE01685E7F4FCE0101960E948F16CE01FC
:1025100048960E948B170C945B074AE06091210457
:10252000CE0148960E94E817BE01685E7F4FCE013B
:1025300001960E948F16CE0148960E948B170C942C
:10254000D3074AE06091E203CE0148960E94E81763
:10255000BE01685E7F4FCE0101960E948F16CE01AC
:1025600048960E948B170C9447084AE06091E1035B
:10257000CE0148960E94E817BE01685E7F4FCE01EB
:1025800001960E948F16CE0148960E948B170C94DC
:10259000BB0860919D0270919E024AE0CE01489670
:1025A0000E949017BE01685E7F4FCE0101960E9487
:1025B0008F16CE0148960E948B170C9433096091B8
:1025C000B0017091B1014AE0CE0148960E94901787
:1025D000BE01685E7F4FCE0101960E948F16CE012C
:1025E00048960E948B170C94AF0969E671E089E860
:1025F00095E00E94DF189DCC60910B04062E000C24
:10260000770B4AE0CE0142960E94BC17BE016E5E77
:102610007F4FCE0101960E948F16CE0142960E94F6
:102620008B17FBCC0895CF92DF92EF92FF920F931E
:102630001F93CF93DF936C017A018B01C0E0D0E050
:10264000CE15DF0589F0D8016D918D01D601ED9190
:10265000FC910190F081E02DC6010995892B11F4C0
:102660007E0102C02196ECCFC701DF91CF911F916F
:102670000F91FF90EF90DF90CF900895FC01918D26
:10268000828D981761F0828DDF01A80FB11D5D96D4
:102690008C91928D9F5F9F73928F90E008958FEF42
:1026A0009FEF0895FC01918D828D981731F0828DF6
:1026B000E80FF11D858D90E008958FEF9FEF08954D
:1026C000FC01918D228D892F90E0805C9F4F821BB1
:1026D00091098F739927089589E895E00E94601306
:1026E00021E0892B09F420E0822F0895FC01848DDC
:1026F000DF01A80FB11DA35ABF4F2C91848D90E02C
:1027000001968F739927848FA689B7892C93A08906
:10271000B1898C9180648C93938D848D981306C0BD
:102720000288F389E02D80818F7D80830895EF9268
:10273000FF920F931F93CF93DF93EC0181E0888F7B
:102740009B8D8C8D981305C0E889F989808185FD62
:1027500024C0F62E0B8D10E00F5F1F4F0F73112753
:10276000E02E8C8DE8120CC00FB607FCFACFE8897A
:10277000F989808185FFF5CFCE010E947613F1CFD4
:102780008B8DFE01E80FF11DE35AFF4FF0820B8F96
:10279000EA89FB898081806207C0EE89FF896083B6
:1027A000E889F98980818064808381E090E0DF910D
:1027B000CF911F910F91FF90EF900895CF93DF93EA
:1027C000EC01888D8823C9F0EA89FB89808185FD29
:1027D00005C0A889B9898C9186FD0FC00FB607FC8A
:1027E000F5CF808185FFF2CFA889B9898C9185FFCB
:1027F000EDCFCE010E947613E7CFDF91CF91089500
:1028000080E090E0892B29F00E946C1381110C94D8
:1028100000000895833081F028F4813099F08230EF
:10282000A1F008958730A9F08830B9F08430D1F450
:10283000809180008F7D03C0809180008F7780938E
:102840008000089584B58F7702C084B58F7D84BDE4
:1028500008958091B0008F7703C08091B0008F7D84
:102860008093B00008950E94463AAF92BF92CF92F3
:10287000DF92EF92FF920F931F93CF93DF937B0131
:102880008A01FB01448155814115510561F1FC012B
:10289000248135812115310531F12417350718F1CF
:1028A0000217130718F0890101501109FC01A080DB
:1028B000B180C501DFEFCFEF6501C00ED11EC81694
:1028C000D906A0F0F701608171810E948D3A0097CE
:1028D00069F09C012A193B090217130710F0D22F47
:1028E000C32F0196ECCF8FEF9FEF02C08D2F9C2F4F
:1028F000DF91CF911F910F91FF90EF90DF90CF90DC
:10290000BF90AF9008950F931F93CF93DF93EC0187
:1029100088819981009729F02A813B812617370702
:1029200088F48B016F5F7F4F0E947C39009761F0C4
:10293000998388831B830A832C813D81232B11F487
:10294000FC01108281E001C080E0DF91CF911F91F6
:102950000F910895FC0180819181009711F00C94F2
:10296000DA3660E070E0CB0108952F923F924F92EB
:102970005F926F927F928F929F92AF92BF92CF920F
:10298000DF92EF92FF920F931F93CF93DF93FC019F
:10299000448055804114510409F4CFC0FB01648088
:1029A00075806114710409F4C8C07A016B01EC01EF
:1029B000FA01A480B580A618B70808811981A1146E
:1029C000B104C1F4F60160817181C8010E948D3AA1
:1029D000EC01892B09F4B1C0F70160817181448158
:1029E0005581CE010E94533AF701048115810C0FE5
:1029F0001D1FE8CFB7FE02C0480106C0FB012080C2
:102A000031804201C80142C0F60160817181C40178
:102A10000E948D3A2C01892B19F13201681879082E
:102A2000A301B401C8010E94533A060D171DF70116
:102A30006081718144815581C8010E94533AF70138
:102A400084819581080F191FF60184809580840C7C
:102A5000951C8C819D818A0D9B1D9D838C83D4CF79
:102A6000B401C801DF91CF911F910F91FF90EF90BA
:102A7000DF90CF90BF90AF909F908F907F906F909E
:102A80005F904F903F902F900C94773AB1010E9445
:102A90008D3A009729F0860D971D8A0C9B1CF6CF66
:102AA0008414950409F449C08A819B81881599058D
:102AB00060F4B4016F5F7F4FC8010E947C390097BA
:102AC000E1F1998388839B828A824C815D814150A8
:102AD000510957FD32C0B601CE010E9435148C0158
:102AE00097FD2BC088819981F60124813581200FC3
:102AF000311F820F931F4C815D81421B530BBC0120
:102B00008A0D9B1D0E945C3A8C819D818A0D9B1DC4
:102B10009D838C8328813981F901E80FF91F108288
:102B200088819981F7016081718144815581800F8D
:102B3000911F0E94533AA801CACFDF91CF911F91F4
:102B40000F91FF90EF90DF90CF90BF90AF909F904C
:102B50008F907F906F905F904F903F902F9008954F
:102B6000FC0144815581FB0124813581421B530BBB
:102B70000C943514CF93DF93FC0124813581232BF2
:102B800071F0FB01DC01CD91DC9160817181CE019E
:102B90000E948D3A009719F08C1B9D0B02C08FEF9D
:102BA0009FEFDF91CF910895FC0124813581FB01D6
:102BB000448155812417350721F5FC0180819181DD
:102BC000FB0160817181009719F061157105A1F415
:102BD0006115710549F0232BB1F0FB01808190E074
:102BE0009195819591090AC0009769F0232B59F0BE
:102BF000FC01808190E002C00E946E3A21E0892BA6
:102C000019F020E001C021E0822F0895EF92FF9299
:102C10000F931F93CF93DF936115710511F480E03B
:102C20001EC08B01EC01CB010E9408370097B1F068
:102C30002C813D817C01E20EF31EB701CE010E9482
:102C40008314882361F3288139818C819D81B801A7
:102C5000820F931F0E940137FD82EC8281E0DF9199
:102C6000CF911F910F91FF90EF900895EF92FF92F7
:102C70000F931F93CF93DF93FC012481358161155E
:102C8000710511F480E019C041155105A9F07B01CF
:102C9000EC018A01020F131FB8010E9483148823DC
:102CA00089F3288139818C819D81B701820F931F1F
:102CB0000E94773A1D830C8381E0DF91CF911F91B1
:102CC0000F91FF90EF900895EF92FF920F931F9353
:102CD000CF93DF9300D000D0CDB7DEB77C01862F35
:102CE0004AE08E010F5F1F4FB80190E00E941C3731
:102CF000F80101900020E9F73197AF01401B510B1B
:102D0000B801C7010E9436160F900F900F900F90D8
:102D1000DF91CF911F910F91FF90EF9008950F9346
:102D20001F93CF93DF938C01EB01FC018081918194
:102D30000097B1F0688179816115710579F0428160
:102D400053812C813D814217530740F00E94773A0E
:102D50008C819D81F8019583848313C00E94E4389F
:102D600088819981F801918380838A819B819383F3
:102D700082838C819D8195838483198218821B8232
:102D80001A821D821C82DF91CF911F910F910895AD
:102D9000CF93DF93EC0188819981009711F00E9415
:102DA000E438198218821D821C821B821A82DF91EC
:102DB000CF910895CF93DF93EC010E9464168111A7
:102DC00003C0CE010E94C816CE01DF91CF910895B5
:102DD000CF93DF93EC016115710561F0FB01019068
:102DE0000020E9F73197AF01461B570B0E943616BA
:102DF000811103C0CE010E94C816CE01DF91CF9190
:102E00000895CF93DF93EC01FB01448155816081EC
:102E100071810E943616811103C0CE010E94C8162E
:102E2000CE01DF91CF910895EF92FF920F931F9300
:102E3000CF93DF93EC018B016115710551F0CB014C
:102E40000E9408377C01BC01CE010E9483148111CD
:102E500004C0CE010E94C81607C0FD82EC82B801F2
:102E6000888199810E940137CE01DF91CF911F9116
:102E70000F91FF90EF900895EF92FF920F931F93A1
:102E8000CF93DF93EC017B018A01BA010E94831486
:102E9000811104C0CE010E94C81607C01D830C8397
:102EA000B701888199810E94773ACE01DF91CF9155
:102EB0001F910F91FF90EF900895CF93DF93EC0156
:102EC0006115710559F0FB0101900020E9F7319778
:102ED000AF01461B570B0E943C1702C00E94C81648
:102EE000CE01DF91CF910895CF93DF93EC01FB01E9
:102EF0008617970761F0608171816115710529F06E
:102F0000448155810E943C1702C00E94C816CE0120
:102F1000DF91CF910895FC01808191810C94E43878
:102F20000F931F93CF93DF93CDB7DEB761970FB6A3
:102F3000F894DEBF0FBECDBF8C01CB01F80111822A
:102F40001082138212821582148250E0BE016F5FDC
:102F50007F4F0E943C37BE016F5F7F4FC8010E94C8
:102F60005D1761960FB6F894DEBF0FBECDBFDF913F
:102F7000CF911F910F9108950F931F93CF93DF93DC
:102F8000CDB7DEB762970FB6F894DEBF0FBECDBFE8
:102F90008C01CB01F80111821082138212821582FA
:102FA000148250E0BE016F5F7F4F0E941137BE0157
:102FB0006F5F7F4FC8010E945D1762960FB6F8944D
:102FC000DEBF0FBECDBFDF91CF911F910F9108954E
:102FD0000F931F93CF93DF93CDB7DEB729970FB62B
:102FE000F894DEBF0FBECDBF8C01862FF801118291
:102FF0001082138212821582148250E0BE016F5F2C
:103000007F4F90E00E943C37BE016F5F7F4FC80149
:103010000E945D1729960FB6F894DEBF0FBECDBF94
:10302000DF91CF911F910F910895FC0111821082C1
:1030300013821282158214820C941417FC011182DF
:10304000108213821282158214820C947417FC0170
:103050001182108213821282158214826115710509
:1030600051F0FB0101900020E9F73197AF01461BB9
:10307000570B0C943C170895BF92CF92DF92EF92BA
:10308000FF920F931F93CF93DF937C016B018A0113
:10309000E9012417350720F4812F8901C42FD82F87
:1030A00065E073E0C7010E942718D60114968D9140
:1030B0009C91159708171907D0F48C179D0708F4F1
:1030C000EC01D601ED91FC911197EC0FFD1FB08042
:1030D00010824D915C91BA01600F711FC7010E946F
:1030E0005D17D601ED91FC91EC0FFD1FB082C70179
:1030F000DF91CF911F910F91FF90EF90DF90CF90D4
:10310000BF900895DC01ED91FC91DB0114964D9187
:103110005C9115976D917C910280F381E02D09946B
:10312000EF92FF920F931F93CF93DF938C017B015C
:10313000C0E0D0E0F701EC0FFD1F6491662361F061
:10314000D801ED91FC910190F081E02DC801099525
:10315000892B11F02196EECFCE01DF91CF911F91F7
:103160000F91FF90EF9008956115710579F0FB01C3
:1031700001900020E9F73197AF01461B570BDC01A6
:10318000ED91FC910280F381E02D099480E090E0C4
:10319000089563E073E00C94B4180F931F93CF93DA
:1031A000DF93EC010E9482188C01CE010E94C918A5
:1031B000800F911FDF91CF911F910F9108950F9371
:1031C0001F93CF93DF93EC010E9490188C01CE01E6
:1031D0000E94C918800F911FDF91CF911F910F910D
:1031E00008951F920F920FB60F9211242F933F93C1
:1031F0004F935F936F937F938F939F93AF93BF93FF
:10320000EF93FF9389E895E00E947613FF91EF9189
:10321000BF91AF919F918F917F916F915F914F91EE
:103220003F912F910F900FBE0F901F9018951F92F6
:103230000F920FB60F9211242F938F939F93EF93BA
:10324000FF93E0919905F0919A058081E0919F05A7
:10325000F091A00582FD12C090818091A2058F5F40
:103260008F732091A305821751F0E091A205F0E041
:10327000E757FA4F958F8093A20501C08081FF9197
:10328000EF919F918F912F910F900FBE0F901F90F4
:103290001895CF93DF93282F30E0F901E152FB4FCF
:1032A0008491F901E950F84FD491F901ED51F84FAB
:1032B000C491CC2391F081110E940A14EC2FF0E00C
:1032C000EE0FFF1FE752F84FA591B491EC91ED235B
:1032D00081E090E021F480E002C080E090E0DF91A6
:1032E000CF9108951F93CF93DF93282F30E0F901FA
:1032F000E152FB4F8491F901E950F84FD491F90163
:10330000ED51F84FC491CC23C9F0162F81110E94C2
:103310000A14EC2FF0E0EE0FFF1FE153F84FA591D8
:10332000B4918FB7F894111105C09C91ED2FE095E1
:10333000E92302C0EC91ED2BEC938FBFDF91CF918D
:103340001F910895CF93DF9390E0FC01E950F84F6F
:103350002491FC01ED51F84F8491882361F190E0B4
:10336000880F991FFC01EB52FB4FC591D491FC01D2
:10337000E153F84FA591B491611109C09FB7F8943A
:103380008881209582238883EC912E230BC06230A4
:1033900061F49FB7F8943881822F809583238883C6
:1033A000EC912E2B2C939FBF06C08FB7F894E88129
:1033B0002E2B28838FBFDF91CF9108958F929F92FC
:1033C000AF92BF92CF92DF92EF92FF926B017C019E
:1033D0000E9416224B015C01C114D104E104F104E6
:1033E000F1F00E941622DC01CB0188199909AA0983
:1033F000BB09883E9340A105B10570F321E0C21AD4
:10340000D108E108F10888EE880E83E0981EA11C1F
:10341000B11CC114D104E104F10419F7DDCFFF9010
:10342000EF90DF90CF90BF90AF909F908F900895D6
:1034300080918103813019F46CEF76E006C08091B1
:103440000704813031F46DE077E08EE396E00C9470
:10345000061664E077E08EE396E00E94061640913F
:1034600048065091490660914406709145068EE3E6
:1034700096E00C943616EF92FF920F931F93CF9322
:10348000DF93CDB7DEB768970FB6F894DEBF0FBEF7
:10349000CDBF1092B40160E08EE090E00E949424D1
:1034A00061EF76E08EE396E00E9414170E94181AEE
:1034B0006EE376E089E895E00E94CD1868EE73E04F
:1034C00080E090E00E94DE1906EB11E0F801E5884B
:1034D000F688C70143960E94A424813009F061C098
:1034E00064EF73E0C7010E943B24BC01CE0101964A
:1034F0000E942718BE016F5F7F4F84E496E00E9410
:10350000D415F82ECE0101960E948B17F11010925F
:103510000A0468EE73E080E090E00E94DE1964EF38
:1035200073E0F801858996890E943B24BC01CE0195
:103530000D960E94271863EE72E0CE0107960E9456
:103540002718BE01635F7F4FCE0107960E940117C7
:10355000BC01CE0143960E941E186EE376E0CE01B8
:1035600001960E941E1840E0BE016D5E7F4FCE01A5
:1035700001960E94B325CE0101960E948B17CE01C1
:1035800043960E948B17CE0107960E948B17CE019F
:103590000D960E948B1768EE73E080E090E00E9429
:1035A000DE19095E1F4FF2E00C391F0709F08ECFBC
:1035B00080910A048130B9F568EE73E080E090E014
:1035C0000E94DE1963EE72E0CE0107960E94271872
:1035D00064E476E0CE0107960E940117BC01CE019B
:1035E0000D960E941E1867EE76E0CE0101960E94AD
:1035F000151840E0BE01635F7F4FCE0101960E9427
:10360000B325CE0101960E948B17CE010D960E9424
:103610008B17CE0107960E948B1768EE73E080E04F
:1036200090E00E94DE1980918203823021F4109292
:10363000040110920301109281031092070468960E
:103640000FB6F894DEBF0FBECDBFDF91CF911F91B3
:103650000F91FF90EF900895813011F4809307044B
:103660000E943B22609322047093230480932404DD
:103670009093250481E08093E0030C94A62480912C
:10368000B401813031F41092E003109262050C9481
:103690003B1A811102C00C942C1B089561E08BE051
:1036A0000E94721964E670E080E090E00E94DE19EA
:1036B00060E08BE00E94721964E670E080E090E0C8
:1036C0000E94DE1961E08BE00C9472190E944E1B7F
:1036D0000C944E1BDF92EF92FF920F931F93CF93A8
:1036E000DF9300D000D000D0CDB7DEB77C0106EB71
:1036F00011E064EF73E0F801858996890E943B240C
:10370000BC01CE0101960E942718B701CE01019697
:103710000E94D415D82ECE0101960E948B17D1108D
:1037200008C0095E1F4FF2E00C391F0711F780E057
:103730000DC0B70184E496E00E947417F8018589F2
:10374000968942960E94A424813059F726960FB696
:10375000F894DEBF0FBECDBFDF91CF911F910F91C7
:10376000FF90EF90DF9008950F931F93CF93DF9317
:1037700000D000D000D0CDB7DEB760ED77E080E0BC
:1037800090E00E94DE190E94EE2810927D061092B1
:103790007C0610927B0610927A061092790610929F
:1037A00078068DE991E090937F0680937E06909154
:1037B0006E06963108F057C02DEB30E03093790655
:1037C000209378062BE931E030937B0620937A062C
:1037D0002CE231E030937D0620937C062091680036
:1037E000983050F031E09E3008F430E081E001C0C4
:1037F000880F3A95EAF701C084E0822B8093680035
:10380000983038F09E3040F0963148F020E030E0BB
:1038100008C02DE630E005C02BE630E002C02CE603
:1038200030E03093760620937506983030F481E0CE
:1038300001C0880F9A95EAF70EC0292F30E09E301C
:1038400018F42850310902C02E50310981E001C01E
:10385000880F2A95EAF78093770680917E069091EB
:103860007F060197F1F780917C0690917D06892B68
:1038700049F1E0912804F091290486E0E236F80746
:1038800009F1309739F0A389B4899C918589809595
:1038900089238C93809180068E7F8093800610927E
:1038A00026041092270482E696E0909329048093E0
:1038B0002804E0917506F091760690818091770654
:1038C000892B80831AE064EE76E082E696E00E941F
:1038D000DF1868EC70E080E090E00E94DE19115083
:1038E00091F760EE76E082E696E00E94DF186AE0EB
:1038F00070E080E090E00E94DE1982E696E00E948F
:10390000DB21892B09F460C082E696E00E94DB216E
:10391000892B79F082E696E00E94F32180930C04D3
:103920000E94242A64E170E080E090E00E94DE19A9
:10393000EBCF6BED76E0CE0101960E941518BE012B
:103940006F5F7F4F80E596E00E94BA158C01CE0133
:1039500001960E948B1717FD03C081E080930B0432
:1039600064ED76E0CE0101960E941518BE016F5FEE
:103970007F4F80E596E00E94BA158C01CE0101963A
:103980000E948B1717FD03C082E080930B0461ED4A
:1039900076E0CE0101960E941518BE016F5F7F4F41
:1039A00080E596E00E94BA158C01CE0101960E9436
:1039B0008B1717FD03C083E080930B0465E073E071
:1039C00080E596E00E945D1767EC76E082E696E07F
:1039D0000E94DF1864E670E080E090E00E94DE194B
:1039E0006DEB76E082E696E00E94DF1864E670E018
:1039F00080E090E00E94DE196FEA76E082E696E0D1
:103A00000E94DF1864E670E080E090E00E94DE191A
:103A100063EA76E082E696E00E94DF1864E670E0F2
:103A200080E090E00E94DE1980910604813019F454
:103A30006EE976E002C069E976E082E696E00E94EF
:103A4000DF1826960FB6F894DEBF0FBECDBFDF910C
:103A5000CF911F910F9108959F92AF92BF92CF92F5
:103A6000DF92EF92FF920F931F93CF93DF9300D0DB
:103A700000D000D0CDB7DEB76AE875E089E895E000
:103A80000E94DF1866E073E0CE0101960E942718BD
:103A900068E376E0CE0101960E9401176AE073E0C8
:103AA0000E94E81668E376E00E94011760E173E087
:103AB0000E94E81668E376E00E94011762E173E075
:103AC0000E94E81668E376E00E94011764E173E063
:103AD0000E94E81668E376E00E94011766E173E051
:103AE0000E94E816BC0189E895E00E94CD18CE013D
:103AF00001960E948B1786EBE82E81E0F82E00E0FD
:103B000010E064EF73E0F701858996890E943B24F9
:103B1000F701C588D688C60145960E94A424B82E10
:103B2000C60144960E94A424A82EC60143960E9472
:103B3000A424982EC60142960E94A424D82E0F5F7A
:103B40001F4F4AE0B801CE0101960E94BC1768E3FE
:103B500076E0CE0101960E94011764EF73E00E94A7
:103B6000E81668E376E00E9401176D2D0E94DA16D0
:103B700068E376E00E940117692D0E94DA1668E377
:103B800076E00E9401176A2D0E94DA1668E376E05B
:103B90000E9401176B2D0E94DA16BC0189E895E09E
:103BA0000E94CD18CE0101960E948B17F7E1EF0E0F
:103BB000F11C0A30110509F0A4CF0E94192726969E
:103BC0000FB6F894DEBF0FBECDBFDF91CF911F912E
:103BD0000F91FF90EF90DF90CF90BF90AF909F90AC
:103BE0000895CF93DF9383E690E00E94A424813070
:103BF00009F450C065E775E089E895E00E94DF1898
:103C0000C4E6D0E06FEFCE010E9494246AE070E039
:103C100080E090E00E94DE192196C03981E0D8074B
:103C200089F76CE575E089E895E00E94DF180E944D
:103C30001927CAECD1E0BE016451710989819A81CA
:103C40000E946124FE01339789819A8160814296A6
:103C50000E949424FE01329789819A816081439663
:103C60000E949424FE01319789819A816081449653
:103C70000E94942489819A81688145960E949424A7
:103C8000679682E0C03BD807B1F661E083E690E03A
:103C90000E94942483E690E00E94A424813021F4C1
:103CA000DF91CF910C942C1DDF91CF910895CF938C
:103CB000DF93D82FC92F682F80E190E00E947937D9
:103CC0006C2F81E190E00E947937D093B001C093CE
:103CD000B10169E475E089E895E00E94901880914F
:103CE000B0019091B1010E9494290E941927DF919F
:103CF000CF910C944E1BCF93DF9380E090E00E9415
:103D0000A424813009F468C06DE776E089E895E085
:103D10000E94DF18C0E0D0E06FEFCE010E94942433
:103D20006AE070E080E090E00E94DE192196CE31DA
:103D3000D10591F76DE576E089E895E00E94DF18FE
:103D40000E94192761E08AE090E00E94942461E0DB
:103D50008BE090E00E94942460E08CE090E00E9470
:103D6000942461E08DE090E00E94942461E08EE074
:103D700090E00E9494246FE08FE090E00E949424F1
:103D80008CE390E00E94571E60E082E190E00E9488
:103D9000942461E083E190E00E94942460E084E157
:103DA00090E00E94942460E085E190E00E949424D9
:103DB00060E086E190E00E94942460E087E190E07A
:103DC0000E94942468E288E190E00E94942461E0DB
:103DD00080E090E00E94942480E090E00E94A4247F
:103DE000813009F01BC16AE476E089E895E00E9421
:103DF000DF188AE090E00E94A4248093020160E42E
:103E000076E089E895E00E94901880910201082EE2
:103E1000000C990B0E94A6298BE090E00E94A4243C
:103E200080939F0264E376E089E895E00E94901811
:103E300080919F02082E000C990B0E94A62988E110
:103E400090E00E94A42490E090939E0280939D02B3
:103E500069E276E089E895E00E94901880919D02E1
:103E600090919E020E9494298CE090E00E94A424EC
:103E70008093060462E276E089E895E00E9490185B
:103E800080910604082E000C990B0E94A6298DE053
:103E900090E00E94A4248093B3016CE176E089E86D
:103EA00095E00E9490188091B301082E000C990BA8
:103EB0000E94A6298EE090E00E94A4248093B40181
:103EC00064E176E089E895E00E9490188091B40161
:103ED000082E000C990B0E94A6298FE090E00E940A
:103EE000A42490E0909301018093000168E076E0C3
:103EF00089E895E00E94901880910001909101015D
:103F00000E94942980E190E00E94A424C82F81E1BE
:103F100090E00E94A424C093B0018093B10169EFA6
:103F200075E089E895E00E9490188091B001909129
:103F3000B1010E94942982E190E00E94A424809320
:103F4000DF036EEE75E089E895E00E94901880919D
:103F5000DF03082E000C990B0E94A62983E190E054
:103F60000E94A4248093070161EE75E089E895E042
:103F70000E94901880910701082E000C990B0E9456
:103F8000A62987E190E00E94A4248093E10360EDDC
:103F900075E089E895E00E9490186AE070E08091F1
:103FA000E1030E94732984E190E00E94A42480939D
:103FB000820362EC75E089E895E00E949018809198
:103FC0008203082E000C990B0E94A62985E190E03F
:103FD0000E94A424809321046FEA75E089E895E0AB
:103FE0000E9490186AE070E0809121040E94732979
:103FF00086E190E00E94A4248093E2036CE975E0DE
:1040000089E895E00E9490186AE070E08091E203F0
:104010000E947329DF91CF910C941927DF91CF91E2
:10402000089581E390E00E94A424813081F162E34D
:1040300075E089E895E00E94DF1867E175E089E89E
:1040400095E00E94DF180E94192768E173E086E579
:1040500096E00E945D1786E180939C0241E150E06A
:1040600068E473E086E596E00E94DF2968E473E087
:104070008EE190E00E94612460919C0280E390E0D8
:104080000E94942461E081E390E00E94942481E303
:1040900090E00E94A424813059F568E473E08EE139
:1040A00090E00E943B24BC0186E596E00E945D17EB
:1040B00080E390E00E94A42480939C026EE075E06F
:1040C00089E895E00E94901866E576E089E895E039
:1040D0000E94CD186BEF74E089E895E00E9490187B
:1040E0006AE070E080919C020E9473290C94192769
:1040F000089560ED77E080E090E00E94DE1963EFC4
:1041000074E082E696E00C94DF18EF92FF920F9332
:104110001F93CF93DF931F92CDB7DEB77C01FC01D5
:1041200000811181C80169830E9471376981681714
:1041300019F0C8010E947937C7010F90DF91CF9124
:104140001F910F91FF90EF900895CF93DF93EC01B3
:10415000FB01248135810E943C18CE01DF91CF9173
:10416000089585ED8093BC008091BC0084FDFCCF58
:104170001092A903089540912D05262F30E0240FB9
:10418000311D21323105DCF42091A9032430C9F41A
:10419000FC0180E090E0861758F430912D052191C4
:1041A000DC01A55FBA4FA30FB11D2C930196F3CF8D
:1041B00080912D05680F60932D0580E0089581E0C2
:1041C000089582E008950895E091CA038091CB0399
:1041D000E81730F4F0E0E655FC4F808190E0089558
:1041E0008FEF9FEF08959091CA038091CB039817AA
:1041F00050F4E92FF0E0E655FC4F208130E09F5F5E
:104200009093CA0302C02FEF3FEFC9010895809138
:10421000CB0390E02091CA03821B91090895CF92AD
:10422000DF92EF92FF920F931F93CF93DF937C0166
:10423000262F972F8A0180914A04882391F0C62F58
:10424000D72F6E01C40ED51ECC15DD0571F0699116
:10425000D701ED91FC910190F081E02DC701099506
:10426000F3CF642F822F0E94BB20C801DF91CF9132
:104270001F910F91FF90EF90DF90CF900895CF9313
:10428000DF931F92CDB7DEB7698320914A042223C2
:10429000D1F020917F03203240F021E030E0FC019A
:1042A0003383228380E090E015C080918003E82F63
:1042B000F0E0E65DFB4F998190838F5F80938003F0
:1042C00080937F0305C061E0CE0101960E94BB2070
:1042D00081E090E00F90DF91CF9108952091280424
:1042E000309129042817390771F49091270480919F
:1042F0002604981741F0E0912704F0E0E55BFB4FBE
:10430000808190E008958FEF9FEF089508951F93A7
:10431000CF93DF93DC015C962D913C915D97211545
:10432000310539F481E090E013969C938E931297B7
:104330003DC05196ED91FC91529750969C915097AB
:10434000892F80951FB75E964C915E9741FB77272A
:1043500070F941FD6095F8944081772311F0492B65
:1043600001C048234083E9012197F1F748E05081DB
:1043700060FF02C0592B01C058235083E9012197E7
:10438000F1F76695415099F7772321F090818923C1
:10439000808303C08081982B90831FBF5C968D9192
:1043A0009C915D970197F1F721E030E0C901DF9121
:1043B000CF911F9108952091280430912904281746
:1043C000390771F4809126042091270490E08054ED
:1043D0009F4F821B910960EC70E00E942138089584
:1043E00080E090E008952091280430912904281756
:1043F0003907C9F49091270480912604981799F001
:10440000E0912704F0E0E55BFB4F208180912704D9
:1044100090E0019660EC70E00E94213880932704C0
:10442000822F90E008958FEF9FEF08953FB7F894A3
:104430008091570590915805A0915905B0915A0562
:1044400026B5A89B05C02F3F19F00196A11DB11DEF
:104450003FBFBA2FA92F982F8827820F911DA11D2A
:10446000B11DBC01CD0142E0660F771F881F991F67
:104470004A95D1F708952FB7F8946091530570913C
:10448000540580915505909156052FBF08951F92B0
:104490000F920FB60F9211242F933F938F939F93F8
:1044A000AF93BF938091530590915405A09155050A
:1044B000B09156053091520523E0230F2D3720F49B
:1044C0000196A11DB11D05C026E8230F0296A11D6E
:1044D000B11D209352058093530590935405A093EA
:1044E0005505B09356058091570590915805A091B8
:1044F0005905B0915A050196A11DB11D809357052C
:1045000090935805A0935905B0935A05BF91AF9168
:104510009F918F913F912F910F900FBE0F901F9001
:1045200018951F920F920FB60F9211242F933F935D
:104530004F935F936F937F938F939F93AF93BF93AB
:10454000EF93FF938091B900887F803609F49CC077
:1045500068F5883209F45BC090F4803109F454C0E6
:1045600038F4882309F4F6C0883009F44DC0F6C049
:10457000883109F44CC0803209F45DC0EFC080344A
:1045800009F468C048F4803309F455C0883309F051
:10459000E5C08093A703D8C0803509F44FC08835A3
:1045A00009F45DC0883409F0D9C0D6C0883909F44F
:1045B000C7C0A8F4883709F467C038F4883609F40E
:1045C00063C0803709F460C0C9C0883809F4B8C036
:1045D000803909F45FC0803809F0C0C05BC0803BFF
:1045E00009F486C038F4803A09F466C0883A09F4C0
:1045F0007FC0B4C0803C09F4A7C0883C09F4A4C0C3
:10460000883B09F48AC0AAC08091A40310C090918D
:10461000A6038091A503981770F5E091A60381E0A9
:104620008E0F8093A603F0E0ED57FC4F80818093BE
:10463000BB0085EC86C08093A7038EC0E091A603E3
:1046400081E08E0F8093A6038091BB00F0E0ED57D0
:10465000FC4F80839091A6038091A5036EC0E091EA
:10466000A60381E08E0F8093A6038091BB00F0E04B
:10467000ED57FC4F80838091A80381116DC081E0CC
:104680008093A30384EA61C083E08093A90310921E
:104690005105CFCF80915105803208F051C0E09193
:1046A000510581E08E0F809351058091BB00F0E0B1
:1046B000EF5CFA4F8083BDCF85EC8093BC001092F5
:1046C000A90380915105803230F4E0915105F0E06A
:1046D000EF5CFA4F10826091510570E0E0912F0578
:1046E000F091300581E395E009951092510536C0AF
:1046F00084E08093A90310922E0510922D05E0917D
:104700002B05F0912C05099580912D05811105C08F
:1047100081E080932D0510920B05E0912E0581E03C
:104720008E0F80932E05F0E0E55FFA4F8081809335
:10473000BB0090912E0580912D05981708F479CF34
:1047400085E88093BC000AC085EC8093BC00109281
:10475000A90304C01092A7030E94B120FF91EF911A
:10476000BF91AF919F918F917F916F915F914F9189
:104770003F912F910F900FBE0F901F9018951F9291
:104780000F920FB60F9211242F933F934F935F9385
:104790006F937F938F939F93AF93BF93EF93FF9309
:1047A000E0912804F0912904309709F453C0968DC4
:1047B000A685B785858591FF04C09C91892329F43E
:1047C00049C09C91892309F045C0A389B4899C9173
:1047D0008589809589238C93868997890197F1F73C
:1047E000608D718DA685B785558538E020E0CB01B9
:1047F0000197F1F7822F90E095958795282F4C919E
:10480000452309F02068315091F7868D81FD209570
:104810008091260490E0019660EC70E00E942138BF
:1048200090912704981749F0A0912604B0E0A55B69
:10483000BB4F2C938093260403C0868D8160868FA6
:10484000828D938D0197F1F7A389B4899C91858915
:10485000892B8C93FF91EF91BF91AF919F918F9195
:104860007F916F915F914F913F912F910F900FBE6C
:104870000F901F901895CF92DF92EF92FF920F93B7
:104880001F93CF93DF93EB017B0121E1E20EF11C3B
:104890008B016C01C61AD70AC601800F911F0E94B6
:1048A0007137F80181938F01EE15FF05A9F7CE014D
:1048B000DF91CF911F910F91FF90EF90DF90CF90FC
:1048C0000895AF92BF92CF92DF92EF92FF920F9333
:1048D0001F93CF93DF9300D0CDB7DEB78B016B0171
:1048E00021E1C20ED11C7B015C01A61AB70A950119
:1048F0002E0D3F1DF70161917F013A832983CE017F
:1049000001960E948520EC14FD0489F7C8010F90E0
:104910000F90DF91CF911F910F91FF90EF90DF905B
:10492000CF90BF90AF900895CF93DF9300D0CDB7D5
:10493000DEB79A838983CE0101960E9485200F906D
:104940000F90DF91CF9108950C947137EF92FF9201
:104950000F931F93CF93DF93CDB7DEB768970FB652
:10496000F894DEBF0FBECDBF0E943B22009122040F
:10497000109123042091240430912504601B710BB5
:10498000820B930B28EE33E040E050E00E94F037BA
:104990008091210490E0A0E0B0E082179307A40783
:1049A000B50708F0D3C011E01093B40161E08EE0C8
:1049B00090E00E9494241093B2016FE177E08EE3BF
:1049C00096E00E9414170E94181A6EE376E089E8B8
:1049D00095E00E94CD1868EE73E080E090E00E94C0
:1049E000DE1906EB11E0F801E588F688C701439669
:1049F0000E94A424813009F061C064EF73E0C70114
:104A00000E943B24BC01CE0101960E942718BE01E2
:104A10006F5F7F4F84E496E00E94D415F82ECE019C
:104A200001960E948B17F11010920A0468EE73E051
:104A300080E090E00E94DE1964EF73E0F801858960
:104A400096890E943B24BC01CE0107960E9427183C
:104A500063EE72E0CE010D960E942718BE01695FD9
:104A60007F4FCE010D960E940117BC01CE01019629
:104A70000E941E186EE376E0CE0143960E941E1837
:104A800040E0BE016F5F7F4FCE0143960E94B32589
:104A9000CE0143960E948B17CE0101960E948B1780
:104AA000CE010D960E948B17CE0107960E948B17A0
:104AB00068EE73E080E090E00E94DE19095E1F4F0F
:104AC000F2E00C391F0709F08ECF80910A04813083
:104AD000B9F568EE73E080E090E00E94DE1963EEC5
:104AE00072E0CE0107960E94271864E476E0CE01BA
:104AF00007960E940117BC01CE0101960E941E1864
:104B000066E177E0CE010D960E94151840E0BE01E7
:104B10006F5F7F4FCE010D960E94B325CE010D969B
:104B20000E948B17CE0101960E948B17CE0107962B
:104B30000E948B1768EE73E080E090E00E94DE191F
:104B400010928103109207041092E00368960FB64A
:104B5000F894DEBF0FBECDBFDF91CF911F910F91B3
:104B6000FF90EF9008950F931F93CF93DF93EC0185
:104B70008B0180910201813019F0413009F046C06B
:104B800068EE73E080E090E00E94DE1965EC77E06B
:104B900082E696E00E949018B80182E696E00E94B4
:104BA000821863EC77E082E696E00E94DF1864EFFB
:104BB00071E080E090E00E94DE19BE0182E696E09E
:104BC0000E94821864EF71E080E090E00E94DE199C
:104BD000E0916206F09163060190F081E02D6AE1B8
:104BE00082E696E0099564EF71E080E090E00E9433
:104BF000DE1962E273E089E895E00E94B41868E883
:104C000073E180E090E00E94DE1906C06EE173E07F
:104C100089E895E00E94B418B80189E895E00E94FF
:104C2000821868E376E089E895E00E948218BE0168
:104C300089E895E0DF91CF911F910F910C94CD18E9
:104C40006F927F929F92AF92BF92CF92DF92EF923C
:104C5000FF920F931F93CF93DF93CDB7DEB7689783
:104C60000FB6F894DEBF0FBECDBF2091B401213046
:104C700019F0613009F0C9C0F42EE62E6C01BC01B8
:104C800089E895E00E94CD1806EB11E058019AE002
:104C9000992E81E0F81206C0F50165887688C30177
:104CA000439608C0F2E0FF1249C0F5016588768896
:104CB000C30145960E94A424813009F03FC064EFEF
:104CC00073E0C3010E943B24BC01CE010D960E94FB
:104CD000271863EE72E0CE0107960E942718BE01E6
:104CE000635F7F4FCE0107960E940117BC01CE0182
:104CF00043960E941E18B601CE0101960E941E180E
:104D00004E2DBE016D5E7F4FCE0101960E94B325F0
:104D1000CE0101960E948B17CE0143960E948B17FD
:104D2000CE0107960E948B17CE010D960E948B171D
:104D300068EE73E080E090E00E94DE199A94F7E15B
:104D4000AF0EB11C9110A5CF81E0F8125EC080912A
:104D50009F02813009F059C088EEE82E83E0F82EDA
:104D6000F8018589968944960E94A424813009F02F
:104D700045C068E873E180E090E00E94DE1965EBD1
:104D800077E089E895E00E94901864EF73E0F801FD
:104D9000858996890E943B24BC0189E895E00E94A0
:104DA000B41889E895E00E94C91860EB77E082E6C4
:104DB00096E00E94901864EF73E0F8018589968967
:104DC0000E943B24BC0182E696E00E94B4186EEA81
:104DD00077E082E696E00E94DF1880919D02909134
:104DE0009E028E9DB0018F9D700D9E9D700D1124B1
:104DF00080E090E00E94DE190E947920095E1F4F3A
:104E0000F2E00C391F0709F0ABCF68960FB6F894A3
:104E1000DEBF0FBECDBFDF91CF911F910F91FF90ED
:104E2000EF90DF90CF90BF90AF909F907F906F906A
:104E3000089589E895E00C94C918DF92EF92FF92EB
:104E40000F931F93CF93DF9300D000D000D0CDB746
:104E5000DEB761EA77E089E895E00E94DF1888E034
:104E6000E82E81E0F82E00E010E0F70183899489B4
:104E70000E941629F7018389948987960E94A424A9
:104E8000D82E0F5F1F4F4AE0B801CE0101960E9455
:104E9000BC1768E376E0CE0101960E94011763E635
:104EA00075E00E94E81668E376E00E9401176D2D18
:104EB0000E94DA16BC0189E895E00E94CD18CE0167
:104EC00001960E948B17F5E1EF0EF11C08301105D9
:104ED00061F60E94192726960FB6F894DEBF0FBE22
:104EE000CDBFDF91CF911F910F91FF90EF90DF9099
:104EF0000895AF92BF92CF92DF92EF92FF920F93FD
:104F00001F93CF93DF9300D0CDB7DEB782E690E05A
:104F10000E94A424813009F452C06BE877E089E84C
:104F200095E00E94DF1804EF11E06FEFC8010E94C6
:104F300094246AE070E080E090E00E94DE190F5F48
:104F40001F4F053383E0180781F761E777E089E8B1
:104F500095E00E94DF180E94192708E011E08AE11D
:104F6000A82E81E0B82EF801C388D4887801C01A31
:104F7000D10AC6018E0D9F1DF70161917F019A83B1
:104F80008983CE0101960E948520EA14FB0489F7EB
:104F9000F80183899489F701608187960E9494249F
:104FA0000B5E1F4F5701F5E1AF0EB11C81E0003BD6
:104FB0001807C9F661E082E690E00E9494240F9001
:104FC0000F90DF91CF911F910F91FF90EF90DF90A5
:104FD000CF90BF90AF9008957F928F929F92AF92A3
:104FE000BF92CF92DF92EF92FF920F931F93CF93D6
:104FF000DF93C12CD12C7601C394D0E0BB24B394B1
:1050000062E0A62E99249A9475EE872EE5EC7E2E0A
:10501000CC2DB0924A04C0925B051092800310928E
:105020007F039091A9039111FCCFA092A903B092A4
:10503000A8039092A7031092A6031092A5031092C2
:10504000A4038091A40386019601220F331F282B0D
:105050002093A4038091A303813069F41092A303E9
:105060008091A4038093BB008091BC0083FDF8CFA6
:105070007092BC0002C08092BC008091A903823073
:10508000E1F38091A7038F3F69F08091A7038032FD
:1050900031F08091A703803321F094E003C092E0C7
:1050A00001C093E01092800310927F0310924A0493
:1050B000911138C060E677E089E895E00E94901889
:1050C00080E1C816D104E104F10430F46EE577E024
:1050D00089E895E00E94901840E1C701B6010E945E
:1050E000302980EE8C0F883018F0C853C830B0F4E7
:1050F00068E376E089E895E00E9482186DE477E045
:1051000089E895E00E94DF181093CD030093CC034B
:105110008091DE038F5F8093DE0302C00E94192717
:10512000DF5F19C09430B9F461E477E089E895E075
:105130000E949018E0E1CE16D104E104F10430F4AD
:105140006FE377E089E895E00E94901860E170E0F5
:105150008C2F0E947329FFEFCF1ADF0AEF0AFF0A94
:105160008FE7C816D104E104F10409F051CFD11141
:1051700006C069E277E089E895E00E94DF18809137
:10518000DE038823E9F00E941D2708E011E0C6ED48
:10519000D3E0FC2EE8E0FE0EF8018389948987961F
:1051A0000E94A42489930B5E1F4FFC12F5CF0E942E
:1051B0001927EEECF3E088E08E0F11928E13FDCFED
:1051C000DF91CF911F910F91FF90EF90DF90CF90E3
:1051D000BF90AF909F908F907F900895E9E8F5E0A1
:1051E000A089B18982E08C93A485B5851C92A6859F
:1051F000B7858FEC8C93108EA489B58986E08C934B
:10520000A289B3898C9180618C93A289B3898C9196
:1052100088608C93A289B3898C9180688C93028872
:10522000F389E02D80818F7D808308950F931F93F4
:10523000CF93DF93C3E6D5E08C0103561540C80138
:105240008C0F9D1F0E947137899385E0C938D8075C
:10525000B1F783E695E0DF91CF911F910F9108950B
:105260008F929F92AF92BF920F931F93CF93DF9332
:10527000CDB7DEB7A1970FB6F894DEBF0FBECDBF96
:1052800019A2423008F44AE08E010F5D1F4F842EB0
:10529000912CA12CB12CA50194010E94F037E62F8E
:1052A000B901CA0101501109EA3014F4E05D01C0EE
:1052B000E95CD801EC93232B242B252B61F7B80153
:1052C00089E895E00E94B418A1960FB6F894DEBF65
:1052D0000FBECDBFDF91CF911F910F91BF90AF90C7
:1052E0009F908F900895CF93DF93AB01672B61F46C
:1052F000E0918905F0918A050190F081E02D682FF9
:1053000089E895E0099506C0682F70E080E090E09C
:105310000E943029EC0189E895E00E94C9188C0FA1
:105320009D1FDF91CF910895CF93DF93BC0180E063
:1053300090E04AE00E943029EC0189E895E00E9463
:10534000C9188C0F9D1FDF91CF910895CF92DF92E6
:10535000EF92FF92CF93DF936C01990FEE08FF0855
:10536000F7FE1AC0E0918905F0918A050190F0815D
:10537000E02D6DE289E895E00995EC016627772735
:10538000CB016C197D098E099F094AE00E943029E2
:105390007C01EC0EFD1E06C04AE0C701B6010E946A
:1053A00030297C0189E895E00E94C9188E0D9F1D67
:1053B000DF91CF91FF90EF90DF90CF9008950F9302
:1053C0001F93CF93DF93FC01248135812115310593
:1053D00019F4FB01108211C0EA0121972C173D0737
:1053E00008F4E9018B01FC0160817181AE01C80103
:1053F0000E947E3AC00FD11F1882DF91CF911F917A
:105400000F9108950F931F93CF938C0180916205A4
:1054100081110AC00E943B2260935E0570935F0574
:105420008093600590936105C1E0C0936205B80167
:105430008CE596E00E94741710925D05C0935C05A0
:10544000CF911F910F910895CF93DF9300D0CDB7E7
:10545000DEB789831A8241E050E0BE016F5F7F4F63
:1054600080E596E00E9436160F900F90DF91CF9165
:1054700008957F928F929F92AF92BF92CF92DF92C8
:10548000EF92FF920F931F93CF93DF93CDB7DEB7C9
:105490006E970FB6F894DEBF0FBECDBF7C01162FFE
:1054A0006CED72E0CE0101960E942718BE016F5F7D
:1054B0007F4FC7010E94B0154AE0BC01CE0107969C
:1054C0000E94BC17CE0107960E94AA14AB014F5F41
:1054D0005F4FB701CE0143960E94A520CE010796EB
:1054E0000E948B17CE0101960E948B1760E173E03A
:1054F000CE0101960E942718BE016F5F7F4FCE013B
:1055000043960E94BA15C92ECE0101960E948B17B0
:1055100062E173E0CE0101960E942718BE016F5F21
:105520007F4FCE0143960E94BA15D92ECE01019627
:105530000E948B17D094DD1CDD24DD1C64E173E038
:10554000CE0101960E942718BE016F5F7F4FCE01EA
:1055500043960E94BA15E92ECE0101960E948B1740
:10556000E094EE1CEE24EE1C66E173E0CE010196A1
:105570000E942718BE016F5F7F4FCE0143960E94A5
:10558000BA15F92ECE0101960E948B17F094FF1CDC
:10559000FF24FF1C65E073E0CE0107960E942718E8
:1055A00060E173E0CE0101960E942718AE01495FC9
:1055B0005F4FBE016F5F7F4FCE0143960E94B514CF
:1055C000CE0101960E948B17CE0107960E948B1781
:1055D00065E073E0CE0107960E94271862E173E050
:1055E000CE0101960E942718AE01495F5F4FBE01B0
:1055F0006F5F7F4FCE0143960E94B514CE01019696
:105600000E948B17CE0107960E948B1765E073E00E
:10561000CE0107960E94271864E173E0CE0101963F
:105620000E942718AE01495F5F4FBE016F5F7F4F39
:10563000CE0143960E94B514CE0101960E948B17AD
:10564000CE0107960E948B1765E073E0CE010796A6
:105650000E94271866E173E0CE0101960E94271888
:10566000AE01495F5F4FBE016F5F7F4FCE01439632
:105670000E94B514CE0101960E948B17CE010796A9
:105680000E948B1765E073E0CE0107960E942718F1
:105690006EED72E0CE0101960E942718AE01495FBF
:1056A0005F4FBE016F5F7F4FCE0143960E94B514DE
:1056B000CE0101960E948B17CE0107960E948B1790
:1056C00063EE72E0CE0101960E942718BE016F5F63
:1056D0007F4FCE0143960E94BA154AE0BC01CE012D
:1056E00007960E94BC17CE0107960E94AA149B0140
:1056F00040E050E0BE016D5E7F4FCE010D960E94EE
:105700003C18CE0107960E948B17CE0101960E948D
:105710008B1763EE72E0CE0101960E942718BE013E
:105720006F5F7F4FCE0143960E94B0154AE0BC01E7
:10573000CE0149960E94BC17CE0149960E94AA1438
:10574000AB014F5F5F4FBE016D5E7F4FCE0107968D
:105750000E94A520CE0149960E948B17CE0101968A
:105760000E948B17113009F0C9C0CE010D960E941E
:10577000AA14062FBE01695F7F4FCE0149960E9491
:105780001E1864EF73E08091CB019091CC010E94D0
:105790003B24BC01CE0101960E9427188D819E8179
:1057A000892B39F0E981FA818081882319F010E092
:1057B00001C011E0CE0101960E948B17112361F008
:1057C00068E778E089E895E00E94DF180E941927D1
:1057D0000E94661B10E001C011E08EEF800F8A303E
:1057E00058F06AE578E089E895E00E94DF180E94A9
:1057F00019270E94661B10E086EB882E81E0982E08
:10580000A12CB12C64EF73E0F401858996890E9484
:105810003B24BC01CE0101960E942718BE01675EA1
:105820007F4FCE0101960E94D415782ECE010196AD
:105830000E948B17C50101965C01772071F06BE225
:1058400078E089E895E00E949018C5010E94A62999
:105850000E9419270E94661B10E097E1890E911C97
:10586000EAE0AE16B10471F6113009F040C041E132
:1058700050E063EE73E0CE0149960E94DF290150AB
:10588000F7E10F9F800111240A541E4F63EE73E06D
:10589000F801858996890E9461246C2D6095661FA8
:1058A0006627661FF8018589968942960E9494248E
:1058B000F801858996896D2D43960E949424F801FC
:1058C000858996896E2D44960E949424F8018589D5
:1058D00096896F2D45960E9494246EE178E089E8C0
:1058E00095E00E94DF180E9419270E944E1B0E941B
:1058F0002C1DCE0149960E948B1726C0123021F52F
:105900008091CB019091CC016D2D43960E949424FF
:105910008091CB019091CC016E2D44960E949424ED
:105920008091CB019091CC016F2D45960E949424DB
:105930006FE978E089E895E00E94DF180E94192756
:105940000E944E1B0E942C1DCE0107960E948B17B1
:10595000CE010D960E948B17CE0143960E948B17A5
:105960006E960FB6F894DEBF0FBECDBFDF91CF911C
:105970001F910F91FF90EF90DF90CF90BF90AF906D
:105980009F908F907F9008951F93CF93DF93CDB713
:10599000DEB762970FB6F894DEBF0FBECDBF182FEB
:1059A0006093070183E190E00E949424113079F51F
:1059B00080910804813059F563EE72E0CE010796BC
:1059C0000E94271864E476E0CE0107960E94011732
:1059D000BC01CE010D960E941E186BE078E0CE014E
:1059E00001960E94151840E0BE01635F7F4FCE0113
:1059F00001960E94B325CE0101960E948B17CE011D
:105A00000D960E948B17CE0107960E948B17629607
:105A10000FB6F894DEBF0FBECDBFDF91CF911F91BF
:105A20000895CF93DF93CDB7DEB7AB970FB6F89459
:105A3000DEBF0FBECDBF789484B5826084BD84B5CF
:105A4000816084BD85B5826085BD85B5816085BD79
:105A500080916E00816080936E0010928100809131
:105A600081008260809381008091810081608093B9
:105A70008100809180008160809380008091B100DE
:105A800084608093B1008091B00081608093B00009
:105A900080917A00846080937A0080917A0082609D
:105AA00080937A0080917A00816080937A0080915F
:105AB0007A00806880937A001092C1000E94EE28DC
:105AC0001092CA031092CB031092800310927F03AE
:105AD0001092A90381E08093A8031092A30361E0D0
