:100000000C942D040C9455040C9455040C94121764
:100010000C9412170C9412170C9455040C9455045C
:100020000C9455040C9455040C9455040C945504EC
:100030000C9455040C9455040C9455040C945504DC
:100040000C949A150C9455040C9467200C94412040
:100050000C9455040C9455040C9455040C945504BC
:100060000C94E4150C94550450686F6E652061641F
:100070006465642E004572726F722C207468697317
:100080002070686F6E6520616C72656164792065AF
:10009000786973747320696E207468652063656C79
:1000A0006C3A20004572726F722C2077726F6E6707
:1000B000206E756D626572206F662063656C6C736F
:1000C0002E004572726F722C2066697273742072F2
:1000D000656769737465722061207072696D617201
:1000E000792070686F6E652E004572726F722064A1
:1000F000656C6574696E672070686F6E653A202B59
:100100000044656C6574652070686F6E653A202BDD
:1001100000506175736554696D652069733A2000FC
:1001200044656C61794265666F726547756172649A
:100130002069733A200044656C61794265666F728C
:1001400065416C61726D2069733A20005761746378
:1001500068506F77657254696D652069733A200045
:1001600057617463682074686520706F77657220CA
:100170004F464600477561726420627574746F6EF5
:100180003A204F4E2F4F4646206D6F6465004775ED
:1001900061726420627574746F6E3A204F4E206DE8
:1001A0006F646500477561726420627574746F6E68
:1001B000204F46460053656E736F72206461746110
:1001C0002073617665642E004572726F72207365CC
:1001D0006E736F72206E756D626572006661696C18
:1001E00065642E007061737365642E0054657374CA
:1001F00020004661696C65642063656C6C3A200080
:100200004200454550524F4D3A2000437572726589
:100210006E74204944203D20004E6F206D6F646550
:100220006D2E0053494D3830304C004D3539306516
:1002300000456D756C6174653A2000507265766991
:100240006F7573204944203D200041542B43555382
:10025000443D312C2200534D532072656D6F7665FD
:1002600064003400302C340041542B434D47443D4E
:1002700000636C656172736D73006C65646F6666B4
:10028000006C65646F6E00746573746F66660074ED
:100290006573746F6E004E2E200046462E20004976
:1002A0006E666F3A20504952204F00696E666F00AB
:1002B00067756172646F66660067756172646F6E00
:1002C000007061757365006D6F6E6579003D006D3E
:1002D0006F64656D6964006C69737470686F6E65D6
:1002E000006932637363616E006D656D746573746C
:1002F000006C69737473656E736F72006C697374EC
:10030000636F6E666967006564697473656E736FA9
:1003100072006775617264627574746F6E6F666681
:10032000006775617264627574746F6E6F6E32000F
:100330006775617264627574746F6E6F6E31007789
:1003400061746368706F7765726F66660077617459
:100350006368706F7765726F6E320077617463687F
:10036000706F7765726F6E3100504952204F46466C
:10037000007069726F666600504952204F4E0070DF
:1003800069726F6E00536D73204F464600736D7334
:100390006F666600536D73204F4E00736D736F6E02
:1003A0000052696E67204F46460072696E676F663D
:1003B000660052696E67204F4E0072696E676F6EFD
:1003C000007265736574636F6E666967007265734A
:1003D000657470686F6E650066756C6C72657365C8
:1003E0007400616C61726D70696E74696D6500771F
:1003F00061746368706F77657274696D65006465B8
:100400006C61796265666F7265616C61726D0064C2
:10041000656C61796265666F7265677561726400AB
:10042000736C65657074696D650062616C616E63A3
:10043000656E756D0064656C65746570686F6E657A
:100440000061646470686F6E65004C6F6164206465
:10045000656661756C742073656E736F722064617C
:1004600074612E0044656C6574696E672073656EF7
:10047000736F7220646174612E0053696C656E74D1
:10048000206D6F646521004F46462E004F4E2E00B2
:1004900047534D20416C61726D2031372E30352E1F
:1004A000323300506F77657220737570706C7920ED
:1004B000726573746F72656400506F776572207334
:1004C0007570706C7920646973636F6E6E656374A8
:1004D000656420004D61696E2073656E736F7221D3
:1004E000005049522073656E736F722100206D6950
:1004F0006E757465732061676F005072696D61720B
:10050000792070686F6E653A202B0041542B434868
:1005100055500041542B435553443D3000555353DF
:10052000442071756572793A20002B435553443A43
:1005300000534D532066726F6D3A202B002C220021
:100540002C2C002B434D543A0052696E6720667282
:100550006F6D3A202B002C0052494E470053656EB8
:10056000736F7220646174613A003B004154442B04
:1005700000220041542B434D47533D2200477561F3
:100580007264204F4E004775617264204F4E2E00FA
:1005900000000000240027002A00000000080002DC
:1005A00001000003040700000000000000004C658B
:1005B0006E67746820746F2072657475726E3A206D
:1005C000004E756D6265723A20004C6F6164206464
:1005D000656661756C742062616C616E6365206430
:1005E0006174612E0044656C6574696E6720626198
:1005F0006C616E636520646174612E00416C617290
:100600006D496E74657276616C2069733A20004C96
:100610006F61642064656661756C742070686F6ECC
:100620006520646174612E0044656C6574696E6751
:100630002070686F6E6520646174612E0052656180
:10064000642061727261792070686F6E653A00444F
:10065000656C61794265666F7265416C61726D3A75
:10066000200044656C61794265666F72654775610B
:1006700072643A20004775617264427574746F6EDB
:100680003A20005761746368506F77657254696DE2
:10069000653A20005761746368506F7765723A203D
:1006A0000050495247756172643A2000416C617292
:1006B0006D50696E54696D653A2000536C656570C4
:1006C00054696D653A200047756172643A20004CA8
:1006D00065643A2000546573743A2000416C61727D
:1006E0006D52696E673A200053656E64536D733ABC
:1006F00020005265616420656570726F6D636F6E76
:100700006669673A004C6F61642064656661756C68
:100710007420656570726F6D636F6E6669672064C3
:100720006174612E0044656C6574696E672065654F
:1007300070726F6D636F6E66696720646174612E9D
:10074000004154453000415445310041542B434E43
:100750004D493D322C320041542B435343533D22EB
:1007600047534D220041542B434D47463D310041F4
:10077000542B434C49503D310041360053494D38CC
:100780003030004D35393000415449004154004764
:1007900075617264204F4646004775617264204F50
:1007A00046462E0020427574746F6E002050686FAC
:1007B0006E65202B0020436F6E736F6C6500000028
:1007C0000000250028002B00000000002300260068
:1007D00029000404040404040404020202020202C4
:1007E00003030303030301020408102040800102F5
:1007F0000408102001020408102057617463682067
:1008000074686520706F776572204F4E00493243DF
:100810002064657669636573206E6F7420666F75FA
:100820006E640030004572726F72206174203078FF
:1008300000646574656374656420504346383537D9
:100840003400300049324320646576696365206175
:10085000742030780000C232863211241FBECFEFE0
:10086000D8E0DEBFCDBF13E0A0E0B1E0E8ECFFE6EA
:1008700002C005900D92A232B107D9F726E0A2E29C
:10088000B3E001C01D92AF35B207E1F714E0CCE24E
:10089000D4E004C02197FE010E947935CB32D10704
:1008A000C9F70E94F4290C94D7370C9400009F924A
:1008B000AF92BF92CF92DF92EF92FF920F931F936E
:1008C000CF93DF93CDB7DEB7E0970FB6F894DEBFD6
:1008D0000FBECDBF8091DF03813031F469E276E055
:1008E00082E695E00E941D206DEF72E0CE014296F7
:1008F0000E94771F63EC72E0CE0101960E94771F81
:10090000AE014E5E5F4FBE016F5F7F4F89E296E0A2
:100910000E94311CCE0101960E94071FCE01429613
:100920000E94071F6DEF72E0CE0142960E94771F72
:100930006CEF72E0CE0101960E94771FAE014E5E11
:100940005F4FBE016F5F7F4F89E296E00E94311CCE
:10095000CE0101960E94071FCE0142960E94071FFA
:100960000091290610912A060115110539F480918C
:10097000E303813011F00C9414110DC0F801808153
:100980008823A9F3082E000C990B0E947B37F801ED
:1009900081938F01F3CF61E474E0CE0101960E9450
:1009A000651FBE016F5F7F4F89E296E00E94361D92
:1009B0008C01CE0101960E94071F17FDC6C169E296
:1009C00076E0CE018A960E946E1F65EC72E0CE0141
:1009D00042960E94771FBE016E5E7F4FCE018A96BF
:1009E0000E942C1D4AE0BC01CE0101960E940C1F02
:1009F000CE0101960E94261CAB014F5F5F4FBE01E6
:100A0000665D7F4FCE0184960E944B27CE010196F2
:100A10000E94071FCE0142960E94071F67EC72E0FA
:100A2000CE0101960E94771FBE016F5F7F4FCE01FE
:100A300084960E94361DC92ECE0101960E94071F82
:100A400069EC72E0CE0101960E94771FBE016F5FD4
:100A50007F4FCE0184960E94361DD92ECE0101967D
:100A60000E94071F6DEF72E0CE0101960E94771F72
:100A700067EC72E0CE0142960E94771FAE014F5F95
:100A80005F4FBE016E5E7F4FCE0184960E94311C87
:100A9000CE0142960E94071FCE0101960E94071FB9
:100AA0006DEF72E0CE0101960E94771F69EC72E053
:100AB000CE0142960E94771FAE014F5F5F4FBE018D
:100AC0006E5E7F4FCE0184960E94311CCE0142960D
:100AD0000E94071FCE0101960E94071F6DEF72E072
:100AE000CE0101960E94771F6BEC72E0CE01429618
:100AF0000E94771FAE014F5F5F4FBE016E5E7F4F5A
:100B0000CE0184960E94311CCE0142960E94071F9E
:100B1000CE0101960E94071F60ED72E0CE01429661
:100B20000E94771FBE016E5E7F4FCE0184960E94A9
:100B3000361D4AE0BC01CE0101960E940C1FCE0179
:100B400001960E94261C9B0140E050E0BE016C5DB6
:100B50007F4FCE014E960E948C1FCE0101960E94BF
:100B6000071FCE0142960E94071F60ED72E0CE0182
:100B700042960E94771FBE016E5E7F4FCE01849623
:100B80000E942C1D4AE0BC01CE0101960E940C1F60
:100B9000CE0101960E94261CAB014F5F5F4FBE0144
:100BA0006C5D7F4FCE0148960E944B27CE01019687
:100BB0000E94071FCE0142960E94071FCE014E964B
:100BC0000E94261C062FBE01685E7F4FCE01429612
:100BD0000E946E1F6EEC73E08091C8019091C90174
:100BE0000E948E17BC01CE0101960E94771FCE0194
:100BF00001960E945727182FCE0101960E94071FC9
:100C0000112361F062EC70E082E695E00E942F20F3
:100C10000E94A1280E947C2210E001C011E08EEF0A
:100C2000800F8A3058F064EA70E082E695E00E9416
:100C30002F200E94A1280E947C2210E045EBA42EC8
:100C400041E0B42EE12CF12C6EEC73E0F5018389C8
:100C500094890E948E17BC01CE0101960E94771FD5
:100C6000BE016E5E7F4FCE0101960E94501D982EF0
:100C7000CE0101960E94071F97012F5F3F4F790118
:100C8000992071F065E770E082E695E00E94E01F30
:100C9000C7010E940E280E94A1280E947C2210E019
:100CA00035E1A30EB11C8AE0E816F10469F61130B3
:100CB000B1F541E150E06DEB73E0CE0142960E9448
:100CC0004728015095E1099F800111240B541E4FC4
:100CD0006DEB73E0F801838994890E94B4176C2D41
:100CE0006095661F6627661FF8018389948942967E
:100CF0000E94E7176D2D6095661F6627661FF80135
:100D00008389948943960E94E71768E670E082E63B
:100D100095E00E942F200E94A1280E9464220E9438
:100D20004224CE0142960E94071FCE0148960E949F
:100D3000071FCE014E960E94071FCE0184960E9487
:100D4000071FCE018A960E94071F65E374E0CE015B
:100D500001960E94651FBE016F5F7F4F89E296E09A
:100D60000E94361D8C01CE0101960E94071F17FDBF
:100D7000FFC069E276E0CE0184960E946E1F65ECAA
:100D800072E0CE0142960E94771FBE016E5E7F4FD9
:100D9000CE0184960E942C1D4AE0BC01CE01019632
:100DA0000E940C1FCE0101960E94261CAB014F5FD2
:100DB0005F4FBE016C5D7F4FCE014E960E944B2768
:100DC000CE0101960E94071FCE0142960E94071F86
:100DD0006DEF72E0CE0101960E94771F6BEC72E01E
:100DE000CE0142960E94771FAE014F5F5F4FBE015A
:100DF0006E5E7F4FCE014E960E94311CCE01429610
:100E00000E94071FCE0101960E94071F60ED72E04D
:100E1000CE0142960E94771FBE016E5E7F4FCE01CB
:100E20004E960E942C1D4AE0BC01CE0101960E9404
:100E30000C1FCE0101960E94261CAB014F5F5F4F35
:100E4000BE01625E7F4FCE0148960E944B27CE01C5
:100E500001960E94071FCE0142960E94071FBE0105
:100E6000685E7F4FCE0142960E946E1F0DED11E02D
:100E700021E03DE0F32E6E01F5E0CF0ED11C6EECCB
:100E800073E0F8018081918128AB0E948E17BC012C
:100E9000CE0101960E94771FBE016E5E7F4FCE018C
:100EA00001960E94501DE82ECE0101960E94071F58
:100EB00028A9EE2099F119821A821B821C82F60160
:100EC0002F2D11922A95E9F7BE016F5F7F4FF80130
:100ED000808191810E94B417F8018081918160E046
:100EE00042960E94E717F8018081918160E0439665
:100EF0000E94E71761E071E082E695E00E94E01F42
:100F0000BE016E5E7F4F82E695E00E941D200E942A
:100F1000A1280E9442240E94642220E00B5E1F4F01
:100F2000F2E00A391F0709F0AACF213089F469EEEF
:100F300070E082E695E00E94E01FBE016E5E7F4F8A
:100F400082E695E00E941D200E94A1280E947C223A
:100F5000CE0142960E94071FCE0148960E94071FAD
:100F6000CE014E960E94071FCE0184960E94071F55
:100F70006AE274E0CE0101960E94651FBE016F5FB8
:100F80007F4F89E296E00E94361D8C01CE010196CA
:100F90000E94071F17FDB5C065EC72E0CE010196F7
:100FA0000E94771FBE016F5F7F4F89E296E00E942B
:100FB0002C1D4AE0BC01CE0142960E940C1FCE01BE
:100FC00042960E94261CAB014F5F5F4F69E276E0BC
:100FD000CE0148960E944B27CE0142960E94071FE1
:100FE000CE0101960E94071F62ED72E0CE010196CC
:100FF0000E94771FBE016F5F7F4FCE0148960E940F
:10100000361D4AE0BC01CE014E960E940C1FCE0157
:101010004E960E94261C9B0140E050E0BE01685E97
:101020007F4FCE0142960E948C1FCE014E960E94A9
:10103000071FCE0101960E94071F62ED72E0CE01EC
:101040004E960E94771FBE01625E7F4F89E296E056
:101050000E942C1D4AE0BC01CE0184960E940C1F08
:10106000CE0184960E94261CAB014F5F5F4F69E260
:1010700076E0CE0101960E944B27CE0184960E9415
:10108000071FCE014E960E94071FCE0101960E94B7
:10109000261C162FBE016E5E7F4FCE014E960E941B
:1010A0006E1F41E150E062E273E0CE014E960E9475
:1010B000472862E273E08EE190E00E94B417612F4E
:1010C00080E390E00E94E71761E081E390E00E94F6
:1010D000E7170E94C32682E695E00E9419200E942D
:1010E0006422CE014E960E94071FCE0101960E94F7
:1010F000071FCE0142960E94071FCE0148960E940C
:10110000071F60E274E0CE0101960E94651FBE01D8
:101110006F5F7F4F89E296E00E94361D8C01CE0101
:1011200001960E94071F17FD63C065EC72E0CE01B7
:1011300001960E94771FBE016F5F7F4F89E296E0A4
:101140000E942C1D4AE0BC01CE0148960E940C1F53
:10115000CE0148960E94261CAB014F5F5F4F69E2AB
:1011600076E0CE0142960E944B27CE0148960E941F
:10117000071FCE0101960E94071FBE016E5E7F4FC2
:10118000CE0101960E946E1FCE0101960E94261C80
:10119000DC01CB010197A109B109CC97A105B105EB
:1011A00010F00C943913CE0101960E94261C162FC4
:1011B0008FE090E00E94E7171093000161E171E079
:1011C00082E695E00E94E01F8FE090E00E94F71712
:1011D0006AE070E00E94ED270E94A1280E9464222C
:1011E000CE0101960E94071FCE0142960E94071F62
:1011F0006FE074E0CE0101960E94651FBE016F5F33
:101200007F4F89E296E00E94361D8C01CE01019647
:101210000E94071F17FD60C065EC72E0CE010196C9
:101220000E94771FBE016F5F7F4F89E296E00E94A8
:101230002C1D4AE0BC01CE0148960E940C1FCE0135
:1012400048960E94261CAB014F5F5F4F69E276E033
:10125000CE0142960E944B27CE0148960E94071F5E
:10126000CE0101960E94071FBE016E5E7F4FCE0128
:1012700001960E946E1FCE0101960E94261C6F3FB0
:1012800071058105910519F010F00C944D13CE01F4
:1012900001960E94261C162F85E190E00E94E71718
:1012A0001093FB0360E271E082E695E00E94E01F8C
:1012B00085E190E00E94F7176AE070E00E94ED2758
:1012C0000E94A1280E946422CE0101960E94071F5D
:1012D000CE0142960E94071F6EEF73E0CE01019689
:1012E0000E94651FBE016F5F7F4F89E296E00E94FA
:1012F000361D8C01CE0101960E94071F17FD60C0AC
:1013000065EC72E0CE0101960E94771FBE016F5F0F
:101310007F4F89E296E00E942C1D4AE0BC01CE017D
:1013200048960E940C1FCE0148960E94261CAB01D5
:101330004F5F5F4F69E276E0CE0142960E944B27F5
:10134000CE0148960E94071FCE0101960E94071FFA
:10135000BE016E5E7F4FCE0101960E946E1FCE01D0
:1013600001960E94261C6F3F71058105910519F0B9
:1013700010F00C946113CE0101960E94261C162FCA
:1013800086E190E00E94E7171093BC0366E371E0EA
:1013900082E695E00E94E01F86E190E00E94F71748
:1013A0006AE070E00E94ED270E94A1280E9464225A
:1013B000CE0101960E94071FCE0142960E94071F90
:1013C0006FEE73E0CE0101960E94651FBE016F5F54
:1013D0007F4F89E296E00E94361D8C01CE01019676
:1013E0000E94071F17FD60C065EC72E0CE010196F8
:1013F0000E94771FBE016F5F7F4F89E296E00E94D7
:101400002C1D4AE0BC01CE0148960E940C1FCE0163
:1014100048960E94261CAB014F5F5F4F69E276E061
:10142000CE0142960E944B27CE0148960E94071F8C
:10143000CE0101960E94071FBE016E5E7F4FCE0156
:1014400001960E946E1FCE0101960E94261C6F3FDE
:1014500071058105910519F010F00C947513CE01FA
:1014600001960E94261C162F87E190E00E94E71744
:101470001093BB036CE471E082E695E00E94E01FEC
:1014800087E190E00E94F7176AE070E00E94ED2784
:101490000E94A1280E946422CE0101960E94071F8B
:1014A000CE0142960E94071F62EE73E0CE010196C4
:1014B0000E94651FBE016F5F7F4F89E296E00E9428
:1014C000361D8C01CE0101960E94071F17FD4EC0EC
:1014D00065EC72E0CE0101960E94771FBE016F5F3E
:1014E0007F4F89E296E00E942C1D4AE0BC01CE01AC
:1014F00042960E940C1FCE0142960E94261CAB0110
:101500004F5F5F4F69E276E0CE0148960E944B271D
:10151000CE0142960E94071FCE0101960E94071F2E
:10152000BE01685E7F4FCE0142960E946E1FCE01C3
:1015300042960E94261CDC01CB010197A109B1094A
:10154000803C984AA105B10510F00C948913CE0196
:1015500042960E94261CCB010E941825CE0142967D
:101560000E94071FCE0148960E94071F68ED73E096
:10157000CE0101960E94651FBE016F5F7F4F89E219
:1015800096E00E94361D8C01CE0101960E94071F35
:1015900017FD1AC06FEF80E090E00E94E7170E94ED
:1015A00043256FEF83E690E00E94E7170E94B22484
:1015B0006FEF81E390E00E94E7170E94C3260E942C
:1015C0006422E0E0F0E009956DEC73E0CE01019655
:1015D0000E94651FBE016F5F7F4F89E296E00E9407
:1015E000361D8C01CE0101960E94071F17FD0CC00D
:1015F0006FEF83E690E00E94E7170E94B2240E94FA
:101600006422E0E0F0E0099561EC73E0CE01019620
:101610000E94651FBE016F5F7F4F89E296E00E94C6
:10162000361D8C01CE0101960E94071F17FD0CC0CC
:101630006FEF80E090E00E94E7170E9443250E9430
:101640006422E0E0F0E009956AEB73E0CE010196D8
:101650000E94651FBE016F5F7F4F89E296E00E9486
:10166000361D8C01CE0101960E94071F17FD37C061
:1016700081E08093880261E08BE090E00E94E717B0
:101680008091E203813059F560ED72E0CE0142961F
:101690000E94771F6DE176E0CE0142960E947D1E8A
:1016A000BC01CE0148960E946E1F62EB73E0CE0132
:1016B00001960E94651F40E0BE01685E7F4FCE012B
:1016C00001960E94F917CE0101960E94071FCE01D4
:1016D00048960E94071FCE0142960E94071F6AEAA1
:1016E00073E0CE0101960E94651FBE016F5F7F4FC0
:1016F00089E296E00E94361D8C01CE0101960E947F
:10170000071F17FD36C01092880260E08BE090E062
:101710000E94E7178091E203813059F560ED72E095
:10172000CE0142960E94771F6DE176E0CE0142968F
:101730000E947D1EBC01CE0148960E946E1F61EA88
:1017400073E0CE0101960E94651F40E0BE01685E15
:101750007F4FCE0101960E94F917CE0101960E949B
:10176000071FCE0148960E94071FCE0142960E9495
:10177000071F6BE973E0CE0101960E94651FBE0151
:101780006F5F7F4F89E296E00E94361D8C01CE018B
:1017900001960E94071F17FD37C081E08093010169
:1017A00061E08AE090E00E94E7178091E2038130D7
:1017B00059F560ED72E0CE0142960E94771F6DE10F
:1017C00076E0CE0142960E947D1EBC01CE01489675
:1017D0000E946E1F64E973E0CE0101960E94651FAE
:1017E00040E0BE01685E7F4FCE0101960E94F9176E
:1017F000CE0101960E94071FCE0148960E94071F46
:10180000CE0142960E94071F6DE873E0CE0101965B
:101810000E94651FBE016F5F7F4F89E296E00E94C4
:10182000361D8C01CE0101960E94071F17FD36C0A0
:101830008091E203813059F560ED72E0CE0142966D
:101840000E94771F6DE176E0CE0142960E947D1ED8
:10185000BC01CE0148960E946E1F65E873E0CE0180
:1018600001960E94651F40E0BE01685E7F4FCE0179
:1018700001960E94F917CE0101960E94071FCE0122
:1018800048960E94071FCE0142960E94071F1092A1
:10189000010160E08AE090E00E94E7176FE773E0E3
:1018A000CE0101960E94651FBE016F5F7F4F89E2E6
:1018B00096E00E94361D8C01CE0101960E94071F02
:1018C00017FD37C081E08093B90361E082E190E0C9
:1018D0000E94E7178091E203813059F560ED72E0D4
:1018E000CE0142960E94771F6DE176E0CE014296CE
:1018F0000E947D1EBC01CE0148960E946E1F68E7C3
:1019000073E0CE0101960E94651F40E0BE01685E53
:101910007F4FCE0101960E94F917CE0101960E94D9
:10192000071FCE0148960E94071FCE0142960E94D3
:10193000071F61E773E0CE0101960E94651FBE019B
:101940006F5F7F4F89E296E00E94361D8C01CE01C9
:1019500001960E94071F17FD36C01092B90360E080
:1019600082E190E00E94E7178091E203813059F50F
:1019700060ED72E0CE0142960E94771F6DE176E045
:10198000CE0142960E947D1EBC01CE0148960E9467
:101990006E1F69E673E0CE0101960E94651F40E06C
:1019A000BE01685E7F4FCE0101960E94F917CE01FD
:1019B00001960E94071FCE0148960E94071FCE0184
:1019C00042960E94071F6BE573E0CE0101960E94CC
:1019D000651FBE016F5F7F4F89E296E00E94361D52
:1019E0008C01CE0101960E94071F17FD05C061E022
:1019F0008091E2030E94A7296DE473E0CE01019675
:101A00000E94651FBE016F5F7F4F89E296E00E94D2
:101A1000361D8C01CE0101960E94071F17FD05C0DF
:101A200062E08091E2030E94A7296FE373E0CE0198
:101A300001960E94651FBE016F5F7F4F89E296E0AD
:101A40000E94361D8C01CE0101960E94071F17FDD2
:101A50003AC01091E2031092060160E083E190E049
:101A60000E94E717113079F58091E203813059F532
:101A700060ED72E0CE0142960E94771F6DE176E044
:101A8000CE0142960E947D1EBC01CE0148960E9466
:101A90006E1F60E671E0CE0101960E94651F40E076
:101AA000BE01685E7F4FCE0101960E94F917CE01FC
:101AB00001960E94071FCE0148960E94071FCE0183
:101AC00042960E94071F60E373E0CE0101960E94D8
:101AD000651FBE016F5F7F4F89E296E00E94361D51
:101AE0008C01CE0101960E94071F17FD3BC010918B
:101AF000E20381E080935C0361E084E190E00E9476
:101B0000E717113079F58091E203813059F560EDE6
:101B100072E0CE0142960E94771F6DE176E0CE0121
:101B200042960E947D1EBC01CE0148960E946E1F07
:101B300064E771E0CE0101960E94651F40E0BE019E
:101B4000685E7F4FCE0101960E94F917CE01019683
:101B50000E94071FCE0148960E94071FCE014296A1
:101B60000E94071F61E273E0CE0101960E94651F8B
:101B7000BE016F5F7F4F89E296E00E94361D8C01A7
:101B8000CE0101960E94071F17FD3BC01091E20392
:101B900082E080935C0362E084E190E00E94E717BA
:101BA000113079F58091E203813059F560ED72E0F2
:101BB000CE0142960E94771F6DE176E0CE014296FB
:101BC0000E947D1EBC01CE0148960E946E1F6EE8E9
:101BD00071E0CE0101960E94651F40E0BE01685E83
:101BE0007F4FCE0101960E94F917CE0101960E9407
:101BF000071FCE0148960E94071FCE0142960E9401
:101C0000071F62E173E0CE0101960E94651FBE01CD
:101C10006F5F7F4F89E296E00E94361D8C01CE01F6
:101C200001960E94071F17FD3AC01091E20310921F
:101C30005C0360E084E190E00E94E717113079F5E1
:101C40008091E203813059F560ED72E0CE01429659
:101C50000E94771F6DE176E0CE0142960E947D1EC4
:101C6000BC01CE0148960E946E1F64EA71E0CE016D
:101C700001960E94651F40E0BE01685E7F4FCE0165
:101C800001960E94F917CE0101960E94071FCE010E
:101C900048960E94071FCE0142960E94071F67E0E8
:101CA00073E0CE0101960E94651FBE016F5F7F4FFA
:101CB00089E296E00E94361D8C01CE0101960E94B9
:101CC000071F17FD26C169E276E0CE018A960E94C1
:101CD0006E1F65EC72E0CE0142960E94771FBE0136
:101CE0006E5E7F4FCE018A960E942C1D4AE0BC0199
:101CF000CE0101960E940C1FCE0101960E94261C67
:101D0000AB014F5F5F4FBE01665D7F4FCE01849692
:101D10000E944B27CE0101960E94071FCE014296DA
:101D20000E94071F64ED72E0CE0101960E94771FAA
:101D3000BE016F5F7F4FCE0184960E94361D092F32
:101D4000CE0101960E94071F6DEF72E0CE01019651
:101D50000E94771F64ED72E0CE0142960E94771FC9
:101D6000AE014F5F5F4FBE016E5E7F4FCE01849626
:101D70000E94311CCE0142960E94071FCE0101969F
:101D80000E94071F60ED72E0CE0142960E94771F0D
:101D9000BE016E5E7F4FCE0184960E94361D4AE0E2
:101DA000BC01CE0101960E940C1FCE0101960E943B
:101DB000261C9B0140E050E0BE016C5D7F4FCE01D0
:101DC0004E960E948C1FCE0101960E94071FCE01E5
:101DD00042960E94071F60ED72E0CE0142960E947B
:101DE000771FBE016E5E7F4FCE0184960E942C1D30
:101DF0004AE0BC01CE0101960E940C1FCE01019663
:101E00000E94261CAB014F5F5F4FBE016C5D7F4F90
:101E1000CE0148960E944B27CE0101960E94071FD3
:101E2000CE0142960E94071FCE014E960E94261CAC
:101E3000162FBE01685E7F4FCE0101960E946E1F75
:101E40001150183048F068EC71E082E695E00E948D
:101E50002F200E947C2245C046E250E063E373E0FD
:101E6000CE0101960E944728C12ED12C25E1129F58
:101E7000F0011124E95FFE4F8389948923E3E22E68
:101E800023E0F22EFC01E353F3405F01C5018E0D08
:101E90009F1DF70161917F019B8B8A8BCE0142963A
:101EA0000E942B27F9E5EF16F3E0FF0679F7602F84
:101EB0006095661F6627661F85E18C9DF0018D9DEC
:101EC000F00D1124E95FFE4F8389948987960E9463
:101ED000E71765EB71E082E695E00E942F200E94F3
:101EE00064220E94A1280E94321ACE0101960E940B
:101EF000071FCE0148960E94071FCE014E960E94F2
:101F0000071FCE0184960E94071FCE018A960E9469
:101F1000071F6CEF72E0CE0101960E94651FBE01A3
:101F20006F5F7F4F89E296E00E94361D8C01CE01E3
:101F300001960E94071F17FD04C00E9443250E94BE
:101F4000C32661EF72E0CE0101960E94651FBE01BB
:101F50006F5F7F4F89E296E00E94361D8C01CE01B3
:101F600001960E94071F17FF0E94321A69EE72E065
:101F7000CE0101960E94651FBE016F5F7F4F89E20F
:101F800096E00E94361D8C01CE0101960E94071F2B
:101F900017FD93C00E94FC332DEF30E040E050E08D
:101FA0000E94B73482E0D82ED60E62E072E082E65C
:101FB00095E00E94E01F4AE060E074E080E090E07D
:101FC0000E94AA2760E072E082E695E00E942F203E
:101FD00000E010E06D2DC8010E94A93465E070E0BA
:101FE00080E090E00E9454150F5F1F4F011524E020
:101FF000120781F7E12CF12C00E010E0C8010E94EB
:10200000F7178D1599F162EF71E082E695E00E9475
:10201000E01FC8010E94F717C82E1B8A1A8A1D8A62
:102020001C8A1F8A1E8A4AE0BE016F5F7F4FC8016B
:102030000E947734BE016F5F7F4FCE0142960E94AF
:10204000D91E61E176E0CE0142960E947D1E6C2D84
:102050000E94561EBC0182E695E00E941D20CE0122
:1020600042960E94071F3FEFE31AF30A65E070E013
:1020700080E090E00E9454150F5F1F4F011584E02F
:10208000180709F0BBCF6CEE71E082E695E00E9484
:10209000E01FE114F10409F060C364EE71E082E630
:1020A00095E00E942F200E94A12864EF71E080E05B
:1020B00090E00E945415F701099561EE72E0CE019F
:1020C00001960E94651FBE016F5F7F4F89E296E017
:1020D0000E94361D8C01CE0101960E94071F17FF3A
:1020E0000E94A52867ED72E0CE0101960E94651F4F
:1020F000BE016F5F7F4F89E296E00E94361D8C0122
:10210000CE0101960E94071F17FF0E9442246FEC28
:1021100072E0CE0101960E94651FBE016F5F7F4F86
:1021200089E296E00E94361D8C01CE0101960E9444
:10213000071F17FD77C06DEC72E0CE0142960E943A
:10214000651FBE016E5E7F4F89E296E00E942C1DE6
:102150004AE0BC01CE0148960E940C1FCE01489671
:102160000E94261CAB014F5F5F4F69E276E0CE0113
:1021700001960E944B27CE0148960E94071FCE0170
:1021800042960E94071FCE0101960E94261CDC0188
:10219000CB010197A109B1090A97A105B10508F082
:1021A000E3C2CE0101960E94261C162F6BE372E05B
:1021B00082E695E00E94E01F8091E503082E000C66
:1021C000990B0E940E2861E372E082E695E00E947E
:1021D000E01F113029F41093E5036BE272E00BC0AD
:1021E000123029F41093E50363E272E004C0109208
:1021F000E50369E172E082E695E00E942F206BE042
:1022000072E082E695E00E94E01F8091E503082ECF
:10221000000C990B0E940E280E94A128CE01019665
:102220000E94071F1092E30367EC72E0CE01019653
:102230000E94651FBE016F5F7F4F89E296E00E949A
:10224000361D8C01CE0101960E94071F17FD22C08A
:102250008091DF03813011F48093E10368EE73E035
:1022600080E090E00E9454156AE472E08BE396E00F
:102270000E94E01F6FE276E08BE396E00E94D21F9F
:1022800067ED72E08BE396E00E9404208BE396E01A
:102290000E94192061EC72E0CE0101960E94651F38
:1022A000BE016F5F7F4F89E296E00E94361D8C0170
:1022B000CE0101960E94071F17FD60C08091E203C6
:1022C000813009F04AC060ED72E0CE014E960E9466
:1022D000771F6DE176E0CE014E960E947D1EBC0117
:1022E000CE0184960E946E1F4AE060910001CE01EB
:1022F00042960E94381F6CED72E0CE0101960E945A
:10230000771FBE016E5E7F4FCE0101960E947D1E3B
:1023100063EE72E00E94641EBC01CE0148960E94EA
:102320006E1F41E0BE016C5D7F4FCE0148960E945A
:10233000F917CE0148960E94071FCE0101960E9410
:10234000071FCE0142960E94071FCE0184960E946D
:10235000071FCE014E960E94071F60E08BE00E948F
:10236000C2202091000130E0A0E6BAEE0E94423582
:102370000E94541561E08BE00E94C22069EB72E07C
:10238000CE0101960E94651FBE016F5F7F4F89E2FB
:1023900096E00E94361D8C01CE0101960E94071F17
:1023A00017FD04C08091DF030E94422260EB72E0BF
:1023B000CE0101960E94651FBE016F5F7F4F89E2CB
:1023C00096E00E94361D8C01CE0101960E94071FE7
:1023D00017FD0CC08091DF03813011F48093E1037D
:1023E0001092BA0310923B050E9451216BEA72E0F1
:1023F000CE0101960E94651FBE016F5F7F4F89E28B
:1024000096E00E94361D8C01CE0101960E94071FA6
:1024100017FD64C06FE972E0CE0101960E94651F4E
:102420008091B903811103C06AE972E002C066E9D4
:1024300072E0CE0101960E94821D40911B065091D0
:102440001C066091170670911806CE0101960E9435
:10245000B21D60ED77E080E090E00E94541580911D
:10246000E203813061F560ED72E0CE0148960E9492
:10247000771F6DE176E0CE0148960E947D1EBC017B
:10248000CE014E960E946E1FBE016F5F7F4FCE0140
:1024900042960E946E1F41E0BE01625E7F4FCE01F8
:1024A00042960E94F917CE0142960E94071FCE0164
:1024B0004E960E94071FCE0148960E94071F8091EA
:1024C000DF03813039F4BE016F5F7F4F82E695E014
:1024D0000E941D20CE0101960E94071F6FE872E046
:1024E000CE0101960E94651FBE016F5F7F4F89E29A
:1024F00096E00E94361D8C01CE0101960E94071FB6
:1025000017FD0AC081E08093E00361E08CE090E079
:102510000E94E7170E94CA2267E872E0CE01019686
:102520000E94651FBE016F5F7F4F89E296E00E94A7
:10253000361D8C01CE0101960E94071F17FD0DC0AC
:102540001092E00360E08CE090E00E94E71761E009
:102550008BE00E94C2200E94CA2261E872E0CE0194
:1025600001960E94651FBE016F5F7F4F89E296E072
:102570000E94361D8C01CE0101960E94071F17FD97
:102580000CC081E08093B20161E08DE090E00E9498
:10259000E71760E08CE00E94C2206AE772E0CE019B
:1025A00001960E94651FBE016F5F7F4F89E296E032
:1025B0000E94361D8C01CE0101960E94071F17FD57
:1025C0000BC01092B20160E08DE090E00E94E7172E
:1025D00061E08CE00E94C22061E772E0CE010196CA
:1025E0000E94651FBE016F5F7F4F89E296E00E94E7
:1025F000361D8C01CE0101960E94071F17FD23C0D6
:1026000068E672E08BE396E00E94E01F8091E503AC
:10261000813031F464E672E08BE396E00E942F2073
:102620008091E5038250823030F462E672E08BE301
:1026300096E00E942F2066E572E082E695E00E9417
:102640002F200E9464221092E2031092DF03E09692
:102650000FB6F894DEBF0FBECDBFDF91CF911F91B3
:102660000F91FF90EF90DF90CF90BF90AF909F9031
:1026700008954AE060910001CE0148960E94381FFB
:10268000BE01685E7F4FCE0101960E940B1ECE01F7
:1026900048960E94071F0C94D3084AE06091FB0300
:1026A000CE0148960E94381FBE01685E7F4FCE0162
:1026B00001960E940B1ECE0148960E94071F0C94A3
:1026C00047094AE06091BC03CE0148960E94381F3A
:1026D000BE01685E7F4FCE0101960E940B1ECE01A7
:1026E00048960E94071F0C94BB094AE06091BB0307
:1026F000CE0148960E94381FBE01685E7F4FCE0112
:1027000001960E940B1ECE0148960E94071F0C9452
:102710002F0A8091AF019091B0011F8E1E8E19A2D9
:1027200018A21BA21AA24AE0BE016F5F7F4F0E944F
:102730007734BE016F5F7F4FCE014E960E94D91E47
:10274000BE01625E7F4FCE0142960E940B1ECE01FB
:102750004E960E94071F0C94A70A6CED71E082E66A
:1027600095E00E942F20A9CC6091E503062E000C75
:10277000770B4AE0CE0142960E940C1FBE016E5EAE
:102780007F4FCE0101960E940B1ECE0142960E9401
:10279000071F07CD3FB7F89480913105909132051E
:1027A000A0913305B091340526B5A89B05C02F3FF5
:1027B00019F00196A11DB11D3FBFBA2FA92F982F67
:1027C0008827820F911DA11DB11DBC01CD0142E0E2
:1027D000660F771F881F991F4A95D1F7089585EDD9
:1027E0008093BC008091BC0084FDFCCF10928303D9
:1027F000089540910705262F30E0240F311D213226
:102800003105DCF4209183032430C9F4FC0180E01D
:1028100090E0861758F4309107052191DC01AB5107
:10282000BB4FA30FB11D2C930196F3CF80910705E9
:10283000680F6093070580E0089581E0089582E0C5
:1028400008950895E091A4038091A503E81730F45A
:10285000F0E0EC57FC4F808190E008958FEF9FEF00
:1028600008959091A4038091A503981750F4E92F3F
:10287000F0E0EC57FC4F208130E09F5F9093A40381
:1028800002C02FEF3FEFC90108958091A50390E0AA
:102890002091A403821B91090895CF92DF92EF92B9
:1028A000FF920F931F93CF93DF937C01262F972FD7
:1028B0008A0180912404882391F0C62FD72F6E01BE
:1028C000C40ED51ECC15DD0571F06991D701ED91CF
:1028D000FC910190F081E02DC7010995F3CF642FA1
:1028E000822F0E94F913C801DF91CF911F910F91A0
:1028F000FF90EF90DF90CF900895CF93DF931F92DA
:10290000CDB7DEB76983209124042223D1F0209132
:102910005903203240F021E030E0FC013383228370
:1029200080E090E015C080915A03E82FF0E0EC5F62
:10293000FB4F998190838F5F80935A038093590353
:1029400005C061E0CE0101960E94F91381E090E09C
:102950000F90DF91CF9108952091020430910304EC
:102960002817390771F49091010480910004981799
:1029700041F0E0910104F0E0EB5DFB4F808190E0DD
:1029800008958FEF9FEF089508951F93CF93DF93DE
:10299000DC015C962D913C915D972115310539F450
:1029A00081E090E013969C938E9312973DC05196D0
:1029B000ED91FC91529750969C915097892F80955C
:1029C0001FB75E964C915E9741FB772770F941FDEA
:1029D0006095F8944081772311F0492B01C048237A
:1029E0004083E9012197F1F748E0508160FF02C080
:1029F000592B01C058235083E9012197F1F76695BF
:102A0000415099F7772321F090818923808303C077
:102A10008081982B90831FBF5C968D919C915D97D0
:102A20000197F1F721E030E0C901DF91CF911F91CB
:102A3000089520910204309103042817390771F496
:102A4000809100042091010490E080549F4F821BEC
:102A5000910960EC70E00E945135089580E090E0AB
:102A60000895209102043091030428173907C9F40E
:102A70009091010480910004981799F0E09101046D
:102A8000F0E0EB5DFB4F20818091010490E0019626
:102A900060EC70E00E94513580930104822F90E039
:102AA00008958FEF9FEF08958F929F92AF92BF92FC
:102AB000CF92DF92EF92FF926B017C010E94CA13CA
:102AC0004B015C01C114D104E104F104F1F00E9456
:102AD000CA13DC01CB0188199909AA09BB09883EF0
:102AE0009340A105B10570F321E0C21AD108E108B5
:102AF000F10888EE880E83E0981EA11CB11CC11459
:102B0000D104E104F10419F7DDCFFF90EF90DF90DD
:102B1000CF90BF90AF909F908F9008952FB7F8946B
:102B200060912D0570912E0580912F0590913005B3
:102B30002FBF08951F920F920FB60F9211242F935B
:102B40003F938F939F93AF93BF9380912D05909167
:102B50002E05A0912F05B091300530912C0523E072
:102B6000230F2D3720F40196A11DB11D05C026E8C5
:102B7000230F0296A11DB11D20932C0580932D05D6
:102B800090932E05A0932F05B093300580913105C9
:102B900090913205A0913305B09134050196A11DA5
:102BA000B11D8093310590933205A0933305B09306
:102BB0003405BF91AF919F918F913F912F910F90CD
:102BC0000FBE0F901F9018951F920F920FB60F9285
:102BD00011242F933F934F935F936F937F938F9322
:102BE0009F93AF93BF93EF93FF938091B900887F3A
:102BF000803609F49CC068F5883209F45BC090F413
:102C0000803109F454C038F4882309F4F6C08830C0
:102C100009F44DC0F6C0883109F44CC0803209F483
:102C20005DC0EFC0803409F468C048F4803309F413
:102C300055C0883309F0E5C080938103D8C0803542
:102C400009F44FC0883509F45DC0883409F0D9C053
:102C5000D6C0883909F4C7C0A8F4883709F467C01A
:102C600038F4883609F463C0803709F460C0C9C0FD
:102C7000883809F4B8C0803909F45FC0803809F099
:102C8000C0C05BC0803B09F486C038F4803A09F4C8
:102C900066C0883A09F47FC0B4C0803C09F4A7C07C
:102CA000883C09F4A4C0883B09F48AC0AAC080917A
:102CB0007E0310C09091800380917F03981770F578
:102CC000E091800381E08E0F80938003F0E0E35A6F
:102CD000FC4F80818093BB0085EC86C0809381038C
:102CE0008EC0E091800381E08E0F809380038091FD
:102CF000BB00F0E0E35AFC4F808390918003809109
:102D00007F036EC0E091800381E08E0F809380038B
:102D10008091BB00F0E0E35AFC4F808380918203F6
:102D200081116DC081E080937D0384EA61C083E0FE
:102D30008093830310922B05CFCF80912B05803297
:102D400008F051C0E0912B0581E08E0F80932B0598
:102D50008091BB00F0E0E55FFA4F8083BDCF85EC4A
:102D60008093BC001092830380912B05803230F455
:102D7000E0912B05F0E0E55FFA4F108260912B05A2
:102D800070E0E0910905F0910A058BE095E0099566
:102D900010922B0536C084E08093830310920805BF
:102DA00010920705E0910505F091060509958091BF
:102DB0000705811105C081E0809307051092E504A5
:102DC000E091080581E08E0F80930805F0E0EB515B
:102DD000FB4F80818093BB0090910805809107058F
:102DE000981708F479CF85E88093BC000AC085EC79
:102DF0008093BC001092830304C0109281030E9450
:102E0000EF13FF91EF91BF91AF919F918F917F91C0
:102E10006F915F914F913F912F910F900FBE0F9047
:102E20001F9018951F920F920FB60F9211242F9397
:102E30003F934F935F936F937F938F939F93AF9342
:102E4000BF93EF93FF93E0910204F0910304309756
:102E500009F453C0968DA685B785858591FF04C07A
:102E60009C91892329F449C09C91892309F045C08C
:102E7000A389B4899C918589809589238C938689BF
:102E800097890197F1F7608D718DA685B785558576
:102E900038E020E0CB010197F1F7822F90E0959583
:102EA0008795282F4C91452309F02068315091F7E0
:102EB000868D81FD20958091000490E0019660EC64
:102EC00070E00E94513590910104981749F0A0914B
:102ED0000004B0E0AB5DBB4F2C938093000403C0B3
:102EE000868D8160868F828D938D0197F1F7A389FE
:102EF000B4899C918589892B8C93FF91EF91BF9127
:102F0000AF919F918F917F916F915F914F913F9181
:102F10002F910F900FBE0F901F901895CF92DF92B8
:102F2000EF92FF920F931F93CF93DF93EB017B01FF
:102F300021E1E20EF11C8B016C01C61AD70AC60111
:102F4000800F911F0E94A134F80181938F01EE152B
:102F5000FF05A9F7CE01DF91CF911F910F91FF904F
:102F6000EF90DF90CF900895AF92BF92CF92DF9213
:102F7000EF92FF920F931F93CF93DF9300D0CDB7C3
:102F8000DEB78B016B0121E1C20ED11C7B015C011C
:102F9000A61AB70A95012E0D3F1DF70161917F0119
:102FA0003A832983CE0101960E942B27EC14FD045D
:102FB00089F7C8010F900F90DF91CF911F910F916A
:102FC000FF90EF90DF90CF90BF90AF900895CF9398
:102FD000DF9300D0CDB7DEB79A838983CE01019607
:102FE0000E942B270F900F90DF91CF9108950C94A2
:102FF000A1340F931F93CF93DF93EC018B0180914A
:103000000101813019F0413009F04AC068EE73E0E7
:1030100080E090E00E94541563E775E08BE396E052
:103020000E94E01FB8018BE396E00E94D21F61E787
:1030300075E08BE396E00E942F2064EF71E080E062
:1030400090E00E945415BE018BE396E00E94D21FCF
:1030500064EF71E080E090E00E945415E0913B063F
:10306000F0913C060190F081E02D6AE18BE396E05F
:10307000099564EF71E080E090E00E94541582E6CB
:1030800095E00E94192064EF72E082E695E00E94CC
:10309000042068E873E180E090E00E94541506C0C7
:1030A00060EF72E082E695E00E940420B80182E6BB
:1030B00095E00E94D21F61E176E082E695E00E94F1
:1030C000D21FBE0182E695E0DF91CF911F910F9153
:1030D0000C941D20EF92FF920F931F93CF93DF93D9
:1030E000CDB7DEB768970FB6F894DEBF0FBECDBF81
:1030F0000E948E150091FC031091FD032091FE03A8
:103100003091FF03601B710B820B930B28EE33E0B1
:1031100040E050E00E9420358091FB0390E0A0E069
:10312000B0E082179307A407B50708F0D3C011E0F9
:103130001093B30161E08EE090E00E94E7171093D6
:10314000B10166E875E087E196E00E94901E0E945A
:103150002E2167E176E082E695E00E941D2068EE70
:1031600073E080E090E00E94541505EB11E0F80157
:10317000E388F488C70143960E94F717813009F06D
:1031800061C06EEC73E0C7010E948E17BC01CE01D6
:1031900001960E94771FBE016F5F7F4F8DE196E021
:1031A0000E94501DF82ECE0101960E94071FF110BB
:1031B0001092E40368EE73E080E090E00E94541502
:1031C0006EEC73E0F801838994890E948E17BC012C
:1031D000CE0107960E94771F60ED72E0CE010D963A
:1031E0000E94771FBE01695F7F4FCE010D960E943E
:1031F0007D1EBC01CE0101960E946E1F67E176E044
:10320000CE0143960E946E1F40E0BE016F5F7F4F6C
:10321000CE0143960E94F917CE0143960E94071FE4
:10322000CE0101960E94071FCE010D960E94071F36
:10323000CE0107960E94071F68EE73E080E090E0E1
:103240000E9454150B5E1F4FF2E007381F0709F06C
:103250008ECF8091E4038130B9F568EE73E080E0B1
:1032600090E00E94541560ED72E0CE0107960E9436
:10327000771F6DE176E0CE0107960E947D1EBC01AE
:10328000CE0101960E946E1F6DE775E0CE010D968E
:103290000E94651F40E0BE016F5F7F4FCE010D961B
:1032A0000E94F917CE010D960E94071FCE010196CC
:1032B0000E94071FCE0107960E94071F68EE73E069
:1032C00080E090E00E94541510925B031092E1039D
:1032D0001092BA0368960FB6F894DEBF0FBECDBF4A
:1032E000DF91CF911F910F91FF90EF900895AF92D2
:1032F000BF92CF92DF92EF92FF920F931F93CF93E3
:10330000DF93CDB7DEB768970FB6F894DEBF0FBE78
:10331000CDBF2091B301213019F0413009F091C0A7
:10332000D42EC62E7C01BC0182E695E00E941D20B1
:1033300005EB11E0F801A388B488C50143960E940B
:10334000F717813009F03FC06EEC73E0C5010E94B1
:103350008E17BC01CE010D960E94771F60ED72E0C2
:10336000CE0107960E94771FBE01635F7F4FCE019B
:1033700007960E947D1EBC01CE0143960E946E1FDF
:10338000B701CE0101960E946E1F4D2DBE016D5EEC
:103390007F4FCE0101960E94F917CE0101960E943F
:1033A000071FCE0143960E94071FCE0107960E9479
:1033B000071FCE010D960E94071F68EE73E080E0A4
:1033C00090E00E9454150B5E1F4FF2E007381F0774
:1033D00009F0B0CF80918802813099F5C81231C0D0
:1033E0006EEC73E08091C8019091C9010E948E1724
:1033F000BC01CE0101960E94771FCE0101960E946A
:103400005727182FCE0101960E94071F111119C0CE
:103410006CE675E08BE396E00E94E01F6EEC73E0D3
:103420008091C8019091C9010E948E17BC018BE365
:1034300096E00E9404206AE675E08BE396E00E9425
:103440002F2068960FB6F894DEBF0FBECDBFDF9178
:10345000CF911F910F91FF90EF90DF90CF90BF9091
:10346000AF900895DF92EF92FF920F931F93CF9347
:10347000DF9300D000D000D0CDB7DEB76DE575E0AA
:1034800082E695E00E942F2087E0E82E81E0F82E6A
:1034900000E010E0F701838994890E949027F701EA
:1034A0008389948987960E94F717D82E0F5F1F4F44
:1034B0004AE0B801CE0101960E940C1F61E176E05E
:1034C000CE0101960E947D1E6CE375E00E94641E91
:1034D00061E176E00E947D1E6D2D0E94561EBC01AA
:1034E00082E695E00E941D20CE0101960E94071FF2
:1034F000F5E1EF0EF11C0830110561F60E94A128DC
:1035000026960FB6F894DEBF0FBECDBFDF91CF91E8
:103510001F910F91FF90EF90DF9008950895CF9243
:10352000DF92EF92FF920F931F93CF93DF936C0183
:103530007A018B01C0E0D0E0CE15DF0589F0D8011B
:103540006D918D01D601ED91FC910190F081E02DFE
:10355000C6010995892B11F47E0102C02196ECCF9A
:10356000C701DF91CF911F910F91FF90EF90DF90F6
:10357000CF900895FC01918D828D981761F0828D16
:10358000DF01A80FB11D5D968C91928D9F5F9F7397
:10359000928F90E008958FEF9FEF0895FC01918D39
:1035A000828D981731F0828DE80FF11D858D90E0A6
:1035B00008958FEF9FEF0895FC01918D228D892F43
:1035C00090E0805C9F4F821B91098F73992708952B
:1035D00082E695E00E94DC1A21E0892B09F420E0C4
:1035E000822F0895FC01848DDF01A80FB11DA35A1D
:1035F000BF4F2C91848D90E001968F739927848F13
:10360000A689B7892C93A089B1898C9180648C9309
:10361000938D848D981306C00288F389E02D8081F4
:103620008F7D80830895EF92FF920F931F93CF9326
:10363000DF93EC0181E0888F9B8D8C8D981305C002
:10364000E889F989808185FD24C0F62E0B8D10E074
:103650000F5F1F4F0F731127E02E8C8DE8120CC0E7
:103660000FB607FCFACFE889F989808185FFF5CF8D
:10367000CE010E94F21AF1CF8B8DFE01E80FF11DF1
:10368000E35AFF4FF0820B8FEA89FB8980818062C9
:1036900007C0EE89FF896083E889F98980818064A9
:1036A000808381E090E0DF91CF911F910F91FF9097
:1036B000EF900895CF93DF93EC01888D8823C9F0B4
:1036C000EA89FB89808185FD05C0A889B9898C912B
:1036D00086FD0FC00FB607FCF5CF808185FFF2CFC6
:1036E000A889B9898C9185FFEDCFCE010E94F21A8D
:1036F000E7CFDF91CF91089580E090E0892B29F00A
:103700000E94E81A81110C9400000895833081F022
:1037100028F4813099F08230A1F008958730A9F023
:103720008830B9F08430D1F4809180008F7D03C05F
:10373000809180008F7780938000089584B58F7783
:1037400002C084B58F7D84BD08958091B0008F77CD
:1037500003C08091B0008F7D8093B00008950E94D7
:103760007637AF92BF92CF92DF92EF92FF920F9394
:103770001F93CF93DF937B018A01FB014481558125
:103780004115510561F1FC01248135812115310577
:1037900031F12417350718F10217130718F08901C2
:1037A00001501109FC01A080B180C501DFEFCFEF0E
:1037B0006501C00ED11EC816D906A0F0F7016081C0
:1037C00071810E94BD37009769F09C012A193B095D
:1037D0000217130710F0D22FC32F0196ECCF8FEFF3
:1037E0009FEF02C08D2F9C2FDF91CF911F910F91E2
:1037F000FF90EF90DF90CF90BF90AF9008950F9320
:103800001F93CF93DF93EC0188819981009729F072
:103810002A813B812617370788F48B016F5F7F4F22
:103820000E94AC36009761F0998388831B830A83DA
:103830002C813D81232B11F4FC01108281E001C019
:1038400080E0DF91CF911F910F910895FC0180815D
:103850009181009711F00C940A3460E070E0CB0184
:1038600008952F923F924F925F926F927F928F9224
:103870009F92AF92BF92CF92DF92EF92FF920F93FF
:103880001F93CF93DF93FC01448055804114510472
:1038900009F4CFC0FB01648075806114710409F4E0
:1038A000C8C07A016B01EC01FA01A480B580A618AA
:1038B000B70808811981A114B104C1F4F60160812F
:1038C0007181C8010E94BD37EC01892B09F4B1C098
:1038D000F7016081718144815581CE010E94833757
:1038E000F701048115810C0F1D1FE8CFB7FE02C040
:1038F000480106C0FB01208031804201C80142C05E
:10390000F60160817181C4010E94BD372C01892BB1
:1039100019F1320168187908A301B401C8010E94A5
:103920008337060D171DF701608171814481558130
:10393000C8010E948337F70184819581080F191F00
:10394000F60184809580840C951C8C819D818A0D64
:103950009B1D9D838C83D4CFB401C801DF91CF918F
:103960001F910F91FF90EF90DF90CF90BF90AF909D
:103970009F908F907F906F905F904F903F902F908F
:103980000C94A737B1010E94BD37009729F0860D2E
:10399000971D8A0C9B1CF6CF8414950409F449C02A
:1039A0008A819B818815990560F4B4016F5F7F4F10
:1039B000C8010E94AC360097E1F1998388839B820D
:1039C0008A824C815D814150510957FD32C0B60158
:1039D000CE010E94B11B8C0197FD2BC0888199817B
:1039E000F60124813581200F311F820F931F4C81F6
:1039F0005D81421B530BBC018A0D9B1D0E948C37BD
:103A00008C819D818A0D9B1D9D838C8328813981AA
:103A1000F901E80FF91F108288819981F70160810F
:103A2000718144815581800F911F0E948337A801C5
:103A3000CACFDF91CF911F910F91FF90EF90DF9050
:103A4000CF90BF90AF909F908F907F906F905F903E
:103A50004F903F902F900895FC0144815581FB01C8
:103A600024813581421B530B0C94B11BCF93DF9300
:103A7000FC0124813581232B71F0FB01DC01CD9108
:103A8000DC9160817181CE010E94BD37009719F0F1
:103A90008C1B9D0B02C08FEF9FEFDF91CF9108959C
:103AA000FC0124813581FB014481558124173507B0
:103AB00021F5FC0180819181FB016081718100977A
:103AC00019F061157105A1F46115710549F0232BF9
:103AD000B1F0FB01808190E09195819591090AC038
:103AE000009769F0232B59F0FC01808190E002C01F
:103AF0000E949E3721E0892B19F020E001C021E0CF
:103B0000822F0895EF92FF920F931F93CF93DF932D
:103B10006115710511F480E01EC08B01EC01CB0131
:103B20000E9438340097B1F02C813D817C01E20E77
:103B3000F31EB701CE010E94FF1B882361F3288189
:103B400039818C819D81B801820F931F0E9431348D
:103B5000FD82EC8281E0DF91CF911F910F91FF9068
:103B6000EF900895EF92FF920F931F93CF93DF93FF
:103B7000FC01248135816115710511F480E019C0C3
:103B800041155105A9F07B01EC018A01020F131FB9
:103B9000B8010E94FF1B882389F3288139818C8119
:103BA0009D81B701820F931F0E94A7371D830C834D
:103BB00081E0DF91CF911F910F91FF90EF900895D9
:103BC000EF92FF920F931F93CF93DF9300D000D01B
:103BD000CDB7DEB77C01862F4AE08E010F5F1F4F05
:103BE000B80190E00E944C34F80101900020E9F700
:103BF0003197AF01401B510BB801C7010E94B21DA4
:103C00000F900F900F900F90DF91CF911F910F9118
:103C1000FF90EF9008950F931F93CF93DF938C0144
:103C2000EB01FC01808191810097B1F0688179817D
:103C30006115710579F0428153812C813D814217D4
:103C4000530740F00E94A7378C819D81F80195832E
:103C5000848313C00E94143688819981F80191836E
:103C600080838A819B81938382838C819D819583CC
:103C70008483198218821B821A821D821C82DF9122
:103C8000CF911F910F910895CF93DF93EC0188811D
:103C90009981009711F00E941436198218821D82B2
:103CA0001C821B821A82DF91CF910895CF93DF93FC
:103CB000EC010E94E01D811103C0CE010E94441E50
:103CC000CE01DF91CF910895CF93DF93EC01611581
:103CD000710561F0FB0101900020E9F73197AF0118
:103CE000461B570B0E94B21D811103C0CE010E94DA
:103CF000441ECE01DF91CF910895CF93DF93EC0165
:103D0000FB0144815581608171810E94B21D811146
:103D100003C0CE010E94441ECE01DF91CF910895D1
:103D2000EF92FF920F931F93CF93DF93EC018B01E0
:103D30006115710551F0CB010E9438347C01BC0142
:103D4000CE010E94FF1B811104C0CE010E94441EBF
:103D500007C0FD82EC82B801888199810E943134CC
:103D6000CE01DF91CF911F910F91FF90EF900895B9
:103D7000EF92FF920F931F93CF93DF93EC017B01A0
:103D80008A01BA010E94FF1B811104C0CE010E946A
:103D9000441E07C01D830C83B701888199810E944E
:103DA000A737CE01DF91CF911F910F91FF90EF9038
:103DB0000895CF93DF93EC016115710559F0FB0174
:103DC00001900020E9F73197AF01461B570B0E9485
:103DD000B81E02C00E94441ECE01DF91CF9108950B
:103DE000CF93DF93EC01FB018617970761F06081A9
:103DF00071816115710529F0448155810E94B81EB9
:103E000002C00E94441ECE01DF91CF910895FC01B3
:103E1000808191810C9414360F931F93CF93DF937D
:103E2000CDB7DEB762970FB6F894DEBF0FBECDBF39
:103E30008C01CB01F801118210821382128215824B
:103E4000148250E0BE016F5F7F4F0E944134BE017B
:103E50006F5F7F4FC8010E94D91E62960FB6F8941B
:103E6000DEBF0FBECDBFDF91CF911F910F9108959F
:103E70000F931F93CF93DF93CDB7DEB729970FB67C
:103E8000F894DEBF0FBECDBF8C01862FF8011182E2
:103E90001082138212821582148250E0BE016F5F7D
:103EA0007F4F90E00E946C34BE016F5F7F4FC8016E
:103EB0000E94D91E29960FB6F894DEBF0FBECDBF63
:103EC000DF91CF911F910F910895FC011182108213
:103ED00013821282158214820C94901EFC011182AE
:103EE000108213821282158214820C94F01EFC013F
:103EF000118210821382128215821482611571055B
:103F000051F0FB0101900020E9F73197AF01461B0A
:103F1000570B0C94B81E0895BF92CF92DF92EF9288
:103F2000FF920F931F93CF93DF937C016B018A0164
:103F3000E9012417350720F4812F8901C42FD82FD8
:103F40006DEF72E0C7010E94771FD60114968D9124
:103F50009C91159708171907D0F48C179D0708F442
:103F6000EC01D601ED91FC911197EC0FFD1FB08093
:103F700010824D915C91BA01600F711FC7010E94C0
:103F8000D91ED601ED91FC91EC0FFD1FB082C70147
:103F9000DF91CF911F910F91FF90EF90DF90CF9025
:103FA000BF900895DC01ED91FC91DB0114964D91D9
:103FB0005C9115976D917C910280F381E02D0994BD
:103FC000EF92FF920F931F93CF93DF938C017B01AE
:103FD000C0E0D0E0F701EC0FFD1F6491662361F0B3
:103FE000D801ED91FC910190F081E02DC801099577
:103FF000892B11F02196EECFCE01DF91CF911F9149
:104000000F91FF90EF9008956115710579F0FB0114
:1040100001900020E9F73197AF01461B570BDC01F7
:10402000ED91FC910280F381E02D099480E090E015
:1040300008956BEF72E00C9404200F931F93CF93BD
:10404000DF93EC010E94D21F8C01CE010E94192047
:10405000800F911FDF91CF911F910F9108950F93C2
:104060001F93CF93DF93EC010E94E01F8C01CE01E0
:104070000E941920800F911FDF91CF911F910F9106
:1040800008951F920F920FB60F9211242F933F9312
:104090004F935F936F937F938F939F93AF93BF9350
:1040A000EF93FF9382E695E00E94F21AFF91EF9161
:1040B000BF91AF919F918F917F916F915F914F9140
:1040C0003F912F910F900FBE0F901F9018951F9248
:1040D0000F920FB60F9211242F938F939F93EF930C
:1040E000FF93E0917205F09173058081E09178056E
:1040F000F091790582FD12C0908180917B058F5FE0
:104100008F7320917C05821751F0E0917B05F0E0E0
:10411000EE59FA4F958F80937B0501C08081FF9106
:10412000EF919F918F912F910F900FBE0F901F9045
:104130001895CF93DF93282F30E0F901E656FA4F18
:104140008491F901EA51F84FD491F901EE52F84FF8
:10415000C491CC2391F081110E94861BEC2FF0E0DA
:10416000EE0FFF1FE853F84FA591B491EC91ED23AA
:1041700081E090E021F480E002C080E090E0DF91F7
:10418000CF9108951F93CF93DF93282F30E0F9014B
:10419000E656FA4F8491F901EA51F84FD491F901AA
:1041A000EE52F84FC491CC23C9F0162F81110E9412
:1041B000861BEC2FF0E0EE0FFF1FE254F84FA591A5
:1041C000B4918FB7F894111105C09C91ED2FE09533
:1041D000E92302C0EC91ED2BEC938FBFDF91CF91DF
:1041E0001F910895CF93DF9390E0FC01EA51F84FBF
:1041F0002491FC01EE52F84F8491882361F190E004
:10420000880F991FFC01E057FA4FC591D491FC012A
:10421000E254F84FA591B491611109C09FB7F89489
:104220008881209582238883EC912E230BC06230F5
:1042300061F49FB7F8943881822F80958323888317
:10424000EC912E2B2C939FBF06C08FB7F894E8817A
:104250002E2B28838FBFDF91CF91089580915B0330
:10426000813019F464EA77E006C08091E10381307F
:1042700031F465EB77E087E196E00C94821D6CEAFF
:1042800077E087E196E00E94821D409121065091DF
:10429000220660911D0670911E0687E196E00C943F
:1042A000B21DEF92FF920F931F93CF93DF93CDB781
:1042B000DEB768970FB6F894DEBF0FBECDBF109281
:1042C000B30160E08EE090E00E94E71769E977E0D3
:1042D00087E196E00E94901E0E942E2167E176E021
:1042E00082E695E00E941D2068EE73E080E090E099
:1042F0000E94541505EB11E0F801E388F488C7012A
:1043000043960E94F717813009F061C06EEC73E0AC
:10431000C7010E948E17BC01CE0101960E94771F33
:10432000BE016F5F7F4F8DE196E00E94501DF82E19
:10433000CE0101960E94071FF1101092E40368EE6F
:1043400073E080E090E00E9454156EEC73E0F80199
:10435000838994890E948E17BC01CE010D960E941C
:10436000771F60ED72E0CE0107960E94771FBE01B5
:10437000635F7F4FCE0107960E947D1EBC01CE0178
:1043800043960E946E1F67E176E0CE0101960E947F
:104390006E1F40E0BE016D5E7F4FCE0101960E9410
:1043A000F917CE0101960E94071FCE0143960E9485
:1043B000071FCE0107960E94071FCE010D960E948F
:1043C000071F68EE73E080E090E00E9454150B5EDA
:1043D0001F4FF2E007381F0709F08ECF8091E403EA
:1043E0008130B9F568EE73E080E090E00E945415EA
:1043F00060ED72E0CE0107960E94771F6DE176E0D6
:10440000CE0107960E947D1EBC01CE010D960E9432
:104410006E1F6FE877E0CE0101960E94651F40E0B5
:10442000BE01635F7F4FCE0101960E94F917CE0156
:1044300001960E94071FCE010D960E94071FCE0114
:1044400007960E94071F68EE73E080E090E00E94EC
:10445000541580915C03823021F410920301109274
:10446000020110925B031092E10368960FB6F89474
:10447000DEBF0FBECDBFDF91CF911F910F91FF9097
:10448000EF900895813011F48093E1030E948E151E
:104490006093FC037093FD038093FE039093FF03EE
:1044A00081E08093BA030C946A188091B301813043
:1044B00031F41092BA0310923B050C9451218111F2
:1044C00002C00C944222089561E08BE00E94C22059
:1044D00064E670E080E090E00E94541560E08BE0BC
:1044E0000E94C22064E670E080E090E00E945415D3
:1044F00061E08BE00C94C2200E9464220C94642240
:10450000DF92EF92FF920F931F93CF93DF9300D030
:1045100000D000D0CDB7DEB77C0105EB11E06EEC2A
:1045200073E0F801838994890E948E17BC01CE0143
:1045300001960E94771FB701CE0101960E94501D7F
:10454000D82ECE0101960E94071FD11008C00B5E25
:104550001F4FF2E007381F0711F780E00DC0B701C9
:104560008DE196E00E94F01EF801838994894296BD
:104570000E94F717813059F726960FB6F894DEBFE0
:104580000FBECDBFDF91CF911F910F91FF90EF90A4
:10459000DF9008950F931F93CF93DF9300D000D047
:1045A00000D0CDB7DEB760ED77E080E090E00E940C
:1045B00054150E94682710925606109255061092C4
:1045C00054061092530610925206109251068DE92D
:1045D00091E0909358068093570690914706963144
:1045E00008F057C02DEB30E030935206209351066F
:1045F0002BE931E030935406209353062CE231E04E
:10460000309356062093550620916800983050F05C
:1046100031E09E3008F430E081E001C0880F3A9527
:10462000EAF701C084E0822B80936800983038F06C
:104630009E3040F0963148F020E030E008C02DE692
:1046400030E005C02BE630E002C02CE630E03093CD
:104650004F0620934E06983030F481E001C0880F59
:104660009A95EAF70EC0292F30E09E3018F42850B2
:10467000310902C02E50310981E001C0880F2A950E
:10468000EAF780935006809157069091580601975B
:10469000F1F78091550690915606892B49F1E091EA
:1046A0000204F091030486E0EB33F80709F1309738
:1046B00039F0A389B4899C918589809589238C934D
:1046C000809159068E7F80935906109200041092B3
:1046D00001048BE396E09093030480930204E0913D
:1046E0004E06F0914F06908180915006892B808371
:1046F0001AE06CE877E08BE396E00E942F2068ECEC
:1047000070E080E090E00E945415115091F768E845
:1047100077E08BE396E00E942F206AE070E080E073
:1047200090E00E9454158BE396E00E941915892BA6
:1047300009F460C08BE396E00E941915892B79F08B
:104740008BE396E00E9431158093E6030E948C284B
:1047500064E170E080E090E00E945415EBCF63E8E4
:1047600077E0CE0101960E94651FBE016F5F7F4F0B
:1047700089E296E00E94361D8C01CE0101960E94CE
:10478000071F17FD03C081E08093E5036CE777E026
:10479000CE0101960E94651FBE016F5F7F4F89E2C7
:1047A00096E00E94361D8C01CE0101960E94071FE3
:1047B00017FD03C082E08093E50369E777E0CE014F
:1047C00001960E94651FBE016F5F7F4F89E296E0F0
:1047D0000E94361D8C01CE0101960E94071F17FD15
:1047E00003C083E08093E5036DEF72E089E296E019
:1047F0000E94D91E6FE677E08BE396E00E942F209F
:1048000064E670E080E090E00E94541565E677E091
:104810008BE396E00E942F2064E670E080E090E059
:104820000E94541567E577E08BE396E00E942F2005
:1048300064E670E080E090E00E9454156BE477E05D
:104840008BE396E00E942F2064E670E080E090E029
:104850000E9454158091E003813019F466E477E0FA
:1048600002C061E477E08BE396E00E942F20269659
:104870000FB6F894DEBF0FBECDBFDF91CF911F9171
:104880000F910895BF92CF92DF92EF92FF920F9314
:104890001F93CF93DF9300D000D000D0CDB7DEB709
:1048A0006DE376E082E695E00E942F2085EBE82E0E
:1048B00081E0F82E00E010E06EEC73E0F7018389F0
:1048C00094890E948E17F701C388D488C601439645
:1048D0000E94F717B82EC60142960E94F717D82EED
:1048E0000F5F1F4F4AE0B801CE0101960E940C1FD6
:1048F00061E176E0CE0101960E947D1E6EEC73E0D0
:104900000E94641E61E176E00E947D1E6D2D0E9472
:10491000561E61E176E00E947D1E6B2D0E94561EA0
:10492000BC0182E695E00E941D20CE0101960E9406
:10493000071FF5E1EF0EF11C0A30110509F0BCCF9D
:104940000E94A12826960FB6F894DEBF0FBECDBFF9
:10495000DF91CF911F910F91FF90EF90DF90CF905B
:10496000BF900895EF92FF920F931F93CF93DF9321
:1049700083E690E00E94F717813009F444C068E2B2
:1049800076E082E695E00E942F20C4E6D0E06FEF4B
:10499000CE010E94E7176AE070E080E090E00E949C
:1049A00054152196CC3281E0D80789F76FE076E084
:1049B00082E695E00E942F200E94A128C5EBD1E05D
:1049C00000E010E0BE018B899C890E94B417F801B9
:1049D000EB54FE4F7F018B899C89618942960E942E
:1049E000E7178B899C89F701628943960E94E71734
:1049F0000B5E1F4F6596023D110521F761E083E6CE
:104A000090E00E94E71783E690E00E94F71781305C
:104A100041F4DF91CF911F910F91FF90EF900C9493
:104A20004224DF91CF911F910F91FF90EF90089555
:104A3000CF93DF93D82FC92F682F80E190E00E9499
:104A4000A9346C2F81E190E00E94A934D093AF018A
:104A5000C093B0016CEF75E082E695E00E94E01F24
:104A60006091AF017091B00180E090E04AE00E9457
:104A7000AA2782E695E00E9419200E94A128DF91D2
:104A8000CF910C946422CF93DF9380E090E00E945A
:104A9000F717813009F463C065E277E082E695E0BC
:104AA0000E942F20C0E0D0E06FEFCE010E94E717F8
:104AB0006AE070E080E090E00E9454152196CE31CB
:104AC000D10591F765E077E082E695E00E942F201E
:104AD0000E94A12861E08AE090E00E94E71761E06F
:104AE0008BE090E00E94E71760E08CE090E00E948D
:104AF000E71761E08DE090E00E94E71761E08EE04B
:104B000090E00E94E7176FE08FE090E00E94E717C7
:104B10008CE390E00E94182560E082E190E00E9422
:104B2000E71761E083E190E00E94E71760E084E12D
:104B300090E00E94E71760E085E190E00E94E717AF
:104B400060E086E190E00E94E71760E087E190E096
:104B50000E94E71761E080E090E00E94E71780E0A4
:104B600090E00E94F717813009F00AC162EF76E009
:104B700082E695E00E942F208AE090E00E94F717DD
:104B80008093010168EE76E082E695E00E94E01FE6
:104B900080910101082E000C990B0E940E288BE0D9
:104BA00090E00E94F717809388026CED76E082E631
:104BB00095E00E94E01F80918802082E000C990B5E
:104BC0000E940E288CE090E00E94F7178093E0038B
:104BD00065ED76E082E695E00E94E01F8091E003BB
:104BE000082E000C990B0E940E288DE090E00E9488
:104BF000F7178093B2016FEC76E082E695E00E94B1
:104C0000E01F8091B201082E000C990B0E940E2823
:104C10008EE090E00E94F7178093B30167EC76E096
:104C200082E695E00E94E01F8091B301082E000CFF
:104C3000990B0E940E288FE090E00E94F717809356
:104C400000016BEB76E082E695E00E94E01F6AE0EF
:104C500070E0809100010E94ED2780E190E00E94C9
:104C6000F717C82F81E190E00E94F717C093AF01BA
:104C70008093B0016CEA76E082E695E00E94E01F46
:104C80006091AF017091B00180E090E04AE00E9435
:104C9000AA2782E695E00E94192082E190E00E9416
:104CA000F7178093B90361EA76E082E695E00E9407
:104CB000E01F8091B903082E000C990B0E940E286A
:104CC00083E190E00E94F7178093060164E976E0A3
:104CD00082E695E00E94E01F80910601082E000CFC
:104CE000990B0E940E2887E190E00E94F7178093AD
:104CF000BB0363E876E082E695E00E94E01F6AE08D
:104D000070E08091BB030E94ED2784E190E00E9457
:104D1000F71780935C0365E776E082E695E00E94F2
:104D2000E01F80915C03082E000C990B0E940E2856
:104D300085E190E00E94F7178093FB0362E676E03E
:104D400082E695E00E94E01F6AE070E08091FB033C
:104D50000E94ED2786E190E00E94F7178093BC0344
:104D60006FE476E082E695E00E94E01F6AE070E082
:104D70008091BC030E94ED27DF91CF910C94A12874
:104D8000DF91CF91089581E390E00E94F717813081
:104D900081F165EE75E082E695E00E942F206AECD5
:104DA00075E082E695E00E942F200E94A1286EEF18
:104DB00072E08FE296E00E94D91E86E1809387021E
:104DC00041E150E062E273E08FE296E00E94472802
:104DD00062E273E08EE190E00E94B4176091870276
:104DE00080E390E00E94E71761E081E390E00E9499
:104DF000E71781E390E00E94F717813059F562E2EE
:104E000073E08EE190E00E948E17BC018FE296E085
:104E10000E94D91E80E390E00E94F71780938702DA
:104E200061EC75E082E695E00E94E01F6FE276E0BB
:104E300082E695E00E941D206EEA75E082E695E02C
:104E40000E94E01F6AE070E0809187020E94ED27D7
:104E50000C94A1280895EF92FF920F931F93CF9384
:104E6000DF931F92CDB7DEB77C01FC010081118179
:104E7000C80169830E94A1346981681719F0C801CB
:104E80000E94A934C7010F90DF91CF911F910F911C
:104E9000FF90EF900895CF93DF93EC01FB01248105
:104EA00035810E948C1FCE01DF91CF910895DC01E6
:104EB00014962D913C911597232B41F0ED91FC9187
:104EC00081E09081992319F080E0089581E00895B0
:104ED000E2E6F5E0A089B18982E08C93A485B585EE
:104EE0001C92A685B7858FEC8C93108EA489B5890A
:104EF00086E08C93A289B3898C9180618C93A2897E
:104F0000B3898C9188608C93A289B3898C918068D5
:104F10008C930288F389E02D80818F7D80830895B2
:104F20000F931F93CF93DF93CCE3D5E08C010C5309
:104F30001540C8018C0F9D1F0E94A134899385E004
:104F4000C236D807B1F78CE395E0DF91CF911F917E
:104F50000F9108958F929F92AF92BF920F931F93DC
:104F6000CF93DF93CDB7DEB7A1970FB6F894DEBF2E
:104F70000FBECDBF19A2423008F44AE08E010F5D8A
:104F80001F4F842E912CA12CB12CA50194010E94BD
:104F90002035E62FB901CA0101501109EA3014F495
:104FA000E05D01C0E95CD801EC93232B242B252B79
:104FB00061F7B80182E695E00E940420A1960FB641
:104FC000F894DEBF0FBECDBFDF91CF911F910F913F
:104FD000BF90AF909F908F900895CF93DF93AB01D8
:104FE000672B61F4E0916205F09163050190F08117
:104FF000E02D682F82E695E0099506C0682F70E0E5
:1050000080E090E00E94AA27EC0182E695E00E94F1
:1050100019208C0F9D1FDF91CF910895CF92DF92C1
:10502000EF92FF92CF93DF936C01990FEE08FF0888
:10503000F7FE1AC0E0916205F09163050190F081DE
:10504000E02D6DE282E695E00995EC016627772771
:10505000CB016C197D098E099F094AE00E94AA279D
:105060007C01EC0EFD1E06C04AE0C701B6010E949D
:10507000AA277C0182E695E00E9419208E0D9F1DD3
:10508000DF91CF91FF90EF90DF90CF9008950F9335
:105090001F93CF93DF93FC012481358121153105C6
:1050A00019F4FB01108211C0EA0121972C173D076A
:1050B00008F4E9018B01FC0160817181AE01C80136
:1050C0000E94AE37C00FD11F1882DF91CF911F9180
:1050D0000F9108950F931F93CF938C0180913B05FF
:1050E00081110AC00E948E156093370570933805B0
:1050F0008093390590933A05C1E0C0933B05B80110
:1051000085E396E00E94F01EC093360510923505A7
:10511000CF911F910F910895CF93DF9300D0CDB71A
:10512000DEB789831A8241E050E0BE016F5F7F4F96
:1051300089E296E00E94B21D0F900F90DF91CF910F
:10514000089582E695E00C9419207F928F929F92A9
:10515000AF92BF92CF92DF92EF92FF920F931F9385
:10516000CF93DF93C12CD12C7601C394D0E0BB2424
:10517000B39462E0A62E99249A9475EE872EE5ECFE
:105180007E2ECC2DB0922404C0925A0610925A035F
:1051900010925903909183039111FCCFA092830345
:1051A000B0928203909281031092800310927F0349
:1051B00010927E0380917E0386019601220F331F99
:1051C000282B20937E0380917D03813069F4109217
:1051D0007D0380917E038093BB008091BC0083FDA2
:1051E000F8CF7092BC0002C08092BC008091830313
:1051F0008230E1F3809181038F3F69F080918103D8
:10520000803231F080918103803321F094E003C03B
:1052100092E001C093E010925A0310925903109249
:105220002404911138C064E478E082E695E00E949D
:10523000E01F80E1C816D104E104F10430F462E417
:1052400078E082E695E00E94E01F40E1C701B601E8
:105250000E94AA2780EE8C0F883018F0C853C830FF
:10526000B0F461E176E082E695E00E94D21F61E34E
:1052700078E082E695E00E942F201093A703009328
:10528000A6038091B8038F5F8093B80302C00E9489
:10529000A128DF5F19C09430B9F465E278E082E6B6
:1052A00095E00E94E01FE0E1CE16D104E104F10494
:1052B00030F463E278E082E695E00E94E01F60E16E
:1052C00070E08C2F0E94ED27FFEFCF1ADF0AEF0A64
:1052D000FF0A8FE7C816D104E104F10409F051CFA9
:1052E000D11106C06DE078E082E695E00E942F20A3
:1052F0008091B8038823E9F00E94321A07E011E098
:10530000C0EBD3E0FC2EE8E0FE0EF801838994891F
:1053100087960E94F71789930B5E1F4FFC12F5CFFB
:105320000E94A128E8EAF3E088E08E0F11928E1324
:10533000FDCFDF91CF911F910F91FF90EF90DF9004
:10534000CF90BF90AF909F908F907F9008951F93C4
:10535000CF93DF93CDB7DEB762970FB6F894DEBF79
:105360000FBECDBF182F6093060183E190E00E942D
:10537000E717113079F58091E203813059F560ED3E
:1053800072E0CE0107960E94771F6DE176E0CE01B4
:1053900007960E947D1EBC01CE010D960E946E1FD5
:1053A0006AEF77E0CE0101960E94651F40E0BE01E2
:1053B000635F7F4FCE0101960E94F917CE010196DF
:1053C0000E94071FCE010D960E94071FCE0107966F
:1053D0000E94071F62960FB6F894DEBF0FBECDBFC6
:1053E000DF91CF911F910895CF93DF93CDB7DEB7B3
:1053F000AB970FB6F894DEBF0FBECDBF789484B5DF
:10540000826084BD84B5816084BD85B5826085BDC0
:1054100085B5816085BD80916E00816080936E004E
:105420001092810080918100826080938100809140
:1054300081008160809381008091800081608093F1
:1054400080008091B10084608093B1008091B000B1
:1054500081608093B00080917A00846080937A00AC
:1054600080917A00826080937A0080917A008160D6
:1054700080937A0080917A00806880937A001092FD
:10548000C1000E9468271092A4031092A5031092F5
:105490005A03109259031092830381E08093820390
:1054A00010927D0361E082E10E94C22061E083E10D
:1054B0000E94C2208091B9008E7F8093B9008091B4
:1054C000B9008D7F8093B90088E48093B80085E4AB
:1054D0008093BC0060E974E082E695E00E942F2092
:1054E0000E94A12864EC79E080E090E00E945415CD
:1054F00080E480937C0080917A00806480937A00BD
:1055000080917A0086FDFCCF6091780080917900CF
:1055100070E0782B072E000C880B990B6115710534
:105520008105910511F00E9401340E9443250E94DB
:10553000C3260E94B22482E690E00E94F7178130D1
:1055400009F452C064E674E082E695E00E942F20E0
:105550000CE211E06FEFC8010E94E7176AE070E00B
:1055600080E090E00E9454150F5F1F4F0D3C21E03A
:10557000120781F76AE474E082E695E00E942F202A
:105580000E94A12807E011E059E1A52E51E0B52EB7
:10559000F801C388D4887801C01AD10AC6018E0DDB
:1055A0009F1DF70161917F019A838983CE01019646
:1055B0000E942B27EA14FB0489F7F8018389948958
:1055C000F701608187960E94E7170B5E1F4F570116
:1055D000F5E1AF0EB11C21E00F3A1207C9F661E008
:1055E00082E690E00E94E7170E94A52861E08AE029
:1055F0000E94F22061E08CE00E94F22061E08BE0EA
:105600000E94F22061E08AE00E94C22061E08CE00A
:105610000E94C22061E08BE00E94C22060E08AE02C
:105620000E94C22064EF71E080E090E00E94541577
:1056300061E08AE00E94C22060E08CE00E94C2200B
:1056400064EF71E080E090E00E94541561E08CE02E
:105650000E94C22060E08BE00E94C22064EF71E0F3
:1056600080E090E00E94541561E08BE00E94C2202F
:1056700060E086E00E94F22060E08EE00E94F2206E
:1056800060E087E00E94F22060E08FE00E94F2205C
:1056900060E080E10E94F22061E084E00E94F2205C
:1056A00060E084E00E94C22061E085E00E94F22078
:1056B00061E085E00E94C2200E94CA228091B3016D
:1056C000813031F46CE874E087E196E00E94821D3D
:1056D0008091B301811106C067E874E087E196E02C
:1056E0000E94821D67E176E082E695E00E941D201F
:1056F00080910101882369F00E94A12834E8632E7B
:1057000033E0732E48EE242E43E0342E412C512CEE
:105710008BC06AE774E082E695E00E942F2019E0D2
:105720000E9464221150E1F7E7CF113009F426C23C
:1057300086E00E9499208093EF031091B30111300D
:1057400009F06AC281115EC261E08CE00E94C22051
:105750000E948E15C090EB03D090EC03E090ED0317
:10576000F090EE039B01AC012C193D094E095F0935
:1057700069017A0135E6C316D104E104F10408F0A9
:105780002DC20E948E15C090F103D090F203E090DC
:10579000F303F090F4036C197D098E099F09A201AF
:1057A00091010E9420358091AF019091B001A0E05D
:1057B000B0E082179307A407B50708F43DC2112390
:1057C00009F43AC286E00E9499208093EF0388236F
:1057D00009F43BC28091EF03813009F473C28091D8
:1057E000B903813009F481C28091BA03813011F488
:1057F0000E946A1880913B05813009F4CCC28091E7
:10580000FA03813009F40EC38BE396E00E94191568
:10581000892B09F051C382E695E00E94DC1A892B9E
:1058200009F047C60E947C1B80915C03813039F0EF
:10583000823009F05EC08091B30181115AC08FE0BF
:105840000E949920182F8093E70380E10E949920FD
:10585000809304011130A1F480910301811110C0E3
:105860001093030168EC70E080E090E00E94541512
:105870000E94642210935B031092E4030E9455225D
:1058800080910401811115C080910201811111C024
:1058900011E01093020168EC70E080E090E00E945B
:1058A00054150E94642210935B031092E4030E943B
:1058B00055228091E70381110CC080910301882358
:1058C00041F01092030168EC70E080E090E00E94EB
:1058D000541580910401813061F480910201882384
:1058E00041F01092020168EC70E080E090E00E94CC
:1058F000541580910601813031F48091B3018130DB
:1059000009F076C003C0823009F072C087E00E94BF
:1059100099208093E803811133C0809105018111A2
:105920002FC081E08093050164E670E080E090E0A4
:105930000E94541569EB74E0CE0101960E94651F28
:105940008091FA0381110AC00E948E156093F603BC
:105950007093F7038093F8039093F90311E0109389
:10596000FA03BE016F5F7F4F85E396E00E94F01E51
:105970001092360510933505CE0101960E94071F3F
:105980008091E803813021F580910501813001F596
:105990001092FA031092050164E670E080E090E056
:1059A0000E9454158091F503813091F463EA74E00C
:1059B000CE0101960E94651F41E060E0CE01019694
:1059C0000E947719CE0101960E94071F1092F503DD
:1059D0008091E803813061F480910501823041F4C7
:1059E0001092050164E670E080E090E00E9454159A
:1059F0008091B803811106C01091E003111195CE7A
:105A000061E0E8C008EA13E080EB882E83E0982E7E
:105A100097E0A92E91E0B92EE12CF12CDD24D3944E
:105A200025ECC22E8091A603909183039111FCCFA7
:105A3000D0928303D09282033FEF30938103109280
:105A4000800310927F03D0927E0390917E03880F93
:105A5000892B80937E0380917D03813069F41092BD
:105A60007D0380917E038093BB008091BC0083FD09
:105A7000F8CFC092BC0003C045EE4093BC008091BB
:105A800083038130E1F380918003811103C0809111
:105A9000800301C081E0ADE5B3E0E4E8F3E09E2FD0
:105AA0009619981718F49D919193F9CF1092A40329
:105AB0008093A503882329F08FEF95E00E9431148D
:105AC00001C080E0F40121914F0190E00E2C02C052
:105AD000959587950A94E2F78170F801281335C0EF
