:100000000C9458040C9480040C9480040C94E81212
:100010000C94E8120C94E8120C9480040C94800464
:100020000C9480040C9480040C9480040C94800440
:100030000C9480040C9480040C9480040C94800430
:100040000C9470110C9480040C9491190C946B19FD
:100050000C9480040C9480040C9480040C94800410
:100060000C94BA110C9480044C6F61642064656632
:1000700061756C742073656E736F72206461746156
:100080002E0044656C6574696E672073656E736FCE
:100090007220646174612E00415445300041544522
:1000A000310041542B434E4D493D322C32004154D6
:1000B0002B435343533D2247534D220041542B437E
:1000C0004D47463D310041542B434C49503D310092
:1000D00041360053494D383030004D3539300041FC
:1000E00054490041540053696C656E74206D6F640F
:1000F000652100476F2100496E697420706172614B
:100100006D732E2E0047534D20416C61726D20316E
:10011000372E303400506F77657220737570706CB5
:100120007920726573746F7265642100506F776512
:100130007220737570706C7920646973636F6E6E72
:10014000656374656421004D61696E2073656E732B
:100150006F7221005049522073656E736F722100D7
:100160005072696D6172792070686F6E653A202BEC
:100170000041542B43485550006661696C65642EFC
:10018000007061737365642E0054657374200046BB
:1001900061696C65642063656C6C3A2000420045BF
:1001A0004550524F4D3A200043757272656E74206F
:1001B0004944203D20004E6F206D6F64656D2E0018
:1001C00053494D3830304C004D3539306500456D60
:1001D000756C6174653A200050726576696F75734D
:1001E000204944203D200047756172642062757487
:1001F000746F6E206F6E2F6F6666206D6F64650082
:10020000477561726420627574746F6E206F6E2022
:100210006D6F646500477561726420627574746FF8
:100220006E206F666600576174636820746865208D
:10023000706F776572206F666600776174636870AF
:100240006F7765726F6666007761746368706F7749
:1002500065726F6E32007761746368706F77657274
:100260006F6E31006775617264627574746F6E6F62
:100270006666006775617264627574746F6E6F6E26
:1002800032006775617264627574746F6E6F6E317F
:10029000006C69737473656E736F72006C6973744C
:1002A000636F6E666967006564697473656E736F0A
:1002B00072006932637363616E0064656C657465B6
:1002C00070686F6E650061646470686F6E65003D94
:1002D000006D6F64656D6964006D656D7465737440
:1002E0000066756C6C726573657400726573657415
:1002F00070686F6E65007265736574636F6E6669B2
:1003000067006C69737470686F6E650041542B43AD
:100310005553443D300055535344207175657279EF
:100320003A20002B435553443A00534D53206672F4
:100330006F6D3A202B002C22002C2C002B434D54A7
:100340003A0052696E672066726F6D3A202B002C5E
:100350000052494E4700506175736554696D6520C0
:1003600069733A200044656C61794265666F726515
:1003700047756172642069733A200044656C617945
:100380004265666F7265416C61726D2069733A20D7
:100390000041542B435553443D312C2200534D53BF
:1003A0002072656D6F766564003400302C34004136
:1003B000542B434D47443D006C65646F6666006C8A
:1003C00065646F6E00746573746F66660074657340
:1003D000746F6E0020006F6E2E006F66662E0049EF
:1003E0006E666F3A205049522000696E666F006752
:1003F000756172646F66660067756172646F6E0026
:100400007061757365006D6F6E6579006564697400
:1004100073656E736F720067756172646275747470
:100420006F6E6F6666006775617264627574746F73
:100430006E6F6E32006775617264627574746F6E90
:100440006F6E31007761746368706F7765726F6685
:1004500066007761746368706F7765726F6E3200E3
:100460007761746368706F7765726F6E31005049A1
:1004700052204F6666007069726F6666005049527E
:10048000204F6E007069726F6E00536D73204F665F
:100490006600736D736F666600536D73204F6E0058
:1004A000736D736F6E0052696E67204F66660072DF
:1004B000696E676F66660052696E67204F6E0072E4
:1004C000696E676F6E007265736574636F6E6669DF
:1004D0006700726573657470686F6E650066756C31
:1004E0006C726573657400616C61726D70696E74B5
:1004F000696D650064656C61796265666F726561DE
:100500006C61726D0064656C61796265666F7265BD
:10051000677561726400736C65657074696D650000
:1005200062616C616E63656E756D0064656C6574A7
:100530006570686F6E650061646470686F6E6500F9
:100540003B004154442B0000000000240027002AF7
:100550000000000008000201000003040700000082
:1005600000000000004C656E67746820746F207294
:10057000657475726E3A20004E756D6265723A2030
:10058000004C6F61642064656661756C7420626103
:100590006C616E636520646174612E0044656C65F6
:1005A00074696E672062616C616E6365206461745A
:1005B000612E00416C61726D496E74657276616C7A
:1005C0002069733A20004C6F616420646566617530
:1005D0006C742070686F6E6520646174612E0044D5
:1005E000656C6574696E672070686F6E6520646104
:1005F00074612E00526561642061727261792070AD
:10060000686F6E653A0044656C61794265666F7229
:1006100065416C61726D3A200044656C6179426598
:10062000666F726547756172643A20004775617242
:1006300064427574746F6E456E61626C653A200039
:100640005761746368457874506F7765723A20001B
:1006500050495247756172643A2000416C61726D75
:10066000496E74657276616C3A20005061757365ED
:1006700054696D653A200047756172643A20004CF8
:1006800065644F6E3A2000546573744F6E3A2000D3
:10069000416C61726D52696E673A200053656E64F9
:1006A000536D733A20005265616420656570726F06
:1006B0006D636F6E6669673A004C6F6164206465B4
:1006C0006661756C7420656570726F6D636F6E66C0
:1006D000696720646174612E0044656C6574696E9D
:1006E0006720656570726F6D636F6E666967206401
:1006F0006174612E004775617264204F6666004721
:1007000075617264204F66662E20427574746F6E38
:100710000057617463682074686520706F77657234
:10072000206F6E0050686F6E652061646465642E92
:10073000004572726F722C20746869732070686F44
:100740006E6520616C726561647920657869737487
:100750007320696E207468652063656C6C3A2000B4
:100760004572726F722C2077726F6E67206E756D96
:10077000626572206F662063656C6C732E00457233
:10078000726F722C20666972737420726567697368
:100790007465722061207072696D61727920706871
:1007A0006F6E652E004572726F722064656C6574A1
:1007B000696E672070686F6E653A202B0044656C27
:1007C0006574652070686F6E653A202B004932436E
:1007D0002064657669636573206E6F7420666F753B
:1007E0006E640030004572726F7220617420307840
:1007F000006465746563746564205043463835371A
:10080000340A00300049324320646576696365200C
:1008100061742030780053656E736F722064617468
:10082000613A0053656E736F722064617461207366
:10083000617665642E004572726F722073656E7307
:100840006F72206E756D62657200220041542B43F9
:100850004D47533D22004775617264204F6E00473B
:1008600075617264204F6E2E20427574746F6E0035
:1008700000000000250028002B00000000002300DD
:1008800026002900040404040404040402020202F1
:100890000202030303030303010204081020408043
:1008A000010204081020010204081020BA357E3528
:1008B00011241FBECFEFD8E0DEBFCDBF13E0A0E014
:1008C000B1E0E8EBF5E702C005900D92A834B1075E
:1008D000D9F726E0A8E4B3E001C01D92AB37B20718
:1008E000E1F714E0C7E5D4E004C02197FE010E94BF
:1008F0007138C635D107C9F70E94AC280C94CF3A9D
:100900000C9400000F931F93CF93DF93CDB7DEB706
:10091000A9970FB6F894DEBF0FBECDBF0E94822804
:100920008091D103813009F058C767E375E0CE01AB
:1009300001960E948F18BE016F5F7F4F86E496E09C
:100940000E9499168C01CE0101960E94311817FD64
:100950000EC066E476E0CE0101960E949818CE01A2
:1009600001960E94E320CE0101960E9431186BE2AD
:1009700075E0CE0101960E948F18BE016F5F7F4F18
:1009800086E496E00E9499168C01CE0101960E94A1
:10099000311817FD0EC066E476E0CE0101960E9484
:1009A0009818CE0101960E94951FCE0101960E94D3
:1009B000311860E275E0CE0101960E948F18BE01E9
:1009C0006F5F7F4F86E496E00E9499168C01CE01FE
:1009D00001960E94311817FDD3C06BEC72E0CE0176
:1009E00001960E94A118BE016F5F7F4F86E496E0DA
:1009F0000E948F164AE0BC01CE0142960E94361832
:100A0000CE0142960E948915AB014F5F5F4F66E4AD
:100A100076E0CE0148960E94871ECE0142960E9443
:100A20003118CE0101960E9431186DED72E0CE01B1
:100A300042960E94A1186CED72E0CE0101960E94D0
:100A4000A118AE014E5E5F4FBE016F5F7F4FCE01BA
:100A500048960E949415CE0101960E943118CE014D
:100A600042960E9431186DEC72E0CE0101960E9410
:100A7000A118BE016F5F7F4FCE0148960E94991664
:100A80004AE0BC01CE014E960E943618CE014E9629
:100A90000E9489159B0140E050E0BE01685E7F4FD7
:100AA000CE0142960E94B618CE014E960E94311891
:100AB000CE0101960E9431186DEC72E0CE014E9687
:100AC0000E94A118BE01625E7F4F86E496E00E94FC
:100AD0008F164AE0BC01CE0184960E943618CE01E2
:100AE00084960E948915AB014F5F5F4F66E476E004
:100AF000CE0101960E94871ECE0184960E94311875
:100B0000CE014E960E943118CE0101960E948915A1
:100B1000162FBE016E5E7F4FCE014E960E94981832
:100B200041E150E063EE73E0CE014E960E943D2815
:100B300063EE73E08EE190E00E947C23612F80E3FE
:100B400090E00E94AF2361E081E390E00E94AF2338
:100B50000E94F51D8FE795E00E9443190E94E51A57
:100B6000CE014E960E943118CE0101960E94311896
:100B7000CE0142960E943118CE0148960E9431184B
:100B800066E175E0CE0101960E948F18BE016F5F8D
:100B90007F4F86E496E00E9499168C01CE01019663
:100BA0000E94311817FD81C06BEC72E0CE010196F6
:100BB0000E94A118BE016F5F7F4F86E496E00E94FD
:100BC0008F164AE0BC01CE0148960E943618CE012D
:100BD00048960E948915AB014F5F5F4F66E476E04F
:100BE000CE0142960E94871ECE0148960E9431187F
:100BF000CE0101960E9431186DED72E0CE0148964B
:100C00000E94A1186CED72E0CE0101960E94A1181D
:100C1000AE01485E5F4FBE016F5F7F4FCE014296CF
:100C20000E949415CE0101960E943118CE0148967B
:100C30000E943118BE016E5E7F4FCE0101960E9468
:100C40009818CE0101960E948915DC01CB0101970D
:100C5000A109B109CC97A105B10510F00C944E0E75
:100C6000CE0101960E948915162F8FE090E00E9418
:100C7000AF231093870266E573E08FE795E00E944B
:100C80000A198FE090E00E94BF236AE070E00E94A2
:100C9000E3270E94931E0E94E51ACE0101960E944E
:100CA0003118CE0142960E94311865E075E0CE0100
:100CB00001960E948F18BE016F5F7F4F86E496E019
:100CC0000E9499168C01CE0101960E94311817FDE1
:100CD0007DC06BEC72E0CE0101960E94A118BE01AE
:100CE0006F5F7F4F86E496E00E948F164AE0BC015A
:100CF000CE0148960E943618CE0148960E9489156A
:100D0000AB014F5F5F4F66E476E0CE0142960E94F2
:100D1000871ECE0148960E943118CE0101960E948E
:100D200031186DED72E0CE0148960E94A1186CED6D
:100D300072E0CE0101960E94A118AE01485E5F4F9D
:100D4000BE016F5F7F4FCE0142960E949415CE0187
:100D500001960E943118CE0148960E943118BE01BA
:100D60006E5E7F4FCE0101960E949818CE010196CB
:100D70000E9489156F3F71058105910511F008F0FA
:100D8000A1C7CE0101960E948915162F85E190E03A
:100D90000E94AF231093270565E673E08FE795E087
:100DA0000E940A1985E190E00E94BF236AE070E08A
:100DB0000E94E3270E94931E0E94E51ACE0101962D
:100DC0000E943118CE0142960E94311864EF74E0FF
:100DD000CE0101960E948F18BE016F5F7F4F86E49F
:100DE00096E00E9499168C01CE0101960E9431185E
:100DF00017FD7DC06BEC72E0CE0101960E94A11838
:100E0000BE016F5F7F4F86E496E00E948F164AE036
:100E1000BC01CE0148960E943618CE0148960E9429
:100E20008915AB014F5F5F4F66E476E0CE014296D5
:100E30000E94871ECE0148960E943118CE0101966D
:100E40000E9431186DED72E0CE0148960E94A11803
:100E50006CED72E0CE0101960E94A118AE01485ED1
:100E60005F4FBE016F5F7F4FCE0142960E94941587
:100E7000CE0101960E943118CE0148960E94311889
:100E8000BE016E5E7F4FCE0101960E949818CE0182
:100E900001960E9489156F3F71058105910511F03A
:100EA00008F023C7CE0101960E948915162F86E10E
:100EB00090E00E94AF231093AC036BE773E08FE7E1
:100EC00095E00E940A1986E190E00E94BF236AE043
:100ED00070E00E94E3270E94931E0E94E51ACE0153
:100EE00001960E943118CE0142960E94311867EE99
:100EF00074E0CE0101960E948F18BE016F5F7F4F94
:100F000086E496E00E9499168C01CE0101960E941B
:100F1000311817FD6BC06BEC72E0CE0101960E9498
:100F2000A118BE016F5F7F4F86E496E00E948F1686
:100F30004AE0BC01CE0142960E943618CE0142968C
:100F40000E948915AB014F5F5F4F66E476E0CE01EA
:100F500048960E94871ECE0142960E943118CE010B
:100F600001960E9431186DED72E0CE0142960E940A
:100F7000A1186CED72E0CE0101960E94A118AE019D
:100F80004E5E5F4FBE016F5F7F4FCE0148960E945D
:100F90009415CE0101960E943118CE0142960E940E
:100FA0003118BE01685E7F4FCE0142960E949818AC
:100FB000CE0142960E948915DC01CB010197A1095F
:100FC000B109803C984AA105B10508F0A1C6CE013F
:100FD00042960E948915CB010E94211CCE014296A7
:100FE0000E943118CE0148960E9431186DED74E0D0
:100FF000CE0101960E948F18BE016F5F7F4F86E47D
:1010000096E00E9499168C01CE0101960E9431183B
:1010100017FD1CC06FEF80E090E00E94AF230E949C
:101020004C1C68EE73E080E090E00E942A116FEFA4
:1010300083E690E00E94AF230E94BB1B68EE73E042
:1010400080E090E00E942A110E94E51A62ED74E0AF
:10105000CE0101960E948F18BE016F5F7F4F86E41C
:1010600096E00E9499168C01CE0101960E943118DB
:1010700017FD09C06FEF83E690E00E94AF230E9446
:10108000BB1B0E94E51A66EC74E0CE0101960E943B
:101090008F18BE016F5F7F4F86E496E00E9499161D
:1010A0008C01CE0101960E94311817FD09C06FEF27
:1010B00080E090E00E94AF230E944C1C0E94E51A41
:1010C0006FEB74E0CE0101960E948F18BE016F5F36
:1010D0007F4F86E496E00E9499168C01CE0101961E
:1010E0000E94311817FD3FC068EE73E080E090E089
:1010F0000E942A1181E08093880261E08BE090E0F9
:101100000E94AF236FEE72E0CE0142960E94A118BA
:101110006AE376E0CE0142960E948F17BC01CE01B1
:1011200048960E94981867EB74E0CE0101960E94E1
:101130008F1840E0BE01685E7F4FCE0101960E948D
:10114000C123CE0101960E943118CE0148960E941B
:101150003118CE0142960E94311868EE73E080E0AB
:1011600090E00E942A116FEA74E0CE0101960E947D
:101170008F18BE016F5F7F4F86E496E00E9499163C
:101180008C01CE0101960E94311817FD3EC068EE19
:1011900073E080E090E00E942A111092880260E0E3
:1011A0008BE090E00E94AF236FEE72E0CE0142969A
:1011B0000E94A1186AE376E0CE0142960E948F1742
:1011C000BC01CE0148960E94981866EA74E0CE01F0
:1011D00001960E948F1840E0BE01685E7F4FCE01ED
:1011E00001960E94C123CE0101960E943118CE01C2
:1011F00048960E943118CE0142960E94311868EE3E
:1012000073E080E090E00E942A1160EA74E0CE0171
:1012100001960E948F18BE016F5F7F4F86E496E0B3
:101220000E9499168C01CE0101960E94311817FD7B
:101230003FC068EE73E080E090E00E942A1181E0F8
:101240008093000161E08AE090E00E94AF236FEE9E
:1012500072E0CE0142960E94A1186AE376E0CE01C8
:1012600042960E948F17BC01CE0148960E949818A2
:1012700069E974E0CE0101960E948F1840E0BE013A
:10128000685E7F4FCE0101960E94C123CE01019678
:101290000E943118CE0148960E943118CE01429624
:1012A0000E94311868EE73E080E090E00E942A11FD
:1012B00062E974E0CE0101960E948F18BE016F5F53
:1012C0007F4F86E496E00E9499168C01CE0101962C
:1012D0000E94311817FD3EC068EE73E080E090E098
:1012E0000E942A116FEE72E0CE0142960E94A11870
:1012F0006AE376E0CE0142960E948F17BC01CE01D0
:1013000048960E9498186AE874E0CE0101960E94FF
:101310008F1840E0BE01685E7F4FCE0101960E94AB
:10132000C123CE0101960E943118CE0148960E9439
:101330003118CE0142960E9431181092000160E0EF
:101340008AE090E00E94AF2368EE73E080E090E0D6
:101350000E942A1164E874E0CE0101960E948F1861
:10136000BE016F5F7F4F86E496E00E9499168C0164
:10137000CE0101960E94311817FD3FC068EE73E060
:1013800080E090E00E942A1181E08093AA0361E04E
:1013900082E190E00E94AF236FEE72E0CE014296B0
:1013A0000E94A1186AE376E0CE0142960E948F1750
:1013B000BC01CE0148960E9498186DE774E0CE01FA
:1013C00001960E948F1840E0BE01685E7F4FCE01FB
:1013D00001960E94C123CE0101960E943118CE01D0
:1013E00048960E943118CE0142960E94311868EE4C
:1013F00073E080E090E00E942A1166E774E0CE017D
:1014000001960E948F18BE016F5F7F4F86E496E0C1
:101410000E9499168C01CE0101960E94311817FD89
:101420003EC068EE73E080E090E00E942A111092C6
:10143000AA0360E082E190E00E94AF236FEE72E0C9
:10144000CE0142960E94A1186AE376E0CE01429650
:101450000E948F17BC01CE0148960E9498186EE634
:1014600074E0CE0101960E948F1840E0BE01685ED4
:101470007F4FCE0101960E94C123CE0101960E94AA
:101480003118CE0148960E943118CE0142960E9432
:10149000311868EE73E080E090E00E942A1160E667
:1014A00074E0CE0101960E948F18BE016F5F7F4FDE
:1014B00086E496E00E9499168C01CE0101960E9466
:1014C000311817FD04C061E081E00E94FD2262E551
:1014D00074E0CE0101960E948F18BE016F5F7F4FAE
:1014E00086E496E00E9499168C01CE0101960E9436
:1014F000311817FD04C062E081E00E94FD2264E41F
:1015000074E0CE0101960E948F18BE016F5F7F4F7D
:1015100086E496E00E9499168C01CE0101960E9405
:10152000311817FD3EC068EE73E080E090E00E9445
:101530002A111092850260E083E190E00E94AF23BF
:101540006FEE72E0CE0142960E94A1186AE376E047
:10155000CE0142960E948F17BC01CE0101960E94D7
:10156000981866E272E0CE0148960E948F1840E01B
:10157000BE016F5F7F4FCE0148960E94C123CE010E
:1015800048960E943118CE0101960E943118CE0172
:1015900042960E94311868EE73E080E090E00E946D
:1015A0002A1165E374E0CE0101960E948F18BE01F6
:1015B0006F5F7F4F86E496E00E9499168C01CE0102
:1015C00001960E94311817FD3FC068EE73E080E07D
:1015D00090E00E942A1181E08093CF0361E084E1D2
:1015E00090E00E94AF236FEE72E0CE0142960E941F
:1015F000A1186AE376E0CE0142960E948F17BC01E3
:10160000CE0101960E94981867EE71E0CE014896CF
:101610000E948F1840E0BE016F5F7F4FCE01489659
:101620000E94C123CE0148960E943118CE01019636
:101630000E943118CE0142960E94311868EE73E084
:1016400080E090E00E942A1166E274E0CE010196EB
:101650000E948F18BE016F5F7F4F86E496E00E9464
:1016600099168C01CE0101960E94311817FD3FC0DA
:1016700068EE73E080E090E00E942A1182E080939F
:10168000CF0362E084E190E00E94AF236FEE72E04E
:10169000CE0142960E94A1186AE376E0CE014296FE
:1016A0000E948F17BC01CE0101960E94981860E03D
:1016B00072E0CE0148960E948F1840E0BE016F5F35
:1016C0007F4FCE0148960E94C123CE0148960E94CA
:1016D0003118CE0101960E943118CE0142960E9427
:1016E000311868EE73E080E090E00E942A1167E113
:1016F00074E0CE0101960E948F18BE016F5F7F4F8C
:1017000086E496E00E9499168C01CE0101960E9413
:10171000311817FD3EC068EE73E080E090E00E9453
:101720002A111092CF0360E084E190E00E94AF2381
:101730006FEE72E0CE0142960E94A1186AE376E055
:10174000CE0142960E948F17BC01CE0101960E94E5
:10175000981865E172E0CE0148960E948F1840E02B
:10176000BE016F5F7F4FCE0148960E94C123CE011C
:1017700048960E943118CE0101960E943118CE0180
:1017800042960E94311868EE73E080E090E00E947B
:101790002A116CE074E0CE0101960E948F18BE0100
:1017A0006F5F7F4F86E496E00E9499168C01CE0110
:1017B00001960E94311817FD0EC066E476E0CE0156
:1017C00001960E949818CE0101960E94D425CE0160
:1017D00001960E9431181092D10366E074E0CE01A8
:1017E00001960E948F18BE016F5F7F4F86E496E0DE
:1017F0000E9499168C01CE0101960E94311817FDA6
:101800002DC068EE73E080E090E00E942A1161E94B
:1018100073E088E596E00E940A196CE476E0CE0158
:1018200001960E94981869EC72E0CE0101960E9420
:101830007617BC0188E596E00E944719CE01019613
:101840000E94311868EC70E080E090E00E942A115C
:1018500068EE73E080E090E00E942A1160E074E09E
:10186000CE0101960E948F18BE016F5F7F4F86E404
:1018700096E00E9499168C01CE0101960E943118C3
:1018800017FD61C068EE73E080E090E00E942A11CD
:101890006FEE72E0CE014E960E94A1186AE376E0E8
:1018A000CE014E960E948F17BC01CE0184960E94F5
:1018B00098184AE060918702CE0142960E94621811
:1018C0006FEC72E0CE0101960E94A118BE016E5E1F
:1018D0007F4FCE0101960E948F1766ED72E00E9445
:1018E0007617BC01CE0148960E94981841E0BE01CF
:1018F0006C5D7F4FCE0148960E94C123CE01489671
:101900000E943118CE0101960E943118CE014296F4
:101910000E943118CE0184960E943118CE014E9655
:101920000E94311860E08BE00E94BE102091870277
:1019300030E0A0E6BAEE0E943A380E942A1161E037
:101940008BE00E94BE1068EF73E0CE0101960E940A
:101950008F18BE016F5F7F4F86E496E00E94991654
:101960008C01CE0101960E94311817FD08C068EE67
:1019700073E080E090E00E942A110E94C71A6FEE87
:1019800073E0CE0101960E948F18BE016F5F7F4FFA
:1019900086E496E00E9499168C01CE0101960E9481
:1019A000311817FD0CC068EE73E080E090E00E94F3
:1019B0002A111092AB03109258050E94C3196AEEC7
:1019C00073E0CE0101960E948F18BE016F5F7F4FBA
:1019D00086E496E00E9499168C01CE0101960E9441
:1019E000311817FD7DC06FED73E0CE0101960E94A6
:1019F0008F188091AA03BE016F5F7F4F811107C0CE
:101A0000CE0142960E9498186AED73E006C0CE019E
:101A100042960E94981866ED73E0CE0142960E94AD
:101A2000E516BC01CE0101960E94E117CE01429657
:101A30000E943118BE016F5F7F4FCE0142960E9417
:101A4000981864ED73E0CE0142960E94E51664E3B7
:101A500076E00E948F17BC01CE0101960E94E1172B
:101A6000CE0142960E94311868EE73E080E090E06B
:101A70000E942A116FEE72E0CE0148960E94A118D2
:101A80006AE376E0CE0148960E948F17BC01CE0132
:101A90004E960E949818BE016F5F7F4FCE0142960E
:101AA0000E94981841E0BE01625E7F4FCE014296CF
:101AB0000E94C123CE0142960E943118CE014E965B
:101AC0000E943118CE0148960E94311868EE73E0EA
:101AD00080E090E00E942A11CE0101960E94311808
:101AE0006DEC73E0CE0101960E948F18BE016F5F0E
:101AF0007F4F86E496E00E9499168C01CE010196F4
:101B00000E94311817FD14C068EE73E080E090E089
:101B10000E942A1181E08093D00361E08CE090E084
:101B20000E94AF2368EE73E080E090E00E942A11EB
:101B300065EC73E0CE0101960E948F18BE016F5FC5
:101B40007F4F86E496E00E9499168C01CE010196A3
:101B50000E94311817FD17C068EE73E080E090E036
:101B60000E942A111092D00360E08CE090E00E9465
:101B7000AF2361E08BE00E94BE1068EE73E080E06E
:101B800090E00E942A116FEB73E0CE0101960E9453
:101B90008F18BE016F5F7F4F86E496E00E94991612
:101BA0008C01CE0101960E94311817FD18C068EE15
:101BB00073E080E090E00E942A1181E08093B00100
:101BC00061E08DE090E00E94AF2360E08CE00E9435
:101BD000BE1068EE73E080E090E00E942A1168EB8E
:101BE00073E0CE0101960E948F18BE016F5F7F4F98
:101BF00086E496E00E9499168C01CE0101960E941F
:101C0000311817FD17C068EE73E080E090E00E9485
:101C10002A111092B00160E08DE090E00E94AF23A5
:101C200061E08CE00E94BE1068EE73E080E090E01E
:101C30000E942A116FEA73E088E596E00E940A1973
:101C40008091D303813031F46BEA73E088E596E04C
:101C50000E9459198091D3038250823030F469EA8E
:101C600073E088E596E00E94591960ED77E080E026
:101C700090E00E942A116DE973E08FE795E00E94E1
:101C800059190E94E51AA9960FB6F894DEBF0FBE47
:101C9000CDBFDF91CF911F910F9108954AE06091E0
:101CA0008702CE0148960E946218BE01685E7F4F8F
:101CB000CE0101960E94F817CE0148960E94311875
:101CC0000C9430064AE060912705CE0148960E94A8
:101CD0006218BE01685E7F4FCE0101960E94F81720
:101CE000CE0148960E9431184CC84AE06091AC037E
:101CF000CE0148960E946218BE01685E7F4FCE01F9
:101D000001960E94F817CE0148960E943118CAC861
:101D10008091AD019091AE011F8E1E8E19A218A266
:101D20001BA21AA24AE0BE016F5F7F4F0E946F376D
:101D3000BE016F5F7F4FCE014E960E94CA17BE0153
:101D4000625E7F4FCE0142960E94F817CE014E96FA
:101D50000E9431183CC9FC01918D228D892F90E0A1
:101D6000805C9F4F821B91098F739927089580E0B3
:101D700090E0892B29F00E94161581110C94000027
:101D80000895833081F028F4813099F08230A1F0F9
:101D900008958730A9F08830B9F08430D1F480916B
:101DA00080008F7D03C0809180008F7780938000BA
:101DB000089584B58F7702C084B58F7D84BD089562
:101DC0008091B0008F7703C08091B0008F7D8093A9
:101DD000B00008953FB7F8948091210590912205B5
:101DE000A0912305B091240526B5A89B05C02F3FDF
:101DF00019F00196A11DB11D3FBFBA2FA92F982F31
:101E00008827820F911DA11DB11DBC01CD0142E0AB
:101E1000660F771F881F991F4A95D1F7089585EDA2
:101E20008093BC008091BC0084FDFCCF10927403B1
:101E300008954091F704262F30E0240F311D213200
:101E40003105DCF4209174032430C9F4FC0180E0F6
:101E500090E0861758F43091F7042191DC01AB52E1
:101E6000BB4FA30FB11D2C930196F3CF8091F704C4
:101E7000680F6093F70480E0089581E0089582E0A0
:101E800008950895E091950380919603E81730F442
:101E9000F0E0EB58FC4F808190E008958FEF9FEFCA
:101EA00008959091950380919603981750F4E92F27
:101EB000F0E0EB58FC4F208130E09F5F909395035A
:101EC00002C02FEF3FEFC90108958091960390E083
:101ED00020919503821B91090895CF92DF92EF9292
:101EE000FF920F931F93CF93DF937C01262F972FA1
:101EF0008A0180911404882391F0C62FD72F6E0198
:101F0000C40ED51ECC15DD0571F06991D701ED9198
:101F1000FC910190F081E02DC7010995F3CF642F6A
:101F2000822F0E94190FC801DF91CF911F910F914D
:101F3000FF90EF90DF90CF900895CF93DF931F92A3
:101F4000CDB7DEB76983209114042223D1F020910C
:101F50004803203240F021E030E0FC01338322834B
:101F600080E090E015C080914903E82FF0E0EC504C
:101F7000FC4F998190838F5F80934903809348033E
:101F800005C061E0CE0101960E94190F81E090E04A
:101F90000F90DF91CF91089520914C0330914D0324
:101FA0002817390771F490914A0380914B039817D1
:101FB00041F0E0914A03F0E0EB5EFB4F808190E05E
:101FC00008958FEF9FEF089508951F93CF93DF93A8
:101FD000DC015C962D913C915D972115310539F41A
:101FE00081E090E013969C938E9312973DC051969A
:101FF000ED91FC91529750969C915097892F809526
:102000001FB75E964C915E9741FB772770F941FDB3
:102010006095F8944081772311F0492B01C0482343
:102020004083E9012197F1F748E0508160FF02C049
:10203000592B01C058235083E9012197F1F7669588
:10204000415099F7772321F090818923808303C041
:102050008081982B90831FBF5C968D919C915D979A
:102060000197F1F721E030E0C901DF91CF911F9195
:10207000089520914C0330914D032817390771F4CE
:1020800080914B0320914A0390E080549F4F821B24
:10209000910960EC70E00E944938089580E090E07A
:1020A000089520914C0330914D0328173907C9F446
:1020B00090914A0380914B03981799F0E0914A035D
:1020C000F0E0EB5EFB4F208180914A0390E00196A7
:1020D00060EC70E00E94493880934A03822F90E0C0
:1020E00008958FEF9FEF0895FC01848DDF01A80F05
:1020F000B11DA35ABF4F2C91848D90E001968F7330
:102100009927848FA689B7892C93A089B1898C914E
:1021100080648C93938D848D981306C00288F38914
:10212000E02D80818F7D80830895CF93DF93282FCA
:1021300030E0F901EF5AFA4F8491F901E856F74F70
:10214000D491F901EC57F74FC491CC2391F0811150
:102150000E94C10EEC2FF0E0EE0FFF1FE658F74F84
:10216000A591B491EC91ED2381E090E021F480E021
:1021700002C080E090E0DF91CF9108951F93CF934C
:10218000DF93282F30E0F901EF5AFA4F8491F901DB
:10219000E856F74FD491F901EC57F74FC491CC238F
:1021A000C9F0162F81110E94C10EEC2FF0E0EE0F46
:1021B000FF1FE059F74FA591B4918FB7F894111113
:1021C00005C09C91ED2FE095E92302C0EC91ED2B29
:1021D000EC938FBFDF91CF911F910895CF93DF9341
:1021E00090E0FC01E856F74F2491FC01EC57F74FC3
:1021F0008491882361F190E0880F991FFC01E95BCD
:10220000FA4FC591D491FC01E059F74FA591B491D3
:10221000611109C09FB7F894888120958223888333
:10222000EC912E230BC0623061F49FB7F894388193
:10223000822F809583238883EC912E2B2C939FBF34
:1022400006C08FB7F894E8812E2B28838FBFDF91CB
:10225000CF9108958F929F92AF92BF92CF92DF92CB
:10226000EF92FF926B017C010E94EA0E4B015C0130
:10227000C114D104E104F104F1F00E94EA0EDC0182
:10228000CB0188199909AA09BB09883E9340A10589
:10229000B10570F321E0C21AD108E108F10888EE17
:1022A000880E83E0981EA11CB11CC114D104E10466
:1022B000F10419F7DDCFFF90EF90DF90CF90BF9042
:1022C000AF909F908F9008952FB7F89460911D055F
:1022D00070911E0580911F05909120052FBF0895D4
:1022E0001F920F920FB60F9211242F933F938F934B
:1022F0009F93AF93BF9380911D0590911E05A09170
:102300001F05B091200530911C0523E0230F2D37C8
:1023100020F40196A11DB11D05C026E8230F0296E9
:10232000A11DB11D20931C0580931D0590931E05D2
:10233000A0931F05B093200580912105909122055F
:10234000A0912305B09124050196A11DB11D809394
:10235000210590932205A0932305B0932405BF91F6
:10236000AF919F918F913F912F910F900FBE0F9042
:102370001F9018951F920F920FB60F9211242F9352
:102380003F934F935F936F937F938F939F93AF93FD
:10239000BF93EF93FF938091B900887F803609F453
:1023A0009CC068F5883209F45BC090F4803109F470
:1023B00054C038F4882309F4F6C0883009F44DC0BD
:1023C000F6C0883109F44CC0803209F45DC0EFC01A
:1023D000803409F468C048F4803309F455C0883368
:1023E00009F0E5C080937203D8C0803509F44FC06E
:1023F000883509F45DC0883409F0D9C0D6C0883961
:1024000009F4C7C0A8F4883709F467C038F48836DF
:1024100009F463C0803709F460C0C9C0883809F482
:10242000B8C0803909F45FC0803809F0C0C05BC013
:10243000803B09F486C038F4803A09F466C0883AD3
:1024400009F47FC0B4C0803C09F4A7C0883C09F4FB
:10245000A4C0883B09F48AC0AAC080916F0310C051
:102460009091710380917003981770F5E09171035A
:1024700081E08E0F80937103F0E0E25BFC4F80817E
:102480008093BB0085EC86C0809372038EC0E09180
:10249000710381E08E0F809371038091BB00F0E0A7
:1024A000E25BFC4F808390917103809170036EC05A
:1024B000E091710381E08E0F809371038091BB00E6
:1024C000F0E0E25BFC4F80838091730381116DC06B
:1024D00081E080936E0384EA61C083E0809374039B
:1024E00010921B05CFCF80911B05803208F051C0A0
:1024F000E0911B0581E08E0F80931B058091BB004E
:10250000F0E0E550FB4F8083BDCF85EC8093BC00AD
:102510001092740380911B05803230F4E0911B050A
:10252000F0E0E550FB4F108260911B0570E0E091F8
:10253000F904F091FA048BEF94E0099510921B05D1
:1025400036C084E0809374031092F8041092F7046C
:10255000E091F504F091F60409958091F70481115A
:1025600005C081E08093F7041092D504E091F8044F
:1025700081E08E0F8093F804F0E0EB52FB4F8081F6
:102580008093BB009091F8048091F704981708F4A9
:1025900079CF85E88093BC000AC085EC8093BC00AD
:1025A0001092740304C0109272030E940F0FFF91E7
:1025B000EF91BF91AF919F918F917F916F915F91BB
:1025C0004F913F912F910F900FBE0F901F90189534
:1025D0001F920F920FB60F9211242F933F934F9398
:1025E0005F936F937F938F939F93AF93BF93EF937B
:1025F000FF93E0914C03F0914D03309709F453C0E1
:10260000968DA685B785858591FF04C09C91892309
:1026100029F449C09C91892309F045C0A389B48954
:102620009C918589809589238C93868997890197C8
:10263000F1F7608D718DA685B785558538E020E06E
:10264000CB010197F1F7822F90E095958795282F80
:102650004C91452309F02068315091F7868D81FD1A
:10266000209580914B0390E0019660EC70E00E9411
:10267000493890914A03981749F0A0914B03B0E074
:10268000AB5EBB4F2C9380934B0303C0868D816060
:10269000868F828D938D0197F1F7A389B4899C91E0
:1026A0008589892B8C93FF91EF91BF91AF919F9179
:1026B0008F917F916F915F914F913F912F910F90EB
:1026C0000FBE0F901F901895AF92BF92CF92DF92DE
:1026D000EF92FF920F931F93CF93DF93CDB7DEB7A7
:1026E00068970FB6F894DEBF0FBECDBF7C01B62E43
:1026F000A42EBC018FE795E00E94471903EB11E07F
:10270000F801C388D488C60143960E94BF23813054
:1027100009F03FC06EEB73E0C6010E945623BC0176
:10272000CE0107960E94A1186FEE72E0CE010D96C1
:102730000E94A118BE01695F7F4FCE010D960E94D5
:102740008F17BC01CE0101960E949818B701CE01E7
:1027500043960E9498184A2DBE016F5F7F4FCE01AD
:1027600043960E94C123CE0143960E943118CE01A8
:1027700001960E943118CE010D960E943118CE01AB
:1027800007960E94311868EE73E080E090E00E94A6
:102790002A110B5E1F4FF2E005381F0709F0B0CF7A
:1027A000809188028130C9F5B81237C06EEB73E0B2
:1027B0008091C6019091C7010E945623BC01CE01B1
:1027C00001960E94A118CE0101960E944D27182F54
:1027D000CE0101960E94311811111FC062E475E00C
:1027E00088E596E00E940A196EEB73E08091C601BD
:1027F0009091C7010E945623BC0188E596E00E9493
:102800002E1960E475E088E596E00E94591968EE9B
:1028100073E080E090E00E942A1168960FB6F89469
:10282000DEBF0FBECDBFDF91CF911F910F91FF9003
:10283000EF90DF90CF90BF90AF9008950895CF9222
:10284000DF92EF92FF920F931F93CF93DF936C0170
:102850007A018B01C0E0D0E0CE15DF0589F0D80108
:102860006D918D01D601ED91FC910190F081E02DEB
:10287000C6010995892B11F47E0102C02196ECCF87
:10288000C701DF91CF911F910F91FF90EF90DF90E3
:10289000CF900895FC01918D828D981761F0828D03
:1028A000DF01A80FB11D5D968C91928D9F5F9F7384
:1028B000928F90E008958FEF9FEF0895FC01918D26
:1028C000828D981731F0828DE80FF11D858D90E093
:1028D00008958FEF9FEF08950E946E3AAF92BF92D6
:1028E000CF92DF92EF92FF920F931F93CF93DF93DC
:1028F0007B018A01FB01448155814115510561F13C
:10290000FC01248135812115310531F1241735076A
:1029100018F10217130718F0890101501109FC0181
:10292000A080B180C501DFEFCFEF6501C00ED11EE1
:10293000C816D906A0F0F701608171810E94B53AEE
:10294000009769F09C012A193B090217130710F040
:10295000D22FC32F0196ECCF8FEF9FEF02C08D2FA8
:102960009C2FDF91CF911F910F91FF90EF90DF90FF
:10297000CF90BF90AF9008950F931F93CF93DF93A5
:10298000EC0188819981009729F02A813B812617E3
:10299000370788F48B016F5F7F4F0E94A43900973F
:1029A00061F0998388831B830A832C813D81232BCB
:1029B00011F4FC01108281E001C080E0DF91CF9131
:1029C0001F910F910895CF93DF93EC018881998136
:1029D000009711F00E940C39198218821D821C8206
:1029E0001B821A82DF91CF910895EF92FF920F938D
:1029F0001F93CF93DF93EC017B018A01BA010E9400
:102A0000BC14811104C0CE010E94E31407C01D83D1
:102A10000C83B701888199810E949F3ACE01DF9192
:102A2000CF911F910F91FF90EF9008958FE795E060
:102A30000E94AB0E21E0892B09F420E0822F08953B
:102A4000EF92FF920F931F93CF93DF93EC0181E0FE
:102A5000888F9B8D8C8D981305C0E889F9898081BA
:102A600085FD24C0F62E0B8D10E00F5F1F4F0F73F6
:102A70001127E02E8C8DE8120CC00FB607FCFACFA0
:102A8000E889F989808185FFF5CFCE010E94741015
:102A9000F1CF8B8DFE01E80FF11DE35AFF4FF0825D
:102AA0000B8FEA89FB898081806207C0EE89FF89EC
:102AB0006083E889F98980818064808381E090E087
:102AC000DF91CF911F910F91FF90EF900895CF93D9
:102AD000DF93EC01888D8823C9F0EA89FB89808126
:102AE00085FD05C0A889B9898C9186FD0FC00FB6F8
:102AF00007FCF5CF808185FFF2CFA889B9898C9139
:102B000085FFEDCFCE010E947410E7CFDF91CF910A
:102B10000895FC0180819181009711F00C94023797
:102B200060E070E0CB0108952F923F924F925F9248
:102B30006F927F928F929F92AF92BF92CF92DF92CD
:102B4000EF92FF920F931F93CF93DF93FC0144808A
:102B500055804114510409F4CFC0FB016480758095
:102B60006114710409F4C8C07A016B01EC01FA0127
:102B7000A480B580A618B70808811981A114B104F2
:102B8000C1F4F60160817181C8010E94B53AEC017F
:102B9000892B09F4B1C0F7016081718144815581AD
:102BA000CE010E947B3AF701048115810C0F1D1F95
:102BB000E8CFB7FE02C0480106C0FB01208031808B
:102BC0004201C80142C0F60160817181C4010E94C6
:102BD000B53A2C01892B19F1320168187908A30143
:102BE000B401C8010E947B3A060D171DF7016081F0
:102BF000718144815581C8010E947B3AF70184812B
:102C00009581080F191FF60184809580840C951C0E
:102C10008C819D818A0D9B1D9D838C83D4CFB401B3
:102C2000C801DF91CF911F910F91FF90EF90DF903E
:102C3000CF90BF90AF909F908F907F906F905F905C
:102C40004F903F902F900C949F3AB1010E94B53A5B
:102C5000009729F0860D971D8A0C9B1CF6CF8414D3
:102C6000950409F449C08A819B818815990560F40F
:102C7000B4016F5F7F4FC8010E94A4390097E1F152
:102C8000998388839B828A824C815D81415051095E
:102C900057FD32C0B601CE010E946E148C0197FD23
:102CA0002BC088819981F60124813581200F311F45
:102CB000820F931F4C815D81421B530BBC018A0D17
:102CC0009B1D0E94843A8C819D818A0D9B1D9D8352
:102CD0008C8328813981F901E80FF91F10828881DE
:102CE0009981F7016081718144815581800F911F25
:102CF0000E947B3AA801CACFDF91CF911F910F911B
:102D0000FF90EF90DF90CF90BF90AF909F908F900B
:102D10007F906F905F904F903F902F900895FC01AF
:102D200044815581FB0124813581421B530B0C9456
:102D30006E14CF93DF93FC0124813581232B71F036
:102D4000FB01DC01CD91DC9160817181CE010E949B
:102D5000B53A009719F08C1B9D0B02C08FEF9FEFC7
:102D6000DF91CF910895FC0124813581FB014481DD
:102D700055812417350721F5FC0180819181FB01E4
:102D800060817181009719F061157105A1F46115D9
:102D9000710549F0232BB1F0FB01808190E0919502
:102DA000819591090AC0009769F0232B59F0FC0125
:102DB000808190E002C00E94963A21E0892B19F0B0
:102DC00020E001C021E0822F0895EF92FF920F933F
:102DD0001F93CF93DF93EC017B0161157105E1F047
:102DE000CB010E9430370097D1F02C813D818C01BE
:102DF000020F131FB801CE010E94BC14882361F09A
:102E0000288139818C819D81B701820F931F0E9497
:102E100029371D830C8303C0CE010E94E314CE0129
:102E2000DF91CF911F910F91FF90EF900895EF9256
:102E3000FF920F931F93CF93DF93FC012481358181
:102E40006115710511F480E019C041155105A9F013
:102E50007B01EC018A01020F131FB8010E94BC1410
:102E6000882389F3288139818C819D81B701820F64
:102E7000931F0E949F3A1D830C8381E0DF91CF91C5
:102E80001F910F91FF90EF900895EF92FF920F9393
:102E90001F93CF93DF9300D000D0CDB7DEB77C0176
:102EA000862F4AE08E010F5F1F4FB80190E00E940D
:102EB0004437F80101900020E9F73197AF01401B3A
:102EC000510BB801C7010E941717811103C0C70138
:102ED0000E94E314C7010F900F900F900F90DF91A5
:102EE000CF911F910F91FF90EF900895CF93DF93B3
:102EF000EC016115710561F0FB0101900020E9F71B
:102F00003197AF01461B570B0E941717811103C061
:102F1000CE010E94E314CE01DF91CF910895CF93AB
:102F2000DF93EC01FB0144815581608171810E9436
:102F30001717811103C0CE010E94E314CE01DF9167
:102F4000CF910895EF92FF920F931F93CF93DF934A
:102F5000EC018B016115710551F0CB010E943037F6
:102F60007C01BC01CE010E94BC14811104C0CE01C1
:102F70000E94E31407C0FD82EC82B8018881998128
:102F80000E942937CE01DF91CF911F910F91FF90C1
:102F9000EF900895CF93DF93EC016115710559F01F
:102FA000FB0101900020E9F73197AF01461B570B59
:102FB0000E94F51402C00E94E314CE01DF91CF916C
:102FC0000895CF93DF93EC01FB018617970761F01B
:102FD000608171816115710529F0448155810E94DC
:102FE000F51402C00E94E314CE01DF91CF91089541
:102FF0000F931F93CF93DF938C01EB01FC01808132
:1030000091810097B1F0688179816115710579F03E
:10301000428153812C813D814217530740F00E9429
:103020009F3A8C819D81F8019583848313C00E940F
:103030000C3988819981F801918380838A819B81F1
:10304000938382838C819D819583848319821882E6
:103050001B821A821D821C82DF91CF911F910F91DA
:103060000895FC01808191810C940C390F931F937A
:10307000CF93DF93CDB7DEB762970FB6F894DEBF7C
:103080000FBECDBF8C01CB01F801118210821382DB
:1030900012821582148250E0BE016F5F7F4F0E9442
:1030A0003937BE016F5F7F4FC8010E94CA17629611
:1030B0000FB6F894DEBF0FBECDBFDF91CF911F9149
:1030C0000F9108950F931F93CF93DF93CDB7DEB782
:1030D00029970FB6F894DEBF0FBECDBF8C01862FA7
:1030E000F80111821082138212821582148250E03C
:1030F000BE016F5F7F4F90E00E946437BE016F5F3B
:103100007F4FC8010E94CA1729960FB6F894DEBFF8
:103110000FBECDBFDF91CF911F910F910895FC019C
:103120001182108213821282158214820C94A217CB
:10313000FC011182108213821282158214820C9477
:10314000E117FC011182108213821282158214820F
:103150006115710551F0FB0101900020E9F73197ED
:10316000AF01461B570B0C94F5140895BF92CF92F4
:10317000DF92EF92FF920F931F93CF93DF937C0127
:103180006B018A01E9012417350720F4812F890199
:10319000C42FD82F6DED72E0C7010E94A118D6018F
:1031A00014968D919C91159708171907D0F48C17D8
:1031B0009D0708F4EC01D601ED91FC911197EC0FFD
:1031C000FD1FB08010824D915C91BA01600F711F9C
:1031D000C7010E94CA17D601ED91FC91EC0FFD1FAB
:1031E000B082C701DF91CF911F910F91FF90EF90B7
:1031F000DF90CF90BF900895DC01ED91FC91DB0151
:1032000014964D915C9115976D917C910280F3819C
:10321000E02D0994EF92FF920F931F93CF93DF93CA
:103220008C017B01C0E0D0E0F701EC0FFD1F649141
:10323000662361F0D801ED91FC910190F081E02DC1
:10324000C8010995892B11F02196EECFCE01DF91AF
:10325000CF911F910F91FF90EF9008956115710527
:1032600079F0FB0101900020E9F73197AF01461B8F
:10327000570BDC01ED91FC910280F381E02D099464
:1032800080E090E008956BED72E00C942E190F939E
:103290001F93CF93DF93EC010E94FC188C01CE01A9
:1032A0000E944319800F911FDF91CF911F910F91C1
:1032B00008950F931F93CF93DF93EC010E940A1997
:1032C0008C01CE010E944319800F911FDF91CF9195
:1032D0001F910F9108951F920F920FB60F92112414
:1032E0002F933F934F935F936F937F938F939F930E
:1032F000AF93BF93EF93FF938FE795E00E94741015
:10330000FF91EF91BF91AF919F918F917F916F91BD
:103310005F914F913F912F910F900FBE0F901F9093
:1033200018951F920F920FB60F9211242F938F931F
:103330009F93EF93FF93E0918F05F091900580812B
:10334000E0919505F091960582FD12C090818091E3
:1033500098058F5F8F7320919905821751F0E09146
:103360009805F0E0E158FA4F958F8093980501C0D9
:103370008081FF91EF919F918F912F910F900FBEC0
:103380000F901F901895EF92FF920F931F93CF937A
:10339000DF93CDB7DEB768970FB6F894DEBF0FBEE8
:1033A000CDBF1092B20160E08EE090E00E94AF23AA
:1033B0006EED72E0CE0101960E94A1186AE376E0FC
:1033C000CE0101960E948F17BC0184E396E00E9413
:1033D000E117CE0101960E943118809126058130B7
:1033E00031F46FEF76E084E396E00E94A21764E385
:1033F00076E08FE795E00E94471968EE73E080E081
:1034000090E00E942A1103EB11E0F801E388F488B0
:10341000C70143960E94BF23813009F061C06EEB63
:1034200073E0C7010E945623BC01CE0101960E94A1
:10343000A118BE016F5F7F4F8AE396E00E94B3162A
:10344000F82ECE0101960E943118F1101092D2038D
:1034500068EE73E080E090E00E942A116EEB73E06A
:10346000F801838994890E945623BC01CE010D96F0
:103470000E94A1186FEE72E0CE0107960E94A1187B
:10348000BE01635F7F4FCE0107960E948F17BC017C
:10349000CE0143960E94981864E376E0CE0101962F
:1034A0000E94981840E0BE016D5E7F4FCE010196EC
:1034B0000E94C123CE0101960E943118CE0143968D
:1034C0000E943118CE0107960E943118CE010D9648
:1034D0000E94311868EE73E080E090E00E942A11AB
:1034E0000B5E1F4FF2E005381F0709F08ECF809169
:1034F000D2038130B9F568EE73E080E090E00E947D
:103500002A116FEE72E0CE0107960E94A1186AE3BD
:1035100076E0CE0107960E948F17BC01CE010D9672
:103520000E94981865EF76E0CE0101960E948F18F0
:1035300040E0BE01635F7F4FCE0101960E94C12330
:10354000CE0101960E943118CE010D960E943118CD
:10355000CE0107960E94311868EE73E080E090E09B
:103560000E942A118091CF03823021F4109202012F
:103570001092010168960FB6F894DEBF0FBECDBF62
:10358000DF91CF911F910F91FF90EF9008950E94CE
:103590006411609328057093290580932A05909300
:1035A0002B0581E08093AB030C9458248091B201E9
:1035B000813031F41092AB03109258050C94C3196A
:1035C000811102C00C94C71A089561E08BE00E943B
:1035D000BE1064E670E080E090E00E942A1160E096
:1035E0008BE00E94BE1064E670E080E090E00E94F4
:1035F0002A1161E08BE00C94BE100E94E51A0C9435
:10360000E51ADF92EF92FF920F931F93CF93DF9310
:1036100000D000D000D0CDB7DEB77C0103EB11E0C5
:103620006EEB73E0F801838994890E945623BC01F4
:10363000CE0101960E94A118B701CE0101960E9409
:10364000B316D82ECE0101960E943118D11008C0B1
:103650000B5E1F4FF2E005381F0711F780E00DC029
:10366000B7018AE396E00E94E117F8018389948903
:1036700042960E94BF23813059F726960FB6F894E0
:10368000DEBF0FBECDBFDF91CF911F910F91FF9095
:10369000EF90DF900895BF92CF92DF92EF92FF926A
:1036A0000F931F93CF93DF9300D000D000D0CDB7FE
:1036B000DEB764EF75E08FE795E00E94591983EB60
:1036C000E82E81E0F82E00E010E06EEB73E0F701E9
:1036D000838994890E945623F701C388D488C60140
:1036E00043960E94BF23B82EC60142960E94BF2374
:1036F000D82E0F5F1F4F4AE0B801CE0101960E94FD
:1037000036186EE276E0CE0101960E948F176EEBBE
:1037100073E00E9476176EE276E00E948F176D2D9F
:103720000E9445176EE276E00E948F176B2D0E9473
:103730004517BC018FE795E00E944719CE0101961D
:103740000E943118F5E1EF0EF11C0A30110509F065
:10375000BCCF0E94931E26960FB6F894DEBF0FBE14
:10376000CDBFDF91CF911F910F91FF90EF90DF9030
:10377000CF90BF900895EF92FF920F931F93CF9336
:10378000DF9383E690E00E94BF23813009F444C0B8
:103790006FED75E08FE795E00E945919C4E6D0E01F
:1037A0006FEFCE010E94AF236AE070E080E090E00E
:1037B0000E942A112196CC3281E0D80789F766EC65
:1037C00075E08FE795E00E9459190E94931EC3EBA4
:1037D000D1E000E010E0BE018B899C890E947C232F
:1037E000F801ED54FE4F7F018B899C8961894296D7
:1037F0000E94AF238B899C89F701628943960E94BE
:10380000AF230B5E1F4F6596023D110521F761E066
:1038100083E690E00E94AF2383E690E00E94BF23FE
:10382000813041F4DF91CF911F910F91FF90EF9084
:103830000C944B1BDF91CF911F910F91FF90EF9054
:103840000895CF93DF93D82FC92F682F80E190E0A0
:103850000E94A1376C2F81E190E00E94A137D093A4
:10386000AD01C093AE0163EB75E08FE795E00E9478
:103870000A196091AD017091AE0180E090E04AE0DC
:103880000E94A0278FE795E00E9443190E94931E93
:10389000DF91CF910C94E51A0F931F93CF93DF9391
:1038A00000D000D000D0CDB7DEB780E090E00E941D
:1038B000BF23813009F45FC069ED76E08FE795E0C2
:1038C0000E94591900E010E06FEFC8010E94AF2379
:1038D0006AE070E080E090E00E942A110F5F1F4FC5
:1038E0000E31110589F769EB76E08FE795E00E94CC
:1038F00059190E94931E61E08AE090E00E94AF2374
:1039000061E08BE090E00E94AF2360E08CE090E00B
:103910000E94AF2361E08DE090E00E94AF2361E060
:103920008EE090E00E94AF236FE08FE090E00E9475
:10393000AF238CE390E00E94211C60E082E190E0E4
:103940000E94AF2361E083E190E00E94AF2360E03A
:1039500084E190E00E94AF2360E085E190E00E9466
:10396000AF2360E086E190E00E94AF2361E080E059
:1039700090E00E94AF2380E090E00E94BF2381305E
:1039800009F028C166EA76E08FE795E00E945919B0
:103990008AE090E00E94BF23809300016CE976E00A
:1039A0008FE795E00E940A1980910001082E000C13
:1039B000990B0E9404288BE090E00E94BF23809323
:1039C000880260E976E08FE795E00E940A1980910D
:1039D0008802082E000C990B0E9404288CE090E0CD
:1039E0000E94BF238093D00367E876E08FE795E0DD
:1039F0000E940A198091D003082E000C990B0E9496
:103A000004288DE090E00E94BF238093B0016FE70F
:103A100076E08FE795E00E940A198091B001082EA8
:103A2000000C990B0E9404288EE090E00E94BF23B6
:103A30008093B20167E776E08FE795E00E940A196C
:103A40008091B201082E000C990B0E9404288FE08F
:103A500090E00E94BF23809387026BE676E08FE7B9
:103A600095E00E940A196AE070E0809187020E9446
:103A7000E32780E190E00E94BF23182F81E190E0CE
:103A80000E94BF231093AD018093AE016BE576E0F9
:103A90008FE795E00E940A196091AD017091AE0127
:103AA00080E090E04AE00E94A0278FE795E00E9426
:103AB000431982E190E00E94BF238093AA0360E54E
:103AC00076E08FE795E00E940A198091AA03082EFC
:103AD000000C990B0E94042883E190E00E94BF2310
:103AE0008093850260E476E08FE795E00E940A19F2
:103AF00080918502082E000C990B0E94042884E115
:103B000090E00E94BF238093CF036CE276E08FE7C2
:103B100095E00E940A198091CF03082E000C990BA2
:103B20000E94042885E190E00E94BF23809327052E
:103B300069E176E08FE795E00E940A196AE070E09B
:103B4000809127050E94E32786E190E00E94BF2331
:103B50008093AC0366E076E08FE795E00E940A1957
:103B60006AE070E08091AC030E94E3278091B2018B
:103B70008130A9F464E376E0CE0101960E949818A2
:103B800061EF72E0CE0101960E947617BC0184E3DA
:103B900096E00E94E117CE0101960E9431188091B3
:103BA000B201811115C064E376E0CE0101960E9456
:103BB000981864EF72E0CE0101960E947617BC015E
:103BC00084E396E00E94E117CE0101960E9431182D
:103BD0000E94931E26960FB6F894DEBF0FBECDBF8F
:103BE000DF91CF911F910F91089581E390E00E94A2
:103BF000BF23813081F16CE975E08FE795E00E9489
:103C0000591961E875E08FE795E00E9459190E9403
:103C1000931E68EF72E08CE496E00E94CA1786E17A
:103C20008093860241E150E063EE73E08CE496E01D
:103C30000E943D2863EE73E08EE190E00E947C23B9
:103C40006091860280E390E00E94AF2361E081E30F
:103C500090E00E94AF2381E390E00E94BF23813077
:103C600059F563EE73E08EE190E00E945623BC01AB
:103C70008CE496E00E94CA1780E390E00E94BF2384
:103C80008093860268E775E08FE795E00E940A1945
:103C90006CE476E08FE795E00E94471965E675E0F1
:103CA0008FE795E00E940A196AE070E08091860231
:103CB0000E94E3270C94931E089581E080932605CB
:103CC0001092D2030E94D61A109226050895EF9200
:103CD000FF920F931F93CF93DF931F92CDB7DEB761
:103CE0007C01FC0100811181C80169830E94993720
:103CF0006981681719F0C8010E94A137C7010F90A8
:103D0000DF91CF911F910F91FF90EF900895CF9386
:103D1000DF93EC01FB01248135810E94B618CE01AE
:103D2000DF91CF9108958FE795E00C9443197F922E
:103D30008F929F92AF92BF92CF92DF92EF92FF92BB
:103D40000F931F93CF93DF93C12CD12C7601C39493
:103D5000D0E0BB24B39462E0A62E99249A9475EE29
:103D6000872EE5EC7E2ECC2DB0921404C092250552
:103D70001092490310924803909174039111FCCF63
:103D8000A0927403B0927303909272031092710325
:103D90001092700310926F0380916F038601960159
:103DA000220F331F282B20936F0380916E038130E5
:103DB00069F410926E0380916F038093BB00809131
:103DC000BC0083FDF8CF7092BC0002C08092BC00A2
:103DD000809174038230E1F3809172038F3F69F028
:103DE00080917203803231F080917203803321F030
:103DF00094E003C092E001C093E010924903109256
:103E0000480310921404911134C065E078E08FE704
:103E100095E00E940A1980E1C816D104E104F1047A
:103E200030F463E078E08FE795E00E940A1940E102
:103E3000C701B6010E94A027C052C830B0F46EE29C
:103E400076E08FE795E00E94FC1861EF77E08FE75E
:103E500095E00E945919109398030093970380915D
:103E6000A9038F5F8093A90302C00E94931EDF5FA6
:103E700019C09430B9F465EE77E08FE795E00E94C1
:103E80000A19E0E1CE16D104E104F10430F463EE46
:103E900077E08FE795E00E940A1960E170E08C2FCF
:103EA0000E94E327FFEFCF1ADF0AEF0AFF0A8FE72E
:103EB000C816D104E104F10409F055CFD11106C0B0
:103EC0006DEC77E08FE795E00E9459198091A90386
:103ED0008823E9F00E94782505E011E0C1EAD3E0EB
:103EE000FC2EE8E0FE0EF8018389948987960E94F3
:103EF000BF2389930B5E1F4FFC12F5CF0E94931EC8
:103F0000E9E9F3E088E08E0F11928E13FDCFDF9187
:103F1000CF911F910F91FF90EF90DF90CF90BF90C6
:103F2000AF909F908F907F900895CF92DF92EF9205
:103F3000FF920F931F93CF93DF93CDB7DEB7A49774
:103F40000FB6F894DEBF0FBECDBF8C016BEC72E0F4
:103F5000CE0101960E94A118BE016F5F7F4FC8017C
:103F60000E948F164AE0BC01CE0142960E9436188C
:103F7000CE0142960E948915AB014F5F5F4FB80199
:103F8000CE0148960E94871ECE0142960E943118AB
:103F9000CE0101960E9431186DED72E0CE0142967D
:103FA0000E94A1186EEF72E0CE0101960E94A11846
:103FB000AE014E5E5F4FBE016F5F7F4FCE014896F0
:103FC0000E949415CE0101960E943118CE014296AE
:103FD0000E9431186DED72E0CE0142960E94A11848
:103FE00063E073E0CE0101960E94A118AE014E5E1F
:103FF0005F4FBE016F5F7F4FCE0148960E949415C0
:10400000CE0101960E943118CE0142960E943118CD
:104010006DED72E0CE0142960E94A1186CED72E047
:10402000CE0101960E94A118AE014E5E5F4FBE0107
:104030006F5F7F4FCE0148960E949415CE01019686
:104040000E943118CE0142960E9431186FEE72E044
:10405000CE0101960E94A118BE016F5F7F4FCE0175
:1040600048960E948F164AE0BC01CE014E960E94EF
:104070003618CE014E960E948915AB014F5F5F4FF7
:10408000BE01685E7F4FCE0142960E94871ECE0120
:104090004E960E943118CE0101960E943118BE0141
:1040A0006E5E7F4FCE014E960E9498180BED11E088
:1040B00021E08DE0F82E6E0185E0C80ED11C6EEB7C
:1040C00073E0F801808191812CA30E945623BC01EA
:1040D000CE0101960E94A118BE01625E7F4FCE0103
:1040E00001960E94B316E82ECE0101960E94311867
:1040F0002CA1EE2099F119821A821B821C82F601F2
:104100008F2D11928A95E9F7BE016F5F7F4FF801FD
:10411000808191810E947C23F8018081918160E0FF
:1041200042960E94AF23F8018081918160E043961E
:104130000E94AF236DEB77E08FE795E00E940A19AC
:10414000BE01625E7F4F8FE795E00E9447190E9493
:10415000931E0E944B1B0E94E51A20E00B5E1F4F2E
:10416000F2E008391F0709F0AACF213089F465EA87
:1041700077E08FE795E00E940A19BE01625E7F4FEB
:104180008FE795E00E9447190E94931E0E94FD1A36
:10419000CE014E960E943118CE0142960E943118EF
:1041A000CE0148960E943118A4960FB6F894DEBF4F
:1041B0000FBECDBFDF91CF911F910F91FF90EF9078
:1041C000DF90CF9008959F92AF92BF92CF92DF92EF
:1041D000EF92FF920F931F93CF93DF93CDB7DEB78C
:1041E0006E970FB6F894DEBF0FBECDBF8C016BEC9F
:1041F00072E0CE0101960E94A118BE016F5F7F4F51
:10420000C8010E948F164AE0BC01CE0107960E94A9
:104210003618CE0107960E948915AB014F5F5F4F9C
:10422000B801CE0143960E94871ECE0107960E94D8
:104230003118CE0101960E94311865E073E0CE017D
:1042400001960E94A118BE016F5F7F4FCE01439679
:104250000E949916C92ECE0101960E94311867E07E
:1042600073E0CE0101960E94A118BE016F5F7F4FDF
:10427000CE0143960E949916D92ECE0101960E9436
:1042800031186DED72E0CE0107960E94A11865E02D
:1042900073E0CE0101960E94A118AE01495F5F4F05
:1042A000BE016F5F7F4FCE0143960E949415CE01F1
:1042B00001960E943118CE0107960E9431186DEDCB
:1042C00072E0CE0107960E94A11867E073E0CE016C
:1042D00001960E94A118AE01495F5F4FBE016F5F5A
:1042E0007F4FCE0143960E949415CE0101960E9405
:1042F0003118CE0107960E9431186DED72E0CE01A3
:1043000007960E94A1186EEF72E0CE0101960E94FE
:10431000A118AE01495F5F4FBE016F5F7F4FCE01B5
:1043200043960E949415CE0101960E943118CE0149
:1043300007960E9431186DED72E0CE0107960E943B
:10434000A11863E073E0CE0101960E94A118AE01AE
:10435000495F5F4FBE016F5F7F4FCE0143960E9462
:104360009415CE0101960E943118CE0107960E9445
:1043700031186DED72E0CE0107960E94A1186CED28
:1043800072E0CE0101960E94A118AE01495F5F4F15
:10439000BE016F5F7F4FCE0143960E949415CE0100
:1043A00001960E943118CE0107960E9431186FEED7
:1043B00072E0CE0101960E94A118BE016F5F7F4F8F
:1043C000CE0143960E9499164AE0BC01CE010796A1
:1043D0000E943618CE0107960E9489159B0140E085
:1043E00050E0BE016D5E7F4FCE010D960E94B61863
:1043F000CE0107960E943118CE0101960E94311815
:104400006FEE72E0CE0101960E94A118BE016F5FAF
:104410007F4FCE0143960E948F164AE0BC01CE0129
:1044200049960E943618CE0149960E948915AB0123
:104430004F5F5F4FBE016D5E7F4FCE0107960E94BA
:10444000871ECE0149960E943118CE0101960E9426
:104450003118CE010D960E948915062FBE01695FA5
:104460007F4FCE0149960E9498186EEB73E08091C1
:10447000C6019091C7010E945623BC01CE0101964E
:104480000E94A118CE0101960E944D27182FCE013F
:1044900001960E943118112361F06EE777E08FE7F3
:1044A00095E00E9459190E94931E0E94FD1A10E087
:1044B00001C011E08EEF800F8A3058F060E677E09F
:1044C0008FE795E00E9459190E94931E0E94FD1AE1
:1044D00010E083EBA82E81E0B82EE12CF12C6EEBDE
:1044E00073E0F501838994890E945623BC01CE01B3
:1044F00001960E94A118BE01675E7F4FCE01019612
:104500000E94B316982ECE0101960E943118C70161
:1045100001967C01992071F061E377E08FE795E0E7
:104520000E940A19C7010E9404280E94931E0E943B
:10453000FD1A10E095E1A90EB11CEAE0EE16F104B7
:1045400071F61130B1F541E150E06DEA73E0CE0152
:1045500049960E943D280150F5E10F9F80011124EA
:104560000D541E4F6DEA73E0F801838994890E940F
:104570007C236C2D6095661F6627661FF801838972
:10458000948942960E94AF236D2D6095661F662721
:10459000661FF8018389948943960E94AF2364E2E1
:1045A00077E08FE795E00E9459190E94931E0E94C0
:1045B000E51A0E944B1BCE0149960E943118CE018C
:1045C00007960E943118CE010D960E943118CE0137
:1045D00043960E9431186E960FB6F894DEBF0FBE58
:1045E000CDBFDF91CF911F910F91FF90EF90DF90A2
:1045F000CF90BF90AF909F9008950F931F93CF934C
:10460000DF93CDB7DEB762970FB6F894DEBF0FBE6B
:10461000CDBF082F162F68EE73E080E090E00E9477
:104620002A1110938502612F83E190E00E94AF234D
:10463000013059F56FEE72E0CE0107960E94A11885
:104640006AE376E0CE0107960E948F17BC01CE0187
:104650000D960E94981861E177E0CE0101960E94C4
:104660008F1840E0BE01635F7F4FCE0101960E942C
:10467000C123CE0101960E943118CE010D960E94F1
:104680003118CE0107960E94311868EE73E080E081
:1046900090E00E942A1162960FB6F894DEBF0FBE1A
:1046A000CDBFDF91CF911F910F910895CF92DF92EF
:1046B000EF92FF920F931F93CF93DF93EB017B0158
:1046C00021E1E20EF11C8B016C01C61AD70AC6016A
:1046D000800F911F0E949937F80181938F01EE1589
:1046E000FF05A9F7CE01DF91CF911F910F91FF90A8
:1046F000EF90DF90CF900895AF92BF92CF92DF926C
:10470000EF92FF920F931F93CF93DF9300D0CDB71B
:10471000DEB78B016B0121E1C20ED11C7B015C0174
:10472000A61AB70A95012E0D3F1DF70161917F0171
:104730003A832983CE0101960E94671EEC14FD0482
:1047400089F7C8010F900F90DF91CF911F910F91C2
:10475000FF90EF90DF90CF90BF90AF900895CF93F0
:10476000DF9300D0CDB7DEB79A838983CE0101965F
:104770000E94671E0F900F90DF91CF9108950C94C7
:104780009937EF92FF920F931F93CF93DF9300D04F
:1047900000D000D0CDB7DEB78C017B018091000145
:1047A000813019F0413009F055C06CE478E088E5BB
:1047B00096E00E940A19B70188E596E00E94FC186D
:1047C0006AE478E088E596E00E94591964EF71E0A8
:1047D00080E090E00E942A11B80188E596E00E94EE
:1047E000FC1864EF71E080E090E00E942A11E091F3
:1047F0005806F09159060190F081E02D6AE188E5B4
:1048000096E0099564EF71E080E090E00E942A1143
:104810006DE073E0CE0101960E94A118B701CE01B0
:1048200001960E948F176EE276E00E948F17B80102
:104830000E948F17BC018FE795E00E944719CE01B7
:1048400001960E94311868E873E180E090E00E94D0
:104850002A1121C068EE73E080E090E00E942A11E6
:1048600069E073E0CE0101960E94A118B701CE0164
:1048700001960E948F176EE276E00E948F17B801B2
:104880000E948F17BC018FE795E00E944719CE0167
:1048900001960E94311826960FB6F894DEBF0FBE1F
:1048A000CDBFDF91CF911F910F91FF90EF900895B1
:1048B000EF92FF920F931F93CF93DF93CDB7DEB7A5
:1048C00068970FB6F894DEBF0FBECDBF0E9464118B
:1048D000009128051091290520912A0530912B057A
:1048E000601B710B820B930B28EE33E040E050E02D
:1048F0000E9418388091270590E0A0E0B0E0821770
:104900009307A407B50708F0E6C011E01093B201C1
:1049100061E08EE090E00E94AF231093AF0164E16C
:1049200073E0CE0101960E94A1186AE376E0CE0101
:1049300001960E948F17BC0184E396E00E94E11764
:10494000CE0101960E94311880912605813031F404
:104950006FE578E084E396E00E94A21764E376E0D6
:104960008FE795E00E94471968EE73E080E090E0E1
:104970000E942A1103EB11E0F801E388F488C701D3
:1049800043960E94BF23813009F061C06EEB73E053
:10499000C7010E945623BC01CE0101960E94A118B6
:1049A000BE016F5F7F4F8AE396E00E94B316F82E38
:1049B000CE0101960E943118F1101092D20368EED8
:1049C00073E080E090E00E942A116EEB73E0F80142
:1049D000838994890E945623BC01CE0107960E94C8
:1049E000A1186FEE72E0CE010D960E94A118BE01D3
:1049F000695F7F4FCE010D960E948F17BC01CE01DB
:104A000001960E94981864E376E0CE0143960E94D6
:104A1000981840E0BE016F5F7F4FCE0143960E9421
:104A2000C123CE0143960E943118CE0101960E9407
:104A30003118CE010D960E943118CE0107960E94C2
:104A4000311868EE73E080E090E00E942A110B5E5E
:104A50001F4FF2E005381F0709F08ECF8091D20377
:104A60008130B9F568EE73E080E090E00E942A1191
:104A70006FEE72E0CE0107960E94A1186AE376E01D
:104A8000CE0107960E948F17BC01CE0101960E94AD
:104A9000981866E578E0CE010D960E948F1840E0E8
:104AA000BE016F5F7F4FCE010D960E94C123CE01E4
:104AB0000D960E943118CE0101960E943118CE0148
:104AC00007960E94311868EE73E080E090E00E9443
:104AD0002A111092AB0368960FB6F894DEBF0FBE92
:104AE000CDBFDF91CF911F910F91FF90EF9008956F
:104AF000DF92EF92FF920F931F93CF93DF9300D03B
:104B000000D000D0CDB7DEB766E178E08FE795E062
:104B10000E94591985E0E82E81E0F82E00E010E0AF
:104B2000F701838994890E948627F70183899489F4
:104B300087960E94BF23D82E0F5F1F4F4AE0B8010F
:104B4000CE0101960E9436186EE276E0CE01019603
:104B50000E948F1769E575E00E9476176EE276E095
:104B60000E948F176D2D0E944517BC018FE795E0BD
:104B70000E944719CE0101960E943118F5E1EF0E0F
:104B8000F11C0830110561F60E94931E26960FB69F
:104B9000F894DEBF0FBECDBFDF91CF911F910F9173
:104BA000FF90EF90DF900895AF92BF92CF92DF9287
:104BB000EF92FF920F931F93CF93DF93CDB7DEB7A2
:104BC0006E970FB6F894DEBF0FBECDBF8C016BECB5
:104BD00072E0CE0101960E94A118BE016F5F7F4F67
:104BE000C8010E948F164AE0BC01CE0107960E94C0
:104BF0003618CE0107960E948915AB014F5F5F4FB3
:104C0000B801CE010D960E94871ECE0107960E9424
:104C10003118CE0101960E94311866E273E0CE0190
:104C200001960E94A118BE016F5F7F4FCE010D96C5
:104C30000E949916092FCE0101960E9431186DED40
:104C400072E0CE0107960E94A11866E273E0CE01E1
:104C500001960E94A118AE01495F5F4FBE016F5FD0
:104C60007F4FCE010D960E949415CE0101960E94B1
:104C70003118CE0107960E9431186DED72E0CE0119
:104C800007960E94A11863E073E0CE0101960E948E
:104C9000A118AE01495F5F4FBE016F5F7F4FCE012C
:104CA0000D960E949415CE0101960E943118CE01F6
:104CB00007960E9431186DED72E0CE0107960E94B2
:104CC000A1186CED72E0CE0101960E94A118AE0110
:104CD000495F5F4FBE016F5F7F4FCE010D960E940F
:104CE0009415CE0101960E943118CE0107960E94BC
:104CF00031186FEE72E0CE0101960E94A118BE013C
:104D00006F5F7F4FCE010D960E9499164AE0BC015D
:104D1000CE0143960E943618CE0143960E94891513
:104D20009B0140E050E0BE01635F7F4FCE010796DC
:104D30000E94B618CE0143960E943118CE0101960A
:104D40000E9431186FEE72E0CE0143960E94A118C6
:104D5000BE016D5E7F4FCE010D960E948F164AE018
:104D6000BC01CE0149960E943618CE0149960E9498
:104D70008915AB014F5F5F4FBE01635F7F4FCE016F
:104D800001960E94871ECE0149960E943118CE01DD
:104D900043960E943118CE0107960E948915162F5E
:104DA000BE016F5F7F4FCE0143960E94981811504D
:104DB000183048F066E378E08FE795E00E945919D3
:104DC0000E94FD1A45C046E250E06CE275E0CE015B
:104DD00043960E943D28C12ED12C25E1129FF0015F
:104DE0001124EB5FFE4F838994892CE2E22E25E0AB
:104DF000F22EFC01EC52F5405F01C5018E0D9F1DA6
:104E0000F70161917F019A8F898FCE0149960E94A7
:104E1000671EF2E5EF16F5E0FF0679F7602F609563
:104E2000661F6627661F85E18C9DF0018D9DF00D44
:104E30001124EB5FFE4F8389948987960E94AF23EC
:104E400063E278E08FE795E00E9459190E94E51A25
:104E50000E94931E0E947825CE0143960E9431182D
:104E6000CE0101960E943118CE0107960E9431189A
:104E7000CE010D960E9431186E960FB6F894DEBFE3
:104E80000FBECDBFDF91CF911F910F91FF90EF909B
:104E9000DF90CF90BF90AF900895DC0114962D91D4
:104EA0003C911597232B41F0ED91FC9181E090818D
:104EB000992319F080E0089581E00895EFE7F5E087
:104EC000A089B18982E08C93A485B5851C92A685C2
:104ED000B7858FEC8C93108EA489B58986E08C936E
:104EE000A289B3898C9180618C93A289B3898C91BA
:104EF00088608C93A289B3898C9180688C93028896
:104F0000F389E02D80818F7D808308950F931F9317
:104F1000CF93DF93C9E5D5E08C0109551540C80151
:104F20008C0F9D1F0E949937899385E0CF37D80752
:104F3000B1F789E595E0DF91CF911F910F91089529
:104F40008F929F92AF92BF920F931F93CF93DF9355
:104F5000CDB7DEB7A1970FB6F894DEBF0FBECDBFB9
:104F600019A2423008F44AE08E010F5D1F4F842ED3
:104F7000912CA12CB12CA50194010E941838E62F88
:104F8000B901CA0101501109EA3014F4E05D01C011
:104F9000E95CD801EC93232B242B252B61F7B80176
:104FA0008FE795E00E942E19A1960FB6F894DEBF08
:104FB0000FBECDBFDF91CF911F910F91BF90AF90EA
:104FC0009F908F900895CF93DF93AB01672B61F48F
:104FD000E0917F05F09180050190F081E02D682F30
:104FE0008FE795E0099506C0682F70E080E090E0BB
:104FF0000E94A027EC018FE795E00E9443198C0FD7
:105000009D1FDF91CF910895CF92DF92EF92FF9293
:10501000CF93DF936C01990FEE08FF08F7FE1AC0DB
:10502000E0917F05F09180050190F081E02D6DE227
:105030008FE795E00995EC0166277727CB016C197E
:105040007D098E099F094AE00E94A0277C01EC0E91
:10505000FD1E06C04AE0C701B6010E94A0277C01E0
:105060008FE795E00E9443198E0D9F1DDF91CF9130
:10507000FF90EF90DF90CF9008950F931F93CF9301
:10508000DF93FC01248135812115310519F4FB01E1
:10509000108211C0EA0121972C173D0708F4E9019D
:1050A0008B01FC0160817181AE01C8010E94A63AAA
:1050B000C00FD11F1882DF91CF911F910F910895DA
:1050C0000F931F93CF938C018091580581110AC0D3
:1050D0000E946411609354057093550580935605A2
:1050E00090935705C1E0C0935805B80182E596E05A
:1050F0000E94E117C093530510925205CF911F9162
:105100000F910895CF93DF93C0914606D091470643
:10511000209751F08881882339F0082E000C990BD4
:105120000E94733A8993F6CFDF91CF910895CF9380
:10513000DF9300D0CDB7DEB789831A8241E050E01B
:10514000BE016F5F7F4F86E496E00E9417170F90B5
:105150000F90DF91CF910895CF93DF93CDB7DEB756
:10516000E8970FB6F894DEBF0FBECDBF789484B534
:10517000826084BD84B5816084BD85B5826085BD53
:1051800085B5816085BD80916E00816080936E00E1
:1051900010928100809181008260809381008091D3
:1051A0008100816080938100809180008160809384
:1051B00080008091B10084608093B1008091B00044
:1051C00081608093B00080917A00846080937A003F
:1051D00080917A00826080937A0080917A00816069
:1051E00080937A0080917A00806880937A00109290
:1051F000C1000E945E2710929503109296031092B0
:105200004903109248031092740381E08093730362
:1052100010926E0361E082E10E94BE1061E083E1C2
:105220000E94BE108091B9008E7F8093B90080915A
:10523000B9008D7F8093B90088E48093B80085E43D
:105240008093BC0065E071E08FE795E00E945919FA
:1052500067EF70E08FE795E00E94591964EC79E000
:1052600080E090E00E942A1180E480937C0080918D
:105270007A00806480937A0080917A0086FDFCCF6A
:10528000609178008091790070E0782B072E000CF7
:10529000880B990B611571058105910511F00E942C
:1052A000F9360E944C1C0E94BB1B0E94F51D82E631
:1052B00090E00E94BF23813009F452C062E870E0A0
:1052C0008FE795E00E9459190CE211E06FEFC801D9
:1052D0000E94AF236AE070E080E090E00E942A1113
:1052E0000F5F1F4F0D3C21E0120781F768E670E069
:1052F0008FE795E00E9459190E94931E05E011E086
:1053000067E1A62E61E0B62EF801C388D488780143
:10531000C01AD10AC6018E0D9F1DF70161917F0150
:105320009A838983CE0101960E94671EEA14FB04CA
:1053300089F7F80183899489F701608187960E9433
:10534000AF230B5E1F4F5701F5E1AF0EB11C21E0FB
:105350000D3A1207C9F661E082E690E00E94AF23A1
:105360000E94971E61E08AE00E94EE1061E08CE0EE
:105370000E94EE1061E08BE00E94EE1061E08AE096
:105380000E94BE1061E08CE00E94BE1061E08BE0E4
:105390000E94BE1060E08AE00E94BE1064EF71E0DF
:1053A00080E090E00E942A1161E08AE00E94BE1035
:1053B00060E08CE00E94BE1064EF71E080E090E05D
:1053C0000E942A1161E08CE00E94BE1060E08BE038
:1053D0000E94BE1064EF71E080E090E00E942A110C
:1053E00061E08BE00E94BE1060E086E00E94EE105B
:1053F00060E08EE00E94EE1060E087E00E94EE1018
:1054000060E08FE00E94EE1060E080E10E94EE100C
:1054100061E084E00E94EE1060E084E00E94BE1033
:1054200061E085E00E94EE1061E085E00E94BE1020
:1054300060ED77E080E090E00E942A110E945E27F4
:1054400010927306109272061092710610927006F6
:1054500010926F0610926E068DE991E0909375069A
:105460008093740690916406963108F057C02DEB36
:1054700030E030936F0620936E062BE931E03093D5
:105480007106209370062CE231E03093730620936E
:10549000720620916800983050F031E09E3008F498
:1054A00030E081E001C0880F3A95EAF701C084E05E
:1054B000822B80936800983038F09E3040F096310F
:1054C00048F020E030E008C02DE630E005C02BE6D3
:1054D00030E002C02CE630E030936C0620936B067F
:1054E000983030F481E001C0880F9A95EAF70EC039
:1054F000292F30E09E3018F42850310902C02E5078
:10550000310981E001C0880F2A95EAF780936D0682
:1055100080917406909175060197F1F7809172065B
:1055200090917306892B49F1E0914C03F0914D0362
:1055300036E0E835F30709F1309739F0A389B489EB
:105540009C918589809589238C93809176068E7FA6
:105550008093760610924B0310924A0388E596E0FA
:1055600090934D0380934C03E0916B06F0916C0691
:10557000908180916D06892B80831AE063EE70E044
:1055800088E596E00E94591968EC70E080E090E0B0
:105590000E942A11115091F76FED70E088E596E0B6
:1055A0000E9459196AE070E080E090E00E942A11A0
:1055B00088E596E00E943910892B09F460C088E5DF
:1055C00096E00E943910892B79F088E596E00E94D8
:1055D00051108093E2030E94972864E170E080E01C
:1055E00090E00E942A11EBCF6AED70E0CE010196A7
:1055F0000E948F18BE016F5F7F4F86E496E00E9485
:1056000099168C01CE0101960E94311817FD03C036
:1056100081E08093D30363ED70E0CE0101960E9498
:105620008F18BE016F5F7F4F86E496E00E94991647
:105630008C01CE0101960E94311817FD03C082E053
:105640008093D30360ED70E0CE0101960E948F1825
:10565000BE016F5F7F4F86E496E00E9499168C0131
:10566000CE0101960E94311817FD03C083E080939C
:10567000D3036DED72E086E496E00E94CA1766ECF3
:1056800070E088E596E00E94591964E670E080E0D9
:1056900090E00E942A116CEB70E088E596E00E9491
:1056A000591964E670E080E090E00E942A116EEAE9
:1056B00070E088E596E00E94591964E670E080E0A9
:1056C00090E00E942A1162EA70E088E596E00E946C
:1056D000591964E670E080E090E00E942A11809100
:1056E000D003813019F46DE970E002C068E970E020
:1056F00088E596E00E94591963EF70E08FE795E026
:105700000E94591964E376E08FE795E00E944719FB
:1057100080910001882371F00E94931E48EE442E70
:1057200043E0542E612C712C5DEF852E912CA12C21
:10573000B12C8FC066EE70E08FE795E00E9459199A
:1057400019E00E94E51A1150E1F7E6CF113009F493
:1057500030C286E00E9495108093DC031091B20164
:10576000113009F074C2811168C261E08CE00E94BE
:10577000BE100E946411C090D803D090D903E0906D
:10578000DA03F090DB039B01AC012C193D094E09B3
:105790005F0969017A0135E6C316D104E104F10419
:1057A00008F037C20E946411C090DE03D090DF037E
:1057B000E090E003F090E1039B01AC012C193D095E
:1057C0004E095F0969017A014091AD015091AE0126
:1057D00028EE33E0429FC001439F900D529F900DF1
:1057E0001124A0E0B0E08C159D05AE05BF0508F4BE
:1057F0003EC2112309F43BC286E00E9495108093BB
:10580000DC03882309F43CC28091DC03813009F475
:105810006AC28091AA03813009F478C28091AB03F7
:10582000813011F40E94582480915805813009F488
:10583000B7C288E596E00E943910892B09F0FDC2B5
:105840008FE795E00E94AB0E892B09F0EDC50E9411
:10585000B70E8091CF03813009F04EC08FE00E94D7
:105860009510182F8093D40380E10E9495108093A7
:105870000301113071F48091020181110AC010936B
:10588000020164E670E080E090E00E942A110E942C
:105890005D1E8091030181110FC080910101811172
:1058A0000BC081E08093010164E670E080E090E04D
:1058B0000E942A110E945D1E8091D40381110CC0A8
:1058C00080910201882341F01092020164E670E0A9
:1058D00080E090E00E942A1180910301813061F400
:1058E00080910101882341F01092010164E670E08B
:1058F00080E090E00E942A118091CF03823071F500
:105900008FE00E949510182F8093D40380E10E94AD
:10591000951080930301113071F48091020181117F
:105920000AC01093020164E670E080E090E00E94FB
:105930002A110E945D1E8091030181110FC0809188
:10594000010181110BC081E08093010164E670E0E8
:1059500080E090E00E942A110E945D1E80918502E5
:10596000813031F48091B201813009F058C003C018
:10597000823009F054C087E00E9495108093D503CF
:1059800081111DC080910401811119C081E08093B3
:10599000040164E670E080E090E00E942A116CE26D
:1059A00071E0CE0101960E948F1841E060E0CE01C7
:1059B00001960E946413CE0101960E9431188091D5
:1059C000D5038130E1F4809104018130C1F410925B
:1059D000040164E670E080E090E00E942A1165E135
:1059E00071E0CE0101960E948F1841E060E0CE0187
:1059F00001960E946413CE0101960E943118809195
:105A0000D503813061F480910401823041F4109219
:105A1000040164E670E080E090E00E942A11809129
:105A2000A903811106C01091D00311118FCE61E03E
:105A3000ECC009E913E041EA53E05FAB4EAB25E06F
:105A4000C22E21E0D22EE12CF12C3324339435ECFC
:105A5000232E80919703909174039111FCCF309283
:105A60007403309273035FEF5093720310927103CB
:105A70001092700330926F0390916F03880F892BFF
:105A800080936F0380916E03813069F410926E03EE
:105A900080916F038093BB008091BC0083FDF8CFA1
:105AA0002092BC0003C085EE8093BC0080917403FB
:105AB0008130E1F380917103811103C08091710302
:105AC00001C081E0AEE4B3E0E5E7F3E09E2F25E717
:105AD00033E0921B981718F49D919193F7CF109291
