:100000000C9436040C945E040C945E040C947815E5
:100010000C9478150C9478150C945E040C945E0482
:100020000C945E040C945E040C945E040C945E04C8
:100030000C945E040C945E040C945E040C945E04B8
:100040000C9400140C945E040C94621E0C943C1EE0
:100050000C945E040C945E040C945E040C945E0498
:100060000C944A140C945E044572726F722064659D
:100070006C6574696E672070686F6E653A202B003E
:1000800044656C6574652070686F6E653A202B005E
:10009000506175736554696D652069733A20004439
:1000A000656C61794265666F72654775617264203F
:1000B00069733A200044656C61794265666F7265C8
:1000C000416C61726D2069733A20005761746368F6
:1000D000506F77657254696D652069733A200052DC
:1000E000696E6754696D652069733A2000576174C1
:1000F00063682074686520706F776572204F46468C
:1001000000477561726420627574746F6E3A204F97
:100110004E2F4F4646206D6F6465004775617264CF
:1001200020627574746F6E3A204F4E206D6F646557
:1001300000477561726420627574746F6E204F465B
:10014000460053656E736F72206461746120736141
:100150007665642E004572726F722073656E736FE0
:1001600072206E756D626572006661696C65642EE1
:10017000007061737365642E0054657374200046CB
:1001800061696C65642063656C6C3A2000420045CF
:100190004550524F4D3A200041542B435553443D56
:1001A000312C2200534D532072656D6F76656400CB
:1001B0003400302C340041542B434D47443D006300
:1001C0006C656172736D73006C65646F6666006C5C
:1001D00065646F6E004E2E200046462E2000496E4C
:1001E000666F3A20504952204F00696E666F006773
:1001F000756172646F66660067756172646F6E0028
:100200007061757365006D6F6E6579007265626F00
:100210006F74006C69737470686F6E650069326327
:100220007363616E006D656D74657374006C6973E2
:100230007473656E736F72006C697374636F6E664E
:10024000696700656469746D61696E70686F6E6579
:10025000006564697473656E736F720067756172AF
:1002600064627574746F6E6F666600677561726440
:10027000627574746F6E6F6E32006775617264625E
:100280007574746F6E6F6E31007761746368706F30
:100290007765726F6666007761746368706F776503
:1002A000726F6E32007761746368706F7765726F1A
:1002B0006E3100504952204F4646007069726F6699
:1002C0006600504952204F4E007069726F6E0053A5
:1002D0006D73204F464600736D736F666600536DF5
:1002E00073204F4E00736D736F6E0052656564200E
:1002F000537769746368204F46460072656564737E
:1003000077697463686F6666005265656420537729
:1003100069746368204F4E00726565647377697411
:1003200063686F6E00726573657473656E736F7268
:10033000007265736574636F6E66696700726573DA
:10034000657470686F6E650066756C6C7265736558
:100350007400616C61726D70696E74696D650072B4
:10036000696E6774696D65007761746368706F7733
:10037000657274696D650064656C61796265666F4C
:100380007265616C61726D0064656C61796265664D
:100390006F7265677561726400736C65657074690E
:1003A0006D650062616C616E63656E756D0064659C
:1003B0006C65746570686F6E650061646470686F09
:1003C0006E650041542B434E4D493D322C32004165
:1003D000542B435343533D2247534D220041542B4A
:1003E000434D47463D310041542B434C49503D312C
:1003F0000041360053494D383030004D353930001A
:100400004154490041540053696C656E74206D6F0E
:10041000646521004F46462E004F4E2E0047534D37
:1004200020416C61726D2031372E30372E30340010
:10043000506F77657220737570706C792072657378
:10044000746F72656400506F776572207375707099
:100450006C7920646973636F6E6E65637465642084
:10046000004D61696E2073656E736F722100504993
:10047000522073656E736F722100206D696E757402
:1004800065732061676F003B004154442B00416C51
:1004900061726D2052696E673A202B005072696D4F
:1004A0006172792070686F6E653A202B0041542B81
:1004B000435553443D300055535344207175657284
:1004C000793A20002B435553443A00534D5320664C
:1004D000726F6D3A202B002C22002C2C002B434DE8
:1004E000543A0052696E672066726F6D3A202B0095
:1004F0002C0052494E470053656E736F7220646141
:1005000074613A0041542B43485550002200415435
:100510002B434D47533D22004775617264204F4E77
:100520002E0000000000240027002A000000000820
:1005300000020100000304070000000000000000AA
:100540004C656E67746820746F2072657475726E86
:100550003A20004E756D6265723A20004C6F6164FE
:100560002064656661756C742062616C616E6365A0
:1005700020646174612E0044656C6574696E672047
:1005800062616C616E636520646174612E00416C10
:1005900061726D496E74657276616C2069733A2080
:1005A000004C6F61642064656661756C74207068CE
:1005B0006F6E6520646174612E0044656C657469BA
:1005C0006E672070686F6E6520646174612E0069CB
:1005D0000070007200730050686F6E6500E28496D0
:1005E00000526561642061727261792070686F6E7B
:1005F000653A0044656C61794265666F7265416C6D
:1006000061726D3A200044656C61794265666F7273
:100610006547756172643A2000477561726442757E
:1006200074746F6E3A20005761746368506F776519
:100630007254696D653A20005761746368506F7732
:1006400065723A200050495247756172643A200041
:100650005265656453776974636847756172643A7B
:100660002000416C61726D50696E54696D653A206D
:1006700000536C65657054696D653A20004775617B
:1006800072643A20004C65643A200052696E6754E7
:10069000696D653A200053656E64536D733A2000AE
:1006A0005265616420656570726F6D636F6E666917
:1006B000673A004C6F61642064656661756C7420F4
:1006C000656570726F6D636F6E66696720646174D3
:1006D000612E0044656C6574696E67206565707293
:1006E0006F6D636F6E66696720646174612E004789
:1006F00075617264204F46462E0020427574746FF7
:100700006E002050686F6E65202B0020436F6E7363
:100710006F6C650057617463682074686520706F42
:10072000776572204F4E0050686F6E65206164647B
:1007300065642E0050686F6E6520616C726561643F
:10074000792065786973747320696E2074686520F8
:1007500063656C6C3A20004572726F722C20777260
:100760006F6E67206E756D626572206F66206365BF
:100770006C6C732E004572726F722C2066697273F6
:100780007420726567697374657220612070726984
:100790006D6172792070686F6E652E0050686F6EA3
:1007A000652073657474696E6773206368616E6732
:1007B00065642E0049324320646576696365732061
:1007C0006E6F7420666F756E640030004572726FD4
:1007D00072206174203078006465746563746564A8
:1007E00020504346383537340030004932432064C6
:1007F0006576696365206174203078004C6F6164B0
:100800002064656661756C742073656E736F722009
:10081000646174612E0044656C6574696E67207351
:10082000656E736F7220646174612E0000000000B9
:10083000250028002B0000000000230026002900CE
:100840000404040404040404020202020202030376
:10085000030303030102040810204080010204087E
:1008600010200102040810209A335E3311241FBEA9
:10087000CFEFD8E0DEBFCDBF13E0A0E0B1E0E8E706
:10088000F1E702C005900D92A833B107D9F726E031
:10089000A8E3B3E001C01D92AA37B207E1F714E064
:1008A000C5E3D4E004C02197FE010E945136C43351
:1008B000D107C9F70E947C290C94AF380C94000032
:1008C000AF92BF92CF92DF92EF92FF920F931F935E
:1008D000CF93DF93CDB7DEB7E0970FB6F894DEBFC6
:1008E0000FBECDBF8091FC03813021F485E496E0FA
:1008F0000E9411296AE073E0CE0142960E94841D95
:1009000060EE72E0CE0101960E94841DAE014E5E43
:100910005F4FBE016F5F7F4F85E496E00E94371AFC
:10092000CE0101960E94E81CCE0142960E94E81C6E
:100930006AE073E0CE0142960E94841D69E073E094
:10094000CE0101960E94841DAE014E5E5F4FBE0136
:100950006F5F7F4F85E496E00E94371ACE010196C3
:100960000E94E81CCE0142960E94E81C00914506B8
:10097000109146060115110539F48091FF0381306D
:1009800011F00C94AE0F0DC0F80180818823A9F3FB
:10099000082E000C990B0E945338F80181938F01A7
:1009A000F3CF6AEB73E0CE0101960E94721DBE0187
:1009B0006F5F7F4F85E496E00E943C1B8C01CE0167
:1009C00001960E94E81C17FD0FC065E476E0CE0199
:1009D00001960E947B1D61E0CE0101960E94412597
:1009E000CE0101960E94E81C6EEA73E0CE010196EA
:1009F0000E94721DBE016F5F7F4F85E496E00E94EA
:100A00003C1B8C01CE0101960E94E81C17FD07C11A
:100A100065E476E0CE0184960E947B1D62EE72E072
:100A2000CE0142960E94841DBE016E5E7F4FCE01B4
:100A300084960E94321B4AE0BC01CE0101960E94BE
:100A4000191DCE0101960E942C1AAB014F5F5F4F1A
:100A5000BE016C5D7F4FCE014E960E94BC23CE013D
:100A600001960E94E81CCE0142960E94E81C6AE0B2
:100A700073E0CE0101960E94841D64EE72E0CE0107
:100A800042960E94841DAE014F5F5F4FBE016E5EB5
:100A90007F4FCE014E960E94371ACE0142960E9499
:100AA000E81CCE0101960E94E81C69EE72E0CE01BE
:100AB00042960E94841DBE016E5E7F4FCE014E960F
:100AC0000E94321B4AE0BC01CE0101960E94191D12
:100AD000CE0101960E942C1AAB014F5F5F4FBE0101
:100AE000625E7F4FCE0148960E94BC23CE010196E4
:100AF0000E94E81CCE0142960E94E81CBE01685E7E
:100B00007F4FCE0142960E947B1D05EE11E021E051
:100B10003DE0F32E6E01F5E0CF0ED11C6BEE73E0DD
:100B2000F8018081918128AB0E94F415BC01CE01AF
:100B300001960E94841DBE016E5E7F4FCE0101961C
:100B40000E94561BE82ECE0101960E94E81C28A99F
:100B5000EE20F1F119821A821B821C82F6012F2DE0
:100B600011922A95E9F7BE016F5F7F4FF8018081EE
:100B700091810E941A16F8018081918160E043966C
:100B80000E944D16F8018081918160E044960E9498
:100B90004D16F8018081918160E045960E944D16C6
:100BA000F8018081918160E046960E944D1660E8D0
:100BB00070E08EE795E00E94ED1DCE0142960E9406
:100BC00011290E94C8230E9428200E94C81F20E0EB
:100BD000095E1F4FF2E0043B1F0709F09FCF213051
:100BE00071F468E670E08EE795E00E94ED1DCE019D
:100BF00042960E9411290E94C8230E94E01FCE0144
:100C000042960E94E81CCE0148960E94E81CCE0144
:100C10004E960E94E81CCE0184960E94E81C63EA6E
:100C200073E0CE0101960E94721DBE016F5F7F4F7F
:100C300085E496E00E943C1B8C01CE0101960E9447
:100C4000E81C17FDB5C062EE72E0CE0101960E946D
:100C5000841DBE016F5F7F4F85E496E00E94321BCA
:100C60004AE0BC01CE0142960E94191DCE01429677
:100C70000E942C1AAB014F5F5F4F65E476E0CE0116
:100C800048960E94BC23CE0142960E94E81CCE01E9
:100C900001960E94E81C6BEE72E0CE0101960E9464
:100CA000841DBE016F5F7F4FCE0148960E943C1BA2
:100CB0004AE0BC01CE014E960E94191DCE014E960F
:100CC0000E942C1A9B0140E050E0BE01685E7F4FFD
:100CD000CE0142960E94991DCE014E960E94E81CBC
:100CE000CE0101960E94E81C6BEE72E0CE014E969A
:100CF0000E94841DBE01625E7F4F85E496E00E94E3
:100D0000321B4AE0BC01CE0184960E94191DCE011F
:100D100084960E942C1AAB014F5F5F4F65E476E02A
:100D2000CE0101960E94BC23CE0184960E94E81C4D
:100D3000CE014E960E94E81CCE0101960E942C1A0C
:100D4000162FBE016E5E7F4FCE014E960E947B1D18
:100D500041E150E068E373E0CE014E960E94222903
:100D600068E373E08EE190E00E941A16612F80E341
:100D700090E00E944D1661E081E390E00E944D16E4
:100D80000E9436238EE795E00E94261E0E94C81F0F
:100D9000CE014E960E94E81CCE0101960E94E81CEE
:100DA000CE0142960E94E81CCE0148960E94E81CA3
:100DB00069E973E0CE0101960E94721DBE016F5F6A
:100DC0007F4F85E496E00E943C1B8C01CE0101968A
:100DD0000E94E81C17FD67C062EE72E0CE0101962A
:100DE0000E94841DBE016F5F7F4F85E496E00E94E4
:100DF000321B4AE0BC01CE0148960E94191DCE016B
:100E000048960E942C1AAB014F5F5F4F65E476E075
:100E1000CE0142960E94BC23CE0148960E94E81C57
:100E2000CE0101960E94E81CBE016E5E7F4FCE018E
:100E300001960E947B1DCE0101960E942C1ADC01B6
:100E4000CB010197A109B109CC97A105B10510F01B
:100E50000C944211CE0101960E942C1A162F8FE09D
:100E600090E00E944D16612F70E070930101609335
:100E7000000160E970E08EE795E00E94ED1D8FE0D3
:100E800090E00E945D166AE070E00E94A5280E9432
:100E9000C8230E94C81FCE0101960E94E81CCE0103
:100EA00042960E94E81C68E873E0CE0101960E9419
:100EB000721DBE016F5F7F4F85E496E00E943C1B70
:100EC0008C01CE0101960E94E81C17FD60C062EE05
:100ED00072E0CE0101960E94841DBE016F5F7F4FBC
:100EE00085E496E00E94321B4AE0BC01CE014896A0
:100EF0000E94191DCE0148960E942C1AAB014F5F2B
:100F00005F4F65E476E0CE0142960E94BC23CE019D
:100F100048960E94E81CCE0101960E94E81CBE0182
:100F20006E5E7F4FCE0101960E947B1DCE01019621
:100F30000E942C1A6F3F71058105910519F010F080
:100F40000C945811CE0101960E942C1A162F85E19F
:100F500090E00E944D1610931A046FE970E08EE73E
:100F600095E00E94ED1D85E190E00E945D166AE02B
:100F700070E00E94A5280E94C8230E94C81FCE01CD
:100F800001960E94E81CCE0142960E94E81C67E789
:100F900073E0CE0101960E94721DBE016F5F7F4F0C
:100FA00085E496E00E943C1B8C01CE0101960E94D4
:100FB000E81C17FD60C062EE72E0CE0101960E944F
:100FC000841DBE016F5F7F4F85E496E00E94321B57
:100FD0004AE0BC01CE0148960E94191DCE014896F8
:100FE0000E942C1AAB014F5F5F4F65E476E0CE01A3
:100FF00042960E94BC23CE0148960E94E81CCE0176
:1010000001960E94E81CBE016E5E7F4FCE010196E4
:101010000E947B1DCE0101960E942C1A6F3F710524
:101020008105910519F010F00C946C11CE01019618
:101030000E942C1A162F86E190E00E944D16109304
:10104000D60365EB70E08EE795E00E94ED1D86E12A
:1010500090E00E945D166AE070E00E94A5280E9460
:10106000C8230E94C81FCE0101960E94E81CCE0131
:1010700042960E94E81C68E673E0CE0101960E9449
:10108000721DBE016F5F7F4F85E496E00E943C1B9E
:101090008C01CE0101960E94E81C17FD60C062EE33
:1010A00072E0CE0101960E94841DBE016F5F7F4FEA
:1010B00085E496E00E94321B4AE0BC01CE014896CE
:1010C0000E94191DCE0148960E942C1AAB014F5F59
:1010D0005F4F65E476E0CE0142960E94BC23CE01CC
:1010E00048960E94E81CCE0101960E94E81CBE01B1
:1010F0006E5E7F4FCE0101960E947B1DCE01019650
:101100000E942C1A6F3F71058105910519F010F0AE
:101110000C948011CE0101960E942C1A162F87E1A3
:1011200090E00E944D161093D5036BEC70E08EE7B3
:1011300095E00E94ED1D87E190E00E945D166AE057
:1011400070E00E94A5280E94C8230E94C81FCE01FB
:1011500001960E94E81CCE0142960E94E81C6FE5B1
:1011600073E0CE0101960E94721DBE016F5F7F4F3A
:1011700085E496E00E943C1B8C01CE0101960E9402
:10118000E81C17FD68C062EE72E0CE0101960E9475
:10119000841DBE016F5F7F4F85E496E00E94321B85
:1011A0004AE0BC01CE0148960E94191DCE01489626
:1011B0000E942C1AAB014F5F5F4F65E476E0CE01D1
:1011C00042960E94BC23CE0148960E94E81CCE01A4
:1011D00001960E94E81CBE016E5E7F4FCE01019613
:1011E0000E947B1DCE0101960E942C1ADC01CB01CE
:1011F0000A97A109B109863F9105A105B10510F033
:101200000C949411CE0101960E942C1A162F88E19D
:1012100090E00E944D16612F70E07093B8016093CA
:10122000B7016FED70E08EE795E00E94ED1D88E15B
:1012300090E00E945D166AE070E00E94A5280E947E
:10124000C8230E94C81FCE0101960E94E81CCE014F
:1012500042960E94E81C62E573E0CE0101960E946E
:10126000721DBE016F5F7F4F85E496E00E943C1BBC
:101270008C01CE0101960E94E81C17FD4EC062EE63
:1012800072E0CE0101960E94841DBE016F5F7F4F08
:1012900085E496E00E94321B4AE0BC01CE014896EC
:1012A0000E94191DCE0148960E942C1AAB014F5F77
:1012B0005F4F65E476E0CE0142960E94BC23CE01EA
:1012C00048960E94E81CCE0101960E94E81CBE01CF
:1012D0006E5E7F4FCE0101960E947B1DCE0101966E
:1012E0000E942C1ADC01CB010197A109B109803CB5
:1012F000984AA105B10510F00C94AA11CE010196EF
:101300000E942C1ACB010E948F21CE0101960E94CF
:10131000E81CCE0142960E94E81C68E473E0CE010E
:1013200001960E94721DBE016F5F7F4F85E496E0BB
:101330000E943C1B8C01CE0101960E94E81C17FD07
:101340001AC06FEF80E090E00E944D160E94B3211A
:101350006FEF83E690E00E944D160E9429216FEF07
:1013600081E390E00E944D160E9436230E94C81F20
:10137000E0E0F0E009956DE373E0CE0101960E9494
:10138000721DBE016F5F7F4F85E496E00E943C1B9B
:101390008C01CE0101960E94E81C17FD0CC06FEF76
:1013A00083E690E00E944D160E9429210E94C81FEA
:1013B000E0E0F0E0099561E373E0CE0101960E9460
:1013C000721DBE016F5F7F4F85E496E00E943C1B5B
:1013D0008C01CE0101960E94E81C17FD0CC06FEF36
:1013E00080E090E00E944D160E94B3210E94C81F29
:1013F000E0E0F0E0099565E273E0CE0101960E941D
:10140000721DBE016F5F7F4F85E496E00E943C1B1A
:101410008C01CE0101960E94E81C17FD0CC06FEFF5
:1014200082E690E00E944D160E94CC230E94C81FC5
:10143000E0E0F0E0099568E173E0CE0101960E94DA
:10144000721DBE016F5F7F4F85E496E00E943C1BDA
:101450008C01CE0101960E94E81C17FD37C081E087
:101460008093B30161E08BE090E00E944D16809183
:10147000FE03813059F569EE72E0CE0142960E947A
:10148000841D69E376E0CE0142960E940D1CBC01EA
:10149000CE0148960E947B1D69E073E0CE01019663
:1014A0000E94721D40E0BE01685E7F4FCE01019632
:1014B0000E945F16CE0101960E94E81CCE0148965C
:1014C0000E94E81CCE0142960E94E81C6BEF72E07D
:1014D000CE0101960E94721DBE016F5F7F4F85E4B1
:1014E00096E00E943C1B8C01CE0101960E94E81CF4
:1014F00017FD36C01092B30160E08BE090E00E94CF
:101500004D168091FE03813059F569EE72E0CE01EF
:1015100042960E94841D69E376E0CE0142960E94C5
:101520000D1CBC01CE0148960E947B1D6BEE72E043
:10153000CE0101960E94721D40E0BE01685E7F4FA1
:10154000CE0101960E945F16CE0101960E94E81C12
:10155000CE0148960E94E81CCE0142960E94E81CEB
:1015600065EE72E0CE0101960E94721DBE016F5FB2
:101570007F4F85E496E00E943C1B8C01CE010196D2
:101580000E94E81C17FD37C081E08093020161E0F2
:101590008AE090E00E944D168091FE03813059F55B
:1015A00069EE72E0CE0142960E94841D69E376E006
:1015B000CE0142960E940D1CBC01CE0148960E94AD
:1015C0007B1D6EED72E0CE0101960E94721D40E01F
:1015D000BE01685E7F4FCE0101960E945F16CE016C
:1015E00001960E94E81CCE0148960E94E81CCE019C
:1015F00042960E94E81C67ED72E0CE0101960E94BF
:10160000721DBE016F5F7F4F85E496E00E943C1B18
:101610008C01CE0101960E94E81C17FD36C0809116
:10162000FE03813059F569EE72E0CE0142960E94C8
:10163000841D69E376E0CE0142960E940D1CBC0138
:10164000CE0148960E947B1D6FEC72E0CE010196A0
:101650000E94721D40E0BE01685E7F4FCE01019680
:101660000E945F16CE0101960E94E81CCE014896AA
:101670000E94E81CCE0142960E94E81C10920201D2
:1016800060E08AE090E00E944D1669EC72E0CE01C5
:1016900001960E94721DBE016F5F7F4F85E496E048
:1016A0000E943C1B8C01CE0101960E94E81C17FD94
:1016B00037C081E08093D30361E082E190E00E9433
:1016C0004D168091FE03813059F569EE72E0CE012E
:1016D00042960E94841D69E376E0CE0142960E9404
:1016E0000D1CBC01CE0148960E947B1D62EC72E08D
:1016F000CE0101960E94721D40E0BE01685E7F4FE0
:10170000CE0101960E945F16CE0101960E94E81C50
:10171000CE0148960E94E81CCE0142960E94E81C29
:101720006BEB72E0CE0101960E94721DBE016F5FED
:101730007F4F85E496E00E943C1B8C01CE01019610
:101740000E94E81C17FD36C01092D30360E082E1CE
:1017500090E00E944D168091FE03813059F569EEAC
:1017600072E0CE0142960E94841D69E376E0CE01CC
:1017700042960E940D1CBC01CE0148960E947B1D22
:1017800063EB72E0CE0101960E94721D40E0BE0143
:10179000685E7F4FCE0101960E945F16CE010196D2
:1017A0000E94E81CCE0148960E94E81CCE01429699
:1017B0000E94E81C65EA72E0CE0101960E94721D4B
:1017C000BE016F5F7F4F85E496E00E943C1B8C0159
:1017D000CE0101960E94E81C17FD05C061E08091D2
:1017E000FE030E94D32767E972E0CE0101960E94B2
:1017F000721DBE016F5F7F4F85E496E00E943C1B27
:101800008C01CE0101960E94E81C17FD05C062E024
:101810008091FE030E94D32769E872E0CE01019611
:101820000E94721DBE016F5F7F4F85E496E00E94AB
:101830003C1B8C01CE0101960E94E81C17FD3AC0AA
:101840001091FE031092070160E083E190E00E9496
:101850004D16113079F58091FE03813059F569EE0E
:1018600072E0CE0142960E94841D69E376E0CE01CB
:1018700042960E940D1CBC01CE0148960E947B1D21
:101880006DEE70E0CE0101960E94721D40E0BE0137
:10189000685E7F4FCE0101960E945F16CE010196D1
:1018A0000E94E81CCE0148960E94E81CCE01429698
:1018B0000E94E81C6AE772E0CE0101960E94721D48
:1018C000BE016F5F7F4F85E496E00E943C1B8C0158
:1018D000CE0101960E94E81C17FD3BC01091FE034B
:1018E00081E08093760361E084E190E00E944D16F0
:1018F000113079F58091FE03813059F569EE72E07F
:10190000CE0142960E94841D69E376E0CE014296A4
:101910000E940D1CBC01CE0148960E947B1D61E017
:1019200071E0CE0101960E94721D40E0BE01685E2A
:101930007F4FCE0101960E945F16CE0101960E9454
:10194000E81CCE0148960E94E81CCE0142960E94F7
:10195000E81C6BE672E0CE0101960E94721DBE018A
:101960006F5F7F4F85E496E00E943C1B8C01CE01A7
:1019700001960E94E81C17FD3BC01091FE0382E017
:101980008093760362E084E190E00E944D1611306E
:1019900079F58091FE03813059F569EE72E0CE0150
:1019A00042960E94841D69E376E0CE0142960E9431
:1019B0000D1CBC01CE0148960E947B1D6BE171E0BD
:1019C000CE0101960E94721D40E0BE01685E7F4F0D
:1019D000CE0101960E945F16CE0101960E94E81C7E
:1019E000CE0148960E94E81CCE0142960E94E81C57
:1019F0006CE572E0CE0101960E94721DBE016F5F20
:101A00007F4F85E496E00E943C1B8C01CE0101963D
:101A10000E94E81C17FD3AC01091FE031092760355
:101A200060E084E190E00E944D16113079F58091DC
:101A3000FE03813059F569EE72E0CE0142960E94B4
:101A4000841D69E376E0CE0142960E940D1CBC0124
:101A5000CE0148960E947B1D61E371E0CE010196A4
:101A60000E94721D40E0BE01685E7F4FCE0101966C
:101A70000E945F16CE0101960E94E81CCE01489696
:101A80000E94E81CCE0142960E94E81C61E572E0CB
:101A9000CE0101960E94721DBE016F5F7F4F85E4EB
:101AA00096E00E943C1B8C01CE0101960E94E81C2E
:101AB00017FD26C165E476E0CE018A960E947B1D63
:101AC00062EE72E0CE0142960E94841DBE016E5EFF
:101AD0007F4FCE018A960E94321B4AE0BC01CE01A4
:101AE00001960E94191DCE0101960E942C1AAB018D
:101AF0004F5F5F4FBE01665D7F4FCE0184960E94AF
:101B0000BC23CE0101960E94E81CCE0142960E94A1
:101B1000E81C6DEE72E0CE0101960E94841DBE01AC
:101B20006F5F7F4FCE0184960E943C1B092FCE0130
:101B300001960E94E81C6AE073E0CE0101960E94C3
:101B4000841D6DEE72E0CE0142960E94841DAE01AE
:101B50004F5F5F4FBE016E5E7F4FCE0184960E9445
:101B6000371ACE0142960E94E81CCE0101960E94CF
:101B7000E81C69EE72E0CE0142960E94841DBE010F
:101B80006E5E7F4FCE0184960E943C1B4AE0BC01F2
:101B9000CE0101960E94191DCE0101960E942C1AB9
:101BA0009B0140E050E0BE016C5D7F4FCE014E9640
:101BB0000E94991DCE0101960E94E81CCE0142961A
:101BC0000E94E81C69EE72E0CE0142960E94841DDC
:101BD000BE016E5E7F4FCE0184960E94321B4AE0AA
:101BE000BC01CE0101960E94191DCE0101960E94F2
:101BF0002C1AAB014F5F5F4FBE016C5D7F4FCE0172
:101C000048960E94BC23CE0101960E94E81CCE019A
:101C100042960E94E81CCE014E960E942C1A162F66
:101C2000BE01685E7F4FCE0101960E947B1D115060
:101C3000183048F065E571E08EE795E00E942A1EB5
:101C40000E94E01F45C046E250E069E473E0CE0127
:101C500001960E942229C12ED12C25E1129FF0016C
:101C60001124E85FFE4F8389948929E4E22E23E062
:101C7000F22EFC01E954F3405F01C5018E0D9F1D5A
:101C8000F70161917F019B8B8A8BCE0142960E9466
:101C90009C23FFE6EF16F3E0FF0679F7602F6095CF
:101CA000661F6627661F85E18C9DF0018D9DF00DF6
:101CB0001124E85FFE4F8389948987960E944D1610
:101CC00062E471E08EE795E00E942A1E0E94C81F20
:101CD0000E94C8230E942218CE0101960E94E81C8F
:101CE000CE0148960E94E81CCE014E960E94E81C48
:101CF000CE0184960E94E81CCE018A960E94E81CC0
:101D000063E472E0CE0101960E94721DBE016F5F16
:101D10007F4F85E496E00E943C1B8C01CE0101962A
:101D20000E94E81C17FD0FC065E476E0CE01019625
:101D30000E947B1D62E0CE0101960E944125CE01EA
:101D400001960E94E81C68E372E0CE0101960E94B1
:101D5000721DBE016F5F7F4F85E496E00E943C1BC1
:101D60008C01CE0101960E94E81C17FD04C00E9460
:101D7000B3210E9436236DE272E0CE0101960E94EB
:101D8000721DBE016F5F7F4F85E496E00E943C1B91
:101D90008C01CE0101960E94E81C17FF0E942218B8
:101DA00065E272E0CE0101960E94721DBE016F5F76
:101DB0007F4F85E496E00E943C1B8C01CE0101968A
:101DC0000E94E81C17FD81C00E94D4342DEF30E042
:101DD00040E050E00E948F3582E0D82ED60E6FE8AA
:101DE00071E08EE795E00E94ED1D4AE060E074E04E
:101DF00080E090E00E9462286DE871E08EE795E057
:101E00000E942A1E00E010E06D2DC8010E9481355D
:101E100065E070E080E090E00E94BA130F5F1F4F12
:101E2000011524E0120781F7E12CF12C00E010E00D
:101E3000C8010E945D168D1511F16FE771E08EE704
:101E400095E00E94ED1DC8010E945D16C82E4AE073
:101E5000B801CE0101960E94ED1C6DE276E0CE0144
:101E600001960E940D1C6C2D0E944B1C0E94112992
:101E7000CE0101960E94E81C3FEFE31AF30A65E0E9
:101E800070E080E090E00E94BA130F5F1F4F0115D1
:101E900084E0180769F669E771E08EE795E00E9433
:101EA000ED1DE114F10409F06BC261E771E08EE70A
:101EB00095E00E942A1E0E94C82364EF71E080E032
:101EC00090E00E94BA13F70109956DE172E0CE012E
:101ED00001960E94721DBE016F5F7F4F85E496E000
:101EE0000E943C1B8C01CE0101960E94E81C17FF4A
:101EF0000E943F2463E172E0CE0101960E94721DB0
:101F0000BE016F5F7F4F85E496E00E943C1B8C0111
:101F1000CE0101960E94E81C17FF0E9428206CE069
:101F200072E0CE0101960E94721DBE016F5F7F4F6D
:101F300085E496E00E943C1B8C01CE0101960E9434
:101F4000E81C17FD09C064EF71E080E090E00E949A
:101F5000BA13E0E0F0E009951092FF0366E072E04A
:101F6000CE0101960E94721DBE016F5F7F4F85E416
:101F700096E00E943C1B8C01CE0101960E94E81C59
:101F800017FD22C08091FC03813011F48093FD0382
:101F900068EE73E080E090E00E94BA1368E971E0B7
:101FA00087E596E00E94ED1D6BE476E087E596E01C
:101FB0000E94DF1D60EF72E087E596E00E94111E2F
:101FC00087E596E00E94261E60E072E0CE01019651
:101FD0000E94721DBE016F5F7F4F85E496E00E94F4
:101FE0003C1B8C01CE0101960E94E81C17FD12C01B
:101FF00060E08BE00E94BD1E209100013091010144
:10200000A0E6BAEE0E941A360E94BA1361E08BE095
:102010000E94BD1E68EF71E0CE0101960E94721D04
:10202000BE016F5F7F4F85E496E00E943C1B8C01F0
:10203000CE0101960E94E81C17FD04C08091FC03AC
:102040000E94A61F6FEE71E0CE0101960E94721DE4
:10205000BE016F5F7F4F85E496E00E943C1B8C01C0
:10206000CE0101960E94E81C17FD0CC08091FC0374
:10207000813011F48093FD031092D4031092570520
:102080000E94101F6AEE71E0CE0101960E94721D3F
:10209000BE016F5F7F4F85E496E00E943C1B8C0180
:1020A000CE0101960E94E81C17FD61C06EED71E043
:1020B000CE0101960E94721D8091D303811103C04D
:1020C00069ED71E002C065ED71E0CE0101960E94FC
:1020D000881B409137065091380660913306709105
:1020E0003406CE0101960E94C61B60ED77E080E0C9
:1020F00090E00E94BA138091FE03813061F569EE91
:1021000072E0CE0148960E94841D69E376E0CE011C
:1021100048960E940D1CBC01CE014E960E947B1D6C
:10212000BE016F5F7F4FCE0142960E947B1D41E052
:10213000BE01625E7F4FCE0142960E945F16CE01C5
:1021400042960E94E81CCE014E960E94E81CCE01E9
:1021500048960E94E81C8091FC03813021F4CE0156
:1021600001960E941129CE0101960E94E81C6FEC95
:1021700071E0CE0101960E94721DBE016F5F7F4F1C
:1021800085E496E00E943C1B8C01CE0101960E94E2
:10219000E81C17FD0CC081E08093B40161E08DE084
:1021A00090E00E944D1660E08CE00E94BD1E68EC3D
:1021B00071E0CE0101960E94721DBE016F5F7F4FDC
:1021C00085E496E00E943C1B8C01CE0101960E94A2
:1021D000E81C17FD0BC01092B40160E08DE090E0A8
:1021E0000E944D1661E08CE00E94BD1E6FEB71E015
:1021F000CE0101960E94721DBE016F5F7F4F85E484
:1022000096E00E943C1B8C01CE0101960E94E81CC6
:1022100017FD23C066EB71E087E596E00E94ED1D97
:1022200080910004813031F462EB71E087E596E043
:102230000E942A1E809100048250823030F460EBAC
:1022400071E087E596E00E942A1E64EA71E08EE75D
:1022500095E00E942A1E0E94C81F1092FE03109251
:10226000FC03E0960FB6F894DEBF0FBECDBFDF9142
:10227000CF911F910F91FF90EF90DF90CF90BF9083
:10228000AF90089560910001709101014AE0CE0184
:1022900048960E94ED1CBE01685E7F4FCE010196FC
:1022A0000E94AF1CCE0148960E94E81C0C942A079D
:1022B0004AE060911A04CE0148960E94451DBE0175
:1022C000685E7F4FCE0101960E94AF1CCE014896FA
:1022D0000E94E81C0C94A2074AE06091D603CE014C
:1022E00048960E94451DBE01685E7F4FCE01019653
:1022F0000E94AF1CCE0148960E94E81C0C94160860
:102300004AE06091D503CE0148960E94451DBE016A
:10231000685E7F4FCE0101960E94AF1CCE014896A9
:102320000E94E81C0C948A086091B7017091B80172
:102330004AE0CE0148960E94ED1CBE01685E7F4FC8
:10234000CE0101960E94AF1CCE0148960E94E81C67
:102350000C9402096091B0017091B1014AE0CE0184
:1023600048960E94ED1CBE01685E7F4FCE0101962B
:102370000E94AF1CCE0148960E94E81C0C947E0976
:1023800069E671E08EE795E00E942A1E9ECD3FB778
:10239000F89480914C0590914D05A0914E05B09117
:1023A0004F0526B5A89B05C02F3F19F00196A11D2A
:1023B000B11D3FBFBA2FA92F982F8827820F911DDB
:1023C000A11DB11DBC01CD0142E0660F771F881F22
:1023D000991F4A95D1F7089585ED8093BC008091AF
:1023E000BC0084FDFCCF10929D030895409122050E
:1023F000262F30E0240F311D21323105DCF42091ED
:102400009D032430C9F4FC0180E090E0861758F465
:10241000309122052191DC01A050BB4FA30FB11DCB
:102420002C930196F3CF80912205680F60932205CB
:1024300080E0089581E0089582E008950895E09194
:10244000BE038091BF03E81730F4F0E0E256FC4F82
:10245000808190E008958FEF9FEF08959091BE03E3
:102460008091BF03981750F4E92FF0E0E256FC4F3B
:10247000208130E09F5F9093BE0302C02FEF3FEFBB
:10248000C90108958091BF0390E02091BE03821B93
:1024900091090895CF92DF92EF92FF920F931F93CD
:1024A000CF93DF937C01262F972F8A0180913F04E1
:1024B000882391F0C62FD72F6E01C40ED51ECC15E0
:1024C000DD0571F06991D701ED91FC910190F081EA
:1024D000E02DC7010995F3CF642F822F0E94F611DA
:1024E000C801DF91CF911F910F91FF90EF90DF9086
:1024F000CF900895CF93DF931F92CDB7DEB7698356
:1025000020913F042223D1F020916F03203240F02C
:1025100021E030E0FC013383228380E090E015C0AD
:1025200080917003E82FF0E0E15EFB4F998190838A
:102530008F5F8093700380936F0305C061E0CE01CD
:1025400001960E94F61181E090E00F90DF91CF910B
:10255000089520917303309174032817390771F49B
:102560009091710380917203981741F0E09171038B
:10257000F0E0E05CFB4F808190E008958FEF9FEFEB
:10258000089508951F93CF93DF93DC015C962D91FE
:102590003C915D972115310539F481E090E0139667
:1025A0009C938E9312973DC05196ED91FC9152975A
:1025B00050969C915097892F80951FB75E964C91AD
:1025C0005E9741FB772770F941FD6095F894408153
:1025D000772311F0492B01C048234083E90121975B
:1025E000F1F748E0508160FF02C0592B01C0582329
:1025F0005083E9012197F1F76695415099F77723C8
:1026000021F090818923808303C08081982B90835F
:102610001FBF5C968D919C915D970197F1F721E02A
:1026200030E0C901DF91CF911F910895209173038C
:10263000309174032817390771F480917203209147
:10264000710390E080549F4F821B910960EC70E011
:102650000E942936089580E090E008952091730348
:102660003091740328173907C9F490917103809150
:102670007203981799F0E0917103F0E0E05CFB4F72
:1026800020818091710390E0019660EC70E00E94DF
:10269000293680937103822F90E008958FEF9FEF8A
:1026A0000895089580E090E00895833081F028F443
:1026B000813099F08230A1F008958730A9F08830F8
:1026C000B9F08430D1F4809180008F7D03C0809177
:1026D00080008F7780938000089584B58F7702C043
:1026E00084B58F7D84BD08958091B0008F7703C03D
:1026F0008091B0008F7D8093B0000895CF93DF93D9
:1027000090E0FC01EC5AF74F2491FC01E05CF74F9C
:102710008491882361F190E0880F991FFC01EE5DA0
:10272000FA4FC591D491FC01E45DF74FA591B491A6
:10273000611109C09FB7F89488812095822388830E
:10274000EC912E230BC0623061F49FB7F89438816E
:10275000822F809583238883EC912E2B2C939FBF0F
:1027600006C08FB7F894E8812E2B28838FBFDF91A6
:10277000CF9108958F929F92AF92BF92CF92DF92A6
:10278000EF92FF926B017C010E94C7114B015C012B
:10279000C114D104E104F104F1F00E94C711DC017D
:1027A000CB0188199909AA09BB09883E9340A10564
:1027B000B10570F321E0C21AD108E108F10888EEF2
:1027C000880E83E0981EA11CB11CC114D104E10441
:1027D000F10419F7DDCFFF90EF90DF90CF90BF901D
:1027E000AF909F908F9008952FB7F894609148050F
:1027F0007091490580914A0590914B052FBF08952E
:102800001F920F920FB60F9211242F933F938F9325
:102810009F93AF93BF938091480590914905A091F4
:102820004A05B0914B053091470523E0230F2D3722
:1028300020F40196A11DB11D05C026E8230F0296C4
:10284000A11DB11D2093470580934805909349052C
:10285000A0934A05B0934B0580914C0590914D058E
:10286000A0914E05B0914F050196A11DB11D809319
:102870004C0590934D05A0934E05B0934F05BF9125
:10288000AF919F918F913F912F910F900FBE0F901D
:102890001F9018951F920F920FB60F9211242F932D
:1028A0003F934F935F936F937F938F939F93AF93D8
:1028B000BF93EF93FF938091B900887F803609F42E
:1028C0009CC068F5883209F45BC090F4803109F44B
:1028D00054C038F4882309F4F6C0883009F44DC098
:1028E000F6C0883109F44CC0803209F45DC0EFC0F5
:1028F000803409F468C048F4803309F455C0883343
:1029000009F0E5C080939B03D8C0803509F44FC01F
:10291000883509F45DC0883409F0D9C0D6C088393B
:1029200009F4C7C0A8F4883709F467C038F48836BA
:1029300009F463C0803709F460C0C9C0883809F45D
:10294000B8C0803909F45FC0803809F0C0C05BC0EE
:10295000803B09F486C038F4803A09F466C0883AAE
:1029600009F47FC0B4C0803C09F4A7C0883C09F4D6
:10297000A4C0883B09F48AC0AAC08091980310C003
:1029800090919A0380919903981770F5E0919A03BA
:1029900081E08E0F80939A03F0E0E958FC4F80812C
:1029A0008093BB0085EC86C080939B038EC0E09132
:1029B0009A0381E08E0F80939A038091BB00F0E030
:1029C000E958FC4F808390919A03809199036EC0DF
:1029D000E0919A0381E08E0F80939A038091BB006F
:1029E000F0E0E958FC4F808380919C0381116DC019
:1029F00081E08093970384EA61C083E080939D0324
:102A000010924605CFCF80914605803208F051C024
:102A1000E091460581E08E0F809346058091BB00D2
:102A2000F0E0EA5DFA4F8083BDCF85EC8093BC0077
:102A300010929D0380914605803230F4E091460566
:102A4000F0E0EA5DFA4F10826091460570E0E09197
:102A50002405F091250586E295E00995109246053A
:102A600036C084E080939D031092230510922205C6
:102A7000E0912005F09121050995809122058111B1
:102A800005C081E08093220510920005E0912305A6
:102A900081E08E0F80932305F0E0E050FB4F8081B2
:102AA0008093BB009091230580912205981708F42C
:102AB00079CF85E88093BC000AC085EC8093BC0088
:102AC00010929D0304C010929B030E94EC11FF9191
:102AD000EF91BF91AF919F918F917F916F915F9196
:102AE0004F913F912F910F900FBE0F901F9018950F
:102AF0001F920F920FB60F9211242F933F934F9373
:102B00005F936F937F938F939F93AF93BF93EF9355
:102B1000FF93E0917303F0917403309709F453C06D
:102B2000968DA685B785858591FF04C09C918923E4
:102B300029F449C09C91892309F045C0A389B4892F
:102B40009C918589809589238C93868997890197A3
:102B5000F1F7608D718DA685B785558538E020E049
:102B6000CB010197F1F7822F90E095958795282F5B
:102B70004C91452309F02068315091F7868D81FDF5
:102B800020958091720390E0019660EC70E00E94C5
:102B9000293690917103981749F0A0917203B0E023
:102BA000A05CBB4F2C938093720303C0868D816021
:102BB000868F828D938D0197F1F7A389B4899C91BB
:102BC0008589892B8C93FF91EF91BF91AF919F9154
:102BD0008F917F916F915F914F913F912F910F90C6
:102BE0000FBE0F901F901895CF92DF92EF92FF9239
:102BF0000F931F93CF93DF93EB017B0121E1E20E53
:102C0000F11C8B016C01C61AD70AC601800F911FF7
:102C10000E947935F80181938F01EE15FF05A9F720
:102C2000CE01DF91CF911F910F91FF90EF90DF9038
:102C3000CF900895AF92BF92CF92DF92EF92FF9222
:102C40000F931F93CF93DF9300D0CDB7DEB78B01E7
:102C50006B0121E1C20ED11C7B015C01A61AB70AEF
:102C600095012E0D3F1DF70161917F013A83298364
:102C7000CE0101960E949C23EC14FD0489F7C80143
:102C80000F900F90DF91CF911F910F91FF90EF90D8
:102C9000DF90CF90BF90AF900895CF93DF9300D097
:102CA000CDB7DEB79A838983CE0101960E949C231B
:102CB0000F900F90DF91CF9108950C9479350F9379
:102CC0001F93CF93DF93EC018B0180910201813040
:102CD00019F0413009F046C068EE73E080E090E002
:102CE0000E94BA136EE075E087E596E00E94ED1D44
:102CF000B80187E596E00E94DF1D6CE075E087E58E
:102D000096E00E942A1E64EF71E080E090E00E944D
:102D1000BA13BE0187E596E00E94DF1D64EF71E003
:102D200080E090E00E94BA13E0915706F0915806B7
:102D30000190F081E02D6AE187E596E0099564EF66
:102D400071E080E090E00E94BA1361E073E08EE7EA
:102D500095E00E94111E68E873E180E090E00E9417
:102D6000BA1306C06DEF72E08EE795E00E94111E67
:102D7000B8018EE795E00E94DF1D6DE276E08EE7F8
:102D800095E00E94DF1DCE01DF91CF911F910F9141
:102D90000C9411290F931F93CF93DF93CDB7DEB718
:102DA00068970FB6F894DEBF0FBECDBF0E94F41334
:102DB00000911B0410911C0420911D0430911E04ED
:102DC000601B710B820B930B28EE33E040E050E068
:102DD0000E94F83580911A0490E0A0E0B0E08217DC
:102DE0009307A407B50708F07CC011E01093B60163
:102DF00061E08EE090E00E944D161093B20168E110
:102E000075E083E396E00E94591C0E94ED1E83E367
:102E100096E00E94112968EE73E080E090E00E9445
:102E2000BA1309EB11E0F8018589968946960E944C
:102E30005D16813009F048C068EE73E080E090E0F4
:102E40000E94BA136BEE73E0F801858996890E949F
:102E5000F415BC01CE0107960E94841D69EE72E054
:102E6000CE010D960E94841DBE01695F7F4FCE0189
:102E70000D960E940D1CBC01CE0101960E947B1D87
:102E800063E376E0CE0143960E947B1D40E0BE01E5
:102E90006F5F7F4FCE0143960E945F16CE0143962F
:102EA0000E94E81CCE0101960E94E81CCE010D96FE
:102EB0000E94E81CCE0107960E94E81C68EE73E0B1
:102EC00080E090E00E94BA13095E1F4FF2E00F39D4
:102ED0001F0709F0A8CF109275031092FD031092FE
:102EE000D40368960FB6F894DEBF0FBECDBFDF9156
:102EF000CF911F910F91089560ED77E080E090E011
:102F00000E94BA1364E075E087E596E00E942A1EED
:102F10001092D90308958F929F92AF92BF92DF9241
:102F2000EF92FF920F931F93CF93DF93CDB7DEB74E
:102F300068970FB6F894DEBF0FBECDBF2091B601E3
:102F4000213019F0613009F06BC0142F062F7C017D
:102F50000E94112989EB882E81E0982E9AE0D92EC3
:102F6000113031F4F401A588B688C501439608C034
:102F7000123009F049C0F401A588B688C50145960C
:102F80000E945D16813009F03FC06BEE73E0C50111
:102F90000E94F415BC01CE010D960E94841D69EEBD
:102FA00072E0CE0107960E94841DBE01635F7F4FD1
:102FB000CE0107960E940D1CBC01CE0143960E94D3
:102FC0007B1DB701CE0101960E947B1D402FBE01E3
:102FD0006D5E7F4FCE0101960E945F16CE01019675
:102FE0000E94E81CCE0143960E94E81CCE01079681
:102FF0000E94E81CCE010D960E94E81C68EE73E06A
:1030000080E090E00E94BA13DA94F7E18F0E911CF1
:10301000D110A6CF113021F41093D7031093D80309
:1030200068960FB6F894DEBF0FBECDBFDF91CF918B
:103030001F910F91FF90EF90DF90BF90AF909F9006
:103040008F900895DF92EF92FF920F931F93CF938B
:10305000DF9300D000D000D0CDB7DEB767EF74E0CB
:103060008EE795E00E942A1E88E0E82E81E0F82E87
:1030700000E010E0F701838994890E944828F70155
:103080008389948987960E945D16D82E0F5F1F4F03
:103090004AE0B801CE0101960E94191D6DE276E06A
:1030A000CE0101960E940D1C68E575E00E94F41B9C
:1030B0006DE276E00E940D1C6D2D0E944B1C0E945B
:1030C0001129CE0101960E94E81CF5E1EF0EF11CDA
:1030D0000830110579F60E94C82326960FB6F89499
:1030E000DEBF0FBECDBFDF91CF911F910F91FF903B
:1030F000EF90DF9008950895CF92DF92EF92FF92C4
:103100000F931F93CF93DF936C017A018B01C0E083
:10311000D0E0CE15DF0589F0D8016D918D01D60183
:10312000ED91FC910190F081E02DC6010995892B6C
:1031300011F47E0102C02196ECCFC701DF91CF913F
:103140001F910F91FF90EF90DF90CF900895FC01B9
:10315000538D448D252F30E0842F90E0821B930BFC
:10316000541710F0CF96089501970895FC01918DA2
:10317000828D981761F0828DDF01A80FB11D5D96D9
:103180008C91928D9F5F9F73928F90E008958FEF47
:103190009FEF0895FC01918D828D981731F0828DFB
:1031A000E80FF11D858D90E008958FEF9FEF089552
:1031B000FC01918D228D892F90E0805C9F4F821BB6
:1031C00091098F73992708958EE795E00E94D8188A
:1031D00021E0892B09F420E0822F0895FC01848DE1
:1031E000DF01A80FB11DA35ABF4F2C91848D90E031
:1031F00001968F739927848FA689B7892C93A0890C
:10320000B1898C9180648C93938D848D981306C0C2
:103210000288F389E02D80818F7D80830895EF926D
:10322000FF920F931F93CF93DF93EC0181E0888F80
:103230009B8D8C8D981305C0E889F989808185FD67
:1032400024C0F62E0B8D10E00F5F1F4F0F73112758
:10325000E02E8C8DE8120CC00FB607FCFACFE8897F
:10326000F989808185FFF5CFCE010E94EE18F1CF5C
:103270008B8DFE01E80FF11DE35AFF4FF0820B8F9B
:10328000EA89FB898081806207C0EE89FF896083BB
:10329000E889F98980818064808381E090E0DF9112
:1032A000CF911F910F91FF90EF900895CF93DF93EF
:1032B000EC01888D8823C9F0EA89FB89808185FD2E
:1032C00005C0A889B9898C9186FD0FC00FB607FC8F
:1032D000F5CF808185FFF2CFA889B9898C9185FFD0
:1032E000EDCFCE010E94EE18E7CFDF91CF91089588
:1032F00080E090E0892B29F00E94E41881110C9461
:10330000000008950E944E38AF92BF92CF92DF9294
:10331000EF92FF920F931F93CF93DF937B018A016C
:10332000FB01448155814115510561F1FC01248166
:1033300035812115310531F12417350718F10217B0
:10334000130718F0890101501109FC01A080B18018
:10335000C501DFEFCFEF6501C00ED11EC816D9063B
:10336000A0F0F701608171810E949538009769F0A3
:103370009C012A193B090217130710F0D22FC32F03
:103380000196ECCF8FEF9FEF02C08D2F9C2FDF9126
:10339000CF911F910F91FF90EF90DF90CF90BF9052
:1033A000AF9008950F931F93CF93DF93EC01888123
:1033B0009981009729F02A813B812617370788F4E5
:1033C0008B016F5F7F4F0E948437009761F0998374
:1033D00088831B830A832C813D81232B11F4FC01FC
:1033E000108281E001C080E0DF91CF911F910F91A9
:1033F0000895CF93DF93EC0188819981009711F0B4
:103400000E94EC36198218821D821C821B821A824D
:10341000DF91CF910895EF92FF920F931F93CF9377
:10342000DF93EC017B018A01BA010E94D21981115C
:1034300004C0CE010E94F91907C01D830C83B70197
:10344000888199810E947F38CE01DF91CF911F91B1
:103450000F91FF90EF900895FC018081918100977A
:1034600011F00C94E23460E070E0CB0108952F92EB
:103470003F924F925F926F927F928F929F92AF9204
:10348000BF92CF92DF92EF92FF920F931F93CF9351
:10349000DF93FC01448055804114510409F4CFC0EE
:1034A000FB01648075806114710409F4C8C07A015D
:1034B0006B01EC01FA01A480B580A618B708088159
:1034C0001981A114B104C1F4F60160817181C801B0
:1034D0000E949538EC01892B09F4B1C0F701608195
:1034E000718144815581CE010E945B38F7010481CE
:1034F00015810C0F1D1FE8CFB7FE02C0480106C0A2
:10350000FB01208031804201C80142C0F601608188
:103510007181C4010E9495382C01892B19F1320167
:1035200068187908A301B401C8010E945B38060D30
:10353000171DF7016081718144815581C8010E9486
:103540005B38F70184819581080F191FF60184808B
:103550009580840C951C8C819D818A0D9B1D9D837B
:103560008C83D4CFB401C801DF91CF911F910F910B
:10357000FF90EF90DF90CF90BF90AF909F908F9093
:103580007F906F905F904F903F902F900C947F387A
:10359000B1010E949538009729F0860D971D8A0C7D
:1035A0009B1CF6CF8414950409F449C08A819B8141
:1035B0008815990560F4B4016F5F7F4FC8010E94C0
:1035C00084370097E1F1998388839B828A824C81BA
:1035D0005D814150510957FD32C0B601CE010E94B4
:1035E00084198C0197FD2BC088819981F601248173
:1035F0003581200F311F820F931F4C815D81421B4B
:10360000530BBC018A0D9B1D0E9464388C819D81E7
:103610008A0D9B1D9D838C8328813981F901E80FD8
:10362000F91F108288819981F7016081718144813D
:103630005581800F911F0E945B38A801CACFDF918E
:10364000CF911F910F91FF90EF90DF90CF90BF909F
:10365000AF909F908F907F906F905F904F903F9032
:103660002F900895FC0144815581FB01248135810F
:10367000421B530B0C948419CF93DF93FC012481DC
:103680003581232B71F0FB01DC01CD91DC91608150
:103690007181CE010E949538009719F08C1B9D0B0B
:1036A00002C08FEF9FEFDF91CF910895FC0124813D
:1036B0003581FB01448155812417350721F5FC0133
:1036C00080819181FB0160817181009719F0611502
:1036D0007105A1F46115710549F0232BB1F0FB01CF
:1036E000808190E09195819591090AC0009769F0D9
:1036F000232B59F0FC01808190E002C00E947638B3
:1037000021E0892B19F020E001C021E0822F0895EB
:10371000EF92FF920F931F93CF93DF936115710583
:1037200011F480E01EC08B01EC01CB010E9410352A
:103730000097B1F02C813D817C01E20EF31EB701B0
:10374000CE010E94D219882361F3288139818C81AE
:103750009D81B801820F931F0E940935FD82EC8282
:1037600081E0DF91CF911F910F91FF90EF9008952D
:10377000CF93DF93EC010E94881B811103C0CE011F
:103780000E94F919CE01DF91CF910895EF92FF9237
:103790000F931F93CF93DF93FC0124813581611533
:1037A000710511F480E019C041155105A9F07B01A4
:1037B000EC018A01020F131FB8010E94D21988235D
:1037C00089F3288139818C819D81B701820F931FF4
:1037D0000E947F381D830C8381E0DF91CF911F9180
:1037E0000F91FF90EF900895CF93DF93EC01611557
:1037F000710561F0FB0101900020E9F73197AF01FD
:10380000461B570B0E94C61B811103C0CE010E94AC
:10381000F919CE01DF91CF910895CF93DF93EC0199
:10382000FB0144815581608171810E94C61B811119
:1038300003C0CE010E94F919CE01DF91CF91089506
:10384000EF92FF920F931F93CF93DF9300D000D09E
:10385000CDB7DEB77C01862F4AE08E010F5F1F4F88
:10386000B80190E00E942435F80101900020E9F7AA
:103870003197AF01401B510BB801C7010E94C61B15
:103880000F900F900F900F90DF91CF911F910F919C
:10389000FF90EF900895CF93DF93EC010E94201CDE
:1038A000811103C0CE010E94F919CE01DF91CF91A1
:1038B0000895EF92FF920F931F93CF93DF93EC0144
:1038C0008B016115710551F0CB010E9410357C010F
:1038D000BC01CE010E94D219811104C0CE010E9408
:1038E000F91907C0FD82EC82B801888199810E9494
:1038F0000935CE01DF91CF911F910F91FF90EF908D
:103900000895CF93DF93EC016115710559F0FB0128
:1039100001900020E9F73197AF01461B570B0E9439
:103920000B1A02C00E94F919CE01DF91CF910895C0
:10393000CF93DF93EC01FB018617970761F060815D
:1039400071816115710529F0448155810E940B1A1E
:1039500002C00E94F919CE01DF91CF9108950F9313
:103960001F93CF93DF938C01EB01FC018081918148
:103970000097B1F0688179816115710579F0428114
:1039800053812C813D814217530740F00E947F38BC
:103990008C819D81F8019583848313C00E94EC364D
:1039A00088819981F801918380838A819B819383A7
:1039B00082838C819D8195838483198218821B82E6
:1039C0001A821D821C82DF91CF911F910F91089561
:1039D000FC01808191810C94EC360F931F93CF935F
:1039E000DF93CDB7DEB761970FB6F894DEBF0FBE99
:1039F000CDBF8C01CB01F80111821082138212829B
:103A00001582148250E0BE016F5F7F4F0E944435E3
:103A1000BE016F5F7F4FC8010E94811C61960FB687
:103A2000F894DEBF0FBECDBFDF91CF911F910F91F4
:103A300008950F931F93CF93DF93CDB7DEB76297AF
:103A40000FB6F894DEBF0FBECDBF8C01CB01F801DD
:103A500011821082138212821582148250E0BE01FC
:103A60006F5F7F4F0E941935BE016F5F7F4FC801A6
:103A70000E94811C62960FB6F894DEBF0FBECDBFC8
:103A8000DF91CF911F910F9108950F931F93CF93C3
:103A9000DF93CDB7DEB729970FB6F894DEBF0FBE20
:103AA000CDBF8C01862FF801118210821382128201
:103AB0001582148250E0BE016F5F7F4F90E00E943C
:103AC0004435BE016F5F7F4FC8010E94811C29965B
:103AD0000FB6F894DEBF0FBECDBFDF91CF911F911F
:103AE0000F910895FC0111821082138212821582B7
:103AF00014820C94591CFC011182108213821282D0
:103B0000158214820C94981CFC011182108213827D
:103B10001282158214826115710551F0FB0101902A
:103B20000020E9F73197AF01461B570B0C940B1A95
:103B30000895BF92CF92DF92EF92FF920F931F935F
:103B4000CF93DF937C016B018A01E90124173507CC
:103B500020F4812F8901C42FD82F6AE073E0C701B8
:103B60000E94841DD60114968D919C91159708177B
:103B70001907D0F48C179D0708F4EC01D601ED91DC
:103B8000FC911197EC0FFD1FB08010824D915C915C
:103B9000BA01600F711FC7010E94811CD601ED910F
:103BA000FC91EC0FFD1FB082C701DF91CF911F91F7
:103BB0000F91FF90EF90DF90CF90BF900895DC01C0
:103BC000ED91FC91DB0114964D915C9115976D91EF
:103BD0007C910280F381E02D0994EF92FF920F9384
:103BE0001F93CF93DF938C017B01C0E0D0E0F701FE
:103BF000EC0FFD1F6491662361F0D801ED91FC91FB
:103C00000190F081E02DC8010995892B11F02196D2
:103C1000EECFCE01DF91CF911F910F91FF90EF90EA
:103C200008956115710579F0FB0101900020E9F715
:103C30003197AF01461B570BDC01ED91FC910280DF
:103C4000F381E02D099480E090E0089568E073E04E
:103C50000C94111E0F931F93CF93DF93EC010E94DE
:103C6000ED1D8C01CE010E94261E800F911FDF9159
:103C7000CF911F910F9108951F920F920FB60F923F
:103C800011242F933F934F935F936F937F938F9361
:103C90009F93AF93BF93EF93FF938EE795E00E94BE
:103CA000EE18FF91EF91BF91AF919F918F917F910E
:103CB0006F915F914F913F912F910F900FBE0F9099
:103CC0001F9018951F920F920FB60F9211242F93E9
:103CD0008F939F93EF93FF93E0918E05F0918F0563
:103CE0008081E0919405F091950582FD12C090814C
:103CF000809197058F5F8F7320919805821751F0FF
:103D0000E0919705F0E0E258FA4F958F8093970580
:103D100001C08081FF91EF919F918F912F910F9022
:103D20000FBE0F901F901895CF93DF93282F30E090
:103D3000F901E45DFA4F8491F901EC5AF74FD491FF
:103D4000F901E05CF74FC491CC2391F081110E94FE
:103D50005513EC2FF0E0EE0FFF1FEA5CF74FA59133
:103D6000B491EC91ED2381E090E021F480E002C079
:103D700080E090E0DF91CF9108951F93CF93DF9380
:103D8000282F30E0F901E45DFA4F8491F901EC5AF3
:103D9000F74FD491F901E05CF74FC491CC23C9F0FF
:103DA000162F81110E945513EC2FF0E0EE0FFF1F2C
:103DB000E45DF74FA591B4918FB7F894111105C048
:103DC0009C91ED2FE095E92302C0EC91ED2BEC9353
:103DD0008FBFDF91CF911F9108958091750381303E
:103DE00019F46AEF76E006C08091FD03813031F46A
:103DF0006BE077E083E396E00C94881B62E077E069
:103E000083E396E00E94881B40913D0650913E0658
:103E10006091390670913A0683E396E00C94C61BD4
:103E20000F931F93CF93DF93CDB7DEB768970FB68D
:103E3000F894DEBF0FBECDBF1092B60160E08EE0F9
:103E400090E00E944D166FEE76E083E396E00E94CC
:103E5000591C0E94ED1E83E396E00E94112968EE32
:103E600073E080E090E00E94BA1309EB11E0F801E2
:103E70008589968946960E945D16813009F048C072
:103E800068EE73E080E090E00E94BA136BEE73E09E
:103E9000F801858996890E94F415BC01CE010D9622
:103EA0000E94841D69EE72E0CE0107960E94841D77
:103EB000BE01635F7F4FCE0107960E940D1CBC01BF
:103EC000CE0143960E947B1D63E376E0CE0101960E
:103ED0000E947B1D40E0BE016D5E7F4FCE010196CA
:103EE0000E945F16CE0101960E94E81CCE01439607
:103EF0000E94E81CCE0107960E94E81CCE010D9698
:103F00000E94E81C68EE73E080E090E00E94BA1323
:103F1000095E1F4FF2E00F391F0709F0A8CF80910B
:103F20007603823021F41092040110920301109262
:103F300075031092FD0368960FB6F894DEBF0FBEAE
:103F4000CDBFDF91CF911F910F910895813011F472
:103F50008093FD030E94F41360931B0470931C0470
:103F600080931D0490931E0481E08093D4030C94ED
:103F7000CA168091B601813031F41092D4031092A8
:103F800057050C94101F811102C00C94A61F0895B0
:103F900061E08BE00E94BD1E64E670E080E090E08E
:103FA0000E94BA1360E08BE00E94BD1E64E670E0E0
:103FB00080E090E00E94BA1361E08BE00C94BD1E9B
:103FC0000E94C81F0C94C81FCF92DF92FF920F93DC
:103FD0001F93CF93DF9300D000D000D0CDB7DEB7D2
:103FE0006C0109EB11E06BEE73E0F80185899689AD
:103FF0000E94F415BC01CE0101960E94841DB601F9
:10400000CE0101960E94561BF82ECE0101960E9409
:10401000E81CFF2041F0B60189E396E00E94981C5D
:10402000FF24F39406C0095E1F4FF2E00F391F070B
:10403000D1F68F2D26960FB6F894DEBF0FBECDBFFA
:10404000DF91CF911F910F91FF90DF90CF90089556
:10405000AF92BF92CF92DF92EF92FF920F931F9396
:10406000CF93DF9300D000D000D0CDB7DEB761EEA4
:1040700075E08EE795E00E942A1E6DED75E08EE7F3
:1040800095E00E94ED1D6DE276E0CE0101960E9462
:104090007B1D67ED75E0CE0101960E94B81BBC0147
:1040A0008EE795E00E94DF1DCE0101960E94E81C7C
:1040B0006DE276E0CE0101960E947B1D65ED75E014
:1040C000CE0101960E94B81BBC018EE795E00E94CC
:1040D000DF1DCE0101960E94E81C6DE276E0CE0164
:1040E00001960E947B1D63ED75E0CE0101960E9452
:1040F000B81BBC018EE795E00E94DF1DCE01019642
:104100000E94E81C6DE276E0CE0101960E947B1DC4
:1041100061ED75E0CE0101960E94B81BBC018EE7EF
:1041200095E00E94DF1DCE0101960E94E81C6DE221
:1041300076E0CE0101960E947B1D6FEC75E0CE010A
:1041400001960E94B81B0E941129CE0101960E947F
:10415000E81C09EB11E0E12CF12C6BEE73E0F801A7
:10416000858996890E94F415F80185899689439678
:104170000E945D16D82EFFEFEF1AFF0A4AE0B70142
:10418000CE0101960E94191D6DE276E0CE010196E6
:104190000E940D1C6BEE73E00E94F41B6DE276E052
:1041A0000E940D1C6D2D0E944B1CBC018EE795E0FA
:1041B0000E94DF1DCE0101960E94E81CF801C5880F
:1041C000D688C60146960E945D16B82EC601459651
:1041D0000E945D16A82EC60144960E945D16D82E38
:1041E0006DE276E0CE0101960E947B1D6D2DCE0121
:1041F00001960E944B1C6DE276E00E940D1C6A2D18
:104200000E944B1C6DE276E00E940D1C6B2D0E94FB
:104210004B1C0E941129CE0101960E94E81C095EE8
:104220001F4FFAE0EF16F10409F097CF0E94C82360
:1042300026960FB6F894DEBF0FBECDBFDF91CF91AB
:104240001F910F91FF90EF90DF90CF90BF90AF90B4
:104250000895CF93DF9383E690E00E945D1681304E
:1042600009F450C06AEB75E08EE795E00E942A1EC3
:10427000C4E6D0E06FEFCE010E944D166AE070E018
:1042800080E090E00E94BA132196C03981E0D807FF
:1042900089F761EA75E08EE795E00E942A1E0E9488
:1042A000C823CDECD1E0BE016451710989819A81A6
:1042B0000E941A16FE01339789819A816081439684
:1042C0000E944D16FE01329789819A816081449641
:1042D0000E944D16FE01319789819A816081459631
:1042E0000E944D1689819A81688146960E944D16DA
:1042F000679682E0C33BD807B1F661E083E690E0C1
:104300000E944D1683E690E00E945D16813021F4F4
:10431000DF91CF910C942820DF91CF910895CF9316
:10432000DF93D82FC92F682F80E190E00E9481355C
:104330006C2F81E190E00E948135D093B001C09351
:10434000B1016EE875E08EE795E00E94ED1D809169
:10435000B0019091B1010E94C6280E94C823DF914C
:10436000CF910C94C81FCF93DF9380E090E00E9420
:104370005D16813009F468C063ED76E08EE795E064
:104380000E942A1EC0E0D0E06FEFCE010E944D16C1
:104390006AE070E080E090E00E94BA132196CE318E
:1043A000D10591F763EB76E08EE795E00E942A1E37
:1043B0000E94C82361E08AE090E00E944D1661E00F
:1043C0008BE090E00E944D1660E08CE090E00E944F
:1043D0004D1661E08DE090E00E944D1661E08EE0A8
:1043E00090E00E944D166FE08FE090E00E944D1625
:1043F0008CE390E00E948F2160E082E190E00E94D7
:104400004D1661E083E190E00E944D1660E084E18A
:1044100090E00E944D1660E085E190E00E944D160C
:1044200060E086E190E00E944D1660E087E190E058
:104430000E944D1668E288E190E00E944D1661E00E
:1044400080E090E00E944D1680E090E00E945D16B2
:10445000813009F008C160EA76E08EE795E00E94BD
:104460002A1E8AE090E00E945D168093020166E9B0
:1044700076E08EE795E00E94ED1D80910201082E06
:10448000000C990B0E94D82888E190E00E945D16EC
:1044900090E09093B8018093B7016BE876E08EE7E7
:1044A00095E00E94ED1D8091B7019091B8010E94A6
:1044B000C6288DE090E00E945D168093B40165E807
:1044C00076E08EE795E00E94ED1D8091B401082E04
:1044D000000C990B0E94D8288EE090E00E945D1697
:1044E0008093B6016DE776E08EE795E00E94ED1DC2
:1044F0008091B601082E000C990B0E94D8288FE0FD
:1045000090E00E945D1690E090930101809300017D
:1045100061E776E08EE795E00E94ED1D8091000155
:10452000909101010E94C62880E190E00E945D16F2
:10453000C82F81E190E00E945D16C093B001809386
:10454000B10162E676E08EE795E00E94ED1D809174
:10455000B0019091B1010E94C6288BE090E00E94CA
:104560005D168093B30160E576E08EE795E00E94EA
:10457000ED1D8091B301082E000C990B0E94D828E4
:1045800082E190E00E945D168093D30365E476E0BB
:104590008EE795E00E94ED1D8091D303082E000C5C
:1045A000990B0E94D82883E190E00E945D168093C9
:1045B000070168E376E08EE795E00E94ED1D8091AB
:1045C0000701082E000C990B0E94D82887E190E083
:1045D0000E945D168093D50367E276E08EE795E052
:1045E0000E94ED1D6AE070E08091D5030E94A5282D
:1045F00084E190E00E945D168093760369E176E0A5
:104600008EE795E00E94ED1D80917603082E000C48
:10461000990B0E94D82885E190E00E945D16809356
:104620001A0466E076E08EE795E00E94ED1D6AE0F0
:1046300070E080911A040E94A52886E190E00E9413
:104640005D168093D60363EF75E08EE795E00E94D8
:10465000ED1D6AE070E08091D6030E94A528DF91ED
:10466000CF910C94C823DF91CF91089581E390E01E
:104670000E945D16813081F167E775E08EE795E075
:104680000E942A1E6CE575E08EE795E00E942A1EC6
:104690000E94C8236BE073E08BE496E00E94811CCB
:1046A00086E180939F0241E150E068E373E08BE490
:1046B00096E00E94222968E373E08EE190E00E9478
:1046C0001A1660919F0280E390E00E944D1661E00F
:1046D00081E390E00E944D1681E390E00E945D1618
:1046E000813049F568E373E08EE190E00E94F415B3
:1046F000BC018BE496E00E94811C80E390E00E9464
:104700005D1680939F0263E575E08EE795E00E9459
:10471000ED1D8BE496E00E94112960E475E08EE7C0
:1047200095E00E94ED1D6AE070E080919F020E947A
:10473000A5280C94C8230895EF92FF920F931F931E
:10474000CF93DF931F92CDB7DEB77C01FC010081D0
:104750001181C80169830E9479356981681719F050
:10476000C8010E948135C7010F90DF91CF911F9141
:104770000F91FF90EF900895CF93DF93EC01FB0131
:10478000248135810E94991DCE01DF91CF9108953A
:104790008EE795E00C94261EAF92BF92CF92DF92E7
:1047A000EF92FF920F931F93CF93DF9300D0CDB77B
:1047B000DEB782E690E00E945D16813009F452C0B7
:1047C00066E178E08EE795E00E942A1E04EF11E092
:1047D0006FEFC8010E944D166AE070E080E090E043
:1047E0000E94BA130F5F1F4F053383E0180781F74C
:1047F0006CEF77E08EE795E00E942A1E0E94C823A6
:1048000008E011E08AE1A82E81E0B82EF801C38803
:10481000D4887801C01AD10AC6018E0D9F1DF701F8
:1048200061917F019A838983CE0101960E949C2326
:10483000EA14FB0489F7F80183899489F701608100
:1048400087960E944D160B5E1F4F5701F5E1AF0E84
:10485000B11C81E0003B1807C9F661E082E690E0F8
:104860000E944D160F900F90DF91CF911F910F91E5
:10487000FF90EF90DF90CF90BF90AF9008957F9220
:104880008F929F92AF92BF92CF92DF92EF92FF9260
:104890000F931F93CF93DF93C12CD12C7601C39438
:1048A000D0E0BB24B39462E0A62E99249A9475EECE
:1048B000872EE5EC7E2ECC2DB0923F04C0925005A1
:1048C0001092700310926F0390919D039111FCCF91
:1048D000A0929D03B0929C0390929B0310929A0326
:1048E0001092990310929803809198038601960183
:1048F000220F331F282B2093980380919703813038
:1049000069F410929703809198038093BB00809183
:10491000BC0083FDF8CF7092BC0002C08092BC0046
:1049200080919D038230E1F380919B038F3F69F07A
:1049300080919B03803231F080919B03803321F082
:1049400094E003C092E001C093E0109270031092D3
:104950006F0310923F04911138C06BEE77E08EE741
:1049600095E00E94ED1D80E1C816D104E104F10438
:1049700030F469EE77E08EE795E00E94ED1D40E1AE
:10498000C701B6010E94622880EE8C0F883018F0B3
:10499000C853C830B0F46DE276E08EE795E00E942F
:1049A000DF1D68ED77E08EE795E00E942A1E1093E8
:1049B000C1030093C0038091D2038F5F8093D20321
:1049C00002C00E94C823DF5F19C09430B9F46CECB8
:1049D00077E08EE795E00E94ED1DE0E1CE16D10470
:1049E000E104F10430F46AEC77E08EE795E00E9490
:1049F000ED1D60E170E08C2F0E94A528FFEFCF1A1B
:104A0000DF0AEF0AFF0A8FE7C816D104E104F104B8
:104A100009F051CFD11106C064EB77E08EE795E045
:104A20000E942A1E8091D2038823E9F00E94221856
:104A300008E011E0CAECD3E0FC2EE8E0FE0EF8013D
:104A40008389948987960E945D1689930B5E1F4F18
:104A5000FC12F5CF0E94C823E2ECF3E088E08E0F51
:104A600011928E13FDCFDF91CF911F910F91FF9087
:104A7000EF90DF90CF90BF90AF909F908F907F90FE
:104A800008958F929F92AF92BF92CF92DF92EF9252
:104A9000FF920F931F93CF93DF93CDB7DEB76E973F
:104AA0000FB6F894DEBF0FBECDBF7C01162F62EEAD
:104AB00072E0CE0101960E94841DBE016F5F7F4FA0
:104AC000C7010E94321B4AE0BC01CE0107960E943A
:104AD000191DCE0107960E942C1AAB014F5F5F4F44
:104AE000B701CE0143960E94BC23CE0107960E94D7
:104AF000E81CCE0101960E94E81C61E173E0CE0142
:104B000001960E94841DBE016F5F7F4FCE014396C8
:104B10000E943C1BD92ECE0101960E94E81CD09425
:104B2000DD1CDD24DD1C63E173E0CE0101960E94F3
:104B3000841DBE016F5F7F4FCE0143960E943C1BD8
:104B4000C92ECE0101960E94E81CC094CC1CCC2436
:104B5000CC1C65E173E0CE0101960E94841DBE016C
:104B60006F5F7F4FCE0143960E943C1BE92ECE0122
:104B700001960E94E81CE094EE1CEE24EE1C67E116
:104B800073E0CE0101960E94841DBE016F5F7F4FCE
:104B9000CE0143960E943C1BF92ECE0101960E9445
:104BA000E81CF094FF1CFF24FF1C6AE073E0CE01B8
:104BB00007960E94841D61E173E0CE0101960E9478
:104BC000841DAE01495F5F4FBE016F5F7F4FCE0115
:104BD00043960E94371ACE0101960E94E81CCE012E
:104BE00007960E94E81C6AE073E0CE0107960E94D7
:104BF000841D63E173E0CE0101960E94841DAE0125
:104C0000495F5F4FBE016F5F7F4FCE0143960E94A9
:104C1000371ACE0101960E94E81CCE0107960E9429
:104C2000E81C6AE073E0CE0107960E94841D65E1EE
:104C300073E0CE0101960E94841DAE01495F5F4F73
:104C4000BE016F5F7F4FCE0143960E94371ACE019F
:104C500001960E94E81CCE0107960E94E81C6AE0BB
:104C600073E0CE0107960E94841D67E173E0CE01D8
:104C700001960E94841DAE01495F5F4FBE016F5FC8
:104C80007F4FCE0143960E94371ACE0101960E94B3
:104C9000E81CCE0107960E94E81C6AE073E0CE0192
:104CA00007960E94841D64EE72E0CE0101960E9478
:104CB000841DAE01495F5F4FBE016F5F7F4FCE0124
:104CC00043960E94371ACE0101960E94E81CCE013D
:104CD00007960E94E81C69EE72E0CE0101960E94E0
:104CE000841DBE016F5F7F4FCE0143960E943C1B27
:104CF0004AE0BC01CE0107960E94191DCE0107961D
:104D00000E942C1A9B0140E050E0BE016D5E7F4F77
:104D1000CE010D960E94991DCE0107960E94E81CB7
:104D2000CE0101960E94E81C69EE72E0CE01019668
:104D30000E94841DBE016F5F7F4FCE0143960E948B
:104D4000321B4AE0BC01CE0149960E94191DCE01DA
:104D500049960E942C1AAB014F5F5F4FBE016D5EFA
:104D60007F4FCE0107960E94BC23CE0149960E9438
:104D7000E81CCE0101960E94E81C113009F0C8C061
:104D8000CE010D960E942C1A062FBE01695F7F4F3F
:104D9000CE0149960E947B1D6BEE73E08091CE019F
:104DA0009091CF010E94F415BC01CE0101960E94A2
:104DB000841D8D819E81892B39F0E981FA81808162
:104DC000882319F010E001C011E0CE0101960E9485
:104DD000E81C112361F065E777E08EE795E00E941B
:104DE0002A1E0E94C8230E94E01F80E001C081E0CB
:104DF0009EEF900F9A3058F067E577E08EE795E0E8
:104E00000E942A1E0E94C8230E94E01F7CC081309D
:104E100009F079C0015089EB882E81E0982EAA24F0
:104E2000A394B12C6BEE73E0F401858996890E94FE
:104E3000F415BC01CE0101960E94841DBE01675E7F
:104E40007F4FCE0101960E94561B182FCE0101966E
:104E50000E94E81C112391F064E377E08EE795E06F
:104E60000E94ED1DC5010E94D8280E94C8238FEF23
:104E70008A0D801719F0F12CE12CD12CF7E18F0E5F
:104E8000911C8FEFA81AB80AEBE0AE16B10451F6E8
:104E900041E150E06AED73E0CE0149960E9422297B
:104EA000F7E10F9F8001112407541E4F6AED73E054
:104EB000F801858996890E941A16F80185899689D4
:104EC0006D2D43960E944D16F801858996896C2DAB
:104ED00044960E944D16F801858996896E2D459657
:104EE0000E944D16F801858996896F2D46960E947D
:104EF0004D1667E277E08EE795E00E942A1E0E9439
:104F0000C8230E94C81FCE0149960E94E81C2CC0ED
:104F1000123051F58091CE019091CF016D2D4396C5
:104F20000E944D168091CE019091CF016C2D449638
:104F30000E944D168091CE019091CF016E2D459625
:104F40000E944D168091CE019091CF016F2D469613
:104F50000E944D166CE977E08EE795E00E942A1ECC
:104F60000E94C8230E94C81FCE0107960E94E81C19
:104F7000CE010D960E94E81CCE0143960E94E81CCB
:104F80006E960FB6F894DEBF0FBECDBFDF91CF9106
:104F90001F910F91FF90EF90DF90CF90BF90AF9057
:104FA0009F908F9008951F93CF93DF93CDB7DEB777
:104FB00062970FB6F894DEBF0FBECDBF182F609377
:104FC000070183E190E00E944D16113079F5809140
:104FD000FE03813059F569EE72E0CE0107960E941A
:104FE000841D69E376E0CE0107960E940D1CBC018A
:104FF000CE010D960E947B1D64E177E0CE01019603
:105000000E94721D40E0BE01635F7F4FCE0101969A
:105010000E945F16CE0101960E94E81CCE010D96FB
:105020000E94E81CCE0107960E94E81C62960FB60B
:10503000F894DEBF0FBECDBFDF91CF911F910895D1
:10504000EEE7F5E0A089B18982E08C93A485B5856F
:105050001C92A685B7858FEC8C93108EA489B58998
:1050600086E08C93A289B3898C9180618C93A2890C
:10507000B3898C9188608C93A289B3898C91806864
:105080008C930288F389E02D80818F7D8083089541
:105090000F931F93CF93DF93C8E5D5E08C0108559C
:1050A0001540C8018C0F9D1F0E947935899385E0BA
:1050B000CE37D807B1F788E595E0DF91CF911F9102
:1050C0000F9108958F929F92AF92BF920F931F936B
:1050D000CF93DF93CDB7DEB7A1970FB6F894DEBFBD
:1050E0000FBECDBF19A2423008F44AE08E010F5D19
:1050F0001F4F842E912CA12CB12CA50194010E944C
:10510000F835E62FB901CA0101501109EA3014F44B
:10511000E05D01C0E95CD801EC93232B242B252B07
:1051200061F7B8018EE795E00E94111EA1960FB6B7
:10513000F894DEBF0FBECDBFDF91CF911F910F91CD
:10514000BF90AF909F908F900895CF93DF93AB0166
:10515000672B61F4E0917E05F0917F050190F0816D
:10516000E02D682F8EE795E0099506C0682F70E066
:1051700080E090E00E946228EC018EE795E00E94BA
:10518000261E8C0F9D1FDF91CF910895CF93DF9343
:10519000BC0180E090E04AE00E946228EC018EE7CA
:1051A00095E00E94261E8C0F9D1FDF91CF910895E0
:1051B000CF92DF92EF92FF92CF93DF936C01990F22
:1051C000EE08FF08F7FE1AC0E0917E05F0917F051A
:1051D0000190F081E02D6DE28EE795E00995EC01FC
:1051E00066277727CB016C197D098E099F094AE054
:1051F0000E9462287C01EC0EFD1E06C04AE0C70139
:10520000B6010E9462287C018EE795E00E94261E6E
:105210008E0D9F1DDF91CF91FF90EF90DF90CF908B
:105220000895CF93DF93BC018EE795E00E94DF1DC8
:10523000EC018EE795E00E94261E8C0F9D1FDF91EA
:10524000CF9108950F931F93CF93DF93FC01248197
:1052500035812115310519F4FB01108211C0EA01D5
:1052600021972C173D0708F4E9018B01FC016081AF
:105270007181AE01C8010E948638C00FD11F18820B
:10528000DF91CF911F910F9108950F931F93CF93AB
:105290008C018091570581110AC00E94F41360931C
:1052A0005305709354058093550590935605C1E0BE
:1052B000C0935705B80181E596E00E94981C1092B2
:1052C0005205C0935105CF911F910F910895CF932F
:1052D000DF9300D0CDB7DEB789831A8241E050E07A
:1052E000BE016F5F7F4F85E496E00E94C61B0F9062
:1052F0000F90DF91CF910895CF93DF93CDB7DEB7B5
:10530000AB970FB6F894DEBF0FBECDBF789484B5CF
:10531000826084BD84B5816084BD85B5826085BDB1
:1053200085B5816085BD80916E00816080936E003F
:105330001092810080918100826080938100809131
:1053400081008160809381008091800081608093E2
:1053500080008091B10084608093B1008091B000A2
:1053600081608093B00080917A00846080937A009D
:1053700080917A00826080937A0080917A008160C7
:1053800080937A0080917A00806880937A001092EE
:10539000C1000E9420281092BE031092BF031092F9
:1053A000700310926F0310929D0381E080939C0321
:1053B0001092970361E082E10E94BD1E61E083E1EB
:1053C0000E94BD1E8091B9008E7F8093B9008091AC
:1053D000B9008D7F8093B90088E48093B80085E49C
:1053E0008093BC006DE174E08EE795E00E942A1E78
:1053F0000E94C82364EC79E080E090E00E94BA1338
:1054000080E480937C0080917A00806480937A00AD
:1054100080917A0086FDFCCF6091780080917900C0
:1054200070E0782B072E000C880B990B6115710525
:105430008105910511F00E94D9340E94B3210E9488
:1054400036230E9429210E94CC230E943F2461E040
:105450008AE00E947E1361E08CE00E947E1361E08E
:105460008BE00E947E1361E08AE00E94BD1E61E035
:105470008CE00E94BD1E61E08BE00E94BD1E60E0DA
:105480008AE00E94BD1E64EF71E080E090E00E941F
:10549000BA1361E08AE00E94BD1E60E08CE00E94C9
:1054A000BD1E64EF71E080E090E00E94BA1361E0FD
:1054B0008CE00E94BD1E60E08BE00E94BD1E64EF88
:1054C00071E080E090E00E94BA1361E08BE00E94FE
:1054D000BD1E60E086E00E947E1360E08EE00E94C8
:1054E0007E1360E087E00E947E1360E08FE00E9400
:1054F0007E1360E080E10E947E1361E084E00E9400
:105500007E1360E084E00E94BD1E61E085E00E94A1
:105510007E1361E085E00E94BD1E60ED77E080E0D3
:1055200090E00E94BA130E942028109272061092F6
:1055300071061092700610926F0610926E0610920D
:105540006D068DE991E090937406809373069091B7
:105550006306963108F057C02DEB30E030936E06AD
:1055600020936D062BE931E03093700620936F068F
:105570002CE231E03093720620937106209168008E
:10558000983050F031E09E3008F430E081E001C006
:10559000880F3A95EAF701C084E0822B8093680077
:1055A000983038F09E3040F0963148F020E030E0FE
:1055B00008C02DE630E005C02BE630E002C02CE646
:1055C00030E030936B0620936A06983030F481E027
:1055D00001C0880F9A95EAF70EC0292F30E09E305F
:1055E00018F42850310902C02E50310981E001C061
:1055F000880F2A95EAF780936C0680917306909144
:1056000074060197F1F78091710690917206892BCB
:1056100049F1E0917303F091740326E0E735F20756
:1056200009F1309739F0A389B4899C9185898095D7
:1056300089238C93809175068E7F809375061092D6
:1056400072031092710387E596E090937403809340
:105650007303E0916A06F0916B06908180916C066D
:10566000892B80831AE064E074E087E596E00E946D
:105670002A1E68EC70E080E090E00E94BA1311509E
:1056800091F760E074E087E596E00E942A1E6AE0E8
:1056900070E080E090E00E94BA1387E596E00E94F7
:1056A0001613892B09F460C087E596E00E94161353
:1056B000892B79F087E596E00E942E1380931904D8
:1056C0000E94672964E170E080E090E00E94BA13D4
:1056D000EBCF6BEF73E0CE0101960E94721DBE010D
:1056E0006F5F7F4F85E496E00E943C1B8C01CE01EA
:1056F00001960E94E81C17FD03C081E0809300041E
:1057000064EF73E0CE0101960E94721DBE016F5FCF
:105710007F4F85E496E00E943C1B8C01CE010196F0
:105720000E94E81C17FD03C082E08093000461EF33
:1057300073E0CE0101960E94721DBE016F5F7F4F24
:1057400085E496E00E943C1B8C01CE0101960E94EC
:10575000E81C17FD03C083E0809300046AE073E057
:1057600085E496E00E94811C67EE73E087E596E091
:105770000E942A1E64E670E080E090E00E94BA1366
:105780006DED73E087E596E00E942A1E64E670E006
:1057900080E090E00E94BA136FEC73E087E596E03A
:1057A0000E942A1E64E670E080E090E00E94BA1336
:1057B00063EC73E087E596E00E942A1E64E670E0E1
:1057C00080E090E00E94BA138091B601813031F4FC
:1057D00069E174E083E396E00E94881B8091B60142
:1057E000811106C064E174E083E396E00E94881BA7
:1057F00083E396E00E94112980910201882369F0D9
:105800000E94C8233EE9232E33E0332E48EE442E77
:1058100043E0542E612C712CABC067E074E08EE73E
:1058200095E00E942A1E19E00E94C81F1150E1F75E
:10583000E7CF823009F4A2C080910701813009F0DE
:10584000FAC08091B601813009F4F8C08091D2038A
:1058500081116AC186E00E94941E80930804109111
:10586000B601113009F03AC281112EC261E08CE01C
:105870000E94BD1E0E94F413C0900404D090050441
:10588000E0900604F09007049B01AC012C193D093F
:105890004E095F0969017A0135E6C316D104E104B6
:1058A000F10408F0FDC10E94F413C0900A04D090E6
:1058B0000B04E0900C04F0900D046C197D098E0926
:1058C0009F09A30192010E94F8358091B001909147
:1058D000B101A0E0B0E082179307A407B50708F470
:1058E0000DC2112309F40AC20091B301013009F479
:1058F0000EC28091D303813009F45BC28091D4033E
:10590000813011F40E94CA1680915705813009F444
:105910009EC280911304813009F4E0C28091D903C2
:10592000813011F40E947C178091D803813009F4F2
:105930001FC31091D703113009F477C38091180465
:105940008B3008F09DC38091B601882309F495C37C
:1059500087E596E00E941613892B09F09BC38EE71A
:1059600095E00E94D818892B09F085C60E94781905
:1059700080917603813009F05CCF04C08091B6013C
:1059800081115ACF8FE00E94941E182F809301043A
:1059900080E10E94941E80930501113091F4809162
:1059A000040181110EC01093040168EC70E080E0E6
:1059B00090E00E94BA130E94C81F109375030E94C2
:1059C000B91F80910501811113C0809103018111DC
:1059D0000FC011E01093030168EC70E080E090E0EC
:1059E0000E94BA130E94C81F109375030E94B91F2A
:1059F0008091010481110CC080910401882341F041
:105A00001092040168EC70E080E090E00E94BA130C
:105A100080910501813009F00FCF80910301882327
:105A200009F40ACF1092030168EC70E080E090E086
:105A30000E94BA1301CF823009F008CF87E00E949C
:105A4000941E80930204811134C08091060181115B
:105A500030C081E08093060164E670E080E090E071
:105A60000E94BA1366E474E0CE0101960E94721D92
:105A70008091130481110AC00E94F41360930F04F3
:105A800070931004809311049093120411E010930A
:105A90001304BE016F5F7F4F81E596E00E94981C62
:105AA0001093520582E080935105CE0101960E9429
:105AB000E81C80910204813021F58091060181303B
:105AC00001F5109213041092060164E670E080E084
:105AD00090E00E94BA1380910E04813091F460E34B
