:100000000C9463040C948B040C948B040C94161FB6
:100010000C94161F0C94161F0C948B040C948B04D8
:100020000C948B040C948B040C948B040C948B0414
:100030000C948B040C948B040C948B040C948B0404
:100040000C949E1D0C948B040C94071B0C94E11AC9
:100050000C948B040C948B040C948B040C948B04E4
:100060000C94E81D0C948B044C6F616420646566ED
:1000700061756C742073656E736F72206461746156
:100080002E0044656C6574696E672073656E736FCE
:100090007220646174612E0053696C656E74206D0A
:1000A0006F64652100476F2100496E69742070619B
:1000B00072616D732E2E2E0047534D20416C61727C
:1000C0006D2031372E30342E323200506F7765720A
:1000D00020737570706C7920726573746F726564CB
:1000E0002100506F77657220737570706C79206491
:1000F0006973636F6E6E656374656421004D616939
:100100006E2073656E736F722100504952207365C3
:100110006E736F7221005072696D61727920706820
:100120006F6E653A202B0041542B434855500050C8
:100130006175736554696D652069733A2000446583
:100140006C61794265666F7265477561726420699A
:10015000733A200044656C61794265666F7265414F
:100160006C61726D2069733A200057617463682076
:1001700074686520706F776572206F6666004775DA
:1001800061726420627574746F6E206F6E2F6F667B
:1001900066206D6F646500477561726420627574D6
:1001A000746F6E206F6E206D6F64650047756172AD
:1001B0006420627574746F6E206F66660041542B04
:1001C000435553443D312C2200636C656172736D5D
:1001D00073006C65646F6666006C65646F6E0074B6
:1001E0006573746F666600746573746F6E002000CB
:1001F0006F6E2E006F66662E00496E666F3A205055
:1002000049522000696E666F0067756172646F669F
:10021000660067756172646F6E007061757365006A
:100220006D6F6E6579006564697473656E736F7266
:10023000006775617264627574746F6E6F666600D4
:100240006775617264627574746F6E6F6E32006789
:1002500075617264627574746F6E6F6E3100776170
:10026000746368706F7765726F6666007761746338
:1002700068706F7765726F6E320077617463687053
:100280006F7765726F6E3100504952204F6666007D
:100290007069726F666600504952204F6E00706937
:1002A000726F6E00536D73204F666600736D736FCF
:1002B000666600536D73204F6E00736D736F6E0032
:1002C00052696E67204F66660072696E676F666678
:1002D0000052696E67204F6E0072696E676F6E0024
:1002E0007265736574636F6E6669670072657365C6
:1002F0007470686F6E650066756C6C72657365749A
:1003000000616C61726D70696E74696D6500646521
:100310006C61796265666F7265616C61726D0064B3
:10032000656C61796265666F72656775617264009C
:10033000736C65657074696D650062616C616E6394
:10034000656E756D0064656C65746570686F6E656B
:100350000061646470686F6E650041542B435553AF
:10036000443D3000555353442071756572793A20ED
:10037000002B435553443A00534D532066726F6D22
:100380003A202B002C22002C2C002B434D543A00F9
:1003900052696E672066726F6D3A202B002C0052F6
:1003A000494E47004C656E67746820746F20726513
:1003B0007475726E3A20004E756D6265723A200057
:1003C0004C6F61642064656661756C742062616C59
:1003D000616E636520646174612E0044656C6574B0
:1003E000696E672062616C616E636520646174612F
:1003F0002E00416C61726D496E74657276616C207D
:1004000069733A20004C6F61642064656661756CA5
:10041000742070686F6E6520646174612E0044659D
:100420006C6574696E672070686F6E6520646174B6
:10043000612E00526561642061727261792070687A
:100440006F6E653A0044656C61794265666F7265EE
:10045000416C61726D3A200044656C617942656659
:100460006F726547756172643A2000477561726406
:10047000427574746F6E456E61626C653A20005708
:1004800061746368457874506F7765723A200050E4
:10049000495247756172643A2000416C61726D493E
:1004A0006E74657276616C3A2000506175736554A4
:1004B000696D653A200047756172643A20004C65A9
:1004C000644F6E3A2000546573744F6E3A200041B9
:1004D0006C61726D52696E673A200053656E6453A9
:1004E0006D733A20005265616420656570726F6DAE
:1004F000636F6E6669673A004C6F6164206465667D
:1005000061756C7420656570726F6D636F6E66697E
:100510006720646174612E0044656C6574696E6760
:1005200020656570726F6D636F6E666967206461C8
:1005300074612E004154453000415445310041540E
:100540002B434E4D493D322C320041542B435343F3
:10055000533D2247534D220041542B434D47463DC6
:10056000310041542B434C49503D3100413600533A
:10057000494D383030004D35393000415449004143
:1005800054004775617264204F666600477561725A
:1005900064204F66662E20427574746F6E0066612B
:1005A000696C65642E007061737365642E00546518
:1005B000737420004661696C65642063656C6C3AF5
:1005C00020004200454550524F4D3A20004375727D
:1005D00072656E74204944203D20004E6F206D6F7F
:1005E00064656D2E0053494D3830304C004D35391F
:1005F000306500456D756C6174653A200050726518
:1006000076696F7573204944203D200077617463DB
:1006100068706F7765726F66660077617463687083
:100620006F7765726F6E32007761746368706F7791
:1006300065726F6E31006775617264627574746F94
:100640006E6F6666006775617264627574746F6E52
:100650006F6E32006775617264627574746F6E6F6D
:100660006E31006C69737473656E736F72006C69C0
:100670007374636F6E666967006564697473656E31
:10068000736F72006932637363616E0064656C65D9
:10069000746570686F6E650061646470686F6E6524
:1006A000003D006D6F64656D6964006D656D746516
:1006B00073740066756C6C72657365740072657333
:1006C000657470686F6E65007265736574636F6ED4
:1006D000666967006C69737470686F6E6500636C3F
:1006E000656172736D730057617463682074686527
:1006F00020706F776572206F6E0050686F6E652096
:1007000061646465642E004572726F722C20746897
:1007100069732070686F6E6520616C7265616479C1
:100720002065786973747320696E2074686520632E
:10073000656C6C3A20004572726F722C2077726F74
:100740006E67206E756D626572206F662063656CE2
:100750006C732E004572726F722C2066697273740E
:100760002072656769737465722061207072696DAB
:100770006172792070686F6E652E004572726F72BB
:100780002064656C6574696E672070686F6E653A89
:10079000202B0044656C6574652070686F6E653A47
:1007A000202B00534D532072656D6F7665640034C5
:1007B00000302C340041542B434D47443D00493216
:1007C000432064657669636573206E6F7420666F7D
:1007D000756E640030004572726F72206174203053
:1007E00078006465746563746564205043463835E9
:1007F00037340A0030004932432064657669636506
:100800002061742030780053656E736F72206461CC
:1008100074613A0053656E736F7220646174612075
:1008200073617665642E004572726F722073656E17
:10083000736F72206E756D62657200220041542BD9
:10084000434D47533D220000000000240027002AAA
:10085000000000000800020100000304070000007F
:1008600000000000004775617264204F6E004775FC
:10087000617264204F6E2E20427574746F6E003B5F
:10088000004154442B0000000000250028002B00EC
:1008900000000000230026002900040404040404CE
:1008A000040402020202020203030303030301021F
:1008B00004081020408001020408102001020408EE
:1008C0001020B334773411241FBECFEFD8E0DEBF41
:1008D000CDBF13E0A0E0B1E0EAEAF3E702C0059083
:1008E0000D92A634B107D9F726E0A6E4B3E001C023
:1008F0001D92AB37B207E1F714E0C2E6D4E004C0C2
:100900002197FE010E946A37C136D107C9F70E94BC
:1009100030230C94C8390C940000EF92FF920F938F
:100920001F93CF93DF93CDB7DEB768970FB6F894D8
:10093000DEBF0FBECDBF1092AC0160E08EE090E054
:100940000E949F2069ED72E0CE0101960E94171A65
:100950006AE376E0CE0101960E940519BC0184E3AA
:1009600096E00E945719CE0101960E94A719809126
:100970001804813031F46CE875E084E396E00E945D
:10098000181964E376E08FE795E00E94BD1A68EEDF
:1009900073E080E090E00E94CE1B0DEA11E0F801C8
:1009A000E388F488C70143960E941A0E813009F04B
:1009B00061C067EB73E0C7010E94921FBC01CE01CA
:1009C00001960E94171ABE016F5F7F4F8AE396E07F
:1009D0000E942918F82ECE0101960E94A719F11045
:1009E0001092DF0368EE73E080E090E00E94CE1B7F
:1009F00067EB73E0F801838994890E94921FBC0120
:100A0000CE010D960E94171A6AEE72E0CE0107968B
:100A10000E94171ABE01635F7F4FCE0107960E94A6
:100A20000519BC01CE0143960E940E1A64E376E0DC
:100A3000CE0101960E940E1A40E0BE016D5E7F4F0E
:100A4000CE0101960E941C0ECE0101960E94A719AC
:100A5000CE0143960E94A719CE0107960E94A719BE
:100A6000CE010D960E94A71968EE73E080E090E039
:100A70000E94CE1B0B5E1F4FF2E00F371F0709F0DD
:100A80008ECF8091DF038130B9F568EE73E080E0AE
:100A900090E00E94CE1B6AEE72E0CE0107960E94A3
:100AA000171A6AE376E0CE0107960E940519BC0189
:100AB000CE010D960E940E1A62E875E0CE010196F5
:100AC0000E94051A40E0BE01635F7F4FCE01019690
:100AD0000E941C0ECE0101960E94A719CE010D9610
:100AE0000E94A719CE0107960E94A71968EE73E02D
:100AF00080E090E00E94CE1B8091D903823021F4E7
:100B000010924903109248031092180468960FB689
:100B1000F894DEBF0FBECDBFDF91CF911F910F9133
:100B2000FF90EF9008950E94921D609319047093B6
:100B30001A0480931B0490931C0481E08093DA03D1
:100B40000C94AF208091AC01813031F41092DA0323
:100B5000109258050C948D04811102C00C949305D9
:100B6000089561E08BE00E94621B64E670E080E023
:100B700090E00E94CE1B60E08BE00E94621B64E666
:100B800070E080E090E00E94CE1B61E08BE00C946E
:100B9000621B0E94B1050C94B105DF92EF92FF92A7
:100BA0000F931F93CF93DF9300D000D000D0CDB729
:100BB000DEB77C010DEA11E067EB73E0F801838991
:100BC00094890E94921FBC01CE0101960E94171ABF
:100BD000B701CE0101960E942918D82ECE010196A8
:100BE0000E94A719D11008C00B5E1F4FF2E00F370B
:100BF0001F0711F780E00DC0B7018AE396E00E945D
:100C00005719F8018389948942960E941A0E8130FF
:100C100059F726960FB6F894DEBF0FBECDBFDF9111
:100C2000CF911F910F91FF90EF90DF9008950F9358
:100C30001F93CF93DF9300D000D000D0CDB7DEB7A5
:100C400060ED77E080E090E00E94CE1B0E94E22100
:100C5000109273061092720610927106109270062E
:100C600010926F0610926E068DE991E090937506D2
:100C70008093740690916406963108F057C02DEB6E
:100C800030E030936F0620936E062BE931E030930D
:100C90007106209370062CE231E0309373062093A6
:100CA000720620916800983050F031E09E3008F4D0
:100CB00030E081E001C0880F3A95EAF701C084E096
:100CC000822B80936800983038F09E3040F0963147
:100CD00048F020E030E008C02DE630E005C02BE60B
:100CE00030E002C02CE630E030936C0620936B06B7
:100CF000983030F481E001C0880F9A95EAF70EC071
:100D0000292F30E09E3018F42850310902C02E50AF
:100D1000310981E001C0880F2A95EAF780936D06BA
:100D200080917406909175060197F1F78091720693
:100D300090917306892B49F1E0911F04F0912004F2
:100D400086E0E835F80709F1309739F0A389B489CE
:100D50009C918589809589238C93809176068E7FDE
:100D60008093760610921D0410921E0488E596E08A
:100D70009093200480931F04E0916B06F0916C0621
:100D8000908180916D06892B80831AE06FE775E072
:100D900088E596E00E94CF1A68EC70E080E090E071
:100DA0000E94CE1B115091F76BE775E088E596E045
:100DB0000E94CF1A6AE070E080E090E00E94CE1BB3
:100DC00088E596E00E94321D892B09F460C088E511
:100DD00096E00E94321D892B79F088E596E00E940A
:100DE0004A1D8093E1030E941B2364E170E080E0D0
:100DF00090E00E94CE1BEBCF66E775E0CE01019636
:100E00000E94051ABE016F5F7F4F86E496E00E9444
:100E10000F188C01CE0101960E94A71917FD03C07F
:100E200081E08093E0036FE675E0CE0101960E94B9
:100E3000051ABE016F5F7F4F86E496E00E940F188F
:100E40008C01CE0101960E94A71917FD03C082E014
:100E50008093E0036CE675E0CE0101960E94051ACE
:100E6000BE016F5F7F4F86E496E00E940F188C01F1
:100E7000CE0101960E94A71917FD03C083E080935D
:100E8000E00364E173E086E496E00E94401962E6C4
:100E900075E088E596E00E94CF1A64E670E080E095
:100EA00090E00E94CE1B68E575E088E596E00E9420
:100EB000CF1A64E670E080E090E00E94CE1B6AE406
:100EC00075E088E596E00E94CF1A64E670E080E065
:100ED00090E00E94CE1B6EE375E088E596E00E94EC
:100EE000CF1A64E670E080E090E00E94CE1B809113
:100EF000DE03813019F469E375E002C064E375E054
:100F000088E596E00E94CF1A26960FB6F894DEBFC9
:100F10000FBECDBFDF91CF911F910F910895BF926A
:100F2000CF92DF92EF92FF920F931F93CF93DF93B5
:100F300000D000D000D0CDB7DEB763E374E08FE718
:100F400095E00E94CF1A8DEAE82E81E0F82E00E0AD
:100F500010E067EB73E0F701838994890E94921F88
:100F6000F701C388D488C60143960E941A0EB82E92
:100F7000C60142960E941A0ED82E0F5F1F4F4AE0FC
:100F8000B801CE0101960E94AC196EE276E0CE0166
:100F900001960E94051967EB73E00E94EC186EE25F
:100FA00076E00E9405196D2D0E94BB186EE276E076
:100FB0000E9405196B2D0E94BB18BC018FE795E0BC
:100FC0000E94BD1ACE0101960E94A719F5E1EF0E0D
:100FD000F11C0A30110509F0BCCF0E94890E26963B
:100FE0000FB6F894DEBF0FBECDBFDF91CF911F913A
:100FF0000F91FF90EF90DF90CF90BF900895EF9208
:10100000FF920F931F93CF93DF9383E690E00E94AC
:101010001A0E813009F444C06EE174E08FE795E068
:101020000E94CF1AC4E6D0E06FEFCE010E949F204D
:101030006AE070E080E090E00E94CE1B2196CC3206
:1010400081E0D80789F765E074E08FE795E00E94BA
:10105000CF1A0E94890ECDEAD1E000E010E0BE0177
:101060008B899C890E946C20F801E355FE4F7F011B
:101070008B899C89618942960E949F208B899C89DB
:10108000F701628943960E949F200B5E1F4F659671
:10109000023D110521F761E083E690E00E949F2068
:1010A00083E690E00E941A0E813041F4DF91CF91E7
:1010B0001F910F91FF90EF900C948F07DF91CF91CC
:1010C0001F910F91FF90EF900895CF93DF93D82F4A
:1010D000C92F682F80E190E00E949A366C2F81E141
:1010E00090E00E949A36D0938302C093840262EF0C
:1010F00073E08FE795E00E94801A609183027091FF
:10110000840280E090E04AE00E9424228FE795E08C
:101110000E94B91A0E94890EDF91CF910C94B105FB
:101120000F931F93CF93DF9300D000D000D0CDB7A3
:10113000DEB780E090E00E941A0E813009F45FC0B3
:1011400068E175E08FE795E00E94CF1A00E010E0BB
:101150006FEFC8010E949F206AE070E080E090E09D
:101160000E94CE1B0F5F1F4F0E31110589F768EFEC
:1011700074E08FE795E00E94CF1A0E94890E61E02B
:101180008AE090E00E949F2061E08BE090E00E9466
:101190009F2060E08CE090E00E949F2061E08DE065
:1011A00090E00E949F2061E08EE090E00E949F20EE
:1011B0006FE08FE090E00E949F208CE390E00E941F
:1011C000650860E082E190E00E949F2061E083E199
:1011D00090E00E949F2060E084E190E00E949F20C8
:1011E00060E085E190E00E949F2060E086E190E071
:1011F0000E949F2061E080E090E00E949F2080E0BC
:1012000090E00E941A0E813009F028C165EE74E06A
:101210008FE795E00E94CF1A8AE090E00E941A0EB4
:10122000809381026BED74E08FE795E00E94801A55
:1012300080918102082E000C990B0E9488228BE07D
:1012400090E00E941A0E809382026FEC74E08FE7A8
:1012500095E00E94801A80918202082E000C990B62
:101260000E9488228CE090E00E941A0E8093DE0398
:1012700066EC74E08FE795E00E94801A8091DE03AF
:10128000082E000C990B0E9488228DE090E00E94AD
:101290001A0E809380026EEB74E08FE795E00E9457
:1012A000801A80918002082E000C990B0E948822DF
:1012B0008EE090E00E941A0E8093AC0166EB74E021
:1012C0008FE795E00E94801A8091AC01082E000CF7
:1012D000990B0E9488228FE090E00E941A0E809362
:1012E00085026AEA74E08FE795E00E94801A6AE05E
:1012F00070E0809185020E94672280E190E00E9468
:101300001A0E182F81E190E00E941A0E10938302AA
:10131000809384026AE974E08FE795E00E94801A66
:10132000609183027091840280E090E04AE00E9424
:1013300024228FE795E00E94B91A82E190E00E9492
:101340001A0E8093DB036FE874E08FE795E00E944C
:10135000801A8091DB03082E000C990B0E948822D2
:1013600083E190E00E941A0E80937F026FE774E0A1
:101370008FE795E00E94801A80917F02082E000C72
:10138000990B0E94882284E190E00E941A0E8093BB
:10139000D9036BE674E08FE795E00E94801A809194
:1013A000D903082E000C990B0E94882285E190E059
:1013B0000E941A0E8093DD0368E574E08FE795E0E4
:1013C0000E94801A6AE070E08091DD030E9467222B
:1013D00086E190E00E941A0E8093DC0365E474E0DD
:1013E0008FE795E00E94801A6AE070E08091DC034C
:1013F0000E9467228091AC018130A9F464E376E019
:10140000CE0101960E940E1A6CEE72E0CE0101969A
:101410000E94EC18BC0184E396E00E945719CE01AB
:1014200001960E94A7198091AC01811115C064E357
:1014300076E0CE0101960E940E1A6FEE72E0CE01A8
:1014400001960E94EC18BC0184E396E00E945719B3
:10145000CE0101960E94A7190E94890E26960FB60A
:10146000F894DEBF0FBECDBFDF91CF911F910F91DA
:10147000089581E390E00E941A0E813081F16BEDB6
:1014800073E08FE795E00E94CF1A60EC73E08FE77E
:1014900095E00E94CF1A0E94890E63EF72E08CE4FF
:1014A00096E00E94401986E18093860241E150E077
:1014B00068EC73E08CE496E00E94C12268EC73E073
:1014C0008EE190E00E946C206091860280E390E0C3
:1014D0000E949F2061E081E390E00E949F2081E3D1
:1014E00090E00E941A0E813059F568EC73E08EE1AD
:1014F00090E00E94921FBC018CE496E00E9440198B
:1015000080E390E00E941A0E8093860267EB73E0FE
:101510008FE795E00E94801A6CE476E08FE795E013
:101520000E94BD1A64EA73E08FE795E00E94801A7A
:101530006AE070E0809186020E9467220C94890E16
:1015400008950E94B10581E0809318041092DF0392
:101550000C94A205EF92FF920F931F93CF93DF930A
:101560001F92CDB7DEB77C01FC0100811181C8015B
:1015700069830E9492366981681719F0C8010E9438
:101580009A36C7010F90DF91CF911F910F91FF9075
:10159000EF900895CF93DF93EC01FB012481358117
:1015A0000E942C1ACE01DF91CF910895CF92DF9245
:1015B000EF92FF920F931F93CF93DF93CDB7DEB7D8
:1015C0006D970FB6F894DEBF0FBECDBF0E94062305
:1015D0006EED76E0CE0101960E94051ABE016F5FA6
:1015E0007F4F86E496E00E940F188C01CE01019691
:1015F0000E94A71917FF0E94601164ED76E0CE01EA
:1016000001960E94051ABE016F5F7F4F86E496E047
:101610000E940F188C01CE0101960E94A71917FF96
:101620000E948F0768EC76E0CE0101960E94051AB1
:10163000BE016F5F7F4F86E496E00E940F188C0119
:10164000CE0101960E94A71917FD07C06FEF80E039
:1016500090E00E949F200E9490086DEB76E0CE0102
:1016600001960E94051ABE016F5F7F4F86E496E0E7
:101670000E940F188C01CE0101960E94A71917FD38
:1016800007C06FEF83E690E00E949F200E94FF0753
:1016900063EB76E0CE0101960E94051ABE016F5FF2
:1016A0007F4F86E496E00E940F188C01CE010196D0
:1016B0000E94A71917FD15C06FEF80E090E00E940F
:1016C0009F200E9490086FEF83E690E00E949F2089
:1016D0000E94FF076FEF81E390E00E949F200E942D
:1016E000390A6BEA76E0CE0101960E94051ABE0126
:1016F0006F5F7F4F86E496E00E940F188C01CE0149
:1017000001960E94A71917FD93C00E94ED352DEF99
:1017100030E040E050E00E94A83682E0F82EF60E5D
:1017200064EC75E08FE795E00E94801A4AE060E083
:1017300074E080E090E00E94242262EC75E08FE784
:1017400095E00E94CF1A00E010E06F2DC8010E94C2
:101750009A3665E070E080E090E00E94CE1B0F5F5B
:101760001F4F011584E0180781F7C12CD12C00E030
:1017700010E0C8010E941A0E8F15F1F164EB75E0BC
:101780008FE795E00E94801AC8010E941A0EE82E89
:101790001B8A1A8A1D8A1C8A1F8A1E8A4AE0BE0179
:1017A0006F5F7F4FC8010E946836BE016F5F7F4F39
:1017B000CE0142960E944019BE016E5E7F4FCE015F
:1017C00001960E940E1A6EE276E0CE0101960E940A
:1017D00005196E2D0E94BB18BC018FE795E00E9491
:1017E000BD1ACE0101960E94A719CE0142960E9411
:1017F000A7198FEFC81AD80A65E070E080E090E082
:101800000E94CE1B0F5F1F4F011584E0180709F0DF
:10181000B0CF6EEA75E08FE795E00E94801ACD2880
:1018200009F0E0C166EA75E08FE795E00E94CF1A03
:1018300063EA76E0CE0101960E94051ABE016F5F51
:101840007F4F86E496E00E940F188C01CE0101962E
:101850000E94A71917FD77C061EA76E0CE01429693
:101860000E94051ABE016E5E7F4F86E496E00E94DC
:1018700005184AE0BC01CE0148960E94AC19CE0181
:1018800048960E94FF16AB014F5F5F4F66E476E01B
:10189000CE0101960E94CA0ACE0148960E94A7195D
:1018A000CE0142960E94A719CE0101960E94FF1612
:1018B000DC01CB010197A109B1090A97A105B10586
:1018C00008F093C1CE0101960E94FF16162F6DEF0E
:1018D00075E08FE795E00E94801A8091E003082E62
:1018E000000C990B0E94882263EF75E08FE795E06A
:1018F0000E94801A113029F41093E0036DEE75E018
:101900000BC0123029F41093E00365EE75E004C0BB
:101910001092E0036BED75E08FE795E00E94CF1A1F
:101920006DEC75E08FE795E00E94801A8091E003EE
:10193000082E000C990B0E9488220E94890ECE016D
:1019400001960E94A71968E976E0CE0101960E94EF
:10195000051ABE016F5F7F4F86E496E00E940F1864
:101960008C01CE0101960E94A71917FD0EC066E4F6
:1019700076E0CE0101960E940E1ACE0101960E94D9
:10198000D112CE0101960E94A7196CE876E0CE0133
:1019900001960E94051ABE016F5F7F4F86E496E0B4
:1019A0000E940F188C01CE0101960E94A71917FD05
:1019B0000EC066E476E0CE0101960E940E1ACE01BA
:1019C00001960E948311CE0101960E94A71964E836
:1019D00076E0CE0101960E94051ABE016F5F7F4F2F
:1019E00086E496E00E940F188C01CE0101960E94B9
:1019F000A71917FF0E94621069E776E0CE010196F1
:101A00000E94051ABE016F5F7F4F86E496E00E9438
:101A10000F188C01CE0101960E94A71917FD0EC068
:101A200066E476E0CE0101960E940E1ACE01019680
:101A30000E94E90ECE0101960E94A7196EE676E09B
:101A4000CE0101960E94051ABE016F5F7F4F86E4AA
:101A500096E00E940F188C01CE0101960E94A719F2
:101A600017FD04C00E9490080E94390A63E676E0E0
:101A7000CE0101960E94051ABE016F5F7F4F86E47A
:101A800096E00E940F188C01CE0101960E94A719C2
:101A900017FF0E948D0E64E576E0CE0101960E944C
:101AA000051ABE016F5F7F4F86E496E00E940F1813
:101AB0008C01CE0101960E94A71917FD08C081E094
:101AC0008093D90361E084E190E00E949F2065E467
:101AD00076E0CE0101960E94051ABE016F5F7F4F2E
:101AE00086E496E00E940F188C01CE0101960E94B8
:101AF000A71917FD08C082E08093D90362E084E152
:101B000090E00E949F2066E376E0CE0101960E945D
:101B1000051ABE016F5F7F4F86E496E00E940F18A2
:101B20008C01CE0101960E94A71917FD07C01092E3
:101B3000D90360E084E190E00E949F2068E276E0B3
:101B4000CE0101960E94051ABE016F5F7F4F86E4A9
:101B500096E00E940F188C01CE0101960E94A719F1
:101B600017FD08C081E080937F0261E083E190E08F
:101B70000E949F206AE176E0CE0101960E94051A3C
:101B8000BE016F5F7F4F86E496E00E940F188C01C4
:101B9000CE0101960E94A71917FD08C082E080932C
:101BA0007F0262E083E190E00E949F206CE076E09B
:101BB000CE0101960E94051ABE016F5F7F4F86E439
:101BC00096E00E940F188C01CE0101960E94A71981
:101BD00017FD21C010927F0260E083E190E00E9437
:101BE0009F2019C06EE975E01FCE6091E003062EBC
:101BF000000C770B4AE0CE0142960E94AC19BE0160
:101C00006E5E7F4FCE0101960E946E19CE01429604
:101C10000E94A71957CE6D960FB6F894DEBF0FBE7F
:101C2000CDBFDF91CF911F910F91FF90EF90DF908B
:101C3000CF9008950C9492360F931F93CF93DF9318
:101C4000EC018B0180918102813019F0413009F063
:101C500040C06DE378E088E596E00E94801AB80104
:101C600088E596E00E94721A6BE378E088E596E0DA
:101C70000E94CF1A64EF71E080E090E00E94CE1BDA
:101C8000BE0188E596E00E94721A64EF71E080E080
:101C900090E00E94CE1BE0915806F0915906019009
:101CA000F081E02D6AE188E596E0099564EF71E046
:101CB00080E090E00E94CE1B6DEF72E08FE795E030
:101CC0000E94A41A68E873E180E090E00E94CE1BB5
:101CD0000CC068EE73E080E090E00E94CE1B69EFDC
:101CE00072E08FE795E00E94A41AB8018FE795E0B3
:101CF0000E94721A6EE276E08FE795E00E94721AF7
:101D0000BE018FE795E0DF91CF911F910F910C9469
:101D1000BD1A8FE795E00C94B91ADF92EF92FF920B
:101D20000F931F93CF93DF9300D000D000D0CDB797
:101D3000DEB767E078E08FE795E00E94CF1A82E097
:101D4000E82E81E0F82E00E010E0F7018389948905
:101D50000E940A22F7018389948987960E941A0EAD
:101D6000D82E0F5F1F4F4AE0B801CE0101960E94A6
:101D7000AC196EE276E0CE0101960E94051969E584
:101D800075E00E94EC186EE276E00E9405196D2D58
:101D90000E94BB18BC018FE795E00E94BD1ACE01DE
:101DA00001960E94A719F5E1EF0EF11C083011050C
:101DB00061F60E94890E26960FB6F894DEBF0FBE1C
:101DC000CDBFDF91CF911F910F91FF90EF90DF90EA
:101DD0000895AF92BF92CF92DF92EF92FF920F934E
:101DE0001F93CF93DF93CDB7DEB76E970FB6F894FE
:101DF000DEBF0FBECDBF8C0169EC72E0CE01019653
:101E00000E94171ABE016F5F7F4FC8010E9405181C
:101E10004AE0BC01CE0107960E94AC19CE0107969C
:101E20000E94FF16AB014F5F5F4FB801CE010D96C8
:101E30000E94CA0ACE0107960E94A719CE010196F8
:101E40000E94A71964E073E0CE0101960E94171A60
:101E5000BE016F5F7F4FCE010D960E940F18092FB4
:101E6000CE0101960E94A71964E173E0CE010796A6
:101E70000E94171A64E073E0CE0101960E94171ABF
:101E8000AE01495F5F4FBE016F5F7F4FCE010D9680
:101E90000E940A17CE0101960E94A719CE0107964B
:101EA0000E94A71964E173E0CE0107960E94171AF9
:101EB00067E073E0CE0101960E94171AAE01495FF8
:101EC0005F4FBE016F5F7F4FCE010D960E940A17D4
:101ED000CE0101960E94A719CE0107960E94A7196C
:101EE00064E173E0CE0107960E94171A63E173E084
:101EF000CE0101960E94171AAE01495F5F4FBE01E5
:101F00006F5F7F4FCE010D960E940A17CE0101969A
:101F10000E94A719CE0107960E94A7196AEE72E0E7
:101F2000CE0101960E94171ABE016F5F7F4FCE014E
:101F30000D960E940F184AE0BC01CE0143960E9404
:101F4000AC19CE0143960E94FF169B0140E050E081
:101F5000BE01635F7F4FCE0107960E942C1ACE010F
:101F600043960E94A719CE0101960E94A7196AEE16
:101F700072E0CE0143960E94171ABE016D5E7F4F3C
:101F8000CE010D960E9405184AE0BC01CE0149968B
:101F90000E94AC19CE0149960E94FF16AB014F5F1B
:101FA0005F4FBE01635F7F4FCE0101960E94CA0A58
:101FB000CE0149960E94A719CE0143960E94A71907
:101FC000CE0107960E94FF16162FBE016F5F7F4F4E
:101FD000CE0143960E940E1A1150183048F067E265
:101FE00078E08FE795E00E94CF1A0E94C90545C0AE
:101FF00046E250E062EF73E0CE0143960E94C122B8
:10200000C12ED12C25E1129FF0011124EE5FFE4F6D
:102010008389948922EFE22E23E0F22EFC01E25F15
:10202000F3405F01C5018E0D9F1DF70161917F0196
:102030009A8F898FCE0149960E94AA0AF8E1EF167D
:10204000F4E0FF0679F7602F6095661F6627661F2C
:1020500085E18C9DF0018D9DF00D1124EE5FFE4F0A
:102060008389948987960E949F2064E178E08FE7B6
:1020700095E00E94CF1A0E94B1050E94890E0E942D
:102080008D0ECE0143960E94A719CE0101960E94A3
:10209000A719CE0107960E94A719CE010D960E949E
:1020A000A7196E960FB6F894DEBF0FBECDBFDF91B5
:1020B000CF911F910F91FF90EF90DF90CF90BF9045
:1020C000AF9008957F928F929F92AF92BF92CF92DE
:1020D000DF92EF92FF920F931F93CF93DF93C12C68
:1020E000D12C7601C394D0E0BB24B39462E0A62E39
:1020F00099249A9475EE872EE5EC7E2ECC2DB09225
:102100004104C092F103109247031092460390914C
:1021100070039111FCCFA0927003B0926F03909264
:102120006E0310926D0310926C0310926B038091FA
:102130006B0386019601220F331F282B20936B031C
:1021400080916A03813069F410926A0380916B0375
:102150008093BB008091BC0083FDF8CF7092BC00DF
:1021600002C08092BC00809170038230E1F38091C4
:102170006E038F3F69F080916E03803231F0809161
:102180006E03803321F094E003C092E001C093E03D
:10219000109247031092460310924104911134C0EB
:1021A00066EF77E08FE795E00E94801A80E1C8161D
:1021B000D104E104F10430F464EF77E08FE795E0B7
:1021C0000E94801A40E1C701B6010E942422C05239
:1021D000C830B0F46EE276E08FE795E00E94721AA4
:1021E00062EE77E08FE795E00E94CF1A1093940398
:1021F000009393038091A5038F5F8093A50302C092
:102200000E94890EDF5F19C09430B9F466ED77E063
:102210008FE795E00E94801AE0E1CE16D104E10438
:10222000F10430F464ED77E08FE795E00E94801AC6
:1022300060E170E08C2F0E946722FFEFCF1ADF0A67
:10224000EF0AFF0A8FE7C816D104E104F10409F090
:1022500055CFD11106C06EEB77E08FE795E00E9475
:10226000CF1A8091A5038823E9F00E948D0E02E029
:1022700011E0CDE9D3E0FC2EE8E0FE0EF801838901
:10228000948987960E941A0E89930B5E1F4FFC1249
:10229000F5CF0E94890EE5E9F3E088E08E0F1192F8
:1022A0008E13FDCFDF91CF911F910F91FF90EF9093
:1022B000DF90CF90BF90AF909F908F907F900895C8
:1022C00065EB77E088E596E00E94801A8091E00354
:1022D000813031F461EB77E088E596E00E94CF1A17
:1022E0008091E0038250823030F46FEA77E088E535
:1022F00096E00E94CF1A63EA77E08FE795E00E94AC
:10230000CF1A0C94B105CF92DF92EF92FF920F9308
:102310001F93CF93DF93CDB7DEB7A4970FB6F89492
:10232000DEBF0FBECDBF8C0169EC72E0CE0101961D
:102330000E94171ABE016F5F7F4FC8010E940518E7
:102340004AE0BC01CE0142960E94AC19CE014296F1
:102350000E94FF16AB014F5F5F4FB801CE01489658
:102360000E94CA0ACE0142960E94A719CE01019688
:102370000E94A71964E173E0CE0142960E94171AE9
:1023800069E073E0CE0101960E94171AAE014E5E1D
:102390005F4FBE016F5F7F4FCE0148960E940A17C4
:1023A000CE0101960E94A719CE0142960E94A7195C
:1023B00064E173E0CE0142960E94171A67E073E071
:1023C000CE0101960E94171AAE014E5E5F4FBE010C
:1023D0006F5F7F4FCE0148960E940A17CE0101968B
:1023E0000E94A719CE0142960E94A71964E173E0EA
:1023F000CE0142960E94171A63E173E0CE01019666
:102400000E94171AAE014E5E5F4FBE016F5F7F4F95
:10241000CE0148960E940A17CE0101960E94A71984
:10242000CE0142960E94A7196AEE72E0CE01019693
:102430000E94171ABE016F5F7F4FCE0148960E941F
:1024400005184AE0BC01CE014E960E94AC19CE019F
:102450004E960E94FF16AB014F5F5F4FBE01685E54
:102460007F4FCE0142960E94CA0ACE014E960E942C
:10247000A719CE0101960E94A719BE016E5E7F4F7B
:10248000CE014E960E940E1A05ED11E021E08DE07E
:10249000F82E6E0185E0C80ED11C67EB73E0F801E1
:1024A000808191812CA30E94921FBC01CE010196D4
:1024B0000E94171ABE01625E7F4FCE0101960E94F4
:1024C0002918E82ECE0101960E94A7192CA1EE2012
:1024D00099F119821A821B821C82F6018F2D1192AA
:1024E0008A95E9F7BE016F5F7F4FF8018081918186
:1024F0000E946C20F8018081918160E042960E94E8
:102500009F20F8018081918160E043960E949F2086
:1025100063E977E08FE795E00E94801ABE01625E72
:102520007F4F8FE795E00E94BD1A0E94890E0E949E
:102530008F070E94B10520E00B5E1F4FF2E00239C9
:102540001F0709F0AACF213089F46BE777E08FE706
:1025500095E00E94801ABE01625E7F4F8FE795E092
:102560000E94BD1A0E94890E0E94C905CE014E9696
:102570000E94A719CE0142960E94A719CE01489643
:102580000E94A719A4960FB6F894DEBF0FBECDBF68
:10259000DF91CF911F910F91FF90EF90DF90CF903F
:1025A00008959F92AF92BF92CF92DF92EF92FF92E7
:1025B0000F931F93CF93DF93CDB7DEB76E970FB610
:1025C000F894DEBF0FBECDBF8C0169EC72E0CE0186
:1025D00001960E94171ABE016F5F7F4FC8010E94CB
:1025E00005184AE0BC01CE0107960E94AC19CE0145
:1025F00007960E94FF16AB014F5F5F4FB801CE01F7
:1026000043960E94CA0ACE0107960E94A719CE01DE
:1026100001960E94A7196EE073E0CE0101960E9418
:10262000171ABE016F5F7F4FCE0143960E940F18AD
:10263000C92ECE0101960E94A71960E173E0CE0178
:1026400001960E94171ABE016F5F7F4FCE0143961D
:102650000E940F18D92ECE0101960E94A71964E19D
:1026600073E0CE0107960E94171A6EE073E0CE0168
:1026700001960E94171AAE01495F5F4FBE016F5F5E
:102680007F4FCE0143960E940A17CE0101960E9409
:10269000A719CE0107960E94A71964E173E0CE0145
:1026A00007960E94171A60E173E0CE0101960E941E
:1026B000171AAE01495F5F4FBE016F5F7F4FCE01BA
:1026C00043960E940A17CE0101960E94A719CE01D7
:1026D00007960E94A71964E173E0CE0107960E9455
:1026E000171A69E073E0CE0101960E94171AAE0135
:1026F000495F5F4FBE016F5F7F4FCE0143960E94DF
:102700000A17CE0101960E94A719CE0107960E94D2
:10271000A71964E173E0CE0107960E94171A67E0DB
:1027200073E0CE0101960E94171AAE01495F5F4F18
:10273000BE016F5F7F4FCE0143960E940A17CE0104
:1027400001960E94A719CE0107960E94A71964E17D
:1027500073E0CE0107960E94171A63E173E0CE0181
:1027600001960E94171AAE01495F5F4FBE016F5F6D
:102770007F4FCE0143960E940A17CE0101960E9418
:10278000A719CE0107960E94A7196AEE72E0CE0142
:1027900001960E94171ABE016F5F7F4FCE014396CC
:1027A0000E940F184AE0BC01CE0107960E94AC19A6
:1027B000CE0107960E94FF169B0140E050E0BE014B
:1027C0006D5E7F4FCE010D960E942C1ACE010796AA
:1027D0000E94A719CE0101960E94A7196AEE72E025
:1027E000CE0101960E94171ABE016F5F7F4FCE0186
:1027F00043960E9405184AE0BC01CE0149960E940A
:10280000AC19CE0149960E94FF16AB014F5F5F4F96
:10281000BE016D5E7F4FCE0107960E94CA0ACE01AF
:1028200049960E94A719CE0101960E94A719CE01D0
:102830000D960E94FF16062FBE01695F7F4FCE01E5
:1028400049960E940E1A67EB73E08091C001909147
:10285000C1010E94921FBC01CE0101960E94171A6D
:10286000CE0101960E94D121182FCE0101960E941F
:10287000A719112361F064E577E08FE795E00E94E6
:10288000CF1A0E94890E0E94C90510E001C011E014
:102890008EEF800F8A3058F066E377E08FE795E09F
:1028A0000E94CF1A0E94890E0E94C90510E08DEA8D
:1028B000A82E81E0B82EE12CF12C67EB73E0F50136
:1028C000838994890E94921FBC01CE0101960E94C7
:1028D000171ABE01675E7F4FCE0101960E9429182C
:1028E000982ECE0101960E94A719C70101967C017E
:1028F000992071F067E077E08FE795E00E94801AF9
:10290000C7010E9488220E94890E0E94C90510E01A
:1029100095E1A90EB11CEAE0EE16F10471F6113052
:10292000B1F541E150E066EA73E0CE0149960E94BC
:10293000C1220150F5E10F9F8001112403551E4F64
:1029400066EA73E0F801838994890E946C206C2DFB
:102950006095661F6627661FF801838994894296F1
:102960000E949F206D2D6095661F6627661FF801E7
:102970008389948943960E949F206AEF76E08FE7CF
:1029800095E00E94CF1A0E94890E0E94B1050E9414
:102990008F07CE0149960E94A719CE0107960E9483
:1029A000A719CE010D960E94A719CE0143960E9449
:1029B000A7196E960FB6F894DEBF0FBECDBFDF919C
:1029C000CF911F910F91FF90EF90DF90CF90BF902C
:1029D000AF909F9008951F93CF93DF93CDB7DEB74D
:1029E00062970FB6F894DEBF0FBECDBF182F60936D
:1029F0007F0283E190E00E949F20113059F56AEE3A
:102A000072E0CE0107960E94171A6AE376E0CE01C3
:102A100007960E940519BC01CE010D960E940E1A60
:102A200067EE76E0CE0101960E94051A40E0BE01F5
:102A3000635F7F4FCE0101960E941C0ECE0101966E
:102A40000E94A719CE010D960E94A719CE010796E4
:102A50000E94A71962960FB6F894DEBF0FBECDBFD5
:102A6000DF91CF911F9108950895CF92DF92EF9259
:102A7000FF920F931F93CF93DF936C017A018B0129
:102A8000C0E0D0E0CE15DF0589F0D8016D918D0151
:102A9000D601ED91FC910190F081E02DC6010995E0
:102AA000892B11F47E0102C02196ECCFC701DF9182
:102AB000CF911F910F91FF90EF90DF90CF900895ED
:102AC000FC01918D828D981761F0828DDF01A80F36
:102AD000B11D5D968C91928D9F5F9F73928F90E058
:102AE00008958FEF9FEF0895FC01918D828D9817C7
:102AF00031F0828DE80FF11D858D90E008958FEF04
:102B00009FEF0895FC01918D228D892F90E0805CCC
:102B10009F4F821B91098F73992708958FE795E046
:102B20000E94821521E0892B09F420E0822F08956C
:102B3000FC01848DDF01A80FB11DA35ABF4F2C915A
:102B4000848D90E001968F739927848FA689B78929
:102B50002C93A089B1898C9180648C93938D848D02
:102B6000981306C00288F389E02D80818F7D8083D1
:102B70000895EF92FF920F931F93CF93DF93EC0191
:102B800081E0888F9B8D8C8D981305C0E889F98929
:102B9000808185FD24C0F62E0B8D10E00F5F1F4F46
:102BA0000F731127E02E8C8DE8120CC00FB607FCB6
:102BB000FACFE889F989808185FFF5CFCE010E949F
:102BC0009815F1CF8B8DFE01E80FF11DE35AFF4FF1
:102BD000F0820B8FEA89FB898081806207C0EE89D1
:102BE000FF896083E889F98980818064808381E03E
:102BF00090E0DF91CF911F910F91FF90EF9008959A
:102C0000CF93DF93EC01888D8823C9F0EA89FB8993
:102C1000808185FD05C0A889B9898C9186FD0FC08A
:102C20000FB607FCF5CF808185FFF2CFA889B9895F
:102C30008C9185FFEDCFCE010E949815E7CFDF91F3
:102C4000CF91089580E090E0892B29F00E948E15A5
:102C500081110C9400000895833081F028F48130B4
:102C600099F08230A1F008958730A9F08830B9F04A
:102C70008430D1F4809180008F7D03C080918000EA
:102C80008F7780938000089584B58F7702C084B5D4
:102C90008F7D84BD08958091B0008F7703C08091AF
:102CA000B0008F7D8093B00008950E946739AF9285
:102CB000BF92CF92DF92EF92FF920F931F93CF9329
:102CC000DF937B018A01FB01448155814115510548
:102CD00061F1FC01248135812115310531F1241781
:102CE000350718F10217130718F08901015011096F
:102CF000FC01A080B180C501DFEFCFEF6501C00E00
:102D0000D11EC816D906A0F0F701608171810E941A
:102D1000AE39009769F09C012A193B090217130785
:102D200010F0D22FC32F0196ECCF8FEF9FEF02C090
:102D30008D2F9C2FDF91CF911F910F91FF90EF90DE
:102D4000DF90CF90BF90AF9008950F931F93CF93D4
:102D5000DF93EC0188819981009729F02A813B81DA
:102D60002617370788F48B016F5F7F4F0E949D38CD
:102D7000009761F0998388831B830A832C813D81AE
:102D8000232B11F4FC01108281E001C080E0DF916F
:102D9000CF911F910F910895CF93DF93EC0188811C
:102DA0009981009711F00E940538198218821D82BE
:102DB0001C821B821A82DF91CF910895EF92FF92BD
:102DC0000F931F93CF93DF93EC017B018A01BA012C
:102DD0000E94A516811104C0CE010E94CC1607C026
:102DE0001D830C83B701888199810E949839CE0197
:102DF000DF91CF911F910F91FF90EF900895FC010B
:102E000080819181009711F00C94FB3560E070E0B7
:102E1000CB0108952F923F924F925F926F927F92D3
:102E20008F929F92AF92BF92CF92DF92EF92FF92DA
:102E30000F931F93CF93DF93FC014480558041147F
:102E4000510409F4CFC0FB016480758061147104E2
:102E500009F4C8C07A016B01EC01FA01A480B580C5
:102E6000A618B70808811981A114B104C1F4F601AC
:102E700060817181C8010E94AE39EC01892B09F48F
:102E8000B1C0F7016081718144815581CE010E94FA
:102E90007439F701048115810C0F1D1FE8CFB7FEAF
:102EA00002C0480106C0FB01208031804201C801F8
:102EB00042C0F60160817181C4010E94AE392C01CB
:102EC000892B19F1320168187908A301B401C801EE
:102ED0000E947439060D171DF701608171814481CC
:102EE0005581C8010E947439F70184819581080FCA
:102EF000191FF60184809580840C951C8C819D811E
:102F00008A0D9B1D9D838C83D4CFB401C801DF91B2
:102F1000CF911F910F91FF90EF90DF90CF90BF90D6
:102F2000AF909F908F907F906F905F904F903F9069
:102F30002F900C949839B1010E94AE39009729F076
:102F4000860D971D8A0C9B1CF6CF8414950409F4FA
:102F500049C08A819B818815990560F4B4016F5F2F
:102F60007F4FC8010E949D380097E1F199838883C3
:102F70009B828A824C815D814150510957FD32C04C
:102F8000B601CE010E9457168C0197FD2BC0888197
:102F90009981F60124813581200F311F820F931F03
:102FA0004C815D81421B530BBC018A0D9B1D0E940D
:102FB0007D398C819D818A0D9B1D9D838C83288109
:102FC0003981F901E80FF91F108288819981F70191
:102FD0006081718144815581800F911F0E947439F5
:102FE000A801CACFDF91CF911F910F91FF90EF9071
:102FF000DF90CF90BF90AF909F908F907F906F9019
:103000005F904F903F902F900895FC01448155812F
:10301000FB0124813581421B530B0C945716CF932F
:10302000DF93FC0124813581232B71F0FB01DC014E
:10303000CD91DC9160817181CE010E94AE39009703
:1030400019F08C1B9D0B02C08FEF9FEFDF91CF918A
:103050000895FC0124813581FB01448155812417A9
:10306000350721F5FC0180819181FB01608171812F
:10307000009719F061157105A1F46115710549F00A
:10308000232BB1F0FB01808190E09195819591090E
:103090000AC0009769F0232B59F0FC01808190E071
:1030A00002C00E948F3921E0892B19F020E001C075
:1030B00021E0822F0895EF92FF920F931F93CF93F9
:1030C000DF93EC017B0161157105E1F0CB010E94FA
:1030D00029360097D1F02C813D818C01020F131FFE
:1030E000B801CE010E94A516882361F0288139819C
:1030F0008C819D81B701820F931F0E9422361D8310
:103100000C8303C0CE010E94CC16CE01DF91CF917B
:103110001F910F91FF90EF900895EF92FF920F9300
:103120001F93CF93DF93FC012481358161157105D5
:1031300011F480E019C041155105A9F07B01EC01A3
:103140008A01020F131FB8010E94A516882389F374
:10315000288139818C819D81B701820F931F0E9444
:1031600098391D830C8381E0DF91CF911F910F91DE
:10317000FF90EF900895EF92FF920F931F93CF93DC
:10318000DF9300D000D0CDB7DEB77C01862F4AE0B8
:103190008E010F5F1F4FB80190E00E943D36F8018D
:1031A00001900020E9F73197AF01401B510BB801A6
:1031B000C7010E948D18811103C0C7010E94CC165F
:1031C000C7010F900F900F900F90DF91CF911F913B
:1031D0000F91FF90EF900895CF93DF93EC0161156D
:1031E000710561F0FB0101900020E9F73197AF0113
:1031F000461B570B0E948D18811103C0CE010E94FF
:10320000CC16CE01DF91CF910895CF93DF93EC01DF
:10321000FB0144815581608171810E948D1881116B
:1032200003C0CE010E94CC16CE01DF91CF9108954C
:10323000EF92FF920F931F93CF93DF93EC018B01DB
:103240006115710551F0CB010E9429367C01BC014A
:10325000CE010E94A516811104C0CE010E94CC1699
:1032600007C0FD82EC82B801888199810E942236D4
:10327000CE01DF91CF911F910F91FF90EF900895B4
:10328000CF93DF93EC016115710559F0FB010190BB
:103290000020E9F73197AF01461B570B0E94DE165D
:1032A00002C00E94CC16CE01DF91CF910895CF933A
:1032B000DF93EC01FB018617970761F06081718154
:1032C0006115710529F0448155810E94DE1602C006
:1032D0000E94CC16CE01DF91CF9108950F931F93DA
:1032E000CF93DF938C01EB01FC01808191810097EA
:1032F000B1F0688179816115710579F0428153815E
:103300002C813D814217530740F00E9498398C81EF
:103310009D81F8019583848313C00E9405388881BC
:103320009981F801918380838A819B819383828331
:103330008C819D8195838483198218821B821A82D5
:103340001D821C82DF91CF911F910F910895FC0186
:10335000808191810C9405380F931F93CF93DF9355
:10336000CDB7DEB762970FB6F894DEBF0FBECDBF04
:103370008C01CB01F8011182108213821282158216
:10338000148250E0BE016F5F7F4F0E943236BE0153
:103390006F5F7F4FC8010E94401962960FB6F89484
:1033A000DEBF0FBECDBFDF91CF911F910F9108956A
:1033B0000F931F93CF93DF93CDB7DEB729970FB647
:1033C000F894DEBF0FBECDBF8C01862FF8011182AD
:1033D0001082138212821582148250E0BE016F5F48
:1033E0007F4F90E00E945D36BE016F5F7F4FC80146
:1033F0000E94401929960FB6F894DEBF0FBECDBFCC
:10340000DF91CF911F910F910895FC0111821082DD
:1034100013821282158214820C941819FC011182F5
:10342000108213821282158214820C945719FC01A7
:103430001182108213821282158214826115710525
:1034400051F0FB0101900020E9F73197AF01461BD5
:10345000570B0C94DE160895BF92CF92DF92EF9235
:10346000FF920F931F93CF93DF937C016B018A012F
:10347000E9012417350720F4812F8901C42FD82FA3
:1034800064E173E0C7010E94171AD60114968D916A
:103490009C91159708171907D0F48C179D0708F40D
:1034A000EC01D601ED91FC911197EC0FFD1FB0805E
:1034B00010824D915C91BA01600F711FC7010E948B
:1034C0004019D601ED91FC91EC0FFD1FB082C701B0
:1034D000DF91CF911F910F91FF90EF90DF90CF90F0
:1034E000BF900895DC01ED91FC91DB0114964D91A4
:1034F0005C9115976D917C910280F381E02D099488
:10350000EF92FF920F931F93CF93DF938C017B0178
:10351000C0E0D0E0F701EC0FFD1F6491662361F07D
:10352000D801ED91FC910190F081E02DC801099541
:10353000892B11F02196EECFCE01DF91CF911F9113
:103540000F91FF90EF9008956115710579F0FB01DF
:1035500001900020E9F73197AF01461B570BDC01C2
:10356000ED91FC910280F381E02D099480E090E0E0
:10357000089562E173E00C94A41A0F931F93CF9304
:10358000DF93EC010E94721A8C01CE010E94B91ADD
:10359000800F911FDF91CF911F910F9108950F938D
:1035A0001F93CF93DF93EC010E94801A8C01CE0110
:1035B0000E94B91A800F911FDF91CF911F910F9137
:1035C00008951F920F920FB60F9211242F933F93DD
:1035D0004F935F936F937F938F939F93AF93BF931B
:1035E000EF93FF938FE795E00E949815FF91EF917D
:1035F000BF91AF919F918F917F916F915F914F910B
:103600003F912F910F900FBE0F901F9018951F9212
:103610000F920FB60F9211242F938F939F93EF93D6
:10362000FF93E0918F05F09190058081E0919505E1
:10363000F091960582FD12C09081809198058F5F70
:103640008F7320919905821751F0E0919805F0E071
:10365000E158FA4F958F8093980501C08081FF91C2
:10366000EF919F918F912F910F900FBE0F901F9010
:103670001895CF93DF93282F30E0F901EF5AF74FD9
:103680008491F901E255F74FD491F901E656F74FCD
:10369000C491CC2391F081110E942C16EC2FF0E004
:1036A000EE0FFF1FE057F74FA591B491EC91ED237A
:1036B00081E090E021F480E002C080E090E0DF91C2
:1036C000CF9108951F93CF93DF93282F30E0F90116
:1036D000EF5AF74F8491F901E255F74FD491F90170
:1036E000E656F74FC491CC23C9F0162F81110E94E2
:1036F0002C16EC2FF0E0EE0FFF1FEA57F74FA591C5
:10370000B4918FB7F894111105C09C91ED2FE095FD
:10371000E92302C0EC91ED2BEC938FBFDF91CF91A9
:103720001F910895CF93DF9390E0FC01E255F74F8E
:103730002491FC01E656F74F8491882361F190E0D3
:10374000880F991FFC01E95BF74FC591D491FC01EB
:10375000EA57F74FA591B491611109C09FB7F8944A
:103760008881209582238883EC912E230BC06230C0
:1037700061F49FB7F8943881822F809583238883E2
:10378000EC912E2B2C939FBF06C08FB7F894E88145
:103790002E2B28838FBFDF91CF9108958F929F9218
:1037A000AF92BF92CF92DF92EF92FF926B017C01BA
:1037B0000E946D1D4B015C01C114D104E104F104B0
:1037C000F1F00E946D1DDC01CB0188199909AA094D
:1037D000BB09883E9340A105B10570F321E0C21AF0
:1037E000D108E108F10888EE880E83E0981EA11C3C
:1037F000B11CC114D104E104F10419F7DDCFFF902D
:10380000EF90DF90CF90BF90AF909F908F900895F2
:1038100085ED8093BC008091BC0084FDFCCF1092AC
:103820007003089540912405262F30E0240F311DA8
:1038300021323105DCF4209170032430C9F4FC01FD
:1038400080E090E0861758F4309124052191DC0146
:10385000AE5FBA4FA30FB11D2C930196F3CF8091A9
:103860002405680F6093240580E0089581E00895A1
:1038700082E008950895E091910380919203E81702
:1038800030F4F0E0EF58FC4F808190E008958FEF26
:103890009FEF08959091910380919203981750F4AF
:1038A000E92FF0E0EF58FC4F208130E09F5F9093CC
:1038B000910302C02FEF3FEFC90108958091920359
:1038C00090E020919103821B91090895CF92DF929D
:1038D000EF92FF920F931F93CF93DF937C01262FDC
:1038E000972F8A0180914104882391F0C62FD72F0A
:1038F0006E01C40ED51ECC15DD0571F06991D7019E
:10390000ED91FC910190F081E02DC7010995F3CF75
:10391000642F822F0E94121CC801DF91CF911F914A
:103920000F91FF90EF90DF90CF900895CF93DF93AA
:103930001F92CDB7DEB76983209141042223D1F0D5
:1039400020914603203240F021E030E0FC01338337
:10395000228380E090E015C080914703E82FF0E0DB
:10396000EF5DFB4F998190838F5F80934703809336
:10397000460305C061E0CE0101960E94121C81E061
:1039800090E00F90DF91CF91089520911F04309126
:1039900020042817390771F490911E0480911D04AA
:1039A000981741F0E0911E04F0E0EE5BFB4F808140
:1039B00090E008958FEF9FEF089508951F93CF93A0
:1039C000DF93DC015C962D913C915D9721153105CB
:1039D00039F481E090E013969C938E9312973DC04A
:1039E0005196ED91FC91529750969C915097892F4A
:1039F00080951FB75E964C915E9741FB772770F9D3
:103A000041FD6095F8944081772311F0492B01C066
:103A100048234083E9012197F1F748E0508160FF96
:103A200002C0592B01C058235083E9012197F1F7B7
:103A30006695415099F7772321F0908189238083FF
:103A400003C08081982B90831FBF5C968D919C91C1
:103A50005D970197F1F721E030E0C901DF91CF9147
:103A60001F91089520911F043091200428173907D1
:103A700071F480911D0420911E0490E080549F4FAA
:103A8000821B910960EC70E00E944237089580E04B
:103A900090E0089520911F043091200428173907E1
:103AA000C9F490911E0480911D04981799F0E0913B
:103AB0001E04F0E0EE5BFB4F208180911E0490E03D
:103AC000019660EC70E00E94423780931E04822FC2
:103AD00090E008958FEF9FEF08953FB7F89480919D
:103AE0004E0590914F05A0915005B091510526B516
:103AF000A89B05C02F3F19F00196A11DB11D3FBF26
:103B0000BA2FA92F982F8827820F911DA11DB11DB3
:103B1000BC01CD0142E0660F771F881F991F4A95AF
:103B2000D1F708952FB7F89460914A0570914B052D
:103B300080914C0590914D052FBF08951F920F92D3
:103B40000FB60F9211242F933F938F939F93AF93B0
:103B5000BF9380914A0590914B05A0914C05B0917F
:103B60004D053091490523E0230F2D3720F40196B0
:103B7000A11DB11D05C026E8230F0296A11DB11D90
:103B80002093490580934A0590934B05A0934C05DB
:103B9000B0934D0580914E0590914F05A091500531
:103BA000B09151050196A11DB11D80934E059093D2
:103BB0004F05A0935005B0935105BF91AF919F91D0
:103BC0008F913F912F910F900FBE0F901F901895DE
:103BD0001F920F920FB60F9211242F933F934F9382
:103BE0005F936F937F938F939F93AF93BF93EF9365
:103BF000FF938091B900887F803609F49CC068F5F6
:103C0000883209F45BC090F4803109F454C038F470
:103C1000882309F4F6C0883009F44DC0F6C0883115
:103C200009F44CC0803209F45DC0EFC0803409F45F
:103C300068C048F4803309F455C0883309F0E5C002
:103C400080936E03D8C0803509F44FC0883509F4DD
:103C50005DC0883409F0D9C0D6C0883909F4C7C01E
:103C6000A8F4883709F467C038F4883609F463C0CB
:103C7000803709F460C0C9C0883809F4B8C08039F9
:103C800009F45FC0803809F0C0C05BC0803B09F414
:103C900086C038F4803A09F466C0883A09F47FC0D7
:103CA000B4C0803C09F4A7C0883C09F4A4C0883B98
:103CB00009F48AC0AAC080916B0310C090916D0373
:103CC00080916C03981770F5E0916D0381E08E0F81
:103CD00080936D03F0E0E65BFC4F80818093BB0036
:103CE00085EC86C080936E038EC0E0916D0381E009
:103CF0008E0F80936D038091BB00F0E0E65BFC4F7C
:103D0000808390916D0380916C036EC0E0916D0390
:103D100081E08E0F80936D038091BB00F0E0E65B45
:103D2000FC4F808380916F0381116DC081E080938F
:103D30006A0384EA61C083E08093700310924805AF
:103D4000CFCF80914805803208F051C0E0914805FE
:103D500081E08E0F809348058091BB00F0E0E85D24
:103D6000FA4F8083BDCF85EC8093BC001092700326
:103D700080914805803230F4E0914805F0E0E85D3C
:103D8000FA4F10826091480570E0E0912605F091AD
:103D9000270588E295E009951092480536C084E031
:103DA000809370031092250510922405E09122055E
:103DB000F0912305099580912405811105C081E0CA
:103DC0008093240510920205E091250581E08E0F75
:103DD00080932505F0E0EE5FFA4F80818093BB0071
:103DE0009091250580912405981708F479CF85E8EE
:103DF0008093BC000AC085EC8093BC0010927003D5
:103E000004C010926E030E94081CFF91EF91BF91B5
:103E1000AF919F918F917F916F915F914F913F9162
:103E20002F910F900FBE0F901F9018951F920F9219
:103E30000FB60F9211242F933F934F935F936F937D
:103E40007F938F939F93AF93BF93EF93FF93E091F3
:103E50001F04F0912004309709F453C0968DA68575
:103E6000B785858591FF04C09C91892329F449C0B9
:103E70009C91892309F045C0A389B4899C918589C7
:103E8000809589238C93868997890197F1F7608DB6
:103E9000718DA685B785558538E020E0CB01019767
:103EA000F1F7822F90E095958795282F4C91452327
:103EB00009F02068315091F7868D81FD2095809121
:103EC0001D0490E0019660EC70E00E9442379091F2
:103ED0001E04981749F0A0911D04B0E0AE5BBB4FE3
:103EE0002C9380931D0403C0868D8160868F828D04
:103EF000938D0197F1F7A389B4899C918589892BCA
:103F00008C93FF91EF91BF91AF919F918F917F9192
:103F10006F915F914F913F912F910F900FBE0F9036
:103F20001F901895CF92DF92EF92FF920F931F93FD
:103F3000CF93DF93EB017B0121E1E20EF11C8B01BA
:103F40006C01C61AD70AC601800F911F0E949236D3
:103F5000F80181938F01EE15FF05A9F7CE01DF91DE
:103F6000CF911F910F91FF90EF90DF90CF90089528
:103F7000AF92BF92CF92DF92EF92FF920F931F9377
:103F8000CF93DF93CDB7DEB768970FB6F894DEBF57
:103F90000FBECDBF7C01B62EA42EBC018FE795E0ED
:103FA0000E94BD1A0DEA11E0F801C388D488C60149
:103FB00043960E941A0E813009F03FC067EB73E010
:103FC000C6010E94921FBC01CE0107960E94171ADB
:103FD0006AEE72E0CE010D960E94171ABE01695F6B
:103FE0007F4FCE010D960E940519BC01CE010196AE
:103FF0000E940E1AB701CE0143960E940E1A4A2D56
:10400000BE016F5F7F4FCE0143960E941C0ECE0112
:1040100043960E94A719CE0101960E94A719CE01CE
:104020000D960E94A719CE0107960E94A71968EE67
:1040300073E080E090E00E94CE1B0B5E1F4FF2E029
:104040000F371F0709F0B0CF80918202813099F5B8
:10405000B81231C067EB73E08091C0019091C1014B
:104060000E94921FBC01CE0101960E94171ACE0138
:1040700001960E94D121182FCE0101960E94A71906
:10408000111119C061E878E088E596E00E94801A75
:1040900067EB73E08091C0019091C1010E94921F73
:1040A000BC0188E596E00E94A41A6FE778E088E5F5
:1040B00096E00E94CF1A68960FB6F894DEBF0FBE46
:1040C000CDBFDF91CF911F910F91FF90EF90DF90C7
:1040D000CF90BF90AF900895AF92BF92CF92DF92F2
:1040E000EF92FF920F931F93CF93DF9300D0CDB742
:1040F000DEB78B016B0121E1C20ED11C7B015C019B
:10410000A61AB70A95012E0D3F1DF70161917F0197
:104110003A832983CE0101960E94AA0AEC14FD0479
:1041200089F7C8010F900F90DF91CF911F910F91E8
:10413000FF90EF90DF90CF90BF90AF900895CF9316
:10414000DF9300D0CDB7DEB79A838983CE01019685
:104150000E94AA0A0F900F90DF91CF910895EF92DD
:10416000FF920F931F93CF93DF93CDB7DEB768977E
:104170000FB6F894DEBF0FBECDBF0E94921D009116
:10418000190410911A0420911B0430911C04601B27
:10419000710B820B930B28EE33E040E050E00E945D
:1041A00011378091DD0390E0A0E0B0E08217930723
:1041B000A407B50708F0E8C011E01093AC0161E076
:1041C0008EE090E00E949F201093AA0165E173E0C9
:1041D000CE0101960E94171A6AE376E0CE0101969D
:1041E0000E940519BC0184E396E00E945719CE0194
:1041F00001960E94A71980911804813031F46EE66F
:1042000078E084E396E00E94181964E376E08FE793
:1042100095E00E94BD1A68EE73E080E090E00E9495
:10422000CE1B0DEA11E0F801E388F488C70143963C
:104230000E941A0E813009F061C067EB73E0C7017C
:104240000E94921FBC01CE0101960E94171ABE0166
:104250006F5F7F4F8AE396E00E942918F82ECE0107
:1042600001960E94A719F1101092DF0368EE73E027
:1042700080E090E00E94CE1B67EB73E0F801838939
:1042800094890E94921FBC01CE0107960E94171AC2
:104290006AEE72E0CE010D960E94171ABE01695FA8
:1042A0007F4FCE010D960E940519BC01CE010196EB
:1042B0000E940E1A64E376E0CE0143960E940E1A25
:1042C00040E0BE016F5F7F4FCE0143960E941C0EFF
:1042D000CE0143960E94A719CE0101960E94A7190C
:1042E000CE010D960E94A719CE0107960E94A7192C
:1042F00068EE73E080E090E00E94CE1B0B5E1F4FE3
:10430000F2E00F371F0709F08ECF8091DF03813075
:10431000B9F568EE73E080E090E00E94CE1B6AEE93
:1043200072E0CE0107960E94171A6AE376E0CE018A
:1043300007960E940519BC01CE0101960E940E1A33
:1043400065E678E0CE010D960E94051A40E0BE01B8
:104350006F5F7F4FCE010D960E941C0ECE010D9611
:104360000E94A719CE0101960E94A719CE010796B7
:104370000E94A71968EE73E080E090E00E94CE1BD7
:10438000109218041092DA0368960FB6F894DEBF04
:104390000FBECDBFDF91CF911F910F91FF90EF9096
:1043A0000895DC0114962D913C911597232B41F033
:1043B000ED91FC9181E09081992319F080E00895BE
:1043C00081E00895EFE7F5E0A089B18982E08C9360
:1043D000A485B5851C92A685B7858FEC8C93108E2D
:1043E000A489B58986E08C93A289B3898C91806178
:1043F0008C93A289B3898C9188608C93A289B389AC
:104400008C9180688C930288F389E02D80818F7D68
:10441000808308950F931F93CF93DF93C9E5D5E071
:104420008C0109551540C8018C0F9D1F0E949236C2
:10443000899385E0CF37D807B1F789E595E0DF911B
:10444000CF911F910F9108958F929F92AF92BF923B
:104450000F931F93CF93DF93CDB7DEB7A1970FB61E
:10446000F894DEBF0FBECDBF19A2423008F44AE077
:104470008E010F5D1F4F842E912CA12CB12CA50114
:1044800094010E941137E62FB901CA0101501109A8
:10449000EA3014F4E05D01C0E95CD801EC93232B11
:1044A000242B252B61F7B8018FE795E00E94A41A11
:1044B000A1960FB6F894DEBF0FBECDBFDF91CF91AE
:1044C0001F910F91BF90AF909F908F900895CF93C1
:1044D000DF93AB01672B61F4E0917F05F0918005DC
:1044E0000190F081E02D682F8FE795E0099506C0D7
:1044F000682F70E080E090E00E942422EC018FE7BA
:1045000095E00E94B91A8C0F9D1FDF91CF910895FD
:10451000CF92DF92EF92FF92CF93DF936C01990FCE
:10452000EE08FF08F7FE1AC0E0917F05F0918005C4
:104530000190F081E02D6DE28FE795E00995EC01A7
:1045400066277727CB016C197D098E099F094AE000
:104550000E9424227C01EC0EFD1E06C04AE0C70129
:10456000B6010E9424227C018FE795E00E94B91ACF
:104570008E0D9F1DDF91CF91FF90EF90DF90CF9038
:1045800008950F931F93CF93DF93FC01248135810E
:104590002115310519F4FB01108211C0EA012197A0
:1045A0002C173D0708F4E9018B01FC016081718142
:1045B000AE01C8010E949F39C00FD11F1882DF9140
:1045C000CF911F910F9108950F931F93CF938C015B
:1045D0008091580581110AC00E94921D6093540574
:1045E000709355058093560590935705C1E0C0938D
:1045F0005805B80182E596E00E945719C09353050B
:1046000010925205CF911F910F910895CF93DF9390
:10461000C0914606D0914706209751F088818823A3
:1046200039F0082E000C990B0E946C398993F6CF53
:10463000DF91CF910895CF93DF9300D0CDB7DEB750
:1046400089831A8241E050E0BE016F5F7F4F86E4AC
:1046500096E00E948D180F900F90DF91CF910895F2
:10466000CF93DF93CDB7DEB7E6970FB6F894DEBFF2
:104670000FBECDBF789484B5826084BD84B581605F
:1046800084BD85B5826085BD85B5816085BD80911D
:104690006E00816080936E00109281008091810095
:1046A000826080938100809181008160809381008D
:1046B000809180008160809380008091B10084604F
:1046C0008093B1008091B00081608093B0008091B0
:1046D0007A00846080937A0080917A00826080936F
:1046E0007A0080917A00816080937A0080917A00CC
:1046F000806880937A001092C1000E94E22110929B
:104700009103109292031092470310924603109265
:10471000700381E080936F0310926A0361E082E18D
:104720000E94621B61E083E10E94621B8091B900DC
:104730008E7F8093B9008091B9008D7F8093B900FE
:1047400088E48093B80085E48093BC0068EB70E057
:104750008FE795E00E94CF1A69EA70E08FE795E055
:104760000E94CF1A64EC79E080E090E00E94CE1BBA
:1047700080E480937C0080917A00806480937A004A
:1047800080917A0086FDFCCF60917800809179005D
:1047900070E0782B072E000C880B990B61157105C2
:1047A0008105910511F00E94F2350E9490080E9447
:1047B000FF070E94390A82E690E00E941A0E8130BB
:1047C00009F452C062E870E08FE795E00E94CF1ACA
:1047D0000CE211E06FEFC8010E949F206AE070E0D8
:1047E00080E090E00E94CE1B0F5F1F4F0D3C21E048
:1047F000120781F768E670E08FE795E00E94CF1A14
:104800000E94890E02E011E054E1A52E51E0B52E80
:10481000F801C388D4887801C01AD10AC6018E0D68
:104820009F1DF70161917F019A838983CE010196D3
:104830000E94AA0AEA14FB0489F7F8018389948983
:10484000F701608187960E949F200B5E1F4F5701E2
:10485000F5E1AF0EB11C21E00A3A1207C9F661E09A
:1048600082E690E00E949F200E94621061E08AE050
:104870000E94921B61E08CE00E94921B61E08BE041
:104880000E94921B61E08AE00E94621B61E08CE062
:104890000E94621B61E08BE00E94621B60E08AE084
:1048A0000E94621B64EF71E080E090E00E94CE1BEA
:1048B00061E08AE00E94621B60E08CE00E94621B63
:1048C00064EF71E080E090E00E94CE1B61E08CE03C
:1048D0000E94621B60E08BE00E94621B64EF71E04B
:1048E00080E090E00E94CE1B61E08BE00E94621BA2
:1048F00060E086E00E94921B60E08EE00E94921BC6
:1049000060E087E00E94921B60E08FE00E94921BB3
:1049100060E080E10E94921B61E084E00E94921BB3
:1049200060E084E00E94621B61E085E00E94921BCF
:1049300061E085E00E94621B0E94170665EA70E054
:104940008FE795E00E94CF1A64E376E08FE795E069
:104950000E94BD1A80918102882369F00E94890E0D
:1049600031E7232E33E0332E48EE442E43E0542E1D
:10497000612C712C90C068E970E08FE795E00E948F
:10498000CF1A19E00E94B1051150E1F7E7CF1130BD
:1049900009F42DC286E00E94391B8093EA0310912E
:1049A000AC01113009F071C2811165C261E08CE087
:1049B0000E94621B0E94921DC090E603D090E70304
:1049C000E090E803F090E9039B01AC012C193D094C
:1049D0004E095F0969017A0135E6C316D104E10485
:1049E000F10408F034C20E94921DC090EC03D090F4
:1049F000ED03E090EE03F090EF039B01AC012C1966
:104A00003D094E095F0969017A0140918302509185
:104A1000840228EE33E0429FC001439F900D529FD5
:104A2000900D1124A0E0B0E08C159D05AE05BF05EA
:104A300008F43BC2112309F438C286E00E94391BF6
:104A40008093EA03882309F439C28091EA03813014
:104A500009F467C28091DB03813009F475C280914B
:104A6000DA03813011F40E94AF2080915805813023
:104A700009F4B4C288E596E00E94321D892B09F042
:104A8000FAC28FE795E00E948215892B11F00C94F1
:104A9000F5330E9422168091D903813009F04EC06F
:104AA0008FE00E94391B182F8093E20380E10E945F
:104AB000391B80930001113071F4809149038111F9
:104AC0000AC01093490368EC70E080E090E00E9417
:104AD000CE1B0E94A10A8091000181110FC080911C
:104AE000480381110BC081E08093480368EC70E0BB
:104AF00080E090E00E94CE1B0E94A10A8091E20318
:104B000081110CC080914903882341F01092490320
:104B100068EC70E080E090E00E94CE1B8091000184
:104B2000813061F480914803882341F0109248035A
:104B300068EC70E080E090E00E94CE1B8091D90389
:104B4000823071F58FE00E94391B182F8093E203A9
:104B500080E10E94391B80930001113071F4809133
:104B6000490381110AC01093490368EC70E080E0AA
:104B700090E00E94CE1B0E94A10A80910001811149
:104B80000FC08091480381110BC081E080934803DE
:104B900068EC70E080E090E00E94CE1B0E94A10AC9
:104BA00080917F02813031F48091AC01813009F035
:104BB00058C003C0823009F054C087E00E94391BFE
:104BC0008093E30381111DC080910101811119C0FF
:104BD00081E08093010164E670E080E090E00E9453
:104BE000CE1B62EE70E0CE0101960E94051A41E0F4
:104BF00060E0CE0101960E94B81FCE0101960E948E
:104C0000A7198091E3038130E1F4809101018130A3
:104C1000C1F41092010164E670E080E090E00E942F
:104C2000CE1B6BEC70E0CE0101960E94051A41E0AC
:104C300060E0CE0101960E94B81FCE0101960E944D
:104C4000A7198091E303813061F4809101018230E2
:104C500041F41092010164E670E080E090E00E946F
:104C6000CE1B8091A503811106C01091DE031111A6
:104C70008ECE61E0E8C005E913E08DE9882E83E07F
:104C8000982E92E0A92E91E0B92EE12CF12CDD2492
:104C9000D39425ECC22E80919303909170039111CF
:104CA000FCCFD0927003D0926F033FEF30936E032E
:104CB00010926D0310926C03D0926B0390916B0372
:104CC000880F892B80936B0380916A03813069F48C
:104CD00010926A0380916B038093BB008091BC00AB
:104CE00083FDF8CFC092BC0003C045EE4093BC00EA
:104CF000809170038130E1F380916D03811103C0D5
:104D000080916D0301C081E0AAE4B3E0E1E7F3E044
:104D10009E2F9219981718F49D919193F9CF1092A4
:104D2000910380939203882329F08CE196E00E94FE
:104D30004A1C01C080E0F40121914F0190E00E2C4B
:104D400002C0959587950A94E2F78170F8012813BF
:104D500035C0808181113DC0D08264E670E080E082
:104D600090E00E94CE1B80918002813021F460E0AF
:104D70008CE00E94621BF501838994890E940A22BB
:104D800068E276E0CE0101960E940E1A69E575E0B0
:104D9000CE0101960E94EC18BC01CE0142960E9401
:104DA0000E1ACE0142960E94E422CE0142960E9443
:104DB000A719CE0101960E94A7190BC080818130EE
:104DC00041F4F801108264E670E080E090E00E9417
:104DD000CE1BFFEFEF1AFF0A0F5F1F4F25E1A20E58
:104DE000B11C38E0E316F10409F055CF3ECF0E9424
:104DF000921DC090E603D090E703E090E803F090A6
:104E0000E9039B01AC012C193D094E095F096901B9
:104E10007A0135E6C316D104E104F10408F4BACDF1
:104E20006093E6037093E7038093E8039093E903AC
:104E30008091E403811103C01093E40302C0109237
:104E4000E4036091E4038BE00E94621BA3CD6093B6
:104E5000E6037093E7038093E8039093E90380915E
:104E6000E503811103C01093E50302C01092E5032E
:104E70006091E50308C0813009F0B5CD61E08CE0B8
:104E80000E94621B60E08AE00DC01111ACCD61E0B0
:104E90008AE00E94621B80918002813009F0A3CDDC
:104EA00060E08CE00E94621B9ECD60E084E00E9486
:104EB000621B61E085E00E94621BBFCD8091AA0168
:104EC0008111C3CD81E08093AA0164E670E080E0A7
:104ED00090E00E94CE1B80918002813021F460E03E
:104EE0008CE00E94621B68E276E0CE0142960E944E
:104EF0000E1A6DEF70E0CE0142960E945B18BC0165
:104F0000CE0101960E940E1ACE0101960E94E42263
:104F1000CE0101960E94A719CE0142960E94A719C0
:104F200094CD8091AA01813009F094CD1092AA010C
:104F300064E670E080E090E00E94CE1B19E00E94E1
:104F4000B1051150E1F786CD8EE00E94391B8093A8
:104F5000EB03813089F59091AB0191112DC08093C5
:104F6000AB0164E670E080E090E00E94CE1B80918F
:104F70008002813021F460E08CE00E94621B68E2D4
:104F800076E0CE0101960E940E1A6AE071E0CE0131
:104F900001960E945B18BC01CE0142960E940E1A37
:104FA000CE0142960E94E422CE0142960E94A719A9
:104FB000CE0101960E94A7198091EB0381114FCD7C
:104FC0008091AB01813009F04ACD1092AB0164E6CB
:104FD00070E080E090E00E94CE1B41CD0E94921DC7
:104FE00000915405109155052091560530915705B3
:104FF000601B710B820B930BA30192010E9411376E
:105000008091DC0390E0A0E0B0E082179307A40752
:10501000B50708F02FCD61E084E00E94621B60E0DC
:1050200085E00E94621B0E94921D6093EC037093C6
:10503000ED038093EE039093EF034091520510919E
:10504000530562E576E0CE0101964EAB0E940E1A42
:105050008091AC014EA9813011F0413029F4612FCB
:10506000CE0101960E94B81FCE0101960E94A71999
:1050700010925805FFCC88E596E00E94321D892BDE
:1050800079F088E596E00E944A1D8093E1030E9432
:105090001B236AE070E080E090E00E94CE1BEBCF23
:1050A0008091E003823011F412E001C011E06FE959
:1050B00073E0CE0101960E94051ABE016F5F7F4F1B
:1050C00086E496E00E940F187C01CE0101960E94B2
:1050D000A719F7FCDFC06DE973E0CE0142960E948C
:1050E000051ABE016E5E7F4F86E496E00E940F189F
:1050F0004AE0BC01CE0101960E94AC19CE01019696
:105100000E94FF166B017C0167EC72E0CE014E96A7
:105110000E94171ABE01625E7F4F86E496E00E94ED
:105120000F184AE0BC01CE0148960E94AC19CE018E
:1051300048960E94FF16960121503109412F50E0F8
:10514000460F571F66E476E0CE0184960E942C1A23
:10515000CE0148960E94A719CE014E960E94A7192B
:10516000CE0101960E94A719CE0142960E94A7196E
:1051700060E973E08FE795E00E94801ABE016C5DE4
:105180007F4F8FE795E00E94BD1ABE016C5D7F4F97
:10519000CE0142960E940E1A67EB73E08091C00127
:1051A0009091C1010E94921FBC01CE0101960E9404
:1051B000171ACE0101960E94D121182FCE01019617
:1051C0000E94A719112389F141E150E066EA73E0DA
:1051D000CE0142960E94C12266EA73E08091C0012E
:1051E0009091C1010E946C208091C0019091C101F9
:1051F00061E042960E949F208091C0019091C10180
:1052000061E043960E949F2066E171E08FE795E0A0
:105210000E94801ABE016E5E7F4F8FE795E00E946C
:10522000BD1A0E94890E0E94B105CE0142960E94CD
:10523000A719BE016C5D7F4FCE0101960E940E1A28
:10524000CE0101960E94CD05182FCE0101960E9435
:10525000A71960ED77E080E090E0113069F40E94DA
:10526000CE1B67E271E088E596E00E94CF1A1093AA
:10527000DF030E94A20508C00E94CE1B67E271E016
:1052800088E596E00E94CF1ACE0184960E94A71965
:105290000C94E3336AE873E0CE0101960E94051A8C
:1052A000BE016F5F7F4F86E496E00E940F188C016D
:1052B000CE0101960E94A71917FF02C00C942A3351
:1052C00066E476E08FE795E00E94BD1A8091E003E6
:1052D0008D7F813009F057C067E873E0CE014896B2
:1052E0000E94051ABE01685E7F4F86E496E00E9428
:1052F0000F184AE0BC01CE0142960E94AC19CE01C3
:1053000042960E94FF166B017C0161EC72E0CE01B7
:1053100084960E94171ABE016C5D7F4F86E496E06A
:105320000E940F184AE0BC01CE014E960E94AC19B3
:10533000CE014E960E94FF16960121503109AB0115
:10534000485F5F4F66E476E0CE0101960E942C1A1A
:10535000BE016F5F7F4F80E496E00E946E19CE0120
:1053600001960E94A719CE014E960E94A719CE0160
:1053700084960E94A719CE0142960E94A719CE01D9
:1053800048960E94A7198091E003823009F057C027
:1053900064E873E0CE0148960E94051ABE01685E7B
:1053A0007F4F86E496E00E940F184AE0BC01CE01D0
:1053B00042960E94AC19CE0142960E94FF166B01E4
:1053C0007C0161EC72E0CE0184960E94171ABE0146
:1053D0006C5D7F4F86E496E00E940F184AE0BC01A6
:1053E000CE014E960E94AC19CE014E960E94FF1639
:1053F000960121503109AB01485F5F4F66E476E0CA
:10540000CE0101960E942C1ABE016F5F7F4F80E48F
:1054100096E00E946E19CE0101960E94A719CE0156
:105420004E960E94A719CE0184960E94A719CE011C
:1054300042960E94A719CE0148960E94A71968E7D4
:1054400073E08FE795E00E94801A60E476E08FE7D2
:1054500095E00E94BD1A60E476E0CE0101960E94BC
:105460000E1ACE0101960E94CD05182FCE0101968D
:105470000E94A719113011F00C94E33360E476E038
:10548000CE0142960E940E1A67EB73E08091C00134
:105490009091C1010E94921FBC01CE0101960E9411
:1054A000171ABE016E5E7F4FCE0101960E94291829
:1054B000082FCE0101960E94A719CE0142960E94A4
:1054C000A71901111093F00381E08093DF030E947C
:1054D00006238091F003813009F0D4C661E573E0C2
:1054E000CE0101960E94051ABE016F5F7F4F86E4D0
:1054F00096E00E940F188C01CE0101960E94A71918
:1055000017FD0EC066E476E0CE0101960E940E1AE9
:10551000CE0101960E94D112CE0101960E94A719D8
:1055200065E473E0CE0101960E94051ABE016F5F2B
:105530007F4F86E496E00E940F188C01CE01019601
:105540000E94A71917FD0EC066E476E0CE01019611
:105550000E940E1ACE0101960E948311CE0101967F
:105560000E94A7196AE373E0CE0101960E94051A12
:10557000BE016F5F7F4F86E496E00E940F188C019A
:10558000CE0101960E94A71917FDD3C069EC72E005
:10559000CE0142960E94171ABE016E5E7F4F86E4CE
:1055A00096E00E9405184AE0BC01CE0101960E94D7
:1055B000AC19CE0101960E94FF16AB014F5F5F4F01
:1055C00066E476E0CE0184960E94CA0ACE01019676
:1055D0000E94A719CE0142960E94A71964E173E0C8
:1055E000CE0101960E94171A63E173E0CE01429644
:1055F0000E94171AAE014F5F5F4FBE016E5E7F4F74
:10560000CE0184960E940A17CE0142960E94A719E5
:10561000CE0101960E94A7196BEC72E0CE01429672
:105620000E94171ABE016E5E7F4FCE0184960E94C3
:105630000F184AE0BC01CE0101960E94AC19CE01C0
:1056400001960E94FF169B0140E050E0BE016C5D98
:105650007F4FCE014E960E942C1ACE0101960E94D9
:10566000A719CE0142960E94A7196BEC72E0CE01F9
:1056700042960E94171ABE016E5E7F4F86E496E046
:105680000E9405184AE0BC01CE0101960E94AC19A7
:10569000CE0101960E94FF16AB014F5F5F4F66E49B
:1056A00076E0CE0148960E94CA0ACE0101960E9479
:1056B000A719CE0142960E94A719CE0148960E94D2
:1056C000FF16162FBE01625E7F4FCE0101960E942B
:1056D0000E1A41E150E068EC73E0CE0101960E94A1
:1056E000C12268EC73E08EE190E00E946C20612F93
:1056F00080E390E00E949F2061E081E390E00E94BF
:105700009F200E94390A8FE795E00E94B91A0E94F3
:10571000B105CE0101960E94A719CE0148960E94BC
:10572000A719CE014E960E94A719CE0184960E9419
:10573000A71960E373E0CE0101960E94051ABE012D
:105740006F5F7F4F86E496E00E940F188C01CE01B8
:1057500001960E94A71917FD81C069EC72E0CE0185
:1057600042960E94171ABE016E5E7F4F86E496E055
:105770000E9405184AE0BC01CE0101960E94AC19B6
:10578000CE0101960E94FF16AB014F5F5F4F66E4AA
:1057900076E0CE0148960E94CA0ACE0101960E9488
:1057A000A719CE0142960E94A71964E173E0CE01C9
:1057B00001960E94171A63E173E0CE0142960E949F
:1057C000171AAE014F5F5F4FBE016E5E7F4FCE0175
:1057D00048960E940A17CE0142960E94A719CE0150
:1057E00001960E94A719BE01685E7F4FCE014296C6
:1057F0000E940E1ACE0142960E94FF16DC01CB01D8
:105800000197A109B109CC97A105B10510F00C943D
:105810001A34CE0142960E94FF16162F8FE090E0B8
:105820000E949F20109385026FE271E08FE795E060
:105830000E94801A8FE090E00E941A0E6AE070E0E9
:105840000E9467220E94890E0E94B105CE014296F5
:105850000E94A719CE0148960E94A7196FE173E034
:10586000CE0101960E94051ABE016F5F7F4F86E44C
:1058700096E00E940F188C01CE0101960E94A71994
:1058800017FD7DC069EC72E0CE0142960E94171AA6
:10589000BE016E5E7F4F86E496E00E9405184AE0E6
:1058A000BC01CE0101960E94AC19CE0101960E9466
:1058B000FF16AB014F5F5F4F66E476E0CE0148967E
:1058C0000E94CA0ACE0101960E94A719CE014296F3
:1058D0000E94A71964E173E0CE0101960E94171A95
:1058E00063E173E0CE0142960E94171AAE014F5F4A
:1058F0005F4FBE016E5E7F4FCE0148960E940A1731
:10590000CE0142960E94A719CE0101960E94A719C6
:10591000BE01685E7F4FCE0142960E940E1ACE01F4
:1059200042960E94FF166F3F71058105910511F0A7
:1059300008F094C7CE0142960E94FF16162F85E10B
:1059400090E00E949F201093DD036EE371E08FE7EB
:1059500095E00E94801A85E190E00E941A0E6AE0AC
:1059600070E00E9467220E94890E0E94B105CE015C
:1059700042960E94A719CE0148960E94A7196EE090
:1059800073E0CE0101960E94051ABE016F5F7F4F42
:1059900086E496E00E940F188C01CE0101960E94C9
:1059A000A71917FD7DC069EC72E0CE0142960E94F6
:1059B000171ABE016E5E7F4F86E496E00E940518BE
:1059C0004AE0BC01CE0101960E94AC19CE010196BD
:1059D0000E94FF16AB014F5F5F4F66E476E0CE0199
:1059E00048960E94CA0ACE0101960E94A719CE01CC
:1059F00042960E94A71964E173E0CE0101960E94CD
:105A0000171A63E173E0CE0142960E94171AAE01A5
:105A10004F5F5F4FBE016E5E7F4FCE0148960E9482
:105A20000A17CE0142960E94A719CE0101960E9444
:105A3000A719BE01685E7F4FCE0142960E940E1AE2
:105A4000CE0142960E94FF166F3F710581059105B8
:105A500011F008F016C7CE0142960E94FF16162FCD
:105A600086E190E00E949F201093DC0364E571E0E2
:105A70008FE795E00E94801A86E190E00E941A0E5E
:105A80006AE070E00E9467220E94890E0E94B105C0
:105A9000CE0142960E94A719CE0148960E94A719EE
:105AA00061E073E0CE0101960E94051ABE016F5FAE
:105AB0007F4F86E496E00E940F188C01CE0101967C
:105AC0000E94A71917FD6BC069EC72E0CE014296E7
:105AD0000E94171ABE016E5E7F4F86E496E00E9418
