:100000000C945A040C9482040C9482040C948B1368
:100010000C948B130C948B130C9482040C94820418
:100020000C9482040C9482040C9482040C94820438
:100030000C9482040C9482040C9482040C94820428
:100040000C9413120C9482040C946A1B0C94441BA1
:100050000C9482040C9482040C9482040C94820408
:100060000C945D120C9482044C6F6164206465668C
:1000700061756C742073656E736F72206461746156
:100080002E0044656C6574696E672073656E736FCE
:100090007220646174612E0053696C656E74206D0A
:1000A0006F64652100537461727420776F726B699D
:1000B0006E672E002E00496E697420706172616D4A
:1000C000732E0047534D20416C61726D2031372EE5
:1000D000303400506F77657220737570706C7920C2
:1000E000726573746F7265642100506F776572205A
:1000F000737570706C7920646973636F6E6E65637D
:1001000074656421004D61696E2073656E736F7252
:1001100021005049522073656E736F722100507236
:10012000696D6172792070686F6E653A202B0041AD
:10013000542B4348555000506175736554696D6583
:100140002069733A200044656C61794265666F727C
:100150006547756172642069733A200044656C617B
:10016000794265666F7265416C61726D2069733AA0
:10017000200057617463682074686520706F77652C
:1001800072206F66660047756172642062757474D0
:100190006F6E206F6E2F6F6666206D6F646500470F
:1001A0007561726420627574746F6E206F6E206D5D
:1001B0006F646500477561726420627574746F6E58
:1001C000206F66660041542B435553443D312C2229
:1001D000006C65646F6666006C65646F6E007465C4
:1001E00073746F666600746573746F6E00636C651C
:1001F0006172736D730020006F6E2E006F66662E45
:1002000000496E666F3A205049522000696E666F51
:100210000067756172646F66660067756172646F0E
:100220006E007061757365006D6F6E657900656451
:10023000697473656E736F7200677561726462755D
:1002400074746F6E6F666600677561726462757450
:10025000746F6E6F6E32006775617264627574746C
:100260006F6E6F6E31007761746368706F7765725F
:100270006F6666007761746368706F7765726F6E22
:1002800032007761746368706F7765726F6E3100EA
:10029000504952204F6666007069726F6666005062
:1002A0004952204F6E007069726F6E00536D73205B
:1002B0004F666600736D736F666600536D73204FF3
:1002C0006E00736D736F6E0052696E67204F6666C5
:1002D0000072696E676F66660052696E67204F6EC6
:1002E0000072696E676F6E007265736574636F6E1E
:1002F00066696700726573657470686F6E65006625
:10030000756C6C726573657400616C61726D706997
:100310006E74696D650064656C61796265666F72A3
:1003200065616C61726D0064656C61796265666FB0
:100330007265677561726400736C65657074696D70
:10034000650062616C616E63656E756D0064656CFD
:1003500065746570686F6E650061646470686F6E67
:10036000650041542B435553443D3000555353448D
:100370002071756572793A20002B435553443A0039
:10038000534D532066726F6D3A202B002C22002CA7
:100390002C002B434D543A0052696E672066726FF1
:1003A0006D3A202B002C0052494E47002B504252F0
:1003B00045414459004C656E67746820746F207223
:1003C000657475726E3A20004E756D6265723A20E2
:1003D000004C6F61642064656661756C74206261B5
:1003E0006C616E636520646174612E0044656C65A8
:1003F00074696E672062616C616E6365206461740C
:10040000612E00416C61726D496E74657276616C2B
:100410002069733A20004C6F6164206465666175E1
:100420006C742070686F6E6520646174612E004486
:10043000656C6574696E672070686F6E65206461B5
:1004400074612E005265616420617272617920705E
:10045000686F6E653A004775617264427574746FB7
:100460006E456E61626C653A200057617463684541
:100470007874506F7765723A200050495247756121
:1004800072643A2000416C61726D496E74657276D7
:10049000616C3A2000506175736554696D653A204E
:1004A0000047756172643A20004C65644F6E3A20D3
:1004B000004C6564546573744F6E3A2000416C6162
:1004C000726D52696E673A200053656E64536D73A6
:1004D0003A20005265616420656570726F6D636FCC
:1004E0006E6669673A004C6F616420646566617589
:1004F0006C7420656570726F6D636F6E66696720DE
:10050000646174612E0044656C6574696E67206572
:100510006570726F6D636F6E666967206461746188
:100520002E004154453000415445310041542B4385
:100530004E4D493D322C320041542B435343533DE1
:100540002247534D220041542B434D47463D310035
:1005500041542B434C49503D310041360053494DE5
:10056000383030004D353930004154490041540095
:100570004775617264204F6666004775617264203A
:100580004F66662E20427574746F6E0047756172F7
:1005900064204F6E004775617264204F6E2E2042BA
:1005A0007574746F6E006661696C65642E007061AD
:1005B000737365642E005465737420004661696C22
:1005C00065642063656C6C3A2000420045455052DA
:1005D0004F4D3A200043757272656E742049442075
:1005E0003D20004E6F206D6F64656D2E0053494DA8
:1005F0003830304C004D3539306500456D756C61D3
:1006000074653A200050726576696F7573204944AD
:10061000203D20007761746368706F7765726F6644
:1006200066007761746368706F7765726F6E320011
:100630007761746368706F7765726F6E310067758C
:10064000617264627574746F6E6F6666006775615F
:100650007264627574746F6E6F6E3200677561726A
:1006600064627574746F6E6F6E31006C697374734D
:10067000656E736F72006C697374636F6E66696721
:10068000006564697473656E736F720069326373B9
:1006900063616E0064656C65746570686F6E65009B
:1006A00061646470686F6E65003D006D6F64656DB8
:1006B0006964006D656D746573740066756C6C7249
:1006C0006573657400726573657470686F6E65003C
:1006D0007265736574636F6E666967006C697374C5
:1006E00070686F6E6500636C656172736D7300573F
:1006F000617463682074686520706F776572206F1D
:100700006E00220041542B434D47533D22003B00D5
:100710004154442B0000000000240027002A000060
:1007200000000800020100000304070000000000B0
:1007300000000050686F6E652061646465642E007F
:100740004572726F722C20746869732070686F6EC6
:100750006520616C72656164792065786973747372
:1007600020696E207468652063656C6C3A200045D2
:1007700072726F722C2077726F6E67206E756D6269
:100780006572206F662063656C6C732E0045727213
:100790006F722C2066697273742072656769737456
:1007A00065722061207072696D6172792070686F66
:1007B0006E652E004572726F722064656C65746997
:1007C0006E672070686F6E653A202B0044656C651B
:1007D00074652070686F6E653A202B00534D53206E
:1007E00072656D6F766564003400302C34004154BE
:1007F0002B434D47443D004932432064657669638D
:100800006573206E6F7420666F756E6400300045EE
:1008100072726F7220617420307800646574656351
:1008200074656420504346383537340A0030004937
:1008300032432064657669636520617420307800F6
:1008400053656E736F7220646174613A0053656E14
:10085000736F7220646174612073617665642E0029
:100860004572726F722073656E736F72206E756D54
:100870006265720000000000250028002B000000C7
:1008800000002300260029000404040404040404D6
:10089000020202020202030303030303010204082B
:1008A00010204080010204081020010204081020DA
:1008B00085354D3511241FBECFEFD8E0DEBFCDBF4B
:1008C00013E0A0E0B1E0E2E4F5E702C005900D928C
:1008D000A834B107D9F726E0A8E4B3E001C01D921F
:1008E000A936B207E1F714E0C9E5D4E004C02197C6
:1008F000FE010E943638C835D107C9F70E9441234E
:100900000C94943A0C9400000F931F93CF93DF93B1
:10091000CDB7DEB762970FB6F894DEBF0FBECDBF7E
:10092000082F162F68EE73E080E090E00E94CD1152
:1009300010938102612F83E190E00E9460140130E6
:1009400059F56EEF72E0CE0107960E947A1A6EE2B8
:1009500076E0CE0107960E946819BC01CE010D9683
:100960000E94711A6FEE76E0CE0101960E94681A1D
:1009700040E0BE01635F7F4FCE0101960E9472147A
:10098000CE0101960E940A1ACE010D960E940A1A03
:10099000CE0107960E940A1A68EE73E080E090E0AC
:1009A0000E94CD1162960FB6F894DEBF0FBECDBF88
:1009B000DF91CF911F910F910895EF92FF920F93C6
:1009C0001F93CF93DF93CDB7DEB768970FB6F89438
:1009D000DEBF0FBECDBF11E01093AD0161E08EE030
:1009E00090E00E9460141093AC016BED72E0CE01B8
:1009F00001960E947A1A6EE276E0CE0101960E947C
:100A00006819BC0188E296E00E94BA19CE010196ED
:100A10000E940A1A8091F003813031F465E975E093
:100A200088E296E00E947B1968E276E083E795E031
:100A30000E94201B68EE73E080E090E00E94CD11E0
:100A40000FEA11E0F801E388F488C70143960E9499
:100A50007014813009F061C06BEB73E0C7010E9434
:100A60000714BC01CE0101960E947A1ABE016F5F85
:100A70007F4F8EE296E00E948C18F82ECE010196F0
:100A80000E940A1AF1101092E00368EE73E080E011
:100A900090E00E94CD116BEB73E0F801838994899B
:100AA0000E940714BC01CE010D960E947A1A6EEFC7
:100AB00072E0CE0107960E947A1ABE01635F7F4FF3
:100AC000CE0107960E946819BC01CE0143960E9490
:100AD000711A68E276E0CE0101960E94711A40E038
:100AE000BE016D5E7F4FCE0101960E947214CE0151
:100AF00001960E940A1ACE0143960E940A1ACE015C
:100B000007960E940A1ACE010D960E940A1A68EEF4
:100B100073E080E090E00E94CD110B5E1F4FF2E089
:100B200001381F0709F08ECF8091E0038130B9F5BD
:100B300068EE73E080E090E00E94CD116EEF72E00D
:100B4000CE0107960E947A1A6EE276E0CE010796F1
:100B50000E946819BC01CE010D960E94711A6CE8C2
:100B600075E0CE0101960E94681A40E0BE01635F05
:100B70007F4FCE0101960E947214CE0101960E9411
:100B80000A1ACE010D960E940A1ACE0107960E94FB
:100B90000A1A68EE73E080E090E00E94CD1168963A
:100BA0000FB6F894DEBF0FBECDBFDF91CF911F917E
:100BB0000F91FF90EF900895EF92FF920F931F9384
:100BC000CF93DF93CDB7DEB768970FB6F894DEBF4B
:100BD0000FBECDBF1092AD0160E08EE090E00E94AC
:100BE00060146DEE72E0CE0101960E947A1A6EE2F8
:100BF00076E0CE0101960E946819BC0188E296E079
:100C00000E94BA19CE0101960E940A1A8091F0033F
:100C1000813031F46AE775E088E296E00E947B1942
:100C200068E276E083E795E00E94201B68EE73E0BF
:100C300080E090E00E94CD110FEA11E0F801E38816
:100C4000F488C70143960E947014813009F061C096
:100C50006BEB73E0C7010E940714BC01CE01019643
:100C60000E947A1ABE016F5F7F4F8EE296E00E946B
:100C70008C18F82ECE0101960E940A1AF1101092DB
:100C8000E00368EE73E080E090E00E94CD116BEB32
:100C900073E0F801838994890E940714BC01CE0196
:100CA0000D960E947A1A6EEF72E0CE0107960E94AE
:100CB0007A1ABE01635F7F4FCE0107960E946819C2
:100CC000BC01CE0143960E94711A68E276E0CE0123
:100CD00001960E94711A40E0BE016D5E7F4FCE0109
:100CE00001960E947214CE0101960E940A1ACE014A
:100CF00043960E940A1ACE0107960E940A1ACE0154
:100D00000D960E940A1A68EE73E080E090E00E945F
:100D1000CD110B5E1F4FF2E001381F0709F08ECF97
:100D20008091E0038130B9F568EE73E080E090E0F7
:100D30000E94CD116EEF72E0CE0107960E947A1AE2
:100D40006EE276E0CE0107960E946819BC01CE01E2
:100D50000D960E94711A60E775E0CE0101960E941F
:100D6000681A40E0BE01635F7F4FCE0101960E948A
:100D70007214CE0101960E940A1ACE010D960E94AD
:100D80000A1ACE0107960E940A1A68EE73E080E004
:100D900090E00E94CD118091DD03823021F4109209
:100DA00001011092000168960FB6F894DEBF0FBEE5
:100DB000CDBFDF91CF911F910F91FF90EF900895DC
:100DC0008091AD01813011F40C94DC05811102C0D9
:100DD0000C94DD04089561E084E00E94611160E0FC
:100DE00085E00E9461110E9407126093A603709330
:100DF000A7038093A8039093A903089561E08BE073
:100E00000E94611164E670E080E090E00E94CD11E4
:100E100060E08BE00E94611164E670E080E090E0A9
:100E20000E94CD1161E08BE00C9461110E94FE06DE
:100E30000C94FE06DF92EF92FF920F931F93CF93D5
:100E4000DF9300D000D000D0CDB7DEB77C010FEA31
:100E500011E06BEB73E0F801838994890E94071419
:100E6000BC01CE0101960E947A1AB701CE0101960B
:100E70000E948C18D82ECE0101960E940A1AD11019
:100E800008C00B5E1F4FF2E001381F0711F780E02A
:100E90000DC0B7018EE296E00E94BA19F80183896D
:100EA000948942960E947014813059F726960FB6A5
:100EB000F894DEBF0FBECDBFDF91CF911F910F9190
:100EC000FF90EF90DF9008950F931F93CF93DF93E0
:100ED00000D000D000D0CDB7DEB760ED77E080E085
:100EE00090E00E94CD110E9415221092610610928E
:100EF000600610925F0610925E0610925D061092D8
:100F00005C068DE991E09093630680936206909170
:100F10005206963108F057C02DEB30E030935D0655
:100F200020935C062BE931E030935F0620935E0648
:100F30002CE231E030936106209360062091680036
:100F4000983050F031E09E3008F430E081E001C08C
:100F5000880F3A95EAF701C084E0822B80936800FD
:100F6000983038F09E3040F0963148F020E030E084
:100F700008C02DE630E005C02BE630E002C02CE6CC
:100F800030E030935A0620935906983030F481E0CF
:100F900001C0880F9A95EAF70EC0292F30E09E30E5
:100FA00018F42850310902C02E50310981E001C0E7
:100FB000880F2A95EAF780935B06809162069091EC
:100FC00063060197F1F78091600690916106892B85
:100FD00049F1E091F303F091F40386E0E634F80779
:100FE00009F1309739F0A389B4899C91858980955E
:100FF00089238C93809164068E7F8093640610927F
:10100000F1031092F20386E496E09093F403809348
:10101000F303E0915906F0915A06908180915B06A6
:10102000892B80831AE06DE675E086E496E00E94E5
:10103000321B68EC70E080E090E00E94CD1111500E
:1010400091F769E675E086E496E00E94321B6AE05B
:1010500070E080E090E00E94CD1186E496E00E946E
:10106000FD10892B09F460C086E496E00E94FD1013
:10107000892B79F086E496E00E9415118093E203B3
:101080000E942C2364E170E080E090E00E94CD118A
:10109000EBCF64E675E0CE0101960E94681ABE01AE
:1010A0006F5F7F4F8AE396E00E9472188C01CE0139
:1010B00001960E940A1A17FD03C081E08093E103A4
:1010C0006DE575E0CE0101960E94681ABE016F5F62
:1010D0007F4F8AE396E00E9472188C01CE01019640
:1010E0000E940A1A17FD03C082E08093E1036AE5BB
:1010F00075E0CE0101960E94681ABE016F5F7F4FB6
:101100008AE396E00E9472188C01CE0101960E943B
:101110000A1A17FD03C083E08093E1036AE173E0DC
:101120008AE396E00E94A31960E575E086E496E004
:101130000E94321B64E670E080E090E00E94CD11D6
:1011400066E475E086E496E00E94321B64E670E097
:1011500080E090E00E94CD1168E375E086E496E0BF
:101160000E94321B64E670E080E090E00E94CD11A6
:101170006CE275E086E496E00E94321B64E670E063
:1011800080E090E00E94CD118091DF03813019F45E
:1011900067E275E002C062E275E086E496E00E94D4
:1011A000321B26960FB6F894DEBF0FBECDBFDF917F
:1011B000CF911F910F910895BF92CF92DF92EF923E
:1011C000FF920F931F93CF93DF9300D000D000D0F6
:1011D000CDB7DEB764E474E083E795E00E94321B8C
:1011E0008FEAE82E81E0F82E00E010E06BEB73E070
:1011F000F701838994890E940714F701C388D48872
:10120000C60143960E947014B82EC60142960E94F1
:101210007014D82E0F5F1F4F4AE0B801CE0101961F
:101220000E940F1A62E276E0CE0101960E946819D0
:101230006BEB73E00E944F1962E276E00E9468193E
:101240006D2D0E941E1962E276E00E9468196B2DD6
:101250000E941E19BC0183E795E00E94201BCE016D
:1012600001960E940A1AF5E1EF0EF11C0A301105F1
:1012700009F0BCCF0E949C1B26960FB6F894DEBFE7
:101280000FBECDBFDF91CF911F910F91FF90EF90D7
:10129000DF90CF90BF900895EF92FF920F931F932E
:1012A000CF93DF9383E690E00E947014813009F4BD
:1012B00044C06FE274E083E795E00E94321BC4E60D
:1012C000D0E06FEFCE010E9460146AE070E080E031
:1012D00090E00E94CD112196CC3281E0D80789F7A9
:1012E00066E174E083E795E00E94321B0E949C1B3C
:1012F000CFEAD1E000E010E0BE018B899C890E941A
:101300002D14F801E155FE4F7F018B899C8961897D
:1013100042960E9460148B899C89F70162894396EA
:101320000E9460140B5E1F4F6596023D110521F768
:1013300061E083E690E00E94601483E690E00E9402
:101340007014813041F4DF91CF911F910F91FF9084
:10135000EF900C94DC08DF91CF911F910F91FF90DB
:10136000EF900895CF93DF93D82FC92F682F80E196
:1013700090E00E9466376C2F81E190E00E94663712
:10138000D0938502C093860263E074E083E795E022
:101390000E94E31A609185027091860280E090E0DD
:1013A0004AE00E94572283E795E00E941C1B0E949E
:1013B0009C1BDF91CF910C94FE060F931F93CF934C
:1013C000DF9300D000D000D0CDB7DEB780E090E052
:1013D0000E947014813009F45FC066E075E083E715
:1013E00095E00E94321B00E010E06FEFC8010E9400
:1013F00060146AE070E080E090E00E94CD110F5F21
:101400001F4F0E31110589F766EE74E083E795E012
:101410000E94321B0E949C1B61E08AE090E00E94C7
:10142000601461E08BE090E00E94601460E08CE06A
:1014300090E00E94601461E08DE090E00E946014F2
:1014400061E08EE090E00E9460146FE08FE090E039
:101450000E9460148CE390E00E94B20960E082E197
:1014600090E00E94601461E083E190E00E946014CB
:1014700060E084E190E00E94601460E085E190E02B
:101480000E94601460E086E190E00E94601461E0D8
:1014900080E090E00E94601480E090E00E94701470
:1014A000813009F004C163ED74E083E795E00E94A8
:1014B000321B8AE090E00E9470148093830269ECF2
:1014C00074E083E795E00E94E31A80918302082E7E
:1014D000000C990B0E94BB228BE090E00E947014DC
:1014E000809384026DEB74E083E795E00E94E31A39
:1014F00080918402082E000C990B0E94BB228CE084
:1015000090E00E9470148093DF0361EB74E083E746
:1015100095E00E94E31A8091DF03082E000C990BDE
:101520000E94BB228DE090E00E94701480938202A2
:1015300069EA74E083E795E00E94E31A80918202F1
:10154000082E000C990B0E94BB228EE090E00E94B6
:1015500070148093AD0161EA74E083E795E00E9426
:10156000E31A8091AD01082E000C990B0E94BB225A
:101570008FE090E00E9470148093870265E974E028
:1015800083E795E00E94E31A6AE070E080918702A9
:101590000E949A2280E190E00E947014182F81E14D
:1015A00090E00E947014109385028093860265E893
:1015B00074E083E795E00E94E31A609185027091E0
:1015C000860280E090E04AE00E94572283E795E09F
:1015D0000E941C1B82E190E00E9470148093DE0345
:1015E0006AE774E083E795E00E94E31A8091DE03E6
:1015F000082E000C990B0E94BB2283E190E00E9410
:101600007014809381026AE674E083E795E00E949B
:10161000E31A80918102082E000C990B0E94BB22D4
:1016200084E190E00E9470148093DD0366E574E02D
:1016300083E795E00E94E31A8091DD03082E000CF9
:10164000990B0E94BB228091AD018130A9F468E220
:1016500076E0CE0101960E94711A60E073E0CE013F
:1016600001960E944F19BC0188E296E00E94BA19C7
:10167000CE0101960E940A1A8091AD01811115C018
:1016800068E276E0CE0101960E94711A63E073E091
:10169000CE0101960E944F19BC0188E296E00E949B
:1016A000BA19CE0101960E940A1A0E949C1B269626
:1016B0000FB6F894DEBF0FBECDBFDF91CF911F9163
:1016C0000F91089581E390E00E947014813081F1C0
:1016D0006CEE73E083E795E00E94321B61ED73E0EE
:1016E00083E795E00E94321B0E949C1B67E073E039
:1016F00080E496E00E94A31986E18093880241E18C
:1017000050E06CEC73E080E496E00E94F4226CEC14
:1017100073E08EE190E00E942D146091880280E3D6
:1017200090E00E94601461E081E390E00E94601408
:1017300081E390E00E947014813059F56CEC73E005
:101740008EE190E00E940714BC0180E496E00E94C4
:10175000A31980E390E00E9470148093880268ECE3
:1017600073E083E795E00E94E31A60E476E083E7A4
:1017700095E00E94201B65EB73E083E795E00E94F3
:10178000E31A6AE070E0809188020E949A220C9429
:101790009C1B089581E08093F0031092E0030E9467
:1017A000E0061092F0030895EF92FF920F931F93BB
:1017B000CF93DF931F92CDB7DEB77C01FC01008190
:1017C0001181C80169830E945E376981681719F029
:1017D000C8010E946637C7010F90DF91CF911F911A
:1017E0000F91FF90EF900895CF93DF93EC01FB01F1
:1017F000248135810E948F1ACE01DF91CF91089507
:10180000CF92DF92EF92FF920F931F93CF93DF93CC
:10181000CDB7DEB76D970FB6F894DEBF0FBECDBF64
:101820000E94172366EE76E0CE0101960E94681AA8
:10183000BE016F5F7F4F8AE396E00E9472188C01B1
:10184000CE0101960E940A1A17FD08C00E94731E5D
:1018500060ED77E080E090E00E94CD116CED76E0E5
:10186000CE0101960E94681ABE016F5F7F4F8AE326
:1018700096E00E9472188C01CE0101960E940A1A0D
:1018800017FF0E94DC0860ED76E0CE0101960E9411
:10189000681ABE016F5F7F4F8AE396E00E9472185C
:1018A0008C01CE0101960E940A1A17FD07C06FEF46
:1018B00080E090E00E9460140E94DD0965EC76E013
:1018C000CE0101960E94681ABE016F5F7F4F8AE3C6
:1018D00096E00E9472188C01CE0101960E940A1AAD
:1018E00017FD07C06FEF83E690E00E9460140E942E
:1018F0004C096BEB76E0CE0101960E94681ABE019E
:101900006F5F7F4F8AE396E00E9472188C01CE01D0
:1019100001960E940A1A17FD27C06FEF80E090E041
:101920000E9460140E94DD0968EE73E080E090E0A0
:101930000E94CD116FEF83E690E00E9460140E9438
:101940004C0968EE73E080E090E00E94CD116FEFEB
:1019500081E390E00E9460140E94620B68EE73E0E5
:1019600080E090E00E94CD1163EB76E0CE0101961D
:101970000E94681ABE016F5F7F4F8AE396E00E9463
:1019800072188C01CE0101960E940A1A17FD93C0AD
:101990000E94B9362DEF30E040E050E00E947437ED
:1019A00082E0F82EF60E6CEC75E083E795E00E947D
:1019B000E31A4AE060E074E080E090E00E94572281
:1019C0006AEC75E083E795E00E94321B00E010E0CE
:1019D0006F2DC8010E94663765E070E080E090E0FE
:1019E0000E94CD110F5F1F4F011584E0180781F78A
:1019F000C12CD12C00E010E0C8010E9470148F159A
:101A0000F1F16CEB75E083E795E00E94E31AC80101
:101A10000E947014E82E1B8A1A8A1D8A1C8A1F8A4B
:101A20001E8A4AE0BE016F5F7F4FC8010E943437B3
:101A3000BE016F5F7F4FCE0142960E94A319BE0187
:101A40006E5E7F4FCE0101960E94711A62E276E0CF
:101A5000CE0101960E9468196E2D0E941E19BC01CC
:101A600083E795E00E94201BCE0101960E940A1A8E
:101A7000CE0142960E940A1A8FEFC81AD80A65E072
:101A800070E080E090E00E94CD110F5F1F4F0115C4
:101A900084E0180709F0B0CF66EB75E083E795E0C6
:101AA0000E94E31ACD2809F008C26EEA75E083E7C8
:101AB00095E00E94321B6BEA76E0CE0101960E940F
:101AC000681ABE016F5F7F4F8AE396E00E9472182A
:101AD0008C01CE0101960E940A1A17FD77C069EAAF
:101AE00076E0CE0142960E94681ABE016E5E7F4F7C
:101AF0008AE396E00E9468184AE0BC01CE0148964D
:101B00000E940F1ACE0148960E946217AB014F5FE8
:101B10005F4F6AE376E0CE0101960E94F40BCE019E
:101B200048960E940A1ACE0142960E940A1ACE01D5
:101B300001960E946217DC01CB010197A109B1094E
:101B40000A97A105B10508F0BBC1CE0101960E941C
:101B50006217162F65E076E083E795E00E94E31AAE
:101B60008091E103082E000C990B0E94BB226BEFC1
:101B700075E083E795E00E94E31A113029F4109391
:101B8000E10365EF75E00BC0123029F41093E10317
:101B90006DEE75E004C01092E10363EE75E083E73B
:101BA00095E00E94321B65ED75E083E795E00E94A9
:101BB000E31A8091E103082E000C990B0E94BB22CE
:101BC0000E949C1BCE0101960E940A1A60EA76E0F0
:101BD000CE0101960E94681ABE016F5F7F4F8AE3B3
:101BE00096E00E9472188C01CE0101960E940A1A9A
:101BF00017FD0EC06AE376E0CE0101960E94711ACD
:101C0000CE0101960E94EA1FCE0101960E940A1A97
:101C100064E976E0CE0101960E94681ABE016F5F0A
:101C20007F4F8AE396E00E9472188C01CE010196E4
:101C30000E940A1A17FD0EC06AE376E0CE010196F3
:101C40000E94711ACE0101960E949C1ECE0101963F
:101C50000E940A1A6CE876E0CE0101960E94681A8A
:101C6000BE016F5F7F4F8AE396E00E9472188C017D
:101C7000CE0101960E940A1A17FF0E94751D61E8A5
:101C800076E0CE0101960E94681ABE016F5F7F4F19
:101C90008AE396E00E9472188C01CE0101960E94A0
:101CA0000A1A17FD0EC06AE376E0CE0101960E9483
:101CB000711ACE0101960E94FC1BCE0101960E9472
:101CC0000A1A66E776E0CE0101960E94681ABE0104
:101CD0006F5F7F4F8AE396E00E9472188C01CE01FD
:101CE00001960E940A1A17FD04C00E94DD090E9495
:101CF000620B6BE676E0CE0101960E94681ABE0187
:101D00006F5F7F4F8AE396E00E9472188C01CE01CC
:101D100001960E940A1A17FF0E94A01B6CE576E04C
:101D2000CE0101960E94681ABE016F5F7F4F8AE361
:101D300096E00E9472188C01CE0101960E940A1A48
:101D400017FD14C068EE73E080E090E00E94CD11B2
:101D500081E08093DD0361E084E190E00E94601403
:101D600068EE73E080E090E00E94CD116DE476E0D3
:101D7000CE0101960E94681ABE016F5F7F4F8AE311
:101D800096E00E9472188C01CE0101960E940A1AF8
:101D900017FD14C068EE73E080E090E00E94CD1162
:101DA00082E08093DD0362E084E190E00E946014B1
:101DB00068EE73E080E090E00E94CD116EE376E083
:101DC000CE0101960E94681ABE016F5F7F4F8AE3C1
:101DD00096E00E9472188C01CE0101960E940A1AA8
:101DE00017FD13C068EE73E080E090E00E94CD1113
:101DF0001092DD0360E084E190E00E94601468EEE0
:101E000073E080E090E00E94CD1160E376E0CE01C7
:101E100001960E94681ABE016F5F7F4F8AE396E0C9
:101E20000E9472188C01CE0101960E940A1A17FDB9
:101E300004C061E080E00E94840462E276E0CE01AA
:101E400001960E94681ABE016F5F7F4F8AE396E099
:101E50000E9472188C01CE0101960E940A1A17FD89
:101E600004C062E080E00E94840464E176E0CE0178
:101E700001960E94681ABE016F5F7F4F8AE396E069
:101E80000E9472188C01CE0101960E940A1A17FD59
:101E90002DC068EE73E080E090E00E94CD111092BA
:101EA000810260E083E190E00E94601468EE73E0DC
:101EB00080E090E00E94CD1119C066EA75E0F7CD90
:101EC0006091E103062E000C770B4AE0CE014296AA
:101ED0000E940F1ABE016E5E7F4FCE0101960E94D6
:101EE000D119CE0142960E940A1A2FCE6D960FB6D6
:101EF000F894DEBF0FBECDBFDF91CF911F910F9140
:101F0000FF90EF90DF90CF900895833081F028F418
:101F1000813099F08230A1F008958730A9F088309F
:101F2000B9F08430D1F4809180008F7D03C080911E
:101F300080008F7780938000089584B58F7702C0EA
:101F400084B58F7D84BD08958091B0008F7703C0E4
:101F50008091B0008F7D8093B00008953FB7F894D2
:101F60008091220590912305A0912405B09125052B
:101F700026B5A89B05C02F3F19F00196A11DB11DE4
:101F80003FBFBA2FA92F982F8827820F911DA11D1F
:101F9000B11DBC01CD0142E0660F771F881F991F5C
:101FA0004A95D1F7089585ED8093BC008091BC00DF
:101FB00084FDFCCF1092700308954091F804262F01
:101FC00030E0240F311D21323105DCF42091700303
:101FD0002430C9F4FC0180E090E0861758F4309179
:101FE000F8042191DC01AA52BB4FA30FB11D2C9321
:101FF0000196F3CF8091F804680F6093F80480E0B5
:10200000089581E0089582E008950895E091910394
:1020100080919203E81730F4F0E0EF58FC4F808194
:1020200090E008958FEF9FEF089590919103809134
:102030009203981750F4E92FF0E0EF58FC4F2081FD
:1020400030E09F5F9093910302C02FEF3FEFC901F3
:1020500008958091920390E020919103821B910951
:102060000895CF92DF92EF92FF920F931F93CF9339
:10207000DF937C01262F972F8A01809115048823F6
:1020800091F0C62FD72F6E01C40ED51ECC15DD05DD
:1020900071F06991D701ED91FC910190F081E02DF3
:1020A000C7010995F3CF642F822F0E94DD0FC8016D
:1020B000DF91CF911F910F91FF90EF90DF90CF9024
:1020C0000895CF93DF931F92CDB7DEB76983209138
:1020D00015042223D1F020914803203240F021E062
:1020E00030E0FC013383228380E090E015C08091D2
:1020F0004903E82FF0E0EB50FC4F998190838F5F0C
:10210000809349038093480305C061E0CE010196A6
:102110000E94DD0F81E090E00F90DF91CF91089554
:102120002091F3033091F4032817390771F490914B
:10213000F2038091F103981741F0E091F203F0E08F
:10214000EA5EFB4F808190E008958FEF9FEF089546
:1021500008951F93CF93DF93DC015C962D913C9102
:102160005D972115310539F481E090E013969C9339
:102170008E9312973DC05196ED91FC9152975096D7
:102180009C915097892F80951FB75E964C915E97D2
:1021900041FB772770F941FD6095F89440817723E2
:1021A00011F0492B01C048234083E9012197F1F741
:1021B00048E0508160FF02C0592B01C05823508372
:1021C000E9012197F1F76695415099F7772321F0BE
:1021D00090818923808303C08081982B90831FBFC7
:1021E0005C968D919C915D970197F1F721E030E02D
:1021F000C901DF91CF911F9108952091F303309190
:10220000F4032817390771F48091F1032091F20348
:1022100090E080549F4F821B910960EC70E00E9417
:102220000E38089580E090E008952091F3033091F6
:10223000F40328173907C9F49091F2038091F10350
:10224000981799F0E091F203F0E0EA5EFB4F2081ED
:102250008091F20390E0019660EC70E00E940E38ED
:102260008093F203822F90E008958FEF9FEF0895FF
:10227000CF93DF93282F30E0F901E15EF84F84918E
:10228000F901E456F74FD491F901E857F74FC4919B
:10229000CC2391F081110E94850FEC2FF0E0EE0F1E
:1022A000FF1FE258F74FA591B491EC91ED2381E027
:1022B00090E021F480E002C080E090E0DF91CF91D7
:1022C00008951F93CF93DF93282F30E0F901E15E4B
:1022D000F84F8491F901E456F74FD491F901E8578A
:1022E000F74FC491CC23C9F0162F81110E94850F9E
:1022F000EC2FF0E0EE0FFF1FEC58F74FA591B491D3
:102300008FB7F894111105C09C91ED2FE095E9234A
:1023100002C0EC91ED2BEC938FBFDF91CF911F9119
:102320000895CF93DF9390E0FC01E456F74F24919A
:10233000FC01E857F74F8491882361F190E0880F02
:10234000991FFC01EB5EF84FC591D491FC01EC584C
:10235000F74FA591B491611109C09FB7F894888196
:10236000209582238883EC912E230BC0623061F488
:102370009FB7F8943881822F809583238883EC91CE
:102380002E2B2C939FBF06C08FB7F894E8812E2B7D
:1023900028838FBFDF91CF9108958F929F92AF9244
:1023A000BF92CF92DF92EF92FF926B017C010E946D
:1023B000AE0F4B015C01C114D104E104F104F1F052
:1023C0000E94AE0FDC01CB0188199909AA09BB094B
:1023D000883E9340A105B10570F321E0C21AD108EF
:1023E000E108F10888EE880E83E0981EA11CB11C5C
:1023F000C114D104E104F10419F7DDCFFF90EF908F
:10240000DF90CF90BF90AF909F908F9008952FB79F
:10241000F89460911E0570911F05809120059091A0
:1024200021052FBF08951F920F920FB60F9211240E
:102430002F933F938F939F93AF93BF9380911E05EC
:1024400090911F05A0912005B091210530911D05A7
:1024500023E0230F2D3720F40196A11DB11D05C0E7
:1024600026E8230F0296A11DB11D20931D05809320
:102470001E0590931F05A0932005B0932105809120
:10248000220590912305A0912405B0912505019680
:10249000A11DB11D8093220590932305A0932405CF
:1024A000B0932505BF91AF919F918F913F912F914F
:1024B0000F900FBE0F901F9018951F920F920FB69E
:1024C0000F9211242F933F934F935F936F937F93BA
:1024D0008F939F93AF93BF93EF93FF938091B90036
:1024E000887F803609F49CC068F5883209F45BC0A7
:1024F00090F4803109F454C038F4882309F4F6C00C
:10250000883009F44DC0F6C0883109F44CC08032DF
:1025100009F45DC0EFC0803409F468C048F480332A
:1025200009F455C0883309F0E5C080936E03D8C024
:10253000803509F44FC0883509F45DC0883409F04E
:10254000D9C0D6C0883909F4C7C0A8F4883709F4BF
:1025500067C038F4883609F463C0803709F460C076
:10256000C9C0883809F4B8C0803909F45FC0803820
:1025700009F0C0C05BC0803B09F486C038F4803AE3
:1025800009F466C0883A09F47FC0B4C0803C09F4FD
:10259000A7C0883C09F4A4C0883B09F48AC0AAC03B
:1025A00080916B0310C090916D0380916C0398171C
:1025B00070F5E0916D0381E08E0F80936D03F0E084
:1025C000E65BFC4F80818093BB0085EC86C08093E6
:1025D0006E038EC0E0916D0381E08E0F80936D03DA
:1025E0008091BB00F0E0E65BFC4F808390916D032F
:1025F00080916C036EC0E0916D0381E08E0F80933B
:102600006D038091BB00F0E0E65BFC4F808380911E
:102610006F0381116DC081E080936A0384EA61C019
:1026200083E08093700310921C05CFCF80911C052E
:10263000803208F051C0E0911C0581E08E0F80933C
:102640001C058091BB00F0E0E450FB4F8083BDCFC0
:1026500085EC8093BC001092700380911C05803241
:1026600030F4E0911C05F0E0E450FB4F10826091E3
:102670001C0570E0E091FA04F091FB048CEF94E00B
:10268000099510921C0536C084E080937003109267
:10269000F9041092F804E091F604F091F70409951A
:1026A0008091F804811105C081E08093F8041092B4
:1026B000D604E091F90481E08E0F8093F904F0E0F4
:1026C000EA52FB4F80818093BB009091F904809186
:1026D000F804981708F479CF85E88093BC000AC005
:1026E00085EC8093BC001092700304C010926E03BE
:1026F0000E94D30FFF91EF91BF91AF919F918F9166
:102700007F916F915F914F913F912F910F900FBEED
:102710000F901F9018951F920F920FB60F921124D1
:102720002F933F934F935F936F937F938F939F93D9
:10273000AF93BF93EF93FF93E091F303F091F40312
:10274000309709F453C0968DA685B785858591FF8E
:1027500004C09C91892329F449C09C91892309F0E4
:1027600045C0A389B4899C918589809589238C93E0
:10277000868997890197F1F7608D718DA685B78558
:10278000558538E020E0CB010197F1F7822F90E0EA
:1027900095958795282F4C91452309F02068315055
:1027A00091F7868D81FD20958091F10390E001964F
:1027B00060EC70E00E940E389091F203981749F097
:1027C000A091F103B0E0AA5EBB4F2C938093F1037C
:1027D00003C0868D8160868F828D938D0197F1F77E
:1027E000A389B4899C918589892B8C93FF91EF9162
:1027F000BF91AF919F918F917F916F915F914F9119
:102800003F912F910F900FBE0F901F901895CF9270
:10281000DF92EF92FF920F931F93CF93DF93EB0121
:102820007B0121E1E20EF11C8B016C01C61AD70A73
:10283000C601800F911F0E945E37F80181938F01BE
:10284000EE15FF05A9F7CE01DF91CF911F910F91F2
:10285000FF90EF90DF90CF900895AF92BF92CF920C
:10286000DF92EF92FF920F931F93CF93DF9300D0ED
:10287000CDB7DEB78B016B0121E1C20ED11C7B010C
:102880005C01A61AB70A95012E0D3F1DF701619153
:102890007F013A832983CE0101960E94D40BEC1468
:1028A000FD0489F7C8010F900F90DF91CF911F9120
:1028B0000F91FF90EF90DF90CF90BF90AF90089571
:1028C000CF93DF9300D0CDB7DEB79A838983CE0153
:1028D00001960E94D40B0F900F90DF91CF91089535
:1028E0000C945E37EF92FF920F931F93CF93DF9379
:1028F00000D000D000D0CDB7DEB78C017B01809135
:102900008302813019F0413009F055C064E077E06E
:1029100086E496E00E94E31AB70186E496E00E94FE
:10292000D51A62E077E086E496E00E94321B64EFFD
:1029300071E080E090E00E94CD11B80186E496E05D
:102940000E94D51A64EF71E080E090E00E94CD1102
:10295000E0914606F09147060190F081E02D6AE192
:1029600086E496E0099564EF71E080E090E00E94D3
:10297000CD1161E173E0CE0101960E947A1AB70190
:10298000CE0101960E94681962E276E00E94681901
:10299000B8010E946819BC0183E795E00E94201BE2
:1029A000CE0101960E940A1A68E873E180E090E087
:1029B0000E94CD1121C068EE73E080E090E00E949B
:1029C000CD116DE073E0CE0101960E947A1AB70135
:1029D000CE0101960E94681962E276E00E946819B1
:1029E000B8010E946819BC0183E795E00E94201B92
:1029F000CE0101960E940A1A26960FB6F894DEBF01
:102A00000FBECDBFDF91CF911F910F91FF90EF903F
:102A10000895BF92CF92DF92EF92FF920F931F9390
:102A2000CF93DF93CDB7DEB768970FB6F894DEBFCC
:102A30000FBECDBF7C01B62EBC0183E795E00E949E
:102A4000201B0FEA11E0F801C388D488C601439621
:102A50000E947014813009F03FC06BEB73E0C60137
:102A60000E940714BC01CE0107960E947A1A6EEFED
:102A700072E0CE010D960E947A1ABE01695F7F4F07
:102A8000CE010D960E946819BC01CE0101960E94EC
:102A9000711AB701CE0143960E94711A40E0BE013F
:102AA0006F5F7F4FCE0143960E947214CE01439612
:102AB0000E940A1ACE0101960E940A1ACE010D96B2
:102AC0000E940A1ACE0107960E940A1A68EE73E065
:102AD00080E090E00E94CD110B5E1F4FF2E00138C4
:102AE0001F0709F0B0CF809184028130C9F5B81278
:102AF00037C06BEB73E08091C2019091C3010E94DB
:102B00000714BC01CE0101960E947A1ACE010196EB
:102B10000E940422182FCE0101960E940A1A111158
:102B20001FC060E177E086E496E00E94E31A6BEB59
:102B300073E08091C2019091C3010E940714BC010F
:102B400086E496E00E94071B6EE077E086E496E05C
:102B50000E94321B68EE73E080E090E00E94CD118D
:102B600068960FB6F894DEBF0FBECDBFDF91CF9150
:102B70001F910F91FF90EF90DF90CF90BF9008953D
:102B80000895CF92DF92EF92FF920F931F93CF930E
:102B9000DF936C017A018B01C0E0D0E0CE15DF0538
:102BA00089F0D8016D918D01D601ED91FC910190D4
:102BB000F081E02DC6010995892B11F47E0102C038
:102BC0002196ECCFC701DF91CF911F910F91FF901C
:102BD000EF90DF90CF900895FC01918D828D981732
:102BE00061F0828DDF01A80FB11D5D968C91928DF1
:102BF0009F5F9F73928F90E008958FEF9FEF0895EE
:102C0000FC01918D828D981731F0828DE80FF11DB6
:102C1000858D90E008958FEF9FEF0895FC01918DD1
:102C2000228D892F90E0805C9F4F821B91098F73CA
:102C30009927089583E795E00E940E1621E0892BDD
:102C400009F420E0822F0895FC01848DDF01A80F94
:102C5000B11DA35ABF4F2C91848D90E001968F73C4
:102C60009927848FA689B7892C93A089B1898C91E3
:102C700080648C93938D848D981306C00288F389A9
:102C8000E02D80818F7D80830895EF92FF920F93D6
:102C90001F93CF93DF93EC0181E0888F9B8D8C8D08
:102CA000981305C0E889F989808185FD24C0F62E36
:102CB0000B8D10E00F5F1F4F0F731127E02E8C8DCF
:102CC000E8120CC00FB607FCFACFE889F9898081B9
:102CD00085FFF5CFCE010E942416F1CF8B8DFE012A
:102CE000E80FF11DE35AFF4FF0820B8FEA89FB8951
:102CF0008081806207C0EE89FF896083E889F98955
:102D000080818064808381E090E0DF91CF911F918A
:102D10000F91FF90EF900895CF93DF93EC01888D92
:102D20008823C9F0EA89FB89808185FD05C0A889CF
:102D3000B9898C9186FD0FC00FB607FCF5CF808155
:102D400085FFF2CFA889B9898C9185FFEDCFCE019F
:102D50000E942416E7CFDF91CF91089580E090E0A4
:102D6000892B29F00E941A1681110C9400000895F5
:102D70000E94333AAF92BF92CF92DF92EF92FF92CE
:102D80000F931F93CF93DF937B018A01FB01448153
:102D900055814115510561F1FC01248135812115D1
:102DA000310531F12417350718F10217130718F010
:102DB000890101501109FC01A080B180C501DFEF3C
:102DC000CFEF6501C00ED11EC816D906A0F0F701DD
:102DD000608171810E947A3A009769F09C012A19FA
:102DE0003B090217130710F0D22FC32F0196ECCF27
:102DF0008FEF9FEF02C08D2F9C2FDF91CF911F91FE
:102E00000F91FF90EF90DF90CF90BF90AF9008951B
:102E10000F931F93CF93DF93EC01888199810097E3
:102E200029F02A813B812617370788F48B016F5FD1
:102E30007F4F0E946939009761F0998388831B83D3
:102E40000A832C813D81232B11F4FC01108281E047
:102E500001C080E0DF91CF911F910F910895CF9332
:102E6000DF93EC0188819981009711F00E94D1389D
:102E7000198218821D821C821B821A82DF91CF91D7
:102E80000895EF92FF920F931F93CF93DF93EC017E
:102E90007B018A01BA010E940817811104C0CE018A
:102EA0000E942F1707C01D830C83B7018881998169
:102EB0000E94643ACE01DF91CF911F910F91FF9054
:102EC000EF900895FC0180819181009711F00C949E
:102ED000C73660E070E0CB0108952F923F924F9289
:102EE0005F926F927F928F929F92AF92BF92CF929A
:102EF000DF92EF92FF920F931F93CF93DF93FC012A
:102F0000448055804114510409F4CFC0FB01648012
:102F100075806114710409F4C8C07A016B01EC0179
:102F2000FA01A480B580A618B70808811981A114F8
:102F3000B104C1F4F60160817181C8010E947A3A3E
:102F4000EC01892B09F4B1C0F701608171814481E2
:102F50005581CE010E94403AF701048115810C0F82
:102F60001D1FE8CFB7FE02C0480106C0FB0120804C
:102F700031804201C80142C0F60160817181C40103
:102F80000E947A3A2C01892B19F1320168187908CC
:102F9000A301B401C8010E94403A060D171DF701B4
:102FA0006081718144815581C8010E94403AF701D6
:102FB00084819581080F191FF60184809580840C07
:102FC000951C8C819D818A0D9B1D9D838C83D4CF04
:102FD000B401C801DF91CF911F910F91FF90EF9045
:102FE000DF90CF90BF90AF909F908F907F906F9029
:102FF0005F904F903F902F900C94643AB1010E94E3
:103000007A3A009729F0860D971D8A0C9B1CF6CF03
:103010008414950409F449C08A819B818815990517
:1030200060F4B4016F5F7F4FC8010E946939009757
:10303000E1F1998388839B828A824C815D81415032
:10304000510957FD32C0B601CE010E94BA168C015B
:1030500097FD2BC088819981F60124813581200F4D
:10306000311F820F931F4C815D81421B530BBC01AA
:103070008A0D9B1D0E94493A8C819D818A0D9B1D62
:103080009D838C8328813981F901E80FF91F108213
:1030900088819981F7016081718144815581800F18
:1030A000911F0E94403AA801CACFDF91CF911F9192
:1030B0000F91FF90EF90DF90CF90BF90AF909F90D7
:1030C0008F907F906F905F904F903F902F900895DA
:1030D000FC0144815581FB0124813581421B530B46
:1030E0000C94BA16CF93DF93FC0124813581232BF6
:1030F00071F0FB01DC01CD91DC9160817181CE0129
:103100000E947A3A009719F08C1B9D0B02C08FEF3A
:103110009FEFDF91CF910895FC0124813581FB0160
:10312000448155812417350721F5FC018081918167
:10313000FB0160817181009719F061157105A1F49F
:103140006115710549F0232BB1F0FB01808190E0FE
:103150009195819591090AC0009769F0232B59F048
:10316000FC01808190E002C00E945B3A21E0892B43
:1031700019F020E001C021E0822F0895EF92FF9224
:103180000F931F93CF93DF93EC017B0161157105C2
:10319000E1F0CB010E94F5360097D1F02C813D8102
:1031A0008C01020F131FB801CE010E94081788235B
:1031B00061F0288139818C819D81B701820F931F35
:1031C0000E94EE361D830C8303C0CE010E942F1790
:1031D000CE01DF91CF911F910F91FF90EF90089555
:1031E000EF92FF920F931F93CF93DF93FC01248103
:1031F00035816115710511F480E019C04115510543
:10320000A9F07B01EC018A01020F131FB8010E9493
:103210000817882389F3288139818C819D81B70122
:10322000820F931F0E94643A1D830C8381E0DF911B
:10323000CF911F910F91FF90EF900895EF92FF9221
:103240000F931F93CF93DF9300D000D0CDB7DEB79D
:103250007C01862F4AE08E010F5F1F4FB80190E07E
:103260000E940937F80101900020E9F73197AF017A
:10327000401B510BB801C7010E94F018811103C017
:10328000C7010E942F17C7010F900F900F900F904A
:10329000DF91CF911F910F91FF90EF900895CF9301
:1032A000DF93EC016115710561F0FB0101900020D5
:1032B000E9F73197AF01461B570B0E94F0188111B7
:1032C00003C0CE010E942F17CE01DF91CF91089548
:1032D000CF93DF93EC01FB014481558160817181C3
:1032E0000E94F018811103C0CE010E942F17CE0159
:1032F000DF91CF910895EF92FF920F931F93CF9399
:10330000DF93EC018B016115710551F0CB010E9437
:10331000F5367C01BC01CE010E940817811104C062
:10332000CE010E942F1707C0FD82EC82B801888170
:1033300099810E94EE36CE01DF91CF911F910F91BE
:10334000FF90EF900895CF93DF93EC016115710525
:1033500059F0FB0101900020E9F73197AF01461BBE
:10336000570B0E94411702C00E942F17CE01DF9118
:10337000CF910895CF93DF93EC01FB018617970758
:1033800061F0608171816115710529F04481558179
:103390000E94411702C00E942F17CE01DF91CF91EA
:1033A00008950F931F93CF93DF938C01EB01FC01E2
:1033B000808191810097B1F06881798161157105F3
:1033C00079F0428153812C813D814217530740F0AF
:1033D0000E94643A8C819D81F8019583848313C097
:1033E0000E94D13888819981F801918380838A81F4
:1033F0009B81938382838C819D81958384831982B1
:1034000018821B821A821D821C82DF91CF911F912C
:103410000F910895FC01808191810C94D1380F9314
:103420001F93CF93DF93CDB7DEB762970FB6F894B3
:10343000DEBF0FBECDBF8C01CB01F801118210821F
:10344000138212821582148250E0BE016F5F7F4F9B
:103450000E94FE36BE016F5F7F4FC8010E94A31914
:1034600062960FB6F894DEBF0FBECDBFDF91CF914D
:103470001F910F9108950F931F93CF93DF93CDB7B3
:10348000DEB729970FB6F894DEBF0FBECDBF8C0113
:10349000862FF80111821082138212821582148203
:1034A00050E0BE016F5F7F4F90E00E942937BE0160
:1034B0006F5F7F4FC8010E94A31929960FB6F89439
:1034C000DEBF0FBECDBFDF91CF911F910F91089549
:1034D000FC011182108213821282158214820C94D4
:1034E0007B19FC01118210821382128215821482D0
:1034F0000C94BA19FC011182108213821282158277
:1035000014826115710551F0FB0101900020E9F76B
:103510003197AF01461B570B0C9441170895BF928A
:10352000CF92DF92EF92FF920F931F93CF93DF938F
:103530007C016B018A01E9012417350720F4812FF2
:103540008901C42FD82F6AE173E0C7010E947A1A5B
:10355000D60114968D919C91159708171907D0F4F0
:103560008C179D0708F4EC01D601ED91FC911197A1
:10357000EC0FFD1FB08010824D915C91BA01600F7D
:10358000711FC7010E94A319D601ED91FC91EC0FA8
:10359000FD1FB082C701DF91CF911F910F91FF9066
:1035A000EF90DF90CF90BF900895DC01ED91FC91FA
:1035B000DB0114964D915C9115976D917C91028081
:1035C000F381E02D0994EF92FF920F931F93CF9315
:1035D000DF938C017B01C0E0D0E0F701EC0FFD1F11
:1035E0006491662361F0D801ED91FC910190F08126
:1035F000E02DC8010995892B11F02196EECFCE015F
:10360000DF91CF911F910F91FF90EF900895611579
:10361000710579F0FB0101900020E9F73197AF01C6
:10362000461B570BDC01ED91FC910280F381E02DEC
:10363000099480E090E0089568E173E00C94071B22
:103640000F931F93CF93DF93EC010E94D51A8C0147
:10365000CE010E941C1B800F911FDF91CF911F9103
:103660000F9108950F931F93CF93DF93EC010E9466
:10367000E31A8C01CE010E941C1B800F911FDF9169
:10368000CF911F910F9108951F920F920FB60F9235
:1036900011242F933F934F935F936F937F938F9357
:1036A0009F93AF93BF93EF93FF9383E795E00E94BF
:1036B0002416FF91EF91BF91AF919F918F917F91D0
:1036C0006F915F914F913F912F910F900FBE0F908F
:1036D0001F9018951F920F920FB60F9211242F93DF
:1036E0008F939F93EF93FF93E0918305F09184056F
:1036F0008081E0918905F0918A0582FD12C0908158
:1037000080918C058F5F8F7320918D05821751F00A
:10371000E0918C05F0E0ED58FA4F958F80938C0581
:1037200001C08081FF91EF919F918F912F910F9018
:103730000FBE0F901F90189583E795E00C941C1B0B
:10374000DF92EF92FF920F931F93CF93DF9300D0FE
:1037500000D000D0CDB7DEB760E478E083E795E035
:103760000E94321B84E0E82E81E0F82E00E010E099
:10377000F701838994890E943D22F7018389948906
:1037800087960E947014D82E0F5F1F4F4AE0B80131
:10379000CE0101960E940F1A62E276E0CE010196F8
:1037A0000E9468196DE475E00E944F1962E276E0AC
:1037B0000E9468196D2D0E941E19BC0183E795E0D7
:1037C0000E94201BCE0101960E940A1AF5E1EF0E1D
:1037D000F11C0830110561F60E949C1B26960FB65D
:1037E000F894DEBF0FBECDBFDF91CF911F910F9137
:1037F000FF90EF90DF900895AF92BF92CF92DF924B
:10380000EF92FF920F931F93CF93DF93CDB7DEB765
:103810006E970FB6F894DEBF0FBECDBF8C016BEC78
:1038200072E0CE0101960E947A1ABE016F5F7F4F4F
:10383000C8010E9468184AE0BC01CE0107960E94A8
:103840000F1ACE0107960E946217AB014F5F5F4FC0
:10385000B801CE010D960E94F40BCE0107960E948E
:103860000A1ACE0101960E940A1A6BE173E0CE019A
:1038700001960E947A1ABE016F5F7F4FCE010D96AE
:103880000E947218092FCE0101960E940A1A6AE15D
:1038900073E0CE0107960E947A1A6BE173E0CE01C5
:1038A00001960E947A1AAE01495F5F4FBE016F5FB9
:1038B0007F4FCE010D960E946D17CE0101960E949A
:1038C0000A1ACE0107960E940A1A6AE173E0CE0135
:1038D00007960E947A1A6EE173E0CE0101960E946B
:1038E0007A1AAE01495F5F4FBE016F5F7F4FCE0115
:1038F0000D960E946D17CE0101960E940A1ACE0104
:1039000007960E940A1A6AE173E0CE0107960E94A8
:103910007A1A69E173E0CE0101960E947A1AAE012B
:10392000495F5F4FBE016F5F7F4FCE010D960E94D2
:103930006D17CE0101960E940A1ACE0107960E94C9
:103940000A1A6EEF72E0CE0101960E947A1ABE0149
:103950006F5F7F4FCE010D960E9472184AE0BC0146
:10396000CE0143960E940F1ACE0143960E94621721
:103970009B0140E050E0BE01635F7F4FCE010796A0
:103980000E948F1ACE0143960E940A1ACE01019618
:103990000E940A1A6EEF72E0CE0143960E947A1AD4
:1039A000BE016D5E7F4FCE010D960E9468184AE001
:1039B000BC01CE0149960E940F1ACE0149960E9481
:1039C0006217AB014F5F5F4FBE01635F7F4FCE0158
:1039D00001960E94F40BCE0149960E940A1ACE016C
:1039E00043960E940A1ACE0107960E946217162F6C
:1039F000BE016F5F7F4FCE0143960E94711A115036
:103A0000183048F060E678E083E795E00E94321BCA
:103A10000E94160745C046E250E067E275E0CE011D
:103A200043960E94F422C12ED12C25E1129FF00171
:103A30001124EC5FFE4F8389948927E2E22E25E072
:103A4000F22EFC01E752F5405F01C5018E0D9F1D6E
:103A5000F70161917F019A8F898FCE0149960E946B
:103A6000D40BFDE4EF16F5E0FF0679F7602F6095C3
:103A7000661F6627661F85E18C9DF0018D9DF00D08
:103A80001124EC5FFE4F8389948987960E9460140D
:103A90006DE478E083E795E00E94321B0E94FE0609
:103AA0000E949C1B0E94A01BCE0143960E940A1AF2
:103AB000CE0101960E940A1ACE0107960E940A1AA8
:103AC000CE010D960E940A1A6E960FB6F894DEBFCC
:103AD0000FBECDBFDF91CF911F910F91FF90EF905F
:103AE000DF90CF90BF90AF9008957F928F929F927A
:103AF000AF92BF92CF92DF92EF92FF920F931F93FC
:103B0000CF93DF93C12CD12C7601C394D0E0BB249A
:103B1000B39462E0A62E99249A9475EE872EE5EC74
:103B20007E2ECC2DB0921504C0922605109249032A
:103B300010924803909170039111FCCFA0927003F2
:103B4000B0926F0390926E0310926D0310926C030B
:103B500010926B0380916B0386019601220F331F35
:103B6000282B20936B0380916A03813069F41092B3
:103B70006A0380916B038093BB008091BC0083FD3E
:103B8000F8CF7092BC0002C08092BC00809170039C
:103B90008230E1F380916E038F3F69F080916E0374
:103BA000803231F080916E03803321F094E003C0C5
:103BB00092E001C093E010924903109248031092E2
:103BC0001504911134C06FE278E083E795E00E941C
:103BD000E31A80E1C816D104E104F10430F46DE287
:103BE00078E083E795E00E94E31A40E1C701B6015F
:103BF0000E945722C052C830B0F462E276E083E7F8
:103C000095E00E94D51A6BE178E083E795E00E9489
:103C1000321B10939403009393038091A5038F5F4D
:103C20008093A50302C00E949C1BDF5F19C09430E3
:103C3000B9F46FE078E083E795E00E94E31AE0E1F1
:103C4000CE16D104E104F10430F46DE078E083E7AE
:103C500095E00E94E31A60E170E08C2F0E949A22A6
:103C6000FFEFCF1ADF0AEF0AFF0A8FE7C816D10469
:103C7000E104F10409F055CFD11106C067EF77E0F8
:103C800083E795E00E94321B8091A5038823E9F029
:103C90000E94A01B04E011E0CDE9D3E0FC2EE8E097
:103CA000FE0EF8018389948987960E947014899387
:103CB0000B5E1F4FFC12F5CF0E949C1BE5E9F3E061
:103CC00088E08E0F11928E13FDCFDF91CF911F915F
:103CD0000F91FF90EF90DF90CF90BF90AF909F90AB
:103CE0008F907F9008956EEE77E086E496E00E94D4
:103CF000E31A8091E103813031F46AEE77E086E4E3
:103D000096E00E94321B8091E1038250823030F4B1
:103D100068EE77E086E496E00E94321B60ED77E083
:103D200080E090E00E94CD116CED77E083E795E0B4
:103D30000E94321B0C94FE06CF92DF92EF92FF920C
:103D40000F931F93CF93DF93CDB7DEB7A4970FB632
:103D5000F894DEBF0FBECDBF8C016BEC72E0CE01DC
:103D600001960E947A1ABE016F5F7F4FC8010E94C0
:103D700068184AE0BC01CE0142960E940F1ACE019B
:103D800042960E946217AB014F5F5F4FB801CE01B0
:103D900048960E94F40BCE0142960E940A1ACE0168
:103DA00001960E940A1A6AE173E0CE0142960E94CF
:103DB0007A1A60E273E0CE0101960E947A1AAE018F
:103DC0004E5E5F4FBE016F5F7F4FCE0148960E94EF
:103DD0006D17CE0101960E940A1ACE0142960E94EA
:103DE0000A1A6AE173E0CE0142960E947A1A6EE1E5
:103DF00073E0CE0101960E947A1AAE014E5E5F4FCB
:103E0000BE016F5F7F4FCE0148960E946D17CE01B5
:103E100001960E940A1ACE0142960E940A1A6AE18D
:103E200073E0CE0142960E947A1A69E173E0CE01F6
:103E300001960E947A1AAE014E5E5F4FBE016F5F1F
:103E40007F4FCE0148960E946D17CE0101960E94C9
:103E50000A1ACE0142960E940A1A6EEF72E0CE0153
:103E600001960E947A1ABE016F5F7F4FCE0148967D
:103E70000E9468184AE0BC01CE014E960E940F1ABB
:103E8000CE014E960E946217AB014F5F5F4FBE019D
:103E9000685E7F4FCE0142960E94F40BCE014E9693
:103EA0000E940A1ACE0101960E940A1ABE016E5E95
:103EB0007F4FCE014E960E94711A07ED11E021E06E
:103EC0008DE0F82E6E0185E0C80ED11C6BEB73E01F
:103ED000F801808191812CA30E940714BC01CE01BE
:103EE00001960E947A1ABE01625E7F4FCE01019652
:103EF0000E948C18E82ECE0101960E940A1A2CA16D
:103F0000EE2099F119821A821B821C82F6018F2DF4
:103F100011928A95E9F7BE016F5F7F4FF8018081AA
:103F200091810E942D14F8018081918160E0429678
:103F30000E946014F8018081918160E043960E94A4
:103F400060146CEC77E083E795E00E94E31ABE0111
:103F5000625E7F4F83E795E00E94201B0E949C1BBE
:103F60000E94DC080E94FE0620E00B5E1F4FF2E07C
:103F700004391F0709F0AACF213089F464EB77E0F8
:103F800083E795E00E94E31ABE01625E7F4F83E7FC
:103F900095E00E94201B0E949C1B0E941607CE01E8
:103FA0004E960E940A1ACE0142960E940A1ACE012B
:103FB00048960E940A1AA4960FB6F894DEBF0FBE68
:103FC000CDBFDF91CF911F910F91FF90EF90DF90C8
:103FD000CF9008959F92AF92BF92CF92DF92EF92CF
:103FE000FF920F931F93CF93DF93CDB7DEB76E97FA
:103FF0000FB6F894DEBF0FBECDBF8C016BEC72E044
:10400000CE0101960E947A1ABE016F5F7F4FC801F0
:104010000E9468184AE0BC01CE0107960E940F1A60
:10402000CE0107960E946217AB014F5F5F4FB80148
:10403000CE0143960E94F40BCE0107960E940A1A05
:10404000CE0101960E940A1A65E273E0CE01019644
:104050000E947A1ABE016F5F7F4FCE0143960E9485
:104060007218C92ECE0101960E940A1A67E273E007
:10407000CE0101960E947A1ABE016F5F7F4FCE017A
:1040800043960E947218D92ECE0101960E940A1AF8
:104090006AE173E0CE0107960E947A1A65E273E046
:1040A000CE0101960E947A1AAE01495F5F4FBE01B0
:1040B0006F5F7F4FCE0143960E946D17CE01019630
:1040C0000E940A1ACE0107960E940A1A6AE173E05A
:1040D000CE0107960E947A1A67E273E0CE0101963C
:1040E0000E947A1AAE01495F5F4FBE016F5F7F4F3A
:1040F000CE0143960E946D17CE0101960E940A1AC6
:10410000CE0107960E940A1A6AE173E0CE01079673
:104110000E947A1A60E273E0CE0101960E947A1A38
:10412000AE01495F5F4FBE016F5F7F4FCE01439687
:104130000E946D17CE0101960E940A1ACE010796C1
:104140000E940A1A6AE173E0CE0107960E947A1A69
:104150006EE173E0CE0101960E947A1AAE01495FCA
:104160005F4FBE016F5F7F4FCE0143960E946D1778
:10417000CE0101960E940A1ACE0107960E940A1AE1
:104180006AE173E0CE0107960E947A1A69E173E052
:10419000CE0101960E947A1AAE01495F5F4FBE01BF
:1041A0006F5F7F4FCE0143960E946D17CE0101963F
:1041B0000E940A1ACE0107960E940A1A6EEF72E058
:1041C000CE0101960E947A1ABE016F5F7F4FCE0129
:1041D00043960E9472184AE0BC01CE0107960E94E5
:1041E0000F1ACE0107960E9462179B0140E050E033
:1041F000BE016D5E7F4FCE010D960E948F1ACE01DB
:1042000007960E940A1ACE0101960E940A1A6EEFC2
:1042100072E0CE0101960E947A1ABE016F5F7F4F55
:10422000CE0143960E9468184AE0BC01CE0149962F
:104230000E940F1ACE0149960E946217AB014F5F90
:104240005F4FBE016D5E7F4FCE0107960E94F40B5B
:10425000CE0149960E940A1ACE0101960E940A1ABE
:10426000CE010D960E946217062FBE01695F7F4F37
:10427000CE0149960E94711A6BEB73E08091C201E6
:104280009091C3010E940714BC01CE0101960E94C7
:104290007A1ACE0101960E940422182FCE010196AF
:1042A0000E940A1A112361F06DE877E083E795E038
:1042B0000E94321B0E949C1B0E94160710E001C046
:1042C00011E08EEF800F8A3058F06FE677E083E7D9
:1042D00095E00E94321B0E949C1B0E94160710E072
:1042E0008FEAA82E81E0B82EE12CF12C6BEB73E065
:1042F000F501838994890E940714BC01CE010196BF
:104300000E947A1ABE01675E7F4FCE0101960E941D
:104310008C18982ECE0101960E940A1AC7010196A8
:104320007C01992071F060E477E083E795E00E94DA
:10433000E31AC7010E94BB220E949C1B0E94160721
:1043400010E095E1A90EB11CEAE0EE16F10471F659
:104350001130B1F541E150E06AEA73E0CE014996CF
:104360000E94F4220150F5E10F9F800111240155B4
:104370001E4F6AEA73E0F801838994890E942D1424
:104380006C2D6095661F6627661FF80183899489E6
:1043900042960E9460146D2D6095661F6627661F09
:1043A000F8018389948943960E94601463E377E05F
:1043B00083E795E00E94321B0E949C1B0E94FE0630
:1043C0000E94DC08CE0149960E940A1ACE01079687
:1043D0000E940A1ACE010D960E940A1ACE01439637
:1043E0000E940A1A6E960FB6F894DEBF0FBECDBFBC
:1043F000DF91CF911F910F91FF90EF90DF90CF90C1
:10440000BF90AF909F900895DC0114962D913C9140
:104410001597232B41F0ED91FC9181E09081992338
:1044200019F080E0089581E00895E3E7F5E0A089C0
:10443000B18982E08C93A485B5851C92A685B78549
:104440008FEC8C93108EA489B58986E08C93A28919
:10445000B3898C9180618C93A289B3898C91886097
:104460008C93A289B3898C9180688C930288F3899C
:10447000E02D80818F7D808308950F931F93CF93CC
:10448000DF93CDE4D5E08C010D541540C8018C0FAD
:104490009D1F0E945E37899385E0C337D807B1F727
:1044A0008DE495E0DF91CF911F910F9108958F9248
:1044B0009F92AF92BF920F931F93CF93DF93CDB78D
:1044C000DEB7A1970FB6F894DEBF0FBECDBF19A21D
:1044D000423008F44AE08E010F5D1F4F842E912C6C
:1044E000A12CB12CA50194010E94DD37E62FB90162
:1044F000CA0101501109EA3014F4E05D01C0E95C21
:10450000D801EC93232B242B252B61F7B80183E7EB
:1045100095E00E94071BA1960FB6F894DEBF0FBE70
:10452000CDBFDF91CF911F910F91BF90AF909F9022
:104530008F900895CF93DF93AB01672B61F4E091E7
:104540007305F09174050190F081E02D682F83E7E9
:1045500095E0099506C0682F70E080E090E00E9429
:104560005722EC0183E795E00E941C1B8C0F9D1FD6
:10457000DF91CF910895CF92DF92EF92FF92CF9388
:10458000DF936C01990FEE08FF08F7FE1AC0E09167
:104590007305F09174050190F081E02D6DE283E7E1
:1045A00095E00995EC0166277727CB016C197D0909
:1045B0008E099F094AE00E9457227C01EC0EFD1EE5
:1045C00006C04AE0C701B6010E9457227C0183E77A
:1045D00095E00E941C1B8E0D9F1DDF91CF91FF90D7
:1045E000EF90DF90CF9008950F931F93CF93DF93B9
:1045F000FC01248135812115310519F4FB0110825C
:1046000011C0EA0121972C173D0708F4E9018B013D
:10461000FC0160817181AE01C8010E946B3AC00F3C
:10462000D11F1882DF91CF911F910F910895CF93E1
:10463000DF93C0913A06D0913B06209751F08881D4
:10464000882339F0082E000C990B0E94383A899380
:10465000F6CFDF91CF910895CF93DF9300D0CDB700
:10466000DEB789831A8241E050E0BE016F5F7F4F61
:104670008AE396E00E94F0180F900F90DF91CF919F
:104680000895CF93DF93CDB7DEB7E5970FB6F894D3
:10469000DEBF0FBECDBF789484B5826084BD84B583
:1046A000816084BD85B5826085BD85B5816085BD2D
:1046B00080916E00816080936E00109281008091E5
:1046C000810082608093810080918100816080936D
:1046D0008100809180008160809380008091B10092
:1046E00084608093B1008091B00081608093B000BD
:1046F00080917A00846080937A0080917A00826051
:1047000080937A0080917A00816080937A00809112
:104710007A00806880937A001092C1000E9415226E
:104720001092910310929203109249031092480341
:104730001092700381E080936F0310926A0361E02E
:1047400082E10E94611161E083E10E946111809128
:10475000B9008E7F8093B9008091B9008D7F8093DE
:10476000B90088E48093B80085E48093BC0063ECD2
:1047700070E083E795E00E94321B0E949C1B66EB71
:1047800070E083E795E00E94321B1CE064EB70E070
:1047900083E795E00E94E31A6AEF70E080E090E022
:1047A0000E94CD11115091F70E949C1B80E48093D0
:1047B0007C0080917A00806480937A0080917A00F6
:1047C00086FDFCCF609178008091790070E0782BB5
:1047D000072E000C880B990B611571058105910559
:1047E00011F00E94BE360E94DD090E944C090E9411
:1047F000620B82E690E00E947014813009F452C08E
:1048000062E870E083E795E00E94321B0CE211E061
:104810006FEFC8010E9460146AE070E080E090E0F1
:104820000E94CD110F5F1F4F0D3C21E0120781F751
:1048300068E670E083E795E00E94321B0E949C1BB3
:1048400004E011E056E1A52E51E0B52EF801C38831
:10485000D4887801C01AD10AC6018E0D9F1DF701B8
:1048600061917F019A838983CE0101960E94D40BC6
:10487000EA14FB0489F7F80183899489F7016081C0
:1048800087960E9460140B5E1F4F5701F5E1AF0E33
:10489000B11C21E00C3A1207C9F661E082E690E013
:1048A0000E9460140E94751D61E08AE00E949111CF
:1048B00061E08CE00E94911161E08BE00E94911117
:1048C00061E08AE00E94611161E08CE00E94611168
:1048D00061E08BE00E94611160E08AE00E9461115A
:1048E00064EF71E080E090E00E94CD1161E08AE029
:1048F0000E94611160E08CE00E94611164EF71E040
:1049000080E090E00E94CD1161E08CE00E94611196
:1049100060E08BE00E94611164EF71E080E090E064
:104920000E94CD1161E08BE00E94611160E086E0A1
:104930000E94911160E08EE00E94911160E087E09A
:104940000E94911160E08FE00E94911160E080E18F
:104950000E94911161E084E00E94911160E084E086
:104960000E94611161E085E00E94911161E085E0A3
:104970000E9461110E94640765EA70E083E795E098
:104980000E94321B68E276E083E795E00E94201BDC
:1049900080918302882339F00E949C1B41E7642E9A
:1049A00043E0742E83C068E970E083E795E00E94DD
:1049B000321B19E00E94FE061150E1F7EDCF1130D5
:1049C00009F42EC286E00E9438118093EB03109107
:1049D000AD01113009F072C2811166C261E08CE054
:1049E0000E9461110E940712C090E703D090E80373
:1049F000E090E903F090EA039B01AC012C193D091A
:104A00004E095F0969017A0135E6C316D104E10454
:104A1000F10408F035C20E940712C090A603D0909E
:104A2000A703E090A803F090A903AB01BC014C19C7
:104A30005D096E097F09E0918502F091860228EEFA
:104A400033E0E29FC001E39F900DF29F900D11248F
:104A5000A0E0B0E084179507A607B70708F43EC2A8
:104A6000112309F43BC286E00E9438118093EB03C6
:104A7000882309F43CC28091EB03813009F471C2B0
:104A80008091DE03813009F47FC286E496E00E94C3
:104A9000FD10892B09F0C9C283E795E00E940E162C
:104AA000892B11F00C94C9340E94AE168091DD035D
:104AB000813009F04EC08FE00E943811182F80938A
:104AC000E30380E10E94381180930201113071F4F8
:104AD0008091010181110AC01093010164E670E028
:104AE00080E090E00E94CD110E94CA0B80910201EB
:104AF00081110FC08091000181110BC081E0809372
:104B0000000164E670E080E090E00E94CD110E9418
:104B1000CA0B8091E30381110CC0809101018823AD
:104B200041F01092010164E670E080E090E00E94A4
:104B3000CD1180910201813061F4809100018823C0
:104B400041F01092000164E670E080E090E00E9485
:104B5000CD118091DD03823071F58FE00E94381114
:104B6000182F8093E30380E10E94381180930201A3
:104B7000113071F48091010181110AC0109301017B
:104B800064E670E080E090E00E94CD110E94CA0BC4
:104B90008091020181110FC08091000181110BC031
:104BA00081E08093000164E670E080E090E00E9484
:104BB000CD110E94CA0B80918102813031F4809125
:104BC000AD01813009F056C003C0823009F052C0F7
:104BD00087E00E9438118093E40381111CC080910A
:104BE0000301811118C081E08093030164E670E045
:104BF00080E090E00E94CD116AEE70E0CE01019657
:104C00000E94681A60E0CE0101960E940915CE014B
:104C100001960E940A1A8091E4038130D9F48091B0
:104C200003018130B9F41092030164E670E080E082
:104C300090E00E94CD1163ED70E0CE0101960E94DC
:104C4000681A60E0CE0101960E940915CE01019616
:104C50000E940A1A8091E403813061F4809103017B
:104C6000823041F41092030164E670E080E090E04D
:104C70000E94CD118091A503811106C01091DF0320
:104C800011119DCE61E0F8C005E913E08DE9C82E51
:104C900083E0D82E94E0A92E91E0B92EE12CF12CDE
:104CA0004424439425EE322E35EC232E8091930339
:104CB000909170039111FCCF4092700340926F036A
:104CC0003FEF30936E0310926D0310926C0340928D
:104CD0006B0390916B03880F892B80936B038091FA
:104CE0006A03813069F410926A0380916B038093A8
:104CF000BB008091BC0083FDF8CF2092BC0002C0B5
:104D00003092BC00809170038130E1F380916D039B
:104D1000811103C080916D0301C081E0AAE4B3E07A
:104D2000E1E7F3E09E2F9619981718F49D9191935F
:104D3000F9CF1092910380939203882329F080E1A8
:104D400096E00E94151001C080E090E00E2C02C099
:104D5000959587950A94E2F7482F4170542E4601A5
:104D6000F601808184133CC0F8018081811138C034
:104D7000408264E670E080E090E00E94CD11809176
:104D80008202813021F460E08CE00E946111F50123
:104D9000838994890E943D220E94EB066CE176E0B3
:104DA000CE0101960E94711A6DE475E0CE01019664
:104DB0000E944F19BC01CE0142960E94711A809147
:104DC000AD01813029F461E0CE0142960E940915BF
:104DD000CE0142960E940A1ACE0101960E940A1A3A
:104DE000FFEFCF1ADF0AF4018081851559F0F80131
:104DF0008081813039F4108264E670E080E090E0D8
:104E00000E94CD11FFEFEF1AFF0A0F5F1F4F25E140
:104E1000A20EB11C38E0E316F10409F047CF2ECF03
:104E20000E940712C090E703D090E803E090E903E6
:104E3000F090EA039B01AC012C193D094E095F0972
:104E400069017A0135E6C316D104E104F10408F4DE
:104E5000B9CD6093E7037093E8038093E9039093DF
:104E6000EA038091E503811103C01093E50302C0BA
:104E70001092E5036091E5038BE00E946111A2CDE1
:104E80006093E7037093E8038093E9039093EA0348
:104E90008091E603811103C01093E60302C01092D3
:104EA000E6036091E60308C0813009F0B4CD61E00B
:104EB0008CE00E94611160E08AE00DC01111ABCD61
:104EC00061E08AE00E94611180918202813009F0E4
:104ED000A2CD60E08CE00E9461119DCD60E084E095
:104EE0000E94611161E085E00E946111BCCD80915A
:104EF000AC018111C0CD81E08093AC0164E670E02B
:104F000080E090E00E94CD1180918202813021F4F6
:104F100060E08CE00E9461110E94EB066CE176E09B
:104F2000CE0142960E94711A65E071E0CE01429670
:104F30000E94BE18BC01CE0101960E94711A809198
:104F4000AD01813029F461E0CE0101960E9409157E
:104F5000CE0101960E940A1ACE0142960E940A1AB8
:104F60008ACD8091AC01813009F08ACD1092AC01DC
:104F700064E670E080E090E00E94CD1119E00E94AC
:104F8000FE061150E1F77CCD8EE00E94381180932F
:104F9000EC038130C1F59091AE01911134C0809342
:104FA000AE0164E670E080E090E00E94CD11809157
:104FB0008202813021F460E08CE00E9461110E9445
:104FC000EB066CE176E0CE0101960E94711A62E177
:104FD00071E0CE0101960E94BE18BC01CE0142963E
:104FE0000E94711A8091AD01813029F461E0CE01F7
:104FF00042960E940915CE0142960E940A1ACE01DD
:1050000001960E940A1A8091EC0381113ECD809195
:10501000AE01813009F039CD1092AE0164E670E046
:1050200080E090E00E94CD1130CD86E496E00E94B1
:10503000FD10892B79F086E496E00E94151180938B
:10504000E2030E942C236AE070E080E090E00E947E
:10505000CD11EBCF8091E103823011F412E001C059
:1050600011E06CEA73E0CE0101960E94681ABE015D
:105070006F5F7F4F8AE396E00E9472187C01CE0139
:1050800001960E940A1AF7FE0E94640767EA73E01D
:10509000CE0101960E94681ABE016F5F7F4F8AE3BE
:1050A00096E00E9472187C01CE0101960E940A1AB5
:1050B000F7FCDFC065EA73E0CE0142960E94681AF1
:1050C000BE016E5E7F4F8AE396E00E9472184AE04E
:1050D000BC01CE0101960E940F1ACE0101960E94DA
:1050E00062176B017C0169EC72E0CE014E960E9462
:1050F0007A1ABE01625E7F4F8AE396E00E947218C0
:105100004AE0BC01CE0148960E940F1ACE01489693
:105110000E946217960121503109412F50E0460F3D
:10512000571F6AE376E0CE0184960E948F1ACE0163
:1051300048960E940A1ACE014E960E940A1ACE0183
:1051400001960E940A1ACE0142960E940A1A68E944
:1051500073E083E795E00E94E31ABE016C5D7F4F28
:1051600083E795E00E94201BBE016C5D7F4FCE015E
:1051700042960E94711A6BEB73E08091C20190918C
:10518000C3010E940714BC01CE0101960E947A1A45
:10519000CE0101960E940422182FCE0101960E9492
:1051A0000A1A112389F141E150E06AEA73E0CE0165
:1051B00042960E94F4226AEA73E08091C2019091C3
:1051C000C3010E942D148091C2019091C30161E03E
:1051D00042960E9460148091C2019091C30161E0E7
:1051E00043960E9460146EE171E083E795E00E94AF
:1051F000E31ABE016E5E7F4F83E795E00E94201B9D
:105200000E949C1B0E94FE06CE0142960E940A1A32
:10521000BE016C5D7F4FCE0101960E94711ACE01D6
:1052200001960E941A07182FCE0101960E940A1AB1
:1052300060ED77E080E090E0113069F40E94CD11DC
:105240006FE271E086E496E00E94321B1093E00367
:105250000E94E00608C00E94CD116FE271E086E472
:1052600096E00E94321BCE0184960E940A1A0C948A
:10527000B73462E973E0CE0101960E94681ABE015C
:105280006F5F7F4F8AE396E00E9472188C01CE0117
:1052900001960E940A1A17FF02C00C94FE336AE3BB
:1052A00076E083E795E00E94201B8091E1038D7FEB
:1052B000813009F057C06FE873E0CE0148960E9434
:1052C000681ABE01685E7F4F8AE396E00E947218FA
:1052D0004AE0BC01CE0142960E940F1ACE014296CE
:1052E0000E9462176B017C0163EC72E0CE01849630
:1052F0000E947A1ABE016C5D7F4F8AE396E00E949D
:1053000072184AE0BC01CE014E960E940F1ACE01DF
:105310004E960E946217960121503109AB01485FF9
:105320005F4F6AE376E0CE0101960E948F1ABE01BC
:105330006F5F7F4F84E396E00E94D119CE01019602
:105340000E940A1ACE014E960E940A1ACE01849635
:105350000E940A1ACE0142960E940A1ACE0148966D
:105360000E940A1A8091E103823009F057C06CE86C
:1053700073E0CE0148960E94681ABE01685E7F4FB6
:105380008AE396E00E9472184AE0BC01CE01429680
:105390000E940F1ACE0142960E9462176B017C0197
:1053A00063EC72E0CE0184960E947A1ABE016C5DB5
:1053B0007F4F8AE396E00E9472184AE0BC01CE015A
:1053C0004E960E940F1ACE014E960E9462179601C9
:1053D00021503109AB01485F5F4F6AE376E0CE01AF
:1053E00001960E948F1ABE016F5F7F4F84E396E0A3
:1053F0000E94D119CE0101960E940A1ACE014E9642
:105400000E940A1ACE0184960E940A1ACE01429680
:105410000E940A1ACE0148960E940A1A60E873E0B8
:1054200083E795E00E94E31A64E376E083E795E082
:105430000E94201B64E376E0CE0101960E94711A5F
:10544000CE0101960E941A07182FCE0101960E94E4
:105450000A1A113011F00C94B73464E376E0CE01EF
:1054600042960E94711A6BEB73E08091C201909199
:10547000C3010E940714BC01CE0101960E947A1A52
:10548000BE016E5E7F4FCE0101960E948C18082FE0
:10549000CE0101960E940A1ACE0142960E940A1A73
:1054A00001111093EF0381E08093E0030E94172322
:1054B0008091EF03813009F05DC769E573E0CE01AB
:1054C00001960E94681ABE016F5F7F4F8AE396E0E3
:1054D0000E9472188C01CE0101960E940A1A17FDD3
:1054E0000EC06AE376E0CE0101960E94711ACE01E9
:1054F00001960E94EA1FCE0101960E940A1A6DE4ED
:1055000073E0CE0101960E94681ABE016F5F7F4F63
:105510008AE396E00E9472188C01CE0101960E94E7
:105520000A1A17FD0EC06AE376E0CE0101960E94CA
:10553000711ACE0101960E949C1ECE0101960E9416
:105540000A1A62E473E0CE0101960E94681ABE0155
:105550006F5F7F4F8AE396E00E9472188C01CE0144
:1055600001960E940A1A17FDD3C06BEC72E0CE01BF
:1055700042960E947A1ABE016E5E7F4F8AE396E0E1
:105580000E9468184AE0BC01CE0101960E940F1AE1
:10559000CE0101960E946217AB014F5F5F4F6AE335
:1055A00076E0CE0184960E94F40BCE0101960E9413
:1055B0000A1ACE0142960E940A1A6AE173E0CE01ED
:1055C00001960E947A1A69E173E0CE0142960E9428
:1055D0007A1AAE014F5F5F4FBE016E5E7F4FCE0104
:1055E00084960E946D17CE0142960E940A1ACE013F
:1055F00001960E940A1A6DEC72E0CE0142960E945A
:105600007A1ABE016E5E7F4FCE0184960E94721898
:105610004AE0BC01CE0101960E940F1ACE0101960C
:105620000E9462179B0140E050E0BE016C5D7F4F1D
:10563000CE014E960E948F1ACE0101960E940A1A40
:10564000CE0142960E940A1A6DEC72E0CE0142969B
:105650000E947A1ABE016E5E7F4F8AE396E00E9436
:1056600068184AE0BC01CE0101960E940F1ACE01D3
:1056700001960E946217AB014F5F5F4F6AE376E0CD
:10568000CE0148960E94F40BCE0101960E940A1AA0
:10569000CE0142960E940A1ACE0148960E946217D5
:1056A000162FBE01625E7F4FCE0101960E94711AD5
:1056B00041E150E06CEC73E0CE0101960E94F422CF
:1056C0006CEC73E08EE190E00E942D14612F80E37A
:1056D00090E00E94601461E081E390E00E94601419
:1056E0000E94620B83E795E00E941C1B0E94FE064D
:1056F000CE0101960E940A1ACE0148960E940A1A0B
:10570000CE014E960E940A1ACE0184960E940A1A71
:1057100068E373E0CE0101960E94681ABE016F5FD4
:105720007F4F8AE396E00E9472188C01CE010196A9
:105730000E940A1A17FD81C06BEC72E0CE014296FE
:105740000E947A1ABE016E5E7F4F8AE396E00E9445
:1057500068184AE0BC01CE0101960E940F1ACE01E2
:1057600001960E946217AB014F5F5F4F6AE376E0DC
:10577000CE0148960E94F40BCE0101960E940A1AAF
:10578000CE0142960E940A1A6AE173E0CE010196A8
:105790000E947A1A69E173E0CE0142960E947A1A59
:1057A000AE014F5F5F4FBE016E5E7F4FCE014896E8
:1057B0000E946D17CE0142960E940A1ACE010196F0
:1057C0000E940A1ABE01685E7F4FCE0142960E9477
:1057D000711ACE0142960E946217DC01CB0101973B
:1057E000A109B109CC97A105B10510F00C94EE34D4
:1057F000CE0142960E946217162F8FE090E00E9421
:1058000060141093870267E371E083E795E00E94DC
:10581000E31A8FE090E00E9470146AE070E00E944A
:105820009A220E949C1B0E94FE06CE0142960E9474
:105830000A1ACE0148960E940A1A67E273E0CE0166
:1058400001960E94681ABE016F5F7F4F8AE396E05F
:105850000E9472188C01CE0101960E940A1A17FD4F
:1058600080C06BEC72E0CE0142960E947A1ABE01B3
:105870006E5E7F4F8AE396E00E9468184AE0BC01A2
:10588000CE0101960E940F1ACE0101960E94621766
:10589000AB014F5F5F4F6AE376E0CE0148960E940E
:1058A000F40BCE0101960E940A1ACE0142960E9484
:1058B0000A1A6AE173E0CE0101960E947A1A69E140
:1058C00073E0CE0142960E947A1AAE014F5F5F4F9D
:1058D000BE016E5E7F4FCE0148960E946D17CE01CD
:1058E00042960E940A1ACE0101960E940A1ABE012F
:1058F000685E7F4FCE0142960E94711ACE01429699
:105900000E9462176F3F71058105910519F010F033
:105910000C940235CE0142960E946217162F6091B8
:10592000EE0385E190E00E9460141093EE0366E4BC
:1059300071E083E795E00E94E31A85E190E00E9420
:1059400070146AE070E00E949A220E949C1B0E94E0
:10595000FE06CE0142960E940A1ACE0148960E9487
:105960000A1A66E173E0CE0101960E94681ABE0130
:105970006F5F7F4F8AE396E00E9472188C01CE0120
:1059800001960E940A1A17FD7FC06BEC72E0CE01EF
:1059900042960E947A1ABE016E5E7F4F8AE396E0BD
:1059A0000E9468184AE0BC01CE0101960E940F1ABD
:1059B000CE0101960E946217AB014F5F5F4F6AE311
:1059C00076E0CE0148960E94F40BCE0101960E942B
:1059D0000A1ACE0142960E940A1A6AE173E0CE01C9
:1059E00001960E947A1A69E173E0CE0142960E9404
:1059F0007A1AAE014F5F5F4FBE016E5E7F4FCE01E0
:105A000048960E946D17CE0142960E940A1ACE0156
:105A100001960E940A1ABE01685E7F4FCE0142962F
:105A20000E94711ACE0142960E9462176F3F710563
:105A30008105910511F008F0F9C7CE0142960E9448
:105A40006217162F6091ED0385E190E00E946014CB
:105A50001093ED036CE571E083E795E00E94E31A93
:105A600086E190E00E9470146AE070E00E949A2241
:105A70000E949C1B0E94FE06CE0142960E940A1ABA
:105A8000CE0148960E940A1A69E073E0CE010196A1
:105A90000E94681ABE016F5F7F4F8AE396E00E9402
:105AA00072188C01CE0101960E940A1A17FD6BC074
:105AB0006BEC72E0CE0142960E947A1ABE016E5ED5
:105AC0007F4F8AE396E00E9468184AE0BC01CE014D
:105AD00001960E940F1ACE0101960E946217AB0137
