:100000000C9431040C9459040C9459040C94BC1DA8
:100010000C94BC1D0C94BC1D0C9459040C945904F4
:100020000C9459040C9459040C9459040C945904DC
:100030000C9459040C9459040C9459040C945904CC
:100040000C94441C0C9459040C9403260C94DD2548
:100050000C9459040C9459040C9459040C945904AC
:100060000C948E1C0C94590450686F6E652061646A
:100070006465642E004572726F722C207468697317
:100080002070686F6E6520616C72656164792065AF
:10009000786973747320696E207468652063656C79
:1000A0006C3A20004572726F722C2077726F6E6707
:1000B000206E756D626572206F662063656C6C736F
:1000C0002E004572726F722C2066697273742072F2
:1000D000656769737465722061207072696D617201
:1000E000792070686F6E652E004572726F722064A1
:1000F000656C6574696E672070686F6E653A202B59
:100100000044656C6574652070686F6E653A202BDD
:1001100000506175736554696D652069733A2000FC
:1001200044656C61794265666F726547756172649A
:100130002069733A200044656C61794265666F728C
:1001400065416C61726D2069733A20005761746378
:10015000682074686520706F776572204F4646008E
:10016000477561726420627574746F6E3A204F4EE9
:100170002F4F4646206D6F6465004775617264209D
:10018000627574746F6E3A204F4E206D6F64650017
:10019000477561726420627574746F6E204F4646B5
:1001A0000053656E736F72206461746120736176B1
:1001B00065642E004572726F722073656E736F7284
:1001C000206E756D626572006661696C65642E00F3
:1001D0007061737365642E0054657374200046610A
:1001E000696C65642063656C6C3A2000420045458B
:1001F00050524F4D3A200043757272656E7420491B
:1002000044203D20004E6F206D6F64656D2E0053BD
:10021000494D3830304C004D3539306500456D75ED
:100220006C6174653A200050726576696F75732051
:100230004944203D200041542B435553443D312C2B
:100240002200534D532072656D6F76656400340053
:10025000302C340041542B434D47443D00636C65C2
:100260006172736D73006C65646F6666006C6564C3
:100270006F6E00746573746F666600746573746F77
:100280006E002D2D2D2D544553542D2D2D2D002038
:10029000006F6E2E006F66662E002D2D2D2D54459D
:1002A00053542D2D2D2D00496E666F3A2050495222
:1002B0002000696E666F0067756172646F66660024
:1002C00067756172646F6E007061757365006D6F44
:1002D0006E6579003D006D6F64656D6964006C69E1
:1002E000737470686F6E65006932637363616E006A
:1002F0006D656D74657374006C69737473656E738A
:100300006F72006C697374636F6E66696700656411
:10031000697473656E736F7200677561726462757C
:1003200074746F6E6F66660067756172646275746F
:10033000746F6E6F6E32006775617264627574748B
:100340006F6E6F6E31007761746368706F7765727E
:100350006F6666007761746368706F7765726F6E41
:1003600032007761746368706F7765726F6E310009
:10037000504952204F4646007069726F66660050C1
:100380004952204F4E007069726F6E00536D73209A
:100390004F464600736D736F666600536D73204F52
:1003A0004E00736D736F6E0052696E67204F464644
:1003B0000072696E676F66660052696E67204F4E05
:1003C0000072696E676F6E007265736574636F6E3D
:1003D00066696700726573657470686F6E65006644
:1003E000756C6C726573657400616C61726D7069B7
:1003F0006E74696D650064656C61796265666F72C3
:1004000065616C61726D0064656C61796265666FCF
:100410007265677561726400736C65657074696D8F
:10042000650062616C616E63656E756D0064656C1C
:1004300065746570686F6E650061646470686F6E86
:1004400065004C6F61642064656661756C7420732F
:10045000656E736F7220646174612E0044656C6513
:1004600074696E672073656E736F72206461746166
:100470002E0053696C656E74206D6F646521006F8A
:1004800066662E006F6E2E00476F2100496E6974FC
:1004900020706172616D732E2E2E0047534D2041E6
:1004A0006C61726D2031372E30342E323500506F32
:1004B00077657220737570706C7920726573746FD4
:1004C0007265642100506F77657220737570706C6F
:1004D0007920646973636F6E6E656374656421006F
:1004E0004D61696E2073656E736F722100504952C1
:1004F0002073656E736F7221005072696D6172793D
:100500002070686F6E653A202B0041542B4348558C
:10051000500041542B435553443D300055535344F0
:100520002071756572793A20002B435553443A0087
:10053000534D532066726F6D3A202B002C22002CF5
:100540002C002B434D543A0052696E672066726F3F
:100550006D3A202B002C0052494E47004C656E67C7
:10056000746820746F2072657475726E3A20004E44
:10057000756D6265723A20004C6F61642064656637
:1005800061756C742062616C616E63652064617476
:10059000612E0044656C6574696E672062616C61F0
:1005A0006E636520646174612E00416C61726D49F7
:1005B0006E74657276616C2069733A20004C6F61CD
:1005C000642064656661756C742070686F6E652068
:1005D000646174612E0044656C6574696E67207097
:1005E000686F6E6520646174612E005265616420DD
:1005F00061727261792070686F6E653A0044656C53
:1006000061794265666F7265416C61726D3A200076
:1006100044656C61794265666F72654775617264A5
:100620003A20004775617264427574746F6E456E4E
:1006300061626C653A200057617463684578745054
:100640006F7765723A200050495247756172643A7B
:100650002000416C61726D496E74657276616C3A0E
:100660002000506175736554696D653A20004775C7
:100670006172643A20004C65644F6E3A2000546504
:1006800073744F6E3A2000416C61726D52696E67EF
:100690003A200053656E64536D733A2000526561D1
:1006A0006420656570726F6D636F6E6669673A008E
:1006B0004C6F61642064656661756C74206565705B
:1006C000726F6D636F6E66696720646174612E007E
:1006D00044656C6574696E6720656570726F6D63E3
:1006E0006F6E66696720646174612E004154453005
:1006F00000415445310041542B434E4D493D322C6D
:10070000320041542B435343533D2247534D220063
:1007100041542B434D47463D310041542B434C49F6
:10072000503D310041360053494D383030004D3591
:1007300039300041544900415400477561726420CA
:100740004F4646004775617264204F46462E002092
:10075000427574746F6E002050686F6E65202B00B8
:1007600020436F6E736F6C65004775617264204F34
:100770004E004775617264204F4E2E003B0041547D
:10078000442B0000000000240027002A0000000085
:100790000800020100000304070000000000000040
:1007A0000057617463682074686520706F776572A4
:1007B000204F4E004932432064657669636573209B
:1007C0006E6F7420666F756E640030004572726FD4
:1007D00072206174203078006465746563746564A8
:1007E00020504346383537340A0030004932432020
:1007F0006465766963652061742030780053656EA6
:10080000736F7220646174613A00220022004154C7
:100810002B434D47533D220041542B434D47533DFD
:10082000220000000000250028002B00000000002E
:100830002300260029000404040404040404020222
:10084000020202020303030303030102040810204F
:1008500040800102040810200102040810203E32EA
:10086000023211241FBECFEFD8E0DEBFCDBF13E0B0
:10087000A0E0B1E0E0ECFEE602C005900D92A232ED
:10088000B107D9F726E0A2E2B3E001C01D92A83576
:10089000B207E1F714E0C0E3D4E004C02197FE0101
:1008A0000E94F534CF32D107C9F70E94BC290C94BD
:1008B00053370C9400009F92AF92BF92CF92DF9279
:1008C000EF92FF920F931F93CF93DF93CDB7DEB7D5
:1008D000E0970FB6F894DEBF0FBECDBF8091DE0368
:1008E000813031F463E276E08CE595E00E94B92531
:1008F00068EF72E0CE0142960E940C2563EC72E034
:10090000CE0101960E940C25AE014E5E5F4FBE01E6
:100910006F5F7F4F83E296E00E94FF21CE01019638
:100920000E949C24CE0142960E949C2468EF72E0B3
:10093000CE0142960E940C2567EF72E0CE0101962F
:100940000E940C25AE014E5E5F4FBE016F5F7F4F70
:1009500083E296E00E94FF21CE0101960E949C2432
:10096000CE0142960E949C240091230610912406F9
:100970000115110539F48091E203813011F00C94D6
:100980009B100DC0F80180818823A9F3082E000C6C
:10099000990B0E94F736F80181938F01F3CF69E339
:1009A00074E0CE0101960E94FA24BE016F5F7F4F72
:1009B00083E296E00E9404238C01CE0101960E94FE
:1009C0009C2417FDC6C163E276E0CE018A960E94A0
:1009D000032565EC72E0CE0142960E940C25BE0113
:1009E0006E5E7F4FCE018A960E94FA224AE0BC01D9
:1009F000CE0101960E94A124CE0101960E94F4210D
:100A0000AB014F5F5F4FBE01665D7F4FCE018496A5
:100A10000E94AA19CE0101960E949C24CE01429602
:100A20000E949C2467EC72E0CE0101960E940C2586
:100A3000BE016F5F7F4FCE0184960E940423C92EB2
:100A4000CE0101960E949C2469EC72E0CE010196D1
:100A50000E940C25BE016F5F7F4FCE0184960E94DD
:100A60000423D92ECE0101960E949C2468EF72E0E7
:100A7000CE0101960E940C2567EC72E0CE014296F1
:100A80000E940C25AE014F5F5F4FBE016E5E7F4F2F
:100A9000CE0184960E94FF21CE0142960E949C24A2
:100AA000CE0101960E949C2468EF72E0CE0101966F
:100AB0000E940C2569EC72E0CE0142960E940C2542
:100AC000AE014F5F5F4FBE016E5E7F4FCE018496D9
:100AD0000E94FF21CE0142960E949C24CE010196E5
:100AE0000E949C2468EF72E0CE0101960E940C25C2
:100AF0006BEC72E0CE0142960E940C25AE014F5F76
:100B00005F4FBE016E5E7F4FCE0184960E94FF2133
:100B1000CE0142960E949C24CE0101960E949C2404
:100B200060ED72E0CE0142960E940C25BE016E5E21
:100B30007F4FCE0184960E9404234AE0BC01CE017F
:100B400001960E94A124CE0101960E94F4219B01EE
:100B500040E050E0BE016C5D7F4FCE014E960E949A
:100B60002125CE0101960E949C24CE0142960E942E
:100B70009C2460ED72E0CE0142960E940C25BE01DD
:100B80006E5E7F4FCE0184960E94FA224AE0BC013D
:100B9000CE0101960E94A124CE0101960E94F4216B
:100BA000AB014F5F5F4FBE016C5D7F4FCE0148963A
:100BB0000E94AA19CE0101960E949C24CE01429661
:100BC0000E949C24CE014E960E94F421062FBE0165
:100BD000685E7F4FCE0142960E9403256DEC73E064
:100BE0008091C8019091C9010E94381EBC01CE01BC
:100BF00001960E940C25CE0101960E947828182F9C
:100C0000CE0101960E949C24112361F062EC70E0F9
:100C10008CE595E00E94CB250E94CD260E94F2141F
:100C200010E001C011E08EEF800F8A3058F064EAC6
:100C300070E08CE595E00E94CB250E94CD260E94B5
:100C4000F21410E045EBA42E41E0B42EE12CF12C7F
:100C50006DEC73E0F501838994890E94381EBC0114
:100C6000CE0101960E940C25BE016E5E7F4FCE0123
:100C700001960E941E23982ECE0101960E949C246C
:100C800097012F5F3F4F7901992071F065E770E080
:100C90008CE595E00E947C25C7010E942F290E94C7
:100CA000CD260E94F21410E035E1A30EB11C8AE0BB
:100CB000E816F10469F61130B1F541E150E06CEB52
:100CC00073E0CE0142960E946229015095E1099F8E
:100CD000800111240B541E4F6CEB73E0F8018389E3
:100CE00094890E941F206C2D6095661F6627661FE1
:100CF000F8018389948942960E9435266D2D60956E
:100D0000661F6627661FF8018389948943960E94AF
:100D1000352668E670E08CE595E00E94CB250E94C0
:100D2000CD260E94DA140E94B816CE0142960E9487
:100D30009C24CE0148960E949C24CE014E960E948F
:100D40009C24CE0184960E949C24CE018A960E9407
:100D50009C246DE274E0CE0101960E94FA24BE014B
:100D60006F5F7F4F83E296E00E9404238C01CE01E7
:100D700001960E949C2417FDFFC063E276E0CE013D
:100D800084960E94032565EC72E0CE0142960E9493
:100D90000C25BE016E5E7F4FCE0184960E94FA2222
:100DA0004AE0BC01CE0101960E94A124CE01019629
:100DB0000E94F421AB014F5F5F4FBE016C5D7F4F1E
:100DC000CE014E960E94AA19CE0101960E949C2443
:100DD000CE0142960E949C2468EF72E0CE010196FB
:100DE0000E940C256BEC72E0CE0142960E940C250D
:100DF000AE014F5F5F4FBE016E5E7F4FCE014E96DC
:100E00000E94FF21CE0142960E949C24CE010196B1
:100E10000E949C2460ED72E0CE0142960E940C2557
:100E2000BE016E5E7F4FCE014E960E94FA224AE0CE
:100E3000BC01CE0101960E94A124CE0101960E9420
:100E4000F421AB014F5F5F4FBE01625E7F4FCE0169
:100E500048960E94AA19CE0101960E949C24CE01B8
:100E600042960E949C24BE01685E7F4FCE0142964E
:100E70000E9403250DED11E021E03DE0F32E6E010F
:100E8000F5E0CF0ED11C6DEC73E0F801808191810B
:100E900028AB0E94381EBC01CE0101960E940C2591
:100EA000BE016E5E7F4FCE0101960E941E23E82E8A
:100EB000CE0101960E949C2428A9EE2099F1198266
:100EC0001A821B821C82F6012F2D11922A95E9F7B6
:100ED000BE016F5F7F4FF801808191810E941F20CA
:100EE000F8018081918160E042960E943526F801E8
:100EF0008081918160E043960E94352661E071E037
:100F00008CE595E00E947C25BE016E5E7F4F8CE5EE
:100F100095E00E94B9250E94CD260E94B8160E9435
:100F2000DA1420E00B5E1F4FF2E00A391F0709F0C8
:100F3000AACF213089F469EE70E08CE595E00E943B
:100F40007C25BE016E5E7F4F8CE595E00E94B92541
:100F50000E94CD260E94F214CE0142960E949C244B
:100F6000CE0148960E949C24CE014E960E949C245D
:100F7000CE0184960E949C2462E274E0CE01019628
:100F80000E94FA24BE016F5F7F4F83E296E00E94C9
:100F900004238C01CE0101960E949C2417FDB5C04C
:100FA00065EC72E0CE0101960E940C25BE016F5FD8
:100FB0007F4F83E296E00E94FA224AE0BC01CE0114
:100FC00042960E94A124CE0142960E94F421AB01D8
:100FD0004F5F5F4F63E276E0CE0148960E94AA1908
:100FE000CE0142960E949C24CE0101960E949C2430
:100FF00062ED72E0CE0101960E940C25BE016F5F8A
:101000007F4FCE0148960E9404234AE0BC01CE01E6
:101010004E960E94A124CE014E960E94F4219B017F
:1010200040E050E0BE01685E7F4FCE0142960E94D4
:101030002125CE014E960E949C24CE0101960E944D
:101040009C2462ED72E0CE014E960E940C25BE01FA
:10105000625E7F4F83E296E00E94FA224AE0BC0182
:10106000CE0184960E94A124CE0184960E94F42190
:10107000AB014F5F5F4F63E276E0CE0101960E94C5
:10108000AA19CE0184960E949C24CE014E960E94FD
:101090009C24CE0101960E94F421162FBE016E5EA3
:1010A0007F4FCE014E960E94032541E150E062E25F
:1010B00073E0CE014E960E94622962E273E08EE1F7
:1010C00090E00E941F20612F80E390E00E9435266F
:1010D00061E081E390E00E9435260E9422198CE5B0
:1010E00095E00E94B5250E94DA14CE014E960E942A
:1010F0009C24CE0101960E949C24CE0142960E941F
:101100009C24CE0148960E949C2468E174E0CE01A4
:1011100001960E94FA24BE016F5F7F4F83E296E042
:101120000E9404238C01CE0101960E949C2417FD8D
:1011300063C065EC72E0CE0101960E940C25BE01F1
:101140006F5F7F4F83E296E00E94FA224AE0BC0183
:10115000CE0148960E94A124CE0148960E94F42117
:10116000AB014F5F5F4F63E276E0CE0142960E9493
:10117000AA19CE0148960E949C24CE0101960E9495
:101180009C24BE016E5E7F4FCE0101960E94032516
:10119000CE0101960E94F421DC01CB010197A10947
:1011A000B109CC97A105B10510F00C940913CE013B
:1011B00001960E94F421162F8FE090E00E943526C0
:1011C0001093000161E171E08CE595E00E947C25BF
:1011D0008FE090E00E9445266AE070E00E940E29B0
:1011E0000E94CD260E94DA14CE0101960E949C2412
:1011F000CE0142960E949C2467E074E0CE010196E5
:101200000E94FA24BE016F5F7F4F83E296E00E9446
:1012100004238C01CE0101960E949C2417FD60C01E
:1012200065EC72E0CE0101960E940C25BE016F5F55
:101230007F4F83E296E00E94FA224AE0BC01CE0191
:1012400048960E94A124CE0148960E94F421AB0149
:101250004F5F5F4F63E276E0CE0142960E94AA198B
:10126000CE0148960E949C24CE0101960E949C24A7
:10127000BE016E5E7F4FCE0101960E940325CE0116
:1012800001960E94F4216F3F71058105910519F0C7
:1012900010F00C941D13CE0101960E94F421162F1C
:1012A00085E190E00E9435261093F40360E271E03E
:1012B0008CE595E00E947C2585E190E00E94452622
:1012C0006AE070E00E940E290E94CD260E94DA1486
:1012D000CE0101960E949C24CE0142960E949C243D
:1012E00066EF73E0CE0101960E94FA24BE016F5FA3
:1012F0007F4F83E296E00E9404238C01CE01019689
:101300000E949C2417FD60C065EC72E0CE0101963E
:101310000E940C25BE016F5F7F4F83E296E00E9422
:10132000FA224AE0BC01CE0148960E94A124CE01D7
:1013300048960E94F421AB014F5F5F4F63E276E075
:10134000CE0142960E94AA19CE0148960E949C2482
:10135000CE0101960E949C24BE016E5E7F4FCE019D
:1013600001960E940325CE0101960E94F4216F3F51
:1013700071058105910519F010F00C943113CE011F
:1013800001960E94F421162F86E190E00E943526F6
:101390001093BB0366E371E08CE595E00E947C2529
:1013A00086E190E00E9445266AE070E00E940E29E6
:1013B0000E94CD260E94DA14CE0101960E949C2440
:1013C000CE0142960E949C2469EE73E0CE01019604
:1013D0000E94FA24BE016F5F7F4F83E296E00E9475
:1013E00004238C01CE0101960E949C2417FD4EC05F
:1013F00065EC72E0CE0101960E940C25BE016F5F84
:101400007F4F83E296E00E94FA224AE0BC01CE01BF
:1014100042960E94A124CE0142960E94F421AB0183
:101420004F5F5F4F63E276E0CE0148960E94AA19B3
:10143000CE0142960E949C24CE0101960E949C24DB
:10144000BE01685E7F4FCE0142960E940325CE0109
:1014500042960E94F421DC01CB010197A109B10958
:10146000803C984AA105B10510F00C944513CE01BB
:1014700042960E94F421CB010E948E17CE01429623
:101480000E949C24CE0148960E949C246FED73E03C
:10149000CE0101960E94FA24BE016F5F7F4F83E266
:1014A00096E00E9404238C01CE0101960E949C24A8
:1014B00017FD17C06FEF80E090E00E9435260E9474
:1014C000B9176FEF83E690E00E9435260E94281737
:1014D0006FEF81E390E00E9435260E9422190E945E
:1014E000DA1464ED73E0CE0101960E94FA24BE0185
:1014F0006F5F7F4F83E296E00E9404238C01CE0150
:1015000001960E949C2417FD09C06FEF83E690E0CE
:101510000E9435260E9428170E94DA1468EC73E0B6
:10152000CE0101960E94FA24BE016F5F7F4F83E2D5
:1015300096E00E9404238C01CE0101960E949C2417
:1015400017FD09C06FEF80E090E00E9435260E94F1
:10155000B9170E94DA1461EC73E0CE0101960E9483
:10156000FA24BE016F5F7F4F83E296E00E9404235E
:101570008C01CE0101960E949C2417FD37C081E0AA
:101580008093880261E08BE090E00E943526809194
:10159000E103813059F560ED72E0CE0142960E9480
:1015A0000C2567E176E0CE0142960E94FA23BC0149
:1015B000CE0148960E94032569EB73E0CE010196A7
:1015C0000E94FA2440E0BE01685E7F4FCE01019682
:1015D0000E944726CE0101960E949C24CE01489687
:1015E0000E949C24CE0142960E949C2461EB73E0F1
:1015F000CE0101960E94FA24BE016F5F7F4F83E205
:1016000096E00E9404238C01CE0101960E949C2446
:1016100017FD36C01092880260E08BE090E00E94D7
:1016200035268091E103813059F560ED72E0CE01FD
:1016300042960E940C2567E176E0CE0142960E9418
:10164000FA23BC01CE0148960E94032568EA73E0A4
:10165000CE0101960E94FA2440E0BE01685E7F4FF1
:10166000CE0101960E944726CE0101960E949C243D
:10167000CE0148960E949C24CE0142960E949C2452
:1016800062EA73E0CE0101960E94FA24BE016F5F08
:101690007F4F83E296E00E9404238C01CE010196E5
:1016A0000E949C2417FD37C081E08093010161E016
:1016B0008AE090E00E9435268091E103813059F55F
:1016C00060ED72E0CE0142960E940C2567E176E063
:1016D000CE0142960E94FA23BC01CE0148960E9498
:1016E00003256BE973E0CE0101960E94FA2440E0E5
:1016F000BE01685E7F4FCE0101960E944726CE0153
:1017000001960E949C24CE0148960E949C24CE0102
:1017100042960E949C2464E973E0CE0101960E94E7
:10172000FA24BE016F5F7F4F83E296E00E9404239C
:101730008C01CE0101960E949C2417FD36C0809139
:10174000E103813059F560ED72E0CE0142960E94CE
:101750000C2567E176E0CE0142960E94FA23BC0197
:10176000CE0148960E9403256CE873E0CE010196F5
:101770000E94FA2440E0BE01685E7F4FCE010196D0
:101780000E944726CE0101960E949C24CE014896D5
:101790000E949C24CE0142960E949C24109201013A
:1017A00060E08AE090E00E94352666E873E0CE01B2
:1017B00001960E94FA24BE016F5F7F4F83E296E09C
:1017C0000E9404238C01CE0101960E949C2417FDE7
:1017D00037C081E08093B90361E082E190E00E942C
:1017E00035268091E103813059F560ED72E0CE013C
:1017F00042960E940C2567E176E0CE0142960E9457
:10180000FA23BC01CE0148960E9403256FE773E0DE
:10181000CE0101960E94FA2440E0BE01685E7F4F2F
:10182000CE0101960E944726CE0101960E949C247B
:10183000CE0148960E949C24CE0142960E949C2490
:1018400068E773E0CE0101960E94FA24BE016F5F43
:101850007F4F83E296E00E9404238C01CE01019623
:101860000E949C2417FD36C01092B90360E082E10B
:1018700090E00E9435268091E103813059F560EDBA
:1018800072E0CE0142960E940C2567E176E0CE011F
:1018900042960E94FA23BC01CE0148960E9403257D
:1018A00060E773E0CE0101960E94FA2440E0BE0199
:1018B000685E7F4FCE0101960E944726CE010196B9
:1018C0000E949C24CE0148960E949C24CE01429600
:1018D0000E949C2462E673E0CE0101960E94FA24E5
:1018E000BE016F5F7F4F83E296E00E9404238C016C
:1018F000CE0101960E949C2417FD05C061E08091F5
:10190000E1030E942B2864E573E0CE0101960E945A
:10191000FA24BE016F5F7F4F83E296E00E940423AA
:101920008C01CE0101960E949C2417FD05C062E047
:101930008091E1030E942B2866E473E0CE010196BA
:101940000E94FA24BE016F5F7F4F83E296E00E94FF
:1019500004238C01CE0101960E949C2417FD3AC0FD
:101960001091E1031092060160E083E190E00E9493
:101970003526113079F58091E103813059F560ED1C
:1019800072E0CE0142960E940C2567E176E0CE011E
:1019900042960E94FA23BC01CE0148960E9403257C
:1019A0006CE471E0CE0101960E94FA2440E0BE0191
:1019B000685E7F4FCE0101960E944726CE010196B8
:1019C0000E949C24CE0148960E949C24CE014296FF
:1019D0000E949C2467E373E0CE0101960E94FA24E2
:1019E000BE016F5F7F4F83E296E00E9404238C016B
:1019F000CE0101960E949C2417FD3BC01091E1038B
:101A000081E080935C0361E084E190E00E943526F0
:101A1000113079F58091E103813059F560ED72E084
:101A2000CE0142960E940C2567E176E0CE014296F7
:101A30000E94FA23BC01CE0148960E94032560E66D
:101A400071E0CE0101960E94FA2440E0BE01685E7A
:101A50007F4FCE0101960E944726CE0101960E943B
:101A60009C24CE0148960E949C24CE0142960E945E
:101A70009C2468E273E0CE0101960E94FA24BE0124
:101A80006F5F7F4F83E296E00E9404238C01CE01BA
:101A900001960E949C2417FD3BC01091E10382E057
:101AA00080935C0362E084E190E00E94352611306F
:101AB00079F58091E103813059F560ED72E0CE0156
:101AC00042960E940C2567E176E0CE0142960E9484
:101AD000FA23BC01CE0148960E9403256AE771E013
:101AE000CE0101960E94FA2440E0BE01685E7F4F5D
:101AF000CE0101960E944726CE0101960E949C24A9
:101B0000CE0148960E949C24CE0142960E949C24BD
:101B100069E173E0CE0101960E94FA24BE016F5F75
:101B20007F4F83E296E00E9404238C01CE01019650
:101B30000E949C2417FD3AC01091E10310925C03AF
:101B400060E084E190E00E943526113079F58091C3
:101B5000E103813059F560ED72E0CE0142960E94BA
:101B60000C2567E176E0CE0142960E94FA23BC0183
:101B7000CE0148960E94032560E971E0CE010196EE
:101B80000E94FA2440E0BE01685E7F4FCE010196BC
:101B90000E944726CE0101960E949C24CE014896C1
:101BA0000E949C24CE0142960E949C246EE073E029
:101BB000CE0101960E94FA24BE016F5F7F4F83E23F
:101BC00096E00E9404238C01CE0101960E949C2481
:101BD00017FD26C163E276E0CE018A960E940325B6
:101BE00065EC72E0CE0142960E940C25BE016E5E4D
:101BF0007F4FCE018A960E94FA224AE0BC01CE01B4
:101C000001960E94A124CE0101960E94F421AB010D
:101C10004F5F5F4FBE01665D7F4FCE0184960E948D
:101C2000AA19CE0101960E949C24CE0142960E94E0
:101C30009C2464ED72E0CE0101960E940C25BE0149
:101C40006F5F7F4FCE0184960E940423092FCE013F
:101C500001960E949C2468EF72E0CE0101960E94DA
:101C60000C2564ED72E0CE0142960E940C25AE0177
:101C70004F5F5F4FBE016E5E7F4FCE0184960E9424
:101C8000FF21CE0142960E949C24CE0101960E9423
:101C90009C2460ED72E0CE0142960E940C25BE01AC
:101CA0006E5E7F4FCE0184960E9404234AE0BC0101
:101CB000CE0101960E94A124CE0101960E94F4213A
:101CC0009B0140E050E0BE016C5D7F4FCE014E961F
:101CD0000E942125CE0101960E949C24CE014296AD
:101CE0000E949C2460ED72E0CE0142960E940C2579
:101CF000BE016E5E7F4FCE0184960E94FA224AE0BA
:101D0000BC01CE0101960E94A124CE0101960E9441
:101D1000F421AB014F5F5F4FBE016C5D7F4FCE0181
:101D200048960E94AA19CE0101960E949C24CE01D9
:101D300042960E949C24CE014E960E94F421162FBA
:101D4000BE01685E7F4FCE0101960E9403251150AF
:101D5000183048F064EB71E08CE595E00E94CB25EB
:101D60000E94F21445C046E250E063E373E0CE0106
:101D700001960E946229C12ED12C35E1139FF001FA
:101D80001124E95FFE4F8389948923E3E22E23E047
:101D9000F22EFC01E353F3405F01C5018E0D9F1D40
:101DA000F70161917F019B8B8A8BCE0142960E9445
:101DB0008A19F9E5EF16F3E0FF0679F7602F6095D1
:101DC000661F6627661F85E18C9DF0018D9DF00DD5
:101DD0001124E95FFE4F8389948987960E943526F6
:101DE00061EA71E08CE595E00E94CB250E94DA144F
:101DF0000E94CD260E94D126CE0101960E949C24ED
:101E0000CE0148960E949C24CE014E960E949C24AE
:101E1000CE0184960E949C24CE018A960E949C2426
:101E200063E073E0CE0101960E94FA24BE016F5F69
:101E30007F4F83E296E00E9404238C01CE0101963D
:101E40000E949C2417FD04C00E94B9170E94221909
:101E500068EF72E0CE0101960E94FA24BE016F5F26
:101E60007F4F83E296E00E9404238C01CE0101960D
:101E70000E949C2417FF0E94D12660EF72E0CE01E1
:101E800001960E94FA24BE016F5F7F4F83E296E0C5
:101E90000E9404238C01CE0101960E949C2417FD10
:101EA00093C00E9478332DEF30E040E050E00E9474
:101EB000333482E0F82EF60E6EEE71E08CE595E09C
:101EC0000E947C254AE060E074E080E090E00E949F
:101ED000CB286CEE71E08CE595E00E94CB2500E00C
:101EE00010E06F2DC8010E94253465E070E080E0AD
:101EF00090E00E94FE1B0F5F1F4F011524E01207A8
:101F000081F7C12CD12C00E010E0C8010E944526C9
:101F10008F15F1F16EED71E08CE595E00E947C2566
:101F2000C8010E944526E82E1B8A1A8A1D8A1C8A2F
:101F30001F8A1E8A4AE0BE016F5F7F4FC8010E9460
:101F4000F333BE016F5F7F4FCE0142960E9435246E
:101F5000BE016E5E7F4FCE0101960E9403256BE0AD
:101F600076E0CE0101960E94FA236E2D0E94B023E6
:101F7000BC018CE595E00E94B925CE0101960E9436
:101F80009C24CE0142960E949C243FEFC31AD30AA0
:101F900065E070E080E090E00E94FE1B0F5F1F4F45
:101FA000011584E0180709F0B0CF68ED71E08CE509
:101FB00095E00E947C25CD2809F08BC360ED71E08F
:101FC0008CE595E00E94CB2568EE72E0CE0101968B
:101FD0000E94FA24BE016F5F7F4F83E296E00E9469
:101FE00004238C01CE0101960E949C2417FF0E94BD
:101FF0002D276EED72E0CE0101960E94FA24BE01FB
:102000006F5F7F4F83E296E00E9404238C01CE0134
:1020100001960E949C2417FF0E94B81666ED72E09C
:10202000CE0101960E94FA24BE016F5F7F4F83E2CA
:1020300096E00E9404238C01CE0101960E949C240C
:1020400017FD77C064ED72E0CE0142960E94FA243B
:10205000BE016E5E7F4F83E296E00E94FA224AE064
:10206000BC01CE0148960E94A124CE0148960E9450
:10207000F421AB014F5F5F4F63E276E0CE01019642
:102080000E94AA19CE0148960E949C24CE01429635
:102090000E949C24CE0101960E94F421DC01CB0118
:1020A0000197A109B1090A97A105B10508F014C368
:1020B000CE0101960E94F421162F67E272E08CE5B2
:1020C00095E00E947C258091E403082E000C990B7A
:1020D0000E942F296DE172E08CE595E00E947C253D
:1020E000113029F41093E40367E172E00BC0123061
:1020F00029F41093E4036FE072E004C01092E4034B
:1021000065E072E08CE595E00E94CB2567EF71E019
:102110008CE595E00E947C258091E403082E000C5C
:10212000990B0E942F290E94CD26CE0101960E9474
:102130009C241092E2036EEC72E0CE0101960E94A4
:10214000FA24BE016F5F7F4F83E296E00E94042372
:102150008C01CE0101960E949C2417FD22C0809123
:10216000DE03813011F48093E00368EE73E080E0D9
:1021700090E00E94FE1B66E372E085E396E00E9419
:102180007C2569E276E085E396E00E946E2567EDA6
:1021900072E085E396E00E94A02585E396E00E9428
:1021A000B52568EC72E0CE0101960E94FA24BE01CA
:1021B0006F5F7F4F83E296E00E9404238C01CE0183
:1021C00001960E949C2417FD60C08091E10381303C
:1021D00009F04AC060ED72E0CE014E960E940C25D7
:1021E00067E176E0CE014E960E94FA23BC01CE0153
:1021F00084960E9403254AE060910001CE01429638
:102200000E94CD246CED72E0CE0101960E940C2557
:10221000BE016E5E7F4FCE0101960E94FA2363EEEF
:1022200072E00E94E123BC01CE0148960E94032582
:1022300041E0BE016C5D7F4FCE0148960E9447266B
:10224000CE0148960E949C24CE0101960E949C24B7
:10225000CE0142960E949C24CE0184960E949C242A
:10226000CE014E960E949C2460E08BE00E94921B5F
:102270002091000130E0A0E6BAEE0E94BE340E9438
:10228000FE1B61E08BE00E94921B60EC72E0CE01CD
:1022900001960E94FA24BE016F5F7F4F83E296E0B1
:1022A0000E9404238C01CE0101960E949C2417FDFC
:1022B00004C08091DE030E94B81467EB72E0CE0187
:1022C00001960E94FA24BE016F5F7F4F83E296E081
:1022D0000E9404238C01CE0101960E949C2417FDCC
:1022E0000CC08091DE03813011F48093E0031092E2
:1022F000BA03109235050E94C71362EB72E0CE015B
:1023000001960E94FA24BE016F5F7F4F83E296E040
:102310000E9404238C01CE0101960E949C2417FD8B
:10232000ADC068EE73E080E090E00E94FE1B67EABB
:1023300072E0CE0101960E94FA246AE972E08CE50F
:1023400095E00E94CB25BE016F5F7F4F8CE595E045
:102350000E94B9258091B903BE016F5F7F4F811143
:1023600007C0CE0142960E94032565E972E006C0CF
:10237000CE0142960E94032561E972E0CE014296A9
:102380000E945023BC01CE0101960E944C24CE0134
:1023900042960E949C24BE016F5F7F4F8CE595E0C2
:1023A0000E94B92561E176E08CE595E00E94B925AF
:1023B000BE016F5F7F4FCE0142960E9403256FE8FA
:1023C00072E0CE0142960E94502361E176E00E94C5
:1023D000FA23BC01CE0101960E944C24CE01429604
:1023E0000E949C24BE016F5F7F4F8CE595E00E94A8
:1023F000B92562E872E08CE595E00E94CB258091DA
:10240000E103813061F560ED72E0CE0148960E94F3
:102410000C2567E176E0CE0148960E94FA23BC01C4
:10242000CE014E960E940325BE016F5F7F4FCE0105
:1024300042960E94032541E0BE01625E7F4FCE01BD
:1024400042960E944726CE0142960E949C24CE01CD
:102450004E960E949C24CE0148960E949C24809116
:10246000DE03813039F4BE016F5F7F4F8CE595E06C
:102470000E94B925CE0101960E949C246BE772E070
:10248000CE0101960E94FA24BE016F5F7F4F83E266
:1024900096E00E9404238C01CE0101960E949C24A8
:1024A00017FD0AC081E08093DF0361E08CE090E0DB
:1024B0000E9435260E94401563E772E0CE01019626
:1024C0000E94FA24BE016F5F7F4F83E296E00E9474
:1024D00004238C01CE0101960E949C2417FD0DC09F
:1024E0001092DF0360E08CE090E00E94352661E00E
:1024F0008BE00E94921B0E9440156DE672E0CE01B7
:1025000001960E94FA24BE016F5F7F4F83E296E03E
:102510000E9404238C01CE0101960E949C2417FD89
:102520000CC081E08093B20161E08DE090E00E94F8
:10253000352660E08CE00E94921B66E672E0CE01D8
:1025400001960E94FA24BE016F5F7F4F83E296E0FE
:102550000E9404238C01CE0101960E949C2417FD49
:102560000BC01092B20160E08DE090E00E94352631
:1025700061E08CE00E94921B6DE572E0CE01019655
:102580000E94FA24BE016F5F7F4F83E296E00E94B3
:1025900004238C01CE0101960E949C2417FD23C0C8
:1025A00064E572E085E396E00E947C258091E40377
:1025B000813031F460E572E085E396E00E94CB253E
:1025C0008091E4038250823030F46EE472E085E35F
:1025D00096E00E94CB2562E472E08CE595E00E94D3
:1025E000CB250E94DA141092E1031092DE03E096EC
:1025F0000FB6F894DEBF0FBECDBFDF91CF911F9114
:102600000F91FF90EF90DF90CF90BF90AF909F9091
:1026100008954AE060910001CE0148960E94CD24C1
:10262000BE01685E7F4FCE0101960E946324CE01F9
:1026300048960E949C240C94D7084AE06091F403C9
:10264000CE0148960E94CD24BE01685E7F4FCE0128
:1026500001960E946324CE0148960E949C240C940B
:102660004B094AE06091BB03CE0148960E94CD24FD
:10267000BE01685E7F4FCE0101960E946324CE01A9
:1026800048960E949C240C94BF098091AF019091C0
:10269000B0011F8E1E8E19A218A21BA21AA24AE018
:1026A000BE016F5F7F4F0E94F333BE016F5F7F4FAC
:1026B000CE014E960E943524BE01625E7F4FCE0150
:1026C00042960E946324CE014E960E949C240C9454
:1026D000370A68EC71E074CC6091E403062E000CBC
:1026E000770B4AE0CE0142960E94A124BE016E5EA5
:1026F0007F4FCE0101960E946324CE0142960E9434
:102700009C24D6CCCF93DF9300D000D000D0CDB79F
:10271000DEB780915B03813049F461E176E0CE0160
:1027200001960E9403256FE477E00CC08091E003DE
:1027300061E176E0813059F4CE0101960E940325D3
:1027400060E677E0CE0101960E9450230EC0CE01D4
:1027500001960E94032567E577E0CE0101960E946D
:10276000502367E176E00E94FA23BC0181E196E004
:102770000E944C24CE0101960E949C2426960FB6FE
:10278000F894DEBF0FBECDBFDF91CF910895EF92D9
:10279000FF920F931F93CF93DF93CDB7DEB7689768
:1027A0000FB6F894DEBF0FBECDBF1092B40160E04B
:1027B0008EE090E00E94352664E477E081E196E0C7
:1027C0000E940D240E94821361E176E08CE595E081
:1027D0000E94B92568EE73E080E090E00E94FE1B45
:1027E00005EB11E0F801E388F488C70143960E94E5
:1027F0004526813009F061C06DEC73E0C7010E948D
:10280000381EBC01CE0101960E940C25BE016F5FEF
:102810007F4F87E196E00E941E23F82ECE0101969D
:102820000E949C24F1101092E30368EE73E080E0B4
:1028300090E00E94FE1B6DEC73E0F801838994899F
:102840000E94381EBC01CE010D960E940C2560ED41
:1028500072E0CE0107960E940C25BE01635F7F4F98
:10286000CE0107960E94FA23BC01CE0143960E9436
:10287000032561E176E0CE0101960E94032540E048
:10288000BE016D5E7F4FCE0101960E944726CE01AC
:1028900001960E949C24CE0143960E949C24CE0166
:1028A00007960E949C24CE010D960E949C2468EEFF
:1028B00073E080E090E00E94FE1B0B5E1F4FF2E091
:1028C00007381F0709F08ECF8091E3038130B9F5F7
:1028D00068EE73E080E090E00E94FE1B60ED72E025
:1028E000CE0107960E940C2567E176E0CE0107969F
:1028F0000E94FA23BC01CE010D960E9403256AE3D3
:1029000077E0CE0101960E94FA2440E0BE01635FA9
:102910007F4FCE0101960E944726CE0101960E946C
:102920009C24CE010D960E949C24CE0107960E9405
:102930009C2468EE73E080E090E00E94FE1B809192
:102940005C03823021F41092030110920201109274
:102950005B031092E00368960FB6F894DEBF0FBEDB
:10296000CDBFDF91CF911F910F91FF90EF90089510
:10297000813011F48093E0030E94381C6093F503CA
:102980007093F6038093F7039093F80381E08093AC
:10299000BA030C94121F8091B401813031F410926B
:1029A000BA03109235050C94C713811102C00C9420
:1029B000B814089561E08BE00E94921B64E670E019
:1029C00080E090E00E94FE1B60E08BE00E94921B82
:1029D00064E670E080E090E00E94FE1B61E08BE026
:1029E0000C94921B0E94DA140C94DA14DF92EF928A
:1029F000FF920F931F93CF93DF9300D000D000D0AE
:102A0000CDB7DEB77C0105EB11E06DEC73E0F801AA
:102A1000838994890E94381EBC01CE0101960E94D0
:102A20000C25B701CE0101960E941E23D82ECE019F
:102A300001960E949C24D11008C00B5E1F4FF2E04B
:102A400007381F0711F780E00DC0B70187E196E056
:102A50000E944C24F8018389948942960E9445265D
:102A6000813059F726960FB6F894DEBF0FBECDBF62
:102A7000DF91CF911F910F91FF90EF90DF9008951C
:102A80000F931F93CF93DF9300D000D000D0CDB72A
:102A9000DEB760ED77E080E090E00E94FE1B0E94D0
:102AA00089281092500610924F0610924E061092EE
:102AB0004D0610924C0610924B068DE991E09093D2
:102AC00052068093510690914106963108F057C006
:102AD0002DEB30E030934C0620934B062BE931E090
:102AE00030934E0620934D062CE231E03093500691
:102AF00020934F0620916800983050F031E09E30CE
:102B000008F430E081E001C0880F3A95EAF701C08F
:102B100084E0822B80936800983038F09E3040F03B
:102B2000963148F020E030E008C02DE630E005C0E6
:102B30002BE630E002C02CE630E0309349062093CB
:102B40004806983030F481E001C0880F9A95EAF782
:102B50000EC0292F30E09E3018F42850310902C0F1
:102B60002E50310981E001C0880F2A95EAF7809341
:102B70004A0680915106909152060197F1F7809193
:102B80004F0690915006892B49F1E091FB03F0919B
:102B9000FC0386E0E533F80709F1309739F0A389A3
:102BA000B4899C918589809589238C938091530663
:102BB0008E7F809353061092F9031092FA0385E3F7
:102BC00096E09093FC038093FB03E0914806F0911C
:102BD0004906908180914A06892B80831AE067E339
:102BE00077E085E396E00E94CB2568EC70E080E01A
:102BF00090E00E94FE1B115091F763E377E085E3BC
:102C000096E00E94CB256AE070E080E090E00E94B0
:102C1000FE1B85E396E00E942E1B892B09F460C001
:102C200085E396E00E942E1B892B79F085E396E0E0
:102C30000E94461B8093E5030E94A72964E170E08F
:102C400080E090E00E94FE1BEBCF6EE277E0CE01C9
:102C500001960E94FA24BE016F5F7F4F83E296E0E7
:102C60000E9404238C01CE0101960E949C2417FD32
:102C700003C081E08093E40367E277E0CE01019630
:102C80000E94FA24BE016F5F7F4F83E296E00E94AC
:102C900004238C01CE0101960E949C2417FD03C0E1
:102CA00082E08093E40364E277E0CE0101960E9423
:102CB000FA24BE016F5F7F4F83E296E00E940423F7
:102CC0008C01CE0101960E949C2417FD03C083E075
:102CD0008093E40368EF72E083E296E00E9435247B
:102CE0006AE177E085E396E00E94CB2564E670E038
:102CF00080E090E00E94FE1B60E177E085E396E0D3
:102D00000E94CB2564E670E080E090E00E94FE1B0C
:102D100062E077E085E396E00E94CB2564E670E010
:102D200080E090E00E94FE1B66EF76E085E396E08F
:102D30000E94CB2564E670E080E090E00E94FE1BDC
:102D40008091DF03813019F461EF76E002C06CEE10
:102D500076E085E396E00E94CB2526960FB6F894A0
:102D6000DEBF0FBECDBFDF91CF911F910F910895B0
:102D7000BF92CF92DF92EF92FF920F931F93CF9368
:102D8000DF9300D000D000D0CDB7DEB76BEE75E09A
:102D90008CE595E00E94CB2585EBE82E81E0F82EAE
:102DA00000E010E06DEC73E0F701838994890E94E4
:102DB000381EF701C388D488C60143960E94452671
:102DC000B82EC60142960E944526D82E0F5F1F4F8F
:102DD0004AE0B801CE0101960E94A1246BE076E0A2
:102DE000CE0101960E94FA236DEC73E00E94E1236C
:102DF0006BE076E00E94FA236D2D0E94B0236BE019
:102E000076E00E94FA236B2D0E94B023BC018CE572
:102E100095E00E94B925CE0101960E949C24F5E11F
:102E2000EF0EF11C0A30110509F0BCCF0E94CD262F
:102E300026960FB6F894DEBF0FBECDBFDF91CF91BF
:102E40001F910F91FF90EF90DF90CF90BF9008956A
:102E5000EF92FF920F931F93CF93DF9383E690E05F
:102E60000E944526813009F444C066ED75E08CE58A
:102E700095E00E94CB25C4E6D0E06FEFCE010E9422
:102E800035266AE070E080E090E00E94FE1B21960B
:102E9000CC3281E0D80789F76DEB75E08CE595E0E1
:102EA0000E94CB250E94CD26C5EBD1E000E010E0CA
:102EB000BE018B899C890E941F20F801EB54FE4FB4
:102EC0007F018B899C89618942960E9435268B8976
:102ED0009C89F701628943960E9435260B5E1F4F3D
:102EE0006596023D110521F761E083E690E00E94BE
:102EF000352683E690E00E944526813041F4DF913B
:102F0000CF911F910F91FF90EF900C94B816DF9125
:102F1000CF911F910F91FF90EF900895CF93DF9382
:102F2000D82FC92F682F80E190E00E9425346C2FA4
:102F300081E190E00E942534D093AF01C093B001AD
:102F40006AEA75E08CE595E00E947C256091AF010E
:102F50007091B00180E090E04AE00E94CB288CE5BF
:102F600095E00E94B5250E94CD26DF91CF910C946B
:102F7000DA14CF93DF9380E090E00E944526813001
:102F800009F45EC060ED76E08CE595E00E94CB250B
:102F9000C0E0D0E06FEFCE010E9435266AE070E01D
:102FA00080E090E00E94FE1B2196CE31D10591F782
:102FB00060EB76E08CE595E00E94CB250E94CD2663
:102FC00061E08AE090E00E94352661E08BE090E0CD
:102FD0000E94352660E08CE090E00E94352661E09A
:102FE0008DE090E00E94352661E08EE090E00E9446
:102FF00035266FE08FE090E00E9435268CE390E06C
:103000000E948E1760E082E190E00E94352661E028
:1030100083E190E00E94352660E084E190E00E9428
:10302000352660E085E190E00E94352660E086E18B
:1030300090E00E94352661E080E090E00E94352615
:1030400080E090E00E944526813009F0F8C06DE9EB
:1030500076E08CE595E00E94CB258AE090E00E9426
:1030600045268093010163E976E08CE595E00E94B6
:103070007C2580910101082E000C990B0E942F29BC
:103080008BE090E00E9445268093880267E876E016
:103090008CE595E00E947C2580918802082E000C2A
:1030A000990B0E942F298CE090E00E944526809386
:1030B000DF036EE776E08CE595E00E947C25809149
:1030C000DF03082E000C990B0E942F298DE090E061
:1030D0000E9445268093B20166E776E08CE595E094
:1030E0000E947C258091B201082E000C990B0E9451
:1030F0002F298EE090E00E9445268093B4016EE671
:1031000076E08CE595E00E947C258091B401082E44
:10311000000C990B0E942F298FE090E00E94452619
:103120008093000162E676E08CE595E00E947C25C4
:103130006AE070E0809100010E940E2980E190E039
:103140000E944526C82F81E190E00E944526C09349
:10315000AF018093B00162E576E08CE595E00E94D6
:103160007C256091AF017091B00180E090E04AE071
:103170000E94CB288CE595E00E94B52582E190E085
:103180000E9445268093B90367E476E08CE595E0DC
:103190000E947C258091B903082E000C990B0E9497
:1031A0002F2983E190E00E9445268093060167E382
:1031B00076E08CE595E00E947C2580910601082E42
:1031C000000C990B0E942F2984E190E00E94452673
:1031D00080935C0363E276E08CE595E00E947C25B9
:1031E00080915C03082E000C990B0E942F2985E129
:1031F00090E00E9445268093F40360E176E08CE540
:1032000095E00E947C256AE070E08091F4030E94C2
:103210000E2986E190E00E9445268093BB036DEF66
:1032200075E08CE595E00E947C256AE070E0809175
:10323000BB030E940E29DF91CF910C94CD26DF9124
:10324000CF91089581E390E00E944526813081F17D
:1032500063E975E08CE595E00E94CB2568E775E0B1
:103260008CE595E00E94CB250E94CD2660EF72E0B0
:1032700089E296E00E94352486E18093870241E14D
:1032800050E062E273E089E296E00E94622962E225
:1032900073E08EE190E00E941F206091870280E33E
:1032A00090E00E94352661E081E390E00E9435269F
:1032B00081E390E00E944526813059F562E273E097
:1032C0008EE190E00E94381EBC0189E296E00E94E7
:1032D000352480E390E00E944526809387026FE6C4
:1032E00075E08CE595E00E947C2569E276E08CE54E
:1032F00095E00E94B9256CE575E08CE595E00E94AB
:103300007C256AE070E0809187020E940E290C946F
:10331000CD260895EF92FF920F931F93CF93DF93E3
:103320001F92CDB7DEB77C01FC0100811181C8017D
:1033300069830E941D346981681719F0C8010E94D1
:103340002534C7010F90DF91CF911F910F91FF900E
:10335000EF900895CF93DF93EC01FB012481358139
:103360000E942125CE01DF91CF910895833081F015
:1033700028F4813099F08230A1F008958730A9F0C7
:103380008830B9F08430D1F4809180008F7D03C003
:10339000809180008F7780938000089584B58F7727
:1033A00002C084B58F7D84BD08958091B0008F7771
:1033B00003C08091B0008F7D8093B00008953FB727
:1033C000F89480912A0590912B05A0912C05B0913D
:1033D0002D0526B5A89B05C02F3F19F00196A11D0C
:1033E000B11D3FBFBA2FA92F982F8827820F911D9B
:1033F000A11DB11DBC01CD0142E0660F771F881FE2
:10340000991F4A95D1F7089585ED8093BC0080916E
:10341000BC0084FDFCCF1092830308954091000509
:10342000262F30E0240F311D21323105DCF42091AC
:1034300083032430C9F4FC0180E090E0861758F43F
:10344000309100052191DC01A252BB4FA30FB11DA9
:103450002C930196F3CF80910005680F60930005CF
:1034600080E0089581E0089582E008950895E09154
:10347000A4038091A503E81730F4F0E0EC57FC4F6B
:10348000808190E008958FEF9FEF08959091A403BD
:103490008091A503981750F4E92FF0E0EC57FC4F0A
:1034A000208130E09F5F9093A40302C02FEF3FEF95
:1034B000C90108958091A50390E02091A403821B87
:1034C00091090895CF92DF92EF92FF920F931F938D
:1034D000CF93DF937C01262F972F8A0180911D04C3
:1034E000882391F0C62FD72F6E01C40ED51ECC15A0
:1034F000DD0571F06991D701ED91FC910190F081AA
:10350000E02DC7010995F3CF642F822F0E940E1A78
:10351000C801DF91CF911F910F91FF90EF90DF9045
:10352000CF900895CF93DF931F92CDB7DEB7698315
:1035300020911D042223D1F020915903203240F024
:1035400021E030E0FC013383228380E090E015C06D
:1035500080915A03E82FF0E0E350FC4F998190836B
:103560008F5F80935A038093590305C061E0CE01B9
:1035700001960E940E1A81E090E00F90DF91CF91AA
:1035800008952091FB033091FC032817390771F44B
:103590009091FA038091F903981741F0E091FA03B2
:1035A000F0E0E25EFB4F808190E008958FEF9FEFA7
:1035B000089508951F93CF93DF93DC015C962D91BE
:1035C0003C915D972115310539F481E090E0139627
:1035D0009C938E9312973DC05196ED91FC9152971A
:1035E00050969C915097892F80951FB75E964C916D
:1035F0005E9741FB772770F941FD6095F894408113
:10360000772311F0492B01C048234083E90121971A
:10361000F1F748E0508160FF02C0592B01C05823E8
:103620005083E9012197F1F76695415099F7772387
:1036300021F090818923808303C08081982B90831F
:103640001FBF5C968D919C915D970197F1F721E0EA
:1036500030E0C901DF91CF911F9108952091FB03C4
:103660003091FC032817390771F48091F9032091F8
:10367000FA0390E080549F4F821B910960EC70E048
:103680000E94CD34089580E090E008952091FB03DE
:103690003091FC0328173907C9F49091FA038091FF
:1036A000F903981799F0E091FA03F0E0E25EFB4F1E
:1036B00020818091FA0390E0019660EC70E00E9416
:1036C000CD348093FA03822F90E008958FEF9FEF1F
:1036D0000895CF93DF93282F30E0F901E357F84F97
:1036E0008491F901E65BF74FD491F901EA5CF74F59
:1036F000C491CC2391F081110E94B619EC2FF0E017
:10370000EE0FFF1FE45DF74FA591B491EC91ED230F
:1037100081E090E021F480E002C080E090E0DF9161
:10372000CF9108951F93CF93DF93282F30E0F901B5
:10373000E357F84F8491F901E65BF74FD491F90113
:10374000EA5CF74FC491CC23C9F0162F81110E9477
:10375000B619EC2FF0E0EE0FFF1FEE5DF74FA591CD
:10376000B4918FB7F894111105C09C91ED2FE0959D
:10377000E92302C0EC91ED2BEC938FBFDF91CF9149
:103780001F910895CF93DF9390E0FC01E65BF74F24
:103790002491FC01EA5CF74F8491882361F190E069
:1037A000880F991FFC01ED57F84FC591D491FC018A
:1037B000EE5DF74FA591B491611109C09FB7F894E0
:1037C0008881209582238883EC912E230BC0623060
:1037D00061F49FB7F8943881822F80958323888382
:1037E000EC912E2B2C939FBF06C08FB7F894E881E5
:1037F0002E2B28838FBFDF91CF9108958F929F92B8
:10380000AF92BF92CF92DF92EF92FF926B017C0159
:103810000E94DF194B015C01C114D104E104F104E1
:10382000F1F00E94DF19DC01CB0188199909AA097E
:10383000BB09883E9340A105B10570F321E0C21A8F
:10384000D108E108F10888EE880E83E0981EA11CDB
:10385000B11CC114D104E104F10419F7DDCFFF90CC
:10386000EF90DF90CF90BF90AF909F908F90089592
:103870002FB7F8946091260570912705809128054F
:10388000909129052FBF08951F920F920FB60F92A6
:1038900011242F933F938F939F93AF93BF93809166
:1038A000260590912705A0912805B0912905309112
:1038B000250523E0230F2D3720F40196A11DB11D0E
:1038C00005C026E8230F0296A11DB11D20932505F2
:1038D0008093260590932705A0932805B09329058A
:1038E00080912A0590912B05A0912C05B0912D0572
:1038F0000196A11DB11D80932A0590932B05A093DD
:103900002C05B0932D05BF91AF919F918F913F9161
:103910002F910F900FBE0F901F9018951F920F922E
:103920000FB60F9211242F933F934F935F936F9392
:103930007F938F939F93AF93BF93EF93FF93809168
:10394000B900887F803609F49CC068F5883209F494
:103950005BC090F4803109F454C038F4882309F432
:10396000F6C0883009F44DC0F6C0883109F44CC067
:10397000803209F45DC0EFC0803409F468C048F4B7
:10398000803309F455C0883309F0E5C08093810382
:10399000D8C0803509F44FC0883509F45DC088343B
:1039A00009F0D9C0D6C0883909F4C7C0A8F488374F
:1039B00009F467C038F4883609F463C0803709F425
:1039C00060C0C9C0883809F4B8C0803909F45FC044
:1039D000803809F0C0C05BC0803B09F486C038F471
:1039E000803A09F466C0883A09F47FC0B4C0803CCC
:1039F00009F4A7C0883C09F4A4C0883B09F48AC034
:103A0000AAC080917E0310C09091800380917F03B3
:103A1000981770F5E091800381E08E0F809380030A
:103A2000F0E0E35AFC4F80818093BB0085EC86C0B8
:103A3000809381038EC0E091800381E08E0F80939C
:103A400080038091BB00F0E0E35AFC4F80839091AB
:103A5000800380917F036EC0E091800381E08E0F30
:103A6000809380038091BB00F0E0E35AFC4F808399
:103A70008091820381116DC081E080937D0384EA8F
:103A800061C083E08093830310922405CFCF80919F
:103A90002405803208F051C0E091240581E08E0FAA
:103AA000809324058091BB00F0E0EC5FFA4F8083A7
:103AB000BDCF85EC8093BC001092830380912405D8
:103AC000803230F4E0912405F0E0EC5FFA4F108290
:103AD0006091240570E0E0910205F091030584E017
:103AE00095E009951092240536C084E08093830305
:103AF0001092010510920005E091FE04F091FF0480
:103B0000099580910005811105C081E08093000531
:103B10001092DE04E091010581E08E0F8093010593
:103B2000F0E0E252FB4F80818093BB009091010551
:103B300080910005981708F479CF85E88093BC0040
:103B40000AC085EC8093BC001092830304C01092DD
:103B500081030E94041AFF91EF91BF91AF919F9151
:103B60008F917F916F915F914F913F912F910F9026
:103B70000FBE0F901F9018951F920F920FB60F92C5
:103B800011242F933F934F935F936F937F938F9362
:103B90009F93AF93BF93EF93FF93E091FB03F0915B
:103BA000FC03309709F453C0968DA685B7858585AB
:103BB00091FF04C09C91892329F449C09C918923D9
:103BC00009F045C0A389B4899C9185898095892392
:103BD0008C93868997890197F1F7608D718DA68501
:103BE000B785558538E020E0CB010197F1F7822FAA
:103BF00090E095958795282F4C91452309F02068F2
:103C0000315091F7868D81FD20958091F90390E0E8
:103C1000019660EC70E00E94CD349091FA03981701
:103C200049F0A091F903B0E0A25EBB4F2C938093C2
:103C3000F90303C0868D8160868F828D938D0197F5
:103C4000F1F7A389B4899C918589892B8C93FF9185
:103C5000EF91BF91AF919F918F917F916F915F9104
:103C60004F913F912F910F900FBE0F901F9018957D
:103C7000CF92DF92EF92FF920F931F93CF93DF9338
:103C8000EB017B0121E1E20EF11C8B016C01C61AF4
:103C9000D70AC601800F911F0E941D34F80181933D
:103CA0008F01EE15FF05A9F7CE01DF91CF911F918E
:103CB0000F91FF90EF90DF90CF900895AF92BF9259
:103CC000CF92DF92EF92FF920F931F93CF93DF93E8
:103CD000CDB7DEB768970FB6F894DEBF0FBECDBF85
:103CE0007C01B62EA42EBC018CE595E00E94B9257E
:103CF00005EB11E0F801C388D488C60143960E9401
:103D00004526813009F03FC06DEC73E0C6010E948A
:103D1000381EBC01CE0107960E940C2560ED72E0B2
:103D2000CE010D960E940C25BE01695F7F4FCE012A
:103D30000D960E94FA23BC01CE0101960E94032534
:103D4000B701CE0143960E9403254A2DBE016F5F45
:103D50007F4FCE0143960E944726CE0143960E9494
:103D60009C24CE0101960E949C24CE010D960E94B7
:103D70009C24CE0107960E949C2468EE73E080E0AC
:103D800090E00E94FE1B0B5E1F4FF2E007381F07FA
:103D900009F0B0CF80918802813099F5B81231C016
:103DA0006DEC73E08091C8019091C9010E94381EAA
:103DB000BC01CE0101960E940C25CE0101960E9405
:103DC0007828182FCE0101960E949C24111119C049
:103DD0006EE777E085E396E00E947C256DEC73E06A
:103DE0008091C8019091C9010E94381EBC0185E3F1
:103DF00096E00E94A0256CE777E085E396E00E94BC
:103E0000CB2568960FB6F894DEBF0FBECDBFDF910D
:103E1000CF911F910F91FF90EF90DF90CF90BF90C7
:103E2000AF900895EF92FF920F931F93CF93DF937C
:103E3000CDB7DEB768970FB6F894DEBF0FBECDBF23
:103E40000E94381C0091F5031091F6032091F703AE
:103E50003091F803601B710B820B930B28EE33E05B
:103E600040E050E00E949C348091F40390E0A0E098
:103E7000B0E082179307A407B50708F0D3C011E09C
:103E80001093B40161E08EE090E00E94352610931B
:103E9000B10162E777E081E196E00E940D240E9483
:103EA000821361E176E08CE595E00E94B92568EE29
:103EB00073E080E090E00E94FE1B05EB11E0F8014A
:103EC000E388F488C70143960E944526813009F0B3
:103ED00061C06DEC73E0C7010E94381EBC01CE01C9
:103EE00001960E940C25BE016F5F7F4F87E196E02F
:103EF0000E941E23F82ECE0101960E949C24F110F0
:103F00001092E30368EE73E080E090E00E94FE1BF5
:103F10006DEC73E0F801838994890E94381EBC011E
:103F2000CE0107960E940C2560ED72E0CE010D9641
:103F30000E940C25BE01695F7F4FCE010D960E9445
:103F4000FA23BC01CE0101960E94032561E176E0CF
:103F5000CE0143960E94032540E0BE016F5F7F4F74
:103F6000CE0143960E944726CE0143960E949C2490
:103F7000CE0101960E949C24CE010D960E949C24A5
:103F8000CE0107960E949C2468EE73E080E090E0EA
:103F90000E94FE1B0B5E1F4FF2E007381F0709F05F
:103FA0008ECF8091E3038130B9F568EE73E080E055
:103FB00090E00E94FE1B60ED72E0CE0107960E9429
:103FC0000C2567E176E0CE0107960E94FA23BC013A
:103FD000CE0101960E94032569E677E0CE010D9699
:103FE0000E94FA2440E0BE016F5F7F4FCE010D9624
:103FF0000E944726CE010D960E949C24CE01019678
:104000000E949C24CE0107960E949C2468EE73E0D7
:1040100080E090E00E94FE1B10925B031092E00390
:104020001092BA0368960FB6F894DEBF0FBECDBFEC
:10403000DF91CF911F910F91FF90EF900895AF9274
:10404000BF92CF92DF92EF92FF920F931F93CF9385
:10405000DF9300D0CDB7DEB78B016B0121E1C20E3B
:10406000D11C7B015C01A61AB70A95012E0D3F1DDC
:10407000F70161917F013A832983CE0101960E9465
:104080008A19EC14FD0489F7C8010F900F90DF9195
:10409000CF911F910F91FF90EF90DF90CF90BF9045
:1040A000AF9008950895CF92DF92EF92FF920F9311
:1040B0001F93CF93DF936C017A018B01C0E0D0E0B6
:1040C000CE15DF0589F0D8016D918D01D601ED91F6
:1040D000FC910190F081E02DC6010995892B11F426
:1040E0007E0102C02196ECCFC701DF91CF911F91D5
:1040F0000F91FF90EF90DF90CF900895FC01918D8C
:10410000828D981761F0828DDF01A80FB11D5D9639
:104110008C91928D9F5F9F73928F90E008958FEFA7
:104120009FEF0895FC01918D828D981731F0828D5B
:10413000E80FF11D858D90E008958FEF9FEF0895B2
:10414000FC01918D228D892F90E0805C9F4F821B16
:1041500091098F73992708958CE595E00E94A0201E
:1041600021E0892B09F420E0822F0895FC01848D41
:10417000DF01A80FB11DA35ABF4F2C91848D90E091
:1041800001968F739927848FA689B7892C93A0896C
:10419000B1898C9180648C93938D848D981306C023
:1041A0000288F389E02D80818F7D80830895EF92CE
:1041B000FF920F931F93CF93DF93EC0181E0888FE1
:1041C0009B8D8C8D981305C0E889F989808185FDC8
:1041D00024C0F62E0B8D10E00F5F1F4F0F731127B9
:1041E000E02E8C8DE8120CC00FB607FCFACFE889E0
:1041F000F989808185FFF5CFCE010E94B620F1CFED
:104200008B8DFE01E80FF11DE35AFF4FF0820B8FFB
:10421000EA89FB898081806207C0EE89FF8960831B
:10422000E889F98980818064808381E090E0DF9172
:10423000CF911F910F91FF90EF900895CF93DF934F
:10424000EC01888D8823C9F0EA89FB89808185FD8E
:1042500005C0A889B9898C9186FD0FC00FB607FCEF
:10426000F5CF808185FFF2CFA889B9898C9185FF30
:10427000EDCFCE010E94B620E7CFDF91CF91089518
:1042800080E090E0892B29F00E94AC2081110C94F1
:10429000000008950E94F236AF92BF92CF92DF9253
:1042A000EF92FF920F931F93CF93DF937B018A01CD
:1042B000FB01448155814115510561F1FC012481C7
:1042C00035812115310531F12417350718F1021711
:1042D000130718F0890101501109FC01A080B18079
:1042E000C501DFEFCFEF6501C00ED11EC816D9069C
:1042F000A0F0F701608171810E943937009769F061
:104300009C012A193B090217130710F0D22FC32F63
:104310000196ECCF8FEF9FEF02C08D2F9C2FDF9186
:10432000CF911F910F91FF90EF90DF90CF90BF90B2
:10433000AF9008950F931F93CF93DF93EC01888183
:104340009981009729F02A813B812617370788F445
:104350008B016F5F7F4F0E942836009761F0998331
:1043600088831B830A832C813D81232B11F4FC015C
:10437000108281E001C080E0DF91CF911F910F9109
:104380000895CF93DF93EC0188819981009711F014
:104390000E949035198218821D821C821B821A820B
:1043A000DF91CF910895EF92FF920F931F93CF93D8
:1043B000DF93EC017B018A01BA010E949A218111ED
:1043C00004C0CE010E94C12107C01D830C83B70128
:1043D000888199810E942337CE01DF91CF911F916F
:1043E0000F91FF90EF900895FC01808191810097DB
:1043F00011F00C94863360E070E0CB0108952F92A9
:104400003F924F925F926F927F928F929F92AF9264
:10441000BF92CF92DF92EF92FF920F931F93CF93B1
:10442000DF93FC01448055804114510409F4CFC04E
:10443000FB01648075806114710409F4C8C07A01BD
:104440006B01EC01FA01A480B580A618B7080881B9
:104450001981A114B104C1F4F60160817181C80110
:104460000E943937EC01892B09F4B1C0F701608152
:10447000718144815581CE010E94FF36F70104818C
:1044800015810C0F1D1FE8CFB7FE02C0480106C002
:10449000FB01208031804201C80142C0F6016081E9
:1044A0007181C4010E9439372C01892B19F1320125
:1044B00068187908A301B401C8010E94FF36060DEF
:1044C000171DF7016081718144815581C8010E94E7
:1044D000FF36F70184819581080F191FF60184804A
:1044E0009580840C951C8C819D818A0D9B1D9D83DC
:1044F0008C83D4CFB401C801DF91CF911F910F916C
:10450000FF90EF90DF90CF90BF90AF909F908F90F3
:104510007F906F905F904F903F902F900C94233737
:10452000B1010E943937009729F0860D971D8A0C3A
:104530009B1CF6CF8414950409F449C08A819B81A1
:104540008815990560F4B4016F5F7F4FC8010E9420
:1045500028360097E1F1998388839B828A824C8177
:104560005D814150510957FD32C0B601CE010E9414
:104570004C218C0197FD2BC088819981F601248103
:104580003581200F311F820F931F4C815D81421BAB
:10459000530BBC018A0D9B1D0E9408378C819D81A5
:1045A0008A0D9B1D9D838C8328813981F901E80F39
:1045B000F91F108288819981F7016081718144819E
:1045C0005581800F911F0E94FF36A801CACFDF914D
:1045D000CF911F910F91FF90EF90DF90CF90BF9000
:1045E000AF909F908F907F906F905F904F903F9093
:1045F0002F900895FC0144815581FB012481358170
:10460000421B530B0C944C21CF93DF93FC0124816C
:104610003581232B71F0FB01DC01CD91DC916081B0
:104620007181CE010E943937009719F08C1B9D0BC8
:1046300002C08FEF9FEFDF91CF910895FC0124819D
:104640003581FB01448155812417350721F5FC0193
:1046500080819181FB0160817181009719F0611562
:104660007105A1F46115710549F0232BB1F0FB012F
:10467000808190E09195819591090AC0009769F039
:10468000232B59F0FC01808190E002C00E941A3770
:1046900021E0892B19F020E001C021E0822F08954C
:1046A000EF92FF920F931F93CF93DF93EC017B0167
:1046B00061157105E1F0CB010E94B4330097D1F090
:1046C0002C813D818C01020F131FB801CE010E9485
:1046D0009A21882361F0288139818C819D81B701DD
:1046E000820F931F0E94AD331D830C8303C0CE0144
:1046F0000E94C121CE01DF91CF911F910F91FF90B8
:10470000EF900895EF92FF920F931F93CF93DF9353
:10471000FC01248135816115710511F480E019C017
:1047200041155105A9F07B01EC018A01020F131F0D
:10473000B8010E949A21882389F3288139818C81CC
:104740009D81B701820F931F0E9423371D830C8325
:1047500081E0DF91CF911F910F91FF90EF9008952D
:10476000EF92FF920F931F93CF93DF9300D000D06F
:10477000CDB7DEB77C01862F4AE08E010F5F1F4F59
:10478000B80190E00E94C833F80101900020E9F7D9
:104790003197AF01401B510BB801C7010E94822322
:1047A000811103C0C7010E94C121C7010F900F9062
:1047B0000F900F90DF91CF911F910F91FF90EF908D
:1047C0000895CF93DF93EC016115710561F0FB0152
:1047D00001900020E9F73197AF01461B570B0E946B
:1047E0008223811103C0CE010E94C121CE01DF913D
:1047F000CF910895CF93DF93EC01FB014481558164
:10480000608171810E948223811103C0CE010E94C8
:10481000C121CE01DF91CF910895EF92FF920F93C6
:104820001F93CF93DF93EC018B016115710551F05C
:10483000CB010E94B4337C01BC01CE010E949A21BD
:10484000811104C0CE010E94C12107C0FD82EC820B
:10485000B801888199810E94AD33CE01DF91CF915B
:104860001F910F91FF90EF900895CF93DF93EC018C
:104870006115710559F0FB0101900020E9F73197AE
:10488000AF01461B570B0E94D32102C00E94C121D9
:10489000CE01DF91CF910895CF93DF93EC01FB011F
:1048A0008617970761F0608171816115710529F0A4
:1048B000448155810E94D32102C00E94C121CE01B2
:1048C000DF91CF9108950F931F93CF93DF938C01C6
:1048D000EB01FC01808191810097B1F068817981C1
:1048E0006115710579F0428153812C813D81421718
:1048F000530740F00E9423378C819D81F8019583F6
:10490000848313C00E94903588819981F801918336
:1049100080838A819B81938382838C819D8195830F
:104920008483198218821B821A821D821C82DF9165
:10493000CF911F910F910895FC01808191810C947A
:1049400090350F931F93CF93DF93CDB7DEB7629768
:104950000FB6F894DEBF0FBECDBF8C01CB01F801BE
:1049600011821082138212821582148250E0BE01DD
:104970006F5F7F4F0E94BD33BE016F5F7F4FC801E5
:104980000E94352462960FB6F894DEBF0FBECDBFED
:10499000DF91CF911F910F9108950F931F93CF93A4
:1049A000DF93CDB7DEB729970FB6F894DEBF0FBE01
:1049B000CDBF8C01862FF8011182108213821282E2
:1049C0001582148250E0BE016F5F7F4F90E00E941D
:1049D000E833BE016F5F7F4FC8010E9435242996DE
:1049E0000FB6F894DEBF0FBECDBFDF91CF911F9100
:1049F0000F910895FC011182108213821282158298
:104A000014820C940D24FC011182108213821282F4
:104A1000158214820C944C24FC01118210821382A2
:104A20001282158214826115710551F0FB0101900B
:104A30000020E9F73197AF01461B570B0C94D321A7
:104A40000895BF92CF92DF92EF92FF920F931F9340
:104A5000CF93DF937C016B018A01E90124173507AD
:104A600020F4812F8901C42FD82F68EF72E0C7018D
:104A70000E940C25D60114968D919C9115970817CC
:104A80001907D0F48C179D0708F4EC01D601ED91BD
:104A9000FC911197EC0FFD1FB08010824D915C913D
:104AA000BA01600F711FC7010E943524D601ED9134
:104AB000FC91EC0FFD1FB082C701DF91CF911F91D8
:104AC0000F91FF90EF90DF90CF90BF900895DC01A1
:104AD000ED91FC910190F081E02D0994DC01ED91C4
:104AE000FC91DB0114964D915C9115976D917C9131
:104AF0000280F381E02D0994EF92FF920F931F93B0
:104B0000CF93DF938C017B01C0E0D0E0F701EC0F85
:104B1000FD1F6491662361F0D801ED91FC91019035
:104B2000F081E02DC8010995892B11F02196EECF77
:104B3000CE01DF91CF911F910F91FF90EF900895DB
:104B40006115710579F0FB0101900020E9F73197BB
:104B5000AF01461B570BDC01ED91FC910280F38104
:104B6000E02D099480E090E0089566EF72E00C94E7
:104B7000A0250F931F93CF93DF93EC010E946E2526
:104B80008C01CE010E94B525800F911FDF91CF913E
:104B90001F910F9108950F931F93CF93DF93EC0113
:104BA0000E947C258C01CE010E94B525800F911FAB
:104BB000DF91CF911F910F9108951F920F920FB621
:104BC0000F9211242F933F934F935F936F937F9393
:104BD0008F939F93AF93BF93EF93FF938CE595E0F3
:104BE0000E94B620FF91EF91BF91AF919F918F915D
:104BF0007F916F915F914F913F912F910F900FBED9
:104C00000F901F9018951F920F920FB60F921124BC
:104C10002F938F939F93EF93FF93E0916C05F09107
:104C20006D058081E0917205F091730582FD12C0DF
:104C30009081809175058F5F8F7320917605821723
:104C400051F0E0917505F0E0E45AFA4F958F8093AA
:104C5000750501C08081FF91EF919F918F912F91F8
:104C60000F900FBE0F901F901895CF93DF9300D039
:104C7000CDB7DEB79A838983CE0101960E948A1947
:104C80000F900F90DF91CF9108950C941D340F93E6
:104C90001F93CF93DF93EC018B0180910101813051
:104CA00019F0413009F05FC068EE73E080E090E0F9
:104CB0000E94FE1B68E178E085E396E00E947C2577
:104CC0006EE078E08CE595E00E947C25B80185E3F4
:104CD00096E00E946E25B8018CE595E00E946E2555
:104CE0006CE078E085E396E00E94CB256AE078E00E
:104CF0008CE595E00E94CB2564EF71E080E090E0C8
:104D00000E94FE1BBE0185E396E00E946E25BE0157
:104D10008CE595E00E946E2564EF71E080E090E004
:104D20000E94FE1B6AE185E396E00E9467256AE126
:104D30008CE595E00E94672564EF71E080E090E0EB
:104D40000E94FE1B8CE595E00E94B5256DEF72E098
:104D50008CE595E00E94A02568E873E180E090E092
:104D60000E94FE1B06C069EF72E08CE595E00E9490
:104D7000A025B8018CE595E00E946E256BE076E0F9
:104D80008CE595E00E946E25BE018CE595E0DF91F3
:104D9000CF911F910F910C94B9258CE595E00C945F
:104DA000B525DF92EF92FF920F931F93CF93DF937E
:104DB00000D000D000D0CDB7DEB76DEF77E08CE546
:104DC00095E00E94CB2587E0E82E81E0F82E00E0F8
:104DD00010E0F701838994890E94B128F701838943
:104DE000948987960E944526D82E0F5F1F4F4AE070
:104DF000B801CE0101960E94A1246BE076E0CE01BD
:104E000001960E94FA2366E375E00E94E1236BE0BD
:104E100076E00E94FA236D2D0E94B023BC018CE540
:104E200095E00E94B925CE0101960E949C24F5E1EF
:104E3000EF0EF11C0830110561F60E94CD26269672
:104E40000FB6F894DEBF0FBECDBFDF91CF911F919B
:104E50000F91FF90EF90DF9008957F928F929F9235
:104E6000AF92BF92CF92DF92EF92FF920F931F9378
:104E7000CF93DF93C12CD12C7601C394D0E0BB2417
:104E8000B39462E0A62E99249A9475EE872EE5ECF1
:104E90007E2ECC2DB0921D04C0922E0510925A0386
:104EA00010925903909183039111FCCFA092830338
:104EB000B0928203909281031092800310927F033C
:104EC00010927E0380917E0386019601220F331F8C
:104ED000282B20937E0380917D03813069F410920A
:104EE0007D0380917E038093BB008091BC0083FD95
:104EF000F8CF7092BC0002C08092BC008091830306
:104F00008230E1F3809181038F3F69F080918103CA
:104F1000803231F080918103803321F094E003C02E
:104F200092E001C093E010925A031092590310923C
:104F30001D04911134C06CEE77E08CE595E00E9481
:104F40007C2580E1C816D104E104F10430F46AEE56
:104F500077E08CE595E00E947C2540E1C701B60131
:104F60000E94CB28C052C830B0F46BE076E08CE5EC
:104F700095E00E946E2568ED77E08CE595E00E9453
:104F8000CB251093A7030093A6038091B8038F5FEE
:104F90008093B80302C00E94CD26DF5F19C0943011
:104FA000B9F46CEC77E08CE595E00E947C25E0E1BB
:104FB000CE16D104E104F10430F46AEC77E08CE51C
:104FC00095E00E947C2560E170E08C2F0E940E2904
:104FD000FFEFCF1ADF0AEF0AFF0A8FE7C816D104E6
:104FE000E104F10409F055CFD11106C064EB77E07C
:104FF0008CE595E00E94CB258091B8038823E9F0E9
:105000000E94D12607E011E0C0EBD3E0FC2EE8E0DF
:10501000FE0EF8018389948987960E94452689931C
:105020000B5E1F4FFC12F5CF0E94CD26E8EAF3E09D
:1050300088E08E0F11928E13FDCFDF91CF911F91DB
:105040000F91FF90EF90DF90CF90BF90AF909F9027
:105050008F907F9008951F93CF93DF93CDB7DEB7E6
:1050600062970FB6F894DEBF0FBECDBF182F6093C6
:10507000060183E190E00E943526113079F5809198
:10508000E103813059F560ED72E0CE0107960E9490
:105090000C2567E176E0CE0107960E94FA23BC0159
:1050A000CE010D960E94032561EA77E0CE010196BC
:1050B0000E94FA2440E0BE01635F7F4FCE0101965B
:1050C0000E944726CE0101960E949C24CE010D9697
:1050D0000E949C24CE0107960E949C2462960FB6E3
:1050E000F894DEBF0FBECDBFDF91CF911F91089521
:1050F000DC0114962D913C911597232B41F0ED91F5
:10510000FC9181E09081992319F080E0089581E07D
:105110000895ECE5F5E0A089B18982E08C93A4853F
:10512000B5851C92A685B7858FEC8C93108EA489CB
:10513000B58986E08C93A289B3898C9180618C9328
:10514000A289B3898C9188608C93A289B3898C9150
:1051500080688C930288F389E02D80818F7D808325
:1051600008950F931F93CF93DF93C6E3D5E08C018F
:1051700006531540C8018C0F9D1F0E941D34899352
:1051800085E0CC35D807B1F786E395E0DF91CF9184
:105190001F910F9108958F929F92AF92BF920F939C
:1051A0001F93CF93DF93CDB7DEB7A1970FB6F894D7
:1051B000DEBF0FBECDBF19A2423008F44AE08E0117
:1051C0000F5D1F4F842E912CA12CB12CA5019401B1
:1051D0000E949C34E62FB901CA0101501109EA303E
:1051E00014F4E05D01C0E95CD801EC93232B242B7F
:1051F000252B61F7B8018CE595E00E94A025A196CA
:105200000FB6F894DEBF0FBECDBFDF91CF911F91D7
:105210000F91BF90AF909F908F900895CF93DF93A1
:10522000AB01672B61F4E0915C05F0915D050190A5
:10523000F081E02D682F8CE595E0099506C0682F78
:1052400070E080E090E00E94CB28EC018CE595E0D6
:105250000E94B5258C0F9D1FDF91CF910895CF92AD
:10526000DF92EF92FF92CF93DF936C01990FEE08DC
:10527000FF08F7FE14C06DE28CE595E00E946725FB
:10528000EC0166277727CB016C197D098E099F09F0
:105290004AE00E94CB287C01EC0EFD1E06C04AE0CD
:1052A000C701B6010E94CB287C018CE595E00E94E5
:1052B000B5258E0D9F1DDF91CF91FF90EF90DF9070
:1052C000CF9008950F931F93CF93DF93FC01248118
:1052D00035812115310519F4FB01108211C0EA0155
:1052E00021972C173D0708F4E9018B01FC0160812F
:1052F0007181AE01C8010E942A37C00FD11F1882E8
:10530000DF91CF911F910F9108950F931F93CF932A
:105310008C018091350581110AC00E94381C609370
:105320003105709332058093330590933405C1E0C5
:10533000C0933505B8018FE296E00E944C24C093DB
:10534000300510922F05CF911F910F910895CF93A3
:10535000DF9300D0CDB7DEB789831A8241E050E0F9
:10536000BE016F5F7F4F83E296E00E9482230F9021
:105370000F90DF91CF910895CF93DF93CDB7DEB734
:10538000AB970FB6F894DEBF0FBECDBF789484B54F
:10539000826084BD84B5816084BD85B5826085BD31
:1053A00085B5816085BD80916E00816080936E00BF
:1053B00010928100809181008260809381008091B1
:1053C0008100816080938100809180008160809362
:1053D00080008091B10084608093B1008091B00022
:1053E00081608093B00080917A00846080937A001D
:1053F00080917A00826080937A0080917A00816047
:1054000080937A0080917A00806880937A0010926D
:10541000C1000E9489281092A4031092A503109243
:105420005A03109259031092830381E08093820300
:1054300010927D0361E082E10E94921B61E083E1B2
:105440000E94921B8091B9008E7F8093B900809159
:10545000B9008D7F8093B90088E48093B80085E41B
:105460008093BC006BE974E08CE595E00E94CB254D
:105470006CE874E08CE595E00E94CB2564EC79E063
:1054800080E090E00E94FE1B80E480937C0080918D
:105490007A00806480937A0080917A0086FDFCCF48
:1054A000609178008091790070E0782B072E000CD5
:1054B000880B990B611571058105910511F00E940A
:1054C0007D330E94B9170E9428170E94221982E694
:1054D00090E00E944526813009F452C06CE574E0EA
:1054E0008CE595E00E94CB250CE211E06FEFC8013E
:1054F0000E9435266AE070E080E090E00E94FE1B8A
:105500000F5F1F4F0D3C21E0120781F762E474E04A
:105510008CE595E00E94CB250E94CD2607E011E0A6
:1055200059E1A52E51E0B52EF801C388D488780141
:10553000C01AD10AC6018E0D9F1DF70161917F012E
:105540009A838983CE0101960E948A19EA14FB048A
:1055500089F7F80183899489F701608187960E9411
:1055600035260B5E1F4F5701F5E1AF0EB11C21E050
:105570000F3A1207C9F661E082E690E00E943526F4
:105580000E942D2761E08AE00E94C21B61E08CE04E
:105590000E94C21B61E08BE00E94C21B61E08AE0B6
:1055A0000E94921B61E08CE00E94921B61E08BE004
:1055B0000E94921B60E08AE00E94921B64EF71E0FF
:1055C00080E090E00E94FE1B61E08AE00E94921B56
:1055D00060E08CE00E94921B64EF71E080E090E05C
:1055E0000E94FE1B61E08CE00E94921B60E08BE059
:1055F0000E94921B64EF71E080E090E00E94FE1B2D
:1056000061E08BE00E94921B60E086E00E94C21B7A
:1056100060E08EE00E94C21B60E087E00E94C21B37
:1056200060E08FE00E94C21B60E080E10E94C21B2C
:1056300061E084E00E94C21B60E084E00E94921B53
:1056400061E085E00E94C21B61E085E00E94921B40
:105650000E94401568E874E08CE595E00E94CB2537
:105660008091B4018130A9F461E176E0CE01019628
:105670000E94032564E874E0CE0101960E94502345
:10568000BC0181E196E00E944C24CE0101960E946B
:105690009C248091B401811115C061E176E0CE01B6
:1056A00001960E9403256FE774E0CE0101960E94E7
:1056B0005023BC0181E196E00E944C24CE0101966A
:1056C0000E949C2461E176E08CE595E00E94B9257A
:1056D00080910101882369F00E94CD2634E8632E71
:1056E00033E0732E48EE242E43E0342E412C512C0F
:1056F0008FC062E774E08CE595E00E94CB2519E04D
:105700000E94DA141150E1F7E7CF113009F40CC20E
:1057100086E00E94691B8093EE031091B401113062
:1057200009F050C2811144C261E08CE00E94921BDA
:105730000E94381CC090EA03D090EB03E090EC0389
:10574000F090ED039B01AC012C193D094E095F0956
:1057500069017A0135E6C316D104E104F10408F0C9
:1057600013C20E94381CC090F003D090F103E09067
:10577000F203F090F3039B01AC012C193D094E0993
:105780005F0969017A014091AF015091B00128EEA3
:1057900033E0429FC001439F900D529F900D112412
:1057A000A0E0B0E08C159D05AE05BF0508F41AC257
:1057B000112309F417C286E00E94691B8093EE034F
:1057C000882309F418C28091EE03813009F446C29F
:1057D0008091B903813009F454C28091BA038130B9
:1057E00011F40E94121F80913505813009F493C293
:1057F00085E396E00E942E1B892B09F0D9C28CE527
:1058000095E00E94A020892B09F0CFC50E9440217D
:1058100080915C03813039F0823009F05EC0809164
:10582000B40181115AC08FE00E94691B182F809328
:10583000E60380E10E94691B809304011130A1F40A
:1058400080910301811110C01093030168EC70E096
:1058500080E090E00E94FE1B0E94DA1410935B032C
:105860001092E3030E94CB1480910401811115C0B2
:1058700080910201811111C011E01093020168ECC6
:1058800070E080E090E00E94FE1B0E94DA1410930A
:105890005B031092E3030E94CB148091E603811115
:1058A0000CC080910301882341F01092030168EC41
:1058B00070E080E090E00E94FE1B80910401813046
:1058C00061F480910201882341F01092020168EC9A
:1058D00070E080E090E00E94FE1B80910601813024
:1058E00031F48091B401813009F058C003C0823096
:1058F00009F054C087E00E94691B8093E70381117F
:105900001DC080910501811119C081E080930501BE
:1059100064E670E080E090E00E94FE1B65EC74E0BD
:10592000CE0101960E94FA2441E060E0CE0101968A
:105930000E945E1ECE0101960E949C248091E70386
:105940008130E1F4809105018130C1F410920501AC
:1059500064E670E080E090E00E94FE1B6EEA74E076
:10596000CE0101960E94FA2441E060E0CE0101964A
:105970000E945E1ECE0101960E949C248091E70346
:10598000813061F480910501823041F4109205016B
:1059900064E670E080E090E00E94FE1B8091B80316
:1059A000811106C01091DF031111AFCE61E0E8C094
:1059B00008EA13E080EB882E83E0982E97E0A92E6A
:1059C00091E0B92EE12CF12CDD24D39425ECC22EEC
:1059D0008091A603909183039111FCCFD092830311
:1059E000D09282033FEF3093810310928003109294
:1059F0007F03D0927E0390917E03880F892B809342
:105A00007E0380917D03813069F410927D03809143
:105A10007E038093BB008091BC0083FDF8CFC092D1
:105A2000BC0003C045EE4093BC00809183038130ED
:105A3000E1F380918003811103C08091800301C054
:105A400081E0ADE5B3E0E4E8F3E09E2F9619981706
:105A500018F49D919193F9CF1092A4038093A5031C
:105A6000882329F089EF95E00E94461A01C080E062
:105A7000F40121914F0190E00E2C02C0959587957D
:105A80000A94E2F78170F801281335C080818111F2
:105A90003DC0D08264E670E080E090E00E94FE1B92
:105AA0008091B201813021F460E08CE00E94921B71
:105AB000F501838994890E94B12865E076E0CE01E2
:105AC00001960E94032566E375E0CE0101960E94CF
:105AD000E123BC01CE0107960E940325CE01079663
