:100000000C9451040C9479040C9479040C947A1D8A
:100010000C947A1D0C947A1D0C9479040C94790438
:100020000C9479040C9479040C9479040C9479045C
:100030000C9479040C9479040C9479040C9479044C
:100040000C94021C0C9479040C946B190C944519B3
:100050000C9479040C9479040C9479040C9479042C
:100060000C944C1C0C94790450686F6E652061648C
:100070006465642E004572726F722C207468697317
:100080002070686F6E6520616C72656164792065AF
:10009000786973747320696E207468652063656C79
:1000A0006C3A20004572726F722C2077726F6E6707
:1000B000206E756D626572206F662063656C6C736F
:1000C0002E004572726F722C2066697273742072F2
:1000D000656769737465722061207072696D617201
:1000E000792070686F6E652E004572726F722064A1
:1000F000656C6574696E672070686F6E653A202B59
:100100000044656C6574652070686F6E653A202BDD
:1001100000506175736554696D652069733A2000FC
:1001200044656C61794265666F726547756172649A
:100130002069733A200044656C61794265666F728C
:1001400065416C61726D2069733A20005761746378
:10015000682074686520706F776572204F4646008E
:10016000477561726420627574746F6E3A204F4EE9
:100170002F4F4646206D6F6465004775617264209D
:10018000627574746F6E3A204F4E206D6F64650017
:10019000477561726420627574746F6E204F4646B5
:1001A0000053656E736F72206461746120736176B1
:1001B00065642E004572726F722073656E736F7284
:1001C000206E756D626572006661696C65642E00F3
:1001D0007061737365642E0054657374200046610A
:1001E000696C65642063656C6C3A2000420045458B
:1001F00050524F4D3A200043757272656E7420491B
:1002000044203D20004E6F206D6F64656D2E0053BD
:10021000494D3830304C004D3539306500456D75ED
:100220006C6174653A200050726576696F75732051
:100230004944203D200041542B435553443D312C2B
:100240002200534D532072656D6F76656400340053
:10025000302C340041542B434D47443D00636C65C2
:100260006172736D73006C65646F6666006C6564C3
:100270006F6E00746573746F666600746573746F77
:100280006E002D2D2D2D544553542D2D2D2D003523
:1002900020534D53546578743A200034204C6173D8
:1002A000744576656E743A20003320534D5354657F
:1002B00078743A20004F4E2E20004F46462E2000E4
:1002C0003220534D53546578743A200031204C61EC
:1002D00073744576656E743A20002D2D2D2D54458E
:1002E00053542D2D2D2D00496E666F3A20504952E2
:1002F0002000696E666F0067756172646F666600E4
:1003000067756172646F6E007061757365006D6F03
:100310006E6579003D006D6F64656D6964006C69A0
:10032000737470686F6E65006932637363616E0029
:100330006D656D74657374006C69737473656E7349
:100340006F72006C697374636F6E666967006564D1
:10035000697473656E736F7200677561726462753C
:1003600074746F6E6F66660067756172646275742F
:10037000746F6E6F6E32006775617264627574744B
:100380006F6E6F6E31007761746368706F7765723E
:100390006F6666007761746368706F7765726F6E01
:1003A00032007761746368706F7765726F6E3100C9
:1003B000504952204F4646007069726F6666005081
:1003C0004952204F4E007069726F6E00536D73205A
:1003D0004F464600736D736F666600536D73204F12
:1003E0004E00736D736F6E0052696E67204F464604
:1003F0000072696E676F66660052696E67204F4EC5
:100400000072696E676F6E007265736574636F6EFC
:1004100066696700726573657470686F6E65006603
:10042000756C6C726573657400616C61726D706976
:100430006E74696D650064656C61796265666F7282
:1004400065616C61726D0064656C61796265666F8F
:100450007265677561726400736C65657074696D4F
:10046000650062616C616E63656E756D0064656CDC
:1004700065746570686F6E650061646470686F6E46
:1004800065004C6F61642064656661756C742073EF
:10049000656E736F7220646174612E0044656C65D3
:1004A00074696E672073656E736F72206461746126
:1004B0002E0053696C656E74206D6F646521004F6A
:1004C00046462E004F4E2E00476F2100496E69743C
:1004D00020706172616D732E2E2E0047534D2041A6
:1004E0006C61726D2031372E30342E323700506FF0
:1004F00077657220737570706C7920726573746F94
:100500007265642100506F77657220737570706C2E
:100510007920646973636F6E6E656374656421002E
:100520004D61696E2073656E736F72210050495280
:100530002073656E736F7221005072696D617279FC
:100540002070686F6E653A202B0041542B4348554C
:10055000500041542B435553443D300055535344B0
:100560002071756572793A20002B435553443A0047
:10057000534D532066726F6D3A202B002C22002CB5
:100580002C002B434D543A0052696E672066726FFF
:100590006D3A202B002C0052494E4700000000000D
:1005A000240027002A0000000008000201000003C8
:1005B0000407000000000000000053656E736F72B6
:1005C00020646174613A002200220041542B434DA3
:1005D00047533D220041542B434D47533D22004792
:1005E00075617264204F4E004775617264204F4EF2
:1005F0002E003B004154442B004C656E677468200C
:10060000746F2072657475726E3A20004E756D625B
:1006100065723A20004C6F61642064656661756C98
:10062000742062616C616E636520646174612E0088
:1006300044656C6574696E672062616C616E6365A8
:1006400020646174612E00416C61726D496E746545
:100650007276616C2069733A20004C6F616420648B
:10066000656661756C742070686F6E652064617476
:10067000612E0044656C6574696E672070686F6EEA
:100680006520646174612E0052656164206172723C
:1006900061792070686F6E653A0044656C617942DB
:1006A00065666F7265416C61726D3A200044656CDD
:1006B00061794265666F726547756172643A2000C0
:1006C0004775617264427574746F6E456E61626CD9
:1006D000653A20005761746368457874506F776598
:1006E000723A200050495247756172643A200041C5
:1006F0006C61726D496E74657276616C3A2000505F
:100700006175736554696D653A200047756172645F
:100710003A20004C65644F6E3A2000546573744F64
:100720006E3A2000416C61726D52696E673A20002A
:1007300053656E64536D733A2000526561642065A1
:100740006570726F6D636F6E6669673A004C6F61BA
:10075000642064656661756C7420656570726F6D88
:10076000636F6E66696720646174612E0044656C16
:100770006574696E6720656570726F6D636F6E6614
:10078000696720646174612E004154453000415412
:1007900045310041542B434E4D493D322C320041EE
:1007A000542B435343533D2247534D220041542B76
:1007B000434D47463D310041542B434C49503D3158
:1007C0000041360053494D383030004D3539300046
:1007D000415449004154004775617264204F4646B8
:1007E000004775617264204F46462E0020427574A2
:1007F000746F6E002050686F6E65202B0020436F71
:100800006E736F6C650000000000250028002B004F
:10081000000000002300260029000404040404044E
:10082000040402020202020203030303030301029F
:10083000040810204080010204081020010204086E
:10084000102057617463682074686520706F776545
:1008500072204F4E004932432064657669636573A8
:10086000206E6F7420666F756E6400300045727282
:100870006F722061742030780064657465637465FC
:100880006420504346383537340A0030004932433B
:1008900020646576696365206174203078001D32BC
:1008A000E13111241FBECFEFD8E0DEBFCDBF13E092
:1008B000A0E0B1E0EEE7FEE602C005900D92A232A4
:1008C000B107D9F726E0A2E2B3E001C01D92A83536
:1008D000B207E1F714E0C0E5D4E004C02197FE01BF
:1008E0000E94D434CF34D107C9F70E94A9290C94AF
:1008F00032370C9400009F92AF92BF92CF92DF925A
:10090000EF92FF920F931F93CF93DF93CDB7DEB794
:10091000E0970FB6F894DEBF0FBECDBF8091DE0327
:10092000813031F462E276E08BE595E00E94211996
:1009300062EF72E0CE0142960E94741863EC72E09E
:10094000CE0101960E947418AE014E5E5F4FBE014B
:100950006F5F7F4F82E296E00E943615CE010196CE
:100960000E940418CE0142960E94041862EF72E0C1
:10097000CE0142960E94741861EF72E0CE0101969A
:100980000E947418AE014E5E5F4FBE016F5F7F4FD5
:1009900082E296E00E943615CE0101960E9404186C
:1009A000CE0142960E94041800912206109123065F
:1009B0000115110539F48091E203813011F00C9496
:1009C000B0100DC0F80180818823A9F3082E000C17
:1009D000990B0E94D636F80181938F01F3CF69E716
:1009E00074E0CE0101960E946218BE016F5F7F4FD6
:1009F00082E296E00E943B168C01CE0101960E9495
:100A0000041817FDC6C162E276E0CE018A960E9404
:100A10006B1865EC72E0CE0142960E947418BE011C
:100A20006E5E7F4FCE018A960E9431164AE0BC016D
:100A3000CE0101960E940918CE0101960E942B1545
:100A4000AB014F5F5F4FBE01665D7F4FCE01849665
:100A50000E940A27CE0101960E940418CE014296F8
:100A60000E94041867EC72E0CE0101960E9474188F
:100A7000BE016F5F7F4FCE0184960E943B16C92E48
:100A8000CE0101960E94041869EC72E0CE01019635
:100A90000E947418BE016F5F7F4FCE0184960E9442
:100AA0003B16D92ECE0101960E94041862EF72E027
:100AB000CE0101960E94741867EC72E0CE01429656
:100AC0000E947418AE014F5F5F4FBE016E5E7F4F94
:100AD000CE0184960E943615CE0142960E940418DB
:100AE000CE0101960E94041862EF72E0CE010196D9
:100AF0000E94741869EC72E0CE0142960E9474184C
:100B0000AE014F5F5F4FBE016E5E7F4FCE01849698
:100B10000E943615CE0142960E940418CE0101961D
:100B20000E94041862EF72E0CE0101960E947418D0
:100B30006BEC72E0CE0142960E947418AE014F5FDA
:100B40005F4FBE016E5E7F4FCE0184960E943615C8
:100B5000CE0142960E940418CE0101960E9404180C
:100B600060ED72E0CE0142960E947418BE016E5E86
:100B70007F4FCE0184960E943B164AE0BC01CE0115
:100B800001960E940918CE0101960E942B159B0127
:100B900040E050E0BE016C5D7F4FCE014E960E945A
:100BA0008918CE0101960E940418CE0142960E9437
:100BB000041860ED72E0CE0142960E947418BE01E6
:100BC0006E5E7F4FCE0184960E9431164AE0BC01D2
:100BD000CE0101960E940918CE0101960E942B15A4
:100BE000AB014F5F5F4FBE016C5D7F4FCE014896FA
:100BF0000E940A27CE0101960E940418CE01429657
:100C00000E940418CE014E960E942B15062FBE019D
:100C1000685E7F4FCE0142960E946B186DEC73E0C8
:100C20008091C8019091C9010E94F61DBC01CE01BE
:100C300001960E947418CE0101960E941627182F63
:100C4000CE0101960E940418112361F062EC70E05D
:100C50008BE595E00E9433190E945A280E94522287
:100C600010E001C011E08EEF800F8A3058F064EA86
:100C700070E08BE595E00E9433190E945A280E948B
:100C8000522210E045EBA42E41E0B42EE12CF12CD1
:100C90006DEC73E0F501838994890E94F61DBC0117
:100CA000CE0101960E947418BE016E5E7F4FCE0188
:100CB00001960E945516982ECE0101960E940418A6
:100CC00097012F5F3F4F7901992071F065E770E040
:100CD0008BE595E00E94E418C7010E94CD270E9491
:100CE0005A280E94522210E035E1A30EB11C8AE07E
:100CF000E816F10469F61130B1F541E150E06CEB12
:100D000073E0CE0142960E940028015095E1099FB0
:100D1000800111240B541E4F6CEB73E0F8018389A2
:100D200094890E941C1E6C2D6095661F6627661FA5
:100D3000F8018389948942960E944F1E6D2D60951B
:100D4000661F6627661FF8018389948943960E946F
:100D50004F1E68E670E08BE595E00E9433190E9413
:100D60005A280E943A220E941824CE0142960E94DC
:100D70000418CE0148960E940418CE014E960E9497
:100D80000418CE0184960E940418CE018A960E940F
:100D900004186DE674E0CE0101960E946218BE014F
:100DA0006F5F7F4F82E296E00E943B168C01CE017E
:100DB00001960E94041817FDFFC062E276E0CE01A2
:100DC00084960E946B1865EC72E0CE0142960E94F8
:100DD0007418BE016E5E7F4FCE0184960E9431165C
:100DE0004AE0BC01CE0101960E940918CE0101968D
:100DF0000E942B15AB014F5F5F4FBE016C5D7F4FB3
:100E0000CE014E960E940A27CE0101960E94041838
:100E1000CE0142960E94041862EF72E0CE01019664
:100E20000E9474186BEC72E0CE0142960E94741816
:100E3000AE014F5F5F4FBE016E5E7F4FCE014E969B
:100E40000E943615CE0142960E940418CE010196EA
:100E50000E94041860ED72E0CE0142960E94741860
:100E6000BE016E5E7F4FCE014E960E9431164AE063
:100E7000BC01CE0101960E940918CE0101960E9484
:100E80002B15AB014F5F5F4FBE01625E7F4FCE01FE
:100E900048960E940A27CE0101960E940418CE01AE
:100EA00042960E940418BE01685E7F4FCE014296B2
:100EB0000E946B180DED11E021E03DE0F32E6E0174
:100EC000F5E0CF0ED11C6DEC73E0F80180819181CB
:100ED00028AB0E94F61DBC01CE0101960E94741839
:100EE000BE016E5E7F4FCE0101960E945516E82E20
:100EF000CE0101960E94041828A9EE2099F11982CA
:100F00001A821B821C82F6012F2D11922A95E9F775
:100F1000BE016F5F7F4FF801808191810E941C1E8E
:100F2000F8018081918160E042960E944F1EF80195
:100F30008081918160E043960E944F1E61E071E0E4
:100F40008BE595E00E94E418BE016E5E7F4F8BE555
:100F500095E00E9421190E945A280E9418240E949C
:100F60003A2220E00B5E1F4FF2E00A391F0709F01A
:100F7000AACF213089F469EE70E08BE595E00E94FC
:100F8000E418BE016E5E7F4F8BE595E00E9421194B
:100F90000E945A280E945222CE0142960E940418B2
:100FA000CE0148960E940418CE014E960E94041865
:100FB000CE0184960E94041862E674E0CE01019688
:100FC0000E946218BE016F5F7F4F82E296E00E942E
:100FD0003B168C01CE0101960E94041817FDB5C086
:100FE00065EC72E0CE0101960E947418BE016F5F3D
:100FF0007F4F82E296E00E9431164AE0BC01CE01AA
:1010000042960E940918CE0142960E942B15AB0110
:101010004F5F5F4F62E276E0CE0148960E940A275A
:10102000CE0142960E940418CE0101960E94041837
:1010300062ED72E0CE0101960E947418BE016F5FEE
:101040007F4FCE0148960E943B164AE0BC01CE017C
:101050004E960E940918CE014E960E942B159B01B8
:1010600040E050E0BE01685E7F4FCE0142960E9494
:101070008918CE014E960E940418CE0101960E9456
:10108000041862ED72E0CE014E960E947418BE0103
:10109000625E7F4F82E296E00E9431164AE0BC0118
:1010A000CE0184960E940918CE0184960E942B15C9
:1010B000AB014F5F5F4F62E276E0CE0101960E9486
:1010C0000A27CE0184960E940418CE014E960E94F3
:1010D0000418CE0101960E942B15162FBE016E5EDC
:1010E0007F4FCE014E960E946B1841E150E062E2C4
:1010F00073E0CE014E960E94002862E273E08EE11A
:1011000090E00E941C1E612F80E390E00E944F1E21
:1011100061E081E390E00E944F1E0E9482268BE5F1
:1011200095E00E941D190E943A22CE014E960E941F
:101130000418CE0101960E940418CE0142960E9426
:101140000418CE0148960E94041868E574E0CE01A8
:1011500001960E946218BE016F5F7F4F82E296E0A7
:101160000E943B168C01CE0101960E94041817FDC7
:1011700063C065EC72E0CE0101960E947418BE0156
:101180006F5F7F4F82E296E00E9431164AE0BC0119
:10119000CE0148960E940918CE0148960E942B1550
:1011A000AB014F5F5F4F62E276E0CE0142960E9454
:1011B0000A27CE0148960E940418CE0101960E948B
:1011C0000418BE016E5E7F4FCE0101960E946B181F
:1011D000CE0101960E942B15DC01CB010197A109DC
:1011E000B109CC97A105B10510F00C941A13CE01EA
:1011F00001960E942B15162F8FE090E00E944F1E43
:101200001093000161E171E08BE595E00E94E41824
:101210008FE090E00E945F1E6AE070E00E94AC27C1
:101220000E945A280E943A22CE0101960E94041878
:10123000CE0142960E94041867E474E0CE01019644
:101240000E946218BE016F5F7F4F82E296E00E94AB
:101250003B168C01CE0101960E94041817FD60C058
:1012600065EC72E0CE0101960E947418BE016F5FBA
:101270007F4F82E296E00E9431164AE0BC01CE0127
:1012800048960E940918CE0148960E942B15AB0182
:101290004F5F5F4F62E276E0CE0142960E940A27DE
:1012A000CE0148960E940418CE0101960E940418AF
:1012B000BE016E5E7F4FCE0101960E946B18CE017B
:1012C00001960E942B156F3F71058105910519F05C
:1012D00010F00C942E13CE0101960E942B15162FA0
:1012E00085E190E00E944F1E1093F40360E271E0EC
:1012F0008BE595E00E94E41885E190E00E945F1E76
:101300006AE070E00E94AC270E945A280E943A22AC
:10131000CE0101960E940418CE0142960E94041844
:1013200066E374E0CE0101960E946218BE016F5F11
:101330007F4F82E296E00E943B168C01CE0101961F
:101340000E94041817FD60C065EC72E0CE010196A2
:101350000E947418BE016F5F7F4F82E296E00E9488
:1013600031164AE0BC01CE0148960E940918CE0110
:1013700048960E942B15AB014F5F5F4F62E276E00B
:10138000CE0142960E940A27CE0148960E94041878
:10139000CE0101960E940418BE016E5E7F4FCE0101
:1013A00001960E946B18CE0101960E942B156F3F8B
:1013B00071058105910519F010F00C944213CE01CE
:1013C00001960E942B15162F86E190E00E944F1E79
:1013D0001093BB0366E371E08BE595E00E94E4188F
:1013E00086E190E00E945F1E6AE070E00E94AC27F8
:1013F0000E945A280E943A22CE0101960E940418A7
:10140000CE0142960E94041869E274E0CE01019672
:101410000E946218BE016F5F7F4F82E296E00E94D9
:101420003B168C01CE0101960E94041817FD4EC098
:1014300065EC72E0CE0101960E947418BE016F5FE8
:101440007F4F82E296E00E9431164AE0BC01CE0155
:1014500042960E940918CE0142960E942B15AB01BC
:101460004F5F5F4F62E276E0CE0148960E940A2706
:10147000CE0142960E940418CE0101960E940418E3
:10148000BE01685E7F4FCE0142960E946B18CE016E
:1014900042960E942B15DC01CB010197A109B109ED
:1014A000803C984AA105B10510F00C945613CE016A
:1014B00042960E942B15CB010E94EE24CE0142964B
:1014C0000E940418CE0148960E9404186FE174E04F
:1014D000CE0101960E946218BE016F5F7F4F82E2CB
:1014E00096E00E943B168C01CE0101960E940418E2
:1014F00017FD17C06FEF80E090E00E944F1E0E9422
:1015000019256FEF83E690E00E944F1E0E94882409
:101510006FEF81E390E00E944F1E0E9482260E949E
:101520003A2264E174E0CE0101960E946218BE0185
:101530006F5F7F4F82E296E00E943B168C01CE01E6
:1015400001960E94041817FD09C06FEF83E690E032
:101550000E944F1E0E9488240E943A2268E074E094
:10156000CE0101960E946218BE016F5F7F4F82E23A
:1015700096E00E943B168C01CE0101960E94041851
:1015800017FD09C06FEF80E090E00E944F1E0E949F
:1015900019250E943A2261E074E0CE0101960E9472
:1015A0006218BE016F5F7F4F82E296E00E943B1699
:1015B0008C01CE0101960E94041817FD37C081E00E
:1015C0008093880261E08BE090E00E944F1E809142
:1015D000E103813059F560ED72E0CE0142960E9440
:1015E000741866E176E0CE0142960E947A17BC013B
:1015F000CE0148960E946B1869EF73E0CE01019608
:101600000E94621840E0BE01685E7F4FCE010196E5
:101610000E94611ECE0101960E940418CE014896D8
:101620000E940418CE0142960E94041861EF73E0F4
:10163000CE0101960E946218BE016F5F7F4F82E269
:1016400096E00E943B168C01CE0101960E94041880
:1016500017FD36C01092880260E08BE090E00E9497
:101660004F1E8091E103813059F560ED72E0CE01AB
:1016700042960E94741866E176E0CE0142960E947E
:101680007A17BC01CE0148960E946B1868EE73E091
:10169000CE0101960E94621840E0BE01685E7F4F55
:1016A000CE0101960E94611ECE0101960E9404188F
:1016B000CE0148960E940418CE0142960E9404185A
:1016C00062EE73E0CE0101960E946218BE016F5F68
:1016D0007F4F82E296E00E943B168C01CE0101967C
:1016E0000E94041817FD37C081E08093010161E07A
:1016F0008AE090E00E944F1E8091E103813059F50D
:1017000060ED72E0CE0142960E94741866E176E0C8
:10171000CE0142960E947A17BC01CE0148960E94E3
:101720006B186BED73E0CE0101960E94621840E0E9
:10173000BE01685E7F4FCE0101960E94611ECE0100
:1017400001960E940418CE0148960E940418CE010A
:1017500042960E94041864ED73E0CE0101960E9447
:101760006218BE016F5F7F4F82E296E00E943B16D7
:101770008C01CE0101960E94041817FD36C080919D
:10178000E103813059F560ED72E0CE0142960E948E
:10179000741866E176E0CE0142960E947A17BC0189
:1017A000CE0148960E946B186CEC73E0CE01019656
:1017B0000E94621840E0BE01685E7F4FCE01019634
:1017C0000E94611ECE0101960E940418CE01489627
:1017D0000E940418CE0142960E9404181092010142
:1017E00060E08AE090E00E944F1E66EC73E0CE015C
:1017F00001960E946218BE016F5F7F4F82E296E001
:101800000E943B168C01CE0101960E94041817FD20
:1018100037C081E08093B90361E082E190E00E94EB
:101820004F1E8091E103813059F560ED72E0CE01E9
:1018300042960E94741866E176E0CE0142960E94BC
:101840007A17BC01CE0148960E946B186FEB73E0CB
:10185000CE0101960E94621840E0BE01685E7F4F93
:10186000CE0101960E94611ECE0101960E940418CD
:10187000CE0148960E940418CE0142960E94041898
:1018800068EB73E0CE0101960E946218BE016F5FA3
:101890007F4F82E296E00E943B168C01CE010196BA
:1018A0000E94041817FD36C01092B90360E082E16F
:1018B00090E00E944F1E8091E103813059F560ED68
:1018C00072E0CE0142960E94741866E176E0CE0185
:1018D00042960E947A17BC01CE0148960E946B186E
:1018E00060EB73E0CE0101960E94621840E0BE01F9
:1018F000685E7F4FCE0101960E94611ECE01019667
:101900000E940418CE0148960E940418CE01429607
:101910000E94041862EA73E0CE0101960E946218E8
:10192000BE016F5F7F4F82E296E00E943B168C0102
:10193000CE0101960E94041817FD05C061E0809158
:10194000E1030E945C2964E973E0CE0101960E94E4
:101950006218BE016F5F7F4F82E296E00E943B16E5
:101960008C01CE0101960E94041817FD05C062E0AB
:101970008091E1030E945C2966E873E0CE01019644
:101980000E946218BE016F5F7F4F82E296E00E9464
:101990003B168C01CE0101960E94041817FD3AC037
:1019A0001091E1031092060160E083E190E00E9453
:1019B0004F1E113079F58091E103813059F560EDCA
:1019C00072E0CE0142960E94741866E176E0CE0184
:1019D00042960E947A17BC01CE0148960E946B186D
:1019E0006CE471E0CE0101960E94621840E0BE01F5
:1019F000685E7F4FCE0101960E94611ECE01019666
:101A00000E940418CE0148960E940418CE01429606
:101A10000E94041867E773E0CE0101960E946218E5
:101A2000BE016F5F7F4F82E296E00E943B168C0101
:101A3000CE0101960E94041817FD3BC01091E103EE
:101A400081E080935C0361E084E190E00E944F1E9E
:101A5000113079F58091E103813059F560ED72E044
:101A6000CE0142960E94741866E176E0CE0142965D
:101A70000E947A17BC01CE0148960E946B1860E65E
:101A800071E0CE0101960E94621840E0BE01685EDE
:101A90007F4FCE0101960E94611ECE0101960E94E9
:101AA0000418CE0148960E940418CE0142960E9466
:101AB000041868E673E0CE0101960E946218BE0128
:101AC0006F5F7F4F82E296E00E943B168C01CE0151
:101AD00001960E94041817FD3BC01091E10382E0BB
:101AE00080935C0362E084E190E00E944F1E11301D
:101AF00079F58091E103813059F560ED72E0CE0116
:101B000042960E94741866E176E0CE0142960E94E9
:101B10007A17BC01CE0148960E946B186AE771E003
:101B2000CE0101960E94621840E0BE01685E7F4FC0
:101B3000CE0101960E94611ECE0101960E940418FA
:101B4000CE0148960E940418CE0142960E940418C5
:101B500069E573E0CE0101960E946218BE016F5FD5
:101B60007F4F82E296E00E943B168C01CE010196E7
:101B70000E94041817FD3AC01091E10310925C0313
:101B800060E084E190E00E944F1E113079F5809171
:101B9000E103813059F560ED72E0CE0142960E947A
:101BA000741866E176E0CE0142960E947A17BC0175
:101BB000CE0148960E946B1860E971E0CE01019653
:101BC0000E94621840E0BE01685E7F4FCE01019620
:101BD0000E94611ECE0101960E940418CE01489613
:101BE0000E940418CE0142960E9404186EE473E02D
:101BF000CE0101960E946218BE016F5F7F4F82E2A4
:101C000096E00E943B168C01CE0101960E940418BA
:101C100017FD26C162E276E0CE018A960E946B181B
:101C200065EC72E0CE0142960E947418BE016E5EB1
:101C30007F4FCE018A960E9431164AE0BC01CE0148
:101C400001960E940918CE0101960E942B15AB0146
:101C50004F5F5F4FBE01665D7F4FCE0184960E944D
:101C60000A27CE0101960E940418CE0142960E94D6
:101C7000041864ED72E0CE0101960E947418BE0152
:101C80006F5F7F4FCE0184960E943B16092FCE01D5
:101C900001960E94041862EF72E0CE0101960E9444
:101CA000741864ED72E0CE0142960E947418AE0181
:101CB0004F5F5F4FBE016E5E7F4FCE0184960E94E4
:101CC0003615CE0142960E940418CE0101960E945C
:101CD000041860ED72E0CE0142960E947418BE01B5
:101CE0006E5E7F4FCE0184960E943B164AE0BC0197
:101CF000CE0101960E940918CE0101960E942B1573
:101D00009B0140E050E0BE016C5D7F4FCE014E96DE
:101D10000E948918CE0101960E940418CE014296B5
:101D20000E94041860ED72E0CE0142960E94741881
:101D3000BE016E5E7F4FCE0184960E9431164AE04E
:101D4000BC01CE0101960E940918CE0101960E94A5
:101D50002B15AB014F5F5F4FBE016C5D7F4FCE0116
:101D600048960E940A27CE0101960E940418CE01CF
:101D700042960E940418CE014E960E942B15162FF3
:101D8000BE01685E7F4FCE0101960E946B18115014
:101D9000183048F064EB71E08BE595E00E94331950
:101DA0000E94522245C046E250E063E373E0CE0158
:101DB00001960E940028C12ED12C35E1139FF0011D
:101DC0001124E95FFE4F8389948923E3E22E23E007
:101DD000F22EFC01E353F3405F01C5018E0D9F1D00
:101DE000F70161917F019B8B8A8BCE0142960E9405
:101DF000EA26F9E5EF16F3E0FF0679F7602F609524
:101E0000661F6627661F85E18C9DF0018D9DF00D94
:101E10001124E95FFE4F8389948987960E944F1EA3
:101E200061EA71E08BE595E00E9433190E943A2245
:101E30000E945A280E94A820CE0101960E940418F0
:101E4000CE0148960E940418CE014E960E940418B6
:101E5000CE0184960E940418CE018A960E9404182E
:101E600063E473E0CE0101960E946218BE016F5FC9
:101E70007F4F82E296E00E943B168C01CE010196D4
:101E80000E94041817FD04C00E9419250E94822692
:101E900068E373E0CE0101960E946218BE016F5F95
:101EA0007F4F82E296E00E943B168C01CE010196A4
:101EB0000E94041817FF0E94A82060E373E0CE017F
:101EC00001960E946218BE016F5F7F4F82E296E02A
:101ED0000E943B168C01CE0101960E94041817FD4A
:101EE00088C00E9457332DEF30E040E050E00E9460
:101EF000123482E0F82EF60E6EEE71E08BE595E07E
:101F00000E94E4184AE060E074E080E090E00E9403
:101F100069276CEE71E08BE595E00E94331900E0D3
:101F200010E06F2DC8010E94043465E070E080E08D
:101F300090E00E94321A0F5F1F4F011524E0120734
:101F400081F7C12CD12C00E010E0C8010E945F1E77
:101F50008F1599F16EED71E08BE595E00E94E41824
:101F6000C8010E945F1EE82E1B8A1A8A1D8A1C8ADD
:101F70001F8A1E8A4AE0BE016F5F7F4FC8010E9420
:101F8000D233BE016F5F7F4FCE0142960E94D617BB
:101F90006AE076E0CE0142960E947A176E2D0E948A
:101FA0003017BC018BE595E00E942119CE014296C5
:101FB0000E9404183FEFC31AD30A65E070E080E086
:101FC00090E00E94321A0F5F1F4F011584E018073E
:101FD00009F0BBCF68ED71E08BE595E00E94E41855
:101FE000CD2809F087C360ED71E08BE595E00E9494
:101FF000331968E273E0CE0101960E946218BE01B7
:102000006F5F7F4F82E296E00E943B168C01CE010B
:1020100001960E94041817FF0E945E286EE173E08B
:10202000CE0101960E946218BE016F5F7F4F82E26F
:1020300096E00E943B168C01CE0101960E94041886
:1020400017FF0E94182466E173E0CE0101960E94FA
:102050006218BE016F5F7F4F82E296E00E943B16DE
:102060008C01CE0101960E94041817FD77C064E12F
:1020700073E0CE0142960E946218BE016E5E7F4FF1
:1020800082E296E00E9431164AE0BC01CE014896F9
:102090000E940918CE0148960E942B15AB014F5F94
:1020A0005F4F62E276E0CE0101960E940A27CE01E0
:1020B00048960E940418CE0142960E940418CE0150
:1020C00001960E942B15DC01CB010197A109B109F2
:1020D0000A97A105B10508F010C3CE0101960E9430
:1020E0002B15162F67E272E08BE595E00E94E4184D
:1020F0008091E403082E000C990B0E94CD276DE11E
:1021000072E08BE595E00E94E418113029F41093F9
:10211000E40367E172E00BC0123029F41093E4038A
:102120006FE072E004C01092E40365E072E08BE5BA
:1021300095E00E94331967EF71E08BE595E00E940E
:10214000E4188091E403082E000C990B0E94CD271F
:102150000E945A28CE0101960E9404181092E203B0
:102160006EE073E0CE0101960E946218BE016F5FBF
:102170007F4F82E296E00E943B168C01CE010196D1
:102180000E94041817FD22C08091DE03813011F4F3
:102190008093E00368EE73E080E090E00E94321AE2
:1021A00066E372E084E396E00E94E41868E276E079
:1021B00084E396E00E94D61867ED72E084E396E02F
:1021C0000E94081984E396E00E941D1968E073E0FC
:1021D000CE0101960E946218BE016F5F7F4F82E2BE
:1021E00096E00E943B168C01CE0101960E940418D5
:1021F00017FD60C08091E103813009F04AC060EDB5
:1022000072E0CE014E960E94741866E176E0CE012F
:102210004E960E947A17BC01CE0184960E946B18DC
:102220004AE060910001CE0142960E9435186CEDA3
:1022300072E0CE0101960E947418BE016E5E7F4F5F
:10224000CE0101960E947A1763EE72E00E94611738
:10225000BC01CE0148960E946B1841E0BE016C5D46
:102260007F4FCE0148960E94611ECE0148960E9483
:102270000418CE0101960E940418CE0142960E94D5
:102280000418CE0184960E940418CE014E960E9436
:10229000041860E08BE00E94C6192091000130E034
:1022A000A0E6BAEE0E949D340E94321A61E08BE0F3
:1022B0000E94C61960E073E0CE0101960E94621888
:1022C000BE016F5F7F4F82E296E00E943B168C0159
:1022D000CE0101960E94041817FD04C08091DE0310
:1022E0000E94182267EF72E0CE0101960E946218E8
:1022F000BE016F5F7F4F82E296E00E943B168C0129
:10230000CE0101960E94041817FD0CC08091DE03D7
:10231000813011F48093E0031092BA0310923405D7
:102320000E94272162EF72E0CE0101960E9462189E
:10233000BE016F5F7F4F82E296E00E943B168C01E8
:10234000CE0101960E94041817FDA9C067EE72E045
:10235000CE0101960E9462186AED72E08BE595E06D
:102360000E9433196CEC72E08BE595E00E94E41852
:1023700060E176E08BE595E00E94211960EC72E067
:102380008BE595E00E94E418BE016F5F7F4F8BE5FF
:1023900095E00E9421198091B903811103C06AEB75
:1023A00072E002C065EB72E0CE0101960E948716D2
:1023B00069EA72E08BE595E00E94E418BE016F5F68
:1023C0007F4F8BE595E00E9421196BE972E08BE568
:1023D00095E00E94E41860E176E08BE595E00E94CC
:1023E00021194091140650911506609110067091C4
:1023F0001106CE0101960E94B7166FE872E08BE5D8
:1024000095E00E94E418BE016F5F7F4F8BE595E079
:102410000E94211962E872E08BE595E00E94331971
:102420008091E103813061F560ED72E0CE01489664
:102430000E94741866E176E0CE0148960E947A17F1
:10244000BC01CE014E960E946B18BE016F5F7F4F9C
:10245000CE0142960E946B1841E0BE01625E7F4F42
:10246000CE0142960E94611ECE0142960E9404183F
:10247000CE014E960E940418CE0148960E94041880
:102480008091DE03813039F4BE016F5F7F4F8BE5B1
:1024900095E00E942119CE0101960E9404186BE775
:1024A00072E0CE0101960E946218BE016F5F7F4FFD
:1024B00082E296E00E943B168C01CE0101960E94BA
:1024C000041817FD0AC081E08093DF0361E08CE00F
:1024D00090E00E944F1E0E94A02263E772E0CE01AE
:1024E00001960E946218BE016F5F7F4F82E296E004
:1024F0000E943B168C01CE0101960E94041817FD24
:102500000DC01092DF0360E08CE090E00E944F1E4F
:1025100061E08BE00E94C6190E94A0226DE672E085
:10252000CE0101960E946218BE016F5F7F4F82E26A
:1025300096E00E943B168C01CE0101960E94041881
:1025400017FD0CC081E08093B20161E08DE090E066
:102550000E944F1E60E08CE00E94C61966E672E0A1
:10256000CE0101960E946218BE016F5F7F4F82E22A
:1025700096E00E943B168C01CE0101960E94041841
:1025800017FD0BC01092B20160E08DE090E00E9458
:102590004F1E61E08CE00E94C6196DE572E0CE012D
:1025A00001960E946218BE016F5F7F4F82E296E043
:1025B0000E943B168C01CE0101960E94041817FD63
:1025C00023C064E572E084E396E00E94E418809101
:1025D000E403813031F460E572E084E396E00E9428
:1025E00033198091E4038250823030F46EE472E05B
:1025F00084E396E00E94331962E472E08BE595E093
:102600000E9433190E943A221092E1031092DE03D5
:10261000E0960FB6F894DEBF0FBECDBFDF91CF912D
:102620001F910F91FF90EF90DF90CF90BF90AF90F0
:102630009F9008954AE060910001CE0148960E9463
:102640003518BE01685E7F4FCE0101960E94E516E7
:10265000CE0148960E9404180C94F7084AE0609155
:10266000F403CE0148960E943518BE01685E7F4F84
:10267000CE0101960E94E516CE0148960E940418EC
:102680000C946B094AE06091BB03CE0148960E940E
:102690003518BE01685E7F4FCE0101960E94E51697
:1026A000CE0148960E9404180C94DF098091AF0176
:1026B0009091B0011F8E1E8E19A218A21BA21AA201
:1026C0004AE0BE016F5F7F4F0E94D233BE016F5F51
:1026D0007F4FCE014E960E94D617BE01625E7F4F9D
:1026E000CE0142960E94E516CE014E960E94041835
:1026F0000C94570A68EC71E078CC6091E403062EE4
:10270000000C770B4AE0CE0142960E940918BE01E8
:102710006E5E7F4FCE0101960E94E516CE01429675
:102720000E940418DACC0895CF92DF92EF92FF92C4
:102730000F931F93CF93DF936C017A018B01C0E05D
:10274000D0E0CE15DF0589F0D8016D918D01D6015D
:10275000ED91FC910190F081E02DC6010995892B46
:1027600011F47E0102C02196ECCFC701DF91CF9119
:102770001F910F91FF90EF90DF90CF900895FC0193
:10278000918D828D981761F0828DDF01A80FB11DA8
:102790005D968C91928D9F5F9F73928F90E00895CC
:1027A0008FEF9FEF0895FC01918D828D981731F086
:1027B000828DE80FF11D858D90E008958FEF9FEFDA
:1027C0000895FC01918D228D892F90E0805C9F4FB0
:1027D000821B91098F73992708958BE595E00E94DC
:1027E000E11321E0892B09F420E0822F0895FC01F8
:1027F000848DDF01A80FB11DA35ABF4F2C91848D8A
:1028000090E001968F739927848FA689B7892C93BE
:10281000A089B1898C9180648C93938D848D981359
:1028200006C00288F389E02D80818F7D8083089522
:10283000EF92FF920F931F93CF93DF93EC0181E010
:10284000888F9B8D8C8D981305C0E889F9898081CC
:1028500085FD24C0F62E0B8D10E00F5F1F4F0F7308
:102860001127E02E8C8DE8120CC00FB607FCFACFB2
:10287000E889F989808185FFF5CFCE010E94F713A1
:10288000F1CF8B8DFE01E80FF11DE35AFF4FF0826F
:102890000B8FEA89FB898081806207C0EE89FF89FE
:1028A0006083E889F98980818064808381E090E099
:1028B000DF91CF911F910F91FF90EF900895CF93EB
:1028C000DF93EC01888D8823C9F0EA89FB89808138
:1028D00085FD05C0A889B9898C9186FD0FC00FB60A
:1028E00007FCF5CF808185FFF2CFA889B9898C914B
:1028F00085FFEDCFCE010E94F713E7CFDF91CF9197
:10290000089580E090E0892B29F00E94ED13811159
:102910000C9400000895833081F028F4813099F000
:102920008230A1F008958730A9F08830B9F0843062
:10293000D1F4809180008F7D03C0809180008F77DB
:1029400080938000089584B58F7702C084B58F7D11
:1029500084BD08958091B0008F7703C08091B0004E
:102960008F7D8093B00008950E94D136AF92BF92C0
:10297000CF92DF92EF92FF920F931F93CF93DF934B
:102980007B018A01FB01448155814115510561F1AB
:10299000FC01248135812115310531F124173507DA
:1029A00018F10217130718F0890101501109FC01F1
:1029B000A080B180C501DFEFCFEF6501C00ED11E51
:1029C000C816D906A0F0F701608171810E941837FE
:1029D000009769F09C012A193B090217130710F0B0
:1029E000D22FC32F0196ECCF8FEF9FEF02C08D2F18
:1029F0009C2FDF91CF911F910F91FF90EF90DF906F
:102A0000CF90BF90AF9008950F931F93CF93DF9314
:102A1000EC0188819981009729F02A813B81261752
:102A2000370788F48B016F5F7F4F0E94073600974E
:102A300061F0998388831B830A832C813D81232B3A
:102A400011F4FC01108281E001C080E0DF91CF91A0
:102A50001F910F910895FC0180819181009711F0E1
:102A60000C94653360E070E0CB0108952F923F92A3
:102A70004F925F926F927F928F929F92AF92BF928E
:102A8000CF92DF92EF92FF920F931F93CF93DF933A
:102A9000FC01448055804114510409F4CFC0FB016E
:102AA000648075806114710409F4C8C07A016B01F7
:102AB000EC01FA01A480B580A618B7080881198135
:102AC000A114B104C1F4F60160817181C8010E94B2
:102AD0001837EC01892B09F4B1C0F70160817181CD
:102AE00044815581CE010E94DE36F70104811581B3
:102AF0000C0F1D1FE8CFB7FE02C0480106C0FB0146
:102B0000208031804201C80142C0F601608171819C
:102B1000C4010E9418372C01892B19F13201681861
:102B20007908A301B401C8010E94DE36060D171D05
:102B3000F7016081718144815581C8010E94DE36B0
:102B4000F70184819581080F191FF6018480958013
:102B5000840C951C8C819D818A0D9B1D9D838C838B
:102B6000D4CFB401C801DF91CF911F910F91FF9095
:102B7000EF90DF90CF90BF90AF909F908F907F901D
:102B80006F905F904F903F902F900C940237B1015F
:102B90000E941837009729F0860D971D8A0C9B1C00
:102BA000F6CF8414950409F449C08A819B81881565
:102BB000990560F4B4016F5F7F4FC8010E9407362A
:102BC0000097E1F1998388839B828A824C815D81A1
:102BD0004150510957FD32C0B601CE010E94B614D2
:102BE0008C0197FD2BC088819981F6012481358164
:102BF000200F311F820F931F4C815D81421B530BAD
:102C0000BC018A0D9B1D0E94E7368C819D818A0D37
:102C10009B1D9D838C8328813981F901E80FF91F61
:102C2000108288819981F701608171814481558189
:102C3000800F911F0E94DE36A801CACFDF91CF918D
:102C40001F910F91FF90EF90DF90CF90BF90AF90CA
:102C50009F908F907F906F905F904F903F902F90BC
:102C60000895FC0144815581FB0124813581421B7B
:102C7000530B0C94B614CF93DF93FC012481358160
:102C8000232B71F0FB01DC01CD91DC91608171811E
:102C9000CE010E941837009719F08C1B9D0B02C0C3
:102CA0008FEF9FEFDF91CF910895FC012481358153
:102CB000FB01448155812417350721F5FC018081F2
:102CC0009181FB0160817181009719F06115710597
:102CD000A1F46115710549F0232BB1F0FB0180814E
:102CE00090E09195819591090AC0009769F0232B96
:102CF00059F0FC01808190E002C00E94F93621E089
:102D0000892B19F020E001C021E0822F0895EF9275
:102D1000FF920F931F93CF93DF936115710511F409
:102D200080E01EC08B01EC01CB010E949333009721
:102D3000B1F02C813D817C01E20EF31EB701CE0182
:102D40000E940415882361F3288139818C819D813B
:102D5000B801820F931F0E948C33FD82EC8281E0C8
:102D6000DF91CF911F910F91FF90EF900895EF9217
:102D7000FF920F931F93CF93DF93FC012481358142
:102D80006115710511F480E019C041155105A9F0D4
:102D90007B01EC018A01020F131FB8010E94041588
:102DA000882389F3288139818C819D81B701820F25
:102DB000931F0E9402371D830C8381E0DF91CF9126
:102DC0001F910F91FF90EF9008950F931F93CF9352
:102DD000DF938C01EB01FC01808191810097B1F0C0
:102DE000688179816115710579F0428153812C8167
:102DF0003D814217530740F00E9402378C819D812C
:102E0000F8019583848313C00E946F35888199816E
:102E1000F801918380838A819B81938382838C8153
:102E20009D8195838483198218821B821A821D8258
:102E30001C82DF91CF911F910F910895CF93DF9363
:102E4000EC0188819981009711F00E946F351982F9
:102E500018821D821C821B821A82DF91CF910895F5
:102E6000EF92FF920F931F93CF93DF9300D000D088
:102E7000CDB7DEB77C01862F4AE08E010F5F1F4F72
:102E8000B80190E00E94A733F80101900020E9F713
:102E90003197AF01401B510BB801C7010E94B71613
:102EA000811103C0C7010E941E17C7010F900F9028
:102EB0000F900F90DF91CF911F910F91FF90EF90A6
:102EC0000895CF93DF93EC016115710561F0FB016B
:102ED00001900020E9F73197AF01461B570B0E9484
:102EE000B716811103C0CE010E941E17CE01DF91DB
:102EF000CF910895CF93DF93EC01FB01448155817D
:102F0000608171810E94B716811103C0CE010E94B9
:102F10001E17CE01DF91CF910895EF92FF920F938C
:102F20001F93CF93DF93EC018B016115710551F075
:102F3000CB010E9493337C01BC01CE010E94041599
:102F4000811104C0CE010E941E1707C0FD82EC82D1
:102F5000B801888199810E948C33CE01DF91CF9195
:102F60001F910F91FF90EF900895EF92FF920F93B2
:102F70001F93CF93DF93EC017B018A01BA010E947A
:102F80000415811104C0CE010E941E1707C01D83C5
:102F90000C83B701888199810E940237CE01DF91AD
:102FA000CF911F910F91FF90EF900895CF93DF93F2
:102FB000EC016115710559F0FB0101900020E9F762
:102FC0003197AF01461B570B0E94B51702C00E94F4
:102FD0001E17CE01DF91CF910895CF93DF93EC01BF
:102FE000FB018617970761F060817181611571059A
:102FF00029F0448155810E94B51702C00E941E1716
:10300000CE01DF91CF910895FC01808191810C94D4
:103010006F350F931F93CF93DF93CDB7DEB76297D2
:103020000FB6F894DEBF0FBECDBF8C01CB01F80107
:1030300011821082138212821582148250E0BE0126
:103040006F5F7F4F0E949C33BE016F5F7F4FC8014F
:103050000E94D61762960FB6F894DEBF0FBECDBFA2
:10306000DF91CF911F910F9108950F931F93CF93ED
:10307000DF93CDB7DEB729970FB6F894DEBF0FBE4A
:10308000CDBF8C01862FF80111821082138212822B
:103090001582148250E0BE016F5F7F4F90E00E9466
:1030A000C733BE016F5F7F4FC8010E94D6172996B4
:1030B0000FB6F894DEBF0FBECDBFDF91CF911F9149
:1030C0000F910895FC0111821082138212821582E1
:1030D00014820C948D17FC011182108213821282CB
:1030E000158214820C94ED17FC0111821082138258
:1030F0001282158214826115710551F0FB01019055
:103100000020E9F73197AF01461B570B0C94B51718
:103110000895BF92CF92DF92EF92FF920F931F9389
:10312000CF93DF937C016B018A01E90124173507F6
:1031300020F4812F8901C42FD82F62EF72E0C701DC
:103140000E947418D60114968D919C9115970817BA
:103150001907D0F48C179D0708F4EC01D601ED9106
:10316000FC911197EC0FFD1FB08010824D915C9186
:10317000BA01600F711FC7010E94D617D601ED91E9
:10318000FC91EC0FFD1FB082C701DF91CF911F9121
:103190000F91FF90EF90DF90CF90BF900895DC01EA
:1031A000ED91FC910190F081E02D0994DC01ED910D
:1031B000FC91DB0114964D915C9115976D917C917A
:1031C0000280F381E02D0994EF92FF920F931F93F9
:1031D000CF93DF938C017B01C0E0D0E0F701EC0FCF
:1031E000FD1F6491662361F0D801ED91FC9101907F
:1031F000F081E02DC8010995892B11F02196EECFC1
:10320000CE01DF91CF911F910F91FF90EF90089524
:103210006115710579F0FB0101900020E9F7319704
:10322000AF01461B570BDC01ED91FC910280F3814D
:10323000E02D099480E090E0089560EF72E00C9436
:1032400008190F931F93CF93DF93EC010E94D618B8
:103250008C01CE010E941D19800F911FDF91CF912B
:103260001F910F9108950F931F93CF93DF93EC015C
:103270000E94E4188C01CE010E941D19800F911F3D
:10328000DF91CF911F910F9108951F920F920FB66A
:103290000F9211242F933F934F935F936F937F93DC
:1032A0008F939F93AF93BF93EF93FF938BE595E03D
:1032B0000E94F713FF91EF91BF91AF919F918F9172
:1032C0007F916F915F914F913F912F910F900FBE22
:1032D0000F901F9018951F920F920FB60F92112406
:1032E0002F938F939F93EF93FF93E0916B05F09152
:1032F0006C058081E0917105F091720582FD12C02C
:103300009081809174058F5F8F732091750582176E
:1033100051F0E0917405F0E0E55AFA4F958F8093F3
:10332000740501C08081FF91EF919F918F912F9142
:103330000F900FBE0F901F901895CF93DF93282FFB
:1033400030E0F901EA55FA4F8491F901E25DF74F57
:10335000D491F901E65EF74FC491CC2391F081112D
:103360000E948B14EC2FF0E0EE0FFF1FE05FF74F91
:10337000A591B491EC91ED2381E090E021F480E0FF
:1033800002C080E090E0DF91CF9108951F93CF932A
:10339000DF93282F30E0F901EA55FA4F8491F901C3
:1033A000E25DF74FD491F901E65EF74FC491CC236B
:1033B000C9F0162F81110E948B14EC2FF0E0EE0F54
:1033C000FF1FEA5FF74FA591B4918FB7F8941111E1
:1033D00005C09C91ED2FE095E92302C0EC91ED2B07
:1033E000EC938FBFDF91CF911F910895CF93DF931F
:1033F00090E0FC01E25DF74F2491FC01E65EF74F9F
:103400008491882361F190E0880F991FFC01E456B4
:10341000FA4FC591D491FC01EA5FF74FA591B491A1
:10342000611109C09FB7F894888120958223888311
:10343000EC912E230BC0623061F49FB7F894388171
:10344000822F809583238883EC912E2B2C939FBF12
:1034500006C08FB7F894E8812E2B28838FBFDF91A9
:10346000CF9108958F929F92AF92BF92CF92DF92A9
:10347000EF92FF926B017C010E94D11B4B015C011A
:10348000C114D104E104F104F1F00E94D11BDC016C
:10349000CB0188199909AA09BB09883E9340A10567
:1034A000B10570F321E0C21AD108E108F10888EEF5
:1034B000880E83E0981EA11CB11CC114D104E10444
:1034C000F10419F7DDCFFF90EF90DF90CF90BF9020
:1034D000AF909F908F90089585ED8093BC00809170
:1034E000BC0084FDFCCF1092830308954091000539
:1034F000262F30E0240F311D21323105DCF42091DC
:1035000083032430C9F4FC0180E090E0861758F46E
:10351000309100052191DC01A252BB4FA30FB11DD8
:103520002C930196F3CF80910005680F60930005FE
:1035300080E0089581E0089582E008950895E09183
:10354000A4038091A503E81730F4F0E0EC57FC4F9A
:10355000808190E008958FEF9FEF08959091A403EC
:103560008091A503981750F4E92FF0E0EC57FC4F39
:10357000208130E09F5F9093A40302C02FEF3FEFC4
:10358000C90108958091A50390E02091A403821BB6
:1035900091090895CF92DF92EF92FF920F931F93BC
:1035A000CF93DF937C01262F972F8A0180911D04F2
:1035B000882391F0C62FD72F6E01C40ED51ECC15CF
:1035C000DD0571F06991D701ED91FC910190F081D9
:1035D000E02DC7010995F3CF642F822F0E94761A40
:1035E000C801DF91CF911F910F91FF90EF90DF9075
:1035F000CF900895CF93DF931F92CDB7DEB7698345
:1036000020911D042223D1F020915903203240F053
:1036100021E030E0FC013383228380E090E015C09C
:1036200080915A03E82FF0E0E350FC4F998190839A
:103630008F5F80935A038093590305C061E0CE01E8
:1036400001960E94761A81E090E00F90DF91CF9171
:1036500008952091FB033091FC032817390771F47A
:103660009091FA038091F903981741F0E091FA03E1
:10367000F0E0E25EFB4F808190E008958FEF9FEFD6
:10368000089508951F93CF93DF93DC015C962D91ED
:103690003C915D972115310539F481E090E0139656
:1036A0009C938E9312973DC05196ED91FC91529749
:1036B00050969C915097892F80951FB75E964C919C
:1036C0005E9741FB772770F941FD6095F894408142
:1036D000772311F0492B01C048234083E90121974A
:1036E000F1F748E0508160FF02C0592B01C0582318
:1036F0005083E9012197F1F76695415099F77723B7
:1037000021F090818923808303C08081982B90834E
:103710001FBF5C968D919C915D970197F1F721E019
:1037200030E0C901DF91CF911F9108952091FB03F3
:103730003091FC032817390771F48091F903209127
:10374000FA0390E080549F4F821B910960EC70E077
:103750000E94AC34089580E090E008952091FB032E
:103760003091FC0328173907C9F49091FA0380912E
:10377000F903981799F0E091FA03F0E0E25EFB4F4D
:1037800020818091FA0390E0019660EC70E00E9445
:10379000AC348093FA03822F90E008958FEF9FEF6F
:1037A00008953FB7F89480912A0590912B05A09138
:1037B0002C05B0912D0526B5A89B05C02F3F19F00B
:1037C0000196A11DB11D3FBFBA2FA92F982F8827A1
:1037D000820F911DA11DB11DBC01CD0142E0660FFC
:1037E000771F881F991F4A95D1F708952FB7F8942E
:1037F00060912605709127058091280590912905F3
:103800002FBF08951F920F920FB60F9211242F937E
:103810003F938F939F93AF93BF9380912605909191
:103820002705A0912805B09129053091250523E0B1
:10383000230F2D3720F40196A11DB11D05C026E8E8
:10384000230F0296A11DB11D209325058093260507
:1038500090932705A0932805B093290580912A0508
:1038600090912B05A0912C05B0912D050196A11DDD
:10387000B11D80932A0590932B05A0932C05B0933E
:103880002D05BF91AF919F918F913F912F910F90F7
:103890000FBE0F901F9018951F920F920FB60F92A8
:1038A00011242F933F934F935F936F937F938F9345
:1038B0009F93AF93BF93EF93FF938091B900887F5D
:1038C000803609F49CC068F5883209F45BC090F436
:1038D000803109F454C038F4882309F4F6C08830E4
:1038E00009F44DC0F6C0883109F44CC0803209F4A7
:1038F0005DC0EFC0803409F468C048F4803309F437
:1039000055C0883309F0E5C080938103D8C0803565
:1039100009F44FC0883509F45DC0883409F0D9C076
:10392000D6C0883909F4C7C0A8F4883709F467C03D
:1039300038F4883609F463C0803709F460C0C9C020
:10394000883809F4B8C0803909F45FC0803809F0BC
:10395000C0C05BC0803B09F486C038F4803A09F4EB
:1039600066C0883A09F47FC0B4C0803C09F4A7C09F
:10397000883C09F4A4C0883B09F48AC0AAC080919D
:103980007E0310C09091800380917F03981770F59B
:10399000E091800381E08E0F80938003F0E0E35A92
:1039A000FC4F80818093BB0085EC86C080938103AF
:1039B0008EC0E091800381E08E0F80938003809120
:1039C000BB00F0E0E35AFC4F80839091800380912C
:1039D0007F036EC0E091800381E08E0F80938003AF
:1039E0008091BB00F0E0E35AFC4F8083809182031A
:1039F00081116DC081E080937D0384EA61C083E022
:103A00008093830310922405CFCF809124058032C8
:103A100008F051C0E091240581E08E0F80932405C9
:103A20008091BB00F0E0EC5FFA4F8083BDCF85EC66
:103A30008093BC001092830380912405803230F47F
:103A4000E0912405F0E0EC5FFA4F108260912405CC
:103A500070E0E0910205F091030584E095E009959E
:103A60001092240536C084E08093830310920105F0
:103A700010920005E091FE04F091FF0409958091F9
:103A80000005811105C081E0809300051092DE04DD
:103A9000E091010581E08E0F80930105F0E0E25294
:103AA000FB4F80818093BB009091010580910005C0
:103AB000981708F479CF85E88093BC000AC085EC9C
:103AC0008093BC001092830304C0109281030E9473
:103AD0006C1AFF91EF91BF91AF919F918F917F9160
:103AE0006F915F914F913F912F910F900FBE0F906B
:103AF0001F9018951F920F920FB60F9211242F93BB
:103B00003F934F935F936F937F938F939F93AF9365
:103B1000BF93EF93FF93E091FB03F091FC03309789
:103B200009F453C0968DA685B785858591FF04C09D
:103B30009C91892329F449C09C91892309F045C0AF
:103B4000A389B4899C918589809589238C938689E2
:103B500097890197F1F7608D718DA685B785558599
:103B600038E020E0CB010197F1F7822F90E09595A6
:103B70008795282F4C91452309F02068315091F703
:103B8000868D81FD20958091F90390E0019660EC8F
:103B900070E00E94AC349091FA03981749F0A0911C
:103BA000F903B0E0A25EBB4F2C938093F90303C0EE
:103BB000868D8160868F828D938D0197F1F7A38921
:103BC000B4899C918589892B8C93FF91EF91BF914A
:103BD000AF919F918F917F916F915F914F913F91A5
:103BE0002F910F900FBE0F901F901895CF92DF92DC
:103BF000EF92FF920F931F93CF93DF93EB017B0123
:103C000021E1E20EF11C8B016C01C61AD70AC60134
:103C1000800F911F0E94FC33F80181938F01EE15F4
:103C2000FF05A9F7CE01DF91CF911F910F91FF9072
:103C3000EF90DF90CF900895AF92BF92CF92DF9236
:103C4000EF92FF920F931F93CF93DF9300D0CDB7E6
:103C5000DEB78B016B0121E1C20ED11C7B015C013F
:103C6000A61AB70A95012E0D3F1DF70161917F013C
:103C70003A832983CE0101960E94EA26EC14FD04C2
:103C800089F7C8010F900F90DF91CF911F910F918D
:103C9000FF90EF90DF90CF90BF90AF900895CF93BB
:103CA000DF9300D0CDB7DEB79A838983CE0101962A
:103CB0000E94EA260F900F90DF91CF9108950C9407
:103CC000FC330F931F93CF93DF93EC018B01809113
:103CD0000101813019F0413009F05FC068EE73E0F6
:103CE00080E090E00E94321A65ED75E084E396E092
:103CF0000E94E4186BEC75E08BE595E00E94E418F7
:103D0000B80184E396E00E94D618B8018BE595E0EF
:103D10000E94D61869EC75E084E396E00E9433199E
:103D200067EC75E08BE595E00E94331964EF71E074
:103D300080E090E00E94321ABE0184E396E00E9487
:103D4000D618BE018BE595E00E94D61864EF71E0AD
:103D500080E090E00E94321A6AE184E396E00E94DB
:103D6000CF186AE18BE595E00E94CF1864EF71E00F
:103D700080E090E00E94321A8BE595E00E941D19C8
:103D800067EF72E08BE595E00E94081968E873E13F
:103D900080E090E00E94321A06C063EF72E08BE58B
:103DA00095E00E940819B8018BE595E00E94D618AD
:103DB0006AE076E08BE595E00E94D618BE018BE5BF
:103DC00095E0DF91CF911F910F910C942119AF9243
:103DD000BF92CF92DF92EF92FF920F931F93CF93F8
:103DE000DF93CDB7DEB768970FB6F894DEBF0FBE8E
:103DF000CDBF7C01B62EA42EBC018BE595E00E94C0
:103E0000211905EB11E0F801C388D488C601439657
:103E10000E945F1E813009F03FC06DEC73E0C60167
:103E20000E94F61DBC01CE0107960E94741860ED39
:103E300072E0CE010D960E947418BE01695F7F4F3B
:103E4000CE010D960E947A17BC01CE0101960E9408
:103E50006B18B701CE0143960E946B184A2DBE0124
:103E60006F5F7F4FCE0143960E94611ECE01439645
:103E70000E940418CE0101960E940418CE010D96EE
:103E80000E940418CE0107960E94041868EE73E0A1
:103E900080E090E00E94321A0B5E1F4FF2E007387C
:103EA0001F0709F0B0CF80918802813099F5B812D0
:103EB00031C06DEC73E08091C8019091C9010E94FE
:103EC000F61DBC01CE0101960E947418CE01019628
:103ED0000E941627182FCE0101960E940418111176
:103EE00019C064EF75E084E396E00E94E4186DEC7D
:103EF00073E08091C8019091C9010E94F61DBC0138
:103F000084E396E00E94081962EF75E084E396E08E
:103F10000E94331968960FB6F894DEBF0FBECDBF6E
:103F2000DF91CF911F910F91FF90EF90DF90CF9095
:103F3000BF90AF900895EF92FF920F931F93CF938E
:103F4000DF93CDB7DEB768970FB6F894DEBF0FBE2C
:103F5000CDBF0E94F61B0091F5031091F60320914E
:103F6000F7033091F803601B710B820B930B28EE63
:103F700033E040E050E00E947B348091F40390E015
:103F8000A0E0B0E082179307A407B50708F0D3C0FC
:103F900011E01093B40161E08EE090E00E944F1EAA
:103FA0001093B10168EE75E080E196E00E948D17F4
:103FB0000E94042160E176E08BE595E00E942119E2
:103FC00068EE73E080E090E00E94321A05EB11E0A9
:103FD000F801E388F488C70143960E945F1E813090
:103FE00009F061C06DEC73E0C7010E94F61DBC01D1
:103FF000CE0101960E947418BE016F5F7F4F86E16B
:1040000096E00E945516F82ECE0101960E940418E3
:10401000F1101092E30368EE73E080E090E00E94FC
:10402000321A6DEC73E0F801838994890E94F61DC1
:10403000BC01CE0107960E94741860ED72E0CE01BB
:104040000D960E947418BE01695F7F4FCE010D96D8
:104050000E947A17BC01CE0101960E946B1860E1A4
:1040600076E0CE0143960E946B1840E0BE016F5F80
:104070007F4FCE0143960E94611ECE0143960E945F
:104080000418CE0101960E940418CE010D960E94DC
:104090000418CE0107960E94041868EE73E080E0D1
:1040A00090E00E94321A0B5E1F4FF2E007381F07A4
:1040B00009F08ECF8091E3038130B9F568EE73E0AB
:1040C00080E090E00E94321A60ED72E0CE01079627
:1040D0000E94741866E176E0CE0107960E947A1776
:1040E000BC01CE0101960E946B186FED75E0CE0108
:1040F0000D960E94621840E0BE016F5F7F4FCE01B7
:104100000D960E94611ECE010D960E940418CE01EC
:1041100001960E940418CE0107960E94041868EECA
:1041200073E080E090E00E94321A10925B031092DC
:10413000E0031092BA0368960FB6F894DEBF0FBE84
:10414000CDBFDF91CF911F910F91FF90EF90089518
:10415000DF92EF92FF920F931F93CF93DF9300D0E4
:1041600000D000D0CDB7DEB76AEB75E08BE595E007
:104170000E94331987E0E82E81E0F82E00E010E07D
:10418000F701838994890E944F27F70183899489D5
:1041900087960E945F1ED82E0F5F1F4F4AE0B8011E
:1041A000CE0101960E9409186AE076E0CE010196E0
:1041B0000E947A1765E375E00E9461176AE076E075
:1041C0000E947A176D2D0E943017BC018BE595E097
:1041D0000E942119CE0101960E940418F5E1EF0E0C
:1041E000F11C0830110561F60E945A2826960FB678
:1041F000F894DEBF0FBECDBFDF91CF911F910F911D
:10420000FF90EF90DF90089580915B03813019F467
:104210006CEE77E006C08091E003813031F46DEF01
:1042200077E080E196E00C94871664EF77E080E118
:1042300096E00E94871640911A0650911B066091E5
:1042400016067091170680E196E00C94B716EF926F
:10425000FF920F931F93CF93DF93CDB7DEB768978D
:104260000FB6F894DEBF0FBECDBF1092B40160E070
:104270008EE090E00E944F1E61EE77E080E196E0D4
:104280000E948D170E94042160E176E08BE595E0A5
:104290000E94211968EE73E080E090E00E94321ADB
:1042A00005EB11E0F801E388F488C70143960E940A
:1042B0005F1E813009F061C06DEC73E0C7010E94A0
:1042C000F61DBC01CE0101960E947418BE016F5FFD
:1042D0007F4F86E196E00E945516F82ECE0101969A
:1042E0000E940418F1101092E30368EE73E080E07E
:1042F00090E00E94321A6DEC73E0F8018389948992
:104300000E94F61DBC01CE010D960E94741860ED4E
:1043100072E0CE0107960E947418BE01635F7F4F62
:10432000CE0107960E947A17BC01CE0143960E94E7
:104330006B1860E176E0CE0101960E946B1840E0B8
:10434000BE016D5E7F4FCE0101960E94611ECE01BF
:1043500001960E940418CE0143960E940418CE01D3
:1043600007960E940418CE010D960E94041868EE6C
:1043700073E080E090E00E94321A0B5E1F4FF2E083
:1043800007381F0709F08ECF8091E3038130B9F51C
:1043900068EE73E080E090E00E94321A60ED72E017
:1043A000CE0107960E94741866E176E0CE0107966A
:1043B0000E947A17BC01CE010D960E946B1867ED22
:1043C00077E0CE0101960E94621840E0BE01635F73
:1043D0007F4FCE0101960E94611ECE0101960E9480
:1043E0000418CE010D960E940418CE0107960E9473
:1043F000041868EE73E080E090E00E94321A809129
:104400005C03823021F41092030110920201109299
:104410005B031092E00368960FB6F894DEBF0FBE00
:10442000CDBFDF91CF911F910F91FF90EF90089535
:10443000813011F48093E0030E94F61B6093F50332
:104440007093F6038093F7039093F80381E08093D1
:10445000BA030C949B1F8091B401813031F4109207
:10446000BA03109234050C942721811102C00C94D8
:104470001822089561E08BE00E94C61964E670E09E
:1044800080E090E00E94321A60E08BE00E94C61942
:1044900064E670E080E090E00E94321A61E08BE018
:1044A0000C94C6190E943A220C943A22DF92EF92A1
:1044B000FF920F931F93CF93DF9300D000D000D0D3
:1044C000CDB7DEB77C0105EB11E06DEC73E0F801D0
:1044D000838994890E94F61DBC01CE0101960E9439
:1044E0007418B701CE0101960E945516D82ECE0140
:1044F00001960E940418D11008C00B5E1F4FF2E015
:1045000007381F0711F780E00DC0B70186E196E07C
:104510000E94ED17F8018389948942960E945F1EDC
:10452000813059F726960FB6F894DEBF0FBECDBF87
:10453000DF91CF911F910F91FF90EF90DF90089541
:104540000F931F93CF93DF9300D000D000D0CDB74F
:10455000DEB760ED77E080E090E00E94321A0E94C2
:10456000272710924F0610924E0610924D06109279
:104570004C0610924B0610924A068DE991E09093FA
:1045800051068093500690914006963108F057C02E
:104590002DEB30E030934B0620934A062BE931E0B7
:1045A00030934D0620934C062CE231E030934F06B9
:1045B00020934E0620916800983050F031E09E30F4
:1045C00008F430E081E001C0880F3A95EAF701C0B5
:1045D00084E0822B80936800983038F09E3040F061
:1045E000963148F020E030E008C02DE630E005C00C
:1045F0002BE630E002C02CE630E0309348062093F2
:104600004706983030F481E001C0880F9A95EAF7A8
:104610000EC0292F30E09E3018F42850310902C016
:104620002E50310981E001C0880F2A95EAF7809366
:10463000490680915006909151060197F1F78091BB
:104640004E0690914F06892B49F1E091FB03F091C2
:10465000FC0386E0E433F80709F1309739F0A389C9
:10466000B4899C918589809589238C938091520689
:104670008E7F809352061092F9031092FA0384E31E
:1046800096E09093FC038093FB03E0914706F09142
:104690004806908180914906892B80831AE064ED59
:1046A00077E084E396E00E94331968EC70E080E0E4
:1046B00090E00E94321A115091F760ED77E084E3A8
:1046C00096E00E9433196AE070E080E090E00E947A
:1046D000321A84E396E00E94961B892B09F460C08D
:1046E00084E396E00E94961B892B79F084E396E0A0
:1046F0000E94AE1B8093E5030E94452864E170E0B0
:1047000080E090E00E94321AEBCF6BEC77E0CE01B4
:1047100001960E946218BE016F5F7F4F82E296E0B1
:104720000E943B168C01CE0101960E94041817FDD1
:1047300003C081E08093E40364EC77E0CE0101964E
:104740000E946218BE016F5F7F4F82E296E00E9476
:104750003B168C01CE0101960E94041817FD03C080
:1047600082E08093E40361EC77E0CE0101960E9441
:104770006218BE016F5F7F4F82E296E00E943B1697
:104780008C01CE0101960E94041817FD03C083E03E
:104790008093E40362EF72E082E296E00E94D61713
:1047A00067EB77E084E396E00E94331964E670E0FB
:1047B00080E090E00E94321A6DEA77E084E396E0B0
:1047C0000E94331964E670E080E090E00E94321AA3
:1047D0006FE977E084E396E00E94331964E670E0C5
:1047E00080E090E00E94321A63E977E084E396E08B
:1047F0000E94331964E670E080E090E00E94321A73
:104800008091DF03813019F46EE877E002C069E837
:1048100077E084E396E00E94331926960FB6F89469
:10482000DEBF0FBECDBFDF91CF911F910F910895D5
:10483000BF92CF92DF92EF92FF920F931F93CF938D
:10484000DF9300D000D000D0CDB7DEB768E876E0C7
:104850008BE595E00E94331985EBE82E81E0F82E78
:1048600000E010E06DEC73E0F701838994890E9409
:10487000F61DF701C388D488C60143960E945F1EC7
:10488000B82EC60142960E945F1ED82E0F5F1F4FA2
:104890004AE0B801CE0101960E9409186AE076E06C
:1048A000CE0101960E947A176DEC73E00E946117A9
:1048B0006AE076E00E947A176D2D0E9430176AE058
:1048C00076E00E947A176B2D0E943017BC018BE5B1
:1048D00095E00E942119CE0101960E940418F5E18D
:1048E000EF0EF11C0A30110509F0BCCF0E945A28C6
:1048F00026960FB6F894DEBF0FBECDBFDF91CF91E5
:104900001F910F91FF90EF90DF90CF90BF9008958F
:10491000EF92FF920F931F93CF93DF9383E690E084
:104920000E945F1E813009F444C063E776E08BE5A6
:1049300095E00E943319C4E6D0E06FEFCE010E94EB
:104940004F1E6AE070E080E090E00E94321A2196EB
:10495000CC3281E0D80789F76AE576E08BE595E00F
:104960000E9433190E945A28C5EBD1E000E010E004
:10497000BE018B899C890E941C1EF801EB54FE4FDE
:104980007F018B899C89618942960E944F1E8B8989
:104990009C89F701628943960E944F1E0B5E1F4F50
:1049A0006596023D110521F761E083E690E00E94E3
:1049B0004F1E83E690E00E945F1E813041F4DF913C
:1049C000CF911F910F91FF90EF900C941824DF91DD
:1049D000CF911F910F91FF90EF900895CF93DF93A8
:1049E000D82FC92F682F80E190E00E9404346C2FEB
:1049F00081E190E00E940434D093AF01C093B001F4
:104A000067E476E08BE595E00E94E4186091AF01E1
:104A10007091B00180E090E04AE00E9469278BE548
:104A200095E00E941D190E945A28DF91CF910C94A5
:104A30003A22CF93DF9380E090E00E945F1E8130A6
:104A400009F45EC06DE677E08BE595E00E943319CE
:104A5000C0E0D0E06FEFCE010E944F1E6AE070E030
:104A600080E090E00E94321A2196CE31D10591F774
:104A70006DE477E08BE595E00E9433190E945A2897
:104A800061E08AE090E00E944F1E61E08BE090E0E0
:104A90000E944F1E60E08CE090E00E944F1E61E09B
:104AA0008DE090E00E944F1E61E08EE090E00E9459
:104AB0004F1E6FE08FE090E00E944F1E8CE390E06D
:104AC0000E94EE2460E082E190E00E944F1E61E0CF
:104AD00083E190E00E944F1E60E084E190E00E943C
:104AE0004F1E60E085E190E00E944F1E60E086E18D
:104AF00090E00E944F1E61E080E090E00E944F1E17
:104B000080E090E00E945F1E813009F0F8C06AE307
:104B100077E08BE595E00E9433198AE090E00E94EF
:104B20005F1E8093010160E377E08BE595E00E94D2
:104B3000E41880910101082E000C990B0E94CD27EA
:104B40008BE090E00E945F1E8093880264E277E031
:104B50008BE595E00E94E41880918802082E000CF5
:104B6000990B0E94CD278CE090E00E945F1E8093FD
:104B7000DF036BE177E08BE595E00E94E41880911C
:104B8000DF03082E000C990B0E94CD278DE090E0EA
:104B90000E945F1E8093B20163E177E08BE595E0B0
:104BA0000E94E4188091B201082E000C990B0E941B
:104BB000CD278EE090E00E945F1E8093B4016BE0F1
:104BC00077E08BE595E00E94E4188091B401082E0F
:104BD000000C990B0E94CD278FE090E00E945F1E91
:104BE000809300016FEF76E08BE595E00E94E4187A
:104BF0006AE070E0809100010E94AC2780E190E0C3
:104C00000E945F1EC82F81E190E00E945F1EC0934A
:104C1000AF018093B0016FEE76E08BE595E00E94E6
:104C2000E4186091AF017091B00180E090E04AE03B
:104C30000E9469278BE595E00E941D1982E190E0B2
:104C40000E945F1E8093B90364EE76E08BE595E0E9
:104C50000E94E4188091B903082E000C990B0E9461
:104C6000CD2783E190E00E945F1E8093060164EDF2
:104C700076E08BE595E00E94E41880910601082E0D
:104C8000000C990B0E94CD2784E190E00E945F1EEA
:104C900080935C0360EC76E08BE595E00E94E4187D
:104CA00080915C03082E000C990B0E94CD2785E1B2
:104CB00090E00E945F1E8093F4036DEA76E08BE53E
:104CC00095E00E94E4186AE070E08091F4030E948D
:104CD000AC2786E190E00E945F1E8093BB036AE9E7
:104CE00076E08BE595E00E94E4186AE070E0809140
:104CF000BB030E94AC27DF91CF910C945A28DF911F
:104D0000CF91089581E390E00E945F1E813081F190
:104D100060E376E08BE595E00E94331965E176E08B
:104D20008BE595E00E9433190E945A286EEF72E0DD
:104D300088E296E00E94D61786E18093870241E1DF
:104D400050E062E273E088E296E00E94002862E2AE
:104D500073E08EE190E00E941C1E6091870280E368
:104D600090E00E944F1E61E081E390E00E944F1EA0
:104D700081E390E00E945F1E813059F562E273E0AA
:104D80008EE190E00E94F61DBC0188E296E00E9450
:104D9000D61780E390E00E945F1E809387026CE04C
:104DA00076E08BE595E00E94E41868E276E08BE51A
:104DB00095E00E94211969EF75E08BE595E00E946E
:104DC000E4186AE070E0809187020E94AC270C949E
:104DD0005A280895EF92FF920F931F93CF93DF937A
:104DE0001F92CDB7DEB77C01FC0100811181C801A3
:104DF00069830E94FC336981681719F0C8010E9419
:104E00000434C7010F90DF91CF911F910F91FF9054
:104E1000EF900895CF93DF93EC01FB01248135815E
:104E20000E948918CE01DF91CF910895DC0114967C
:104E30002D913C911597232B41F0ED91FC9181E050
:104E40009081992319F080E0089581E00895EBE5C1
:104E5000F5E0A089B18982E08C93A485B5851C9288
:104E6000A685B7858FEC8C93108EA489B58986E0D2
:104E70008C93A289B3898C9180618C93A289B38928
:104E80008C9188608C93A289B3898C9180688C9373
:104E90000288F389E02D80818F7D808308950F93B0
:104EA0001F93CF93DF93C5E3D5E08C0105531540E5
:104EB000C8018C0F9D1F0E94FC33899385E0CB3580
:104EC000D807B1F785E395E0DF91CF911F910F915E
:104ED00008958F929F92AF92BF920F931F93CF939B
:104EE000DF93CDB7DEB7A1970FB6F894DEBF0FBE44
:104EF000CDBF19A2423008F44AE08E010F5D1F4F6A
:104F0000842E912CA12CB12CA50194010E947B34FC
:104F1000E62FB901CA0101501109EA3014F4E05D2D
:104F200001C0E95CD801EC93232B242B252B61F7DE
:104F3000B8018BE595E00E940819A1960FB6F89488
:104F4000DEBF0FBECDBFDF91CF911F910F91BF90FC
:104F5000AF909F908F900895CF93DF93AB01672B15
:104F600061F4E0915B05F0915C050190F081E02D2A
:104F7000682F8BE595E0099506C0682F70E080E00A
:104F800090E00E946927EC018BE595E00E941D19D5
:104F90008C0F9D1FDF91CF910895CF92DF92EF92FA
:104FA000FF92CF93DF936C01990FEE08FF08F7FE95
:104FB00014C06DE28BE595E00E94CF18EC016627E6
:104FC0007727CB016C197D098E099F094AE00E9461
:104FD00069277C01EC0EFD1E06C04AE0C701B60140
:104FE0000E9469277C018BE595E00E941D198E0DBA
:104FF0009F1DDF91CF91FF90EF90DF90CF900895AC
:105000000F931F93CF93DF93FC01248135812115EA
:10501000310519F4FB01108211C0EA0121972C1708
:105020003D0708F4E9018B01FC0160817181AE014B
:10503000C8010E940937C00FD11F1882DF91CF919C
:105040001F910F9108950F931F93CF938C0180911F
:10505000340581110AC00E94F61B609330057093DD
:1050600031058093320590933305C1E0C093340538
:10507000B8018EE296E00E94ED17C0932F051092C2
:105080002E05CF911F910F910895CF93DF9300D0FC
:10509000CDB7DEB789831A8241E050E0BE016F5F71
:1050A0007F4F82E296E00E94B7160F900F90DF913B
:1050B000CF9108958BE595E00C941D197F928F9206
:1050C0009F92AF92BF92CF92DF92EF92FF920F9397
:1050D0001F93CF93DF93C12CD12C7601C394D0E0E2
:1050E000BB24B39462E0A62E99249A9475EE872E81
:1050F000E5EC7E2ECC2DB0921D04C092530610928A
:105100005A0310925903909183039111FCCFA092FE
:105110008303B092820390928103109280031092D5
:105120007F0310927E0380917E0386019601220FF9
:10513000331F282B20937E0380917D03813069F4F7
:1051400010927D0380917E038093BB008091BC0010
:1051500083FDF8CF7092BC0002C08092BC008091A9
:1051600083038230E1F3809181038F3F69F0809166
:105170008103803231F080918103803321F094E00B
:1051800003C092E001C093E010925A0310925903B9
:1051900010921D04911134C06DE878E08BE595E024
:1051A0000E94E41880E1C816D104E104F10430F44F
:1051B0006BE878E08BE595E00E94E41840E1C701D8
:1051C000B6010E946927C052C830B0F46AE076E0A8
:1051D0008BE595E00E94D61869E778E08BE595E0CD
:1051E0000E9433191093A7030093A6038091B8037C
:1051F0008F5F8093B80302C00E945A28DF5F19C0F6
:105200009430B9F46DE678E08BE595E00E94E418FF
:10521000E0E1CE16D104E104F10430F46BE678E06D
:105220008BE595E00E94E41860E170E08C2F0E940D
:10523000AC27FFEFCF1ADF0AEF0AFF0A8FE7C81685
:10524000D104E104F10409F055CFD11106C065E5A0
:1052500078E08BE595E00E9433198091B8038823AC
:10526000E9F00E94A82007E011E0C0EBD3E0FC2E9B
:10527000E8E0FE0EF8018389948987960E945F1EFC
:1052800089930B5E1F4FFC12F5CF0E945A28E8EA63
:10529000F3E088E08E0F11928E13FDCFDF91CF9156
:1052A0001F910F91FF90EF90DF90CF90BF90AF9044
:1052B0009F908F907F9008951F93CF93DF93CDB7EA
:1052C000DEB762970FB6F894DEBF0FBECDBF182FC2
:1052D0006093060183E190E00E944F1E113079F542
:1052E0008091E103813059F560ED72E0CE010796BF
:1052F0000E94741866E176E0CE0107960E947A1744
:10530000BC01CE010D960E946B1862E478E0CE01DC
:1053100001960E94621840E0BE01635F7F4FCE019C
:1053200001960E94611ECE0101960E940418CE01D2
:105330000D960E940418CE0107960E9404186296EA
:105340000FB6F894DEBF0FBECDBFDF91CF911F9196
:105350000895CF93DF93CDB7DEB7AB970FB6F89430
:10536000DEBF0FBECDBF789484B5826084BD84B5A6
:10537000816084BD85B5826085BD85B5816085BD50
:1053800080916E00816080936E0010928100809108
:105390008100826080938100809181008160809390
:1053A0008100809180008160809380008091B100B5
:1053B00084608093B1008091B00081608093B000E0
:1053C00080917A00846080937A0080917A00826074
:1053D00080937A0080917A00816080937A00809136
:1053E0007A00806880937A001092C1000E9427277B
:1053F0001092A4031092A50310925A03109259031D
:105400001092830381E08093820310927D0361E018
:1054100082E10E94C61961E083E10E94C619809171
:10542000B9008E7F8093B9008091B9008D7F809301
:10543000B90088E48093B80085E48093BC006BEDEC
:1054400074E08BE595E00E9433196CEC74E08BE519
:1054500095E00E94331964EC79E080E090E00E94CE
:10546000321A80E480937C0080917A00806480937B
:105470007A0080917A0086FDFCCF6091780080915F
:10548000790070E0782B072E000C880B990B6115C2
:1054900071058105910511F00E945C330E94192568
:1054A0000E9488240E94822682E690E00E945F1E6D
:1054B000813009F452C06CE974E08BE595E00E94FC
:1054C00033190CE211E06FEFC8010E944F1E6AE031
:1054D00070E080E090E00E94321A0F5F1F4F0D3C99
:1054E00021E0120781F762E874E08BE595E00E9405
:1054F00033190E945A2807E011E059E1A52E51E026
:10550000B52EF801C388D4887801C01AD10AC60123
:105510008E0D9F1DF70161917F019A838983CE01D2
:1055200001960E94EA26EA14FB0489F7F8018389B0
:105530009489F701608187960E944F1E0B5E1F4F72
:105540005701F5E1AF0EB11C21E00F3A1207C9F681
:1055500061E082E690E00E944F1E0E945E2861E0BA
:105560008AE00E94F61961E08CE00E94F61961E081
:105570008BE00E94F61961E08AE00E94C61961E0A2
:105580008CE00E94C61961E08BE00E94C61960E0C1
:105590008AE00E94C61964EF71E080E090E00E940A
:1055A000321A61E08AE00E94C61960E08CE00E9435
:1055B000C61964EF71E080E090E00E94321A61E069
:1055C0008CE00E94C61960E08BE00E94C61964EF6F
:1055D00071E080E090E00E94321A61E08BE00E946E
:1055E000C61960E086E00E94F61960E08EE00E9435
:1055F000F61960E087E00E94F61960E08FE00E94F3
:10560000F61960E080E10E94F61961E084E00E94F2
:10561000F61960E084E00E94C61961E085E00E940E
:10562000F61961E085E00E94C6190E94A02268EC8C
:1056300074E08BE595E00E9433198091B4018130CC
:1056400031F464EC74E080E196E00E94871680916A
:10565000B401811106C06FEB74E080E196E00E9416
:10566000871660E176E08BE595E00E942119809134
:105670000101882369F00E945A2834E8632E33E040
:10568000732E48EE242E43E0342E412C512C8FC033
:1056900062EB74E08BE595E00E94331919E00E94FB
:1056A0003A221150E1F7E7CF113009F40CC286E03D
:1056B0000E949D198093EE031091B401113009F0FE
:1056C00050C2811144C261E08CE00E94C6190E9460
:1056D000F61BC090EA03D090EB03E090EC03F0904F
:1056E000ED039B01AC012C193D094E095F096901CD
:1056F0007A0135E6C316D104E104F10408F013C2BF
:105700000E94F61BC090F003D090F103E090F203EA
:10571000F090F3039B01AC012C193D094E095F0980
:1057200069017A014091AF015091B00128EE33E058
:10573000429FC001439F900D529F900D1124A0E005
:10574000B0E08C159D05AE05BF0508F41AC2112303
:1057500009F417C286E00E949D198093EE03882306
:1057600009F418C28091EE03813009F44EC2809191
:10577000B903813009F45CC28091BA03813011F41D
:105780000E949B1F80913405813009F4A3C284E3F9
:1057900096E00E94961B892B09F0E9C28BE595E003
:1057A0000E94E113892B09F0DFC50E9481148091CA
:1057B0005C03813039F0823009F05EC08091B40121
:1057C00081115AC08FE00E949D19182F8093E60323
:1057D00080E10E949D19809304011130A1F4809111
:1057E0000301811110C01093030168EC70E080E0A8
:1057F00090E00E94321A0E943A2210935B031092AA
:10580000E3030E942B2280910401811115C0809135
:105810000201811111C011E01093020168EC70E0E7
:1058200080E090E00E94321A0E943A2210935B03BB
:105830001092E3030E942B228091E60381110CC099
:1058400080910301882341F01092030168EC70E01D
:1058500080E090E00E94321A80910401813061F46E
:1058600080910201882341F01092020168EC70E0FF
:1058700080E090E00E94321A80910601813031F47C
:105880008091B401813009F058C003C0823009F022
:1058900054C087E00E949D198093E70381111DC0C9
:1058A00080910501811119C081E08093050164E6B2
:1058B00070E080E090E00E94321A65E075E0CE0171
:1058C00001960E94621841E060E0CE0101960E94BC
:1058D000E71ECE0101960E9404188091E7038130F3
:1058E000E1F4809105018130C1F41092050164E674
:1058F00070E080E090E00E94321A6EEE74E0CE011B
:1059000001960E94621841E060E0CE0101960E947B
:10591000E71ECE0101960E9404188091E7038130B2
:1059200061F480910501823041F41092050164E632
:1059300070E080E090E00E94321A8091B8038111FB
:1059400006C01091DF031111AFCE61E0E8C008EA94
:1059500013E080EB882E83E0982E97E0A92E91E04B
:10596000B92EE12CF12CDD24D39425ECC22E8091AC
:10597000A603909183039111FCCFD0928303D09220
:1059800082033FEF309381031092800310927F03D4
:10599000D0927E0390917E03880F892B80937E03A3
:1059A00080917D03813069F410927D0380917E03A4
:1059B0008093BB008091BC0083FDF8CFC092BC00F7
:1059C00003C045EE4093BC00809183038130E1F336
:1059D00080918003811103C08091800301C081E028
:1059E000ADE5B3E0E4E8F3E09E2F9619981718F4BC
:1059F0009D919193F9CF1092A4038093A5038823DE
:105A000029F088EF95E00E94AE1A01C080E0F40111
:105A100021914F0190E00E2C02C0959587950A9434
:105A2000E2F78170F801281335C0808181113DC0F3
:105A3000D08264E670E080E090E00E94321A8091AB
:105A4000B201813021F460E08CE00E94C619F501BA
:105A5000838994890E944F2764E076E0CE01019605
:105A60000E946B1865E375E0CE0101960E946117F4
:105A7000BC01CE0107960E946B18CE0107960E94CA
:105A80002328CE0107960E940418CE0101960E9499
:105A900004180BC08081813041F4F801108264E663
:105AA00070E080E090E00E94321AFFEFEF1AFF0AE8
:105AB0000F5F1F4F25E1A20EB11C38E0E316F10481
:105AC00009F055CF3ECF0E94F61BC090EA03D0905C
:105AD000EB03E090EC03F090ED039B01AC012C197B
