:100000000C941C040C9444040C9444040C94C115EA
:100010000C94C1150C94C1150C9444040C94440424
:100020000C9444040C9444040C9444040C94440430
:100030000C9444040C9444040C9444040C94440420
:100040000C9449140C9444040C9489110C9463117D
:100050000C9444040C9444040C9444040C94440400
:100060000C9493140C9444044C6F61642064656692
:1000700061756C742073656E736F72206461746156
:100080002E0044656C6574696E672073656E736FCE
:100090007220646174612E0053696C656E74206D0A
:1000A0006F64652100537461727420776F726B699D
:1000B0006E672E002E00496E697420706172616D4A
:1000C000732E0047534D20416C61726D2031372EE5
:1000D000303300506F77657220737570706C7920C3
:1000E000726573746F7265642100506F776572205A
:1000F000737570706C7920646973636F6E6E65637D
:1001000074656421004D61696E2073656E736F7252
:1001100021005049522073656E736F722100507236
:10012000696D6172792070686F6E653A202B0041AD
:10013000542B4348555000506175736554696D6583
:100140002069733A200057617463682074686520E1
:10015000706F776572206F66660047756172642004
:10016000627574746F6E206F6E00477561726420E3
:10017000627574746F6E206F66660041544400416E
:10018000542B435553443D31006C65646F666600E3
:100190006C65646F6E00746573746F666600746579
:1001A00073746F6E00636C656172736D7300200011
:1001B0006F6E2E006F66662E00496E666F3A205095
:1001C00049522000696E666F0067756172646F66E0
:1001D000660067756172646F6E00706175736500AB
:1001E0006D6F6E6579006564697473656E736F72A7
:1001F000006775617264627574746F6E6F66660015
:100200006775617264627574746F6E6F6E0077618A
:10021000746368706F7765726F6666007761746388
:1002200068706F7765726F6E3200776174636870A3
:100230006F7765726F6E3100504952204F666600CD
:100240007069726F666600504952204F6E00706987
:10025000726F6E00536D73204F666600736D736F1F
:10026000666600536D73204F6E00736D736F6E0082
:1002700052696E67204F66660072696E676F6666C8
:100280000052696E67204F6E0072696E676F6E0074
:100290007265736574636F6E666967007265736516
:1002A0007470686F6E650066756C6C7265736574EA
:1002B00000616C61726D70696E74696D6500736C5C
:1002C00065657074696D650062616C616E63656E11
:1002D000756D0064656C65746570686F6E6500614E
:1002E000646470686F6E650041542B435553443D00
:1002F0003000555353442071756572793A20002BB4
:10030000435553443A00534D532066726F6D3A2063
:100310002B002C22002C2C002B434D543A00526908
:100320006E672066726F6D3A202B002C0052494E8A
:1003300047002B5042524541445900477561726451
:10034000204F6666004775617264204F66662E20F6
:10035000427574746F6E004775617264204F6E0051
:100360004775617264204F6E2E20427574746F6EF3
:10037000006661696C65642E007061737365642E3C
:10038000005465737420004661696C656420636580
:100390006C6C3A20004200454550524F4D3A2000C7
:1003A00043757272656E74204944203D20004E6F83
:1003B000206D6F64656D2E0053494D3830304C0010
:1003C0004D3539306500456D756C6174653A2000B6
:1003D00050726576696F7573204944203D2000771F
:1003E00061746368706F7765726F666600776174B9
:1003F0006368706F7765726F6E32007761746368DF
:10040000706F7765726F6E310067756172646275C7
:1004100074746F6E6F66660067756172646275747E
:10042000746F6E6F6E006C69737473656E736F7248
:10043000006C697374636F6E6669670065646974E4
:1004400073656E736F72006932637363616E00640B
:10045000656C65746570686F6E6500616464706872
:100460006F6E65003D006D6F64656D6964006D655C
:100470006D746573740066756C6C72657365740079
:10048000726573657470686F6E650072657365740C
:10049000636F6E666967006C69737470686F6E6510
:1004A00000636C656172736D7300576174636820DB
:1004B00074686520706F776572206F6E0050686F8A
:1004C0006E652061646465642E004572726F722CE3
:1004D00020746869732070686F6E6520616C726546
:1004E0006164792065786973747320696E2074681B
:1004F000652063656C6C3A20004572726F722C2027
:1005000077726F6E67206E756D626572206F662000
:1005100063656C6C732E004572726F722C20666975
:1005200072737420726567697374657220612070DC
:1005300072696D6172792070686F6E652E003B0084
:100540004154442B0000000000240027002A000032
:100550000000080002010000030407000000000082
:100560000000004C656E67746820746F20726574BB
:1005700075726E3A20004E756D6265723A20004CBD
:100580006F61642064656661756C742062616C6182
:100590006E636520646174612E0044656C657469E6
:1005A0006E672062616C616E636520646174612EA8
:1005B00000416C61726D496E74657276616C206980
:1005C000733A20004C6F61642064656661756C74D9
:1005D0002070686F6E6520646174612E0044656CE4
:1005E0006574696E672070686F6E65206461746100
:1005F0002E00526561642061727261792070686FAB
:100600006E653A004775617264427574746F6E4529
:100610006E61626C653A2000576174636845787456
:10062000506F7765723A2000504952477561726485
:100630003A2000416C61726D496E74657276616C2E
:100640003A2000506175736554696D653A20004722
:10065000756172643A20004C65644F6E3A20004C1C
:100660006564546573744F6E3A2000416C61726D1D
:1006700052696E673A200053656E64536D733A2079
:10068000005265616420656570726F6D636F6E66A0
:1006900069673A004C6F61642064656661756C74CB
:1006A00020656570726F6D636F6E66696720646147
:1006B00074612E0044656C6574696E6720656570B1
:1006C000726F6D636F6E66696720646174612E007E
:1006D000415445300041542B434E4D493D322C325C
:1006E0000041542B435343533D2247534D22004175
:1006F000542B434D47463D310041542B434C495008
:100700003D310041360053494D383030004D3539C8
:100710003000415449004154004572726F722064A8
:10072000656C6574696E672070686F6E653A202B22
:100730000044656C6574652070686F6E653A202BA7
:1007400000534D532072656D6F7665640034003040
:100750002C340041542B434D47443D004932432043
:1007600064657669636573206E6F7420666F756E5D
:10077000640030004572726F72206174203078001E
:100780006465746563746564205043463835373456
:100790000A00300049324320646576696365206150
:1007A000742030780053656E736F722064617461D9
:1007B0003A0053656E736F722064617461207361D7
:1007C0007665642E004572726F722073656E736F6A
:1007D00072206E756D6265720053656E7421200023
:1007E000220041542B434D47533D22004E4F54208D
:1007F00053656E7421200000000000250028002BA6
:100800000000000000230026002900040404040462
:1008100004040402020202020203030303030301AD
:100820000204081020408001020408102001020484
:1008300008102000EF32B73211241FBECFEFD8E0EE
:10084000DEBFCDBF13E0A0E0B1E0E0E0F0E702C022
:1008500005900D92AC33B107D9F726E0ACE3B3E0D5
:1008600001C01D92AB35B207E1F714E0CBE1D4E053
:1008700004C02197FE010E94FD33CA31D107C9F798
:100880000E9474220C94F3370C9400009F92AF9254
:10089000BF92CF92DF92EF92FF920F931F93CF936D
:1008A000DF93CDB7DEB76E970FB6F894DEBF0FBEFD
:1008B000CDBF8C016BEC72E0CE0101960E949910C5
:1008C000BE016F5F7F4FC8010E94B40E4AE0BC01B9
:1008D000CE0107960E945B10CE0107960E94AE0DD6
:1008E000AB014F5F5F4FB801CE0143960E944F1C92
:1008F000CE0107960E945610CE0101960E94561016
:100900006BED72E0CE0101960E949910BE016F5FFF
:100910007F4FCE0143960E94BE0EC92ECE01019696
:100920000E9456106DED72E0CE0101960E94991062
:10093000BE016F5F7F4FCE0143960E94BE0ED92E3F
:10094000CE0101960E9456106DE073E0CE0107962D
:100950000E9499106BED72E0CE0101960E949910F1
:10096000AE01495F5F4FBE016F5F7F4FCE0143967F
:100970000E94B90DCE0101960E945610CE01079635
:100980000E9456106DE073E0CE0107960E94991008
:100990006DED72E0CE0101960E949910AE01495FA3
:1009A0005F4FBE016F5F7F4FCE0143960E94B90D2E
:1009B000CE0101960E945610CE0107960E94561055
:1009C0006DE073E0CE0107960E9499106FED72E022
:1009D000CE0101960E949910AE01495F5F4FBE01A2
:1009E0006F5F7F4FCE0143960E94B90DCE010196F5
:1009F0000E945610CE0107960E9456106DE073E0DB
:100A0000CE0107960E94991064EE72E0CE01019625
:100A10000E949910AE01495F5F4FBE016F5F7F4F2B
:100A2000CE0143960E94B90DCE0101960E94561048
:100A3000CE0107960E9456106DE073E0CE01079636
:100A40000E9499106CE073E0CE0101960E9499100B
:100A5000AE01495F5F4FBE016F5F7F4FCE0143968E
:100A60000E94B90DCE0101960E945610CE01079644
:100A70000E94561069E073E0CE0101960E94991021
:100A8000BE016F5F7F4FCE0143960E94BE0E4AE0CB
:100A9000BC01CE0107960E945B10CE0107960E9412
:100AA000AE0D9B0140E050E0BE016D5E7F4FCE0178
:100AB0000D960E94AE10CE0107960E945610CE01F0
:100AC00001960E94561069E073E0CE0101960E94E3
:100AD0009910BE016F5F7F4FCE0143960E94B40E06
:100AE0004AE0BC01CE0149960E945B10CE014996B6
:100AF0000E94AE0DAB014F5F5F4FBE016D5E7F4F39
:100B0000CE0107960E944F1CCE0149960E945610B6
:100B1000CE0101960E945610CE010D960E94AE0D98
:100B2000062FBE01695F7F4FCE0149960E9490104B
:100B300060EB73E08091C2019091C3010E943D1669
:100B4000BC01CE0101960E949910CE0101960E942F
:100B50005821182FCE0101960E945610112361F0E2
:100B600067E175E085E695E00E9451110E94061D3F
:100B70000E94801710E001C011E08EEF800F8A30D4
:100B800058F069EF74E085E695E00E9451110E94EB
:100B9000061D0E94801710E08FEAA82E81E0B82E73
:100BA000E12CF12C60EB73E0F501838994890E94BC
:100BB0003D16BC01CE0101960E949910BE01675EF0
:100BC0007F4FCE0101960E94D80E982ECE0101963D
:100BD0000E945610C70101967C01992071F06AECC1
:100BE00074E085E695E00E940211C7010E94EE21A3
:100BF0000E94061D0E94801710E095E1A90EB11C0D
:100C0000EAE0EE16F10471F61130B1F541E150E081
:100C10006FE973E0CE0149960E9427220150F5E169
:100C20000F9F8001112401551E4F6FE973E0F801F9
:100C3000838994890E942A176C2D6095661F662708
:100C4000661FF8018389948942960E945B1C6D2D72
:100C50006095661F6627661FF8018389948943960D
:100C60000E945B1C6DEB74E085E695E00E945111DB
:100C70000E94061D0E9468170E943F19CE014996E6
:100C80000E945610CE0107960E945610CE010D9676
:100C90000E945610CE0143960E9456106E960FB6D3
:100CA000F894DEBF0FBECDBFDF91CF911F910F91A2
:100CB000FF90EF90DF90CF90BF90AF909F900895FE
:100CC0000F931F93CF93DF93CDB7DEB762970FB625
:100CD000F894DEBF0FBECDBF082F162F68EE73E06D
:100CE00080E090E00E94031410938102612F83E161
:100CF00090E00E945B1C013051F569E073E0CE0189
:100D000007960E94991060E276E0CE0107960E9455
:100D1000B40FBC01CE010D960E9490106AEA74E0F7
:100D2000CE0101960E948710BE01635F7F4FCE0106
:100D300001960E946D1CCE0101960E945610CE01B4
:100D40000D960E945610CE0107960E94561068EE2E
:100D500073E080E090E00E94031462960FB6F8946E
:100D6000DEBF0FBECDBFDF91CF911F910F910895D0
:100D7000CF92DF92EF92FF920F931F93CF93DF9367
:100D8000CDB7DEB76D970FB6F894DEBF0FBECDBFFF
:100D90000E944A2261EA74E0CE0101960E94871007
:100DA000BE016F5F7F4F8CE296E00E94BE0E8C0109
:100DB000CE0101960E94561017FD08C00E94E11F47
:100DC00060ED77E080E090E00E94031467E974E052
:100DD000CE0101960E948710BE016F5F7F4F8CE2AB
:100DE00096E00E94BE0E8C01CE0101960E94561024
:100DF00017FF0E943F196BE874E0CE0101960E9434
:100E00008710BE016F5F7F4F8CE296E00E94BE0E9E
:100E10008C01CE0101960E94561017FD07C06FEF9E
:100E200080E090E00E945B1C0E94401A60E874E041
:100E3000CE0101960E948710BE016F5F7F4F8CE24A
:100E400096E00E94BE0E8C01CE0101960E945610C3
:100E500017FD07C06FEF83E690E00E945B1C0E94C5
:100E6000AF1966E774E0CE0101960E948710BE01BB
:100E70006F5F7F4F8CE296E00E94BE0E8C01CE0128
:100E800001960E94561017FD27C06FEF80E090E09A
:100E90000E945B1C0E94401A68EE73E080E090E0C4
:100EA0000E9403146FEF83E690E00E945B1C0E9497
:100EB000AF1968EE73E080E090E00E9403146FEFDA
:100EC00081E390E00E945B1C0E94C11B68EE73E00E
:100ED00080E090E00E9403146EE674E0CE0101967B
:100EE0000E948710BE016F5F7F4F8CE296E00E94E8
:100EF000BE0E8C01CE0101960E94561017FD93C0C4
:100F00000E94A9362DEF30E040E050E00E945937B2
:100F100082E0F82EF60E67E973E085E695E00E9420
:100F200002114AE060E074E080E090E00E94AB21B2
:100F300065E973E085E695E00E94511100E010E05C
:100F40006F2DC8010E944B3765E070E080E090E0B3
:100F50000E9403140F5F1F4F011584E0180781F7EB
:100F6000C12CD12C00E010E0C8010E946B1C8F1531
:100F7000F1F167E873E085E695E00E940211C8018F
:100F80000E946B1CE82E1B8A1A8A1D8A1C8A1F8AE3
:100F90001E8A4AE0BE016F5F7F4FC8010E94193769
:100FA000BE016F5F7F4FCE0142960E94EF0FBE01E0
:100FB0006E5E7F4FCE0101960E94901064E176E054
:100FC000CE0101960E94B40F6E2D0E946A0FBC01E3
:100FD00085E695E00E943F11CE0101960E945610D1
:100FE000CE0142960E9456108FEFC81AD80A65E0CB
:100FF00070E080E090E00E9403140F5F1F4F011526
:1010000084E0180709F0B0CF61E873E085E695E069
:101010000E940211CD2809F0E0C169E773E085E67E
:1010200095E00E94511166E674E0CE0101960E949F
:101030008710BE016F5F7F4F8CE296E00E94BE0E6C
:101040008C01CE0101960E94561017FD77C064E610
:1010500074E0CE0142960E948710BE016E5E7F4F03
:101060008CE296E00E94B40E4AE0BC01CE014896A4
:101070000E945B10CE0148960E94AE0DAB014F5FFF
:101080005F4F6CE276E0CE0101960E944F1CCE01CC
:1010900048960E945610CE0142960E945610CE01EC
:1010A00001960E94AE0DDC01CB010197A109B109A7
:1010B0000A97A105B10508F093C1CE0101960E94DF
:1010C000AE0D162F60ED73E085E695E00E940211EB
:1010D0008091D603082E000C990B0E94EE2166EC3D
:1010E00073E085E695E00E940211113029F4109317
:1010F000D60360EC73E00BC0123029F41093D603D2
:1011000068EB73E004C01092D6036EEA73E085E6E4
:1011100095E00E94511160EA73E085E695E00E9437
:1011200002118091D603082E000C990B0E94EE212B
:101130000E94061DCE0101960E9456106BE574E0D8
:10114000CE0101960E948710BE016F5F7F4F8CE237
:1011500096E00E94BE0E8C01CE0101960E945610B0
:1011600017FD0EC06CE276E0CE0101960E94901051
:10117000CE0101960E944604CE0101960E945610AF
:101180006FE474E0CE0101960E948710BE016F5F8C
:101190007F4F8CE296E00E94BE0E8C01CE0101963C
:1011A0000E94561017FD0EC06CE276E0CE0101964B
:1011B0000E949010CE0101960E940A20CE01019655
:1011C0000E94561067E474E0CE0101960E948710D9
:1011D000BE016F5F7F4F8CE296E00E94BE0E8C01D5
:1011E000CE0101960E94561017FF0E94DF1E6CE38D
:1011F00074E0CE0101960E948710BE016F5F7F4FA1
:101200008CE296E00E94BE0E8C01CE0101960E94F7
:10121000561017FD0EC06CE276E0CE0101960E94DA
:101220009010CE0101960E94661DCE0101960E948B
:10123000561061E374E0CE0101960E948710BE0152
:101240006F5F7F4F8CE296E00E94BE0E8C01CE0154
:1012500001960E94561017FD04C00E94401A0E9479
:10126000C11B66E274E0CE0101960E948710BE01A8
:101270006F5F7F4F8CE296E00E94BE0E8C01CE0124
:1012800001960E94561017FF0E940A1D68E174E043
:10129000CE0101960E948710BE016F5F7F4F8CE2E6
:1012A00096E00E94BE0E8C01CE0101960E9456105F
:1012B00017FD14C068EE73E080E090E00E94031414
:1012C00081E08093D20361E084E190E00E945B1CA6
:1012D00068EE73E080E090E00E94031469E074E03F
:1012E000CE0101960E948710BE016F5F7F4F8CE296
:1012F00096E00E94BE0E8C01CE0101960E9456100F
:1013000017FD13C068EE73E080E090E00E940314C4
:101310001092D20360E084E190E00E945B1C68EED2
:1013200073E080E090E00E9403146BEF73E0CE0165
:1013300001960E948710BE016F5F7F4F8CE296E09E
:101340000E94BE0E8C01CE0101960E94561017FD20
:1013500004C061E080E00E9460066DEE73E0CE01A3
:1013600001960E948710BE016F5F7F4F8CE296E06E
:101370000E94BE0E8C01CE0101960E94561017FDF0
:1013800004C062E080E00E9460066FED73E0CE0171
:1013900001960E948710BE016F5F7F4F8CE296E03E
:1013A0000E94BE0E8C01CE0101960E94561017FDC0
:1013B0002DC068EE73E080E090E00E94031410926C
:1013C000810260E083E190E00E945B1C68EE73E0C4
:1013D00080E090E00E94031419C061E773E01FCE23
:1013E0006091D603062E000C770B4AE0CE014296A0
:1013F0000E945B10BE016E5E7F4FCE0101960E947F
:101400001D10CE0142960E94561057CE6D960FB613
:10141000F894DEBF0FBECDBFDF91CF911F910F912A
:10142000FF90EF90DF90CF900895EF92FF920F938F
:101430001F93CF93DF93CDB7DEB768970FB6F894BD
:10144000DEBF0FBECDBF11E01093AD0161E08EE0B5
:1014500090E00E945B1C1093AC0166EE72E0CE013E
:1014600001960E94991060E276E0CE0101960E94FA
:10147000B40FBC018AE196E00E940610CE010196ED
:101480000E94561080913E03813031F460E673E093
:101490008AE196E00E94C70F6AE176E085E695E072
:1014A0000E943F1168EE73E080E090E00E94031418
:1014B0000FEA11E0F801E388F488C70143960E941F
:1014C0006B1C813009F060C060EB73E0C7010E94C3
:1014D0003D16BC01CE0101960E949910BE016F5FBE
:1014E0007F4F80E296E00E94D80EF82ECE01019642
:1014F0000E945610F1101092D50368EE73E080E060
:1015000090E00E94031460EB73E0F80183899489F2
:101510000E943D16BC01CE010D960E94991069E013
:1015200073E0CE0107960E949910BE01635F7F4F62
:10153000CE0107960E94B40FBC01CE0143960E94D3
:1015400090106AE176E0CE0101960E949010BE01F3
:101550006D5E7F4FCE0101960E946D1CCE010196FB
:101560000E945610CE0143960E945610CE01079657
:101570000E945610CE010D960E94561068EE73E040
:1015800080E090E00E9403140B5E1F4FF2E00138F0
:101590001F0709F08FCF8091D5038130B1F568EE38
:1015A00073E080E090E00E94031469E073E0CE01F4
:1015B00007960E94991060E276E0CE0107960E949D
:1015C000B40FBC01CE010D960E94901067E573E048
:1015D000CE0101960E948710BE01635F7F4FCE014E
:1015E00001960E946D1CCE0101960E945610CE01FC
:1015F0000D960E945610CE0107960E94561068EE76
:1016000073E080E090E00E94031468960FB6F894AF
:10161000DEBF0FBECDBFDF91CF911F910F91FF9025
:10162000EF900895EF92FF920F931F93CF93DF9364
:10163000CDB7DEB768970FB6F894DEBF0FBECDBF4B
:101640001092AD0160E08EE090E00E945B1C68EFBC
:1016500072E0CE0101960E94991060E276E0CE0120
:1016600001960E94B40FBC018AE196E00E94061028
:10167000CE0101960E94561080913E03813031F4D4
:1016800065E473E08AE196E00E94C70F6AE176E0C4
:1016900085E695E00E943F1168EE73E080E090E0FF
:1016A0000E9403140FEA11E0F801E388F488C701EF
:1016B00043960E946B1C813009F060C060EB73E0C0
:1016C000C7010E943D16BC01CE0101960E949910EF
:1016D000BE016F5F7F4F80E296E00E94D80EF82E29
:1016E000CE0101960E945610F1101092D50368EEBB
:1016F00073E080E090E00E94031460EB73E0F80177
:10170000838994890E943D16BC01CE010D960E94EA
:10171000991069E073E0CE0107960E949910BE010E
:10172000635F7F4FCE0107960E94B40FBC01CE01CC
:1017300043960E9490106AE176E0CE0101960E94E5
:101740009010BE016D5E7F4FCE0101960E946D1C10
:10175000CE0101960E945610CE0143960E9456106B
:10176000CE0107960E945610CE010D960E9456108B
:1017700068EE73E080E090E00E9403140B5E1F4F60
:10178000F2E001381F0709F08FCF8091D503813037
:10179000B1F568EE73E080E090E00E94031469E028
:1017A00073E0CE0107960E94991060E276E0CE01C8
:1017B00007960E94B40FBC01CE010D960E949010B6
:1017C0006BE373E0CE0101960E948710BE01635F58
:1017D0007F4FCE0101960E946D1CCE0101960E94A2
:1017E0005610CE010D960E945610CE0107960E940B
:1017F000561068EE73E080E090E00E940314689653
:101800000FB6F894DEBF0FBECDBFDF91CF911F9111
:101810000F91FF90EF9008950895CF92DF92EF928D
:10182000FF920F931F93CF93DF936C017A018B018B
:10183000C0E0D0E0CE15DF0589F0D8016D918D01B3
:10184000D601ED91FC910190F081E02DC601099542
:10185000892B11F47E0102C02196ECCFC701DF91E4
:10186000CF911F910F91FF90EF90DF90CF9008954F
:10187000FC01918D828D981761F0828DDF01A80F98
:10188000B11D5D968C91928D9F5F9F73928F90E0BA
:1018900008958FEF9FEF0895FC01918D828D981729
:1018A00031F0828DE80FF11D858D90E008958FEF66
:1018B0009FEF0895FC01918D228D892F90E0805C2F
:1018C0009F4F821B91098F739927089585E695E0B4
:1018D0000E945A0C21E0892B09F420E0822F089500
:1018E000FC01848DDF01A80FB11DA35ABF4F2C91BD
:1018F000848D90E001968F739927848FA689B7898C
:101900002C93A089B1898C9180648C93938D848D64
:10191000981306C00288F389E02D80818F7D808333
:101920000895EF92FF920F931F93CF93DF93EC01F3
:1019300081E0888F9B8D8C8D981305C0E889F9898B
:10194000808185FD24C0F62E0B8D10E00F5F1F4FA8
:101950000F731127E02E8C8DE8120CC00FB607FC18
:10196000FACFE889F989808185FFF5CFCE010E9401
:10197000700CF1CF8B8DFE01E80FF11DE35AFF4F84
:10198000F0820B8FEA89FB898081806207C0EE8933
:10199000FF896083E889F98980818064808381E0A0
:1019A00090E0DF91CF911F910F91FF90EF900895FC
:1019B000CF93DF93EC01888D8823C9F0EA89FB89F6
:1019C000808185FD05C0A889B9898C9186FD0FC0ED
:1019D0000FB607FCF5CF808185FFF2CFA889B989C2
:1019E0008C9185FFEDCFCE010E94700CE7CFDF9187
:1019F000CF91089580E090E0892B29F00E94660C39
:101A000081110C94000008950E94FA35AF92BF92A4
:101A1000CF92DF92EF92FF920F931F93CF93DF93BA
:101A20007B018A01FB01448155814115510561F11A
:101A3000FC01248135812115310531F12417350749
:101A400018F10217130718F0890101501109FC0160
:101A5000A080B180C501DFEFCFEF6501C00ED11EC0
:101A6000C816D906A0F0F701608171810E94413645
:101A7000009769F09C012A193B090217130710F01F
:101A8000D22FC32F0196ECCF8FEF9FEF02C08D2F87
:101A90009C2FDF91CF911F910F91FF90EF90DF90DE
:101AA000CF90BF90AF9008950F931F93CF93DF9384
:101AB000EC0188819981009729F02A813B812617C2
:101AC000370788F48B016F5F7F4F0E943035009796
:101AD00061F0998388831B830A832C813D81232BAA
:101AE00011F4FC01108281E001C080E0DF91CF9110
:101AF0001F910F910895CF93DF93EC018881998115
:101B0000009711F00E949834198218821D821C825D
:101B10001B821A82DF91CF910895EF92FF920F936B
:101B20001F93CF93DF93EC017B018A01BA010E94DE
:101B3000540D811104C0CE010E947B0D07C01D838E
:101B40000C83B701888199810E942B36CE01DF91E9
:101B5000CF911F910F91FF90EF900895FC0180812C
:101B60009181009711F00C94B73660E070E0CB01E2
:101B700008952F923F924F925F926F927F928F9231
:101B80009F92AF92BF92CF92DF92EF92FF920F930C
:101B90001F93CF93DF93FC0144805580411451047F
:101BA00009F4CFC0FB01648075806114710409F4ED
:101BB000C8C07A016B01EC01FA01A480B580A618B7
:101BC000B70808811981A114B104C1F4F60160813C
:101BD0007181C8010E944136EC01892B09F4B1C022
:101BE000F7016081718144815581CE010E940736E1
:101BF000F701048115810C0F1D1FE8CFB7FE02C04D
:101C0000480106C0FB01208031804201C80142C06A
:101C1000F60160817181C4010E9441362C01892B3B
:101C200019F1320168187908A301B401C8010E94B2
:101C30000736060D171DF7016081718144815581BA
:101C4000C8010E940736F70184819581080F191F8A
:101C5000F60184809580840C951C8C819D818A0D71
:101C60009B1D9D838C83D4CFB401C801DF91CF919C
:101C70001F910F91FF90EF90DF90CF90BF90AF90AA
:101C80009F908F907F906F905F904F903F902F909C
:101C90000C942B36B1010E944136009729F0860D35
:101CA000971D8A0C9B1CF6CF8414950409F449C037
:101CB0008A819B818815990560F4B4016F5F7F4F1D
:101CC000C8010E9430350097E1F1998388839B8297
:101CD0008A824C815D814150510957FD32C0B60165
:101CE000CE010E94060D8C0197FD2BC08881998141
:101CF000F60124813581200F311F820F931F4C8103
:101D00005D81421B530BBC018A0D9B1D0E94103646
:101D10008C819D818A0D9B1D9D838C8328813981B7
:101D2000F901E80FF91F108288819981F70160811C
:101D3000718144815581800F911F0E940736A8014F
:101D4000CACFDF91CF911F910F91FF90EF90DF905D
:101D5000CF90BF90AF909F908F907F906F905F904B
:101D60004F903F902F900895FC0144815581FB01D5
:101D700024813581421B530B0C94060DCF93DF93C6
:101D8000FC0124813581232B71F0FB01DC01CD9115
:101D9000DC9160817181CE010E944136009719F07B
:101DA0008C1B9D0B02C08FEF9FEFDF91CF910895A9
:101DB000FC0124813581FB014481558124173507BD
:101DC00021F5FC0180819181FB0160817181009787
:101DD00019F061157105A1F46115710549F0232B06
:101DE000B1F0FB01808190E09195819591090AC045
:101DF000009769F0232B59F0FC01808190E002C02C
:101E00000E94223621E0892B19F020E001C021E058
:101E1000822F0895EF92FF920F931F93CF93DF933A
:101E2000EC017B0161157105E1F0CB010E94E53603
:101E30000097D1F02C813D818C01020F131FB80156
:101E4000CE010E94540D882361F0288139818C8154
:101E50009D81B701820F931F0E94DE361D830C8384
:101E600003C0CE010E947B0DCE01DF91CF911F9167
:101E70000F91FF90EF900895EF92FF920F931F93B1
:101E8000CF93DF93FC01248135816115710511F435
:101E900080E019C041155105A9F07B01EC018A01D0
:101EA000020F131FB8010E94540D882389F3288163
:101EB00039818C819D81B701820F931F0E942B363F
:101EC0001D830C8381E0DF91CF911F910F91FF90D3
:101ED000EF900895EF92FF920F931F93CF93DF93AC
:101EE00000D000D0CDB7DEB77C01862F4AE08E014E
:101EF0000F5F1F4FB80190E00E94F936F801019082
:101F00000020E9F73197AF01401B510BB801C70121
:101F10000E943C0F811103C0C7010E947B0DC701C5
:101F20000F900F900F900F90DF91CF911F910F9115
:101F3000FF90EF900895CF93DF93EC016115710549
:101F400061F0FB0101900020E9F73197AF01461BDA
:101F5000570B0E943C0F811103C0CE010E947B0DE4
:101F6000CE01DF91CF910895CF93DF93EC01FB0178
:101F700044815581608171810E943C0F811103C0B1
:101F8000CE010E947B0DCE01DF91CF910895EF929B
:101F9000FF920F931F93CF93DF93EC018B01611599
:101FA000710551F0CB010E94E5367C01BC01CE01E8
:101FB0000E94540D811104C0CE010E947B0D07C008
:101FC000FD82EC82B801888199810E94DE36CE01C3
:101FD000DF91CF911F910F91FF90EF900895CF93D4
:101FE000DF93EC016115710559F0FB0101900020B0
:101FF000E9F73197AF01461B570B0E948D0D02C0C8
:102000000E947B0DCE01DF91CF910895CF93DF9396
:10201000EC01FB018617970761F060817181611502
:10202000710529F0448155810E948D0D02C00E94E6
:102030007B0DCE01DF91CF9108950F931F93CF9326
:10204000DF938C01EB01FC01808191810097B1F05D
:10205000688179816115710579F0428153812C8104
:102060003D814217530740F00E942B368C819D81A1
:10207000F8019583848313C00E94983488819981E4
:10208000F801918380838A819B81938382838C81F1
:102090009D8195838483198218821B821A821D82F6
:1020A0001C82DF91CF911F910F910895FC018081D7
:1020B00091810C9498340F931F93CF93DF93CDB7F6
:1020C000DEB762970FB6F894DEBF0FBECDBF8C01AE
:1020D000CB01F801118210821382128215821482C0
:1020E00050E0BE016F5F7F4F0E94EE36BE016F5F12
:1020F0007F4FC8010E94EF0F62960FB6F894DEBFC3
:102100000FBECDBFDF91CF911F910F910895FC01BC
:102110001182108213821282158214820C94C70FCE
:10212000FC011182108213821282158214820C9497
:102130000610FC0111821082138212821582148211
:102140006115710551F0FB0101900020E9F731970D
:10215000AF01461B570B0C948D0D0895BF92CF9283
:10216000DF92EF92FF920F931F93CF93DF937C0147
:102170006B018A01E9012417350720F4812F8901B9
:10218000C42FD82F6DE073E0C7010E949910D601CB
:1021900014968D919C91159708171907D0F48C17F8
:1021A0009D0708F4EC01D601ED91FC911197EC0F1D
:1021B000FD1FB08010824D915C91BA01600F711FBC
:1021C000C7010E94EF0FD601ED91FC91EC0FFD1FAE
:1021D000B082C701DF91CF911F910F91FF90EF90D7
:1021E000DF90CF90BF900895DC01ED91FC91DB0171
:1021F00014964D915C9115976D917C910280F381BD
:10220000E02D0994EF92FF920F931F93CF93DF93EA
:102210008C017B01C0E0D0E0F701EC0FFD1F649161
:10222000662361F0D801ED91FC910190F081E02DE1
:10223000C8010995892B11F02196EECFCE01DF91CF
:10224000CF911F910F91FF90EF9008956115710547
:1022500079F0FB0101900020E9F73197AF01461BAF
:10226000570BDC01ED91FC910280F381E02D099484
:1022700080E090E008956BE073E00C9426110F93DA
:102280001F93CF93DF93EC010E94F4108C01CE01D9
:102290000E943B11800F911FDF91CF911F910F91F1
:1022A00008950F931F93CF93DF93EC010E940211C7
:1022B0008C01CE010E943B11800F911FDF91CF91C5
:1022C0001F910F9108951F920F920FB60F92112434
:1022D0002F933F934F935F936F937F938F939F932E
:1022E000AF93BF93EF93FF9385E695E00E94700C48
:1022F000FF91EF91BF91AF919F918F917F916F91DE
:102300005F914F913F912F910F900FBE0F901F90B3
:1023100018951F920F920FB60F9211242F938F933F
:102320009F93EF93FF93E0917505F091760580817F
:10233000E0917B05F0917C0582FD12C09081809137
:102340007E058F5F8F7320917F05821751F0E0919A
:102350007E05F0E0EB59FA4F958F80937E0501C022
:102360008081FF91EF919F918F912F910F900FBEE0
:102370000F901F901895833081F028F4813099F0E8
:102380008230A1F008958730A9F08830B9F0843008
:10239000D1F4809180008F7D03C0809180008F7781
:1023A00080938000089584B58F7702C084B58F7DB7
:1023B00084BD08958091B0008F7703C08091B000F4
:1023C0008F7D8093B00008953FB7F89480911405F5
:1023D00090911505A0911605B091170526B5A89BFB
:1023E00005C02F3F19F00196A11DB11D3FBFBA2FA7
:1023F000A92F982F8827820F911DA11DB11DBC0107
:10240000CD0142E0660F771F881F991F4A95D1F7CB
:10241000089585ED8093BC008091BC0084FDFCCFC5
:102420001092650308954091EA04262F30E0240FAE
:10243000311D21323105DCF4209165032430C9F4CB
:10244000FC0180E090E0861758F43091EA04219175
:10245000DC01A853BB4FA30FB11D2C930196F3CF02
:102460008091EA04680F6093EA0480E0089581E0B7
:10247000089582E008950895E0918603809187038E
:10248000E81730F4F0E0EA59FC4F808190E00895BD
:102490008FEF9FEF0895909186038091870398179F
:1024A00050F4E92FF0E0EA59FC4F208130E09F5FC3
:1024B0009093860302C02FEF3FEFC90108958091EA
:1024C000870390E020918603821B91090895CF92A3
:1024D000DF92EF92FF920F931F93CF93DF937C01D4
:1024E000262F972F8A0180910704882391F0C62F09
:1024F000D72F6E01C40ED51ECC15DD0571F0699184
:10250000D701ED91FC910190F081E02DC701099573
:10251000F3CF642F822F0E941312C801DF91CF9155
:102520001F910F91FF90EF90DF90CF900895CF9380
:10253000DF931F92CDB7DEB7698320910704222372
:10254000D1F020913C03203240F021E030E0FC014A
:102550003383228380E090E015C080913D03E82F13
:10256000F0E0E951FC4F998190838F5F80933D03A8
:1025700080933C0305C061E0CE0101960E941312D6
:1025800081E090E00F90DF91CF9108952091E503D5
:102590003091E6032817390771F49091E403809194
:1025A000E303981741F0E091E403F0E0E85FFB4FAC
:1025B000808190E008958FEF9FEF089508951F9315
:1025C000CF93DF93DC015C962D913C915D972115B3
:1025D000310539F481E090E013969C938E93129725
:1025E0003DC05196ED91FC91529750969C91509719
:1025F000892F80951FB75E964C915E9741FB772798
:1026000070F941FD6095F8944081772311F0492BD2
:1026100001C048234083E9012197F1F748E0508148
:1026200060FF02C0592B01C058235083E901219754
:10263000F1F76695415099F7772321F0908189232E
:10264000808303C08081982B90831FBF5C968D91FF
:102650009C915D970197F1F721E030E0C901DF918E
:10266000CF911F9108952091E5033091E60328173B
:10267000390771F48091E3032091E40390E08054E2
:102680009F4F821B910960EC70E00E94D533089542
:1026900080E090E008952091E5033091E60328174B
:1026A0003907C9F49091E4038091E303981799F0F6
:1026B000E091E403F0E0E85FFB4F20818091E403C8
:1026C00090E0019660EC70E00E94D5338093E403C3
:1026D000822F90E008958FEF9FEF0895CF93DF93BF
:1026E000282F30E0F901E15BFA4F8491F901E15EB6
:1026F000F74FD491F901E55FF74FC491CC2391F0E6
:1027000081110E94BB11EC2FF0E0EE0FFF1FEF5F75
:10271000F74FA591B491EC91ED2381E090E021F485
:1027200080E002C080E090E0DF91CF9108951F9398
:10273000CF93DF93282F30E0F901E15BFA4F8491CA
:10274000F901E15EF74FD491F901E55FF74FC491CC
:10275000CC23C9F0162F81110E94BB11EC2FF0E0A1
:10276000EE0FFF1FE950F84FA591B4918FB7F89481
:10277000111105C09C91ED2FE095E92302C0EC9169
:10278000ED2BEC938FBFDF91CF911F910895CF93E5
:10279000DF9390E0FC01E15EF74F2491FC01E55FDF
:1027A000F74F8491882361F190E0880F991FFC0115
:1027B000EB5BFA4FC591D491FC01E950F84FA5911C
:1027C000B491611109C09FB7F89488812095822344
:1027D0008883EC912E230BC0623061F49FB7F8948C
:1027E0003881822F809583238883EC912E2B2C9324
:1027F0009FBF06C08FB7F894E8812E2B28838FBF28
:10280000DF91CF9108958F929F92AF92BF92CF9216
:10281000DF92EF92FF926B017C010E94E4114B0169
:102820005C01C114D104E104F104F1F00E94E4114F
:10283000DC01CB0188199909AA09BB09883E93409C
:10284000A105B10570F321E0C21AD108E108F10831
:1028500088EE880E83E0981EA11CB11CC114D1041F
:10286000E104F10419F7DDCFFF90EF90DF90CF90F6
:10287000BF90AF909F908F9008952FB7F89460917C
:1028800010057091110580911205909113052FBFCD
:1028900008951F920F920FB60F9211242F933F931A
:1028A0008F939F93AF93BF938091100590911105E3
:1028B000A0911205B091130530910F0523E0230F6D
:1028C0002D3720F40196A11DB11D05C026E8230F68
:1028D0000296A11DB11D20930F05809310059093C2
:1028E0001105A0931205B0931305809114059091E2
:1028F0001505A0911605B09117050196A11DB11DF2
:102900008093140590931505A0931605B0931705B1
:10291000BF91AF919F918F913F912F910F900FBEDB
:102920000F901F9018951F920F920FB60F921124BF
:102930002F933F934F935F936F937F938F939F93C7
:10294000AF93BF93EF93FF938091B900887F803658
:1029500009F49CC068F5883209F45BC090F48031BA
:1029600009F454C038F4882309F4F6C0883009F417
:102970004DC0F6C0883109F44CC0803209F45DC006
:10298000EFC0803409F468C048F4803309F455C0BE
:10299000883309F0E5C080936303D8C0803509F41B
:1029A0004FC0883509F45DC0883409F0D9C0D6C05D
:1029B000883909F4C7C0A8F4883709F467C038F427
:1029C000883609F463C0803709F460C0C9C088380C
:1029D00009F4B8C0803909F45FC0803809F0C0C07C
:1029E0005BC0803B09F486C038F4803A09F466C0C5
:1029F000883A09F47FC0B4C0803C09F4A7C0883C81
:102A000009F4A4C0883B09F48AC0AAC0809160037D
:102A100010C09091620380916103981770F5E09166
:102A2000620381E08E0F80936203F0E0E15CFC4F73
:102A300080818093BB0085EC86C0809363038EC049
:102A4000E091620381E08E0F809362038091BB006E
:102A5000F0E0E15CFC4F8083909162038091610320
:102A60006EC0E091620381E08E0F809362038091DB
:102A7000BB00F0E0E15CFC4F808380916403811136
:102A80006DC081E080935F0384EA61C083E080933E
:102A9000650310920E05CFCF80910E05803208F0AD
:102AA00051C0E0910E0581E08E0F80930E0580915C
:102AB000BB00F0E0E251FB4F8083BDCF85EC8093FB
:102AC000BC001092650380910E05803230F4E091D5
:102AD0000E05F0E0E251FB4F108260910E0570E0B0
:102AE000E091EC04F091ED048EEE94E009951092E3
:102AF0000E0536C084E0809365031092EB041092BB
:102B0000EA04E091E804F091E90409958091EA046F
:102B1000811105C081E08093EA041092C804E0911D
:102B2000EB0481E08E0F8093EB04F0E0E853FB4F61
:102B300080818093BB009091EB048091EA04981708
:102B400008F479CF85E88093BC000AC085EC8093B7
:102B5000BC001092650304C0109263030E94091226
:102B6000FF91EF91BF91AF919F918F917F916F9165
:102B70005F914F913F912F910F900FBE0F901F903B
:102B800018951F920F920FB60F9211242F933F9317
:102B90004F935F936F937F938F939F93AF93BF9365
:102BA000EF93FF93E091E503F091E603309709F48A
:102BB00053C0968DA685B785858591FF04C09C91ED
:102BC000892329F449C09C91892309F045C0A38930
:102BD000B4899C918589809589238C93868997896E
:102BE0000197F1F7608D718DA685B785558538E021
:102BF00020E0CB010197F1F7822F90E09595879522
:102C0000282F4C91452309F02068315091F7868D8B
:102C100081FD20958091E30390E0019660EC70E0E7
:102C20000E94D5339091E403981749F0A091E303F3
:102C3000B0E0A85FBB4F2C938093E30303C0868D65
:102C40008160868F828D938D0197F1F7A389B48976
:102C50009C918589892B8C93FF91EF91BF91AF91C6
:102C60009F918F917F916F915F914F913F912F91A4
:102C70000F900FBE0F901F901895CF92DF92EF929A
:102C8000FF920F931F93CF93DF93EB017B0121E121
:102C9000E20EF11C8B016C01C61AD70AC601800F27
:102CA000911F0E944337F80181938F01EE15FF05B4
:102CB000A9F7CE01DF91CF911F910F91FF90EF9077
:102CC000DF90CF900895BF92CF92DF92EF92FF9264
:102CD0000F931F93CF93DF93CDB7DEB768970FB6EF
:102CE000F894DEBF0FBECDBF7C01B62E61E084E05C
:102CF0000E94971360E085E00E9497130E943D14A4
:102D000060939B0370939C0380939D0390939E0319
:102D1000B70185E695E00E943F110FEA11E0F80146
:102D2000C388D488C60143960E946B1C8130F1F59C
:102D300060EB73E0C6010E943D16BC01CE01079610
:102D40000E94991069E073E0CE010D960E949910DF
:102D5000BE01695F7F4FCE010D960E94B40FBC018A
:102D6000CE0101960E949010B701CE0143960E94B9
:102D70009010BE016F5F7F4FCE0143960E946D1C85
:102D8000CE0143960E945610CE0101960E94561025
:102D9000CE010D960E945610CE0107960E94561045
:102DA00068EE73E080E090E00E9403140B5E1F4F1A
:102DB000F2E001381F0709F0B2CF80918402813020
:102DC000C9F5B81237C060EB73E08091C2019091F1
:102DD000C3010E943D16BC01CE0101960E949910CC
:102DE000CE0101960E945821182FCE0101960E9413
:102DF000561011111FC060E475E088E396E00E9450
:102E0000021160EB73E08091C2019091C3010E94B6
:102E10003D16BC0188E396E00E9426116EE375E042
:102E200088E396E00E94511168EE73E080E090E044
:102E30000E94031468960FB6F894DEBF0FBECDBF94
:102E4000DF91CF911F910F91FF90EF90DF90CF9086
:102E5000BF900895AF92BF92CF92DF92EF92FF9210
:102E60000F931F93CF93DF9300D0CDB7DEB78B01C5
:102E70006B0121E1C20ED11C7B015C01A61AB70ACD
:102E800095012E0D3F1DF70161917F013A83298342
:102E9000CE0101960E942F1CEC14FD0489F7C80195
:102EA0000F900F90DF91CF911F910F91FF90EF90B6
:102EB000DF90CF90BF90AF9008958091AD018130A9
:102EC00011F40C94120B811102C00C94150A089590
:102ED00061E08BE00E94971364E670E080E090E090
:102EE0000E94031460E08BE00E94971364E670E098
:102EF00080E090E00E94031461E08BE00C94971353
:102F00000E9468170C946817DF92EF92FF920F935C
:102F10001F93CF93DF9300D000D000D0CDB7DEB7A2
:102F20007C010FEA11E060EB73E0F801838994897A
:102F30000E943D16BC01CE0101960E949910B70176
:102F4000CE0101960E94D80ED82ECE0101960E9485
:102F50005610D11008C00B5E1F4FF2E001381F075A
:102F600011F780E00DC0B70180E296E00E940610E4
:102F7000F8018389948942960E946B1C813059F72D
:102F800026960FB6F894DEBF0FBECDBFDF91CF916E
:102F90001F910F91FF90EF90DF9008950F931F9373
:102FA000CF93DF9300D000D000D0CDB7DEB760ED77
:102FB00077E080E090E00E9403140E946921109263
:102FC000530610925206109251061092500610921B
:102FD0004F0610924E068DE991E09093550680932E
:102FE000540690914406963108F057C02DEB30E01E
:102FF00030934F0620934E062BE931E03093510673
:10300000209350062CE231E0309353062093520671
:1030100020916800983050F031E09E3008F430E0A4
:1030200081E001C0880F3A95EAF701C084E0822B65
:1030300080936800983038F09E3040F0963148F028
:1030400020E030E008C02DE630E005C02BE630E09F
:1030500002C02CE630E030934C0620934B069830AB
:1030600030F481E001C0880F9A95EAF70EC0292F4D
:1030700030E09E3018F42850310902C02E5031093A
:1030800081E001C0880F2A95EAF780934D06809170
:103090005406909155060197F1F780915206909150
:1030A0005306892B49F1E091E503F091E60386E0B0
:1030B000E833F80709F1309739F0A389B4899C9176
:1030C0008589809589238C93809156068E7F809385
:1030D00056061092E3031092E40388E396E090937F
:1030E000E6038093E503E0914B06F0914C06908156
:1030F00080914D06892B80831AE066E177E088E3B2
:1031000096E00E94511168EC70E080E090E00E942F
:103110000314115091F762E177E088E396E00E9492
:1031200051116AE070E080E090E00E94031488E3AF
:1031300096E00E943313892B09F460C088E396E07F
:103140000E943313892B79F088E396E00E944B1399
:103150008093D7030E945F2264E170E080E090E0FA
:103160000E940314EBCF6DE077E0CE0101960E9440
:103170008710BE016F5F7F4F8CE296E00E94BE0E0B
:103180008C01CE0101960E94561017FD03C081E00C
:103190008093D60366E077E0CE0101960E94871007
:1031A000BE016F5F7F4F8CE296E00E94BE0E8C01E5
:1031B000CE0101960E94561017FD03C082E0809355
:1031C000D60363E077E0CE0101960E948710BE012E
:1031D0006F5F7F4F8CE296E00E94BE0E8C01CE01A5
:1031E00001960E94561017FD03C083E08093D6031A
:1031F0006DE073E08CE296E00E94EF0F69EF76E0FD
:1032000088E396E00E94511164E670E080E090E06F
:103210000E9403146FEE76E088E396E00E9451115D
:1032200064E670E080E090E00E94031461EE76E0D6
:1032300088E396E00E94511164E670E080E090E03F
:103240000E94031465ED76E088E396E00E94511138
:1032500064E670E080E090E00E94031460ED76E0A8
:1032600088E396E00E94511126960FB6F894DEBFCF
:103270000FBECDBFDF91CF911F910F910895BF92E7
:10328000CF92DF92EF92FF920F931F93CF93DF9332
:1032900000D000D000D0CDB7DEB762EF75E085E694
:1032A00095E00E9451118FEAE82E81E0F82E00E0AF
:1032B00010E060EB73E0F701838994890E943D166A
:1032C000F701C388D488C60143960E946B1CB82EB0
:1032D000C60142960E946B1CD82E0F5F1F4F4AE01A
:1032E000B801CE0101960E945B1064E176E0CE0148
:1032F00001960E94B40F60EB73E00E949B0F64E1A3
:1033000076E00E94B40F6D2D0E946A0F64E176E0B2
:103310000E94B40F6B2D0E946A0FBC0185E695E0F8
:103320000E943F11CE0101960E945610F5E1EF0E6A
:10333000F11C0A30110509F0BCCF0E94061D26962B
:103340000FB6F894DEBF0FBECDBFDF91CF911F91B6
:103350000F91FF90EF90DF90CF90BF900895EF9284
:10336000FF920F931F93CF93DF9383E690E00E9429
:103370006B1C813009F444C06DED75E085E695E085
:103380000E945111C4E6D0E06FEFCE010E945B1C99
:103390006AE070E080E090E00E9403142196CC3255
:1033A00081E0D80789F764EC75E085E695E00E9436
:1033B00051110E94061DCFEAD1E000E010E0BE01ED
:1033C0008B899C890E942A17F801E155FE4F7F01E5
:1033D0008B899C89618942960E945B1C8B899C89A0
:1033E000F701628943960E945B1C0B5E1F4F659636
:1033F000023D110521F761E083E690E00E945B1C2D
:1034000083E690E00E946B1C813041F4DF91CF9104
:103410001F910F91FF90EF900C943F19DF91CF9186
:103420001F910F91FF90EF900895CF93DF93D82FC6
:10343000C92F682F80E190E00E944B376C2F81E10B
:1034400090E00E944B37D0938502C093860261EBD7
:1034500075E085E695E00E94021160918502709109
:10346000860280E090E04AE00E94AB2185E695E08C
:103470000E943B110E94061DDF91CF910C946817AA
:103480000F931F93CF93DF9300D000D000D0CDB720
:10349000DEB780E090E00E946B1C813009F455C0DB
:1034A00064EB76E085E695E00E94511100E010E0C3
:1034B0006FEFC8010E945B1C6AE070E080E090E062
:1034C0000E9403140F5F1F4F0E31110589F764E945
:1034D00076E085E695E00E9451110E94061D61E0AC
:1034E0008AE090E00E945B1C61E08BE090E00E942B
:1034F0005B1C60E08CE090E00E945B1C61E08DE072
:1035000090E00E945B1C61E08EE090E00E945B1CFA
:103510006FE08FE090E00E945B1C8CE390E00E94E3
:10352000151A60E082E190E00E945B1C61E083E19B
:1035300090E00E945B1C60E084E190E00E945B1CD4
:1035400061E080E090E00E945B1C80E090E00E94DF
:103550006B1C813009F00AC161E876E085E695E0F0
:103560000E9451118AE090E00E946B1C80938302BC
:1035700067E776E085E695E00E940211809183027C
:10358000082E000C990B0E94EE218BE090E00E9427
:103590006B1C809384026BE676E085E695E00E94E2
:1035A000021180918402082E000C990B0E94EE21DA
:1035B0008CE090E00E946B1C8093D3036FE576E073
:1035C00085E695E00E9402118091D303082E000C3D
:1035D000990B0E94EE218DE090E00E946B1C80937D
:1035E000820267E576E085E695E00E94021180910F
:1035F0008202082E000C990B0E94EE218EE090E0D2
:103600000E946B1C8093AD016FE476E085E695E047
:103610000E9402118091AD01082E000C990B0E94AE
:10362000EE218FE090E00E946B1C8093870263E4A0
:1036300076E085E695E00E9402116091870270E0D5
:1036400080E090E04AE00E94AB2185E695E00E9490
:103650003B1180E190E00E946B1C182F81E190E00B
:103660000E946B1C109385028093860263E376E0D0
:1036700085E695E00E9402116091850270918602B4
:1036800080E090E04AE00E94AB2185E695E00E9450
:103690003B1182E190E00E946B1C8093D40368E2AE
:1036A00076E085E695E00E9402118091D403082E11
:1036B000000C990B0E94EE2183E190E00E946B1CAC
:1036C0008093810268E176E085E695E00E94021130
:1036D00080918102082E000C990B0E94EE2184E15A
:1036E00090E00E946B1C8093D20364E076E085E654
:1036F00095E00E9402118091D203082E000C990BD4
:103700000E94EE218091AD018130A9F46AE176E05A
:10371000CE0101960E9490106EE073E0CE010196FA
:103720000E949B0FBC018AE196E00E940610CE0128
:1037300001960E9456108091AD01811115C06AE179
:1037400076E0CE0101960E94901061E173E0CE0117
:1037500001960E949B0FBC018AE196E00E94061030
:10376000CE0101960E9456100E94061D26960FB6A5
:10377000F894DEBF0FBECDBFDF91CF911F910F91A7
:10378000089581E390E00E946B1C813081F16AE929
:1037900075E085E695E00E9451116FE775E085E6DA
:1037A00095E00E9451110E94061D65E173E082E3DD
:1037B00096E00E94EF0F86E18093880241E150E09D
:1037C00061EC73E082E396E00E94272261EC73E0F3
:1037D0008EE190E00E942A176091880280E390E0D9
:1037E0000E945B1C61E081E390E00E945B1C81E32E
:1037F00090E00E946B1C813089F561EC73E08EE1F2
:1038000090E00E943D16BC0182E396E00E94EF0F1B
:1038100080E390E00E946B1C8093880266E775E06D
:1038200085E695E00E94021162E376E085E695E088
:103830000E943F1163E675E085E695E00E94021163
:103840006091880270E080E090E04AE00E94AB2145
:1038500085E695E00E943B110C94061D0895EF92B9
:10386000FF920F931F93CF93DF931F92CDB7DEB7D5
:103870007C01FC0100811181C80169830E944337EA
:103880006981681719F0C8010E944B37C7010F9072
:10389000DF91CF911F910F91FF90EF900895CF93FB
:1038A000DF93EC01FB01248135810E94AE10CE0133
:1038B000DF91CF910895CF93DF9300D0CDB7DEB7DE
:1038C0009A838983CE0101960E942F1C0F900F903E
:1038D000DF91CF9108950C944337EF92FF920F93AD
:1038E0001F93CF93DF9300D000D000D0CDB7DEB7C9
:1038F0008C017B0180918302813009F057C062EE18
:1039000077E088E396E00E940211B70188E396E031
:103910000E94F41060EE77E088E396E00E94511177
:1039200064EF71E080E090E00E940314B80188E346
:1039300096E00E94F41064EF71E080E090E00E9455
:103940000314E0913806F09139060190F081E02DE2
:103950006AE188E396E0099564EF71E080E090E029
:103960000E94031469ED77E085E695E00E9402115C
:10397000B701CE0101960E94901064E176E0CE017D
:1039800001960E94B40FB8010E94B40FBC0185E6F5
:1039900095E00E943F11CE0101960E94561068E802
:1039A00073E180E090E00E94031423C068EE73E0AE
:1039B00080E090E00E9403146CEE77E085E695E0ED
:1039C0000E940211B701CE0101960E94901064E19D
:1039D00076E0CE0101960E94B40FB8010E94B40FA8
:1039E000BC0185E695E00E943F11CE0101960E9440
:1039F000561026960FB6F894DEBF0FBECDBFDF91EE
:103A0000CF911F910F91FF90EF90089585E695E07B
:103A10000C943B11DF92EF92FF920F931F93CF9381
:103A2000DF9300D000D000D0CDB7DEB765EA77E0F5
:103A300085E695E00E94511184E0E82E81E0F82EA1
:103A400000E010E0F701838994890E949121F70139
:103A50008389948987960E946B1CD82E0F5F1F4F15
:103A60004AE0B801CE0101960E945B1064E176E065
:103A7000CE0101960E94B40F6FE375E00E949B0F88
:103A800064E176E00E94B40F6D2D0E946A0FBC01C4
:103A900085E695E00E943F11CE0101960E945610E6
:103AA000F5E1EF0EF11C0830110561F60E94061DCC
:103AB00026960FB6F894DEBF0FBECDBFDF91CF9133
:103AC0001F910F91FF90EF90DF900895AF92BF92FA
:103AD000CF92DF92EF92FF920F931F93CF93DF93DA
:103AE000CDB7DEB76E970FB6F894DEBF0FBECDBF71
:103AF0008C016BEC72E0CE0101960E949910BE0120
:103B00006F5F7F4FC8010E94B40E4AE0BC01CE0136
:103B100007960E945B10CE0107960E94AE0DAB0186
:103B20004F5F5F4FB801CE010D960E944F1CCE0132
:103B300007960E945610CE0101960E9456106BE126
:103B400073E0CE0101960E949910BE016F5F7F4F16
:103B5000CE010D960E94BE0E092FCE0101960E9445
:103B600056106DE073E0CE0107960E9499106BE14C
:103B700073E0CE0101960E949910AE01495F5F4F3C
:103B8000BE016F5F7F4FCE010D960E94B90DCE0131
:103B900001960E945610CE0107960E9456106DE0C5
:103BA00073E0CE0107960E94991064EE72E0CE0198
:103BB00001960E949910AE01495F5F4FBE016F5F91
:103BC0007F4FCE010D960E94B90DCE0101960E9445
:103BD0005610CE0107960E9456106DE073E0CE019C
:103BE00007960E9499106CE073E0CE0101960E9446
:103BF0009910AE01495F5F4FBE016F5F7F4FCE01ED
:103C00000D960E94B90DCE0101960E945610CE016C
:103C100007960E94561069E073E0CE0101960E945B
:103C20009910BE016F5F7F4FCE010D960E94BE0EB0
:103C30004AE0BC01CE0143960E945B10CE01439640
:103C40000E94AE0D9B0140E050E0BE01635F7F4FDC
:103C5000CE0107960E94AE10CE0143960E945610E8
:103C6000CE0101960E94561069E073E0CE014396A2
:103C70000E949910BE016D5E7F4FCE010D960E948D
:103C8000B40E4AE0BC01CE0149960E945B10CE0101
:103C900049960E94AE0DAB014F5F5F4FBE01635F5F
:103CA0007F4FCE0101960E944F1CCE0149960E9483
:103CB0005610CE0143960E945610CE0107960E94E0
:103CC000AE0D162FBE016F5F7F4FCE0143960E944F
:103CD00090101150183048F065EC77E085E695E0DB
:103CE0000E9451110E94801745C046E250E069E1F0
:103CF00075E0CE0143960E942722C12ED12C25E1EA
:103D0000129FF0011124EC5FFE4F8389948929E111
:103D1000E22E25E0F22EFC01E951F5405F01C501DC
:103D20008E0D9F1DF70161917F019A8F898FCE01C2
:103D300049960E942F1CFFE3EF16F5E0FF0679F786
:103D4000602F6095661F6627661F85E18C9DF001D8
:103D50008D9DF00D1124EC5FFE4F83899489879629
:103D60000E945B1C62EB77E085E695E00E945111B2
:103D70000E9468170E94061D0E940A1DCE014396EC
:103D80000E945610CE0101960E945610CE01079651
:103D90000E945610CE010D960E9456106E960FB6D8
:103DA000F894DEBF0FBECDBFDF91CF911F910F9171
:103DB000FF90EF90DF90CF90BF90AF9008957F92EB
:103DC0008F929F92AF92BF92CF92DF92EF92FF922B
:103DD0000F931F93CF93DF93C12CD12C7601C39403
:103DE000C0E0BB24B39462E0A62E99249A9475EEA9
:103DF000872EE5EC7E2EDC2DB0920704C0921805CC
:103E000010923D0310923C03809165038111FCCF19
:103E1000A0926503B09264039092630310926203D0
:103E200010926103109260039091600386019601E5
:103E3000220F331F292B2093600390915F03913051
:103E400069F410925F03909160039093BB0090918E
:103E5000BC0093FDF8CF7092BC0002C08092BC0001
:103E6000909165039230E1F3909163039F3F69F075
:103E700080916303803231F080916303803321F0BD
:103E800084E003C082E001C083E010923D03109201
:103E90003C0310920704811134C064E977E085E6A1
:103EA00095E00E94021180E1C816D104E104F104FA
:103EB00030F462E977E085E695E00E94021140E186
:103EC000C701B6010E94AB21D052D830B0F464E1F2
:103ED00076E085E695E00E94F41060E877E085E6FC
:103EE00095E00E94511110938903009388038091FB
:103EF0009A038F5F80939A0302C00E94061DCF5FD2
:103F00001DC08430D9F464E777E085E695E00E942F
:103F10000211E0E1CE16D104E104F10430F462E7CD
:103F200077E085E695E00E94021140E1C701B60105
:103F30000E94AB2185E695E00E943B11FFEFCF1A6E
:103F4000DF0AEF0AFF0A8FE7C816D104E104F10483
:103F500009F051CFC11106C06CE577E085E695E028
:103F60000E94511180919A038823E9F00E940A1D52
:103F700004E011E0C2E9D3E0FC2EE8E0FE0EF80117
:103F80008389948987960E946B1C89930B5E1F4FCF
:103F9000FC12F5CF0E94061DEAE8F3E088E08E0FE0
:103FA00011928E13FDCFDF91CF911F910F91FF9052
:103FB000EF90DF90CF90BF90AF909F908F907F90C9
:103FC000089563E577E088E396E00E94021180910E
:103FD000D603813031F46FE477E088E396E00E9405
:103FE00051118091D6038250823030F46DE477E035
:103FF00088E396E00E94511160ED77E080E090E068
:104000000E94031461E477E085E695E00E94511177
:104010000C946817CF92DF92EF92FF920F931F9349
:10402000CF93DF93CDB7DEB7A4970FB6F894DEBF7A
:104030000FBECDBF8C016BEC72E0CE0101960E94E9
:104040009910BE016F5F7F4FC8010E94B40E4AE015
:10405000BC01CE0142960E945B10CE0142960E94A6
:10406000AE0DAB014F5F5F4FB801CE0148960E9485
:104070004F1CCE0142960E945610CE0101960E941E
:1040800056106DE073E0CE0142960E9499106FEDDC
:1040900072E0CE0101960E949910AE014E5E5F4F14
:1040A000BE016F5F7F4FCE0148960E94B90DCE01D1
:1040B00001960E945610CE0142960E9456106DE065
:1040C00073E0CE0142960E94991064EE72E0CE0138
:1040D00001960E949910AE014E5E5F4FBE016F5F68
:1040E0007F4FCE0148960E94B90DCE0101960E94E5
:1040F0005610CE0142960E9456106DE073E0CE013C
:1041000042960E9499106CE073E0CE0101960E94E5
:104110009910AE014E5E5F4FBE016F5F7F4FCE01C3
:1041200048960E94B90DCE0101960E945610CE010C
:1041300042960E94561069E073E0CE0101960E94FB
:104140009910BE016F5F7F4FCE0148960E94B40E5A
:104150004AE0BC01CE014E960E945B10CE014E9605
:104160000E94AE0DAB014F5F5F4FBE01685E7F4F97
:10417000CE0142960E944F1CCE014E960E945610D0
:10418000CE0101960E945610BE016E5E7F4FCE0199
:104190004E960E94901007ED11E021E08DE0F82E80
:1041A0006E0185E0C80ED11C60EB73E0F8018081E0
:1041B00091812CA30E943D16BC01CE0101960E9464
:1041C0009910BE01625E7F4FCE0101960E94D80E0B
:1041D000E82ECE0101960E9456102CA1EE2099F1F6
:1041E00019821A821B821C82F6018F2D11928A95E8
:1041F000E9F7BE016F5F7F4FF801808191810E94D6
:104200002A17F8018081918160E042960E945B1C30
:10421000F8018081918160E043960E945B1C61E31C
:1042200077E085E695E00E940211BE01625E7F4F55
:1042300085E695E00E943F110E94061D0E943F19ED
:104240000E94681720E00B5E1F4FF2E004391F0741
:1042500009F0AACF213089F469E177E085E695E09D
:104260000E940211BE01625E7F4F85E695E00E94CA
:104270003F110E94061D0E948017CE014E960E949B
:104280005610CE0142960E945610CE0148960E94CA
:104290005610A4960FB6F894DEBF0FBECDBFDF91C7
:1042A000CF911F910F91FF90EF90DF90CF900895E5
:1042B000DC0114962D913C911597232B41F0ED9143
:1042C000FC9181E09081992319F080E0089581E0CC
:1042D0000895E5E6F5E0A089B18982E08C93A48594
:1042E000B5851C92A685B7858FEC8C93108EA4891A
:1042F000B58986E08C93A289B3898C9180618C9377
:10430000A289B3898C9188608C93A289B3898C919E
:1043100080688C930288F389E02D80818F7D808373
:1043200008950F931F93CF93DF93CFE3D5E08C01D4
:104330000F531540C8018C0F9D1F0E94433789936E
:1043400085E0C536D807B1F78FE395E0DF91CF91CF
:104350001F910F9108958F929F92AF92BF920F93EA
:104360001F93CF93DF93CDB7DEB7A1970FB6F89425
:10437000DEBF0FBECDBF19A2423008F44AE08E0165
:104380000F5D1F4F842E912CA12CB12CA5019401FF
:104390000E94C237E62FB901CA0101501109EA3063
:1043A00014F4E05D01C0E95CD801EC93232B242BCD
:1043B000252B61F7B80185E695E00E942611A196AC
:1043C0000FB6F894DEBF0FBECDBFDF91CF911F9126
:1043D0000F91BF90AF909F908F900895CF92DF92F2
:1043E000EF92FF92CF93DF936C01990FEE08FF08D5
:1043F000F7FE1AC0E0916505F09166050190F08125
:10440000E02D6DE285E695E00995EC0166277727BA
:10441000CB016C197D098E099F094AE00E94AB21EE
:104420007C01EC0EFD1E06C04AE0C701B6010E94E9
:10443000AB217C0185E695E00E943B118E0D9F1D0E
:10444000DF91CF91FF90EF90DF90CF9008950F9381
:104450001F93CF93DF93FC01248135812115310512
:1044600019F4FB01108211C0EA0121972C173D07B6
:1044700008F4E9018B01FC0160817181AE01C80182
:104480000E943236C00FD11F1882DF91CF911F9149
:104490000F910895CF93DF93C0912C06D0912D06F4
:1044A000209751F08881882339F0082E000C990B51
:1044B0000E94FF358993F6CFDF91CF910895CF9376
:1044C000DF9300D0CDB7DEB789831A8241E050E098
:1044D000BE016F5F7F4F8CE296E00E943C0F0F9011
:1044E0000F90DF91CF910895CF93DF93CDB7DEB7D3
:1044F000E5970FB6F894DEBF0FBECDBF789484B5B4
:10450000826084BD84B5816084BD85B5826085BDCF
:1045100085B5816085BD80916E00816080936E005D
:10452000109281008091810082608093810080914F
:104530008100816080938100809180008160809300
:1045400080008091B10084608093B1008091B000C0
:1045500081608093B00080917A00846080937A00BB
:1045600080917A00826080937A0080917A008160E5
:1045700080937A0080917A00806880937A0010920C
:10458000C1000E9469211092860310928703109245
:104590003D0310923C031092650381E08093640315
:1045A00010925F0361E082E10E94971361E083E172
:1045B0000E9497138091B9008E7F8093B9008091FB
:1045C000B9008D7F8093B90088E48093B80085E4BA
:1045D0008093BC0063EC70E085E695E00E94511189
:1045E0000E94061D66EB70E085E695E00E94511181
:1045F0001CE064EB70E085E695E00E9402116AEF32
:1046000070E080E090E00E940314115091F70E9446
:10461000061D80E480937C0080917A008064809302
:104620007A0080917A0086FDFCCF609178008091BD
:10463000790070E0782B072E000C880B990B611520
:1046400071058105910511F00E94AE360E94401A55
:104650000E94AF190E94C11B82E690E00E946B1C71
:10466000813009F452C062E870E085E695E00E946E
:1046700051110CE211E06FEFC8010E945B1C6AE06F
:1046800070E080E090E00E9403140F5F1F4F0D3C2C
:1046900021E0120781F768E670E085E695E00E9468
:1046A00051110E94061D04E011E056E1A52E51E0D3
:1046B000B52EF801C388D4887801C01AD10AC60182
:1046C0008E0D9F1DF70161917F019A838983CE0131
:1046D00001960E942F1CEA14FB0489F7F8018389D4
:1046E0009489F701608187960E945B1C0B5E1F4FC7
:1046F0005701F5E1AF0EB11C21E00C3A1207C9F6E3
:1047000061E082E690E00E945B1C0E94DF1E61E097
:104710008AE00E94C71361E08CE00E94C71361E049
:104720008BE00E94C71361E08AE00E94971361E06A
:104730008CE00E94971361E08BE00E94971360E089
:104740008AE00E94971364EF71E080E090E00E949D
:10475000031461E08AE00E94971360E08CE00E94FD
:10476000971364EF71E080E090E00E94031461E031
:104770008CE00E94971360E08BE00E94971364EF37
:1047800071E080E090E00E94031461E08BE00E9401
:10479000971360E086E00E94C71360E08EE00E94FD
:1047A000C71360E087E00E94C71360E08FE00E94BB
:1047B000C71360E080E10E94C71361E084E00E94BB
:1047C000C71360E084E00E94971361E085E00E94D7
:1047D000C71361E085E00E9497130E94CE1765EA37
:1047E00070E085E695E00E9451116AE176E085E689
:1047F00095E00E943F1180918302882339F00E9446
:10480000061D46E6642E43E0742E83C068E970E01E
:1048100085E695E00E94511119E00E946817115039
:10482000E1F7EDCF113009F406C286E00E946E1365
:104830008093E0031091AD01113009F04AC281115B
:104840003EC261E08CE00E9497130E943D14C0902C
:10485000DC03D090DD03E090DE03F090DF039B01EA
:10486000AC012C193D094E095F0969017A0135E651
:10487000C316D104E104F10408F00DC20E943D14F6
:10488000C0909B03D0909C03E0909D03F0909E030A
:10489000AB01BC014C195D096E097F09E0918502ED
:1048A000F091860228EE33E0E29FC001E39F900D75
:1048B000F29F900D1124A0E0B0E084179507A607A1
:1048C000B70708F416C2112309F413C286E00E9448
:1048D0006E138093E003882309F414C28091E003EF
:1048E000813009F447C28091D403813009F455C264
:1048F00088E396E00E943313892B09F09DC285E678
:1049000095E00E945A0C892B11F00C944D320E94B4
:10491000FA0C8091D203813009F05AC08FE00E94D6
:104920006E13182F8093D80380E10E946E1380933A
:1049300002011130A1F480910101811110C0109386
:10494000010164E670E080E090E00E94031410939F
:104950003E031092D5030E945D1710923E03809192
:104960000201811115C080910001811111C011E077
:104970001093000164E670E080E090E00E94031470
:1049800010933E031092D5030E945D1710923E03D0
:104990008091D80381110CC080910101882341F0DE
:1049A0001092010164E670E080E090E00E94031440
:1049B00080910201813061F480910001882341F0EF
:1049C0001092000164E670E080E090E00E94031421
:1049D00080918102813031F48091AD01813009F004
:1049E00056C003C0823009F052C087E00E946E13A7
:1049F0008093D90381111CC080910301811118C0DB
:104A000081E08093030164E670E080E090E00E9422
:104A100003146AEE70E0CE0101960E94871060E0F8
:104A2000CE0101960E946316CE0101960E94561097
:104A30008091D9038130D9F4809103018130B9F498
:104A40001092030164E670E080E090E00E9403149D
:104A500063ED70E0CE0101960E94871060E0CE0108
:104A600001960E946316CE0101960E945610809115
:104A7000D903813061F480910301823041F41092B6
:104A8000030164E670E080E090E00E9403148091EE
:104A90009A03811106C01091D3031111C3CE61E0B6
:104AA000F6C00AE813E082E9C82E83E0D82E94E02D
:104AB000A92E91E0B92EE12CF12C4424439425EE4B
:104AC000322E35EC232E809188039091650391114D
:104AD000FCCF40926503409264033FEF3093630341
:104AE0001092620310926103409260039091600300
:104AF000880F892B8093600380915F03813069F474
:104B000010925F03809160038093BB008091BC0092
:104B100083FDF8CF2092BC0002C03092BC0080918F
:104B200065038130E1F380916203811103C08091BC
:104B3000620301C081E0AFE3B3E0E6E6F3E09E2F5D
:104B40009619981718F49D919193F9CF10928603B6
:104B500080938703882329F082E096E00E944B121D
:104B600001C080E090E00E2C02C0959587950A94D4
:104B7000E2F7482F4170542E4601F60180818413DC
:104B80003AC0F8018081811136C0408264E670E04D
:104B900080E090E00E94031480918202813021F431
:104BA00060E08CE00E949713F501838994890E944C
:104BB00091216EE076E0CE0101960E9490106FE3A5
:104BC00075E0CE0101960E949B0FBC01CE0142967A
:104BD0000E9490108091AD01813029F461E0CE01F6
:104BE00042960E946316CE0142960E945610CE0154
:104BF00001960E945610FFEFCF1ADF0AF401808160
:104C0000851559F0F8018081813039F4108264E60D
:104C100070E080E090E00E940314FFEFEF1AFF0ABB
:104C20000F5F1F4F25E1A20EB11C38E0E316F1041F
:104C300009F049CF30CF0E943D14C090DC03D090E2
:104C4000DD03E090DE03F090DF039B01AC012C1943
:104C50003D094E095F0969017A0135E6C316D104A1
:104C6000E104F10408F4E1CD6093DC037093DD030B
:104C70008093DE039093DF038091DA03811103C0F8
:104C80001093DA0302C01092DA036091DA038BE02A
:104C90000E949713CACD6093DC037093DD03809369
:104CA000DE039093DF038091DB03811103C0109337
:104CB000DB0302C01092DB036091DB0308C081308C
:104CC00009F0DCCD61E08CE00E94971360E08AE09F
:104CD0000DC01111D3CD61E08AE00E94971380913D
:104CE0008202813009F0CACD60E08CE00E94971307
:104CF000C5CD60E084E00E94971361E085E00E94EA
:104D00009713E4CD8091AC018111E8CD81E08093CF
:104D1000AC0164E670E080E090E00E9403148091B2
:104D20008202813021F460E08CE00E9497136EE0F3
:104D300076E0CE0142960E94901065E071E0CE01CF
:104D400042960E940A0FBC01CE0101960E9490106B
:104D50008091AD01813029F461E0CE0101960E947D
:104D60006316CE0101960E945610CE0142960E9413
:104D70005610B4CD8091AC01813009F0B4CD1092C1
:104D8000AC0164E670E080E090E00E94031419E05A
:104D90000E9468171150E1F7A6CD8EE00E946E13B5
:104DA0008093E1038130B1F59091AE01911132C051
:104DB0008093AE0164E670E080E090E00E9403140E
:104DC00080918202813021F460E08CE00E94971390
:104DD0006EE076E0CE0101960E94901062E171E0F3
:104DE000CE0101960E940A0FBC01CE0142960E949C
:104DF00090108091AD01813029F461E0CE0142969E
:104E00000E946316CE0142960E945610CE01019672
:104E10000E9456108091E10381116ACD8091AE010C
:104E2000813009F065CD1092AE0164E670E080E05B
:104E300090E00E9403145CCD88E396E00E94331357
:104E4000892B79F088E396E00E944B138093D70377
:104E50000E945F2264E170E080E090E00E94031411
:104E6000EBCF8091D603823011F412E001C011E043
:104E700062E373E0CE0101960E948710BE016F5F6E
:104E80007F4F8CE296E00E94BE0E7C01CE0101961F
:104E90000E945610F7FE0E94CE176DE273E0CE011D
:104EA00001960E948710BE016F5F7F4F8CE296E0F3
:104EB0000E94BE0E7C01CE0101960E945610F7FCA6
:104EC000D3C06BE273E0CE0142960E948710BE0110
:104ED0006E5E7F4F8CE296E00E94BE0E4AE0BC01FF
:104EE000CE0101960E945B10CE0101960E94AE0D8C
:104EF0006B017C0169EC72E0CE014E960E94991024
:104F0000BE01625E7F4F8CE296E00E94BE0E4AE0D8
:104F1000BC01CE0148960E945B10CE0148960E94CB
:104F2000AE0D960121503109412F50E0460F571F19
:104F30006CE276E0CE0184960E94AE10CE014896D7
:104F40000E945610CE014E960E945610CE01019638
:104F50000E945610CE0142960E9456106EE173E0F8
:104F600085E695E00E940211BE016C5D7F4F85E6EB
:104F700095E00E943F11BE016C5D7F4FCE014296CD
:104F80000E94901060EB73E08091C2019091C30188
:104F90000E943D16BC01CE0101960E949910CE01DF
:104FA00001960E945821182FCE0101960E9456109A
:104FB000112389F141E150E06FE973E0CE0142969F
:104FC0000E9427226FE973E08091C2019091C30192
:104FD0000E942A178091C2019091C30161E042961C
:104FE0000E945B1C8091C2019091C30161E04396D5
:104FF0000E945B1C6EE171E085E695E00E94021163
:10500000BE016E5E7F4F85E695E00E943F110E94D3
:10501000061D0E946817CE0142960E945610BE01DE
:105020006C5D7F4FCE0101960E949010CE010196DB
:105030000E948417182FCE0101960E9456106FE22D
:1050400071E088E396E0113039F40E945111109319
:10505000D5030E945D1702C00E945111CE018496B3
:105060000E9456100C94453268E173E0CE0101961F
:105070000E948710BE016F5F7F4F8CE296E00E9416
:10508000BE0E8C01CE0101960E94561017FF02C081
:105090000C9486316CE276E085E695E00E943F1143
:1050A0008091D6038D7F813009F057C065E173E0B0
:1050B000CE0148960E948710BE01685E7F4F8CE249
:1050C00096E00E94BE0E4AE0BC01CE0142960E94CC
:1050D0005B10CE0142960E94AE0D6B017C0163EC29
:1050E00072E0CE0184960E949910BE016C5D7F4FE4
:1050F0008CE296E00E94BE0E4AE0BC01CE014E96C4
:105100000E945B10CE014E960E94AE0D960121507A
:105110003109AB01485F5F4F6CE276E0CE0101964A
:105120000E94AE10BE016F5F7F4F86E296E00E9444
:105130001D10CE0101960E945610CE014E960E947F
:105140005610CE0184960E945610CE0142960E94BF
:105150005610CE0148960E9456108091D603823098
:1051600009F057C062E173E0CE0148960E948710B3
:10517000BE01685E7F4F8CE296E00E94BE0E4AE060
:10518000BC01CE0142960E945B10CE0142960E9465
:10519000AE0D6B017C0163EC72E0CE0184960E943F
:1051A0009910BE016C5D7F4F8CE296E00E94BE0EAE
:1051B0004AE0BC01CE014E960E945B10CE014E9695
:1051C0000E94AE0D960121503109AB01485F5F4F3F
:1051D0006CE276E0CE0101960E94AE10BE016F5FD8
:1051E0007F4F86E296E00E941D10CE0101960E943C
:1051F0005610CE014E960E945610CE0184960E9403
:105200005610CE0142960E945610CE0148960E943A
:10521000561066E073E085E695E00E94021166E2B2
:1052200076E085E695E00E943F1166E276E0CE01E9
:1052300001960E949010CE0101960E948417182FAB
:10524000CE0101960E945610113011F00C94453297
:1052500066E276E0CE0142960E94901060EB73E029
:105260008091C2019091C3010E943D16BC01CE0104
:1052700001960E949910BE016E5E7F4FCE0101968D
:105280000E94D80E082FCE0101960E945610CE0122
:1052900042960E94561001111093E20381E0809320
:1052A000D5030E944A228091E203813009F0E0C5D3
:1052B0006FED72E0CE0101960E948710BE016F5F14
:1052C0007F4F8CE296E00E94BE0E8C01CE010196CB
:1052D0000E94561017FD0EC06CE276E0CE010196DA
:1052E0000E949010CE0101960E944604CE010196C4
:1052F0000E94561063ED72E0CE0101960E94871065
:10530000BE016F5F7F4F8CE296E00E94BE0E8C0163
:10531000CE0101960E94561017FD0EC06CE276E099
:10532000CE0101960E949010CE0101960E940A20A3
:10533000CE0101960E94561068EC72E0CE010196F3
:105340000E948710BE016F5F7F4F8CE296E00E9443
:10535000BE0E8C01CE0101960E94561017FDD3C0DF
:105360006BEC72E0CE0142960E949910BE016E5E17
:105370007F4F8CE296E00E94B40E4AE0BC01CE0161
:1053800001960E945B10CE0101960E94AE0DAB010A
:105390004F5F5F4F6CE276E0CE0184960E944F1C17
:1053A000CE0101960E945610CE0142960E945610E0
:1053B0006DE073E0CE0101960E9499106CE073E0FD
:1053C000CE0142960E949910AE014F5F5F4FBE0121
:1053D0006E5E7F4FCE0184960E94B90DCE0142963B
:1053E0000E945610CE0101960E9456106DEC72E09C
:1053F000CE0142960E949910BE016E5E7F4FCE0193
:1054000084960E94BE0E4AE0BC01CE0101960E9425
:105410005B10CE0101960E94AE0D9B0140E050E072
:10542000BE016C5D7F4FCE014E960E94AE10CE0144
:1054300001960E945610CE0142960E9456106DECC5
:1054400072E0CE0142960E949910BE016E5E7F4FBF
:105450008CE296E00E94B40E4AE0BC01CE010196B7
:105460000E945B10CE0101960E94AE0DAB014F5F12
:105470005F4F6CE276E0CE0148960E944F1CCE0151
:1054800001960E945610CE0142960E945610CE01FF
:1054900048960E94AE0D162FBE01625E7F4FCE0170
:1054A00001960E94901041E150E061EC73E0CE0162
:1054B00001960E94272261EC73E08EE190E00E9449
:1054C0002A17612F80E390E00E945B1C61E081E37A
:1054D00090E00E945B1C0E94C11B85E695E00E9443
:1054E0003B110E946817CE0101960E945610CE0112
:1054F00048960E945610CE014E960E945610CE013C
:1055000084960E9456106EEB72E0CE0101960E94C6
:105510008710BE016F5F7F4F8CE296E00E94BE0E47
:105520008C01CE0101960E94561017FD87C06BECCE
:1055300072E0CE0142960E949910BE016E5E7F4FCE
:105540008CE296E00E94B40E4AE0BC01CE010196C6
:105550000E945B10CE0101960E94AE0DAB014F5F21
:105560005F4F6CE276E0CE014E960E944F1CCE015A
:1055700001960E945610CE0142960E9456106DE090
:1055800073E0CE0101960E9499106CE073E0CE01A9
:1055900042960E949910AE014F5F5F4FBE016E5E52
:1055A0007F4FCE014E960E94B90DCE0142960E94C9
:1055B0005610CE0101960E945610BE01625E7F4FCA
:1055C000CE0148960E949010CE0148960E94AE0DE2
:1055D000DC01CB010197A109B109CC97A105B10567
:1055E00008F080C7CE0148960E94AE0D162F8FE0BE
:1055F00090E00E945B1C1093870267E371E085E6F0
:1056000095E00E9402118FE090E00E946B1C682FD1
:1056100070E080E090E04AE00E94AB2185E695E0F2
:105620000E943B110E94061D0E946817CE014896F9
:105630000E945610CE014E960E94561061EB72E009
:10564000CE0101960E948710BE016F5F7F4F8CE2F2
:1056500096E00E94BE0E8C01CE0101960E9456106B
:1056600017FD6BC06BEC72E0CE0142960E94991060
:10567000BE016E5E7F4F8CE296E00E94B40E4AE05F
:10568000BC01CE0101960E945B10CE0101960E94E2
:10569000AE0DAB014F5F5F4F6CE276E0CE014E96F0
:1056A0000E944F1CCE0101960E945610CE014296D8
:1056B0000E9456106DE073E0CE0101960E94991091
:1056C0006CE073E0CE0142960E949910AE014F5FEC
:1056D0005F4FBE016E5E7F4FCE014E960E94B90DA8
:1056E000CE0142960E945610CE0101960E9456109D
:1056F000BE01625E7F4FCE0148960E949010CE019F
:1057000048960E94AE0DDC01CB010197A109B109B9
:10571000803C984AA105B10508F006C7CE0148961D
:105720000E94AE0DCB010E94151ACE0148960E9430
:105730005610CE014E960E94561067EA72E0CE01D6
:1057400001960E948710BE016F5F7F4F8CE296E04A
:105750000E94BE0E8C01CE0101960E94561017FDCC
:105760001CC06FEF80E090E00E945B1C0E94401A1A
:1057700068EE73E080E090E00E9403146FEF83E630
:1057800090E00E945B1C0E94AF1968EE73E080E01D
:1057900090E00E9403140E9468176CE972E0CE0149
:1057A00001960E948710BE016F5F7F4F8CE296E0EA
:1057B0000E94BE0E8C01CE0101960E94561017FD6C
:1057C00009C06FEF83E690E00E945B1C0E94AF1956
:1057D0000E94681760E972E0CE0101960E9487106E
:1057E000BE016F5F7F4F8CE296E00E94BE0E8C017F
:1057F000CE0101960E94561017FD09C06FEF80E0A0
:1058000090E00E945B1C0E94401A0E94681769E8A1
:1058100072E0CE0101960E948710BE016F5F7F4F3C
:105820008CE296E00E94BE0E8C01CE0101960E9491
:10583000561017FD3EC068EE73E080E090E00E94D5
:10584000031481E08093840261E08BE090E00E9489
:105850005B1C69E073E0CE0142960E94991060E201
:1058600076E0CE0142960E94B40FBC01CE010196B3
:105870000E94901061E872E0CE0148960E94871065
:10588000BE016F5F7F4FCE0148960E946D1CCE0116
:1058900048960E945610CE0101960E945610CE01E5
:1058A00042960E94561068EE73E080E090E00E94FD
:1058B000031469E772E0CE0101960E948710BE01D1
:1058C0006F5F7F4F8CE296E00E94BE0E8C01CE018E
:1058D00001960E94561017FD3DC068EE73E080E00F
:1058E00090E00E9403141092840260E08BE090E04C
:1058F0000E945B1C69E073E0CE0142960E94991001
:1059000060E276E0CE0142960E94B40FBC01CE0167
:1059100001960E94901060E772E0CE0148960E94C6
:105920008710BE016F5F7F4FCE0148960E946D1CAD
:10593000CE0148960E945610CE0101960E94561044
:10594000CE0142960E94561068EE73E080E090E02F
:105950000E9403146AE672E0CE0101960E9487104D
:10596000BE016F5F7F4F8CE296E00E94BE0E8C01FD
:10597000CE0101960E94561017FD3EC068EE73E0FE
:1059800080E090E00E94031481E08093830261E054
:105990008AE090E00E945B1C69E073E0CE014296D1
:1059A0000E94991060E276E0CE0142960E94B40F08
:1059B000BC01CE0101960E94901063E672E0CE0118
:1059C00048960E948710BE016F5F7F4FCE014896B8
:1059D0000E946D1CCE0148960E945610CE01019681
:1059E0000E945610CE0142960E94561068EE73E057
:1059F00080E090E00E9403146CE572E0CE01019615
:105A00000E948710BE016F5F7F4F8CE296E00E947C
:105A1000BE0E8C01CE0101960E94561017FD3DC0AE
:105A200068EE73E080E090E00E94031469E073E0A8
:105A3000CE0142960E94991060E276E0CE01429635
:105A40000E94B40FBC01CE0101960E94901064E543
:105A500072E0CE0148960E948710BE016F5F7F4FB3
:105A6000CE0148960E946D1CCE0148960E945610A9
:105A7000CE0101960E945610CE0142960E94561009
:105A80001092830260E08AE090E00E945B1C68EE66
:105A900073E080E090E00E9403146EE472E0CE01B7
:105AA00001960E948710BE016F5F7F4F8CE296E0E7
:105AB0000E94BE0E8C01CE0101960E94561017FD69
:105AC0003EC068EE73E080E090E00E94031481E045
:105AD0008093D40361E082E190E00E945B1C69E066
