:100000000C94AF030C94D7030C94D7030C94FE1EEE
:100010000C94FE1E0C94FE1E0C94D7030C94D70374
:100020000C94D7030C94D7030C94D7030C94D703E8
:100030000C94D7030C94D7030C94D7030C94D703D8
:100040000C94861D0C94D7030C94851C0C945F1C97
:100050000C94D7030C94D7030C94D7030C94D703B8
:100060000C94D01D0C94D703506F77657220737574
:1000700070706C7920726573746F726564210050C2
:100080006F77657220737570706C79206469736323
:100090006F6E6E656374656421004D61696E2073D7
:1000A000656E736F7221005049522073656E736FD5
:1000B0007221005072696D6172792070686F6E658F
:1000C0003A202B0041542B43485550005061757322
:1000D0006554696D652069733A20004154440041BC
:1000E000542B435553443D31006C65646F66660084
:1000F0006C65646F6E00746573746F66660074651A
:1001000073746F6E00636C656172736D73002000B1
:100110006F6E2E006F66662E00496E666F3A205035
:1001200049522000696E666F0067756172646F6680
:10013000660067756172646F6E007061757365004B
:100140006D6F6E6579006564697473656E736F7247
:100150000057617463682074686520706F776572FA
:10016000206F6666007761746368706F7765726F81
:1001700066660057617463682074686520706F77E5
:100180006572206F6E007761746368706F77657257
:100190006F6E00504952204F6666007069726F663C
:1001A0006600504952204F6E007069726F6E0053A6
:1001B0006D73204F666600736D736F666600536DD6
:1001C00073204F6E00736D736F6E0052696E6720FF
:1001D0004F66660072696E676F66660052696E6789
:1001E000204F6E0072696E676F6E00726573657482
:1001F000636F6E66696700726573657470686F6EB1
:10020000650066756C6C726573657400616C617213
:100210006D70696E74696D6500736C656570746985
:100220006D650062616C616E63656E756D0064651D
:100230006C65746570686F6E650061646470686F8A
:100240006E65006661696C65642E0070617373652C
:10025000642E005465737420004661696C656420E7
:1002600063656C6C3A20004200454550524F4D3A50
:10027000200043757272656E74204944203D200051
:100280004E6F206D6F64656D2E0053494D383030D0
:100290004C004D3539306500456D756C6174653ABB
:1002A000200050726576696F7573204944203D20A7
:1002B000006C69737473656E736F72006C6973742C
:1002C000636F6E666967006564697473656E736FEA
:1002D00072006932637363616E0064656C65746596
:1002E00070686F6E650061646470686F6E65003D74
:1002F000006D6F64656D6964006D656D7465737420
:100300000066756C6C7265736574007265736574F4
:1003100070686F6E65007265736574636F6E666991
:1003200067006C69737470686F6E6500636C6561FB
:1003300072736D730041542B435553443D30005547
:100340005353442071756572793A20002B435553FD
:10035000443A00534D532066726F6D3A202B002CA7
:1003600022002C2C002B434D543A0052696E67201A
:1003700066726F6D3A202B002C0052494E47002BBD
:1003800050425245414459004C6F61642064656697
:1003900061756C742073656E736F72206461746133
:1003A0002E0044656C6574696E672073656E736FAB
:1003B0007220646174612E0053696C656E74206DE7
:1003C0006F64652100537461727420776F726B697A
:1003D0006E672E0047534D20416C61726D2031379E
:1003E0002E30320000000000250028002B00000005
:1003F000000023002600290004040404040404046B
:1004000002020202020203030303030301020408BF
:10041000102040800102040810200102040810206E
:1004200000000000240027002A000000000800024D
:1004300001000003040700000000000000005068F5
:100440006F6E652061646465642E004572726F7220
:100450002C20746869732070686F6E6520616C72FF
:10046000656164792065786973747320696E20749E
:1004700068652063656C6C3A20004572726F722C5F
:100480002077726F6E67206E756D626572206F6681
:100490002063656C6C732E004572726F722C20663F
:1004A0006972737420726567697374657220612064
:1004B0007072696D6172792070686F6E652E00458B
:1004C00072726F722064656C6574696E6720706803
:1004D0006F6E653A202B0044656C6574652070680A
:1004E0006F6E653A202B00534D532072656D6F7609
:1004F0006564003400302C340041542B434D474494
:100500003D004932432064657669636573206E6FF0
:100510007420666F756E640030004572726F7220D1
:10052000617420307800646574656374656420507C
:100530004346383537340A00300049324320646579
:10054000766963652061742030780053656E736F3F
:100550007220646174613A0053656E736F72206437
:100560006174612073617665642E004572726F72EA
:100570002073656E736F72206E756D6265720053C5
:10058000656E74212000220041542B434D47533D9A
:1005900022004E4F542053656E74212000416C613F
:1005A000726D496E74657276616C2069733A2000D1
:1005B0004C6F61642064656661756C742070686F4F
:1005C0006E6520646174612E0044656C6574696EAB
:1005D000672070686F6E6520646174612E005265DB
:1005E00061642061727261792070686F6E653A0093
:1005F000457874506F77657257617463683A20006C
:1006000050495247756172643A2000416C61726DC5
:10061000496E74657276616C3A200050617573653D
:1006200054696D653A200047756172643A20004C48
:1006300065644F6E3A20004C6564546573744F6E68
:100640003A2000416C61726D52696E673A20005326
:10065000656E64536D733A20005265616420656570
:1006600070726F6D636F6E6669673A004C6F61649C
:100670002064656661756C7420656570726F6D636A
:100680006F6E66696720646174612E0044656C65F5
:1006900074696E6720656570726F6D636F6E6669F1
:1006A0006720646174612E00415445300041542B31
:1006B000434E4D493D322C320041542B435343535A
:1006C0003D2247534D220041542B434D47463D3177
:1006D0000041542B434C49503D31004136005349B1
:1006E0004D383030004D35393000415449004154C7
:1006F000003B004154442B004775617264204F66F3
:1007000066004775617264204F6E004C656E6774B9
:100710006820746F2072657475726E3A20004E7591
:100720006D6265723A20004C6F6164206465666199
:10073000756C742062616C616E63652064617461C4
:100740002E0044656C6574696E672062616C616E31
:10075000636520646174612E00006F2ED030112417
:100760001FBECFEFD8E0DEBFCDBF13E0A0E0B1E009
:10077000E6E6FAE602C005900D92AA33B107D9F772
:1007800026E0AAE3B3E001C01D92A535B207E1F768
:1007900013E0CEEAD3E004C02197FE010E9430317D
:1007A000CD3AD107C9F70E94552F0C9426350C94E9
:1007B00000002F923F924F925F926F927F928F92A2
:1007C0009F92AF92BF92CF92DF92EF92FF920F93E0
:1007D0001F93CF93DF93CDB7DEB7E5970FB6F894AD
:1007E000DEBF0FBECDBF80917D02813009F056C0C3
:1007F00010918402113009F051C087E00E94B71CAB
:1008000080933A0381111BC080910001811117C0B0
:100810001093000164E670E080E090E00E944C1DBF
:100820006FE770E0CE0101960E949A1B60E0CE0156
:1008300001960E94CD28CE0101960E94BE1880919B
:100840003A038130D9F4809100018130B9F41092DB
:10085000000164E670E080E090E00E944C1D68E6D4
:1008600070E0CE0101960E949A1B60E0CE010196D5
:100870000E94CD28CE0101960E94BE1880913A03B5
:10088000813061F480910001823041F410920001C6
:1008900064E670E080E090E00E944C1D80910E06BE
:1008A000811109C0809139068111CFC061E08BE0D0
:1008B0000E94E01CCAC006E016E09EEFC92E95E03B
:1008C000D92E22E0A22E21E0B22EE12CF12C4424DC
:1008D000439435EE332E45EC242E57E8652E54E034
:1008E000752E80910F06909145039111FCCF409297
:1008F0004503409244032FEF2093A7041092C904AC
:100900001092C8044092CA049091CA04880F892B9F
:100910008093CA0480914303813069F410924303A9
:100920008091CA048093BB008091BC0083FDF8CF06
:100930002092BC0002C03092BC00809145038130FF
:10094000E1F38091C904811103C08091C90401C001
:1009500081E0A8EAB4E0E7E8F4E09E2F9619981742
:1009600018F49D919193F9CF109249038093480315
:10097000882329F08DE094E00E944B1A01C080E0AA
:1009800090E00E2C02C0959587950A94E2F7E82F27
:10099000E1705E2E4601F6018081851136C0F801B6
:1009A0008081811132C0408264E670E080E090E096
:1009B0000E944C1D80918102813021F460E08CE026
:1009C0000E94E01CF501838994890E94BB1469E1AF
:1009D00074E0CE0101960E94D21B6AE473E0CE015E
:1009E00001960E94FD17BC01CE0142960E94D21BC7
:1009F00061E0CE0142960E94CD28CE0142960E942F
:100A0000BE18CE0101960E94BE18FFEFCF1ADF0A72
:100A1000F4018081851559F0F8018081813039F425
:100A2000108264E670E080E090E00E944C1DFFEFD1
:100A3000EF1AFF0A0F5F1F4F25E1A20EB11C88E0DD
:100A4000E816F10409F04DCF2DCF809139068130A1
:100A5000B1F59FB7F8944091CB045091CC046091CC
:100A6000CD047091CE049FBF00913C0310913D03D3
:100A700020913E0330913F036A017B01C01AD10AE5
:100A8000E20AF30A970186010536110521053105B1
:100A9000B0F040933C0350933D0360933E0370934A
:100AA0003F0390913B03911103C080933B0302C02D
:100AB00010923B0360913B038BE00E94E01C80910D
:100AC0008402813041F461E08CE00E94E01C60E02F
:100AD0008AE00E94E01C8091840281110CC061E0D8
:100AE0008AE00E94E01C80918102813021F460E064
:100AF0008CE00E94E01C8FB7F8944091CB04509199
:100B0000CC046091CD047091CE048FBF80913B06E0
:100B100090913C06A0913D06B0913E06481B590BB2
:100B20006A0B7B0BE0917E02F0917F0228EE33E0AE
:100B3000E29FC001E39F900DF29F900D1124A0E071
:100B4000B0E084179507A607B70720F080918402CC
:100B5000811108C060E084E00E94E01C61E085E053
:100B60000E94E01C86E00E94B71C80934003811124
:100B700033C08091830281112FC081E08093830272
:100B800064E670E080E090E00E944C1D809181025C
:100B9000813021F460E08CE00E94E01C69E174E0A7
:100BA000CE0142960E94D21B6AE970E0CE014296C5
:100BB0000E949A17BC01CE0101960E94D21B61E0EF
:100BC000CE0101960E94CD28CE0101960E94BE184A
:100BD000CE0142960E94BE1880914003813031F0D0
:100BE00080913806813009F05CC012C08091830288
:100BF0008130B1F71092830264E670E080E090E00B
:100C00000E944C1D19E00E94A2291150E1F7E8CF83
:100C10008EE00E94B71C80934103813091F5909142
:100C2000010191112EC08093010164E670E080E023
:100C300090E00E944C1D80918102813021F460E09F
:100C40008CE00E94E01C69E174E0CE0101960E94F4
:100C5000D21B67EA70E0CE0101960E949A17BC0190
:100C6000CE0142960E94D21B61E0CE0142960E94C4
:100C7000CD28CE0142960E94BE18CE0101960E9458
:100C8000BE188091410381110CC080910101813017
:100C900041F41092010164E670E080E090E00E946F
:100CA0004C1D83E494E00E94331B892B11F40C94B7
:100CB000121183E494E00E94331B892B79F083E4C2
:100CC00094E00E944B1B80933A060E94731764E1E4
:100CD00070E080E090E00E944C1DEBCF8091FD051C
:100CE000823011F412E001C011E06FE773E0CE0131
:100CF00001960E949A1BBE016F5F7F4F87E394E0CD
:100D00000E9499167C01CE0101960E94BE18F7FE42
:100D10000E94082A6AE773E0CE0101960E949A1B9E
:100D2000BE016F5F7F4F87E394E00E9499167C01BC
:100D3000CE0101960E94BE18F7FCDCC068E773E0A4
:100D4000CE014E960E949A1BBE01625E7F4F87E3E2
:100D500094E00E9499164AE0BC01CE0184960E945C
:100D60006E1BCE0184960E9489156B017C0167EC95
:100D700072E0CE0101960E94DB1BBE016F5F7F4FC8
:100D800087E394E00E9499164AE0BC01CE014896A0
:100D90000E946E1BCE0148960E9489159601215033
:100DA0003109412F50E0460F571F67E374E0CE0131
:100DB00042960E946118CE0148960E94BE18CE014C
:100DC00001960E94BE18CE0184960E94BE18CE01E4
:100DD0004E960E94BE186BE673E080E793E00E9497
:100DE000FE1BBE016E5E7F4F80E793E00E943B1CBE
:100DF000BE016E5E7F4FCE0148960E94D21B6CEE04
:100E000075E08091BE019091BF010E947A1FBC01E4
:100E1000CE0101960E94DB1BCE0101960E94821436
:100E2000182FCE0101960E94BE18112389F141E1CD
:100E300050E06BED75E0CE0148960E9451156BEDC8
:100E400075E08091BE019091BF010E94A01F80912A
:100E5000BE019091BF0161E042960E94D31F809134
:100E6000BE019091BF0161E043960E94D31F63EBE6
:100E700070E080E793E00E94FE1BBE01685E7F4F3A
:100E800080E793E00E943B1C0E947E200E94A229E2
:100E9000CE0148960E94BE18BE016E5E7F4FCE0105
:100EA00001960E94D21BCE0101960E94BE29182FE6
:100EB000CE0101960E94BE1864EC70E083E494E0D9
:100EC000113081F40E944D1C10933F0680918402E2
:100ED000813019F40E94DD2707C0811105C00E94EE
:100EE000EA2602C00E944D1CCE0142960E94BE1806
:100EF0000C940C1165E673E0CE0101960E949A1BDA
:100F0000BE016F5F7F4F87E394E00E9499168C01CA
:100F1000CE0101960E94BE1817FF02C00C944D101E
:100F200067E374E080E793E00E943B1C8091FD053D
:100F30008D7F813009F057C062E673E0CE0148969C
:100F40000E949A1BBE01685E7F4F87E394E00E9477
:100F500099164AE0BC01CE014E960E946E1BCE014E
:100F60004E960E9489156B017C0161EC72E0CE0106
:100F700001960E94DB1BBE016F5F7F4F87E394E009
:100F80000E9499164AE0BC01CE0142960E946E1B57
:100F9000CE0142960E948915960121503109AB017C
:100FA000485F5F4F67E374E0CE0184960E9461184A
:100FB000BE016C5D7F4F81E394E00E94E516CE0197
:100FC00084960E94BE18CE0142960E94BE18CE01A1
:100FD00001960E94BE18CE014E960E94BE18CE0108
:100FE00048960E94BE188091FD05823009F057C0D6
:100FF0006FE573E0CE0148960E949A1BBE01685EC1
:101000007F4F87E394E00E9499164AE0BC01CE012D
:101010004E960E946E1BCE014E960E9489156B0162
:101020007C0161EC72E0CE0101960E94DB1BBE01E7
:101030006F5F7F4F87E394E00E9499164AE0BC01FE
:10104000CE0142960E946E1BCE0142960E948915E7
:10105000960121503109AB01485F5F4F67E374E0AF
:10106000CE0184960E946118BE016C5D7F4F81E3C2
:1010700094E00E94E516CE0184960E94BE18CE012F
:1010800042960E94BE18CE0101960E94BE18CE0163
:101090004E960E94BE18CE0148960E94BE1863E587
:1010A00073E080E793E00E94FE1B61E374E080E759
:1010B00093E00E943B1C61E374E0CE0101960E9424
:1010C000D21BCE0101960E94BE29182FCE01019697
:1010D0000E94BE18113011F00C940C1161E374E001
:1010E000CE0142960E94D21B6CEE75E08091BE014B
:1010F0009091BF010E947A1FBC01CE0101960E940F
:10110000DB1BBE016E5E7F4FCE0101960E94B316BF
:10111000082FCE0101960E94BE18CE0142960E9471
:10112000BE1801111093420381E080933F060E9494
:10113000741580914203813009F061C56AE372E061
:10114000CE0101960E949A1BBE016F5F7F4F87E31D
:1011500094E00E9499168C01CE0101960E94BE185F
:1011600017FD0EC067E374E0CE0101960E94D21B0A
:10117000CE0101960E94D024CE0101960E94BE1895
:101180006EE272E0CE0101960E949A1BBE016F5F73
:101190007F4F87E394E00E9499168C01CE0101965F
:1011A0000E94BE1817FD0EC067E374E0CE010196E1
:1011B0000E94D21BCE0101960E948223CE0101968D
:1011C0000E94BE1863E272E0CE0101960E949A1B53
:1011D000BE016F5F7F4F87E394E00E9499168C01F8
:1011E000CE0101960E94BE1817FDD3C069EC72E0D3
:1011F000CE0142960E94DB1BBE016E5E7F4F87E3ED
:1012000094E00E948F164AE0BC01CE0101960E9434
:101210006E1BCE0101960E948915AB014F5F5F4F97
:1012200067E374E0CE0184960E94632ECE0101969E
:101230000E94BE18CE0142960E94BE186FEF72E067
:10124000CE0101960E94DB1B6EEF72E0CE0142964A
:101250000E94DB1BAE014F5F5F4FBE016E5E7F4F92
:10126000CE0184960E949415CE0142960E94BE182B
:10127000CE0101960E94BE186BEC72E0CE01429640
:101280000E94DB1BBE016E5E7F4FCE0184960E94E2
:1012900099164AE0BC01CE0101960E946E1BCE0158
:1012A00001960E9489159B0140E050E0BE016C5DF3
:1012B0007F4FCE014E960E946118CE0101960E948A
:1012C000BE18CE0142960E94BE186BEC72E0CE01B1
:1012D00042960E94DB1BBE016E5E7F4F87E394E067
:1012E0000E948F164AE0BC01CE0101960E946E1B3F
:1012F000CE0101960E948915AB014F5F5F4F67E3F6
:1013000074E0CE0148960E94632ECE0101960E94A1
:10131000BE18CE0142960E94BE18CE0148960E9489
:101320008915162FBE01625E7F4FCE0101960E9485
:10133000D21B41E150E060E476E0CE0101960E94CC
:10134000511560E476E08EE190E00E94A01F612FCD
:1013500080E390E00E94D31F61E081E390E00E946F
:10136000D31F0E94D52D80E793E00E94371C0E9476
:10137000A229CE0101960E94BE18CE0148960E9475
:10138000BE18CE014E960E94BE18CE0184960E94D1
:10139000BE1869E172E0CE0101960E949A1BBE015F
:1013A0006F5F7F4F87E394E00E9499168C01CE0116
:1013B00001960E94BE1817FD88C069EC72E0CE014C
:1013C00042960E94DB1BBE016E5E7F4F87E394E076
:1013D0000E948F164AE0BC01CE0101960E946E1B4E
:1013E000CE0101960E948915AB014F5F5F4F67E305
:1013F00074E0CE014E960E94632ECE0101960E94AB
:10140000BE18CE0142960E94BE186FEF72E0CE0168
:1014100001960E94DB1B6EEF72E0CE0142960E94A5
:10142000DB1BAE014F5F5F4FBE016E5E7F4FCE0193
:101430004E960E949415CE0142960E94BE18CE018F
:1014400001960E94BE18BE01625E7F4FCE01489693
:101450000E94D21BCE0148960E948915DC01CB0167
:101460000197A109B109CC97A105B10510F00C9421
:10147000B913CE0148960E948915162F8FE090E08F
:101480000E94D31F109380026CEC70E080E793E021
:101490000E94FE1B8FE090E00E94E31F682F70E027
:1014A00080E090E04AE00E94D51480E793E00E943B
:1014B000371C0E947E200E94A229CE0148960E94DD
:1014C000BE18CE014E960E94BE186CE072E0CE01AE
:1014D00001960E949A1BBE016F5F7F4F87E394E0E5
:1014E0000E9499168C01CE0101960E94BE1817FD2C
:1014F0006CC069EC72E0CE0142960E94DB1BBE011B
:101500006E5E7F4F87E394E00E948F164AE0BC0135
:10151000CE0101960E946E1BCE0101960E94891594
:10152000AB014F5F5F4F67E374E0CE014E960E94C0
:10153000632ECE0101960E94BE18CE0142960E94F3
:10154000BE186FEF72E0CE0101960E94DB1B6EEFBA
:1015500072E0CE0142960E94DB1BAE014F5F5F4FEF
:10156000BE016E5E7F4FCE014E960E949415CE0155
:1015700042960E94BE18CE0101960E94BE18BE017E
:10158000625E7F4FCE0148960E94D21BCE014896E4
:101590000E948915DC01CB010197A109B109803CAA
:1015A000984AA105B10510F00C94DC13CE014896C1
:1015B0000E948915CB010E944F2CCE0148960E94B3
:1015C000BE18CE014E960E94BE1862E072E0CE01B7
:1015D00001960E949A1BBE016F5F7F4F87E394E0E4
:1015E0000E9499168C01CE0101960E94BE1817FD2B
:1015F0001CC06FEF80E090E00E94D31F0E947A2C05
:1016000068EE73E080E090E00E944C1D6FEF83E68F
:1016100090E00E94D31F0E94E92B68EE73E080E007
:1016200090E00E944C1D0E94A22967EF71E0CE015C
:1016300001960E949A1BBE016F5F7F4F87E394E083
:101640000E9499168C01CE0101960E94BE1817FDCA
:1016500009C06FEF83E690E00E94D31F0E94E92B40
:101660000E94A2296BEE71E0CE0101960E949A1BA6
:10167000BE016F5F7F4F87E394E00E9499168C0153
:10168000CE0101960E94BE1817FD09C06FEF80E0E1
:1016900090E00E94D31F0E947A2C0E94A22964EE3F
:1016A00071E0CE0101960E949A1BBE016F5F7F4FD1
:1016B00087E394E00E9499168C01CE0101960E9466
:1016C000BE1817FD3EC068EE73E080E090E00E9417
:1016D0004C1D81E08093820261E08BE090E00E94EB
:1016E000D31F61E373E0CE0142960E94DB1B6BE2E5
:1016F00074E0CE0142960E941618BC01CE010196FC
:101700000E94D21B6CED71E0CE0148960E949A1B9C
:10171000BE016F5F7F4FCE0148960E94E51FCE014C
:1017200048960E94BE18CE0101960E94BE18CE01B6
:1017300042960E94BE1868EE73E080E090E00E943E
:101740004C1D64ED71E0CE0101960E949A1BBE0112
:101750006F5F7F4F87E394E00E9499168C01CE0162
:1017600001960E94BE1817FD3DC068EE73E080E050
:1017700090E00E944C1D1092820260E08BE090E0AD
:101780000E94D31F61E373E0CE0142960E94DB1BEF
:101790006BE274E0CE0142960E941618BC01CE01A5
:1017A00001960E94D21B6BEC71E0CE0148960E941C
:1017B0009A1BBE016F5F7F4FCE0148960E94E51FC6
:1017C000CE0148960E94BE18CE0101960E94BE1816
:1017D000CE0142960E94BE1868EE73E080E090E071
:1017E0000E944C1D65EC71E0CE0101960E949A1B8F
:1017F000BE016F5F7F4F87E394E00E9499168C01D2
:10180000CE0101960E94BE1817FD3EC068EE73E03F
:1018100080E090E00E944C1D81E08093AA0161E08D
:101820008AE090E00E94D31F61E373E0CE0142960C
:101830000E94DB1B6BE274E0CE0142960E941618F8
:10184000BC01CE0101960E94D21B6EEB71E0CE016D
:1018500048960E949A1BBE016F5F7F4FCE0148964B
:101860000E94E51FCE0148960E94BE18CE01019647
:101870000E94BE18CE0142960E94BE1868EE73E028
:1018800080E090E00E944C1D67EB71E0CE01019674
:101890000E949A1BBE016F5F7F4F87E394E00E9416
:1018A00099168C01CE0101960E94BE1817FD3DC00D
:1018B00068EE73E080E090E00E944C1D61E373E00D
:1018C000CE0142960E94DB1B6BE274E0CE01429691
:1018D0000E941618BC01CE0101960E94D21B6FEA2D
:1018E00071E0CE0148960E949A1BBE016F5F7F4F48
:1018F000CE0148960E94E51FCE0148960E94BE1870
:10190000CE0101960E94BE18CE0142960E94BE18DA
:101910001092AA0160E08AE090E00E94D31F68EE76
:1019200073E080E090E00E944C1D69EA71E0CE0116
:1019300001960E949A1BBE016F5F7F4F87E394E080
:101940000E9499168C01CE0101960E94BE1817FDC7
:101950003EC068EE73E080E090E00E944C1D81E0A4
:101960008093380661E082E190E00E94D31F61E33A
:1019700073E0CE0142960E94DB1B6BE274E0CE0165
:1019800042960E941618BC01CE0101960E94D21BFD
:1019900062EA71E0CE0148960E949A1BBE016F5F19
:1019A0007F4FCE0148960E94E51FCE0148960E94C7
:1019B000BE18CE0101960E94BE18CE0142960E942A
:1019C000BE1868EE73E080E090E00E944C1D6BE969
:1019D00071E0CE0101960E949A1BBE016F5F7F4F9E
:1019E00087E394E00E9499168C01CE0101960E9433
:1019F000BE1817FD3DC068EE73E080E090E00E94E5
:101A00004C1D1092380660E082E190E00E94D31FE6
:101A100061E373E0CE0142960E94DB1B6BE274E04F
:101A2000CE0142960E941618BC01CE0101960E947A
:101A3000D21B63E971E0CE0148960E949A1BBE0159
:101A40006F5F7F4FCE0148960E94E51FCE014896FA
:101A50000E94BE18CE0101960E94BE18CE01429689
:101A60000E94BE1868EE73E080E090E00E944C1D7A
:101A700066E871E0CE0101960E949A1BBE016F5F7D
:101A80007F4F87E394E00E9499168C01CE01019666
:101A90000E94BE1817FD3EC068EE73E080E090E043
:101AA0000E944C1D81E080937D0261E083E190E023
:101AB0000E94D31F61E373E0CE0142960E94DB1BBC
:101AC0006BE274E0CE0142960E941618BC01CE0172
:101AD00001960E94D21B63E771E0CE0148960E94F6
:101AE0009A1BBE016F5F7F4FCE0148960E94E51F93
:101AF000CE0148960E94BE18CE0101960E94BE18E3
:101B0000CE0142960E94BE1868EE73E080E090E03D
:101B10000E944C1D65E671E0CE0101960E949A1B61
:101B2000BE016F5F7F4F87E394E00E9499168C019E
:101B3000CE0101960E94BE1817FD3DC068EE73E00D
:101B400080E090E00E944C1D10927D0260E083E1F5
:101B500090E00E94D31F61E373E0CE0142960E94A1
:101B6000DB1B6BE274E0CE0142960E941618BC01AA
:101B7000CE0101960E94D21B61E571E0CE0148962C
:101B80000E949A1BBE016F5F7F4FCE0148960E9454
:101B9000E51FCE0148960E94BE18CE0101960E9414
:101BA000BE18CE0142960E94BE1868EE73E080E037
:101BB00090E00E944C1D66E471E0CE0101960E9407
:101BC0009A1BBE016F5F7F4F87E394E00E949916D6
:101BD0008C01CE0101960E94BE1817FD0EC067E36E
:101BE00074E0CE0101960E94D21BCE0101960E94A4
:101BF000DE20CE0101960E94BE181092420360E4DE
:101C000071E0CE0101960E949A1BBE016F5F7F4F6B
:101C100087E394E00E9499168C01CE0101960E9400
:101C2000BE1817FD2AC068EE73E080E090E00E94C5
:101C30004C1D6FED70E083E494E00E944D1C68EC55
:101C400070E080E090E00E944C1D6BED70E083E45A
:101C500094E00E94FE1B6DE374E083E494E00E9434
:101C60003B1C68EC70E080E090E00E944C1D68EE48
:101C700073E080E090E00E944C1D6AE371E0CE01C9
:101C800001960E949A1BBE016F5F7F4F87E394E02D
:101C90000E9499168C01CE0101960E94BE1817FD74
:101CA0006FC068EE73E080E090E00E944C1D61E33D
:101CB00073E0CE0148960E94DB1B6BE274E0CE011C
:101CC00048960E941618BC01CE0142960E94D21B73
:101CD000809180021F8E1E8E19A218A21BA21AA22A
:101CE0004AE0BE016F5F7F4F90E00E944C34BE011E
:101CF0006F5F7F4FCE014E960E944A186DEC72E0E6
:101D0000CE0184960E94DB1BBE01625E7F4FCE0136
:101D100084960E94161864ED72E00E94FD17BC01C3
:101D2000CE0101960E94D21BBE016E5E7F4FCE0196
:101D300001960E94E51FCE0101960E94BE18CE01B9
:101D400084960E94BE18CE014E960E94BE18CE0107
:101D500042960E94BE18CE0148960E94BE1860E0CE
:101D60008BE00E94E01C2091800230E0A0E6BAEEF9
:101D70000E9417350E944C1D61E08BE00E94E01C20
:101D800062E371E0CE0101960E949A1BBE016F5F73
:101D90007F4F87E394E00E9499168C01CE01019653
:101DA0000E94BE1817FD08C068EE73E080E090E066
:101DB0000E944C1D0E94EA2669E271E0CE01019664
:101DC0000E949A1BBE016F5F7F4F87E394E00E94E1
:101DD00099168C01CE0101960E94BE1817FD08C00D
:101DE00068EE73E080E090E00E944C1D0E94DD27C9
:101DF00064E271E0CE0101960E949A1BBE016F5F02
:101E00007F4F87E394E00E9499168C01CE010196E2
:101E10000E94BE1817FD7CC069E171E0CE014E96AC
:101E20000E949A1B80913806BE01625E7F4F81112D
:101E300007C0CE0101960E94D21B64E171E006C08A
:101E4000CE0101960E94D21B60E171E0CE010196A5
:101E50000E949A17BC01CE014E960E94A718CE018F
:101E600001960E94BE18BE01625E7F4FCE010196B0
:101E70000E94D21B6EE071E0CE0101960E949A177B
:101E800065E274E00E941618BC01CE014E960E94D5
:101E9000A718CE0101960E94BE1868EE73E080E09C
:101EA00090E00E944C1D61E373E0CE0142960E94D7
:101EB000DB1B6BE274E0CE0142960E941618BC0157
:101EC000CE0101960E94D21BBE01625E7F4FCE0101
:101ED00048960E94D21BBE016F5F7F4FCE0148968D
:101EE0000E94E51FCE0148960E94BE18CE010196C1
:101EF0000E94BE18CE0142960E94BE1868EE73E0A2
:101F000080E090E00E944C1DCE014E960E94BE18CB
:101F100065E071E0CE0101960E949A1BBE016F5FE1
:101F20007F4F87E394E00E9499168C01CE010196C1
:101F30000E94BE1817FD08C00E94592368EE73E086
:101F400080E090E00E944C1D6EEF70E0CE010196A3
:101F50000E949A1BBE016F5F7F4F87E394E00E944F
:101F600099168C01CE0101960E94BE1817FD14C06F
:101F700068EE73E080E090E00E944C1D81E0809369
:101F8000390661E08CE090E00E94D31F68EE73E0B8
:101F900080E090E00E944C1D66EF70E0CE0101965B
:101FA0000E949A1BBE016F5F7F4F87E394E00E94FF
:101FB00099168C01CE0101960E94BE1817FD17C01C
:101FC00068EE73E080E090E00E944C1D10923906AC
:101FD00060E08CE090E00E94D31F61E08BE00E9403
:101FE000E01C68EE73E080E090E00E944C1D60EF22
:101FF00070E0CE0101960E949A1BBE016F5F7F4F79
:1020000087E394E00E9499168C01CE0101960E940C
:10201000BE1817FD18C068EE73E080E090E00E94E3
:102020004C1D81E08093810261E08DE090E00E9490
:10203000D31F60E08CE00E94E01C68EE73E080E05B
:1020400090E00E944C1D69EE70E0CE0101960E9466
:102050009A1BBE016F5F7F4F87E394E00E94991641
:102060008C01CE0101960E94BE1817FDD5C068EE06
:1020700073E080E090E00E944C1D1092810260E0CD
:102080008DE090E00E94D31F61E08CE00E94E01C94
:1020900068EE73E080E090E0B6C06CE473E0CE01DF
:1020A00001960E949A1BBE016F5F7F4F87E394E009
:1020B0000E9499168C01CE0101960E94BE1817FD50
:1020C000A5C06FE373E080E793E00E94FE1B67E327
:1020D00074E080E793E00E943B1C67EC72E0CE0165
:1020E00001960E94DB1BBE016F5F7F4F87E394E088
:1020F0000E9499168C01CE0101960E94BE1817FD10
:1021000078C061E373E0CE018A960E94DB1B6BE22C
:1021100074E0CE018A960E941618BC01CE01C096CA
:102120000E94D21B67EC72E0CE0148960E94DB1B36
:10213000BE01685E7F4F87E394E00E9499164AE0F3
:10214000BC01CE014E960E946E1BCE014E960E949F
:1021500089152091850230E08901060F171F67EC71
:1021600072E0CE0101960E94DB1BBE016F5F7F4FC4
:1021700087E394E00E9499164AE0BC01CE014296A2
:102180000E946E1BCE0142960E948915AB014F5FE3
:102190005F4F980167E374E0CE0184960E94611856
:1021A000BE01605D7F4FCE0184960E94E51FCE0187
:1021B00084960E94BE18CE0142960E94BE18CE019F
:1021C00001960E94BE18CE014E960E94BE18CE0106
:1021D00048960E94BE18CE01C0960E94BE18CE013D
:1021E0008A960E94BE1868EE73E080E090E00E943C
:1021F0004C1D65E373E083E494E00E944D1C68ECA1
:1022000070E080E090E00E944C1D06C067E374E03F
:1022100080E793E00E943B1C6FEF72E087E394E05D
:102220000E944A1880E793E00E941119892B09F453
:1022300000C380E793E00E941119892B79F080E7B1
:1022400093E00E94EF1880933A060E94731764E1AE
:1022500070E080E090E00E944C1DEBCF67E374E0FB
:1022600083E494E00E943B1C0E9474156CE273E0CE
:10227000CE0101960E949A1BBE016F5F7F4F87E3DC
:1022800094E00E9499168C01CE0101960E94BE181E
:1022900017FD08C00E94592360ED77E080E090E0D0
:1022A0000E944C1D62E273E0CE0101960E949A1BCF
:1022B000BE016F5F7F4F87E394E00E9499168C0107
:1022C000CE0101960E94BE1817FF0E94792B66E18D
:1022D00073E0CE0101960E949A1BBE016F5F7F4F93
:1022E00087E394E00E9499168C01CE0101960E942A
:1022F000BE1817FD07C06FEF80E090E00E94D31F6B
:102300000E947A2C6BE073E0CE0101960E949A1B2A
:10231000BE016F5F7F4F87E394E00E9499168C01A6
:10232000CE0101960E94BE1817FD07C06FEF83E62D
:1023300090E00E94D31F0E94E92B61E073E0CE0180
:1023400001960E949A1BBE016F5F7F4F87E394E066
:102350000E9499168C01CE0101960E94BE1817FDAD
:1023600027C06FEF80E090E00E94D31F0E947A2C7C
:1023700068EE73E080E090E00E944C1D6FEF83E612
:1023800090E00E94D31F0E94E92B68EE73E080E08A
:1023900090E00E944C1D6FEF81E390E00E94D31FFC
:1023A0000E94D52D68EE73E080E090E00E944C1D05
:1023B00069EF72E0CE0101960E949A1BBE016F5F29
:1023C0007F4F87E394E00E9499168C01CE0101961D
:1023D0000E94BE1817FD93C00E94DC332DEF30E041
:1023E00040E050E00E948C3482E0F82EF60E69E660
:1023F00072E080E793E00E94FE1B4AE060E074E038
:1024000080E090E00E94D51467E672E080E793E0F8
:102410000E944D1C00E010E06F2DC8010E947E3428
:1024200065E070E080E090E00E944C1D0F5F1F4F60
:10243000011584E0180781F7C12CD12C00E010E0D1
:10244000C8010E94E31F8F15F1F169E572E080E792
:1024500093E00E94FE1BC8010E94E31FE82E1B8A26
:102460001A8A1D8A1C8A1F8A1E8A4AE0BE016F5F73
:102470007F4FC8010E944C34BE016F5F7F4FCE0179
:1024800042960E944A18BE016E5E7F4FCE010196B1
:102490000E94D21B6FE174E0CE0101960E941618D3
:1024A0006E2D0E94CC17BC0180E793E00E943B1C7C
:1024B000CE0101960E94BE18CE0142960E94BE181F
:1024C0009FEFC91AD90A65E070E080E090E00E94B1
:1024D0004C1D0F5F1F4F0115E4E01E0709F0B0CF40
:1024E00063E572E080E793E00E94FE1BCD2809F0CF
:1024F00087C16BE472E080E793E00E944D1C61EFBE
:1025000072E0CE0101960E949A1BBE016F5F7F4F61
:1025100087E394E00E9499168C01CE0101960E94F7
:10252000BE1817FD77C06FEE72E0CE0142960E9492
:102530009A1BBE016E5E7F4F87E394E00E948F1668
:102540004AE0BC01CE0101960E946E1BCE010196AD
:102550000E948915AB014F5F5F4F67E374E0CE01C6
:1025600048960E94632ECE0101960E94BE18CE01AD
:1025700042960E94BE18CE0148960E948915DC0141
:10258000CB010197A109B1090A97A105B10508F08E
:102590003AC1CE0148960E948915162F62EA72E070
:1025A00080E793E00E94FE1B8091FD05082E000C41
:1025B000990B0E94181568E972E080E793E00E9489
:1025C000FE1B113029F41093FD0562E972E00BC087
:1025D000123029F41093FD056AE872E004C01092ED
:1025E000FD0560E872E080E793E00E944D1C62E721
:1025F00072E080E793E00E94FE1B8091FD05082EAB
:10260000000C990B0E9418150E947E20CE0148965E
:102610000E94BE1866EE72E0CE0101960E949A1BDF
:10262000BE016F5F7F4F87E394E00E9499168C0193
:10263000CE0101960E94BE1817FD0EC067E374E03C
:10264000CE0101960E94D21BCE0101960E94D02499
:10265000CE0101960E94BE186AED72E0CE0101968D
:102660000E949A1BBE016F5F7F4F87E394E00E9438
:1026700099168C01CE0101960E94BE1817FD0EC05E
:1026800067E374E0CE0101960E94D21BCE01019651
:102690000E948223CE0101960E94BE1862ED72E074
:1026A000CE0101960E949A1BBE016F5F7F4F87E3A8
:1026B00094E00E9499168C01CE0101960E94BE18EA
:1026C00017FF0E94572267EC72E0CE0101960E942C
:1026D0009A1BBE016F5F7F4F87E394E00E949916BB
:1026E0008C01CE0101960E94BE1817FD0EC067E353
:1026F00074E0CE0101960E94D21BCE0101960E9489
:10270000DE20CE0101960E94BE186CEB72E0CE0175
:1027100001960E949A1BBE016F5F7F4F87E394E092
:102720000E9499168C01CE0101960E94BE1817FDD9
:1027300004C00E947A2C0E94D52D61EB72E0CE017C
:1027400001960E949A1BBE016F5F7F4F87E394E062
:102750000E9499168C01CE0101960E94BE1817FFA7
:102760000E9482206FEF72E087E394E00E944A1893
:1027700060C0809180021B8A1A8A1D8A1C8A1F8A67
:102780001E8A4AE0BE016F5F7F4F90E00E944C348A
:10279000BE016F5F7F4FCE0142960E944A18BE0174
:1027A0006E5E7F4FCE0148960E94E516CE0142969E
:1027B0000E94BE180C94390A80917E0290917F028B
:1027C0001B8A1A8A1D8A1C8A1F8A1E8A4AE0BE0139
:1027D0006F5F7F4F0E944C34BE016F5F7F4FCE0111
:1027E00042960E944A18BE016E5E7F4FCE01489607
:1027F0000E94E516CE0142960E94BE180C94D60A9D
:1028000063E472E078CE6091FD05062E000C770B34
:102810004AE0CE0101960E946E1BBE016F5F7F4FA2
:10282000CE0148960E94E516CE0101960E94BE1880
:10283000B0CEE5960FB6F894DEBF0FBECDBFDF91E8
:10284000CF911F910F91FF90EF90DF90CF90BF90AD
:10285000AF909F908F907F906F905F904F903F9040
:102860002F9008950E942D33AF92BF92CF92DF92A6
:10287000EF92FF920F931F93CF93DF937B018A0117
:10288000FB01448155814115510561F1FC01248111
:1028900035812115310531F12417350718F102175B
:1028A000130718F0890101501109FC01A080B180C3
:1028B000C501DFEFCFEF6501C00ED11EC816D906E6
:1028C000A0F0F701608171810E947433009769F074
:1028D0009C012A193B090217130710F0D22FC32FAE
:1028E0000196ECCF8FEF9FEF02C08D2F9C2FDF91D1
:1028F000CF911F910F91FF90EF90DF90CF90BF90FD
:10290000AF900895DC0114962D913C911597232BDF
:1029100041F0ED91FC9181E09081992319F080E0E4
:10292000089581E00895E0E7F3E0A089B18982E0AD
:102930008C93A485B5851C92A685B7858FEC8C9366
:10294000108EA489B58986E08C93A289B3898C9175
:1029500080618C93A289B3898C9188608C93A289C1
:10296000B3898C9180688C930288F389E02D8081F3
:102970008F7D808308950F931F93CF93DF93CAE4D5
:10298000D3E08C010A541340C8018C0F9D1F0E9494
:102990007634899383E0C037D807B1F78AE493E0AF
:1029A000DF91CF911F910F9108958F929F92AF92D7
:1029B000BF920F931F93CF93DF93CDB7DEB7A1974D
:1029C0000FB6F894DEBF0FBECDBF19A2423008F497
:1029D0004AE08E010F5D1F4F842E912CA12CB12C4B
:1029E000A50194010E94F534E62FB901CA010150F6
:1029F0001109EA3014F4E05D01C0E95CD801EC9300
:102A0000232B242B252B61F7B80180E793E00E944C
:102A1000221CA1960FB6F894DEBF0FBECDBFDF918A
:102A2000CF911F910F91BF90AF909F908F9008957D
:102A3000CF92DF92EF92FF92CF93DF936C01990FC9
:102A4000EE08FF08F7FE1AC0E0917003F0917103E1
:102A50000190F081E02D6DE280E793E00995EC01B3
:102A600066277727CB016C197D098E099F094AE0FB
:102A70000E94D5147C01EC0EFD1E06C04AE0C70181
:102A8000B6010E94D5147C0180E793E00E94371CB8
:102A90008E0D9F1DDF91CF91FF90EF90DF90CF9033
:102AA00008950F931F93CF93DF93FC012481358109
:102AB0002115310519F4FB01108211C0EA0121979B
:102AC0002C173D0708F4E9018B01FC01608171813D
:102AD000AE01C8010E946533C00FD11F1882DF917B
:102AE000CF911F910F910895CF93DF93C091370439
:102AF000D0913804209751F08881882339F0082E2E
:102B0000000C990B0E9432338993F6CFDF91CF915D
:102B10000895FC0180819181009711F00C94EA33B3
:102B200060E070E0CB0108952F923F924F925F9248
:102B30006F927F928F929F92AF92BF92CF92DF92CD
:102B4000EF92FF920F931F93CF93DF93FC0144808A
:102B500055804114510409F4CFC0FB016480758095
:102B60006114710409F4C8C07A016B01EC01FA0127
:102B7000A480B580A618B70808811981A114B104F2
:102B8000C1F4F60160817181C8010E947433EC01C7
:102B9000892B09F4B1C0F7016081718144815581AD
:102BA000CE010E943A33F701048115810C0F1D1FDD
:102BB000E8CFB7FE02C0480106C0FB01208031808B
:102BC0004201C80142C0F60160817181C4010E94C6
:102BD00074332C01892B19F1320168187908A3018B
:102BE000B401C8010E943A33060D171DF701608138
:102BF000718144815581C8010E943A33F701848173
:102C00009581080F191FF60184809580840C951C0E
:102C10008C819D818A0D9B1D9D838C83D4CFB401B3
:102C2000C801DF91CF911F910F91FF90EF90DF903E
:102C3000CF90BF90AF909F908F907F906F905F905C
:102C40004F903F902F900C945E33B1010E947433EB
:102C5000009729F0860D971D8A0C9B1CF6CF8414D3
:102C6000950409F449C08A819B818815990560F40F
:102C7000B4016F5F7F4FC8010E9463320097E1F19A
:102C8000998388839B828A824C815D81415051095E
:102C900057FD32C0B601CE010E9434148C0197FD5D
:102CA0002BC088819981F60124813581200F311F45
:102CB000820F931F4C815D81421B530BBC018A0D17
:102CC0009B1D0E9443338C819D818A0D9B1D9D839A
:102CD0008C8328813981F901E80FF91F10828881DE
:102CE0009981F7016081718144815581800F911F25
:102CF0000E943A33A801CACFDF91CF911F910F9163
:102D0000FF90EF90DF90CF90BF90AF909F908F900B
:102D10007F906F905F904F903F902F900895FC01AF
:102D200044815581FB0124813581421B530B0C9456
:102D30003414CF93DF93FC0124813581232B71F070
:102D4000FB01DC01CD91DC9160817181CE010E949B
:102D50007433009719F08C1B9D0B02C08FEF9FEF0F
:102D6000DF91CF910895FC0124813581FB014481DD
:102D700055812417350721F5FC0180819181FB01E4
:102D800060817181009719F061157105A1F46115D9
:102D9000710549F0232BB1F0FB01808190E0919502
:102DA000819591090AC0009769F0232B59F0FC0125
:102DB000808190E002C00E94553321E0892B19F0F8
:102DC00020E001C021E0822F08950F931F93CF933D
:102DD000DF938C01EB01FC01808191810097B1F0C0
:102DE000688179816115710579F0428153812C8167
:102DF0003D814217530740F00E945E338C819D81D4
:102E0000F8019583848313C00E94CB318881998116
:102E1000F801918380838A819B81938382838C8153
:102E20009D8195838483198218821B821A821D8258
:102E30001C82DF91CF911F910F9108950F931F93E3
:102E4000CF93DF93EC0188819981009729F02A8143
:102E50003B812617370788F48B016F5F7F4F0E94F5
:102E60006332009761F0998388831B830A832C81E6
:102E70003D81232B11F4FC01108281E001C080E030
:102E8000DF91CF911F910F910895EF92FF920F93D1
:102E90001F93CF93DF93FC01248135816115710568
:102EA00011F480E019C041155105A9F07B01EC0136
:102EB0008A01020F131FB8010E941E17882389F38D
:102EC000288139818C819D81B701820F931F0E94D7
:102ED0005E331D830C8381E0DF91CF911F910F91B1
:102EE000FF90EF900895CF93DF9300D0CDB7DEB77A
:102EF00089831A8241E050E0BE016F5F7F4F87E314
:102F000094E00E9445170F900F90DF91CF910895A4
:102F1000CF93DF93EC0188819981009711F00E9493
:102F2000CB31198218821D821C821B821A82DF918A
:102F3000CF910895EF92FF920F931F93CF93DF935A
:102F4000EC017B0161157105E1F0CB010E941834A1
:102F50000097D1F02C813D818C01020F131FB80125
:102F6000CE010E941E17882361F0288139818C814F
:102F70009D81B701820F931F0E9411341D830C8322
:102F800003C0CE010E948817CE01DF91CF911F911F
:102F90000F91FF90EF900895EF92FF920F931F9380
:102FA000CF93DF9300D000D0CDB7DEB77C01862F62
:102FB0004AE08E010F5F1F4FB80190E00E942C3451
:102FC000F80101900020E9F73197AF01401B510B48
:102FD000B801C7010E944517811103C0C7010E94B3
:102FE0008817C7010F900F900F900F90DF91CF912E
:102FF0001F910F91FF90EF900895CF93DF93EC0115
:103000006115710561F0FB0101900020E9F731972E
:10301000AF01461B570B0E944517811103C0CE011B
:103020000E948817CE01DF91CF910895CF93DF934F
:10303000EC01FB0144815581608171810E9445173B
:10304000811103C0CE010E948817CE01DF91CF917C
:103050000895EF92FF920F931F93CF93DF93EC01AC
:103060007B018A01BA010E941E17811104C0CE01A2
:103070000E94881707C01D830C83B701888199813E
:103080000E945E33CE01DF91CF911F910F91FF908F
:10309000EF900895CF93DF93EC016115710559F01E
:1030A000FB0101900020E9F73197AF01461B570B58
:1030B0000E94291802C00E948817CE01DF91CF918B
:1030C0000895BF92CF92DF92EF92FF920F931F93DA
:1030D000CF93DF937C016B018A01E9012417350747
:1030E00020F4812F8901C42FD82F6FEF72E0C70120
:1030F0000E94DB1BD60114968D919C9115970817A1
:103100001907D0F48C179D0708F4EC01D601ED9156
:10311000FC911197EC0FFD1FB08010824D915C91D6
:10312000BA01600F711FC7010E944A18D601ED91C4
:10313000FC91EC0FFD1FB082C701DF91CF911F9171
:103140000F91FF90EF90DF90CF90BF900895CF93B5
:10315000DF93EC01FB018617970761F060817181B5
:103160006115710529F0448155810E94291802C01A
:103170000E948817CE01DF91CF910895FC018081D4
:1031800091810C94CB310895CF92DF92EF92FF9210
:103190000F931F93CF93DF936C017A018B01C0E0F3
:1031A000D0E0CE15DF0589F0D8016D918D01D601F3
:1031B000ED91FC910190F081E02DC6010995892BDC
:1031C00011F47E0102C02196ECCFC701DF91CF91AF
:1031D0001F910F91FF90EF90DF90CF900895FC0129
:1031E000918D828D981761F0828DDF01A80FB11D3E
:1031F0005D968C91928D9F5F9F73928F90E0089562
:103200008FEF9FEF0895FC01918D828D981731F01B
:10321000828DE80FF11D858D90E008958FEF9FEF6F
:103220000895FC01918D228D892F90E0805C9F4F45
:10323000821B91098F739927089580E793E00E947C
:10324000111921E0892B09F420E0822F0895FC0157
:10325000848DDF01A80FB11DA35ABF4F2C91848D1F
:1032600090E001968F739927848FA689B7892C9354
:10327000A089B1898C9180648C93938D848D9813EF
:1032800006C00288F389E02D80818F7D80830895B8
:10329000EF92FF920F931F93CF93DF93EC0181E0A6
:1032A000888F9B8D8C8D981305C0E889F989808162
:1032B00085FD24C0F62E0B8D10E00F5F1F4F0F739E
:1032C0001127E02E8C8DE8120CC00FB607FCFACF48
:1032D000E889F989808185FFF5CFCE010E94271901
:1032E000F1CF8B8DFE01E80FF11DE35AFF4FF08205
:1032F0000B8FEA89FB898081806207C0EE89FF8994
:103300006083E889F98980818064808381E090E02E
:10331000DF91CF911F910F91FF90EF900895CF9380
:10332000DF93EC01888D8823C9F0EA89FB898081CD
:1033300085FD05C0A889B9898C9186FD0FC00FB69F
:1033400007FCF5CF808185FFF2CFA889B9898C91E0
:1033500085FFEDCFCE010E942719E7CFDF91CF91F6
:10336000089580E090E0892B29F00E941D198111B9
:103370000C9400000895833081F028F4813099F096
:103380008230A1F008958730A9F08830B9F08430F8
:10339000D1F4809180008F7D03C0809180008F7771
:1033A00080938000089584B58F7702C084B58F7DA7
:1033B00084BD08958091B0008F7703C08091B000E4
:1033C0008F7D8093B00008953FB7F8948091D70522
:1033D0009091D805A091D905B091DA0526B5A89BA2
:1033E00005C02F3F19F00196A11DB11D3FBFBA2F97
:1033F000A92F982F8827820F911DA11DB11DBC01F7
:10340000CD0142E0660F771F881F991F4A95D1F7BB
:10341000089585ED8093BC008091BC0084FDFCCFB5
:103420001092450308954091B105262F30E0240FF6
:10343000311D21323105DCF4209145032430C9F4DB
:10344000FC0180E090E0861758F43091B10521919D
:10345000DC01A157BA4FA30FB11D2C930196F3CFF6
:103460008091B105680F6093B10580E0089581E017
:10347000089582E008950895E091490380914803FA
:10348000E81730F4F0E0E957FB4F808190E00895B1
:103490008FEF9FEF0895909149038091480398170B
:1034A00050F4E92FF0E0E957FB4F208130E09F5FB7
:1034B0009093490302C02FEF3FEFC9010895809117
:1034C000480390E020914903821B91090895CF920F
:1034D000DF92EF92FF920F931F93CF93DF937C01C4
:1034E000262F972F8A0180918604882391F0C62F7A
:1034F000D72F6E01C40ED51ECC15DD0571F0699174
:10350000D701ED91FC910190F081E02DC701099563
:10351000F3CF642F822F0E94131AC801DF91CF913D
:103520001F910F91FF90EF90DF90CF900895CF9370
:10353000DF931F92CDB7DEB76983209186042223E3
:10354000D1F020914603203240F021E030E0FC0130
:103550003383228380E090E015C080914703E82FF9
:10356000F0E0EA59FB4F998190838F5F8093470386
:103570008093460305C061E0CE0101960E94131AB4
:1035800081E090E00F90DF91CF9108952091640445
:10359000309165042817390771F490916304809184
:1035A0006204981741F0E0916304F0E0E153FB4FAF
:1035B000808190E008958FEF9FEF089508951F9305
:1035C000CF93DF93DC015C962D913C915D972115A3
:1035D000310539F481E090E013969C938E93129715
:1035E0003DC05196ED91FC91529750969C91509709
:1035F000892F80951FB75E964C915E9741FB772788
:1036000070F941FD6095F8944081772311F0492BC2
:1036100001C048234083E9012197F1F748E0508138
:1036200060FF02C0592B01C058235083E901219744
:10363000F1F76695415099F7772321F0908189231E
:10364000808303C08081982B90831FBF5C968D91EF
:103650009C915D970197F1F721E030E0C901DF917E
:10366000CF911F910895209164043091650428172B
:10367000390771F4809162042091630490E08054D2
:103680009F4F821B910960EC70E00E940831089501
:1036900080E090E00895209164043091650428173B
:1036A0003907C9F49091630480916204981799F0E6
:1036B000E0916304F0E0E153FB4F208180916304CB
:1036C00090E0019660EC70E00E9408318093630402
:1036D000822F90E008958FEF9FEF08950F931F932F
:1036E000CF93DF93CDB7DEB762970FB6F894DEBF06
:1036F0000FBECDBF8C01CB01F80111821082138265
:1037000012821582148250E0BE016F5F7F4F0E94CB
:103710002134BE016F5F7F4FC8010E944A18629634
:103720000FB6F894DEBF0FBECDBFDF91CF911F91D2
:103730000F910895EF92FF920F931F93CF93DF9312
:10374000EC01198218821B821A821D821C8261156B
:10375000710509F18B01CB010E9418347C01BC0179
:10376000CE010E941E17811109C0CE01DF91CF91B9
:103770001F910F91FF90EF900C948817FD82EC82BF
:10378000B80188819981DF91CF911F910F91FF90AE
:10379000EF900C941134DF91CF911F910F91FF9016
:1037A000EF900895FC01118210821382128215821B
:1037B00014820C94A718FC011182108213821282C9
:1037C000158214826115710551F0FB0101900020F2
:1037D000E9F73197AF01461B570B0C942918089550
:1037E000DC01ED91FC91DB0114964D915C911597F4
:1037F0006D917C910280F381E02D0994EF92FF920C
:103800000F931F93CF93DF938C017B01C0E0D0E037
:10381000F701EC0FFD1F6491662361F0D801ED9173
:10382000FC910190F081E02DC8010995892B11F0E0
:103830002196EECFCE01DF91CF911F910F91FF9096
:10384000EF9008956115710579F0FB01019000205A
:10385000E9F73197AF01461B570BDC01ED91FC9165
:103860000280F381E02D099480E090E008956DEFEF
:1038700072E00C94221C0F931F93CF93DF93EC0103
:103880000E94F01B8C01CE010E94371C800F911FFB
:10389000DF91CF911F910F9108950F931F93CF93B5
:1038A000DF93EC010E94FE1B8C01CE010E94371CAD
:1038B000800F911FDF91CF911F910F9108951F925B
:1038C0000F920FB60F9211242F933F934F935F9354
:1038D0006F937F938F939F93AF93BF93EF93FF93D8
:1038E00080E793E00E942719FF91EF91BF91AF917C
:1038F0009F918F917F916F915F914F913F912F9108
:103900000F900FBE0F901F9018951F920F920FB639
:103910000F9211242F938F939F93EF93FF93E09136
:103920008003F09181038081E0918603F091870309
:1039300082FD12C09081809189038F5F8F732091E7
:103940008A03821751F0E0918903F0E0E059FC4FBF
:10395000958F8093890301C08081FF91EF919F91A2
:103960008F912F910F900FBE0F901F901895CF93AE
:10397000DF93282F30E0F901E65DFB4F8491F901D8
:10398000E45FFB4FD491F901E850FC4FC491CC2384
:1039900091F081110E94BB19EC2FF0E0EE0FFF1F98
:1039A000E251FC4FA591B491EC91ED2381E090E0C0
:1039B00021F480E002C080E090E0DF91CF91089593
:1039C0001F93CF93DF93282F30E0F901E65DFB4F83
:1039D0008491F901E45FFB4FD491F901E850FC4F69
:1039E000C491CC23C9F0162F81110E94BB19EC2F72
:1039F000F0E0EE0FFF1FEC51FC4FA591B4918FB793
:103A0000F894111105C09C91ED2FE095E92302C0B7
:103A1000EC91ED2BEC938FBFDF91CF911F91089527
:103A2000CF93DF9390E0FC01E45FFB4F2491FC0116
:103A3000E850FC4F8491882361F190E0880F991F32
:103A4000FC01E05EFB4FC591D491FC01EC51FC4FB1
:103A5000A591B491611109C09FB7F8948881209510
:103A600082238883EC912E230BC0623061F49FB7D0
:103A7000F8943881822F809583238883EC912E2BB4
:103A80002C939FBF06C08FB7F894E8812E2B288314
:103A90008FBFDF91CF9108958F929F92AF92BF9287
:103AA000CF92DF92EF92FF926B017C010E94E419AA
:103AB0004B015C01C114D104E104F104F1F00E9456
:103AC000E419DC01CB0188199909AA09BB09883ED0
:103AD0009340A105B10570F321E0C21AD108E108B5
:103AE000F10888EE880E83E0981EA11CB11CC11459
:103AF000D104E104F10419F7DDCFFF90EF90DF90DE
:103B0000CF90BF90AF909F908F9008951F920F928B
:103B10000FB60F9211242F933F938F939F93AF93E0
:103B2000BF938091CB049091CC04A091CD04B0912F
:103B3000CE043091D60523E0230F2D3720F40196D3
:103B4000A11DB11D05C026E8230F0296A11DB11DC0
:103B50002093D6058093CB049093CC04A093CD04FE
:103B6000B093CE048091D7059091D805A091D90546
:103B7000B091DA050196A11DB11D8093D7059093F0
:103B8000D805A093D905B093DA05BF91AF919F9165
:103B90008F913F912F910F900FBE0F901F9018950E
:103BA0001F920F920FB60F9211242F933F934F93B2
:103BB0005F936F937F938F939F93AF93BF93EF9395
:103BC000FF938091B900887F803609F49CC068F526
:103BD000883209F45BC090F4803109F454C038F4A1
:103BE000882309F4F6C0883009F44DC0F6C0883146
:103BF00009F44CC0803209F45DC0EFC0803409F490
:103C000068C048F4803309F455C0883309F0E5C032
:103C10008093A704D8C0803509F44FC0883509F4D3
:103C20005DC0883409F0D9C0D6C0883909F4C7C04E
:103C3000A8F4883709F467C038F4883609F463C0FB
:103C4000803709F460C0C9C0883809F4B8C0803929
:103C500009F45FC0803809F0C0C05BC0803B09F444
:103C600086C038F4803A09F466C0883A09F47FC007
:103C7000B4C0803C09F4A7C0883C09F4A4C0883BC8
:103C800009F48AC0AAC08091CA0410C09091C904E6
:103C90008091C804981770F5E091C90481E08E0FF7
:103CA0008093C904F0E0E855FB4F80818093BB000E
:103CB00085EC86C08093A7048EC0E091C90481E0A2
:103CC0008E0F8093C9048091BB00F0E0E855FB4F54
:103CD00080839091C9048091C8046EC0E091C904AA
:103CE00081E08E0F8093C9048091BB00F0E0E8551D
:103CF000FB4F80838091440381116DC081E08093EC
:103D0000430384EA61C083E0809345031092D505A4
:103D1000CFCF8091D505803208F051C0E091D50514
:103D200081E08E0F8093D5058091BB00F0E0EB54CD
:103D3000FA4F8083BDCF85EC8093BC001092450381
:103D40008091D505803230F4E091D505F0E0EB5458
:103D5000FA4F10826091D50570E0E091B305F091C3
:103D6000B40585EB95E009951092D50536C084E041
:103D7000809345031092B2051092B105E091AF0512
:103D8000F091B00509958091B105811105C081E0E0
:103D90008093B10510928F05E091B20581E08E0FFE
:103DA0008093B205F0E0E157FA4F80818093BB0029
:103DB0009091B2058091B105981708F479CF85E804
:103DC0008093BC000AC085EC8093BC001092450330
:103DD00004C01092A7040E94091AFF91EF91BF91AD
:103DE000AF919F918F917F916F915F914F913F9193
:103DF0002F910F900FBE0F901F9018951F920F924A
:103E00000FB60F9211242F933F934F935F936F93AD
:103E10007F938F939F93AF93BF93EF93FF93E09123
:103E20006404F0916504309709F453C0968DA6851B
:103E3000B785858591FF04C09C91892329F449C0E9
:103E40009C91892309F045C0A389B4899C918589F7
:103E5000809589238C93868997890197F1F7608DE6
:103E6000718DA685B785558538E020E0CB01019797
:103E7000F1F7822F90E095958795282F4C91452357
:103E800009F02068315091F7868D81FD2095809151
:103E9000620490E0019660EC70E00E94083190911D
:103EA0006304981749F0A0916204B0E0A153BB4F9E
:103EB0002C938093620403C0868D8160868F828DEF
:103EC000938D0197F1F7A389B4899C918589892BFA
:103ED0008C93FF91EF91BF91AF919F918F917F91C3
:103EE0006F915F914F913F912F910F900FBE0F9067
:103EF0001F901895CF92DF92EF92FF920F931F932E
:103F0000CF93DF93EB017B0121E1E20EF11C8B01EA
:103F10006C01C61AD70AC601800F911F0E94763421
:103F2000F80181938F01EE15FF05A9F7CE01DF910E
:103F3000CF911F910F91FF90EF90DF90CF90089558
:103F4000AF92BF92CF92DF92EF92FF920F931F93A7
:103F5000CF93DF9300D0CDB7DEB78B016B0121E1AA
:103F6000C20ED11C7B015C01A61AB70A95012E0D69
:103F70003F1DF70161917F013A832983CE010196AC
:103F80000E94432EEC14FD0489F7C8010F900F9096
:103F9000DF91CF911F910F91FF90EF90DF90CF9025
:103FA000BF90AF900895CF93DF9300D0CDB7DEB729
:103FB0009A838983CE0101960E94432E0F900F9021
:103FC000DF91CF9108950C947634EF92FF920F9386
:103FD0001F93CF93DF9300D000D000D0CDB7DEB7D2
:103FE0008C017B018091AA01813009F057C068E8FB
:103FF00075E083E494E00E94FE1BB70183E494E043
:104000000E94F01B66E875E083E494E00E944D1C7A
:1040100064EF71E080E090E00E944C1DB80183E401
:1040200094E00E94F01B64EF71E080E090E00E9459
:104030004C1DE0914304F09144040190F081E02D87
:104040006AE183E494E0099564EF71E080E090E038
:104050000E944C1D6FE775E080E793E00E94FE1B15
:10406000B701CE0101960E94D21B6FE174E0CE0130
:1040700001960E941618B8010E941618BC0180E72C
:1040800093E00E943B1CCE0101960E94BE1868E896
:1040900073E180E090E00E944C1D23C068EE73E065
:1040A00080E090E00E944C1D62E975E080E793E0BB
:1040B0000E94FE1BB701CE0101960E94D21B6FE148
:1040C00074E0CE0101960E941618B8010E941618DD
:1040D000BC0180E793E00E943B1CCE0101960E9448
:1040E000BE1826960FB6F894DEBF0FBECDBFDF9187
:1040F000CF911F910F91FF90EF90089580E793E08B
:104100000C94371CDF92EF92FF920F931F93CF9383
:10411000DF9300D000D000D0CDB7DEB76BE475E000
:1041200080E793E00E944D1C82E0E82E81E0F82EAB
:1041300000E010E0F701838994890E94BB14F70125
:104140008389948987960E94E31FD82E0F5F1F4FA3
:104150004AE0B801CE0101960E946E1B6FE174E047
:10416000CE0101960E9416186AE473E00E94FD17C2
:104170006FE174E00E9416186D2D0E94CC17BC01EF
:1041800080E793E00E943B1CCE0101960E94BE187E
:10419000F5E1EF0EF11C0830110561F60E947E205A
:1041A00026960FB6F894DEBF0FBECDBFDF91CF913C
:1041B0001F910F91FF90EF90DF900895AF92BF9203
:1041C000CF92DF92EF92FF920F931F93CF93DF93E3
:1041D000CDB7DEB76E970FB6F894DEBF0FBECDBF7A
:1041E0008C0169EC72E0CE0101960E94DB1BBE01DE
:1041F0006F5F7F4FC8010E948F164AE0BC01CE015D
:1042000007960E946E1BCE0107960E948915AB018E
:104210004F5F5F4FB801CE010D960E94632ECE0115
:1042200007960E94BE18CE0101960E94BE1860E05B
:1042300073E0CE0101960E94DB1BBE016F5F7F4FD2
:10424000CE010D960E949916092FCE0101960E946B
:10425000BE186FEF72E0CE0107960E94DB1B60E094
:1042600073E0CE0101960E94DB1BAE01495F5F4FF8
:10427000BE016F5F7F4FCE010D960E949415CE0157
:1042800001960E94BE18CE0107960E94BE186FEFDD
:1042900072E0CE0107960E94DB1B63E073E0CE0163
:1042A00001960E94DB1BAE01495F5F4FBE016F5F4D
:1042B0007F4FCE010D960E949415CE0101960E946B
:1042C000BE18CE0107960E94BE186FEF72E0CE01B5
:1042D00007960E94DB1B6EEF72E0CE0101960E94F2
:1042E000DB1BAE01495F5F4FBE016F5F7F4FCE01A9
:1042F0000D960E949415CE0101960E94BE18CE0123
:1043000007960E94BE1861E373E0CE0101960E94F9
:10431000DB1BBE016F5F7F4FCE010D960E94991689
:104320004AE0BC01CE0143960E946E1BCE0143962B
:104330000E9489159B0140E050E0BE01635F7F4F02
:10434000CE0107960E946118CE0143960E94BE18C6
:10435000CE0101960E94BE1861E373E0CE01439640
:104360000E94DB1BBE016D5E7F4FCE010D960E9449
:104370008F164AE0BC01CE0149960E946E1BCE0109
:1043800049960E948915AB014F5F5F4FBE01635F85
:104390007F4FCE0101960E94632ECE0149960E9466
:1043A000BE18CE0143960E94BE18CE0107960E9409
:1043B0008915162FBE016F5F7F4FCE0143960E9475
:1043C000D21B1150183048F06BE675E080E793E09F
:1043D0000E944D1C0E94BA2945C046E250E062E1AD
:1043E00076E0CE0143960E945115C12ED12C25E1D5
:1043F000129FF0011124EE5FFE4F8389948922E120
:10440000E22E26E0F22EFC01E251F6405F01C501EA
:104410008E0D9F1DF70161917F019A8F898FCE01CB
:1044200049960E94432EF8E3EF16F6E0FF0679F76F
:10443000602F6095661F6627661F85E18C9DF001E1
:104440008D9DF00D1124EE5FFE4F83899489879630
:104450000E94D31F68E575E080E793E00E944D1C41
:104460000E94A2290E947E200E948220CE014396B3
:104470000E94BE18CE0101960E94BE18CE0107967A
:104480000E94BE18CE010D960E94BE186E960FB601
:10449000F894DEBF0FBECDBFDF91CF911F910F917A
:1044A000FF90EF90DF90CF90BF90AF9008957F92F4
:1044B0008F929F92AF92BF92CF92DF92EF92FF9234
:1044C0000F931F93CF93DF93C12CD12C7601C3940C
:1044D000C0E0BB24B39462E0A62E99249A9475EEB2
:1044E000872EE5EC7E2EDC2DB0928604C09211065C
:1044F0001092470310924603809145038111FCCF2F
:10450000A0924503B09244039092A7041092C9046C
:104510001092C8041092CA049091CA0486019601B0
:10452000220F331F292B2093CA049091430391300B
:1045300069F4109243039091CA049093BB00909148
:10454000BC0093FDF8CF7092BC0002C08092BC000A
:10455000909145039230E1F39091A7049F3F69F059
:104560008091A704803231F08091A704803321F03C
:1045700084E003C082E001C083E010924703109200
:10458000460310928604811134C06AE375E080E727
:1045900093E00E94FE1B80E1C816D104E104F104FF
:1045A00030F468E375E080E793E00E94FE1B40E191
:1045B000C701B6010E94D514D052D830B0F46FE1D3
:1045C00074E080E793E00E94F01B66E275E080E70C
:1045D00093E00E944D1C1093100600930F068091EB
:1045E0000E068F5F80930E0602C00E947E20CF5F72
:1045F0001DC08430D9F46AE175E080E793E00E9441
:10460000FE1BE0E1CE16D104E104F10430F468E1D0
:1046100075E080E793E00E94FE1B40E1C701B60110
:104620000E94D51480E793E00E94371CFFEFCF1A59
:10463000DF0AEF0AFF0A8FE7C816D104E104F1048C
:1046400009F051CFC11106C062E075E080E793E048
:104650000E944D1C80910E068823E9F00E94822062
:1046600002E011E0CEEFD5E0FC2EE8E0FE0EF8010E
:104670008389948987960E94E31F89930B5E1F4F5D
:10468000FC12F5CF0E947E20E6E0F6E088E08E0F77
:1046900011928E13FDCFDF91CF911F910F91FF905B
:1046A000EF90DF90CF90BF90AF909F908F907F90D2
:1046B000089569EF74E083E494E00E94FE1B80910A
:1046C000FD05813031F465EF74E083E494E00E94ED
:1046D0004D1C8091FD058250823030F463EF74E010
:1046E00083E494E00E944D1C60ED77E080E090E070
:1046F0000E944C1D67EE74E080E793E00E944D1C21
:104700000C94A229CF92DF92EF92FF920F931F9306
:10471000CF93DF93CDB7DEB7A4970FB6F894DEBF83
:104720000FBECDBF8C0169EC72E0CE0101960E94F4
:10473000DB1BBE016F5F7F4FC8010E948F164AE0EE
:10474000BC01CE0142960E946E1BCE0142960E9491
:104750008915AB014F5F5F4FB801CE0148960E94AB
:10476000632ECE0142960E94BE18CE0101960E9491
:10477000BE186FEF72E0CE0142960E94DB1B65E02F
:1047800073E0CE0101960E94DB1BAE014E5E5F4FCF
:10479000BE016F5F7F4FCE0148960E949415CE01F7
:1047A00001960E94BE18CE0142960E94BE186FEF7D
:1047B00072E0CE0142960E94DB1B63E073E0CE0103
:1047C00001960E94DB1BAE014E5E5F4FBE016F5F24
:1047D0007F4FCE0148960E949415CE0101960E940B
:1047E000BE18CE0142960E94BE186FEF72E0CE0155
:1047F00042960E94DB1B6EEF72E0CE0101960E9492
:10480000DB1BAE014E5E5F4FBE016F5F7F4FCE017F
:1048100048960E949415CE0101960E94BE18CE01C2
:1048200042960E94BE1861E373E0CE0101960E9499
:10483000DB1BBE016F5F7F4FCE0148960E948F1633
:104840004AE0BC01CE014E960E946E1BCE014E96F0
:104850000E948915AB014F5F5F4FBE01685E7F4FBD
:10486000CE0142960E94632ECE014E960E94BE1843
:10487000CE0101960E94BE18BE016E5E7F4FCE0132
:104880004E960E94D21B03ED11E021E08DE0F82E40
:104890006E0185E0C80ED11C6CEE75E0F8018081D8
:1048A00091812CA30E947A1FBC01CE0101960E9427
:1048B000DB1BBE01625E7F4FCE0101960E94B316E4
:1048C000E82ECE0101960E94BE182CA1EE2099F18F
:1048D00019821A821B821C82F6018F2D11928A95F1
:1048E000E9F7BE016F5F7F4FF801808191810E94DF
:1048F000A01FF8018081918160E042960E94D31F41
:10490000F8018081918160E043960E94D31F67ED9A
:1049100074E080E793E00E94FE1BBE01625E7F4F61
:1049200080E793E00E943B1C0E947E200E94792B2E
:104930000E94A22920E00B5E1F4FF2E000391F0702
:1049400009F0AACF213089F46FEB74E080E793E09F
:104950000E94FE1BBE01625E7F4F80E793E00E94D3
:104960003B1C0E947E200E94BA29CE014E960E94D6
:10497000BE18CE0142960E94BE18CE0148960E94F3
:10498000BE18A4960FB6F894DEBF0FBECDBFDF9160
:10499000CF911F910F91FF90EF90DF90CF900895EE
:1049A0009F92AF92BF92CF92DF92EF92FF920F93BE
:1049B0001F93CF93DF93CDB7DEB76E970FB6F89402
:1049C000DEBF0FBECDBF8C0169EC72E0CE01019657
:1049D0000E94DB1BBE016F5F7F4FC8010E948F16D4
:1049E0004AE0BC01CE0107960E946E1BCE010796DD
:1049F0000E948915AB014F5F5F4FB801CE0143960E
:104A00000E94632ECE0107960E94BE18CE01019629
:104A10000E94BE186AE073E0CE0101960E94DB1B83
:104A2000BE016F5F7F4FCE0143960E949916C92E3B
:104A3000CE0101960E94BE186CE073E0CE01019693
:104A40000E94DB1BBE016F5F7F4FCE0143960E9429
:104A50009916D92ECE0101960E94BE186FEF72E012
:104A6000CE0107960E94DB1B6AE073E0CE0101963F
:104A70000E94DB1BAE01495F5F4FBE016F5F7F4F3E
:104A8000CE0143960E949415CE0101960E94BE1855
:104A9000CE0107960E94BE186FEF72E0CE01079616
:104AA0000E94DB1B6CE073E0CE0101960E94DB1BD1
:104AB000AE01495F5F4FBE016F5F7F4FCE014396EE
:104AC0000E949415CE0101960E94BE18CE01079651
:104AD0000E94BE186FEF72E0CE0107960E94DB1BAA
:104AE00065E073E0CE0101960E94DB1BAE01495FD9
:104AF0005F4FBE016F5F7F4FCE0143960E949415BA
:104B0000CE0101960E94BE18CE0107960E94BE18E3
:104B10006FEF72E0CE0107960E94DB1B63E073E04B
:104B2000CE0101960E94DB1BAE01495F5F4FBE01C3
:104B30006F5F7F4FCE0143960E949415CE01019680
:104B40000E94BE18CE0107960E94BE186FEF72E059
:104B5000CE0107960E94DB1B6EEF72E0CE0101963C
:104B60000E94DB1BAE01495F5F4FBE016F5F7F4F4D
:104B7000CE0143960E949415CE0101960E94BE1864
:104B8000CE0107960E94BE1861E373E0CE01019644
:104B90000E94DB1BBE016F5F7F4FCE0143960E94D8
:104BA00099164AE0BC01CE0107960E946E1BCE0109
:104BB00007960E9489159B0140E050E0BE016D5EA2
:104BC0007F4FCE010D960E946118CE0107960E947C
:104BD000BE18CE0101960E94BE1861E373E0CE01BB
:104BE00001960E94DB1BBE016F5F7F4FCE01439693
:104BF0000E948F164AE0BC01CE0149960E946E1BAE
:104C0000CE0149960E948915AB014F5F5F4FBE01EF
:104C10006D5E7F4FCE0107960E94632ECE014996AE
:104C20000E94BE18CE0101960E94BE18CE010D96BC
:104C30000E948915062FBE01695F7F4FCE014996FC
:104C40000E94D21B6CEE75E08091BE019091BF0175
:104C50000E947A1FBC01CE0101960E94DB1BCE018F
:104C600001960E948214182FCE0101960E94BE1850
:104C7000112361F068E974E080E793E00E944D1C25
:104C80000E947E200E94BA2910E001C011E08EEF40
:104C9000800F8A3058F06AE774E080E793E00E9462
:104CA0004D1C0E947E200E94BA2910E08BEAA82E9B
:104CB00081E0B82EE12CF12C6CEE75E0F5018389D2
:104CC00094890E947A1FBC01CE0101960E94DB1BD1
:104CD000BE01675E7F4FCE0101960E94B316982EEB
:104CE000CE0101960E94BE18C70101967C01992051
:104CF00071F06BE474E080E793E00E94FE1BC70153
:104D00000E9418150E947E200E94BA2910E095E1A9
:104D1000A90EB11CEAE0EE16F10471F61130B1F5FE
:104D200041E150E06BED75E0CE0149960E945115CE
:104D30000150F5E10F9F8001112405551E4F6BEDC9
:104D400075E0F801838994890E94A01F6C2D6095FD
:104D5000661F6627661FF8018389948942960E9420
:104D6000D31F6D2D6095661F6627661FF801838926
:104D7000948943960E94D31F6EE374E080E793E02A
:104D80000E944D1C0E947E200E94A2290E94792B25
:104D9000CE0149960E94BE18CE0107960E94BE1809
:104DA000CE010D960E94BE18CE0143960E94BE18F9
:104DB0006E960FB6F894DEBF0FBECDBFDF91CF91D8
:104DC0001F910F91FF90EF90DF90CF90BF90AF9029
:104DD0009F900895EF92FF920F931F93CF93DF93CD
:104DE000CDB7DEB768970FB6F894DEBF0FBECDBF64
:104DF00011E01093840261E08EE090E00E94D31FE6
:104E0000109383026EE073E0CE0101960E94DB1BDB
:104E10006BE274E0CE0101960E941618BC0185E297
:104E200094E00E94A718CE0101960E94BE1865E288
:104E300074E080E793E00E943B1C68EE73E080E042
:104E400090E00E944C1D0BEA11E0F801E388F48821
:104E5000C70143960E94E31F813009F060C06CEEE9
:104E600075E0C7010E947A1FBC01CE0101960E9425
:104E7000DB1BBE016F5F7F4F8BE294E00E94B31695
:104E8000F82ECE0101960E94BE18F11010923F0636
:104E900068EE73E080E090E00E944C1D6CEE75E0DF
:104EA000F801838994890E947A1FBC01CE010D9676
:104EB0000E94DB1B61E373E0CE0107960E94DB1BBF
:104EC000BE01635F7F4FCE0107960E941618BC019A
:104ED000CE0143960E94D21B65E274E0CE0101969A
:104EE0000E94D21BBE016D5E7F4FCE0101960E94D3
:104EF000E51FCE0101960E94BE18CE0143960E9486
:104F0000BE18CE0107960E94BE18CE010D960E94D3
:104F1000BE1868EE73E080E090E00E944C1D0B5ECE
:104F20001F4FF2E00D371F0709F08FCF80913F062A
:104F30008130B1F568EE73E080E090E00E944C1D96
:104F400061E373E0CE0107960E94DB1B6BE274E025
:104F5000CE0107960E941618BC01CE010D960E9444
:104F6000D21B62E077E0CE0101960E949A1BBE013F
:104F7000635F7F4FCE0101960E94E51FCE0101962F
:104F80000E94BE18CE010D960E94BE18CE01079653
:104F90000E94BE1868EE73E080E090E00E944C1D15
:104FA00068960FB6F894DEBF0FBECDBFDF91CF91EC
:104FB0001F910F91FF90EF900895EF92FF920F9342
:104FC0001F93CF93DF93CDB7DEB768970FB6F894F2
:104FD000DEBF0FBECDBF1092840260E08EE090E095
:104FE0000E94D31F60E273E0CE0101960E94DB1B9A
:104FF0006BE274E0CE0101960E941618BC0185E2B6
:1050000094E00E94A718CE0101960E94BE1865E2A6
:1050100074E080E793E00E943B1C68EE73E080E060
:1050200090E00E944C1D0BEA11E0F801E388F4883F
:10503000C70143960E94E31F813009F060C06CEE07
:1050400075E0C7010E947A1FBC01CE0101960E9443
:10505000DB1BBE016F5F7F4F8BE294E00E94B316B3
:10506000F82ECE0101960E94BE18F11010923F0654
:1050700068EE73E080E090E00E944C1D6CEE75E0FD
:10508000F801838994890E947A1FBC01CE010D9694
:105090000E94DB1B61E373E0CE0107960E94DB1BDD
:1050A000BE01635F7F4FCE0107960E941618BC01B8
:1050B000CE0143960E94D21B65E274E0CE010196B8
:1050C0000E94D21BBE016D5E7F4FCE0101960E94F1
:1050D000E51FCE0101960E94BE18CE0143960E94A4
:1050E000BE18CE0107960E94BE18CE010D960E94F2
:1050F000BE1868EE73E080E090E00E944C1D0B5EED
:105100001F4FF2E00D371F0709F08FCF80913F0648
:105110008130B1F568EE73E080E090E00E944C1DB4
:1051200061E373E0CE0107960E94DB1B6BE274E043
:10513000CE0107960E941618BC01CE010D960E9462
:10514000D21B68EF76E0CE0101960E949A1BBE0149
:10515000635F7F4FCE0101960E94E51FCE0101964D
:105160000E94BE18CE010D960E94BE18CE01079671
:105170000E94BE1868EE73E080E090E00E944C1D33
:1051800068960FB6F894DEBF0FBECDBFDF91CF910A
:105190001F910F91FF90EF900895AF92BF92DF9211
:1051A000EF92FF920F931F93CF93DF93CDB7DEB7AC
:1051B00068970FB6F894DEBF0FBECDBF2091840272
:1051C000213009F0AFC0D62E7C0161E084E00E945E
:1051D000E01C60E085E00E94E01C2FB7F89480910D
:1051E000CB049091CC04A091CD04B091CE042FBFFC
:1051F00080933B0690933C06A0933D06B0933E06F9
:10520000B70180E793E00E943B1C0BEA11E0F80134
:10521000A388B488C50143960E94E31F8130F1F54D
:105220006CEE75E0C5010E947A1FBC01CE010D969F
:105230000E94DB1B61E373E0CE0107960E94DB1B3B
:10524000BE01635F7F4FCE0107960E941618BC0116
:10525000CE0143960E94D21BB701CE0101960E9457
:10526000D21BBE016D5E7F4FCE0101960E94E51FED
:10527000CE0101960E94BE18CE0143960E94BE1830
:10528000CE0107960E94BE18CE010D960E94BE1850
:1052900068EE73E080E090E00E944C1D0B5E1F4FB3
:1052A000F2E00D371F0709F0B2CF80918202813002
:1052B000C9F5D81237C06CEE75E08091BE019091AF
:1052C000BF010E947A1FBC01CE0101960E94DB1B28
:1052D000CE0101960E948214182FCE0101960E94E1
:1052E000BE1811111FC063EF76E083E494E00E94C2
:1052F000FE1B6CEE75E08091BE019091BF010E9493
:105300007A1FBC0183E494E00E94221C61EF76E0E6
:1053100083E494E00E944D1C68EE73E080E090E02E
:105320000E944C1D68960FB6F894DEBF0FBECDBF2D
:10533000DF91CF911F910F91FF90EF90DF90BF9081
:10534000AF90089561E08BE00E94E01C64E670E09D
:1053500080E090E00E944C1D60E08BE00E94E01C29
:1053600064E670E080E090E00E944C1D61E08BE01C
:105370000C94E01C0E94A2290C94A229DF92EF92C7
:10538000FF920F931F93CF93DF9300D000D000D0F4
:10539000CDB7DEB77C010BEA11E06CEE75E0F801E9
:1053A000838994890E947A1FBC01CE0101960E94D4
:1053B000DB1BB701CE0101960E94B316D82ECE0199
:1053C00001960E94BE18D11008C00B5E1F4FF2E07C
:1053D0000D371F0711F780E00DC0B7018BE294E095
:1053E0000E94A718F8018389948942960E94E31FBE
:1053F000813059F726960FB6F894DEBF0FBECDBFA9
:10540000DF91CF911F910F91FF90EF90DF90089562
:105410000F931F93CF93DF9300D000D000D0CDB770
:10542000DEB760ED77E080E090E00E944C1D0E94C6
:10543000931410925E0410925D0410925C0410921A
:105440005B0410925A04109259048DE991E09093F4
:10545000600480935F0490914F04963108F057C028
:105460002DEB30E030935A04209359042BE931E0BE
:1054700030935C0420935B042CE231E030935E04B3
:1054800020935D0420916800983050F031E09E3008
:1054900008F430E081E001C0880F3A95EAF701C0D6
:1054A00084E0822B80936800983038F09E3040F082
:1054B000963148F020E030E008C02DE630E005C02D
:1054C0002BE630E002C02CE630E030935704209306
:1054D0005604983030F481E001C0880F9A95EAF7BD
:1054E0000EC0292F30E09E3018F42850310902C038
:1054F0002E50310981E001C0880F2A95EAF7809388
:10550000580480915F04909160040197F1F78091B5
:105510005D0490915E04892B49F1E0916404F0915F
:10552000650484E0E334F80709F1309739F0A38982
:10553000B4899C918589809589238C93809161049D
:105540008E7F80936104109262041092630483E45E
:1055500094E09093650480936404E0915604F09184
:105560005704908180915804892B80831AE06EEE55
:1055700076E083E494E00E944D1C68EC70E080E0EB
:1055800090E00E944C1D115091F76AEE76E083E4A2
:1055900094E00E944D1C6AE070E080E090E00E9480
:1055A0004C1D83E494E00E94331B892B09F460C0F6
:1055B00083E494E00E94331B892B79F083E494E028
:1055C0000E944B1B80933A060E94731764E170E0BF
:1055D00080E090E00E944C1DEBCF65EE76E0CE01BE
:1055E00001960E949A1BBE016F5F7F4F87E394E094
:1055F0000E9499168C01CE0101960E94BE1817FDDB
:1056000003C081E08093FD056EED76E0CE0101964A
:105610000E949A1BBE016F5F7F4F87E394E00E9458
:1056200099168C01CE0101960E94BE1817FD03C089
:1056300082E08093FD056BED76E0CE0101960E943D
:105640009A1BBE016F5F7F4F87E394E00E9499161B
:105650008C01CE0101960E94BE1817FD03C083E0A5
:105660008093FD056FEF72E087E394E00E944A1893
:1056700061ED76E083E494E00E944D1C64E670E006
:1056800080E090E00E944C1D67EC76E083E494E0BB
:105690000E944D1C64E670E080E090E00E944C1D8A
:1056A00069EB76E083E494E00E944D1C64E670E0D0
:1056B00080E090E00E944C1D6DEA76E083E494E087
:1056C0000E944D1C64E670E080E090E00E944C1D5A
:1056D00068EA76E083E494E00E944D1C26960FB6BB
:1056E000F894DEBF0FBECDBFDF91CF911F910F9118
:1056F0000895BF92CF92DF92EF92FF920F931F9384
:10570000CF93DF9300D000D000D0CDB7DEB76EEDE1
:1057100075E080E793E00E944D1C8BEAE82E81E063
:10572000F82E00E010E06CEE75E0F70183899489B3
:105730000E947A1FF701C388D488C60143960E944D
:10574000E31FB82EC60142960E94E31FD82E0F5FBA
:105750001F4F4AE0B801CE0101960E946E1B6FE117
:1057600074E0CE0101960E9416186CEE75E00E945E
:10577000FD176FE174E00E9416186D2D0E94CC1782
:105780006FE174E00E9416186B2D0E94CC17BC01CB
:1057900080E793E00E943B1CCE0101960E94BE1858
:1057A000F5E1EF0EF11C0A30110509F0BCCF0E94A3
:1057B0007E2026960FB6F894DEBF0FBECDBFDF91D8
:1057C000CF911F910F91FF90EF90DF90CF90BF90FE
:1057D0000895EF92FF920F931F93CF93DF9383E689
:1057E00090E00E94E31F813009F444C069EC75E049
:1057F00080E793E00E944D1CC4E6D0E06FEFCE013D
:105800000E94D31F6AE070E080E090E00E944C1D8F
:105810002196CC3281E0D80789F760EB75E080E70C
:1058200093E00E944D1C0E947E20CBEAD1E000E074
:1058300010E0BE018B899C890E94A01FF801E555EC
:10584000FE4F7F018B899C89618942960E94D31FFC
:105850008B899C89F701628943960E94D31F0B5E56
:105860001F4F6596023D110521F761E083E690E048
:105870000E94D31F83E690E00E94E31F813041F431
:10588000DF91CF911F910F91FF90EF900C94792BA6
:10589000DF91CF911F910F91FF90EF900895CF93DB
:1058A000DF93D82FC92F682F80E190E00E947E34CB
:1058B0006C2F81E190E00E947E34D0937E02C093F1
:1058C0007F026DE975E080E793E00E94FE1B609126
:1058D0007E0270917F0280E090E04AE00E94D51441
:1058E00080E793E00E94371C0E947E20DF91CF91D9
:1058F0000C94A2290F931F93CF93DF9300D000D075
:1059000000D0CDB7DEB780E090E00E94E31F813089
:1059100009F450C06CE876E080E793E00E944D1CEB
:1059200000E010E06FEFC8010E94D31F6AE070E052
:1059300080E090E00E944C1D0F5F1F4F0431110565
:1059400089F76CE676E080E793E00E944D1C0E94A8
:105950007E2061E08AE090E00E94D31F61E08BE04E
:1059600090E00E94D31F60E08CE090E00E94D31F83
:1059700061E08DE090E00E94D31F61E08EE090E056
:105980000E94D31F6FE08FE090E00E94D31F8CE352
:1059900090E00E944F2C60E082E190E00E94D31FD3
:1059A00061E083E190E00E94D31F61E080E090E03D
:1059B0000E94D31F80E090E00E94E31F813009F035
:1059C000E9C069E576E080E793E00E944D1C8AE03B
:1059D00090E00E94E31F8093AA016FE476E080E7E5
:1059E00093E00E94FE1B8091AA01082E000C990BE7
:1059F0000E9418158BE090E00E94E31F80938202C2
:105A000063E476E080E793E00E94FE1B80918202CF
:105A1000082E000C990B0E9418158CE090E00E9453
:105A2000E31F8093390667E376E080E793E00E9406
:105A3000FE1B80913906082E000C990B0E94181548
:105A40008DE090E00E94E31F809381026FE276E098
:105A500080E793E00E94FE1B80918102082E000CDB
:105A6000990B0E9418158EE090E00E94E31F80932E
:105A7000840267E276E080E793E00E94FE1B80915B
:105A80008402082E000C990B0E9418158FE090E0FC
:105A90000E94E31F809380026BE176E080E793E051
:105AA0000E94FE1B6091800270E080E090E04AE07E
:105AB0000E94D51480E793E00E94371C80E190E0BB
:105AC0000E94E31F182F81E190E00E94E31F1093D2
:105AD0007E0280937F026BE076E080E793E00E9495
