:100000000C942F040C9457040C9457040C94D9228C
:100010000C94D9220C94D9220C9457040C945704B4
:100020000C9457040C9457040C9457040C945704E4
:100030000C9457040C9457040C9457040C945704D4
:100040000C9461210C9457040C9409180C94E31738
:100050000C9457040C9457040C9457040C945704B4
:100060000C94AB210C9457044572726F7220646536
:100070006C6574696E672070686F6E653A202B003E
:1000800044656C6574652070686F6E653A202B005E
:10009000506175736554696D652069733A20004439
:1000A000656C61794265666F72654775617264203F
:1000B00069733A200044656C61794265666F7265C8
:1000C000416C61726D2069733A20005761746368F6
:1000D000506F77657254696D652069733A200052DC
:1000E000696E6754696D652069733A2000576174C1
:1000F00063682074686520706F776572204F46468C
:1001000000477561726420627574746F6E3A204F97
:100110004E2F4F4646206D6F6465004775617264CF
:1001200020627574746F6E3A204F4E206D6F646557
:1001300000477561726420627574746F6E204F465B
:10014000460053656E736F72206461746120736141
:100150007665642E004572726F722073656E736FE0
:1001600072206E756D626572006661696C65642EE1
:10017000007061737365642E0054657374200046CB
:1001800061696C65642063656C6C3A2000420045CF
:100190004550524F4D3A200041542B435553443D56
:1001A000312C2200534D532072656D6F76656400CB
:1001B0003400302C340041542B434D47443D006300
:1001C0006C656172736D73006C65646F6666006C5C
:1001D00065646F6E00746573746F66660074657332
:1001E000746F6E004E2E200046462E2000496E662B
:1001F0006F3A20504952204F00696E666F00677554
:100200006172646F66660067756172646F6E00701C
:1002100061757365006D6F6E6579007265626F6FF1
:1002200074006C69737470686F6E65006932637313
:1002300063616E006D656D74657374006C697374D1
:1002400073656E736F72006C697374636F6E666949
:100250006700656469746D61696E70686F6E6500D2
:100260006564697473656E736F720067756172643B
:10027000627574746F6E6F66660067756172646232
:100280007574746F6E6F6E3200677561726462753B
:1002900074746F6E6F6E31007761746368706F771E
:1002A00065726F6666007761746368706F776572F8
:1002B0006F6E32007761746368706F7765726F6E0E
:1002C0003100504952204F4646007069726F666691
:1002D00000504952204F4E007069726F6E00536D8E
:1002E00073204F464600736D736F666600536D73DF
:1002F000204F4E00736D736F6E007265736574737B
:10030000656E736F72007265736574636F6E666994
:100310006700726573657470686F6E650066756CF2
:100320006C726573657400616C61726D70696E7476
:10033000696D650072696E6774696D6500776174D7
:100340006368706F77657274696D650064656C6170
:10035000796265666F7265616C61726D0064656C6F
:1003600061796265666F7265677561726400736C4E
:1003700065657074696D650062616C616E63656E60
:10038000756D0064656C65746570686F6E6500619D
:10039000646470686F6E650053696C656E74206D7F
:1003A0006F646521004F46462E004F4E2E00475386
:1003B0004D20416C61726D2031372E30362E313137
:1003C00000506F77657220737570706C792072655C
:1003D00073746F72656400506F7765722073757007
:1003E000706C7920646973636F6E6E6563746564A5
:1003F00020004D61696E2073656E736F722100502D
:1004000049522073656E736F722100206D696E759D
:100410007465732061676F003B004154442B0041B9
:100420006C61726D2052696E673A202B00507269C0
:100430006D6172792070686F6E653A202B004154AF
:100440002B435553443D300055535344207175653B
:1004500072793A20002B435553443A00534D5320B0
:1004600066726F6D3A202B002C22002C2C002B433F
:100470004D543A0052696E672066726F6D3A202BB8
:10048000002C0052494E47000000000024002700C5
:100490002A00000000080002010000030407000019
:1004A0000000000000004C656E67746820746F20C7
:1004B00072657475726E3A20004E756D6265723A9F
:1004C00020004C6F61642064656661756C74206205
:1004D000616C616E636520646174612E0044656CBB
:1004E0006574696E672062616C616E63652064612A
:1004F00074612E00416C61726D496E746572766133
:100500006C2069733A20004C6F61642064656661F9
:10051000756C742070686F6E6520646174612E0064
:1005200044656C6574696E672070686F6E652064E1
:100530006174612E0069007000720073006D0050DC
:10054000686F6E6500E28496005265616420617296
:100550007261792070686F6E653A0044656C6179EC
:100560004265666F7265416C61726D3A2000446548
:100570006C61794265666F726547756172643A2095
:10058000004775617264427574746F6E3A2000574B
:1005900061746368506F77657254696D653A2000C5
:1005A0005761746368506F7765723A200050495202
:1005B00047756172643A2000416C61726D50696EDA
:1005C00054696D653A2000536C65657054696D65BA
:1005D0003A200047756172643A20004C65643A2005
:1005E00000546573743A200052696E6754696D65F2
:1005F0003A200053656E64536D733A200052656172
:100600006420656570726F6D636F6E6669673A002E
:100610004C6F61642064656661756C7420656570FB
:10062000726F6D636F6E66696720646174612E001E
:1006300044656C6574696E6720656570726F6D6383
:100640006F6E66696720646174612E0041544530A5
:1006500000415445310041542B434E4D493D322C0D
:10066000320041542B435343533D2247534D220004
:1006700041542B434D47463D310041542B434C4997
:10068000503D310041360053494D383030004D3532
:10069000393000415449004154004775617264206B
:1006A0004F4646004775617264204F46462E002033
:1006B000427574746F6E002050686F6E65202B0059
:1006C00020436F6E736F6C650053656E736F72209D
:1006D000646174613A00456E6443616C6C0041541E
:1006E0002B4348555000220041542B434D47533D66
:1006F00022004775617264204F4E00477561726435
:10070000204F4E2E00576174636820746865207016
:100710006F776572204F4E0050686F6E6520616480
:100720006465642E0050686F6E6520616C7265614F
:1007300064792065786973747320696E20746865C4
:100740002063656C6C3A20004572726F722C2077C2
:10075000726F6E67206E756D626572206F662063C2
:10076000656C6C732E004572726F722C2066697214
:10077000737420726567697374657220612070728A
:10078000696D6172792070686F6E652E0050686FB8
:100790006E652073657474696E6773206368616E3B
:1007A0006765642E0049324320646576696365732A
:1007B000206E6F7420666F756E6400300045727233
:1007C0006F722061742030780064657465637465AD
:1007D00064205043463835373400300049324320D6
:1007E000646576696365206174203078004C6F61C0
:1007F000642064656661756C742073656E736F72D6
:1008000020646174612E0044656C6574696E6720B4
:1008100073656E736F7220646174612E0000000056
:1008200000250028002B00000000002300260029DE
:100830000004040404040404040202020202020389
:100840000303030303010204081020408001020493
:100850000810200102040810200057351B35112410
:100860001FBECFEFD8E0DEBFCDBF13E0A0E0B1E008
:10087000E2EFF4E702C005900D92A834B107D9F772
:1008800026E0A8E4B3E001C01D92AD38B207E1F75D
:1008900014E0CEE2D4E004C02197FE010E940E389D
:1008A000CD32D107C9F70E94262C0C946C3A0C94D7
:1008B0000000AF92BF92CF92DF92EF92FF920F9320
:1008C0001F93CF93DF93CDB7DEB7E0970FB6F894C1
:1008D000DEBF0FBECDBF80910804813031F468E5E2
:1008E00076E081E995E00E94BF176EE073E0CE01EB
:1008F00042960E94191763EE72E0CE0101960E94A3
:100900001917AE014E5E5F4FBE016F5F7F4F88E5E6
:1009100096E00E94CC13CE0101960E947D16CE0176
:1009200042960E947D166EE073E0CE0142960E94D0
:1009300019176DE073E0CE0101960E941917AE0100
:100940004E5E5F4FBE016F5F7F4F88E596E00E946D
:10095000CC13CE0101960E947D16CE0142960E94D4
:100960007D1600915806109159060115110539F4AC
:1009700080910C04813011F00C94250F0DC0F8010A
:1009800080818823A9F3082E000C990B0E94103A4D
:10099000F80181938F01F3CF6FE873E0CE010196E8
:1009A0000E940717BE016F5F7F4F88E596E00E94A7
:1009B000D1148C01CE0101960E947D1617FD0FC047
:1009C00068E576E0CE0101960E94101761E0CE0145
:1009D00001960E94BE27CE0101960E947D1663E813
:1009E00073E0CE0101960E940717BE016F5F7F4F33
:1009F00088E596E00E94D1148C01CE0101960E94F8
:100A00007D1617FD15C168E576E0CE0184960E943B
:100A1000101765EE72E0CE0142960E941917BE01D2
:100A20006E5E7F4FCE0184960E94C7144AE0BC01DF
:100A3000CE0101960E94AE16CE0101960E94C1130E
:100A4000AB014F5F5F4FBE016C5D7F4FCE014E9695
:100A50000E94F01FCE0101960E947D16CE014296A3
:100A60000E947D166EE073E0CE0101960E94191778
:100A700067EE72E0CE0142960E941917AE014F5FF9
:100A80005F4FBE016E5E7F4FCE014E960E94CC132B
:100A9000CE0142960E947D16CE0101960E947D16DF
:100AA0006CEE72E0CE0142960E941917BE016E5E96
:100AB0007F4FCE014E960E94C7144AE0BC01CE0182
:100AC00001960E94AE16CE0101960E94C113AB01A1
:100AD0004F5F5F4FBE01625E7F4FCE0148960E941E
:100AE000F01FCE0101960E947D16CE0142960E9413
:100AF0007D16BE01685E7F4FCE0142960E941017A0
:100B000006EE11E021E03DE0F32E6E01F5E0CF0EA0
:100B1000D11C67EF73E0F8018081918128AB0E94BE
:100B20005523BC01CE0101960E941917BE016E5ECD
:100B30007F4FCE0101960E94EB14E82ECE01019664
:100B40000E947D1628A9EE2009F448C019821A8255
:100B50001B821C82F6012F2D11922A95E9F7BE0106
:100B60006F5F7F4FF801808191810E947B23F801A4
:100B70008081918160E042960E94AE23F8018081DD
:100B8000918160E043960E94AE23F80180819181BB
:100B900060E044960E94AE23F8018081918160E07C
:100BA00045960E94AE23F8018081918160E04696CF
:100BB0000E94AE2360E870E081E995E00E94821710
:100BC000BE016E5E7F4F81E995E00E94BF170E94D3
:100BD00045260E942A1C0E944C1A20E0085E1F4FE6
:100BE000F2E00E3B1F0709F094CF213089F468E64C
:100BF00070E081E995E00E948217BE016E5E7F4F32
:100C000081E995E00E94BF170E9445260E94641A60
:100C1000CE0142960E947D16CE0148960E947D1616
:100C2000CE014E960E947D16CE0184960E947D16BE
:100C300068E773E0CE0101960E940717BE016F5F5F
:100C40007F4F88E596E00E94D1148C01CE01019679
:100C50000E947D1617FDB5C065EE72E0CE010196CB
:100C60000E941917BE016F5F7F4F88E596E00E94D2
:100C7000C7144AE0BC01CE0142960E94AE16CE01D6
:100C800042960E94C113AB014F5F5F4F68E576E06B
:100C9000CE0148960E94F01FCE0142960E947D161A
:100CA000CE0101960E947D166EEE72E0CE01019695
:100CB0000E941917BE016F5F7F4FCE0148960E94B8
:100CC000D1144AE0BC01CE014E960E94AE16CE0170
:100CD0004E960E94C1139B0140E050E0BE01685E49
:100CE0007F4FCE0142960E942E17CE014E960E9453
:100CF0007D16CE0101960E947D166EEE72E0CE0149
:100D00004E960E941917BE01625E7F4F88E596E0FD
:100D10000E94C7144AE0BC01CE0184960E94AE1620
:100D2000CE0184960E94C113AB014F5F5F4F68E50F
:100D300076E0CE0101960E94F01FCE0184960E94BB
:100D40007D16CE014E960E947D16CE0101960E9420
:100D5000C113162FBE016E5E7F4FCE014E960E94CC
:100D6000101741E150E068E473E0CE014E960E9416
:100D7000CC2B68E473E08EE190E00E947B23612F2E
:100D800080E390E00E94AE2361E081E390E00E9466
:100D9000AE230E94681F81E995E00E94BB170E9464
:100DA0004C1ACE014E960E947D16CE0101960E94ED
:100DB0007D16CE0142960E947D16CE0148960E9475
:100DC0007D166EE673E0CE0101960E940717BE0104
:100DD0006F5F7F4F88E596E00E94D1148C01CE01B1
:100DE00001960E947D1617FD67C065EE72E0CE0188
:100DF00001960E941917BE016F5F7F4F88E596E04C
:100E00000E94C7144AE0BC01CE0148960E94AE166B
:100E1000CE0148960E94C113AB014F5F5F4F68E55A
:100E200076E0CE0142960E94F01FCE0148960E94C5
:100E30007D16CE0101960E947D16BE016E5E7F4F2B
:100E4000CE0101960E941017CE0101960E94C11397
:100E5000DC01CB010197A109B109CC97A105B1052E
:100E600010F00C944C11CE0101960E94C113162F64
:100E70008FE090E00E94AE23612F70E0709301013B
:100E80006093000160E970E081E995E00E948217BB
:100E90008FE090E00E94BE236AE070E00E94602B29
:100EA0000E9445260E944C1ACE0101960E947D1692
:100EB000CE0142960E947D166DE573E0CE0101964B
:100EC0000E940717BE016F5F7F4F88E596E00E9482
:100ED000D1148C01CE0101960E947D1617FD60C0D1
:100EE00065EE72E0CE0101960E941917BE016F5F98
:100EF0007F4F88E596E00E94C7144AE0BC01CE010E
:100F000048960E94AE16CE0148960E94C113AB01CE
:100F10004F5F5F4F68E576E0CE0142960E94F01F7A
:100F2000CE0148960E947D16CE0101960E947D1644
:100F3000BE016E5E7F4FCE0101960E941017CE015A
:100F400001960E94C1136F3F71058105910519F04B
:100F500010F00C946211CE0101960E94C113162F5D
:100F600085E190E00E94AE23109331046FE970E0B8
:100F700081E995E00E94821785E190E00E94BE23FE
:100F80006AE070E00E94602B0E9445260E944C1A85
:100F9000CE0101960E947D16CE0142960E947D16DA
:100FA0006CE473E0CE0101960E940717BE016F5FEB
:100FB0007F4F88E596E00E94D1148C01CE01019606
:100FC0000E947D1617FD60C065EE72E0CE010196AD
:100FD0000E941917BE016F5F7F4F88E596E00E945F
:100FE000C7144AE0BC01CE0148960E94AE16CE015D
:100FF00048960E94C113AB014F5F5F4F68E576E0F2
:10100000CE0142960E94F01FCE0148960E947D16A6
:10101000CE0101960E947D16BE016E5E7F4FCE010D
:1010200001960E941017CE0101960E94C1136F3FD6
:1010300071058105910519F010F00C947611CE011F
:1010400001960E94C113162F86E190E00E94AE2304
:101050001093E20365EB70E081E995E00E9482174E
:1010600086E190E00E94BE236AE070E00E94602B5F
:101070000E9445260E944C1ACE0101960E947D16C0
:10108000CE0142960E947D166DE373E0CE0101967B
:101090000E940717BE016F5F7F4F88E596E00E94B0
:1010A000D1148C01CE0101960E947D1617FD60C0FF
:1010B00065EE72E0CE0101960E941917BE016F5FC6
:1010C0007F4F88E596E00E94C7144AE0BC01CE013C
:1010D00048960E94AE16CE0148960E94C113AB01FD
:1010E0004F5F5F4F68E576E0CE0142960E94F01FA9
:1010F000CE0148960E947D16CE0101960E947D1673
:10110000BE016E5E7F4FCE0101960E941017CE0188
:1011100001960E94C1136F3F71058105910519F079
:1011200010F00C948A11CE0101960E94C113162F63
:1011300087E190E00E94AE231093E1036BEC70E036
:1011400081E995E00E94821787E190E00E94BE232A
:101150006AE070E00E94602B0E9445260E944C1AB3
:10116000CE0101960E947D16CE0142960E947D1608
:1011700064E373E0CE0101960E940717BE016F5F22
:101180007F4F88E596E00E94D1148C01CE01019634
:101190000E947D1617FD68C065EE72E0CE010196D3
:1011A0000E941917BE016F5F7F4F88E596E00E948D
:1011B000C7144AE0BC01CE0148960E94AE16CE018B
:1011C00048960E94C113AB014F5F5F4F68E576E020
:1011D000CE0142960E94F01FCE0148960E947D16D5
:1011E000CE0101960E947D16BE016E5E7F4FCE013C
:1011F00001960E941017CE0101960E94C113DC01D6
:10120000CB010A97A109B109863F9105A105B10556
:1012100010F00C949E11CE0101960E94C113162F5E
:1012200088E190E00E94AE23612F70E07093B701D7
:101230006093B6016FED70E081E995E00E9482173E
:1012400088E190E00E94BE236AE070E00E94602B7B
:101250000E9445260E944C1ACE0101960E947D16DE
:10126000CE0142960E947D1667E273E0CE010196A0
:101270000E940717BE016F5F7F4F88E596E00E94CE
:10128000D1148C01CE0101960E947D1617FD4EC02F
:1012900065EE72E0CE0101960E941917BE016F5FE4
:1012A0007F4F88E596E00E94C7144AE0BC01CE015A
:1012B00048960E94AE16CE0148960E94C113AB011B
:1012C0004F5F5F4F68E576E0CE0142960E94F01FC7
:1012D000CE0148960E947D16CE0101960E947D1691
:1012E000BE016E5E7F4FCE0101960E941017CE01A7
:1012F00001960E94C113DC01CB010197A109B1093C
:10130000803C984AA105B10510F00C94B411CE01AF
:1013100001960E94C113CB010E94C11DCE0101960E
:101320000E947D16CE0142960E947D166DE173E00B
:10133000CE0101960E940717BE016F5F7F4F88E5BF
:1013400096E00E94D1148C01CE0101960E947D1678
:1013500017FD1AC06FEF80E090E00E94AE230E945C
:10136000E51D6FEF83E690E00E94AE230E94531DBF
:101370006FEF81E390E00E94AE230E94681F0E94FD
:101380004C1AE0E0F0E0099562E173E0CE010196CD
:101390000E940717BE016F5F7F4F88E596E00E94AD
:1013A000D1148C01CE0101960E947D1617FD0CC050
:1013B0006FEF83E690E00E94AE230E94531D0E94CF
:1013C0004C1AE0E0F0E0099566E073E0CE0101968A
:1013D0000E940717BE016F5F7F4F88E596E00E946D
:1013E000D1148C01CE0101960E947D1617FD0CC010
:1013F0006FEF80E090E00E94AE230E94E51D0E9406
:101400004C1AE0E0F0E009956AEF72E0CE01019637
:101410000E940717BE016F5F7F4F88E596E00E942C
:10142000D1148C01CE0101960E947D1617FD0CC0CF
:101430006FEF82E690E00E94AE230E9449260E9450
:101440004C1AE0E0F0E0099564EF72E0CE010196FD
:101450000E940717BE016F5F7F4F88E596E00E94EC
:10146000D1148C01CE0101960E947D1617FD37C064
:1014700081E08093020161E08AE090E00E94AE2367
:1014800080910B04813059F56CEE72E0CE014296EA
:101490000E9419176CE476E0CE0142960E94A215D4
:1014A000BC01CE0148960E9410176DEE72E0CE018D
:1014B00001960E94071740E0BE01685E7F4FCE0193
:1014C00001960E94C023CE0101960E947D16CE0196
:1014D00048960E947D16CE0142960E947D1666EEC9
:1014E00072E0CE0101960E940717BE016F5F7F4F29
:1014F00088E596E00E94D1148C01CE0101960E94ED
:101500007D1617FD36C080910B04813059F56CEEC5
:1015100072E0CE0142960E9419176CE476E0CE018B
:1015200042960E94A215BC01CE0148960E94101757
:101530006EED72E0CE0101960E94071740E0BE01F9
:10154000685E7F4FCE0101960E94C023CE010196B6
:101550000E947D16CE0148960E947D16CE014296CD
:101560000E947D161092020160E08AE090E00E94E5
:10157000AE2368ED72E0CE0101960E940717BE010E
:101580006F5F7F4F88E596E00E94D1148C01CE01F9
:1015900001960E947D1617FD37C081E08093DF031E
:1015A00061E082E190E00E94AE2380910B048130E3
:1015B00059F56CEE72E0CE0142960E9419176CE468
:1015C00076E0CE0142960E94A215BC01CE0148965B
:1015D0000E94101761ED72E0CE0101960E9407177C
:1015E00040E0BE01685E7F4FCE0101960E94C0239D
:1015F000CE0101960E947D16CE0148960E947D166E
:10160000CE0142960E947D166AEC72E0CE010196F0
:101610000E940717BE016F5F7F4F88E596E00E942A
:10162000D1148C01CE0101960E947D1617FD36C0A3
:101630001092DF0360E082E190E00E94AE2380918F
:101640000B04813059F56CEE72E0CE0142960E9497
:1016500019176CE476E0CE0142960E94A215BC01F7
:10166000CE0148960E94101762EC72E0CE010196FE
:101670000E94071740E0BE01685E7F4FCE010196D1
:101680000E94C023CE0101960E947D16CE0148968D
:101690000E947D16CE0142960E947D1664EB72E098
:1016A000CE0101960E940717BE016F5F7F4F88E54C
:1016B00096E00E94D1148C01CE0101960E947D1605
:1016C00017FD05C061E080910B040E948E2A66EA36
:1016D00072E0CE0101960E940717BE016F5F7F4F37
:1016E00088E596E00E94D1148C01CE0101960E94FB
:1016F0007D1617FD05C062E080910B040E948E2AC2
:1017000068E972E0CE0101960E940717BE016F5F83
:101710007F4F88E596E00E94D1148C01CE0101969E
:101720000E947D1617FD3AC010910B04109207011C
:1017300060E083E190E00E94AE23113079F5809162
:101740000B04813059F56CEE72E0CE0142960E9496
:1017500019176CE476E0CE0142960E94A215BC01F6
:10176000CE0148960E9410176DEE70E0CE010196F2
:101770000E94071740E0BE01685E7F4FCE010196D0
:101780000E94C023CE0101960E947D16CE0148968C
:101790000E947D16CE0142960E947D1669E872E095
:1017A000CE0101960E940717BE016F5F7F4F88E54B
:1017B00096E00E94D1148C01CE0101960E947D1604
:1017C00017FD3BC010910B0481E08093820361E020
:1017D00084E190E00E94AE23113079F580910B04F2
:1017E000813059F56CEE72E0CE0142960E941917D5
:1017F0006CE476E0CE0142960E94A215BC01CE01B7
:1018000048960E94101761E071E0CE0101960E9497
:10181000071740E0BE01685E7F4FCE0101960E942F
:10182000C023CE0101960E947D16CE0148960E94EB
:101830007D16CE0142960E947D166AE772E0CE01C7
:1018400001960E940717BE016F5F7F4F88E596E003
:101850000E94D1148C01CE0101960E947D1617FDC5
:101860003BC010910B0482E08093820362E084E12C
:1018700090E00E94AE23113079F580910B04813005
:1018800059F56CEE72E0CE0142960E9419176CE495
:1018900076E0CE0142960E94A215BC01CE01489688
:1018A0000E9410176BE171E0CE0101960E940717AC
:1018B00040E0BE01685E7F4FCE0101960E94C023CA
:1018C000CE0101960E947D16CE0148960E947D169B
:1018D000CE0142960E947D166BE672E0CE01019623
:1018E0000E940717BE016F5F7F4F88E596E00E9458
:1018F000D1148C01CE0101960E947D1617FD3AC0CD
:1019000010910B041092820360E084E190E00E9449
:10191000AE23113079F580910B04813059F56CEECE
:1019200072E0CE0142960E9419176CE476E0CE0177
:1019300042960E94A215BC01CE0148960E94101743
:1019400061E371E0CE0101960E94071740E0BE01FD
:10195000685E7F4FCE0101960E94C023CE010196A2
:101960000E947D16CE0148960E947D16CE014296B9
:101970000E947D1660E672E0CE0101960E94071774
:10198000BE016F5F7F4F88E596E00E94D1148C0105
:10199000CE0101960E947D1617FD26C168E576E00E
:1019A000CE018A960E94101765EE72E0CE01429633
:1019B0000E941917BE016E5E7F4FCE018A960E946B
:1019C000C7144AE0BC01CE0101960E94AE16CE01BA
:1019D00001960E94C113AB014F5F5F4FBE01665D70
:1019E0007F4FCE0184960E94F01FCE0101960E9487
:1019F0007D16CE0142960E947D1660EF72E0CE0108
:101A000001960E941917BE016F5F7F4FCE01849629
:101A10000E94D114092FCE0101960E947D166EE01E
:101A200073E0CE0101960E94191760EF72E0CE01BB
:101A300042960E941917AE014F5F5F4FBE016E5E66
:101A40007F4FCE0184960E94CC13CE0142960E9415
:101A50007D16CE0101960E947D166CEE72E0CE01DD
:101A600042960E941917BE016E5E7F4FCE0184968A
:101A70000E94D1144AE0BC01CE0101960E94AE162C
:101A8000CE0101960E94C1139B0140E050E0BE01CF
:101A90006C5D7F4FCE014E960E942E17CE010196AF
:101AA0000E947D16CE0142960E947D166CEE72E079
:101AB000CE0142960E941917BE016E5E7F4FCE0185
:101AC00084960E94C7144AE0BC01CE0101960E9490
:101AD000AE16CE0101960E94C113AB014F5F5F4F5E
:101AE000BE016C5D7F4FCE0148960E94F01FCE0173
:101AF00001960E947D16CE0142960E947D16CE016F
:101B00004E960E94C113162FBE01685E7F4FCE0114
:101B100001960E9410171150183048F065E571E0E9
:101B200081E995E00E94D1170E94641A45C046E2FF
:101B300050E069E573E0CE0101960E94CC2BC12EE6
:101B4000D12C25E1129FF0011124E85FFE4F83891B
:101B5000948929E5E22E23E0F22EFC01E955F340B9
:101B60005F01C5018E0D9F1DF70161917F019B8B68
:101B70008A8BCE0142960E94D01FFFE7EF16F3E05A
:101B8000FF0679F7602F6095661F6627661F85E15F
:101B90008C9DF0018D9DF00D1124E85FFE4F83892F
:101BA000948987960E94AE2362E471E081E995E012
:101BB0000E94D1170E944C1A0E9445260E94E925D6
:101BC000CE0101960E947D16CE0148960E947D1698
:101BD000CE014E960E947D16CE0184960E947D16FF
:101BE000CE018A960E947D1662E572E0CE010196D2
:101BF0000E940717BE016F5F7F4F88E596E00E9445
:101C0000D1148C01CE0101960E947D1617FD0FC0E4
:101C100068E576E0CE0101960E94101762E0CE01E1
:101C200001960E94BE27CE0101960E947D1667E4B0
:101C300072E0CE0101960E940717BE016F5F7F4FD1
:101C400088E596E00E94D1148C01CE0101960E9495
:101C50007D1617FD04C00E94E51D0E94681F6CE3FD
:101C600072E0CE0101960E940717BE016F5F7F4FA1
:101C700088E596E00E94D1148C01CE0101960E9465
:101C80007D1617FF0E94E92564E372E0CE010196FC
:101C90000E940717BE016F5F7F4F88E596E00E94A4
:101CA000D1148C01CE0101960E947D1617FD84C0CF
:101CB0000E9491362DEF30E040E050E00E944C371A
:101CC00082E0D82ED60E6FE871E081E995E00E949F
:101CD00082174AE060E074E080E090E00E941D2BF3
:101CE0006DE871E081E995E00E94D11700E010E015
:101CF0006D2DC8010E943E3765E070E080E090E005
:101D00000E94D0180F5F1F4F011524E0120781F7C2
:101D1000E12CF12C00E010E0C8010E94BE238D15DB
:101D200029F16FE771E081E995E00E948217C8010F
:101D30000E94BE23C82E4AE0B801CE0101960E943F
:101D4000821660E476E0CE0101960E94A2156C2D09
:101D50000E94E015BC0181E995E00E94BF17CE0109
:101D600001960E947D163FEFE31AF30A65E070E0EA
:101D700080E090E00E94D0180F5F1F4F011584E0B3
:101D8000180751F669E771E081E995E00E94821732
:101D9000E114F10409F0FEC261E771E081E995E028
:101DA0000E94D1170E94452664EF71E080E090E028
:101DB0000E94D018F70109956CE272E0CE010196FD
:101DC0000E940717BE016F5F7F4F88E596E00E9473
:101DD000D1148C01CE0101960E947D1617FF0E943E
:101DE000BC2662E272E0CE0101960E940717BE0196
:101DF0006F5F7F4F88E596E00E94D1148C01CE0181
:101E000001960E947D1617FF0E942A1C6BE172E06A
:101E1000CE0101960E940717BE016F5F7F4F88E5D4
:101E200096E00E94D1148C01CE0101960E947D168D
:101E300017FD09C064EF71E080E090E00E94D018C7
:101E4000E0E0F0E0099510920C0465E172E0CE014B
:101E500001960E940717BE016F5F7F4F88E596E0ED
:101E60000E94D1148C01CE0101960E947D1617FDAF
:101E700022C080910804813011F480930A0468EE36
:101E800073E080E090E00E94D01868E971E08AE693
:101E900096E00E9482176EE576E08AE696E00E9460
:101EA000741763EF72E08AE696E00E94A6178AE64E
:101EB00096E00E94BB176FE072E0CE0101960E948F
:101EC0000717BE016F5F7F4F88E596E00E94D1142F
:101ED0008C01CE0101960E947D1617FD63C0809192
:101EE0000B04813009F04CC06CEE72E0CE014E96CE
:101EF0000E9419176CE476E0CE014E960E94A2155E
:101F0000BC01CE0184960E9410176091000170916F
:101F100001014AE0CE0142960E94821668EF72E00B
:101F2000CE0101960E941917BE016E5E7F4FCE0151
:101F300001960E94A2156FEF72E00E948915BC0104
:101F4000CE0148960E94101741E0BE016C5D7F4FA4
:101F5000CE0148960E94C023CE0148960E947D166D
:101F6000CE0101960E947D16CE0142960E947D16FA
:101F7000CE0184960E947D16CE014E960E947D165B
:101F800060E08BE00E946418209100013091010113
:101F9000A0E6BAEE0E94D7370E94D01861E08BE02D
:101FA0000E94641867E072E0CE0101960E94071754
:101FB000BE016F5F7F4F88E596E00E94D1148C01CF
:101FC000CE0101960E947D1617FD04C08091080481
:101FD0000E942A1A6EEF71E0CE0101960E94071747
:101FE000BE016F5F7F4F88E596E00E94D1148C019F
:101FF000CE0101960E947D1617FD0CC08091080449
:10200000813011F480930A041092E00310926A0563
:102010000E94391969EF71E0CE0101960E940717FD
:10202000BE016F5F7F4F88E596E00E94D1148C015E
:10203000CE0101960E947D1617FD64C06DEE71E021
:10204000CE0101960E9407178091DF03811103C022
:1020500068EE71E002C064EE71E0CE0101960E946C
:102060001D1540914A0650914B06609146067091AD
:102070004706CE0101960E945B1560ED77E080E097
:1020800090E00E94D01880910B04813061F56CEED5
:1020900072E0CE0148960E9419176CE476E0CE01FA
:1020A00048960E94A215BC01CE014E960E941017C0
:1020B000BE016F5F7F4FCE0142960E94101741E034
:1020C000BE01625E7F4FCE0142960E94C023CE01C8
:1020D00042960E947D16CE014E960E947D16CE013C
:1020E00048960E947D1680910804813039F4BE0123
:1020F0006F5F7F4F81E995E00E94BF17CE01019687
:102100000E947D166DED71E0CE0101960E940717C9
:10211000BE016F5F7F4F88E596E00E94D1148C016D
:10212000CE0101960E947D1617FD0AC081E08093C2
:10213000090461E08CE090E00E94AE230E94B21A94
:1021400065ED71E0CE0101960E940717BE016F5F39
:102150007F4F88E596E00E94D1148C01CE01019654
:102160000E947D1617FD0DC01092090460E08CE0FE
:1021700090E00E94AE2361E08BE00E9464180E9410
:10218000B21A6FEC71E0CE0101960E940717BE01F2
:102190006F5F7F4F88E596E00E94D1148C01CE01DD
:1021A00001960E947D1617FD0CC081E08093B3015B
:1021B00061E08DE090E00E94AE2360E08CE00E9440
:1021C000641868EC71E0CE0101960E940717BE0109
:1021D0006F5F7F4F88E596E00E94D1148C01CE019D
:1021E00001960E947D1617FD0BC01092B30160E0AE
:1021F0008DE090E00E94AE2361E08CE00E946418C4
:102200006FEB71E0CE0101960E940717BE016F5F70
:102210007F4F88E596E00E94D1148C01CE01019693
:102220000E947D1617FD23C066EB71E08AE696E0FA
:102230000E94821780910E04813031F462EB71E0CC
:102240008AE696E00E94D11780910E048250823077
:1022500030F460EB71E08AE696E00E94D11764EA00
:1022600071E081E995E00E94D1170E944C1A10920A
:102270000B0410920804E0960FB6F894DEBF0FBE70
:10228000CDBFDF91CF911F910F91FF90EF90DF9025
:10229000CF90BF90AF9008956091000170910101BF
:1022A0004AE0CE0148960E948216BE01685E7F4FCA
:1022B000CE0101960E944416CE0148960E947D16DA
:1022C0000C9433074AE060913104CE0148960E9495
:1022D000DA16BE01685E7F4FCE0101960E94441659
:1022E000CE0148960E947D160C94AB074AE060919F
:1022F000E203CE0148960E94DA16BE01685E7F4F67
:10230000CE0101960E944416CE0148960E947D1689
:102310000C941F084AE06091E103CE0148960E94A8
:10232000DA16BE01685E7F4FCE0101960E94441608
:10233000CE0148960E947D160C9493086091B601D8
:102340007091B7014AE0CE0148960E948216BE0104
:10235000685E7F4FCE0101960E944416CE014896DA
:102360000E947D160C940B096091B0017091B1012F
:102370004AE0CE0148960E948216BE01685E7F4FF9
:10238000CE0101960E944416CE0148960E947D1609
:102390000C94870969E671E081E995E00E94D11704
:1023A0000BCD0895CF92DF92EF92FF920F931F9380
:1023B000CF93DF936C017A018B01C0E0D0E0CE15A2
:1023C000DF0589F0D8016D918D01D601ED91FC9169
:1023D0000190F081E02DC6010995892B11F47E0151
:1023E00002C02196ECCFC701DF91CF911F910F91D1
:1023F000FF90EF90DF90CF900895FC01918D828D3A
:10240000981761F0828DDF01A80FB11D5D968C9148
:10241000928D9F5F9F73928F90E008958FEF9FEF53
:102420000895FC01918D828D981731F0828DE80F0F
:10243000F11D858D90E008958FEF9FEF0895FC01C9
:10244000918D228D892F90E0805C9F4F821B910996
:102450008F739927089581E995E00E941F1221E06A
:10246000892B09F420E0822F0895FC01848DDF017F
:10247000A80FB11DA35ABF4F2C91848D90E00196F7
:102480008F739927848FA689B7892C93A089B189E6
:102490008C9180648C93938D848D981306C00288F0
:1024A000F389E02D80818F7D80830895EF92FF92E4
:1024B0000F931F93CF93DF93EC0181E0888F9B8D67
:1024C0008C8D981305C0E889F989808185FD24C029
:1024D000F62E0B8D10E00F5F1F4F0F731127E02EAC
:1024E0008C8DE8120CC00FB607FCFACFE889F98989
:1024F000808185FFF5CFCE010E943512F1CF8B8D03
:10250000FE01E80FF11DE35AFF4FF0820B8FEA89BD
:10251000FB898081806207C0EE89FF896083E8893A
:10252000F98980818064808381E090E0DF91CF91A0
:102530001F910F91FF90EF900895CF93DF93EC01DF
:10254000888D8823C9F0EA89FB89808185FD05C0D3
:10255000A889B9898C9186FD0FC00FB607FCF5CF0D
:10256000808185FFF2CFA889B9898C9185FFEDCF55
:10257000CE010E943512E7CFDF91CF91089580E020
:1025800090E0892B29F00E942B1281110C940000FD
:102590000895833081F028F4813099F08230A1F0E1
:1025A00008958730A9F08830B9F08430D1F4809153
:1025B00080008F7D03C0809180008F7780938000A2
:1025C000089584B58F7702C084B58F7D84BD08954A
:1025D0008091B0008F7703C08091B0008F7D809391
:1025E000B00008953FB7F89480912D0490912E0487
:1025F000A0912F04B091300426B5A89B05C02F3FB1
:1026000019F00196A11DB11D3FBFBA2FA92F982F18
:102610008827820F911DA11DB11DBC01CD0142E093
:10262000660F771F881F991F4A95D1F708950E945A
:102630000B3AAF92BF92CF92DF92EF92FF920F933D
:102640001F93CF93DF937B018A01FB014481558166
:102650004115510561F1FC012481358121153105B8
:1026600031F12417350718F10217130718F0890103
:1026700001501109FC01A080B180C501DFEFCFEF4F
:102680006501C00ED11EC816D906A0F0F701608101
:1026900071810E94523A009769F09C012A193B0906
:1026A0000217130710F0D22FC32F0196ECCF8FEF34
:1026B0009FEF02C08D2F9C2FDF91CF911F910F9123
:1026C000FF90EF90DF90CF90BF90AF9008950F9361
:1026D0001F93CF93DF93EC0188819981009729F0B4
:1026E0002A813B812617370788F48B016F5F7F4F64
:1026F0000E944139009761F0998388831B830A8384
:102700002C813D81232B11F4FC01108281E001C05A
:1027100080E0DF91CF911F910F910895CF93DF93C8
:10272000EC0188819981009711F00E94A9381982E3
:1027300018821D821C821B821A82DF91CF9108951C
:10274000EF92FF920F931F93CF93DF93EC017B01E6
:102750008A01BA010E946713811104C0CE010E9450
:102760008E1307C01D830C83B701888199810E9455
:102770003C3ACE01DF91CF911F910F91FF90EF90E6
:102780000895FC0180819181009711F00C949F368F
:1027900060E070E0CB0108952F923F924F925F92DC
:1027A0006F927F928F929F92AF92BF92CF92DF9261
:1027B000EF92FF920F931F93CF93DF93FC0144801E
:1027C00055804114510409F4CFC0FB016480758029
:1027D0006114710409F4C8C07A016B01EC01FA01BB
:1027E000A480B580A618B70808811981A114B10486
:1027F000C1F4F60160817181C8010E94523AEC0176
:10280000892B09F4B1C0F701608171814481558140
:10281000CE010E94183AF701048115810C0F1D1F8B
:10282000E8CFB7FE02C0480106C0FB01208031801E
:102830004201C80142C0F60160817181C4010E9459
:10284000523A2C01892B19F1320168187908A30139
:10285000B401C8010E94183A060D171DF7016081E6
:10286000718144815581C8010E94183AF701848121
:102870009581080F191FF60184809580840C951CA2
:102880008C819D818A0D9B1D9D838C83D4CFB40147
:10289000C801DF91CF911F910F91FF90EF90DF90D2
:1028A000CF90BF90AF909F908F907F906F905F90F0
:1028B0004F903F902F900C943C3AB1010E94523AB5
:1028C000009729F0860D971D8A0C9B1CF6CF841467
:1028D000950409F449C08A819B818815990560F4A3
:1028E000B4016F5F7F4FC8010E9441390097E1F149
:1028F000998388839B828A824C815D8141505109F2
:1029000057FD32C0B601CE010E9419138C0197FD0C
:102910002BC088819981F60124813581200F311FD8
:10292000820F931F4C815D81421B530BBC018A0DAA
:102930009B1D0E94213A8C819D818A0D9B1D9D8348
:102940008C8328813981F901E80FF91F1082888171
:102950009981F7016081718144815581800F911FB8
:102960000E94183AA801CACFDF91CF911F910F9111
:10297000FF90EF90DF90CF90BF90AF909F908F909F
:102980007F906F905F904F903F902F900895FC0143
:1029900044815581FB0124813581421B530B0C94EA
:1029A0001913CF93DF93FC0124813581232B71F020
:1029B000FB01DC01CD91DC9160817181CE010E942F
:1029C000523A009719F08C1B9D0B02C08FEF9FEFBE
:1029D000DF91CF910895FC0124813581FB01448171
:1029E00055812417350721F5FC0180819181FB0178
:1029F00060817181009719F061157105A1F461156D
:102A0000710549F0232BB1F0FB01808190E0919595
:102A1000819591090AC0009769F0232B59F0FC01B8
:102A2000808190E002C00E94333A21E0892B19F0A6
:102A300020E001C021E0822F0895EF92FF920F93D2
:102A40001F93CF93DF936115710511F480E01EC0D1
:102A50008B01EC01CB010E94CD360097B1F02C81A7
:102A60003D817C01E20EF31EB701CE010E94671387
:102A7000882361F3288139818C819D81B801820F7F
:102A8000931F0E94C636FD82EC8281E0DF91CF91D8
:102A90001F910F91FF90EF900895CF93DF93EC017A
:102AA0000E941D15811103C0CE010E948E13CE011C
:102AB000DF91CF910895EF92FF920F931F93CF93E1
:102AC000DF93FC01248135816115710511F480E0EB
:102AD00019C041155105A9F07B01EC018A01020FD3
:102AE000131FB8010E946713882389F32881398155
:102AF0008C819D81B701820F931F0E943C3A1D83F8
:102B00000C8381E0DF91CF911F910F91FF90EF90A7
:102B10000895CF93DF93EC016115710561F0FB011E
:102B200001900020E9F73197AF01461B570B0E9437
:102B30005B15811103C0CE010E948E13CE01DF917F
:102B4000CF910895CF93DF93EC01FB014481558130
:102B5000608171810E945B15811103C0CE010E94CA
:102B60008E13CE01DF91CF910895EF92FF920F93D4
:102B70001F93CF93DF9300D000D0CDB7DEB77C0199
:102B8000862F4AE08E010F5F1F4FB80190E00E9430
:102B9000E136F80101900020E9F73197AF01401BC1
:102BA000510BB801C7010E945B150F900F900F9059
:102BB0000F90DF91CF911F910F91FF90EF900895AB
:102BC000CF93DF93EC010E94B515811103C0CE01B4
:102BD0000E948E13CE01DF91CF910895EF92FF9264
:102BE0000F931F93CF93DF93EC018B016115710558
:102BF00051F0CB010E94CD367C01BC01CE010E9478
:102C00006713811104C0CE010E948E1307C0FD829C
:102C1000EC82B801888199810E94C636CE01DF918D
:102C2000CF911F910F91FF90EF900895CF93DF9375
:102C3000EC016115710559F0FB0101900020E9F7E5
:102C40003197AF01461B570B0E94A01302C00E9490
:102C50008E13CE01DF91CF910895CF93DF93EC01D6
:102C6000FB018617970761F060817181611571051D
:102C700029F0448155810E94A01302C00E948E1346
:102C8000CE01DF91CF9108950F931F93CF93DF93E0
:102C90008C01EB01FC01808191810097B1F068818A
:102CA00079816115710579F0428153812C813D81D3
:102CB0004217530740F00E943C3A8C819D81F801F5
:102CC0009583848313C00E94A93888819981F80173
:102CD000918380838A819B81938382838C819D8170
:102CE00095838483198218821B821A821D821C821A
:102CF000DF91CF911F910F910895FC018081918107
:102D00000C94A9380F931F93CF93DF93CDB7DEB701
:102D100061970FB6F894DEBF0FBECDBF8C01CB011B
:102D2000F80111821082138212821582148250E0FF
:102D3000BE016F5F7F4F0E940137BE016F5F7F4F03
:102D4000C8010E94161661960FB6F894DEBF0FBE3A
:102D5000CDBFDF91CF911F910F9108950F931F93D6
:102D6000CF93DF93CDB7DEB762970FB6F894DEBF8F
:102D70000FBECDBF8C01CB01F801118210821382EE
:102D800012821582148250E0BE016F5F7F4F0E9455
:102D9000D636BE016F5F7F4FC8010E94161662963D
:102DA0000FB6F894DEBF0FBECDBFDF91CF911F915C
:102DB0000F9108950F931F93CF93DF93CDB7DEB795
:102DC00029970FB6F894DEBF0FBECDBF8C01862FBA
:102DD000F80111821082138212821582148250E04F
:102DE000BE016F5F7F4F90E00E940137BE016F5FB1
:102DF0007F4FC8010E94161629960FB6F894DEBFC1
:102E00000FBECDBFDF91CF911F910F910895FC01AF
:102E10001182108213821282158214820C94EE1594
:102E2000FC011182108213821282158214820C948A
:102E30002D16FC01118210821382128215821482D7
:102E40006115710551F0FB0101900020E9F7319700
:102E5000AF01461B570B0C94A0130895BF92CF925D
:102E6000DF92EF92FF920F931F93CF93DF937C013A
:102E70006B018A01E9012417350720F4812F8901AC
:102E8000C42FD82F6EE073E0C7010E941917D60136
:102E900014968D919C91159708171907D0F48C17EB
:102EA0009D0708F4EC01D601ED91FC911197EC0F10
:102EB000FD1FB08010824D915C91BA01600F711FAF
:102EC000C7010E941616D601ED91FC91EC0FFD1F73
:102ED000B082C701DF91CF911F910F91FF90EF90CA
:102EE000DF90CF90BF900895DC01ED91FC91DB0164
:102EF00014964D915C9115976D917C910280F381B0
:102F0000E02D0994EF92FF920F931F93CF93DF93DD
:102F10008C017B01C0E0D0E0F701EC0FFD1F649154
:102F2000662361F0D801ED91FC910190F081E02DD4
:102F3000C8010995892B11F02196EECFCE01DF91C2
:102F4000CF911F910F91FF90EF900895611571053A
:102F500079F0FB0101900020E9F73197AF01461BA2
:102F6000570BDC01ED91FC910280F381E02D099477
:102F700080E090E008956CE073E00C94A6170F9346
:102F80001F93CF93DF93EC010E9474178C01CE0145
:102F90000E94BB17800F911FDF91CF911F910F915E
:102FA00008950F931F93CF93DF93EC010E94821734
:102FB0008C01CE010E94BB17800F911FDF91CF9132
:102FC0001F910F9108951F920F920FB60F92112427
:102FD0002F933F934F935F936F937F938F939F9321
:102FE000AF93BF93EF93FF9381E995E00E94351271
:102FF000FF91EF91BF91AF919F918F917F916F91D1
:103000005F914F913F912F910F900FBE0F901F90A6
:1030100018951F920F920FB60F9211242F938F9332
:103020009F93EF93FF93E091A105F091A20580811A
:10303000E091A705F091A80582FD12C090818091D2
:10304000AA058F5F8F732091AB05821751F0E09135
:10305000AA05F0E0EF56FA4F958F8093AA0501C0BC
:103060008081FF91EF919F918F912F910F900FBED3
:103070000F901F901895CF93DF93282F30E0F90120
:10308000EE56FB4F8491F901EB5BF74FD491F901B8
:10309000EF5CF74FC491CC2391F081110E94C912CB
:1030A000EC2FF0E0EE0FFF1FE95DF74FA591B49113
:1030B000EC91ED2381E090E021F480E002C080E01B
:1030C00090E0DF91CF9108951F93CF93DF93282F46
:1030D00030E0F901EE56FB4F8491F901EB5BF74FBD
:1030E000D491F901EF5CF74FC491CC23C9F0162FAE
:1030F00081110E94C912EC2FF0E0EE0FFF1FE35E7A
:10310000F74FA591B4918FB7F894111105C09C9118
:10311000ED2FE095E92302C0EC91ED2BEC938FBFEE
:10312000DF91CF911F910895CF93DF9390E0FC0141
:10313000EB5BF74F2491FC01EF5CF74F8491882300
:1031400061F190E0880F991FFC01E857FB4FC59192
:10315000D491FC01E35EF74FA591B491611109C0D0
:103160009FB7F8948881209582238883EC912E2341
:103170000BC0623061F49FB7F8943881822F80953C
:1031800083238883EC912E2B2C939FBF06C08FB78F
:10319000F894E8812E2B28838FBFDF91CF9108957B
:1031A0008F929F92AF92BF92CF92DF92EF92FF9257
:1031B0006B017C010E94F2124B015C01C114D1042D
:1031C000E104F104F1F00E94F212DC01CB01881954
:1031D0009909AA09BB09883E9340A105B10570F37E
:1031E00021E0C21AD108E108F10888EE880E83E0D8
:1031F000981EA11CB11CC114D104E104F10419F7FB
:10320000DDCFFF90EF90DF90CF90BF90AF909F9079
:103210008F9008952FB7F8946091290470912A0433
:1032200080912B0490912C042FBF089580918103ED
:10323000813019F46FEA76E006C080910A0481308B
:1032400031F460EC76E086E496E00C941D1567EBB3
:1032500076E086E496E00E941D154091500650915C
:10326000510660914C0670914D0686E496E00C94F0
:103270005B15EF92FF920F931F93CF93DF93CDB720
:10328000DEB768970FB6F894DEBF0FBECDBF1092C1
:10329000B50160E08EE090E00E94AE2364EA76E043
:1032A00086E496E00E94EE150E94161966E476E028
:1032B00081E995E00E94BF1768EE73E080E090E03E
:1032C0000E94D01808EB11E0F801E688F788C701E2
:1032D00046960E94BE23813009F061C067EF73E01B
:1032E000C7010E945523BC01CE0101960E94191707
:1032F000BE016F5F7F4F8CE496E00E94EB14F82EC6
:10330000CE0101960E947D16F11010920D0468EE18
:1033100073E080E090E00E94D01867EF73E0F8015E
:10332000868997890E945523BC01CE010D960E9483
:1033300019176CEE72E0CE0107960E941917BE01B4
:10334000635F7F4FCE0107960E94A215BC01CE019C
:1033500043960E94101766E476E0CE0101960E9423
:10336000101740E0BE016D5E7F4FCE0101960E94B6
:10337000C023CE0101960E947D16CE0143960E9485
:103380007D16CE0107960E947D16CE010D960E94F5
:103390007D1668EE73E080E090E00E94D018085E31
:1033A0001F4FF2E0083A1F0709F08ECF80910D04FD
:1033B0008130B9F568EE73E080E090E00E94D018AB
:1033C0006CEE72E0CE0107960E9419176CE476E06D
:1033D000CE0107960E94A215BC01CE010D960E9457
:1033E00010176AE976E0CE0101960E94071740E0C7
:1033F000BE01635F7F4FCE0101960E94C023CE01C4
:1034000001960E947D16CE010D960E947D16CE017A
:1034100007960E947D1668EE73E080E090E00E94BF
:10342000D01880918203823021F41092040110920E
:1034300003011092810310920A0468960FB6F89463
:10344000DEBF0FBECDBFDF91CF911F910F91FF90D7
:10345000EF900895813011F480930A040E940A19B4
:103460006093320470933304809334049093350452
:1034700081E08093E0030C942D248091B50181308C
:1034800031F41092E00310926A050C9439198111FD
:1034900002C00C942A1A089561E08BE00E9464181F
:1034A00064E670E080E090E00E94D01860E08BE07D
:1034B0000E94641864E670E080E090E00E94D018FA
:1034C00061E08BE00C9464180E944C1A0C944C1A26
:1034D000DF92EF92FF920F931F93CF93DF9300D071
:1034E00000D000D0CDB7DEB77C0108EB11E067EF6C
:1034F00073E0F801868997890E945523BC01CE01AB
:1035000001960E941917B701CE0101960E94EB1493
:10351000D82ECE0101960E947D16D11008C0085EFB
:103520001F4FF2E0083A1F0711F780E00DC0B70106
:103530008CE496E00E942D16F801868997894296C0
:103540000E94BE23813059F726960FB6F894DEBF4D
:103550000FBECDBFDF91CF911F910F91FF90EF90E4
:10356000DF9008950F931F93CF93DF9300D000D087
:1035700000D0CDB7DEB760ED77E080E090E00E944C
:10358000D0180E94DB2A10928506109284061092B1
:1035900083061092820610928106109280068DE9B1
:1035A00091E09093870680938606909176069631F7
:1035B00008F057C02DEB30E0309381062093800651
:1035C0002BE931E030938306209382062CE231E030
:1035D000309385062093840620916800983050F03F
:1035E00031E09E3008F430E081E001C0880F3A9568
:1035F000EAF701C084E0822B80936800983038F0AD
:103600009E3040F0963148F020E030E008C02DE6D2
:1036100030E005C02BE630E002C02CE630E030930D
:103620007E0620937D06983030F481E001C0880F3B
:103630009A95EAF70EC0292F30E09E3018F42850F2
:10364000310902C02E50310981E001C0880F2A954E
:10365000EAF780937F06809186069091870601970E
:10366000F1F78091840690918506892B49F1E091CC
:103670003804F091390486E0EA36F80709F130970A
:1036800039F0A389B4899C918589809589238C938D
:10369000809188068E7F809388061092360410925F
:1036A00037048AE696E09093390480933804E091D9
:1036B0007D06F0917E06908180917F06892B808324
:1036C0001AE067E976E08AE696E00E94D11768EC96
:1036D00070E080E090E00E94D018115091F763E90B
:1036E00076E08AE696E00E94D1176AE070E080E01A
:1036F00090E00E94D0188AE696E00E942621892B4D
:1037000009F460C08AE696E00E942621892B79F0B0
:103710008AE696E00E943E2180930F040E94112CBD
:1037200064E170E080E090E00E94D018EBCF6EE89A
:1037300076E0CE0101960E940717BE016F5F7F4FB2
:1037400088E596E00E94D1148C01CE0101960E947A
:103750007D1617FD03C081E080930E0467E876E0D4
:10376000CE0101960E940717BE016F5F7F4F88E56B
:1037700096E00E94D1148C01CE0101960E947D1624
:1037800017FD03C082E080930E0464E876E0CE016A
:1037900001960E940717BE016F5F7F4F88E596E094
:1037A0000E94D1148C01CE0101960E947D1617FD56
:1037B00003C083E080930E046EE073E088E596E03A
:1037C0000E9416166AE776E08AE696E00E94D11714
:1037D00064E670E080E090E00E94D01860E776E058
:1037E0008AE696E00E94D11764E670E080E090E0FF
:1037F0000E94D01862E676E08AE696E00E94D11731
:1038000064E670E080E090E00E94D01866E576E023
:103810008AE696E00E94D11764E670E080E090E0CE
:103820000E94D01880910904813019F461E576E096
:1038300002C06CE476E08AE696E00E94D1172696F4
:103840000FB6F894DEBF0FBECDBFDF91CF911F91B1
:103850000F910895AF92BF92CF92DF92EF92FF92B5
:103860000F931F93CF93DF9300D000D000D0CDB73C
:10387000DEB769E475E081E995E00E94D11765E45F
:1038800075E081E995E00E94821760E476E0CE0160
:1038900001960E9410176FE375E0CE0101960E9419
:1038A0004D15BC0181E995E00E947417CE01019687
:1038B0000E947D1660E476E0CE0101960E9410170A
:1038C0006DE375E0CE0101960E944D15BC0181E9C2
:1038D00095E00E947417CE0101960E947D1660E467
:1038E00076E0CE0101960E9410176BE375E0CE01E1
:1038F00001960E944D15BC0181E995E00E94741764
:10390000CE0101960E947D1660E476E0CE0101961C
:103910000E94101769E375E0CE0101960E944D15D3
:10392000BC0181E995E00E947417CE0101960E94C6
:103930007D1660E476E0CE0101960E94101767E3E1
:1039400075E0CE0101960E944D15BC0181E995E01C
:103950000E947417CE0101960E947D1660E476E005
:10396000CE0101960E94101765E375E0CE01019625
:103970000E944D15BC0181E995E00E94BF17CE0160
:1039800001960E947D1608EB11E0E12CF12C67EF07
:1039900073E0F801868997890E945523F801C6884B
:1039A000D788C60143960E94BE23B82EC601429610
:1039B0000E94BE23D82EFFEFEF1AFF0A4AE0B7019C
:1039C000CE0101960E94AE1660E476E0CE0101962B
:1039D0000E94A21567EF73E00E94891560E476E00B
:1039E0000E94A2156D2D0E94E01560E476E00E9411
:1039F000A2156B2D0E94E015BC0181E995E00E94A3
:103A00007417CE0101960E947D16F801C688D788EA
:103A1000C60146960E94BE23B82EC60145960E9456
:103A2000BE23A82EC60144960E94BE23D82E60E471
:103A300076E0CE0101960E9410176D2DCE01019601
:103A40000E94E01560E476E00E94A2156A2D0E94B3
:103A5000E01560E476E00E94A2156B2D0E94E0154F
:103A6000BC0181E995E00E94BF17CE0101960E943A
:103A70007D16085E1F4FFAE0EF16F10409F087CFBC
:103A80000E94452626960FB6F894DEBF0FBECDBF26
:103A9000DF91CF911F910F91FF90EF90DF90CF902A
:103AA000BF90AF900895CF93DF9383E690E00E949C
:103AB000BE23813009F458C060E275E081E995E0E9
:103AC0000E94D117C4E6D0E06FEFCE010E94AE2372
:103AD0006AE070E080E090E00E94D0182196C03942
:103AE00081E0D80789F767E075E081E995E00E94F9
:103AF000D1170E944526CDECD1E0BE016551710978
:103B000089819A810E947B23FE01349789819A8161
:103B1000608142960E94AE23FE01339789819A818B
:103B2000608143960E94AE23FE01329789819A817B
:103B3000608144960E94AE23FE01319789819A816B
:103B4000608145960E94AE2389819A81688146965C
:103B50000E94AE23689682E0CD3BD80771F661E003
:103B600083E690E00E94AE2383E690E00E94BE23AD
:103B7000813021F4DF91CF910C942A1CDF91CF91F9
:103B80000895CF93DF93D82FC92F682F80E190E05D
:103B90000E943E376C2F81E190E00E943E37D09327
:103BA000B001C093B10164EF74E081E995E00E9437
:103BB00082178091B0019091B1010E94812B0E94E7
:103BC0004526DF91CF910C944C1ACF93DF9380E080
:103BD00090E00E94BE23813009F468C060E376E083
:103BE00081E995E00E94D117C0E0D0E06FEFCE01EF
:103BF0000E94AE236AE070E080E090E00E94D0185E
:103C00002196CE31D10591F760E176E081E995E02A
:103C10000E94D1170E94452661E08AE090E00E9450
:103C2000AE2361E08BE090E00E94AE2360E08CE088
:103C300090E00E94AE2361E08DE090E00E94AE2310
:103C400061E08EE090E00E94AE236FE08FE090E0B4
:103C50000E94AE238CE390E00E94C11D60E082E1EF
:103C600090E00E94AE2361E083E190E00E94AE23E9
:103C700060E084E190E00E94AE2360E085E190E0A6
:103C80000E94AE2360E086E190E00E94AE2360E0F7
:103C900087E190E00E94AE2368E288E190E00E9414
:103CA000AE2361E080E090E00E94AE2380E090E0EF
:103CB0000E94BE23813009F008C16DEF75E081E9F3
:103CC00095E00E94D1178AE090E00E94BE23809385
:103CD000020163EF75E081E995E00E94821780910F
:103CE0000201082E000C990B0E94932B88E190E0B2
:103CF0000E94BE2390E09093B7018093B60168EED6
:103D000075E081E995E00E9482178091B60190915B
:103D1000B7010E94812B8CE090E00E94BE2380932B
:103D2000090461EE75E081E995E00E9482178091B7
:103D30000904082E000C990B0E94932B8DE090E053
:103D40000E94BE238093B3016BED75E081E995E09D
:103D50000E9482178091B301082E000C990B0E94DB
:103D6000932B8EE090E00E94BE238093B50163ED1B
:103D700075E081E995E00E9482178091B501082ED7
:103D8000000C990B0E94932B8FE090E00E94BE23C1
:103D900090E0909301018093000167EC75E081E968
:103DA00095E00E94821780910001909101010E948C
:103DB000812B80E190E00E94BE23C82F81E190E03A
:103DC0000E94BE23C093B0018093B10168EB75E0FF
:103DD00081E995E00E9482178091B0019091B10134
:103DE0000E94812B82E190E00E94BE238093DF033A
:103DF0006DEA75E081E995E00E9482178091DF030A
:103E0000082E000C990B0E94932B83E190E00E94F6
:103E1000BE238093070160EA75E081E995E00E9486
:103E2000821780910701082E000C990B0E94932B9A
:103E300087E190E00E94BE238093E1036FE875E084
:103E400081E995E00E9482176AE070E08091E103C9
:103E50000E94602B84E190E00E94BE238093820345
:103E600061E875E081E995E00E9482178091820304
:103E7000082E000C990B0E94932B85E190E00E9484
:103E8000BE23809331046EE675E081E995E00E94DF
:103E900082176AE070E0809131040E94602B86E115
:103EA00090E00E94BE238093E2036BE575E081E918
:103EB00095E00E9482176AE070E08091E2030E9420
:103EC000602BDF91CF910C944526DF91CF9108951F
:103ED00081E390E00E94BE23813081F16DED74E0BA
:103EE00081E995E00E94D11762EC74E081E995E0E8
:103EF0000E94D1170E9445266FE073E08EE596E0A0
:103F00000E94161686E18093A80241E150E068E421
:103F100073E08EE596E00E94CC2B68E473E08EE1BE
:103F200090E00E947B236091A80280E390E00E94D1
:103F3000AE2361E081E390E00E94AE2381E390E054
:103F40000E94BE23813059F568E473E08EE190E071
:103F50000E945523BC018EE596E00E94161680E370
:103F600090E00E94BE238093A80269EB74E081E98F
:103F700095E00E9482176EE576E081E995E00E9467
:103F8000BF1766EA74E081E995E00E9482176AE053
:103F900070E08091A8020E94602B0C944526089541
:103FA000EF92FF920F931F93CF93DF931F92CDB7A2
:103FB000DEB77C01FC0100811181C80169830E9488
:103FC00036376981681719F0C8010E943E37C7016A
:103FD0000F90DF91CF911F910F91FF90EF90089577
:103FE000CF93DF93EC01FB01248135810E942E17D2
:103FF000CE01DF91CF91089585ED8093BC00809133
:10400000BC0084FDFCCF1092A903089540913D05AA
:10401000262F30E0240F311D21323105DCF42091B0
:10402000A9032430C9F4FC0180E090E0861758F41D
:1040300030913D052191DC01A55EBA4FA30FB11D62
:104040002C930196F3CF80913D05680F60933D0559
:1040500080E0089581E0089582E008950895E09158
:10406000CA038091CB03E81730F4F0E0E655FC4F2B
:10407000808190E008958FEF9FEF08959091CA039B
:104080008091CB03981750F4E92FF0E0E655FC4FF0
:10409000208130E09F5F9093CA0302C02FEF3FEF73
:1040A000C90108958091CB0390E02091CA03821B3F
:1040B00091090895CF92DF92EF92FF920F931F9391
:1040C000CF93DF937C01262F972F8A0180915A048A
:1040D000882391F0C62FD72F6E01C40ED51ECC15A4
:1040E000DD0571F06991D701ED91FC910190F081AE
:1040F000E02DC7010995F3CF642F822F0E9406207F
:10410000C801DF91CF911F910F91FF90EF90DF9049
:10411000CF900895CF93DF931F92CDB7DEB7698319
:1041200020915A042223D1F020917F03203240F0C5
:1041300021E030E0FC013383228380E090E015C071
:1041400080918003E82FF0E0E65CFB4F998190833B
:104150008F5F8093800380937F0305C061E0CE0171
:1041600001960E94062081E090E00F90DF91CF91B0
:10417000089520913804309139042817390771F4D3
:104180009091370480913604981741F0E0913704FC
:10419000F0E0E55AFB4F808190E008958FEF9FEFAC
:1041A000089508951F93CF93DF93DC015C962D91C2
:1041B0003C915D972115310539F481E090E013962B
:1041C0009C938E9312973DC05196ED91FC9152971E
:1041D00050969C915097892F80951FB75E964C9171
:1041E0005E9741FB772770F941FD6095F894408117
:1041F000772311F0492B01C048234083E90121971F
:10420000F1F748E0508160FF02C0592B01C05823EC
:104210005083E9012197F1F76695415099F777238B
:1042200021F090818923808303C08081982B908323
:104230001FBF5C968D919C915D970197F1F721E0EE
:1042400030E0C901DF91CF911F910895209138048A
:10425000309139042817390771F480913604209180
:10426000370490E080549F4F821B910960EC70E00E
:104270000E94E637089580E090E008952091380488
:104280003091390428173907C9F490913704809187
:104290003604981799F0E0913704F0E0E55AFB4FA7
:1042A00020818091370490E0019660EC70E00E94DC
:1042B000E63780933704822F90E008958FEF9FEFC9
:1042C00008951F920F920FB60F9211242F933F93D0
:1042D0008F939F93AF93BF938091290490912A0469
:1042E000A0912B04B0912C043091620523E0230FA0
:1042F0002D3720F40196A11DB11D05C026E8230F1E
:104300000296A11DB11D209362058093290490930C
:104310002A04A0932B04B0932C0480912D04909137
:104320002E04A0912F04B09130040196A11DB11D5F
:1043300080932D0490932E04A0932F04B093300407
:10434000BF91AF919F918F913F912F910F900FBE91
:104350000F901F9018951F920F920FB60F92112475
:104360002F933F934F935F936F937F938F939F937D
:10437000AF93BF93EF93FF938091B900887F80360E
:1043800009F49CC068F5883209F45BC090F4803170
:1043900009F454C038F4882309F4F6C0883009F4CD
:1043A0004DC0F6C0883109F44CC0803209F45DC0BC
:1043B000EFC0803409F468C048F4803309F455C074
:1043C000883309F0E5C08093A703D8C0803509F48D
:1043D0004FC0883509F45DC0883409F0D9C0D6C013
:1043E000883909F4C7C0A8F4883709F467C038F4DD
:1043F000883609F463C0803709F460C0C9C08838C2
:1044000009F4B8C0803909F45FC0803809F0C0C031
:104410005BC0803B09F486C038F4803A09F466C07A
:10442000883A09F47FC0B4C0803C09F4A7C0883C36
:1044300009F4A4C0883B09F48AC0AAC08091A403EF
:1044400010C09091A6038091A503981770F5E09194
:10445000A60381E08E0F8093A603F0E0ED57FC4F9A
:1044600080818093BB0085EC86C08093A7038EC0BB
:10447000E091A60381E08E0F8093A6038091BB009C
:10448000F0E0ED57FC4F80839091A6038091A50347
:104490006EC0E091A60381E08E0F8093A603809109
:1044A000BB00F0E0ED57FC4F80838091A8038111A1
:1044B0006DC081E08093A30384EA61C083E08093B0
:1044C000A90310926105CFCF80916105803208F079
:1044D00051C0E091610581E08E0F8093610580916C
:1044E000BB00F0E0EF5BFA4F8083BDCF85EC80939B
:1044F000BC001092A90380916105803230F4E091F4
:104500006105F0E0EF5BFA4F10826091610570E0A9
:10451000E0913F05F091400581E495E00995109206
:10452000610536C084E08093A90310923E05109285
:104530003D05E0913B05F0913C05099580913D05D5
:10454000811105C081E080933D0510921B05E0912B
:104550003E0581E08E0F80933E05F0E0E55EFA4F68
:1045600080818093BB0090913E0580913D05981716
:1045700008F479CF85E88093BC000AC085EC80936D
:10458000BC001092A90304C01092A7030E94FC1F54
:10459000FF91EF91BF91AF919F918F917F916F911B
:1045A0005F914F913F912F910F900FBE0F901F90F1
:1045B00018951F920F920FB60F9211242F933F93CD
:1045C0004F935F936F937F938F939F93AF93BF931B
:1045D000EF93FF93E0913804F0913904309709F498
:1045E00053C0968DA685B785858591FF04C09C91A3
:1045F000892329F449C09C91892309F045C0A389E6
:10460000B4899C918589809589238C938689978923
:104610000197F1F7608D718DA685B785558538E0D6
:1046200020E0CB010197F1F7822F90E095958795D7
:10463000282F4C91452309F02068315091F7868D41
:1046400081FD20958091360490E0019660EC70E049
:104650000E94E63790913704981749F0A0913604EC
:10466000B0E0A55ABB4F2C938093360403C0868DCF
:104670008160868F828D938D0197F1F7A389B4892C
:104680009C918589892B8C93FF91EF91BF91AF917C
:104690009F918F917F916F915F914F913F912F915A
:1046A0000F900FBE0F901F901895CF92DF92EF9250
:1046B000FF920F931F93CF93DF93EB017B0121E1D7
:1046C000E20EF11C8B016C01C61AD70AC601800FDD
:1046D000911F0E943637F80181938F01EE15FF0577
:1046E000A9F7CE01DF91CF911F910F91FF90EF902D
:1046F000DF90CF900895AF92BF92CF92DF92EF926A
:10470000FF920F931F93CF93DF9300D0CDB7DEB707
:104710008B016B0121E1C20ED11C7B015C01A61A49
:10472000B70A95012E0D3F1DF70161917F013A8374
:104730002983CE0101960E94D01FEC14FD0489F755
:10474000C8010F900F90DF91CF911F910F91FF90B3
:10475000EF90DF90CF90BF90AF900895CF93DF930D
:1047600000D0CDB7DEB79A838983CE0101960E942F
:10477000D01F0F900F90DF91CF9108950C94363792
:104780000F931F93CF93DF93EC018B018091020174
:10479000813019F0413009F046C068EE73E080E0E6
:1047A00090E00E94D01868EE76E08AE696E00E94DB
:1047B0008217B8018AE696E00E94741766EE76E0EA
:1047C0008AE696E00E94D11764EF71E080E090E005
:1047D0000E94D018BE018AE696E00E94741764EF2A
:1047E00071E080E090E00E94D018E0916A06F091BC
:1047F0006B060190F081E02D6AE18AE696E009956A
:1048000064EF71E080E090E00E94D01869E173E00D
:1048100081E995E00E94A61768E873E180E090E0E6
:104820000E94D01806C065E173E081E995E00E941E
:10483000A617B80181E995E00E94741760E476E05C
:1048400081E995E00E947417BE0181E995E0DF914E
:10485000CF911F910F910C94BF17EF92FF920F937E
:104860001F93CF93DF93CDB7DEB768970FB6F89459
:10487000DEBF0FBECDBF0E940A1900913204109115
:1048800033042091340430913504601B710B820B8A
:10489000930B28EE33E040E050E00E94B537809162
:1048A000310490E0A0E0B0E082179307A407B507B9
:1048B00008F0D3C011E01093B50161E08EE090E004
:1048C0000E94AE231093B2016BEF76E086E496E08F
:1048D0000E94EE150E94161966E476E081E995E0E3
:1048E0000E94BF1768EE73E080E090E00E94D0184D
:1048F00008EB11E0F801E688F788C70146960E94A8
:10490000BE23813009F061C067EF73E0C7010E94E8
:104910005523BC01CE0101960E941917BE016F5F9D
:104920007F4F8CE496E00E94EB14F82ECE010196A6
:104930000E947D16F11010920D0468EE73E080E085
:1049400090E00E94D01867EF73E0F801868997899C
:104950000E945523BC01CE0107960E9419176CEEE8
:1049600072E0CE010D960E941917BE01695F7F4F5C
:10497000CE010D960E94A215BC01CE0101960E94A7
:10498000101766E476E0CE0143960E94101740E0CF
:10499000BE016F5F7F4FCE0143960E94C023CE01C0
:1049A00043960E947D16CE0101960E947D16CE018F
:1049B0000D960E947D16CE0107960E947D1668EE28
:1049C00073E080E090E00E94D018085E1F4FF2E094
:1049D000083A1F0709F08ECF80910D048130B9F598
:1049E00068EE73E080E090E00E94D0186CEE72E018
:1049F000CE0107960E9419176CE476E0CE01079667
:104A00000E94A215BC01CE0101960E94101762EF10
:104A100076E0CE010D960E94071740E0BE016F5F61
:104A20007F4FCE010D960E94C023CE010D960E94AD
:104A30007D16CE0101960E947D16CE0107960E943A
:104A40007D1668EE73E080E090E00E94D01810922E
:104A5000810310920A041092E00368960FB6F8944E
:104A6000DEBF0FBECDBFDF91CF911F910F91FF90A1
:104A7000EF90089560ED77E080E090E00E94D0181C
:104A80006EED76E08AE696E00E94D11766ED76E05C
:104A900081E995E00E94D1171092E50308958F9265
:104AA0009F92AF92BF92DF92EF92FF920F931F936C
:104AB000CF93DF93CDB7DEB768970FB6F894DEBF1C
:104AC0000FBECDBF2091B501213019F0613009F042
:104AD0006EC0142F062F7C01BC0181E995E00E9475
:104AE000BF1788EB882E81E0982E9AE0D92E1130DE
:104AF00031F4F401A688B788C501439608C0123086
:104B000009F049C0F401A688B788C50145960E94FE
:104B1000BE23813009F03FC067EF73E0C5010E94FA
:104B20005523BC01CE010D960E9419176CEE72E060
:104B3000CE0107960E941917BE01635F7F4FCE0119
:104B400007960E94A215BC01CE0143960E94101741
:104B5000B701CE0101960E941017402FBE016D5E75
:104B60007F4FCE0101960E94C023CE0101960E9484
:104B70007D16CE0143960E947D16CE0107960E94B7
:104B80007D16CE010D960E947D1668EE73E080E0E2
:104B900090E00E94D018DA94F8E18F0E911CD110A9
:104BA000A6CF113021F41093E3031093E403689629
:104BB0000FB6F894DEBF0FBECDBFDF91CF911F912E
:104BC0000F91FF90EF90DF90BF90AF909F908F90EC
:104BD0000895DF92EF92FF920F931F93CF93DF938D
:104BE00000D000D000D0CDB7DEB769EC76E081E927
:104BF00095E00E94D11788E0E82E81E0F82E00E0D1
:104C000010E0F701838994890E94032BF7018389BF
:104C1000948987960E94BE23D82E0F5F1F4F4AE0CB
:104C2000B801CE0101960E94AE1660E476E0CE0196
:104C300001960E94A2156BE675E00E94891560E45A
:104C400076E00E94A2156D2D0E94E015BC0181E95D
:104C500095E00E94BF17CE0101960E947D16F5E1F6
:104C6000EF0EF11C0830110561F60E9445262696CC
:104C70000FB6F894DEBF0FBECDBFDF91CF911F916D
:104C80000F91FF90EF90DF90089581E995E00C94EB
:104C9000BB17AF92BF92CF92DF92EF92FF920F932A
:104CA0001F93CF93DF9300D0CDB7DEB782E690E0BD
:104CB0000E94BE23813009F452C067E078E081E9A8
:104CC00095E00E94D11704EF11E06FEFC8010E9438
:104CD000AE236AE070E080E090E00E94D0180F5FA1
:104CE0001F4F053383E0180781F76DEE77E081E908
:104CF00095E00E94D1170E94452608E011E08AE164
:104D0000A82E81E0B82EF801C388D4887801C01A93
:104D1000D10AC6018E0D9F1DF70161917F019A8313
:104D20008983CE0101960E94D01FEA14FB0489F703
:104D3000F80183899489F701608187960E94AE23E8
:104D40000B5E1F4F5701F5E1AF0EB11C81E0003B38
:104D50001807C9F661E082E690E00E94AE230F904A
:104D60000F90DF91CF911F910F91FF90EF90DF9007
:104D7000CF90BF90AF9008957F928F929F92AF9205
:104D8000BF92CF92DF92EF92FF920F931F93CF9338
:104D9000DF93C12CD12C7601C394D0E0BB24B39413
:104DA00062E0A62E99249A9475EE872EE5EC7E2E6D
:104DB000CC2DB0925A04C0926305109280031092D9
:104DC0007F039091A9039111FCCFA092A903B09207
:104DD000A8039092A7031092A6031092A503109225
:104DE000A4038091A40386019601220F331F282B70
:104DF0002093A4038091A303813069F41092A3034C
:104E00008091A4038093BB008091BC0083FDF8CF08
:104E10007092BC0002C08092BC008091A9038230D5
:104E2000E1F38091A7038F3F69F08091A70380325F
:104E300031F08091A703803321F094E003C092E029
:104E400001C093E01092800310927F0310925A04E5
:104E5000911138C06CED77E081E995E00E948217EE
:104E600080E1C816D104E104F10430F46AED77E082
:104E700081E995E00E94821740E1C701B6010E94D6
:104E80001D2B80EE8C0F883018F0C853C830B0F45A
:104E900060E476E081E995E00E94741769EC77E0C0
:104EA00081E995E00E94D1171093CD030093CC03C4
:104EB0008091DE038F5F8093DE0302C00E9445264F
:104EC000DF5F19C09430B9F46DEB77E081E995E0CC
:104ED0000E948217E0E1CE16D104E104F10430F41F
:104EE0006BEB77E081E995E00E94821760E170E06A
:104EF0008C2F0E94602BFFEFCF1ADF0AEF0AFF0A08
:104F00008FE7C816D104E104F10409F051CFD111A3
:104F100006C065EA77E081E995E00E94D1178091AB
:104F2000DE038823E9F00E94E92508E011E0C6EDE0
:104F3000D3E0FC2EE8E0FE0EF80183899489879681
:104F40000E94BE2389930B5E1F4FFC12F5CF0E9477
:104F50004526EEECF3E088E08E0F11928E13FDCF24
:104F6000DF91CF911F910F91FF90EF90DF90CF9045
:104F7000BF90AF909F908F907F9008957F928F9277
:104F80009F92AF92BF92CF92DF92EF92FF920F93D8
:104F90001F93CF93DF93CDB7DEB76E970FB6F8941C
:104FA000DEBF0FBECDBF7C01162F65EE72E0CE01D5
:104FB00001960E941917BE016F5F7F4FC7010E94C3
:104FC000C7144AE0BC01CE0107960E94AE16CE017E
:104FD00007960E94C113AB014F5F5F4FB701CE012F
:104FE00043960E94F01FCE0107960E947D16CE01C7
:104FF00001960E947D1660E273E0CE0101960E9448
:105000001917BE016F5F7F4FCE0143960E94D114E6
:10501000792ECE0101960E947D1662E273E0CE01E8
:1050200001960E941917BE016F5F7F4FCE01439614
:105030000E94D114D92ECE0101960E947D16D094E3
:10504000DD1CDD24DD1C64E273E0CE0101960E94CC
:105050001917BE016F5F7F4FCE0143960E94D11496
:10506000C92ECE0101960E947D16C094CC1CCC2482
:10507000CC1C66E273E0CE0101960E941917BE01B6
:105080006F5F7F4FCE0143960E94D114E92ECE016F
:1050900001960E947D16E094EE1CEE24EE1C68E260
:1050A00073E0CE0101960E941917BE016F5F7F4F1A
:1050B000CE0143960E94D114F92ECE0101960E9492
:1050C0007D16F094FF1CFF24FF1C6EE073E0CE0100
:1050D00007960E94191760E273E0CE0101960E94C4
:1050E0001917AE01495F5F4FBE016F5F7F4FCE0161
:1050F00043960E94CC13CE0101960E947D16CE01EC
:1051000007960E947D166EE073E0CE0107960E941E
:10511000191762E273E0CE0101960E941917AE01E1
:10512000495F5F4FBE016F5F7F4FCE0143960E9484
:10513000CC13CE0101960E947D16CE0107960E94E7
:105140007D166EE073E0CE0107960E94191764E2A7
:1051500073E0CE0101960E941917AE01495F5F4FBF
:10516000BE016F5F7F4FCE0143960E94CC13CE01EC
:1051700001960E947D16CE0107960E947D166EE074
:1051800073E0CE0107960E94191766E273E0CE0124
:1051900001960E941917AE01495F5F4FBE016F5F14
:1051A0007F4FCE0143960E94CC13CE0101960E9400
:1051B0007D16CE0107960E947D166EE073E0CE014B
:1051C00007960E94191768E273E0CE0101960E94CB
:1051D0001917AE01495F5F4FBE016F5F7F4FCE0170
:1051E00043960E94CC13CE0101960E947D16CE01FB
:1051F00007960E947D166EE073E0CE0107960E942E
:10520000191767EE72E0CE0101960E941917AE01E0
:10521000495F5F4FBE016F5F7F4FCE0143960E9493
:10522000CC13CE0101960E947D16CE0107960E94F6
:105230007D166CEE72E0CE0101960E941917BE0138
:105240006F5F7F4FCE0143960E94D1144AE0BC01AC
:10525000CE0107960E94AE16CE0107960E94C1139A
:105260009B0140E050E0BE016D5E7F4FCE010D9688
:105270000E942E17CE0107960E947D16CE01019640
:105280000E947D166CEE72E0CE0101960E94191705
:10529000BE016F5F7F4FCE0143960E94C7144AE064
:1052A000BC01CE0149960E94AE16CE0149960E94DD
:1052B000C113AB014F5F5F4FBE016D5E7F4FCE01EB
:1052C00007960E94F01FCE0149960E947D16CE01DE
:1052D00001960E947D16113009F0D4C0CE010D96C2
:1052E0000E94C113062FBE01695F7F4FCE01499610
:1052F0000E94101767EF73E08091CE019091CF016B
:105300000E945523BC01CE0101960E9419178D8180
:105310009E81892B39F0E981FA818081882319F0F7
:1053200010E001C011E0CE0101960E947D1611230C
:1053300061F066E677E081E995E00E94D1170E946E
:1053400045260E94641A80E001C081E09EEF900F24
:105350009A3058F068E477E081E995E00E94D1172F
:105360000E9445260E94641A88C0813009F085C0D9
:105370007094771C7724771C015088EB882E81E08D
:10538000982EAA24A394B12C67EF73E0F4018689C8
:1053900097890E945523BC01CE0101960E941917DE
:1053A000BE01675E7F4FCE0101960E94EB14182F5D
:1053B000CE0101960E947D16112399F065E277E0F7
:1053C00081E995E00E948217C5010E94932B0E94FB
:1053D00045268FEF8A0D801721F0F12CE12CD12C7E
:1053E000712CF8E18F0E911C8FEFA81AB80AEBE030
:1053F000AE16B10449F641E150E066EE73E0CE012D
:1054000049960E94CC2BF8E10F9F8001112408548B
:105410001E4F66EE73E0F801868997890E947B2310
:10542000F80186899789672D42960E94AE23F8017C
:10543000868997896D2D43960E94AE23F80186894F
:1054400097896C2D44960E94AE23F801868997892E
:105450006E2D45960E94AE23F801868997896F2D9F
:1054600046960E94AE2368E177E081E995E00E94CC
:10547000D1170E9445260E944C1ACE0149960E94DF
:105480007D162CC0123051F58091CE019091CF0144
:105490006D2D43960E94AE238091CE019091CF0155
:1054A0006C2D44960E94AE238091CE019091CF0145
:1054B0006E2D45960E94AE238091CE019091CF0132
:1054C0006F2D46960E94AE236DE877E081E995E066
:1054D0000E94D1170E9445260E944C1ACE010796C1
:1054E0000E947D16CE010D960E947D16CE01439638
:1054F0000E947D166E960FB6F894DEBF0FBECDBF2C
:10550000DF91CF911F910F91FF90EF90DF90CF909F
:10551000BF90AF909F908F907F9008951F93CF93EF
:10552000DF93CDB7DEB762970FB6F894DEBF0FBE3C
:10553000CDBF182F6093070183E190E00E94AE2356
:10554000113079F580910B04813059F56CEE72E0E1
:10555000CE0107960E9419176CE476E0CE010796FB
:105560000E94A215BC01CE010D960E94101765E0A5
:1055700077E0CE0101960E94071740E0BE01635F0D
:105580007F4FCE0101960E94C023CE0101960E945A
:105590007D16CE010D960E947D16CE0107960E94C3
:1055A0007D1662960FB6F894DEBF0FBECDBFDF91B9
:1055B000CF911F910895E1E9F5E0A089B18982E0DA
:1055C0008C93A485B5851C92A685B7858FEC8C93AA
:1055D000108EA489B58986E08C93A289B3898C91B9
:1055E00080618C93A289B3898C9188608C93A28905
:1055F000B3898C9180688C930288F389E02D808137
:105600008F7D808308950F931F93CF93DF93CBE615
:10561000D5E08C010B561540C8018C0F9D1F0E94D0
:105620003637899385E0C139D807B1F78BE695E025
:10563000DF91CF911F910F9108958F929F92AF921A
:10564000BF920F931F93CF93DF93CDB7DEB7A19790
:105650000FB6F894DEBF0FBECDBF19A2423008F4DA
:105660004AE08E010F5D1F4F842E912CA12CB12C8E
:10567000A50194010E94B537E62FB901CA01015076
:105680001109EA3014F4E05D01C0E95CD801EC9343
:10569000232B242B252B61F7B80181E995E00E948B
:1056A000A617A1960FB6F894DEBF0FBECDBFDF914F
:1056B000CF911F910F91BF90AF909F908F900895C1
:1056C000CF93DF93AB01672B61F4E0919105F091EB
:1056D00092050190F081E02D682F81E995E0099510
:1056E00006C0682F70E080E090E00E941D2BEC0166
:1056F00081E995E00E94BB178C0F9D1FDF91CF9130
:105700000895CF93DF93BC0180E090E04AE00E94CF
:105710001D2BEC0181E995E00E94BB178C0F9D1FAA
:10572000DF91CF910895CF92DF92EF92FF92CF93C6
:10573000DF936C01990FEE08FF08F7FE1AC0E091A5
:105740009105F09192050190F081E02D6DE281E9E3
:1057500095E00995EC0166277727CB016C197D0947
:105760008E099F094AE00E941D2B7C01EC0EFD1E54
:1057700006C04AE0C701B6010E941D2B7C0181E9E9
:1057800095E00E94BB178E0D9F1DDF91CF91FF907A
:10579000EF90DF90CF9008950F931F93CF93DF93F7
:1057A000FC01248135812115310519F4FB0110829A
:1057B00011C0EA0121972C173D0708F4E9018B017C
:1057C000FC0160817181AE01C8010E94433AC00FA3
:1057D000D11F1882DF91CF911F910F9108950F93E0
:1057E0001F93CF938C0180916A0581110AC00E949A
:1057F0000A19609366057093670580936805909316
:105800006905C1E0C0936A05B80184E696E00E948C
:105810002D1610926505C0936405CF911F910F91CD
:105820000895CF93DF9300D0CDB7DEB789831A8276
:1058300041E050E0BE016F5F7F4F88E596E00E9437
:105840005B150F900F90DF91CF910895CF93DF9369
:10585000CDB7DEB7AB970FB6F894DEBF0FBECDBFA6
:10586000789484B5826084BD84B5816084BD85B53B
:10587000826085BD85B5816085BD80916E00816047
:1058800080936E00109281008091810082608093ED
:1058900081008091810081608093810080918000EF
:1058A0008160809380008091B10084608093B1001A
:1058B0008091B00081608093B00080917A00846014
:1058C00080937A0080917A00826080937A00809140
:1058D0007A00816080937A0080917A00806880935A
:1058E0007A001092C1000E94DB2A1092CA03109223
:1058F000CB031092800310927F031092A90381E0E2
:105900008093A8031092A30361E082E10E946418CF
:1059100061E083E10E9464188091B9008E7F8093DA
:10592000B9008091B9008D7F8093B90088E480939D
:10593000B80085E48093BC006EEA73E081E995E0ED
:105940000E94D1170E94452664EC79E080E090E047
:105950000E94D01880E480937C0080917A0080645B
:1059600080937A0080917A0086FDFCCF6091780068
:105970008091790070E0782B072E000C880B990B32
:10598000611571058105910511F00E9496360E94FE
:10599000E51D0E94681F0E94531D0E9449260E9417
:1059A000BC2661E08AE00E94941861E08CE00E94CD
:1059B000941861E08BE00E94941861E08AE00E94F4
:1059C000641861E08CE00E94641861E08BE00E9442
:1059D000641860E08AE00E94641864EF71E080E07F
:1059E00090E00E94D01861E08AE00E94641860E0B4
:1059F0008CE00E94641864EF71E080E090E00E9407
:105A0000D01861E08CE00E94641860E08BE00E9496
:105A1000641864EF71E080E090E00E94D01861E0CB
:105A20008BE00E94641860E086E00E94941860E0B9
:105A30008EE00E94941860E087E00E94941860E075
:105A40008FE00E94941860E080E10E94941861E069
:105A500084E00E94941860E084E00E94641861E091
:105A600085E00E94941861E085E00E9464180E941D
:105A7000B21A8091B501813031F46AEA73E086E4AC
:105A800096E00E941D158091B501811106C065EA5E
:105A900073E086E496E00E941D1566E476E081E9F5
:105AA00095E00E94BF1780910201882369F00E944F
:105AB00045263AEA232E33E0332E48EE442E43E0C7
:105AC000542E612C712CA5C068E973E081E995E042
:105AD0000E94D11719E00E944C1A1150E1F7E7CF4C
