:100000000C94CC030C94F4030C94F4030C942A1F6A
:100010000C942A1F0C942A1F0C94F4030C94F403E0
:100020000C94F4030C94F4030C94F4030C94F40374
:100030000C94F4030C94F4030C94F4030C94F40364
:100040000C94B21D0C94F4030C94B11C0C948B1CF6
:100050000C94F4030C94F4030C94F4030C94F40344
:100060000C94FC1D0C94F403506F7765722073752B
:1000700070706C7920726573746F726564210050C2
:100080006F77657220737570706C79206469736323
:100090006F6E6E656374656421004D61696E2073D7
:1000A000656E736F7221005049522073656E736FD5
:1000B0007221004164646564207072696D617279B7
:1000C0002070686F6E653A202B0041542B434855D1
:1000D0005000506175736554696D652069733A20ED
:1000E000004154440041542B435553443D31006C6E
:1000F00065646F6666006C65646F6E00746573742A
:100100006F666600746573746F6E00636C65617210
:10011000736D730020006F6E2E006F66662E0049AF
:100120006E666F3A205049522000696E666F006714
:10013000756172646F66660067756172646F6E00E8
:100140007061757365006D6F6E65790065646974C3
:1001500073656E736F7200576174636820746865AD
:1001600020706F776572206F6666007761746368D0
:10017000706F7765726F666600576174636820748C
:10018000686520706F776572206F6E0077617463A9
:1001900068706F7765726F6E00504952204F6666C7
:1001A000007069726F666600504952204F6E007091
:1001B00069726F6E00536D73204F666600736D73C6
:1001C0006F666600536D73204F6E00736D736F6EB4
:1001D0000052696E67204F66660072696E676F66CF
:1001E000660052696E67204F6E0072696E676F6EAF
:1001F000007265736574636F6E666967007265731C
:10020000657470686F6E650066756C6C7265736599
:100210007400616C61726D70696E74696D650073F4
:100220006C65657074696D650062616C616E6365B3
:100230006E756D0064656C65746570686F6E6500E1
:1002400061646470686F6E65006661696C65642ED8
:10025000007061737365642E0054657374200046EA
:1002600061696C65642063656C6C3A2000420045EE
:100270004550524F4D3A200043757272656E74209E
:100280004944203D20004E6F206D6F64656D2E0047
:1002900053494D3830304C004D3539306500456D8F
:1002A000756C6174653A200050726576696F75737C
:1002B000204944203D20006C69737473656E736F30
:1002C00072006C697374636F6E6669670065646958
:1002D0007473656E736F72006932637363616E006D
:1002E00064656C65746570686F6E650061646470E8
:1002F000686F6E65003D006D6F64656D6964006DCB
:10030000656D746573740066756C6C726573657485
:1003100000726573657470686F6E650072657365F1
:1003200074636F6E666967006C69737470686F6E72
:100330006500636C656172736D730041542B4355A6
:1003400053443D3000555353442071756572793ADA
:1003500020002B435553443A00534D532066726F8F
:100360006D3A202B002C22002C2C002B434D543AAC
:100370000052696E672066726F6D3A202B002C0068
:1003800052494E47002B5042524541445900526554
:1003900073746F72652064656661756C7420736533
:1003A0006E736F7220646174612E0044656C6574B5
:1003B000696E672073656E736F7220646174612E5D
:1003C0000053696C656E74206D6F64652100537411
:1003D00061727420776F726B696E672E0047534DA0
:1003E00020416C61726D2031372E303200000000E8
:1003F00000250028002B0000000000230026002913
:1004000000040404040404040402020202020203BD
:1004100003030303030102040810204080010204C7
:10042000081020010204081020000000002400270A
:10043000002A000000000800020100000304070079
:100440000000000000000050686F6E652061646469
:1004500065642E004572726F722C20746869732077
:1004600070686F6E6520616C726561647920657873
:100470006973747320696E207468652063656C6CA1
:100480003A20004572726F722C2077726F6E67206F
:100490006E756D626572206F662063656C6C732E7D
:1004A000004572726F722C206669727374207265D7
:1004B0006769737465722061207072696D61727909
:1004C0002070686F6E652E004572726F72206465D1
:1004D0006C6574696E672070686F6E653A202B00DA
:1004E00044656C6574652070686F6E653A202B00FA
:1004F000534D532072656D6F766564003400302C67
:10050000340041542B434D47443D0049324320645D
:10051000657669636573206E6F7420666F756E64AF
:100520000030004572726F72206174203078006470
:100530006574656374656420504346383537340A02
:100540000030004932432064657669636520617438
:100550002030780053656E736F7220646174613A65
:100560000053656E736F72206461746120736176ED
:1005700065642E004572726F722073656E736F72C0
:10058000206E756D6265720053656E7421200022C5
:100590000041542B434D47533D22004E4F542053AE
:1005A000656E74212000457874506F7765725761CD
:1005B0007463683A200050495247756172643A206A
:1005C00000416C61726D496E74657276616C3A209F
:1005D00000506175736554696D653A200047756117
:1005E00072643A20004C65644F6E3A20004C65649A
:1005F000546573744F6E3A2000416C61726D52699C
:100600006E673A200053656E64536D733A20005252
:1006100065616420656570726F6D636F6E66696792
:100620003A00526573746F72652064656661756C1B
:100630007420656570726F6D636F6E6669672064A4
:100640006174612E0044656C6574696E6720656530
:1006500070726F6D636F6E66696720646174612E7E
:1006600000415445300041542B434E4D493D322CFE
:10067000320041542B435343533D2247534D2200F4
:1006800041542B434D47463D310041542B434C4987
:10069000503D310041360053494D383030004D3522
:1006A000393000415449004154003B004154442B2F
:1006B000004775617264204F666600477561726419
:1006C000204F6E004C656E677468206F662063680B
:1006D000617261637465727320746F2072657475E2
:1006E000726E3A20004E756D626572206F662062F0
:1006F000616C616E636520696E71756972793A200B
:1007000000526573746F72652064656661756C7400
:100710002062616C616E636520646174612E0044C7
:10072000656C6574696E672062616C616E636520DB
:10073000646174612E00416C61726D496E74657202
:1007400076616C20697320757064617465643A2009
:1007500000526573746F72652064656661756C74B0
:100760002070686F6E6520646174612E0044656C52
:100770006574696E672070686F6E6520646174616E
:100780002E00526561642061727261792070686F19
:100790006E653A009B2EFC3011241FBECFEFD8E0CF
:1007A000DEBFCDBF13E0A0E0B1E0EEEBFAE602C0A1
:1007B00005900D92AA33B107D9F726E0AAE3B3E07A
:1007C00001C01D92A635B207E1F713E0CBECD3E0F0
:1007D00004C02197FE010E945C31CA3CD107C9F7D1
:1007E0000E94812F0C9452350C9400002F923F925E
:1007F0004F925F926F927F928F929F92AF92BF9231
:10080000CF92DF92EF92FF920F931F93CF93DF93DC
:10081000CDB7DEB7E5970FB6F894DEBF0FBECDBFFC
:1008200080917C02813009F056C010918302113012
:1008300009F051C087E00E94E31C80933A038111C4
:100840001BC080910001811117C01093000164E664
:1008500070E080E090E00E94781D6FE770E0CE01CC
:1008600001960E94C61B60E0CE0101960E94F92805
:10087000CE0101960E94EA1880913A038130D9F4A2
:10088000809100018130B9F41092000164E670E0BB
:1008900080E090E00E94781D68E670E0CE0101964D
:1008A0000E94C61B60E0CE0101960E94F928CE018D
:1008B00001960E94EA1880913A03813061F4809198
:1008C0000001823041F41092000164E670E080E0A3
:1008D00090E00E94781D80910F06811109C08091DF
:1008E0003A068111CFC061E08BE00E940C1DCAC0A6
:1008F00007E016E09FEFC92E95E0D92E22E0A22E48
:1009000021E0B22EE12CF12C4424439435EE332E19
:1009100045EC242E58E8652E54E0752E8091100683
:10092000909145039111FCCF4092450340924403BE
:100930002FEF2093A8041092CA041092C904409289
:10094000CB049091CB04880F892B8093CB048091AA
:100950004303813069F4109243038091CB04809368
:10096000BB008091BC0083FDF8CF2092BC0002C088
:100970003092BC00809145038130E1F38091CA043C
:10098000811103C08091CA0401C081E0A9EAB4E0EA
:10099000E8E8F4E09E2F9619981718F49D9191932A
:1009A000F9CF1092490380934803882329F08EE001
:1009B00094E00E94771A01C080E090E00E2C02C003
:1009C000959587950A94E2F7E82FE1705E2E46012F
:1009D000F6018081851136C0F8018081811132C015
:1009E000408264E670E080E090E00E94781D809193
:1009F0008002813021F460E08CE00E940C1DF50142
:100A0000838994890E94E7146AE174E0CE0101961B
:100A10000E94FE1B6BE473E0CE0101960E94291830
:100A2000BC01CE0142960E94FE1B61E0CE014296BF
:100A30000E94F928CE0142960E94EA18CE01019642
:100A40000E94EA18FFEFCF1ADF0AF40180818515B2
:100A500059F0F8018081813039F4108264E670E049
:100A600080E090E00E94781DFFEFEF1AFF0A0F5F11
:100A70001F4F25E1A20EB11C88E0E816F10409F031
:100A80004DCF2DCF80913A068130B1F59FB7F894C4
:100A90004091CC045091CD046091CE047091CF046C
:100AA0009FBF00913C0310913D0320913E03309184
:100AB0003F036A017B01C01AD10AE20AF30A9701D7
:100AC00086010536110521053105B0F040933C0340
:100AD00050933D0360933E0370933F0390913B031B
:100AE000911103C080933B0302C010923B036091BD
:100AF0003B038BE00E940C1D80918302813041F406
:100B000061E08CE00E940C1D60E08AE00E940C1DF8
:100B10008091830281110CC061E08AE00E940C1D6B
:100B200080918002813021F460E08CE00E940C1DF5
:100B30008FB7F8944091CC045091CD046091CE04CD
:100B40007091CF048FBF80913C0690913D06A0919B
:100B50003E06B0913F06481B590B6A0B7B0BE09198
:100B60007D02F0917E0228EE33E0E29FC001E39F18
:100B7000900DF29F900D1124A0E0B0E0841795072E
:100B8000A607B70720F080918302811108C060E0BA
:100B900084E00E940C1D61E085E00E940C1D86E04F
:100BA0000E94E31C8093400381113EC08091820229
:100BB00081113AC081E08093820264E670E080E0B7
:100BC00090E00E94781D80918002813021F460E0E5
:100BD0008CE00E940C1D6AE970E0CE0142960E94F2
:100BE000C61B6AE174E0CE0148960E94FE1BBE015E
:100BF0006E5E7F4FCE0148960E944218BC01CE0126
:100C000001960E94FE1B61E0CE0101960E94F92828
:100C1000CE0101960E94EA18CE0148960E94EA1879
:100C2000CE0142960E94EA1880914003813061F41F
:100C300080918202813041F41092820264E670E079
:100C400080E090E00E94781D80913906813009F0A3
:100C500054C08EE00E94E31C809341038130E9F58B
:100C600090910101911139C08093010164E670E017
:100C700080E090E00E94781D80918002813021F414
:100C800060E08CE00E940C1D67EA70E0CE014296A5
:100C90000E94C61B6AE174E0CE0101960E94FE1B11
:100CA000BE016E5E7F4FCE0101960E944218BC01CC
:100CB000CE0148960E94FE1B61E0CE0148960E943C
:100CC000F928CE0148960E94EA18CE0101960E94AA
:100CD000EA18CE0142960E94EA18809141038111E0
:100CE0000CC080910101813041F41092010164E651
:100CF00070E080E090E00E94781D84E494E00E941F
:100D00005F1B892B11F40C943E1184E494E00E9443
:100D10005F1B892B79F084E494E00E94771B809319
:100D20003B060E949F1764E170E080E090E00E9423
:100D3000781DEBCF8091FE05823011F412E001C0E6
:100D400011E065E873E0CE0101960E94C61BBE016A
:100D50006F5F7F4F88E394E00E94C5167C01CE014F
:100D600001960E94EA18F7FE0E94342A60E873E0B8
:100D7000CE0101960E94C61BBE016F5F7F4F88E3C4
:100D800094E00E94C5167C01CE0101960E94EA18EB
:100D9000F7FCDCC06EE773E0CE014E960E94C61BE6
:100DA000BE01625E7F4F88E394E00E94C5164AE070
:100DB000BC01CE0184960E949A1BCE0184960E94AB
:100DC000B5156B017C0166EC72E0CE0101960E94C4
:100DD000071CBE016F5F7F4F88E394E00E94C51639
:100DE0004AE0BC01CE0148960E949A1BCE0148966B
:100DF0000E94B515960121503109412F50E0460F50
:100E0000571F68E374E0CE0142960E948D18CE0110
:100E100048960E94EA18CE0101960E94EA18CE0177
:100E200084960E94EA18CE014E960E94EA1861E765
:100E300073E081E793E00E942A1CBE016E5E7F4F43
:100E400081E793E00E94671CBE016E5E7F4FCE017A
:100E500048960E94FE1B6DEE75E08091BD01909159
:100E6000BE010E94A61FBC01CE0101960E94071C74
:100E7000CE0101960E94AE14182FCE0101960E9459
:100E8000EA18112389F141E150E06CED75E0CE01E3
:100E900048960E947D156CED75E08091BD019091A2
:100EA000BE010E94CC1F8091BD019091BE0161E006
:100EB00042960E94FF1F8091BD019091BE0161E0AA
:100EC00043960E94FF1F63EB70E081E793E00E946E
:100ED0002A1CBE01685E7F4F81E793E00E94671C79
:100EE0000E94AA200E94CE29CE0148960E94EA18AC
:100EF000BE016E5E7F4FCE0101960E94FE1BCE01A9
:100F000001960E94EA29182FCE0101960E94EA1844
:100F10006AEC70E084E494E0113081F40E94791C62
:100F20001093400680918302813019F40E940928B1
:100F300007C0811105C00E94162702C00E94791CBB
:100F4000CE0142960E94EA180C9438116BE673E0C9
:100F5000CE0101960E94C61BBE016F5F7F4F88E3E2
:100F600094E00E94C5168C01CE0101960E94EA18F9
:100F700017FF02C00C94791068E374E081E793E0F6
:100F80000E94671C8091FE058D7F813009F057C05B
:100F900068E673E0CE0148960E94C61BBE01685EFB
:100FA0007F4F88E394E00E94C5164AE0BC01CE0161
:100FB0004E960E949A1BCE014E960E94B5156B016B
:100FC0007C0160EC72E0CE0101960E94071CBE011C
:100FD0006F5F7F4F88E394E00E94C5164AE0BC0132
:100FE000CE0142960E949A1BCE0142960E94B515F0
:100FF000960121503109AB01485F5F4F68E374E00F
:10100000CE0184960E948D18BE016C5D7F4F82E3F5
:1010100094E00E941117CE0184960E94EA18CE0136
:1010200042960E94EA18CE0101960E94EA18CE016B
:101030004E960E94EA18CE0148960E94EA188091C6
:10104000FE05823009F057C065E673E0CE01489690
:101050000E94C61BBE01685E7F4F88E394E00E9439
:10106000C5164AE0BC01CE014E960E949A1BCE01E5
:101070004E960E94B5156B017C0160EC72E0CE01CA
:1010800001960E94071CBE016F5F7F4F88E394E0CA
:101090000E94C5164AE0BC01CE0142960E949A1BEE
:1010A000CE0142960E94B515960121503109AB013F
:1010B000485F5F4F68E374E0CE0184960E948D180C
:1010C000BE016C5D7F4F82E394E00E941117CE0158
:1010D00084960E94EA18CE0142960E94EA18CE0138
:1010E00001960E94EA18CE014E960E94EA18CE019F
:1010F00048960E94EA1869E573E081E793E00E9450
:101100002A1C62E374E081E793E00E94671C62E3BB
:1011100074E0CE0101960E94FE1BCE0101960E9452
:10112000EA29182FCE0101960E94EA18113011F019
:101130000C94381162E374E0CE0142960E94FE1BCB
:101140006DEE75E08091BD019091BE010E94A61FD9
:10115000BC01CE0101960E94071CBE016E5E7F4F4E
:10116000CE0101960E94DF16082FCE0101960E9443
:10117000EA18CE0142960E94EA1801111093420328
:1011800081E0809340060E94A01580914203813047
:1011900009F061C560E472E0CE0101960E94C61BB1
:1011A000BE016F5F7F4F88E394E00E94C5168C01FB
:1011B000CE0101960E94EA1817FD0EC068E374E0A4
:1011C000CE0101960E94FE1BCE0101960E94FC24D6
:1011D000CE0101960E94EA1864E372E0CE01019606
:1011E0000E94C61BBE016F5F7F4F88E394E00E94A0
:1011F000C5168C01CE0101960E94EA1817FD0EC09B
:1012000068E374E0CE0101960E94FE1BCE010196B8
:101210000E94AE23CE0101960E94EA1869E272E0B4
:10122000CE0101960E94C61BBE016F5F7F4F88E30F
:1012300094E00E94C5168C01CE0101960E94EA1826
:1012400017FDD3C068EC72E0CE0142960E94071CE5
:10125000BE016E5E7F4F88E394E00E94BB164AE0B9
:10126000BC01CE0101960E949A1BCE0101960E94FC
:10127000B515AB014F5F5F4F68E374E0CE01849614
:101280000E948F2ECE0101960E94EA18CE0142964E
:101290000E94EA186EEF72E0CE0101960E94071CD0
:1012A0006DEF72E0CE0142960E94071CAE014F5FC7
:1012B0005F4FBE016E5E7F4FCE0184960E94C015C7
:1012C000CE0142960E94EA18CE0101960E94EA18C9
:1012D0006AEC72E0CE0142960E94071CBE016E5E6F
:1012E0007F4FCE0184960E94C5164AE0BC01CE0114
:1012F00001960E949A1BCE0101960E94B5159B0192
:1013000040E050E0BE016C5D7F4FCE014E960E94E2
:101310008D18CE0101960E94EA18CE0142960E94D5
:10132000EA186AEC72E0CE0142960E94071CBE01E8
:101330006E5E7F4F88E394E00E94BB164AE0BC01DA
:10134000CE0101960E949A1BCE0101960E94B5150E
:10135000AB014F5F5F4F68E374E0CE0148960E9497
:101360008F2ECE0101960E94EA18CE0142960E946D
:10137000EA18CE0148960E94B515162FBE01625E8E
:101380007F4FCE0101960E94FE1B41E150E061E4D7
:1013900076E0CE0101960E947D1561E476E08EE153
:1013A00090E00E94CC1F612F80E390E00E94FF1F1D
:1013B00061E081E390E00E94FF1F0E94012E81E71F
:1013C00093E00E94631C0E94CE29CE0101960E94E8
:1013D000EA18CE0148960E94EA18CE014E960E9465
:1013E000EA18CE0184960E94EA186FE172E0CE01FD
:1013F00001960E94C61BBE016F5F7F4F88E394E099
:101400000E94C5168C01CE0101960E94EA1817FDB4
:1014100088C068EC72E0CE0142960E94071CBE01B3
:101420006E5E7F4F88E394E00E94BB164AE0BC01E9
:10143000CE0101960E949A1BCE0101960E94B5151D
:10144000AB014F5F5F4F68E374E0CE014E960E94A0
:101450008F2ECE0101960E94EA18CE0142960E947C
:10146000EA186EEF72E0CE0101960E94071C6DEF44
:1014700072E0CE0142960E94071CAE014F5F5F4FA3
:10148000BE016E5E7F4FCE014E960E94C015CE010A
:1014900042960E94EA18CE0101960E94EA18BE0107
:1014A000625E7F4FCE0148960E94FE1BCE01489699
:1014B0000E94B515DC01CB010197A109B109CC97B8
:1014C000A105B10510F00C94E513CE0148960E94D9
:1014D000B515162F8FE090E00E94FF1F10937F023A
:1014E00062ED70E081E793E00E942A1C8FE090E0BB
:1014F0000E940F20682F70E080E090E04AE00E9498
:10150000011581E793E00E94631C0E94AA200E94BB
:10151000CE29CE0148960E94EA18CE014E960E942E
:10152000EA1862E172E0CE0101960E94C61BBE017C
:101530006F5F7F4F88E394E00E94C5168C01CE0157
:1015400001960E94EA1817FD6CC068EC72E0CE01AB
:1015500042960E94071CBE016E5E7F4F88E394E0B6
:101560000E94BB164AE0BC01CE0101960E949A1B64
:10157000CE0101960E94B515AB014F5F5F4F68E346
:1015800074E0CE014E960E948F2ECE0101960E94ED
:10159000EA18CE0142960E94EA186EEF72E0CE0180
:1015A00001960E94071C6DEF72E0CE0142960E94E8
:1015B000071CAE014F5F5F4FBE016E5E7F4FCE01D5
:1015C0004E960E94C015CE0142960E94EA18CE01A6
:1015D00001960E94EA18BE01625E7F4FCE014896D6
:1015E0000E94FE1BCE0148960E94B515DC01CB017E
:1015F0000197A109B109803C984AA105B10510F0F5
:101600000C940814CE0148960E94B515CB010E9497
:10161000D62DCE0148960E94EA18CE014E960E9421
:10162000EA1868E072E0CE0101960E94C61BBE0176
:101630006F5F7F4F88E394E00E94C5168C01CE0156
:1016400001960E94EA1817FD1CC06FEF80E090E041
:101650000E94FF1F0E94A52B68EE73E080E090E0DF
:101660000E94781D6FEF83E690E00E94FF1F0E94AA
:10167000702D68EE73E080E090E00E94781D0E947B
:10168000CE296DEF71E0CE0101960E94C61BBE010E
:101690006F5F7F4F88E394E00E94C5168C01CE01F6
:1016A00001960E94EA1817FD09C06FEF83E690E0EB
:1016B0000E94FF1F0E94702D0E94CE2961EF71E0F1
:1016C000CE0101960E94C61BBE016F5F7F4F88E36B
:1016D00094E00E94C5168C01CE0101960E94EA1882
:1016E00017FD09C06FEF80E090E00E94FF1F0E948D
:1016F000A52B0E94CE296AEE71E0CE0101960E94D0
:10170000C61BBE016F5F7F4F88E394E00E94C51641
:101710008C01CE0101960E94EA1817FD3EC068EECA
:1017200073E080E090E00E94781D81E08093810268
:1017300061E08BE090E00E94FF1F60E373E0CE0168
:1017400042960E94071C6CE274E0CE0142960E9411
:101750004218BC01CE0101960E94FE1B62EE71E0B0
:10176000CE0148960E94C61BBE016F5F7F4FCE011F
:1017700048960E941120CE0148960E94EA18CE0198
:1017800001960E94EA18CE0142960E94EA1868EE7D
:1017900073E080E090E00E94781D6AED71E0CE0178
:1017A00001960E94C61BBE016F5F7F4F88E394E0E5
:1017B0000E94C5168C01CE0101960E94EA1817FD01
:1017C0003DC068EE73E080E090E00E94781D1092CA
:1017D000810260E08BE090E00E94FF1F60E373E015
:1017E000CE0142960E94071C6CE274E0CE01429644
:1017F0000E944218BC01CE0101960E94FE1B61EDC1
:1018000071E0CE0148960E94C61BBE016F5F7F4FFC
:10181000CE0148960E941120CE0148960E94EA18F7
:10182000CE0101960E94EA18CE0142960E94EA1863
:1018300068EE73E080E090E00E94781D6BEC71E050
:10184000CE0101960E94C61BBE016F5F7F4F88E3E9
:1018500094E00E94C5168C01CE0101960E94EA1800
:1018600017FD3EC068EE73E080E090E00E94781DB6
:1018700081E080934A0361E08AE090E00E94FF1FCC
:1018800060E373E0CE0142960E94071C6CE274E0B4
:10189000CE0142960E944218BC01CE0101960E94E0
:1018A000FE1B64EC71E0CE0148960E94C61BBE018F
:1018B0006F5F7F4FCE0148960E941120CE0148965F
:1018C0000E94EA18CE0101960E94EA18CE014296C3
:1018D0000E94EA1868EE73E080E090E00E94781DB4
:1018E0006DEB71E0CE0101960E94C61BBE016F5FD9
:1018F0007F4F88E394E00E94C5168C01CE010196CB
:101900000E94EA1817FD3DC068EE73E080E090E0A9
:101910000E94781D60E373E0CE0142960E94071C8E
:101920006CE274E0CE0142960E944218BC01CE01E6
:1019300001960E94FE1B65EB71E0CE0148960E9465
:10194000C61BBE016F5F7F4FCE0148960E941120DB
:10195000CE0148960E94EA18CE0101960E94EA182C
:10196000CE0142960E94EA1810924A0360E08AE093
:1019700090E00E94FF1F68EE73E080E090E00E941C
:10198000781D6FEA71E0CE0101960E94C61BBE0170
:101990006F5F7F4F88E394E00E94C5168C01CE01F3
:1019A00001960E94EA1817FD3EC068EE73E080E0E1
:1019B00090E00E94781D81E08093390661E082E129
:1019C00090E00E94FF1F60E373E0CE0142960E9408
:1019D000071C6CE274E0CE0142960E944218BC01E2
:1019E000CE0101960E94FE1B68EA71E0CE01489686
:1019F0000E94C61BBE016F5F7F4FCE0148960E94BA
:101A00001120CE0148960E94EA18CE0101960E944C
:101A1000EA18CE0142960E94EA1868EE73E080E070
:101A200090E00E94781D61EA71E0CE0101960E946B
:101A3000C61BBE016F5F7F4F88E394E00E94C5160E
:101A40008C01CE0101960E94EA1817FD3DC068EE98
:101A500073E080E090E00E94781D1092390660E00B
:101A600082E190E00E94FF1F60E373E0CE014296A6
:101A70000E94071C6CE274E0CE0142960E9442185C
:101A8000BC01CE0101960E94FE1B69E971E0CE0106
:101A900048960E94C61BBE016F5F7F4FCE014896DD
:101AA0000E941120CE0148960E94EA18CE010196AC
:101AB0000E94EA18CE0142960E94EA1868EE73E08E
:101AC00080E090E00E94781D6CE871E0CE01019604
:101AD0000E94C61BBE016F5F7F4F88E394E00E94A7
:101AE000C5168C01CE0101960E94EA1817FD3EC072
:101AF00068EE73E080E090E00E94781D81E08093C2
:101B00007C0261E083E190E00E94FF1F60E373E0EC
:101B1000CE0142960E94071C6CE274E0CE01429610
:101B20000E944218BC01CE0101960E94FE1B69E78B
:101B300071E0CE0148960E94C61BBE016F5F7F4FC9
:101B4000CE0148960E941120CE0148960E94EA18C4
:101B5000CE0101960E94EA18CE0142960E94EA1830
:101B600068EE73E080E090E00E94781D6BE671E023
:101B7000CE0101960E94C61BBE016F5F7F4F88E3B6
:101B800094E00E94C5168C01CE0101960E94EA18CD
:101B900017FD3DC068EE73E080E090E00E94781D84
:101BA00010927C0260E083E190E00E94FF1F60E3FE
:101BB00073E0CE0142960E94071C6CE274E0CE01F5
:101BC00042960E944218BC01CE0101960E94FE1B63
:101BD00067E571E0CE0148960E94C61BBE016F5FAB
:101BE0007F4FCE0148960E941120CE0148960E9458
:101BF000EA18CE0101960E94EA18CE0142960E9490
:101C0000EA1868EE73E080E090E00E94781D6CE4D2
:101C100071E0CE0101960E94C61BBE016F5F7F4F2F
:101C200088E394E00E94C5168C01CE0101960E94C3
:101C3000EA1817FD0EC068E374E0CE0101960E9419
:101C4000FE1BCE0101960E940A21CE0101960E9440
:101C5000EA181092420366E471E0CE0101960E94F8
:101C6000C61BBE016F5F7F4F88E394E00E94C516DC
:101C70008C01CE0101960E94EA1817FD2AC068EE79
:101C800073E080E090E00E94781D65EE70E084E4EF
:101C900094E00E94791C68EC70E080E090E00E9483
:101CA000781D61EE70E084E494E00E942A1C6EE3EB
:101CB00074E084E494E00E94671C68EC70E080E0CB
:101CC00090E00E94781D68EE73E080E090E00E9452
:101CD000781D60E471E0CE0101960E94C61BBE0132
:101CE0006F5F7F4F88E394E00E94C5168C01CE01A0
:101CF00001960E94EA1817FD6FC068EE73E080E05D
:101D000090E00E94781D60E373E0CE0148960E9447
:101D1000071C6CE274E0CE0148960E944218BC0198
:101D2000CE0142960E94FE1B80917F021F8E1E8E66
:101D300019A218A21BA21AA24AE0BE016F5F7F4F30
:101D400090E00E947834BE016F5F7F4FCE014E96C7
:101D50000E9476186CEC72E0CE0184960E94071CFB
:101D6000BE01625E7F4FCE0184960E94421863EDF1
:101D700072E00E942918BC01CE0101960E94FE1B50
:101D8000BE016E5E7F4FCE0101960E941120CE01F2
:101D900001960E94EA18CE0184960E94EA18CE01AC
:101DA0004E960E94EA18CE0142960E94EA18CE0191
:101DB00048960E94EA1860E08BE00E940C1D20917A
:101DC0007F0230E0A0E6BAEE0E9443350E94781D03
:101DD00061E08BE00E940C1D68E371E0CE0101968A
:101DE0000E94C61BBE016F5F7F4F88E394E00E9494
:101DF000C5168C01CE0101960E94EA1817FD08C095
:101E000068EE73E080E090E00E94781D0E94162743
:101E10006FE271E0CE0101960E94C61BBE016F5FAA
:101E20007F4F88E394E00E94C5168C01CE01019695
:101E30000E94EA1817FD08C068EE73E080E090E0A9
:101E40000E94781D0E9409286AE271E0CE01019685
:101E50000E94C61BBE016F5F7F4F88E394E00E9423
:101E6000C5168C01CE0101960E94EA1817FD7CC0B0
:101E70006FE171E0CE014E960E94C61B809139063B
:101E8000BE01625E7F4F811107C0CE0101960E94A4
:101E9000FE1B6AE171E006C0CE0101960E94FE1BA6
:101EA00066E171E0CE0101960E94C617BC01CE0129
:101EB0004E960E94D318CE0101960E94EA18BE01E8
:101EC000625E7F4FCE0101960E94FE1B64E171E0CD
:101ED000CE0101960E94C61766E274E00E94421885
:101EE000BC01CE014E960E94D318CE0101960E94ED
:101EF000EA1868EE73E080E090E00E94781D60E3ED
:101F000073E0CE0142960E94071C6CE274E0CE01A1
:101F100042960E944218BC01CE0101960E94FE1B0F
:101F2000BE01625E7F4FCE0148960E94FE1BBE013D
:101F30006F5F7F4FCE0148960E941120CE014896D8
:101F40000E94EA18CE0101960E94EA18CE0142963C
:101F50000E94EA1868EE73E080E090E00E94781D2D
:101F6000CE014E960E94EA186BE071E0CE01019618
:101F70000E94C61BBE016F5F7F4F88E394E00E9402
:101F8000C5168C01CE0101960E94EA1817FD08C003
:101F90000E94852368EE73E080E090E00E94781D47
:101FA00064E071E0CE0101960E94C61BBE016F5F26
:101FB0007F4F88E394E00E94C5168C01CE01019604
:101FC0000E94EA1817FD14C068EE73E080E090E00C
:101FD0000E94781D81E080933A0661E08CE090E0F9
:101FE0000E94FF1F68EE73E080E090E00E94781D81
:101FF0006CEF70E0CE0101960E94C61BBE016F5FC0
:102000007F4F88E394E00E94C5168C01CE010196B3
:102010000E94EA1817FD17C068EE73E080E090E0B8
:102020000E94781D10923A0660E08CE090E00E94D9
:10203000FF1F61E08BE00E940C1D68EE73E080E002
:1020400090E00E94781D66EF70E0CE0101960E943C
:10205000C61BBE016F5F7F4F88E394E00E94C516E8
:102060008C01CE0101960E94EA1817FD18C068EE97
:1020700073E080E090E00E94781D81E08093800210
:1020800061E08DE090E00E94FF1F60E08CE00E9424
:102090000C1D68EE73E080E090E00E94781D6FEE0A
:1020A00070E0CE0101960E94C61BBE016F5F7F4F9C
:1020B00088E394E00E94C5168C01CE0101960E942F
:1020C000EA1817FDD5C068EE73E080E090E00E944A
:1020D000781D1092800260E08DE090E00E94FF1F6A
:1020E00061E08CE00E940C1D68EE73E080E090E0FF
:1020F000B6C062E573E0CE0101960E94C61BBE0128
:102100006F5F7F4F88E394E00E94C5168C01CE017B
:1021100001960E94EA1817FDA5C065E473E081E707
:1021200093E00E942A1C68E374E081E793E00E9438
:10213000671C66EC72E0CE0101960E94071CBE018E
:102140006F5F7F4F88E394E00E94C5168C01CE013B
:1021500001960E94EA1817FD78C060E373E0CE0193
:102160008A960E94071C6CE274E0CE018A960E9457
:102170004218BC01CE01C0960E94FE1B66EC72E0C4
:10218000CE0148960E94071CBE01685E7F4F88E31F
:1021900094E00E94C5164AE0BC01CE014E960E9412
:1021A0009A1BCE014E960E94B5152091840230E014
:1021B0008901060F171F66EC72E0CE0101960E949E
:1021C000071CBE016F5F7F4F88E394E00E94C51635
:1021D0004AE0BC01CE0142960E949A1BCE01429673
:1021E0000E94B515AB014F5F5F4F980168E374E043
:1021F000CE0184960E948D18BE01605D7F4FCE0196
:1022000084960E941120CE0184960E94EA18CE0185
:1022100042960E94EA18CE0101960E94EA18CE0169
:102220004E960E94EA18CE0148960E94EA18CE0106
:10223000C0960E94EA18CE018A960E94EA1868EEBB
:1022400073E080E090E00E94781D6BE373E084E42B
:1022500094E00E94791C68EC70E080E090E00E94BD
:10226000781D06C068E374E081E793E00E94671C74
:102270006EEF72E088E394E00E94761881E793E0C5
:102280000E943D19892B09F400C381E793E00E9465
:102290003D19892B79F081E793E00E941B19809307
:1022A0003B060E949F1764E170E080E090E00E948E
:1022B000781DEBCF68E374E084E494E00E94671C2F
:1022C0000E94A01562E373E0CE0101960E94C61B36
:1022D000BE016F5F7F4F88E394E00E94C5168C01BA
:1022E000CE0101960E94EA1817FD08C00E948523BE
:1022F00060ED77E080E090E00E94781D68E273E096
:10230000CE0101960E94C61BBE016F5F7F4F88E31E
:1023100094E00E94C5168C01CE0101960E94EA1835
:1023200017FF0E94002D6CE173E0CE0101960E9420
:10233000C61BBE016F5F7F4F88E394E00E94C51605
:102340008C01CE0101960E94EA1817FD07C06FEFBD
:1023500080E090E00E94FF1F0E94A52B61E173E0E6
:10236000CE0101960E94C61BBE016F5F7F4F88E3BE
:1023700094E00E94C5168C01CE0101960E94EA18D5
:1023800017FD07C06FEF83E690E00E94FF1F0E94D9
:10239000702D67E073E0CE0101960E94C61BBE015E
:1023A0006F5F7F4F88E394E00E94C5168C01CE01D9
:1023B00001960E94EA1817FD27C06FEF80E090E0B9
:1023C0000E94FF1F0E94A52B68EE73E080E090E062
:1023D0000E94781D6FEF83E690E00E94FF1F0E942D
:1023E000702D68EE73E080E090E00E94781D6FEF42
:1023F00081E390E00E94FF1F0E94012E68EE73E0CF
:1024000080E090E00E94781D6FEF72E0CE010196AF
:102410000E94C61BBE016F5F7F4F88E394E00E945D
:10242000C5168C01CE0101960E94EA1817FD93C0D3
:102430000E9408342DEF30E040E050E00E94B834B4
:1024400082E0F82EF60E6FE672E081E793E00E94DC
:102450002A1C4AE060E074E080E090E00E940115F0
:102460006DE672E081E793E00E94791C00E010E0E5
:102470006F2DC8010E94AA3465E070E080E090E012
:102480000E94781D0F5F1F4F011584E0180781F728
:10249000C12CD12C00E010E0C8010E940F208F1544
:1024A000F1F16FE572E081E793E00E942A1CC80118
:1024B0000E940F20E82E1B8A1A8A1D8A1C8A1F8AF6
:1024C0001E8A4AE0BE016F5F7F4FC8010E947834C8
:1024D000BE016F5F7F4FCE0142960E947618BE010B
:1024E0006E5E7F4FCE0101960E94FE1B60E274E09B
:1024F000CE0101960E9442186E2D0E94F817BC0171
:1025000081E793E00E94671CCE0101960E94EA18C1
:10251000CE0142960E94EA189FEFC91AD90A65E0D7
:1025200070E080E090E00E94781D0F5F1F4F011562
:10253000E4E01E0709F0B0CF69E572E081E793E0BF
:102540000E942A1CCD2809F087C161E572E081E76D
:1025500093E00E94791C67EF72E0CE0101960E9421
:10256000C61BBE016F5F7F4F88E394E00E94C516D3
:102570008C01CE0101960E94EA1817FD77C065EF25
:1025800072E0CE0142960E94C61BBE016E5E7F4F76
:1025900088E394E00E94BB164AE0BC01CE0101969C
:1025A0000E949A1BCE0101960E94B515AB014F5FA8
:1025B0005F4F68E374E0CE0148960E948F2ECE01F3
:1025C00001960E94EA18CE0142960E94EA18CE01B6
:1025D00048960E94B515DC01CB010197A109B1090C
:1025E0000A97A105B10508F03AC1CE0148960E94AC
:1025F000B515162F68EA72E081E793E00E942A1C65
:102600008091FE05082E000C990B0E9444156EE97E
:1026100072E081E793E00E942A1C113029F41093A4
:10262000FE0568E972E00BC0123029F41093FE0534
:1026300060E972E004C01092FE0566E872E081E78E
:1026400093E00E94791C68E772E081E793E00E94C2
:102650002A1C8091FE05082E000C990B0E9444153F
:102660000E94AA20CE0148960E94EA186CEE72E001
:10267000CE0101960E94C61BBE016F5F7F4F88E3AB
:1026800094E00E94C5168C01CE0101960E94EA18C2
:1026900017FD0EC068E374E0CE0101960E94FE1B98
:1026A000CE0101960E94FC24CE0101960E94EA18F8
:1026B00060EE72E0CE0101960E94C61BBE016F5F04
:1026C0007F4F88E394E00E94C5168C01CE010196ED
:1026D0000E94EA1817FD0EC068E374E0CE0101966F
:1026E0000E94FE1BCE0101960E94AE23CE010196F0
:1026F0000E94EA1868ED72E0CE0101960E94C61BA6
:10270000BE016F5F7F4F88E394E00E94C5168C0185
:10271000CE0101960E94EA1817FF0E9483226DECF9
:1027200072E0CE0101960E94C61BBE016F5F7F4F13
:1027300088E394E00E94C5168C01CE0101960E94A8
:10274000EA1817FD0EC068E374E0CE0101960E94FE
:10275000FE1BCE0101960E940A21CE0101960E9425
:10276000EA1862EC72E0CE0101960E94C61BBE011F
:102770006F5F7F4F88E394E00E94C5168C01CE0105
:1027800001960E94EA1817FD04C00E94A52B0E9422
:10279000012E67EB72E0CE0101960E94C61BBE01BE
:1027A0006F5F7F4F88E394E00E94C5168C01CE01D5
:1027B00001960E94EA1817FF0E94AE206EEF72E0A9
:1027C00088E394E00E94761860C080917F021B8AA3
:1027D0001A8A1D8A1C8A1F8A1E8A4AE0BE016F5F00
:1027E0007F4F90E00E947834BE016F5F7F4FCE0133
:1027F00042960E947618BE016E5E7F4FCE014896CB
:102800000E941117CE0142960E94EA180C94650AA4
:1028100080917D0290917E021B8A1A8A1D8A1C8AF1
:102820001F8A1E8A4AE0BE016F5F7F4F0E94783484
:10283000BE016F5F7F4FCE0142960E947618BE01A7
:102840006E5E7F4FCE0148960E941117CE014296D0
:102850000E94EA180C94020B69E472E078CE609151
:10286000FE05062E000C770B4AE0CE0101960E9471
:102870009A1BBE016F5F7F4FCE0148960E941117D1
:10288000CE0101960E94EA18B0CEE5960FB6F894F4
:10289000DEBF0FBECDBFDF91CF911F910F91FF9093
:1028A000EF90DF90CF90BF90AF909F908F907F90F0
:1028B0006F905F904F903F902F9008950E945933F2
:1028C000AF92BF92CF92DF92EF92FF920F931F933E
:1028D000CF93DF937B018A01FB0144815581411530
:1028E000510561F1FC01248135812115310531F15A
:1028F0002417350718F10217130718F08901015042
:102900001109FC01A080B180C501DFEFCFEF6501A7
:10291000C00ED11EC816D906A0F0F70160817181E2
:102920000E94A033009769F09C012A193B09021705
:10293000130710F0D22FC32F0196ECCF8FEF9FEF2C
:1029400002C08D2F9C2FDF91CF911F910F91FF908F
:10295000EF90DF90CF90BF90AF900895DC01149678
:102960002D913C911597232B41F0ED91FC9181E045
:102970009081992319F080E0089581E00895E1E7BE
:10298000F3E0A089B18982E08C93A485B5851C927F
:10299000A685B7858FEC8C93108EA489B58986E0C7
:1029A0008C93A289B3898C9180618C93A289B3891D
:1029B0008C9188608C93A289B3898C9180688C9368
:1029C0000288F389E02D80818F7D808308950F93A5
:1029D0001F93CF93DF93CBE4D3E08C010B541340D0
:1029E000C8018C0F9D1F0E94A234899383E0C137D8
:1029F000D807B1F78BE493E0DF91CF911F910F914E
:102A000008958F929F92AF92BF920F931F93CF938F
:102A1000DF93CDB7DEB7A1970FB6F894DEBF0FBE38
:102A2000CDBF19A2423008F44AE08E010F5D1F4F5E
:102A3000842E912CA12CB12CA50194010E9421354A
:102A4000E62FB901CA0101501109EA3014F4E05D22
:102A500001C0E95CD801EC93232B242B252B61F7D3
:102A6000B80181E793E00E944E1CA1960FB6F8943E
:102A7000DEBF0FBECDBFDF91CF911F910F91BF90F1
:102A8000AF909F908F900895CF92DF92EF92FF9238
:102A9000CF93DF936C01990FEE08FF08F7FE1AC081
:102AA000E0917103F09172030190F081E02D6DE2ED
:102AB00081E793E00995EC0166277727CB016C1934
:102AC0007D098E099F094AE00E9401157C01EC0EE8
:102AD000FD1E06C04AE0C701B6010E9401157C0137
:102AE00081E793E00E94631C8E0D9F1DDF91CF91C3
:102AF000FF90EF90DF90CF9008950F931F93CF93A7
:102B0000DF93FC01248135812115310519F4FB0186
:102B1000108211C0EA0121972C173D0708F4E90142
:102B20008B01FC0160817181AE01C8010E9491336B
:102B3000C00FD11F1882DF91CF911F910F9108957F
:102B4000CF93DF93C0913804D0913904209751F08E
:102B50008881882339F0082E000C990B0E945E337F
:102B60008993F6CFDF91CF910895FC018081918107
:102B7000009711F00C94163460E070E0CB010895DA
:102B80002F923F924F925F926F927F928F929F927D
:102B9000AF92BF92CF92DF92EF92FF920F931F936B
:102BA000CF93DF93FC01448055804114510409F414
:102BB000CFC0FB01648075806114710409F4C8C042
:102BC0007A016B01EC01FA01A480B580A618B70860
:102BD00008811981A114B104C1F4F60160817181E9
:102BE000C8010E94A033EC01892B09F4B1C0F701A0
:102BF0006081718144815581CE010E946633F70165
:102C0000048115810C0F1D1FE8CFB7FE02C04801DB
:102C100006C0FB01208031804201C80142C0F6019C
:102C200060817181C4010E94A0332C01892B19F1AC
:102C3000320168187908A301B401C8010E94663303
:102C4000060D171DF7016081718144815581C8010E
:102C50000E946633F70184819581080F191FF601E0
:102C600084809580840C951C8C819D818A0D9B1D90
:102C70009D838C83D4CFB401C801DF91CF911F9184
:102C80000F91FF90EF90DF90CF90BF90AF909F900B
:102C90008F907F906F905F904F903F902F900C940B
:102CA0008A33B1010E94A033009729F0860D971D49
:102CB0008A0C9B1CF6CF8414950409F449C08A81C0
:102CC0009B818815990560F4B4016F5F7F4FC8013F
:102CD0000E948F320097E1F1998388839B828A82D8
:102CE0004C815D814150510957FD32C0B601CE0182
:102CF0000E9460148C0197FD2BC088819981F60198
:102D000024813581200F311F820F931F4C815D81FB
:102D1000421B530BBC018A0D9B1D0E946F338C819B
:102D20009D818A0D9B1D9D838C8328813981F901AA
:102D3000E80FF91F108288819981F7016081718104
:102D400044815581800F911F0E946633A801CACF2C
:102D5000DF91CF911F910F91FF90EF90DF90CF9077
:102D6000BF90AF909F908F907F906F905F904F90AB
:102D70003F902F900895FC0144815581FB012481EF
:102D80003581421B530B0C946014CF93DF93FC01ED
:102D900024813581232B71F0FB01DC01CD91DC9185
:102DA00060817181CE010E94A033009719F08C1BC5
:102DB0009D0B02C08FEF9FEFDF91CF910895FC0133
:102DC00024813581FB01448155812417350721F584
:102DD000FC0180819181FB0160817181009719F074
:102DE00061157105A1F46115710549F0232BB1F04E
:102DF000FB01808190E09195819591090AC000972F
:102E000069F0232B59F0FC01808190E002C00E9400
:102E1000813321E0892B19F020E001C021E0822FCD
:102E200008950F931F93CF93DF938C01EB01FC0167
:102E3000808191810097B1F0688179816115710578
:102E400079F0428153812C813D814217530740F034
:102E50000E948A338C819D81F8019583848313C0FD
:102E60000E94F73188819981F801918380838A815A
:102E70009B81938382838C819D8195838483198236
:102E800018821B821A821D821C82DF91CF911F91B2
:102E90000F9108950F931F93CF93DF93EC018881D7
:102EA0009981009729F02A813B812617370788F4FA
:102EB0008B016F5F7F4F0E948F32009761F0998383
:102EC00088831B830A832C813D81232B11F4FC0111
:102ED000108281E001C080E0DF91CF911F910F91BE
:102EE0000895EF92FF920F931F93CF93DF93FC010E
:102EF000248135816115710511F480E019C04115F7
:102F00005105A9F07B01EC018A01020F131FB801E2
:102F10000E944A17882389F3288139818C819D81F9
:102F2000B701820F931F0E948A331D830C8381E0B7
:102F3000DF91CF911F910F91FF90EF900895CF9364
:102F4000DF9300D0CDB7DEB789831A8241E050E02D
:102F5000BE016F5F7F4F88E394E00E9471170F906E
:102F60000F90DF91CF910895CF93DF93EC0188818B
:102F70009981009711F00E94F731198218821D8201
:102F80001C821B821A82DF91CF910895EF92FF92EB
:102F90000F931F93CF93DF93EC017B0161157105B4
:102FA000E1F0CB010E9444340097D1F02C813D81A7
:102FB0008C01020F131FB801CE010E944A1788230B
:102FC00061F0288139818C819D81B701820F931F27
:102FD0000E943D341D830C8303C0CE010E94B417B0
:102FE000CE01DF91CF911F910F91FF90EF90089547
:102FF000EF92FF920F931F93CF93DF9300D000D0F7
:10300000CDB7DEB77C01862F4AE08E010F5F1F4FE0
:10301000B80190E00E945834F80101900020E9F7CF
:103020003197AF01401B510BB801C7010E947117C6
:10303000811103C0C7010E94B417C7010F900F9000
:103040000F900F90DF91CF911F910F91FF90EF9014
:103050000895CF93DF93EC016115710561F0FB01D9
:1030600001900020E9F73197AF01461B570B0E94F2
:103070007117811103C0CE010E94B417CE01DF91F8
:10308000CF910895CF93DF93EC01FB0144815581EB
:10309000608171810E947117811103C0CE010E946D
:1030A000B417CE01DF91CF910895EF92FF920F9365
:1030B0001F93CF93DF93EC017B018A01BA010E9439
:1030C0004A17811104C0CE010E94B41707C01D83A6
:1030D0000C83B701888199810E948A33CE01DF91E8
:1030E000CF911F910F91FF90EF900895CF93DF93B1
:1030F000EC016115710559F0FB0101900020E9F721
:103100003197AF01461B570B0E94551802C00E9411
:10311000B417CE01DF91CF910895BF92CF92DF9285
:10312000EF92FF920F931F93CF93DF937C016B017C
:103130008A01E9012417350720F4812F8901C42F62
:10314000D82F6EEF72E0C7010E94071CD6011496BB
:103150008D919C91159708171907D0F48C179D072E
:1031600008F4EC01D601ED91FC911197EC0FFD1FD5
:10317000B08010824D915C91BA01600F711FC70140
:103180000E947618D601ED91FC91EC0FFD1FB082E4
:10319000C701DF91CF911F910F91FF90EF90DF90CA
:1031A000CF90BF900895CF93DF93EC01FB0186177A
:1031B000970761F0608171816115710529F0448183
:1031C00055810E94551802C00E94B417CE01DF91AC
:1031D000CF910895FC01808191810C94F73108957D
:1031E000CF92DF92EF92FF920F931F93CF93DF93D3
:1031F0006C017A018B01C0E0D0E0CE15DF0589F0CB
:10320000D8016D918D01D601ED91FC910190F08175
:10321000E02DC6010995892B11F47E0102C021968B
:10322000ECCFC701DF91CF911F910F91FF90EF90ED
:10323000DF90CF900895FC01918D828D981761F0F9
:10324000828DDF01A80FB11D5D968C91928D9F5FDD
:103250009F73928F90E008958FEF9FEF0895FC0188
:10326000918D828D981731F0828DE80FF11D858D3B
:1032700090E008958FEF9FEF0895FC01918D228DCE
:10328000892F90E0805C9F4F821B91098F73992753
:10329000089581E793E00E943D1921E0892B09F40C
:1032A00020E0822F0895FC01848DDF01A80FB11D5D
:1032B000A35ABF4F2C91848D90E001968F7399276C
:1032C000848FA689B7892C93A089B1898C91806459
:1032D0008C93938D848D981306C00288F389E02D1A
:1032E00080818F7D80830895EF92FF920F931F93CB
:1032F000CF93DF93EC0181E0888F9B8D8C8D9813A9
:1033000005C0E889F989808185FD24C0F62E0B8DE2
:1033100010E00F5F1F4F0F731127E02E8C8DE81206
:103320000CC00FB607FCFACFE889F989808185FFC8
:10333000F5CFCE010E945319F1CF8B8DFE01E80F1E
:10334000F11DE35AFF4FF0820B8FEA89FB898081E0
:10335000806207C0EE89FF896083E889F9898081EE
:103360008064808381E090E0DF91CF911F910F9185
:10337000FF90EF900895CF93DF93EC01888D882321
:10338000C9F0EA89FB89808185FD05C0A889B989D2
:103390008C9186FD0FC00FB607FCF5CF808185FFAD
:1033A000F2CFA889B9898C9185FFEDCFCE010E941B
:1033B0005319E7CFDF91CF91089580E090E0892BFA
:1033C00029F00E94491981110C940000089583305E
:1033D00081F028F4813099F08230A1F0089587308F
:1033E000A9F08830B9F08430D1F4809180008F7DCD
:1033F00003C0809180008F7780938000089584B50A
:103400008F7702C084B58F7D84BD08958091B00010
:103410008F7703C08091B0008F7D8093B0000895B6
:103420003FB7F8948091D8059091D905A091DA051D
:10343000B091DB0526B5A89B05C02F3F19F001967A
:10344000A11DB11D3FBFBA2FA92F982F8827820F2A
:10345000911DA11DB11DBC01CD0142E0660F771F7A
:10346000881F991F4A95D1F7089585ED8093BC0078
:103470008091BC0084FDFCCF1092450308954091DB
:10348000B205262F30E0240F311D21323105DCF446
:10349000209145032430C9F4FC0180E090E08617B8
:1034A00058F43091B2052191DC01A057BA4FA30F17
:1034B000B11D2C930196F3CF8091B205680F6093F4
:1034C000B20580E0089581E0089582E008950895AE
:1034D000E091490380914803E81730F4F0E0E857A1
:1034E000FB4F808190E008958FEF9FEF08959091BA
:1034F000490380914803981750F4E92FF0E0E8570A
:10350000FB4F208130E09F5F9093490302C02FEF73
:103510003FEFC90108958091480390E0209149034D
:10352000821B91090895CF92DF92EF92FF920F9341
:103530001F93CF93DF937C01262F972F8A018091D1
:103540008704882391F0C62FD72F6E01C40ED51E95
:10355000CC15DD0571F06991D701ED91FC910190D9
:10356000F081E02DC7010995F3CF642F822F0E94CF
:103570003F1AC801DF91CF911F910F91FF90EF90FB
:10358000DF90CF900895CF93DF931F92CDB7DEB732
:103590006983209187042223D1F0209146032032B1
:1035A00040F021E030E0FC013383228380E090E0B2
:1035B00015C080914703E82FF0E0E959FB4F99814E
:1035C00090838F5F809347038093460305C061E03B
:1035D000CE0101960E943F1A81E090E00F90DF91AA
:1035E000CF9108952091650430916604281739071A
:1035F00071F49091640480916304981741F0E09114
:103600006404F0E0E053FB4F808190E008958FEF79
:103610009FEF089508951F93CF93DF93DC015C968D
:103620002D913C915D972115310539F481E090E0B1
:1036300013969C938E9312973DC05196ED91FC91F9
:10364000529750969C915097892F80951FB75E9600
:103650004C915E9741FB772770F941FD6095F89496
:103660004081772311F0492B01C048234083E901B1
:103670002197F1F748E0508160FF02C0592B01C04B
:1036800058235083E9012197F1F76695415099F746
:10369000772321F090818923808303C08081982B38
:1036A00090831FBF5C968D919C915D970197F1F778
:1036B00021E030E0C901DF91CF911F910895209161
:1036C0006504309166042817390771F4809163040A
:1036D0002091640490E080549F4F821B910960EC1C
:1036E00070E00E943431089580E090E008952091C8
:1036F00065043091660428173907C9F49091640471
:1037000080916304981799F0E0916404F0E0E0532D
:10371000FB4F20818091640490E0019660EC70E0A2
:103720000E94343180936404822F90E008958FEFDB
:103730009FEF08950F931F93CF93DF93CDB7DEB71D
:1037400062970FB6F894DEBF0FBECDBF8C01CB01E0
:10375000F80111821082138212821582148250E0C5
:10376000BE016F5F7F4F0E944D34BE016F5F7F4F80
:10377000C8010E94761862960FB6F894DEBF0FBE9D
:10378000CDBFDF91CF911F910F910895EF92FF92DE
:103790000F931F93CF93DF93EC01198218821B8242
:1037A0001A821D821C826115710509F18B01CB0102
:1037B0000E9444347C01BC01CE010E944A17811151
:1037C00009C0CE01DF91CF911F910F91FF90EF9033
:1037D0000C94B417FD82EC82B80188819981DF9145
:1037E000CF911F910F91FF90EF900C943D34DF919A
:1037F000CF911F910F91FF90EF900895FC011182DE
:10380000108213821282158214820C94D318FC0148
:103810001182108213821282158214826115710541
:1038200051F0FB0101900020E9F73197AF01461BF1
:10383000570B0C9455180895DC01ED91FC91DB01B8
:1038400014964D915C9115976D917C910280F38156
:10385000E02D0994EF92FF920F931F93CF93DF9384
:103860008C017B01C0E0D0E0F701EC0FFD1F6491FB
:10387000662361F0D801ED91FC910190F081E02D7B
:10388000C8010995892B11F02196EECFCE01DF9169
:10389000CF911F910F91FF90EF90089561157105E1
:1038A00079F0FB0101900020E9F73197AF01461B49
:1038B000570BDC01ED91FC910280F381E02D09941E
:1038C00080E090E008956CEF72E00C944E1C0F9332
:1038D0001F93CF93DF93EC010E941C1C8C01CE013F
:1038E0000E94631C800F911FDF91CF911F910F9158
:1038F00008950F931F93CF93DF93EC010E942A1C2E
:103900008C01CE010E94631C800F911FDF91CF912B
:103910001F910F9108951F920F920FB60F921124CD
:103920002F933F934F935F936F937F938F939F93C7
:10393000AF93BF93EF93FF9381E793E00E945319F6
:10394000FF91EF91BF91AF919F918F917F916F9177
:103950005F914F913F912F910F900FBE0F901F904D
:1039600018951F920F920FB60F9211242F938F93D9
:103970009F93EF93FF93E0918103F0918203808105
:10398000E0918703F091880382FD12C090818091BD
:103990008A038F5F8F7320918B03821751F0E09120
:1039A0008A03F0E0EF58FC4F958F80938A0301C0A3
:1039B0008081FF91EF919F918F912F910F900FBE7A
:1039C0000F901F901895CF93DF93282F30E0F901C7
:1039D000ED5CFB4F8491F901EB5EFB4FD491F90153
:1039E000EF5FFB4FC491CC2391F081110E94E71946
:1039F000EC2FF0E0EE0FFF1FE950FC4FA591B491C2
:103A0000EC91ED2381E090E021F480E002C080E0C1
:103A100090E0DF91CF9108951F93CF93DF93282FEC
:103A200030E0F901ED5CFB4F8491F901EB5EFB4F57
:103A3000D491F901EF5FFB4FC491CC23C9F0162F4D
:103A400081110E94E719EC2FF0E0EE0FFF1FE35108
:103A5000FC4FA591B4918FB7F894111105C09C91BA
:103A6000ED2FE095E92302C0EC91ED2BEC938FBF95
:103A7000DF91CF911F910895CF93DF9390E0FC01E8
:103A8000EB5EFB4F2491FC01EF5FFB4F8491882399
:103A900061F190E0880F991FFC01E75DFB4FC59134
:103AA000D491FC01E351FC4FA591B491611109C07F
:103AB0009FB7F8948881209582238883EC912E23E8
:103AC0000BC0623061F49FB7F8943881822F8095E3
:103AD00083238883EC912E2B2C939FBF06C08FB736
:103AE000F894E8812E2B28838FBFDF91CF91089522
:103AF0008F929F92AF92BF92CF92DF92EF92FF92FE
:103B00006B017C010E94101A4B015C01C114D104AD
:103B1000E104F104F1F00E94101ADC01CB018819D4
:103B20009909AA09BB09883E9340A105B10570F324
:103B300021E0C21AD108E108F10888EE880E83E07E
:103B4000981EA11CB11CC114D104E104F10419F7A1
:103B5000DDCFFF90EF90DF90CF90BF90AF909F9020
:103B60008F9008951F920F920FB60F9211242F93EA
:103B70003F938F939F93AF93BF938091CC04909189
:103B8000CD04A091CE04B091CF043091D70523E0AD
:103B9000230F2D3720F40196A11DB11D05C026E885
:103BA000230F0296A11DB11D2093D7058093CC044D
:103BB0009093CD04A093CE04B093CF048091D80508
:103BC0009091D905A091DA05B091DB050196A11D70
:103BD000B11D8093D8059093D905A093DA05B093D1
:103BE000DB05BF91AF919F918F913F912F910F90E6
:103BF0000FBE0F901F9018951F920F920FB60F9245
:103C000011242F933F934F935F936F937F938F93E1
:103C10009F93AF93BF93EF93FF938091B900887FF9
:103C2000803609F49CC068F5883209F45BC090F4D2
:103C3000803109F454C038F4882309F4F6C0883080
:103C400009F44DC0F6C0883109F44CC0803209F443
:103C50005DC0EFC0803409F468C048F4803309F4D3
:103C600055C0883309F0E5C08093A804D8C08035DA
:103C700009F44FC0883509F45DC0883409F0D9C013
:103C8000D6C0883909F4C7C0A8F4883709F467C0DA
:103C900038F4883609F463C0803709F460C0C9C0BD
:103CA000883809F4B8C0803909F45FC0803809F059
:103CB000C0C05BC0803B09F486C038F4803A09F488
:103CC00066C0883A09F47FC0B4C0803C09F4A7C03C
:103CD000883C09F4A4C0883B09F48AC0AAC080913A
:103CE000CB0410C09091CA048091C904981770F554
:103CF000E091CA0481E08E0F8093CA04F0E0E7559A
:103D0000FB4F80818093BB0085EC86C08093A80424
:103D10008EC0E091CA0481E08E0F8093CA04809126
:103D2000BB00F0E0E755FB4F80839091CA0480917F
:103D3000C9046EC0E091CA0481E08E0F8093CA046A
:103D40008091BB00F0E0E755FB4F808380914403F6
:103D500081116DC081E08093430384EA61C083E0F8
:103D6000809345031092D605CFCF8091D60580323F
:103D700008F051C0E091D60581E08E0F8093D60502
:103D80008091BB00F0E0EA54FA4F8083BDCF85EC10
:103D90008093BC00109245038091D605803230F4A8
:103DA000E091D605F0E0EA54FA4F10826091D60512
:103DB00070E0E091B405F091B50586EB95E00995CA
:103DC0001092D60536C084E0809345031092B30567
:103DD0001092B205E091B005F091B105099580917E
:103DE000B205811105C081E08093B2051092900563
:103DF000E091B30581E08E0F8093B305F0E0E057CA
:103E0000FA4F80818093BB009091B3058091B205F9
:103E1000981708F479CF85E88093BC000AC085EC38
:103E20008093BC001092450304C01092A8040E9425
:103E3000351AFF91EF91BF91AF919F918F917F9133
:103E40006F915F914F913F912F910F900FBE0F9007
:103E50001F9018951F920F920FB60F9211242F9357
:103E60003F934F935F936F937F938F939F93AF9302
:103E7000BF93EF93FF93E0916504F0916604309750
:103E800009F453C0968DA685B785858591FF04C03A
:103E90009C91892329F449C09C91892309F045C04C
:103EA000A389B4899C918589809589238C9386897F
:103EB00097890197F1F7608D718DA685B785558536
:103EC00038E020E0CB010197F1F7822F90E0959543
:103ED0008795282F4C91452309F02068315091F7A0
:103EE000868D81FD20958091630490E0019660ECC1
:103EF00070E00E94343190916404981749F0A091C9
:103F00006304B0E0A053BB4F2C938093630403C0C1
:103F1000868D8160868F828D938D0197F1F7A389BD
:103F2000B4899C918589892B8C93FF91EF91BF91E6
:103F3000AF919F918F917F916F915F914F913F9141
:103F40002F910F900FBE0F901F901895CF92DF9278
:103F5000EF92FF920F931F93CF93DF93EB017B01BF
:103F600021E1E20EF11C8B016C01C61AD70AC601D1
:103F7000800F911F0E94A234F80181938F01EE15EA
:103F8000FF05A9F7CE01DF91CF911F910F91FF900F
:103F9000EF90DF90CF900895AF92BF92CF92DF92D3
:103FA000EF92FF920F931F93CF93DF9300D0CDB783
:103FB000DEB78B016B0121E1C20ED11C7B015C01DC
:103FC000A61AB70A95012E0D3F1DF70161917F01D9
:103FD0003A832983CE0101960E946F2EEC14FD04D2
:103FE00089F7C8010F900F90DF91CF911F910F912A
:103FF000FF90EF90DF90CF90BF90AF900895CF9358
:10400000DF9300D0CDB7DEB79A838983CE010196C6
:104010000E946F2E0F900F90DF91CF9108950C9416
:10402000A234EF92FF920F931F93CF93DF9300D0B0
:1040300000D000D0CDB7DEB78C017B0180914A0360
:10404000813009F057C061E975E084E494E00E9492
:104050002A1CB70184E494E00E941C1C6FE875E000
:1040600084E494E00E94791C64EF71E080E090E0C9
:104070000E94781DB80184E494E00E941C1C64EF47
:1040800071E080E090E00E94781DE0914404F0919E
:1040900045040190F081E02D6AE184E494E0099503
:1040A00064EF71E080E090E00E94781D68E875E0C0
:1040B00081E793E00E942A1CB701CE0101960E947D
:1040C000FE1B60E274E0CE0101960E944218B80126
:1040D0000E944218BC0181E793E00E94671CCE0158
:1040E00001960E94EA1868E873E180E090E00E947F
:1040F000781D23C068EE73E080E090E00E94781D98
:104100006BE975E081E793E00E942A1CB701CE01BC
:1041100001960E94FE1B60E274E0CE0101960E94AF
:104120004218B8010E944218BC0181E793E00E9446
:10413000671CCE0101960E94EA1826960FB6F894E5
:10414000DEBF0FBECDBFDF91CF911F910F91FF90CA
:10415000EF90089581E793E00C94631CDF92EF9257
:10416000FF920F931F93CF93DF9300D000D000D026
:10417000CDB7DEB764E575E081E793E00E94791C76
:1041800082E0E82E81E0F82E00E010E0F70183895C
:1041900094890E94E714F7018389948987960E9485
:1041A0000F20D82E0F5F1F4F4AE0B801CE010196B5
:1041B0000E949A1B60E274E0CE0101960E944218B0
:1041C0006BE473E00E94291860E274E00E944218D8
:1041D0006D2D0E94F817BC0181E793E00E94671CD7
:1041E000CE0101960E94EA18F5E1EF0EF11C0830AD
:1041F000110561F60E94AA2026960FB6F894DEBF3C
:104200000FBECDBFDF91CF911F910F91FF90EF9027
:10421000DF900895AF92BF92CF92DF92EF92FF921C
:104220000F931F93CF93DF93CDB7DEB76E970FB683
:10423000F894DEBF0FBECDBF8C0168EC72E0CE01FA
:1042400001960E94071CBE016F5F7F4FC8010E944C
:10425000BB164AE0BC01CE0107960E949A1BCE0114
:1042600007960E94B515AB014F5F5F4FB801CE01B5
:104270000D960E948F2ECE0107960E94EA18CE015D
:1042800001960E94EA186FEF72E0CE0101960E943B
:10429000071CBE016F5F7F4FCE010D960E94C516B1
:1042A000092FCE0101960E94EA186EEF72E0CE014E
:1042B00007960E94071C6FEF72E0CE0101960E94E4
:1042C000071CAE01495F5F4FBE016F5F7F4FCE019C
:1042D0000D960E94C015CE0101960E94EA18CE01EB
:1042E00007960E94EA186EEF72E0CE0107960E94D0
:1042F000071C62E073E0CE0101960E94071CAE012C
:10430000495F5F4FBE016F5F7F4FCE010D960E94E8
:10431000C015CE0101960E94EA18CE0107960E94B0
:10432000EA186EEF72E0CE0107960E94071C6DEF4F
:1043300072E0CE0101960E94071CAE01495F5F4FFB
:10434000BE016F5F7F4FCE010D960E94C015CE015A
:1043500001960E94EA18CE0107960E94EA1860E3CF
:1043600073E0CE0101960E94071CBE016F5F7F4F74
:10437000CE010D960E94C5164AE0BC01CE014396BF
:104380000E949A1BCE0143960E94B5159B0140E006
:1043900050E0BE01635F7F4FCE0107960E948D18EB
:1043A000CE0143960E94EA18CE0101960E94EA18B7
:1043B00060E373E0CE0143960E94071CBE016D5E70
:1043C0007F4FCE010D960E94BB164AE0BC01CE0184
:1043D00049960E949A1BCE0149960E94B515AB01E1
:1043E0004F5F5F4FBE01635F7F4FCE0101960E941A
:1043F0008F2ECE0149960E94EA18CE0143960E9464
:10440000EA18CE0107960E94B515162FBE016F5F00
:104410007F4FCE0143960E94FE1B1150183048F08A
:1044200064E775E081E793E00E94791C0E94E62929
:1044300045C046E250E063E176E0CE0143960E943B
:104440007D15C12ED12C25E1129FF0011124EE5FC4
:10445000FE4F8389948923E1E22E26E0F22EFC01AF
:10446000E351F6405F01C5018E0D9F1DF70161917B
:104470007F019A8F898FCE0149960E946F2EF9E3B2
:10448000EF16F6E0FF0679F7602F6095661F662746
:10449000661F85E18C9DF0018D9DF00D1124EE5F6E
:1044A000FE4F8389948987960E94FF1F61E675E01D
:1044B00081E793E00E94791C0E94CE290E94AA20E5
:1044C0000E94AE20CE0143960E94EA18CE010196CA
:1044D0000E94EA18CE0107960E94EA18CE010D96B6
:1044E0000E94EA186E960FB6F894DEBF0FBECDBFDD
:1044F000DF91CF911F910F91FF90EF90DF90CF90C0
:10450000BF90AF9008957F928F929F92AF92BF928B
:10451000CF92DF92EF92FF920F931F93CF93DF938F
:10452000C12CD12C7601C394C0E0BB24B39462E0CB
:10453000A62E99249A9475EE872EE5EC7E2EDC2D1E
:10454000B0928704C092120610924703109246035D
:10455000809145038111FCCFA0924503B0924403A2
:104560009092A8041092CA041092C9041092CB042D
:104570009091CB0486019601220F331F292B2093A3
:10458000CB0490914303913069F4109243039091CE
:10459000CB049093BB009091BC0093FDF8CF709238
:1045A000BC0002C08092BC00909145039230E1F3C0
:1045B0009091A8049F3F69F08091A804803231F067
:1045C0008091A804803321F084E003C082E001C020
:1045D00083E01092470310924603109287048111E2
:1045E00034C063E475E081E793E00E942A1C80E117
:1045F000C816D104E104F10430F461E475E081E708
:1046000093E00E942A1C40E1C701B6010E940115F7
:10461000D052D830B0F460E274E081E793E00E94B9
:104620001C1C6FE275E081E793E00E94791C1093F7
:1046300011060093100680910F068F5F80930F067E
:1046400002C00E94AA20CF5F1DC08430D9F463E26B
:1046500075E081E793E00E942A1CE0E1CE16D104C8
:10466000E104F10430F461E275E081E793E00E9437
:104670002A1C40E1C701B6010E94011581E793E0C1
:104680000E94631CFFEFCF1ADF0AEF0AFF0A8FE7D1
:10469000C816D104E104F10409F051CFC11106C0DC
:1046A0006BE075E081E793E00E94791C80910F0632
:1046B0008823E9F00E94AE2002E011E0CFEFD5E0C0
:1046C000FC2EE8E0FE0EF8018389948987960E940B
:1046D0000F2089930B5E1F4FFC12F5CF0E94AA207A
:1046E000E7E0F6E088E08E0F11928E13FDCFDF91A8
:1046F000CF911F910F91FF90EF90DF90CF90BF90DF
:10470000AF909F908F907F90089562E075E084E471
:1047100094E00E942A1C8091FE05813031F46EEFF6
:1047200074E084E494E00E94791C8091FE0582503C
:10473000823030F46CEF74E084E494E00E94791CE1
:1047400060ED77E080E090E00E94781D60EF74E01B
:1047500081E793E00E94791C0C94CE29CF92DF92DE
:10476000EF92FF920F931F93CF93DF93CDB7DEB7F6
:10477000A4970FB6F894DEBF0FBECDBF8C0168ECD6
:1047800072E0CE0101960E94071CBE016F5F7F4F51
:10479000C8010E94BB164AE0BC01CE0142960E94AD
:1047A0009A1BCE0142960E94B515AB014F5F5F4F39
:1047B000B801CE0148960E948F2ECE0142960E94EB
:1047C000EA18CE0101960E94EA186EEF72E0CE015F
:1047D00042960E94071C64E073E0CE0101960E949D
:1047E000071CAE014E5E5F4FBE016F5F7F4FCE0173
:1047F00048960E94C015CE0101960E94EA18CE018B
:1048000042960E94EA186EEF72E0CE0142960E9434
:10481000071C62E073E0CE0101960E94071CAE0106
:104820004E5E5F4FBE016F5F7F4FCE0148960E9484
:10483000C015CE0101960E94EA18CE0142960E9450
:10484000EA186EEF72E0CE0142960E94071C6DEFEF
:1048500072E0CE0101960E94071CAE014E5E5F4FD2
:10486000BE016F5F7F4FCE0148960E94C015CE01FA
:1048700001960E94EA18CE0142960E94EA1860E36F
:1048800073E0CE0101960E94071CBE016F5F7F4F4F
:10489000CE0148960E94BB164AE0BC01CE014E965E
:1048A0000E949A1BCE014E960E94B515AB014F5F38
:1048B0005F4FBE01685E7F4FCE0142960E948F2EF1
:1048C000CE014E960E94EA18CE0101960E94EA1887
:1048D000BE016E5E7F4FCE014E960E94FE1B02ED22
:1048E00011E021E08DE0F82E6E0185E0C80ED11CAC
:1048F0006DEE75E0F801808191812CA30E94A61FC6
:10490000BC01CE0101960E94071CBE01625E7F4F72
:10491000CE0101960E94DF16E82ECE0101960E947C
:10492000EA182CA1EE2099F119821A821B821C82AE
:10493000F6018F2D11928A95E9F7BE016F5F7F4FC7
:10494000F801808191810E94CC1FF80180819181C2
:1049500060E042960E94FF1FF8018081918160E033
:1049600043960E94FF1F60EE74E081E793E00E948F
:104970002A1CBE01625E7F4F81E793E00E94671CA4
:104980000E94AA200E94002D0E94CE2920E00B5EEA
:104990001F4FF2E00F381F0709F0AACF213089F42A
:1049A00068EC74E081E793E00E942A1CBE01625E1D
:1049B0007F4F81E793E00E94671C0E94AA200E941B
:1049C000E629CE014E960E94EA18CE0142960E9438
:1049D000EA18CE0148960E94EA18A4960FB6F894F9
:1049E000DEBF0FBECDBFDF91CF911F910F91FF9022
:1049F000EF90DF90CF9008959F92AF92BF92CF92A9
:104A0000DF92EF92FF920F931F93CF93DF93CDB777
:104A1000DEB76E970FB6F894DEBF0FBECDBF8C0128
:104A200068EC72E0CE0101960E94071CBE016F5F28
:104A30007F4FC8010E94BB164AE0BC01CE01079619
:104A40000E949A1BCE0107960E94B515AB014F5FDD
:104A50005F4FB801CE0143960E948F2ECE0107967C
:104A60000E94EA18CE0101960E94EA1869E073E0FC
:104A7000CE0101960E94071CBE016F5F7F4FCE01E1
:104A800043960E94C516C92ECE0101960E94EA18CF
:104A90006BE073E0CE0101960E94071CBE016F5FC0
:104AA0007F4FCE0143960E94C516D92ECE010196A6
:104AB0000E94EA186EEF72E0CE0107960E94071C72
:104AC00069E073E0CE0101960E94071CAE01495FC8
:104AD0005F4FBE016F5F7F4FCE0143960E94C015AE
:104AE000CE0101960E94EA18CE0107960E94EA18AC
:104AF0006EEF72E0CE0107960E94071C6BE073E038
:104B0000CE0101960E94071CAE01495F5F4FBE01B6
:104B10006F5F7F4FCE0143960E94C015CE01019674
:104B20000E94EA18CE0107960E94EA186EEF72E022
:104B3000CE0107960E94071C64E073E0CE01019647
:104B40000E94071CAE01495F5F4FBE016F5F7F4F40
:104B5000CE0143960E94C015CE0101960E94EA182C
:104B6000CE0107960E94EA186EEF72E0CE0107961A
:104B70000E94071C62E073E0CE0101960E94071CB0
:104B8000AE01495F5F4FBE016F5F7F4FCE0143961D
:104B90000E94C015CE0101960E94EA18CE01079628
:104BA0000E94EA186EEF72E0CE0107960E94071C81
:104BB0006DEF72E0CE0101960E94071CAE01495FC5
:104BC0005F4FBE016F5F7F4FCE0143960E94C015BD
:104BD000CE0101960E94EA18CE0107960E94EA18BB
:104BE00060E373E0CE0101960E94071CBE016F5F77
:104BF0007F4FCE0143960E94C5164AE0BC01CE010C
:104C000007960E949A1BCE0107960E94B5159B013C
:104C100040E050E0BE016D5E7F4FCE010D960E94D8
:104C20008D18CE0107960E94EA18CE0101960E94C7
:104C3000EA1860E373E0CE0101960E94071CBE01F2
:104C40006F5F7F4FCE0143960E94BB164AE0BC01C6
:104C5000CE0149960E949A1BCE0149960E94B51535
:104C6000AB014F5F5F4FBE016D5E7F4FCE01079678
:104C70000E948F2ECE0149960E94EA18CE0101961D
:104C80000E94EA18CE010D960E94B515062FBE01AE
:104C9000695F7F4FCE0149960E94FE1B6DEE75E065
:104CA0008091BD019091BE010E94A61FBC01CE0162
:104CB00001960E94071CCE0101960E94AE14182F87
:104CC000CE0101960E94EA18112361F061EA74E0B6
:104CD00081E793E00E94791C0E94AA200E94E629A5
:104CE00010E001C011E08EEF800F8A3058F063E8C9
:104CF00074E081E793E00E94791C0E94AA200E9440
:104D0000E62910E08AEAA82E81E0B82EE12CF12CE9
:104D10006DEE75E0F501838994890E94A61FBC01A0
:104D2000CE0101960E94071CBE01675E7F4FCE0137
:104D300001960E94DF16982ECE0101960E94EA1875
:104D4000C70101967C01992071F064E574E081E768
:104D500093E00E942A1CC7010E9444150E94AA20C9
:104D60000E94E62910E095E1A90EB11CEAE0EE16DA
:104D7000F10471F61130B1F541E150E06CED75E0F0
:104D8000CE0149960E947D150150F5E10F9F8001EB
:104D9000112406551E4F6CED75E0F8018389948946
:104DA0000E94CC1F6C2D6095661F6627661FF80158
:104DB0008389948942960E94FF1F6D2D6095661F1E
:104DC0006627661FF8018389948943960E94FF1F16
:104DD00067E474E081E793E00E94791C0E94AA20B6
:104DE0000E94CE290E94002DCE0149960E94EA1809
:104DF000CE0107960E94EA18CE010D960E94EA188D
:104E0000CE0143960E94EA186E960FB6F894DEBF64
:104E10000FBECDBFDF91CF911F910F91FF90EF900B
:104E2000DF90CF90BF90AF909F900895EF92FF9248
:104E30000F931F93CF93DF93CDB7DEB768970FB66D
:104E4000F894DEBF0FBECDBF11E01093830261E086
:104E50008EE090E00E94FF1F109382026DE073E0ED
:104E6000CE0101960E94071C6CE274E0CE0101960F
:104E70000E944218BC0186E294E00E94D318CE0141
:104E800001960E94EA1866E274E081E793E00E94CE
:104E9000671C68EE73E080E090E00E94781D0AEAEB
:104EA00011E0F801E388F488C70143960E940F20BF
:104EB000813009F060C06DEE75E0C7010E94A61F49
:104EC000BC01CE0101960E94071CBE016F5F7F4F9F
:104ED0008CE294E00E94DF16F82ECE0101960E942B
:104EE000EA18F1101092400668EE73E080E090E05E
:104EF0000E94781D6DEE75E0F801838994890E9407
:104F0000A61FBC01CE010D960E94071C60E373E052
:104F1000CE0107960E94071CBE01635F7F4FCE0142
:104F200007960E944218BC01CE0143960E94FE1BC8
:104F300066E274E0CE0101960E94FE1BBE016D5E2A
:104F40007F4FCE0101960E941120CE0101960E9452
:104F5000EA18CE0143960E94EA18CE0107960E94F5
:104F6000EA18CE010D960E94EA1868EE73E080E020
:104F700090E00E94781D0B5E1F4FF2E00C371F0778
:104F800009F08FCF809140068130B1F568EE73E073
:104F900080E090E00E94781D60E373E0CE01079608
:104FA0000E94071C6CE274E0CE0107960E94421832
:104FB000BC01CE010D960E94FE1B6BEB76E0CE018C
:104FC00001960E94C61BBE01635F7F4FCE01019612
:104FD0000E941120CE0101960E94EA18CE010D9682
:104FE0000E94EA18CE0107960E94EA1868EE73E064
:104FF00080E090E00E94781D68960FB6F894DEBFBE
:105000000FBECDBFDF91CF911F910F91FF90EF9019
:105010000895EF92FF920F931F93CF93DF93CDB735
:10502000DEB768970FB6F894DEBF0FBECDBF109203
:10503000830260E08EE090E00E94FF1F6FE173E06A
:10504000CE0101960E94071C6CE274E0CE0101962D
:105050000E944218BC0186E294E00E94D318CE015F
:1050600001960E94EA1866E274E081E793E00E94EC
:10507000671C68EE73E080E090E00E94781D0AEA09
:1050800011E0F801E388F488C70143960E940F20DD
:10509000813009F060C06DEE75E0C7010E94A61F67
:1050A000BC01CE0101960E94071CBE016F5F7F4FBD
:1050B0008CE294E00E94DF16F82ECE0101960E9449
:1050C000EA18F1101092400668EE73E080E090E07C
:1050D0000E94781D6DEE75E0F801838994890E9425
:1050E000A61FBC01CE010D960E94071C60E373E071
:1050F000CE0107960E94071CBE01635F7F4FCE0161
:1051000007960E944218BC01CE0143960E94FE1BE6
:1051100066E274E0CE0101960E94FE1BBE016D5E48
:105120007F4FCE0101960E941120CE0101960E9470
:10513000EA18CE0143960E94EA18CE0107960E9413
:10514000EA18CE010D960E94EA1868EE73E080E03E
:1051500090E00E94781D0B5E1F4FF2E00C371F0796
:1051600009F08FCF809140068130B1F568EE73E091
:1051700080E090E00E94781D60E373E0CE01079626
:105180000E94071C6CE274E0CE0107960E94421850
:10519000BC01CE010D960E94FE1B61EB76E0CE01B4
:1051A00001960E94C61BBE01635F7F4FCE01019630
:1051B0000E941120CE0101960E94EA18CE010D96A0
:1051C0000E94EA18CE0107960E94EA1868EE73E082
:1051D00080E090E00E94781D68960FB6F894DEBFDC
:1051E0000FBECDBFDF91CF911F910F91FF90EF9038
:1051F0000895AF92BF92DF92EF92FF920F931F93A9
:10520000CF93DF93CDB7DEB768970FB6F894DEBFC4
:105210000FBECDBF20918302213009F0AFC0D62E42
:105220007C0161E084E00E940C1D60E085E00E944A
:105230000C1D2FB7F8948091CC049091CD04A091CF
:10524000CE04B091CF042FBF80933C0690933D06CF
:10525000A0933E06B0933F06B70181E793E00E941A
:10526000671C0AEA11E0F801A388B488C5014396D7
:105270000E940F208130F1F56DEE75E0C5010E94AE
:10528000A61FBC01CE010D960E94071C60E373E0CF
:10529000CE0107960E94071CBE01635F7F4FCE01BF
:1052A00007960E944218BC01CE0143960E94FE1B45
:1052B000B701CE0101960E94FE1BBE016D5E7F4FBD
:1052C000CE0101960E941120CE0101960E94EA189B
:1052D000CE0143960E94EA18CE0107960E94EA1872
:1052E000CE010D960E94EA1868EE73E080E090E02F
:1052F0000E94781D0B5E1F4FF2E00C371F0709F06C
:10530000B2CF809181028130C9F5D81237C06DEEDD
:1053100075E08091BD019091BE010E94A61FBC0165
:10532000CE0101960E94071CCE0101960E94AE1488
:10533000182FCE0101960E94EA1811111FC06CEAC5
:1053400076E084E494E00E942A1C6DEE75E0809182
:10535000BD019091BE010E94A61FBC0184E494E0AF
:105360000E944E1C6AEA76E084E494E00E94791C74
:1053700068EE73E080E090E00E94781D68960FB6BA
:10538000F894DEBF0FBECDBFDF91CF911F910F917B
:10539000FF90EF90DF90BF90AF90089561E08BE0B9
:1053A0000E940C1D64E670E080E090E00E94781D91
:1053B00060E08BE00E940C1D64E670E080E090E00D
:1053C0000E94781D61E08BE00C940C1D0E94CE2998
:1053D0000C94CE29DF92EF92FF920F931F93CF93FD
:1053E000DF9300D000D000D0CDB7DEB77C010AEA51
:1053F00011E06DEE75E0F801838994890E94A61F83
:10540000BC01CE0101960E94071CB701CE01019696
:105410000E94DF16D82ECE0101960E94EA18D11004
:1054200008C00B5E1F4FF2E00C371F0711F780E03A
:105430000DC0B7018CE294E00E94D318F801838973
:10544000948942960E940F20813059F726960FB614
:10545000F894DEBF0FBECDBFDF91CF911F910F91AA
:10546000FF90EF90DF9008950F931F93CF93DF93FA
:1054700000D000D000D0CDB7DEB760ED77E080E09F
:1054800090E00E94781D0E94BF1410925F04109259
:105490005E0410925D0410925C0410925B04109202
:1054A0005A048DE991E09093610480936004909197
:1054B0005004963108F057C02DEB30E030935B0478
:1054C00020935A042BE931E030935D0420935C046F
:1054D0002CE231E030935F0420935E042091680059
:1054E000983050F031E09E3008F430E081E001C0A7
:1054F000880F3A95EAF701C084E0822B8093680018
:10550000983038F09E3040F0963148F020E030E09E
:1055100008C02DE630E005C02BE630E002C02CE6E6
:1055200030E03093580420935704983030F481E0F1
:1055300001C0880F9A95EAF70EC0292F30E09E30FF
:1055400018F42850310902C02E50310981E001C001
:10555000880F2A95EAF7809359048091600490910E
:1055600061040197F1F780915E0490915F04892BAB
:1055700049F1E0916504F091660484E0E434F807B1
:1055800009F1309739F0A389B4899C918589809578
:1055900089238C93809162048E7F809362041092A1
:1055A00063041092640484E494E09093660480930E
:1055B0006504E0915704F09158049081809159045A
:1055C000892B80831AE067EA76E084E494E00E9405
:1055D000791C68EC70E080E090E00E94781D11502A
:1055E00091F763EA76E084E494E00E94791C6AE033
:1055F00070E080E090E00E94781D84E494E00E94D6
:105600005F1B892B09F460C084E494E00E945F1B57
:10561000892B79F084E494E00E94771B80933B0609
:105620000E949F1764E170E080E090E00E94781D86
:10563000EBCF6EE976E0CE0101960E94C61BBE015B
:105640006F5F7F4F88E394E00E94C5168C01CE0106
:1056500001960E94EA1817FD03C081E08093FE05C1
:1056600067E976E0CE0101960E94C61BBE016F5F1E
:105670007F4F88E394E00E94C5168C01CE0101960D
:105680000E94EA1817FD03C082E08093FE0564E9DA
:1056900076E0CE0101960E94C61BBE016F5F7F4F70
:1056A00088E394E00E94C5168C01CE0101960E9409
:1056B000EA1817FD03C083E08093FE056EEF72E0E9
:1056C00088E394E00E9476186AE876E084E494E047
:1056D0000E94791C64E670E080E090E00E94781DF2
:1056E00060E876E084E494E00E94791C64E670E06F
:1056F00080E090E00E94781D62E776E084E494E028
:105700000E94791C64E670E080E090E00E94781DC1
:1057100066E676E084E494E00E94791C64E670E03A
:1057200080E090E00E94781D61E676E084E494E0F9
:105730000E94791C26960FB6F894DEBF0FBECDBF2F
:10574000DF91CF911F910F9108950F931F93CF93E6
:10575000DF9300D000D000D0CDB7DEB780E090E07E
:105760000E940F20813009F450C065E476E081E7A3
:1057700093E00E94791C00E010E06FEFC8010E94E6
:10578000FF1F6AE070E080E090E00E94781D0F5FEC
:105790001F4F0431110589F762E276E081E793E05B
:1057A0000E94791C0E94AA2061E08AE090E00E9499
:1057B000FF1F61E08BE090E00E94FF1F60E08CE043
:1057C00090E00E94FF1F61E08DE090E00E94FF1FCB
:1057D00061E08EE090E00E94FF1F6FE08FE090E0BC
:1057E0000E94FF1F8CE390E00E94D62D60E082E1D2
:1057F00090E00E94FF1F61E083E190E00E94FF1FA4
:1058000061E080E090E00E94FF1F80E090E00E9455
:105810000F20813009F0E9C06FE076E081E793E086
:105820000E94791C8AE090E00E940F2080934A0336
:1058300065E076E081E793E00E942A1C80914A03AC
:10584000082E000C990B0E9444158BE090E00E94FA
:105850000F208093810269EF75E081E793E00E9459
:105860002A1C80918102082E000C990B0E9444157D
:105870008CE090E00E940F2080933A066DEE75E078
:1058800081E793E00E942A1C80913A06082E000CC2
:10589000990B0E9444158DE090E00E940F208093A8
:1058A000800265EE75E081E793E00E942A1C8091FA
:1058B0008002082E000C990B0E9444158EE090E0A7
:1058C0000E940F20809383026DED75E081E793E0E5
:1058D0000E942A1C80918302082E000C990B0E94C2
:1058E00044158FE090E00E940F2080937F0261EDCD
:1058F00075E081E793E00E942A1C60917F0270E0CE
:1059000080E090E04AE00E94011581E793E00E9468
:10591000631C80E190E00E940F20182F81E190E04D
:105920000E940F2010937D0280937E0261EC75E04F
:1059300081E793E00E942A1C60917D0270917E02B3
:1059400080E090E04AE00E94011581E793E00E9428
:10595000631C82E190E00E940F208093390666EB81
:1059600075E081E793E00E942A1C80913906082E99
:10597000000C990B0E94441583E190E00E940F20D7
:1059800080937C0266EA75E081E793E00E942A1C1E
:1059900080917C02082E000C990B0E944415809186
:1059A0008302813049F466E274E0CE0101960E94E0
:1059B000FE1B62E373E00AC0811115C066E274E069
:1059C000CE0101960E94FE1B65E373E0CE010196B5
:1059D0000E942918BC0186E294E00E94D318CE01EF
:1059E00001960E94EA180E94AA2026960FB6F89403
:1059F000DEBF0FBECDBFDF91CF911F910F910895F4
:105A0000BF92CF92DF92EF92FF920F931F93CF93AB
:105A1000DF9300D000D000D0CDB7DEB762E877E0EA
:105A200081E793E00E94791C8AEAE82E81E0F82E53
:105A300000E010E06DEE75E0F701838994890E9423
:105A4000A61FF701C388D488C60143960E940F2081
:105A5000B82EC60142960E940F20D82E0F5F1F4F0E
:105A60004AE0B801CE0101960E949A1B60E274E000
:105A7000CE0101960E9442186DEE75E00E94291831
:105A800060E274E00E9442186D2D0E94F81760E2F7
:105A900074E00E9442186B2D0E94F817BC0181E748
:105AA00093E00E94671CCE0101960E94EA18F5E17E
:105AB000EF0EF11C0A30110509F0BCCF0E94AA209C
:105AC00026960FB6F894DEBF0FBECDBFDF91CF9103
:105AD0001F910F91FF90EF90DF90CF90BF900895AE
