:100000000C944E040C9476040C9476040C949A1080
:100010000C949A100C949A100C9476040C94760418
:100020000C9476040C9476040C9476040C94760468
:100030000C9476040C9476040C9476040C94760458
:100040000C94220F0C9476040C9478190C94521989
:100050000C9476040C9476040C9476040C94760438
:100060000C946C0F0C947604526573746F72652057
:1000700064656661756C742073656E736F7220645D
:100080006174612E0044656C6574696E67207365E8
:100090006E736F7220646174612E0053696C656EBB
:1000A00074206D6F64652120534D532077696C6C0B
:1000B000206E6F742062652073656E742E00537419
:1000C00061727420776F726B696E672E002E004923
:1000D0006E697420706172616D732E0047534D20FC
:1000E000416C61726D2031372E303100506F776571
:1000F0007220737570706C7920726573746F72659D
:10010000642100506F77657220737570706C792070
:10011000646973636F6E6E656374656421004D611D
:10012000696E2073656E736F72210050495220739F
:10013000656E736F7221004164646564207072693A
:100140006D6172792070686F6E653A202B004C6586
:100150006E677468206F662063686172616374659E
:10016000727320746F2072657475726E3A2000523B
:10017000657175657374206E756D6265722062615C
:100180006C616E6365206D6F6469666965643A20B1
:1001900000506175736554696D65206973207570D1
:1001A00064617465643A20004154440041542B4317
:1001B0005553443D31006C65646F6666006C656440
:1001C0006F6E00746573746F666600746573746F28
:1001D0006E00636C656172736D730020006F6E2E2C
:1001E000006F66662E00496E666F3A2050495220B5
:1001F00000696E666F0067756172646F666600679E
:10020000756172646F6E007061757365006D6F6EFD
:100210006579006564697473656E736F7200576108
:100220007463682074686520706F776572206F6EE4
:10023000007761746368706F7765726F66660057E8
:10024000617463682074686520706F776572206FD1
:100250006E007761746368706F7765726F6E0050BF
:100260004952204F6666007069726F666600504999
:1002700052204F6E007069726F6E00536D73204F85
:10028000666600736D736F666600536D73204F6E04
:1002900000736D736F6E0052696E67204F66660063
:1002A00072696E676F66660052696E67204F6E00F6
:1002B00072696E676F6E007265736574636F6E66E8
:1002C000696700726573657470686F6E6500667546
:1002D0006C6C726573657400616C61726D70696ECF
:1002E00074696D6500736C65657074696D65006235
:1002F000616C616E63656E756D0064656C657465D7
:1003000070686F6E650061646470686F6E6500543C
:10031000657374206661696C65642E00546573743E
:10032000207061737365642E004661696C6564209A
:1003300063656C6C3A200054657374206E756D6251
:1003400065723A20002042797465732E004545504D
:10035000524F4D206C656E6774683A200043757289
:1003600072656E74204D6F64656D4944203D2000B8
:100370004E6F20617661696C61626C65206D6F649F
:10038000656D732E00456D756C6174653A20534937
:100390004D3830304C00456D756C6174653A204DB8
:1003A000353930650050726576696F7573204D6F11
:1003B00064656D4944203D20006D79746573740057
:1003C0006C69737473656E736F72006C69737463B8
:1003D0006F6E666967006564697473656E736F72CA
:1003E000006932637363616E0064656C6574657087
:1003F000686F6E650061646470686F6E65006D6F34
:1004000064656D6964006D656D746573740066750F
:100410006C6C726573657400726573657470686F77
:100420006E65007265736574636F6E666967006CF4
:1004300069737470686F6E6500636C656172736D6B
:10044000730041542B435553443D3000555353449E
:1004500020717565727920666F72203A202B002B0F
:10046000435553443A00534D532066726F6D203A02
:10047000202B002B434D543A0041542B43485550F8
:100480000041542B434855500052696E67206672F4
:100490006F6D203A202B0052494E47002B5042529C
:1004A00045414459003B004154442B00477561725B
:1004B00064204F6666004775617264204F6E00507D
:1004C000686F6E652061646465642E004572726FAA
:1004D000722C20746869732070686F6E6520616C7F
:1004E00072656164792065786973747320696E2020
:1004F0007468652063656C6C3A20004572726F7297
:100500002C2077726F6E67206E756D626572206F3A
:10051000662063656C6C732E004572726F722C20BE
:10052000666972737420726567697374657220619D
:10053000207072696D6172792070686F6E652E002F
:100540000A000D00287370290061006D0061006DC4
:10055000004572726F722064656C6574696E672005
:1005600070686F6E653A202B0044656C6574652079
:1005700070686F6E653A202B000A000D00287370BA
:100580002900D09C657373616765732072656D6F18
:100590007665640041542B434D47443D340041543B
:1005A0002B434D47443D302C34004E6F204932439D
:1005B000206465766963657320666F756E640A00F2
:1005C00030004572726F722061742030780064656B
:1005D00074656374656420504346383537340A00C7
:1005E0003000493243206465766963652061742078
:1005F00030780053656E736F722073657474696E22
:1006000067733A0053656E736F7220736574746913
:100610006E67732073617665642E004572726F7227
:100620002073656E736F72206E756D626572000A5D
:10063000000D0023680023680053656E74212000BC
:10064000220041542B434D47533D22004E4F54202E
:1006500053656E7421200000000000240027002A4A
:100660000000000008000201000003040700000071
:1006700000000000004C656E677468206F662063A0
:1006800068617261637465727320746F207265743F
:1006900075726E3A2000546865206E756D626572E1
:1006A000206F662062616C616E636520696E717592
:1006B0006972793A2000526573746F7265206465BF
:1006C0006661756C742062616C616E636520646143
:1006D00074612E0044656C6574696E672062616C9C
:1006E000616E636520646174612E00416C61726D9E
:1006F000496E74657276616C2069732075706461EF
:100700007465643A2000526573746F726520646585
:100710006661756C742070686F6E652064617461C9
:100720002E0044656C6574696E672070686F6E6535
:1007300020646174612E005265616420617272618F
:10074000792070686F6E653A00457874506F7765F0
:100750007257617463683A2000504952477561725C
:10076000643A2000416C61726D496E746572766105
:100770006C3A2000506175736554696D653A2000CC
:1007800047756172643A20004C65644F6E3A2000F0
:100790004C6564546573744F6E3A2000416C61720D
:1007A0006D52696E673A200053656E64536D733AFB
:1007B00020005265616420636F6E666967757261BF
:1007C00074696F6E20656570726F6D636F6E6669B8
:1007D000673A00526573746F72652064656661756F
:1007E0006C7420656570726F6D636F6E66696720EB
:1007F000646174612E0044656C6574696E67206580
:100800006570726F6D636F6E666967206461746195
:100810002E00415445300041542B434E4D493D324A
:100820002C320041542B435343533D2247534D2216
:100830000041542B434D47463D310041542B434C1E
:1008400049503D310041360053494D383030004D5C
:100850003539300041544900415400000000002562
:100860000028002B000000000023002600290004BF
:100870000404040404040402020202020203030347
:100880000303030102040810204080010204081041
:1008900020010204081020001433DC3211241FBE92
:1008A000CFEFD8E0DEBFCDBF13E0A0E0B1E0E0E6DF
:1008B000F0E702C005900D92A833B107D9F726E002
:1008C000A8E3B3E001C01D92A435B207E1F714E03C
:1008D000CDE4D4E004C02197FE010E942234CC3440
:1008E000D107C9F70E945D200C9423380C940000B6
:1008F00061ED72E08EE595E00C941519DF92EF92B0
:10090000FF920F931F93CF93DF93CDB7DEB762971C
:100910000FB6F894DEBF0FBECDBF63EF75E08EE576
:1009200095E00E943E1981E0E82E81E0F82E00E07B
:1009300010E0F701838994890E94B31FF70183892E
:10094000948987960E947F11D82E0F5F1F4F4AE02F
:10095000B801CE0101960E94EE17BE016F5F7F4F76
:10096000CE0107960E947F186DE076E0CE010796D3
:100970000E94431768E375E00E942A176DE076E055
:100980000E9443176D2D0E94F916BC01CE010D96F1
:100990000E947F18BE01635F7F4F8EE595E00E9445
:1009A0002A19CE010D960E94BD17CE0107960E940E
:1009B000BD17CE0101960E94BD17F5E1EF0EF11CA7
:1009C0000830110509F0B5CF0E94780462960FB681
:1009D000F894DEBF0FBECDBFDF91CF911F910F9175
:1009E000FF90EF90DF9008957F928F929F92AF9249
:1009F000BF92CF92DF92EF92FF920F931F93CF930C
:100A0000DF93C12CD12C7601C394C0E0BB24B394F6
:100A100062E0A62E99249A9475EE872EE5EC7E2E40
:100A2000DC2DB0920504C092E003109239031092BD
:100A30003803809160038111FCCFA0926003B092D3
:100A40005F0390925E0310925D0310925C0310921C
:100A50005B0390915B0386019601220F331F292BC4
:100A600020935B0390915A03913069F410925A03DA
:100A700090915B039093BB009091BC0093FDF8CFE5
:100A80007092BC0002C08092BC00909160039230D2
:100A9000E1F390915E039F3F69F080915E038032A5
:100AA00031F080915E03803321F084E003C082E066
:100AB00001C083E0109239031092380310920504AC
:100AC000811134C062EE75E08EE595E00E94F11868
:100AD00080E1C816D104E104F10430F460EE75E061
:100AE0008EE595E00E94F11840E1C701B6010E9431
:100AF000CD1FD052D830B0F46DE076E08EE595E0B1
:100B00000E94E3186EEC75E08EE595E00E943E19B8
:100B10001093840300938303809195038F5F8093E8
:100B2000950302C00E947804CF5F1FC08430E9F4AF
:100B300062EC75E08EE595E00E94F118E0E1CE16DA
:100B4000D104E104F10430F460EC75E08EE595E049
:100B50000E94F11840E1C701B6010E94CD1F61ED6E
:100B600072E08EE595E00E941519FFEFCF1ADF0ABB
:100B7000EF0AFF0A8FE7C816D104E104F10409F077
:100B80004FCFC11106C06AEA75E08EE595E00E947C
:100B90003E19809195038823E9F00E947E0401E0CC
:100BA00011E0CDE8D3E0FC2EE8E0FE0EF8018389E9
:100BB000948987960E947F1189930B5E1F4FFC12C8
:100BC000F5CF0E947804E5E8F3E088E08E0F1192FB
:100BD0008E13FDCFDF91CF911F910F91FF90EF907A
:100BE000DF90CF90BF90AF909F908F907F900895AF
:100BF000EF92FF920F931F93CF93DF93CDB7DEB7A2
:100C000068970FB6F894DEBF0FBECDBF11E010930A
:100C1000AB0161E08EE090E00E946F111093A9019A
:100C200067EE72E0CE0101960E94881869E176E0D5
:100C3000CE0101960E944317BC0183E196E00E9419
:100C40006D17CE0101960E94BD1763E176E08EE537
:100C500095E00E942A1968EE73E080E090E00E941F
:100C6000E80E0CEA11E0F801E388F488C701439626
:100C70000E947F11813009F060C06FEA73E0C70104
:100C80000E941611BC01CE0101960E948818BE0177
:100C90006F5F7F4F89E196E00E949916F82ECE0192
:100CA00001960E94BD17F1101092D40368EE73E014
:100CB00080E090E00E94E80E6FEA73E0F80183891B
:100CC00094890E941611BC01CE010D960E948818CD
:100CD0006AE073E0CE0107960E948818BE01635F48
:100CE0007F4FCE0107960E944317BC01CE01439669
:100CF0000E947F1863E176E0CE0101960E947F1882
:100D0000BE016D5E7F4FCE0101960E948111CE0122
:100D100001960E94BD17CE0143960E94BD17CE01D9
:100D200007960E94BD17CE010D960E94BD1768EE72
:100D300073E080E090E00E94E80E0B5E1F4FF2E04F
:100D40000E371F0709F08FCF8091D4038130B1F5A2
:100D500068EE73E080E090E00E94E80E6AE073E0E5
:100D6000CE0107960E94881869E176E0CE010796C9
:100D70000E944317BC01CE010D960E947F1866EBBE
:100D800074E0CE0101960E944718BE01635F7F4F59
:100D9000CE0101960E948111CE0101960E94BD17DD
:100DA000CE010D960E94BD17CE0107960E94BD1779
:100DB00068EE73E080E090E00E94E80E68960FB65F
:100DC000F894DEBF0FBECDBFDF91CF911F910F9181
:100DD000FF90EF900895EF92FF920F931F93CF93A0
:100DE000DF93CDB7DEB768970FB6F894DEBF0FBEBE
:100DF000CDBF1092AB0160E08EE090E00E946F11D9
:100E000069EF72E0CE0101960E94881869E176E0F0
:100E1000CE0101960E944317BC0183E196E00E9437
:100E20006D17CE0101960E94BD1763E176E08EE555
:100E300095E00E942A1968EE73E080E090E00E943D
:100E4000E80E0CEA11E0F801E388F488C701439644
:100E50000E947F11813009F060C06FEA73E0C70122
:100E60000E941611BC01CE0101960E948818BE0195
:100E70006F5F7F4F89E196E00E949916F82ECE01B0
:100E800001960E94BD17F1101092D40368EE73E032
:100E900080E090E00E94E80E6FEA73E0F801838939
:100EA00094890E941611BC01CE010D960E948818EB
:100EB0006AE073E0CE0107960E948818BE01635F66
:100EC0007F4FCE0107960E944317BC01CE01439687
:100ED0000E947F1863E176E0CE0101960E947F18A0
:100EE000BE016D5E7F4FCE0101960E948111CE0141
:100EF00001960E94BD17CE0143960E94BD17CE01F8
:100F000007960E94BD17CE010D960E94BD1768EE90
:100F100073E080E090E00E94E80E0B5E1F4FF2E06D
:100F20000E371F0709F08FCF8091D4038130B1F5C0
:100F300068EE73E080E090E00E94E80E6AE073E003
:100F4000CE0107960E94881869E176E0CE010796E7
:100F50000E944317BC01CE010D960E947F186CEAD7
:100F600074E0CE0101960E944718BE01635F7F4F77
:100F7000CE0101960E948111CE0101960E94BD17FB
:100F8000CE010D960E94BD17CE0107960E94BD1797
:100F900068EE73E080E090E00E94E80E68960FB67D
:100FA000F894DEBF0FBECDBFDF91CF911F910F919F
:100FB000FF90EF900895AF92BF92DF92EF92FF9271
:100FC0000F931F93CF93DF93CDB7DEB768970FB61C
:100FD000F894DEBF0FBECDBF2091AB01213009F0E8
:100FE000BBC0D62E7C0161E084E00E947C0E60E0F4
:100FF00085E00E947C0E2FB7F89480919603909123
:101000009703A0919803B09199032FBF80939A03FF
:1010100090939B03A0939C03B0939D03B7018EE52F
:1010200095E00E942A190CEA11E0F801A388B4881F
:10103000C50143960E947F118130F1F56FEA73E09C
:10104000C5010E941611BC01CE010D960E948818A0
:101050006AE073E0CE0107960E948818BE01635FC4
:101060007F4FCE0107960E944317BC01CE014396E5
:101070000E947F18B701CE0101960E947F18BE0121
:101080006D5E7F4FCE0101960E948111CE010196C7
:101090000E94BD17CE0143960E94BD17CE01079650
:1010A0000E94BD17CE010D960E94BD1768EE73E039
:1010B00080E090E00E94E80E0B5E1F4FF2E00E37DA
:1010C0001F0709F0B2CF80918002813009F044C03F
:1010D000D81242C06FEA73E08091BF019091C001C5
:1010E0000E941611BC01CE0101960E948818CE0103
:1010F00001960E947A1F182FCE0101960E94BD17FB
:1011000011112AC067EA74E081E396E00E94F118A9
:101110006FEA73E08091BF019091C0010E941611A7
:10112000BC01CE0101960E948818BE016F5F7F4FFF
:1011300081E396E00E94E318CE0101960E94BD175C
:1011400065EA74E081E396E00E943E1968EE73E080
:1011500080E090E00E94E80E68960FB6F894DEBF3B
:101160000FBECDBFDF91CF911F910F91FF90EF90F8
:10117000DF90BF90AF90089561E08BE00E947C0EFD
:1011800060E08DE00E947C0E64E670E080E090E01C
:101190000E94E80E60E08BE00E947C0E61E08DE032
:1011A0000E947C0E64E670E080E090E00E94E80E11
:1011B00061E08BE00E947C0E60E08DE00C947C0E80
:1011C0008091D503813031F46EE975E081E396E0DA
:1011D0000E943E198091D5038250823030F464E938
:1011E00075E081E396E00E943E1960ED77E080E0D3
:1011F00090E00E94E80E62E875E08EE595E00E94BE
:101200003E190C94BC080E94BC080C94BC08CF92F8
:10121000DF92EF92FF920F931F93CF93DF93CDB79F
:10122000DEB7A4970FB6F894DEBF0FBECDBF8C011A
:101230006DEC72E0CE0101960E948818BE016F5FCE
:101240007F4FC8010E9475164AE0BC01CE0142964C
:101250000E94EE17CE0142960E946F15AB014F5FC0
:101260005F4FB801CE0148960E946E1FCE01429694
:101270000E94BD17CE0101960E94BD1763ED72E07A
:10128000CE0142960E9488186DE775E0CE01019666
:101290000E944718AE014E5E5F4FBE016F5F7F4FE9
:1012A000CE0148960E947A15CE0101960E94BD1784
:1012B000CE0142960E94BD1763ED72E0CE014296C8
:1012C0000E9488186BE775E0CE0101960E944718CE
:1012D000AE014E5E5F4FBE016F5F7F4FCE014896FD
:1012E0000E947A15CE0101960E94BD17CE0142964A
:1012F0000E94BD1763ED72E0CE0142960E948818ED
:1013000069E775E0CE0101960E944718AE014E5E76
:101310005F4FBE016F5F7F4FCE0148960E947A15E6
:10132000CE0101960E94BD17CE0142960E94BD17C4
:101330006AE073E0CE0101960E948818BE016F5FDB
:101340007F4FCE0148960E9475164AE0BC01CE013F
:101350004E960E94EE17CE014E960E946F15AB017D
:101360004F5F5F4FBE01685E7F4FCE0142960E9485
:101370006E1FCE014E960E94BD17CE0101960E94AF
:10138000BD17BE016E5E7F4FCE014E960E947F1844
:1013900004ED11E021E08DE0F82E6E0185E0C80E2D
:1013A000D11C6FEA73E0F801808191812CA30E9427
:1013B0001611BC01CE0101960E948818BE01625E22
:1013C0007F4FCE0101960E949916E82ECE0101961C
:1013D0000E94BD172CA1EE2099F119821A821B825E
:1013E0001C82F6018F2D11928A95E9F7BE016F5F7D
:1013F0007F4FF801808191810E943C11F80180812A
:10140000918160E042960E946F11F8018081918184
:1014100060E043960E946F1169E675E08EE595E005
:101420000E94F118BE01625E7F4F8EE595E00E943A
:101430002A190E9478040E94A01B0E94BC0820E088
:101440000B5E1F4FF2E001391F0709F0AACF2130D0
:1014500089F461E575E08EE595E00E94F118BE0122
:10146000625E7F4F8EE595E00E942A190E94780403
:101470000E940309CE014E960E94BD17CE014296EE
:101480000E94BD17CE0148960E94BD17A4960FB6C4
:10149000F894DEBF0FBECDBFDF91CF911F910F91AA
:1014A000FF90EF90DF90CF9008959F92AF92BF9200
:1014B000CF92DF92EF92FF920F931F93CF93DF9320
:1014C000CDB7DEB7E0970FB6F894DEBF0FBECDBF45
:1014D0008C016DEC72E0CE0101960E948818BE016D
:1014E0006F5F7F4FC8010E9475164AE0BC01CE01B4
:1014F00007960E94EE17CE0107960E946F15AB016A
:101500004F5F5F4FB801CE0185960E946E1FCE01DE
:1015100007960E94BD17CE0101960E94BD176FE489
:1015200075E0CE0101960E944718BE016F5F7F4FA4
:10153000CE0185960E947F16E92ECE0101960E946B
:10154000BD17E094EE1CEE24EE1C6DE475E0CE01B8
:1015500001960E944718BE016F5F7F4FCE018596AE
:101560000E947F16F92ECE0101960E94BD17F094BD
:10157000FF1CFF24FF1C63ED72E0CE0107960E9462
:1015800088186BE475E0CE0101960E944718AE0101
:10159000495F5F4FBE016F5F7F4FCE0185960E940E
:1015A0007A15CE0101960E94BD17CE0107960E94C2
:1015B000BD1763ED72E0CE0107960E94881869E4BA
:1015C00075E0CE0101960E944718AE01495F5F4F5A
:1015D000BE016F5F7F4FCE0185960E947A15CE01C6
:1015E00001960E94BD17CE0107960E94BD1763EDBC
:1015F00072E0CE0107960E94881864E475E0CE017F
:1016000001960E944718AE01495F5F4FBE016F5FB0
:101610007F4FCE0185960E947A15CE0101960E94D9
:10162000BD17CE0107960E94BD1763ED72E0CE0193
:1016300007960E94881862E475E0CE0101960E9428
:101640004718AE01495F5F4FBE016F5F7F4FCE010C
:1016500085960E947A15CE0101960E94BD17CE0193
:1016600007960E94BD1763ED72E0CE0107960E94B7
:10167000881860E475E0CE0101960E944718AE011B
:10168000495F5F4FBE016F5F7F4FCE0185960E941D
:101690007A15CE0101960E94BD17CE0107960E94D1
:1016A000BD176AE073E0CE0101960E948818BE0162
:1016B0006F5F7F4FCE0185960E947F164AE0BC0186
:1016C000CE0107960E94EE17CE0107960E946F1575
:1016D0009B0140E050E0BE016B5D7F4FCE014F9615
:1016E0000E949D18CE0107960E94BD17CE0101965B
:1016F0000E94BD176AE073E0CE0101960E9488182F
:10170000BE016F5F7F4FCE0185960E9475164AE03D
:10171000BC01CE0107960E94EE17CE0107960E94EB
:101720006F15AB014F5F5F4FBE016B5D7F4FCE0109
:1017300049960E946E1FCE0107960E94BD17CE01EA
:1017400001960E94BD17CE014F960E946F15062F7D
:10175000BE01675E7F4FCE018B960E947F184AE0E4
:101760006F2DCE0101960E941A184AE06E2DCE010F
:1017700007960E941A184AE0602FCE0143960E94F5
:101780001A18BE016D5E7F4FCE010D960E947F1824
:101790006DE076E0CE010D960E944317BE01655DB7
:1017A0007F4F0E9443176DE076E00E944317BE0111
:1017B000695F7F4F0E9443176DE076E00E944317F8
:1017C000BE016F5F7F4F0E944317BC018EE595E01D
:1017D0000E942A19CE010D960E94BD17CE01439694
:1017E0000E94BD17CE0107960E94BD17CE0101963B
:1017F0000E94BD176FEA73E08091BF019091C00114
:101800000E941611BC01CE0101960E948818CE01DB
:1018100001960E947A1F182FCE0101960E94BD17D3
:10182000112361F069E175E08EE595E00E943E19B3
:101830000E9478040E94030910E001C011E08EEFBD
:10184000800F8A3058F06BEF74E08EE595E00E94CF
:101850003E190E9478040E94030910E08CEAA82E29
:1018600081E0B82EC12CD12C6FEA73E0F501838999
:1018700094890E941611BC01CE0101960E9488181D
:10188000BE01655D7F4FCE0101960E949916982E8C
:10189000CE0101960E94BD17C60101966C019920E8
:1018A000E1F06CEC74E08EE595E00E94F1184AE0FE
:1018B000B601CE0101960E94EE17BE016F5F7F4F09
:1018C0008EE595E00E942A19CE0101960E94BD176F
:1018D0000E9478040E94030910E095E1A90EB11C52
:1018E000EAE0CE16D10409F0BFCF113081F541E115
:1018F00050E06EE973E0CE018B960E9410200150FB
:10190000F5E10F9F8001112404551E4F6EE973E02D
:10191000F801838994890E943C11F8018389948994
:101920006E2D42960E946F11F801838994896F2D64
:1019300043960E946F116FEB74E08EE595E00E9474
:101940003E190E9478040E94A01B0E94BC08CE0190
:101950008B960E94BD17CE0149960E94BD17CE01FD
:101960004F960E94BD17CE0185960E94BD17E09646
:101970000FB6F894DEBF0FBECDBFDF91CF911F91A0
:101980000F91FF90EF90DF90CF90BF90AF909F901E
:1019900008953FB7F8948091340590913505A09152
:1019A0003605B091370526B5A89B05C02F3F19F025
:1019B0000196A11DB11D3FBFBA2FA92F982F8827CF
:1019C000820F911DA11DB11DBC01CD0142E0660F2A
:1019D000771F881F991F4A95D1F7089585ED809349
:1019E000BC008091BC0084FDFCCF10926003089580
:1019F00040910E05262F30E0240F311D2132310594
:101A0000DCF4209160032430C9F4FC0180E090E014
:101A1000861758F430910E052191DC01A451BB4F7B
:101A2000A30FB11D2C930196F3CF80910E05680F83
:101A300060930E0580E0089581E0089582E00895A6
:101A40000895E091810380918203E81730F4F0E07B
:101A5000EF59FC4F808190E008958FEF9FEF08953C
:101A60009091810380918203981750F4E92FF0E060
:101A7000EF59FC4F208130E09F5F9093810302C0BB
:101A80002FEF3FEFC90108958091820390E02091EC
:101A90008103821B91090895CF92DF92EF92FF920A
:101AA0000F931F93CF93DF937C01262F972F8A01EB
:101AB00080910504882391F0C62FD72F6E01C40EA4
:101AC000D51ECC15DD0571F06991D701ED91FC9122
:101AD0000190F081E02DC7010995F3CF642F822F8B
:101AE0000E94F80CC801DF91CF911F910F91FF90D8
:101AF000EF90DF90CF900895CF93DF931F92CDB7F3
:101B0000DEB76983209105042223D1F020913803A8
:101B1000203240F021E030E0FC013383228380E07A
:101B200090E015C080913903E82FF0E0EB51FC4FB5
:101B3000998190838F5F809339038093380305C028
:101B400061E0CE0101960E94F80C81E090E00F90D8
:101B5000DF91CF9108952091E3033091E40328179A
:101B6000390771F49091E2038091E103981741F0F5
:101B7000E091E203F0E0E45DFB4F808190E00895A6
:101B80008FEF9FEF089508951F93CF93DF93DC01AC
:101B90005C962D913C915D972115310539F481E0DA
:101BA00090E013969C938E9312973DC05196ED91C1
:101BB000FC91529750969C915097892F80951FB712
:101BC0005E964C915E9741FB772770F941FD6095D9
:101BD000F8944081772311F0492B01C048234083BA
:101BE000E9012197F1F748E0508160FF02C0592BCD
:101BF00001C058235083E9012197F1F766954150C0
:101C000099F7772321F090818923808303C0808115
:101C1000982B90831FBF5C968D919C915D97019747
:101C2000F1F721E030E0C901DF91CF911F910895D4
:101C30002091E3033091E4032817390771F4809170
:101C4000E1032091E20390E080549F4F821B9109B1
:101C500060EC70E00E94FA33089580E090E008950F
:101C60002091E3033091E40328173907C9F49091D8
:101C7000E2038091E103981799F0E091E203F0E02C
:101C8000E45DFB4F20818091E20390E0019660ECDF
:101C900070E00E94FA338093E203822F90E008956F
:101CA0008FEF9FEF0895833081F028F4813099F011
:101CB0008230A1F008958730A9F08830B9F08430DF
:101CC000D1F4809180008F7D03C0809180008F7758
:101CD00080938000089584B58F7702C084B58F7D8E
:101CE00084BD08958091B0008F7703C08091B000CB
:101CF0008F7D8093B00008951F93CF93DF93282F9B
:101D000030E0F901EF59F94F8491F901ED57F74FA0
:101D1000D491F901E159F74FC491CC23C9F0162FA2
:101D200081110E94530EEC2FF0E0EE0FFF1FE55AD9
:101D3000F74FA591B4918FB7F894111105C09C91FC
:101D4000ED2FE095E92302C0EC91ED2BEC938FBFD2
:101D5000DF91CF911F910895CF93DF9390E0FC0125
:101D6000ED57F74F2491FC01E159F74F84918823F7
:101D700061F190E0880F991FFC01E95AF94FC59174
:101D8000D491FC01E55AF74FA591B491611109C0B6
:101D90009FB7F8948881209582238883EC912E2325
:101DA0000BC0623061F49FB7F8943881822F809520
:101DB00083238883EC912E2B2C939FBF06C08FB773
:101DC000F894E8812E2B28838FBFDF91CF9108955F
:101DD0008F929F92AF92BF92CF92DF92EF92FF923B
:101DE0006B017C010E94C90C4B015C01C114D10440
:101DF000E104F104F1F00E94C90CDC01CB01881967
:101E00009909AA09BB09883E9340A105B10570F361
:101E100021E0C21AD108E108F10888EE880E83E0BB
:101E2000981EA11CB11CC114D104E104F10419F7DE
:101E3000DDCFFF90EF90DF90CF90BF90AF909F905D
:101E40008F9008951F920F920FB60F9211242F9327
:101E50003F938F939F93AF93BF93809196039091FD
:101E60009703A0919803B09199033091330523E033
:101E7000230F2D3720F40196A11DB11D05C026E8C2
:101E8000230F0296A11DB11D209333058093960365
:101E900090939703A0939803B0939903809134058E
:101EA00090913505A0913605B09137050196A11D99
:101EB000B11D8093340590933505A0933605B093FA
:101EC0003705BF91AF919F918F913F912F910F90C7
:101ED0000FBE0F901F9018951F920F920FB60F9282
:101EE00011242F933F934F935F936F937F938F931F
:101EF0009F93AF93BF93EF93FF938091B900887F37
:101F0000803609F49CC068F5883209F45BC090F40F
:101F1000803109F454C038F4882309F4F6C08830BD
:101F200009F44DC0F6C0883109F44CC0803209F480
:101F30005DC0EFC0803409F468C048F4803309F410
:101F400055C0883309F0E5C080935E03D8C0803562
:101F500009F44FC0883509F45DC0883409F0D9C050
:101F6000D6C0883909F4C7C0A8F4883709F467C017
:101F700038F4883609F463C0803709F460C0C9C0FA
:101F8000883809F4B8C0803909F45FC0803809F096
:101F9000C0C05BC0803B09F486C038F4803A09F4C5
:101FA00066C0883A09F47FC0B4C0803C09F4A7C079
:101FB000883C09F4A4C0883B09F48AC0AAC0809177
:101FC0005B0310C090915D0380915C03981770F5DE
:101FD000E0915D0381E08E0F80935D03F0E0E65CAD
:101FE000FC4F80818093BB0085EC86C080935E03AC
:101FF0008EC0E0915D0381E08E0F80935D03809140
:10200000BB00F0E0E65CFC4F808390915D03809123
:102010005C036EC0E0915D0381E08E0F80935D03F1
:102020008091BB00F0E0E65CFC4F808380915F0311
:1020300081116DC081E080935A0384EA61C083E01E
:102040008093600310923205CFCF809132058032A9
:1020500008F051C0E091320581E08E0F8093320587
:102060008091BB00F0E0EE5EFA4F8083BDCF85EC3F
:102070008093BC001092600380913205803230F46E
:10208000E0913205F0E0EE5EFA4F10826091320589
:1020900070E0E0911005F091110582E195E009955D
:1020A0001092320536C084E08093600310920F05D1
:1020B00010920E05E0910C05F0910D0509958091A7
:1020C0000E05811105C081E080930E051092EC048D
:1020D000E0910F0581E08E0F80930F05F0E0E45151
:1020E000FB4F80818093BB0090910F0580910E057E
:1020F000981708F479CF85E88093BC000AC085EC76
:102100008093BC001092600304C010925E030E9492
:10211000EE0CFF91EF91BF91AF919F918F917F91C5
:102120006F915F914F913F912F910F900FBE0F9044
:102130001F9018951F920F920FB60F9211242F9394
:102140003F934F935F936F937F938F939F93AF933F
:10215000BF93EF93FF93E091E303F091E403309793
:1021600009F453C0968DA685B785858591FF04C077
:102170009C91892329F449C09C91892309F045C089
:10218000A389B4899C918589809589238C938689BC
:1021900097890197F1F7608D718DA685B785558573
:1021A00038E020E0CB010197F1F7822F90E0959580
:1021B0008795282F4C91452309F02068315091F7DD
:1021C000868D81FD20958091E10390E0019660EC81
:1021D00070E00E94FA339091E203981749F0A091C1
:1021E000E103B0E0A45DBB4F2C938093E10303C0F7
:1021F000868D8160868F828D938D0197F1F7A389FB
:10220000B4899C918589892B8C93FF91EF91BF9123
:10221000AF919F918F917F916F915F914F913F917E
:102220002F910F900FBE0F901F901895CF92DF92B5
:10223000EF92FF920F931F93CF93DF93EB017B01FC
:1022400021E1E20EF11C8B016C01C61AD70AC6010E
:10225000800F911F0E947337F80181938F01EE1553
:10226000FF05A9F7CE01DF91CF911F910F91FF904C
:10227000EF90DF90CF900895AF92BF92CF92DF9210
:10228000EF92FF920F931F93CF93DF9300D0CDB7C0
:10229000DEB78B016B0121E1C20ED11C7B015C0119
:1022A000A61AB70A95012E0D3F1DF70161917F0116
:1022B0003A832983CE0101960E944E1FEC14FD043F
:1022C00089F7C8010F900F90DF91CF911F910F9167
:1022D000FF90EF90DF90CF90BF90AF900895CF9395
:1022E000DF9300D0CDB7DEB79A838983CE01019604
:1022F0000E944E1F0F900F90DF91CF9108950C9484
:102300007337EF92FF920F931F93CF93DF9300D019
:1023100000D000D0CDB7DEB78C017B018091D30314
:10232000813009F057C062E476E081E396E00E94D4
:10233000F118B70181E396E00E94E31860E476E0CB
:1023400081E396E00E943E1964EF71E080E090E046
:102350000E94E80EB80181E396E00E94E31864EF62
:1023600071E080E090E00E94E80EE0913106F0918B
:1023700032060190F081E02D6AE181E396E0099553
:1023800064EF71E080E090E00E94E80E69E376E09F
:102390008EE595E00E94F118B701CE0101960E94EA
:1023A0007F186DE076E0CE0101960E944317B801D8
:1023B0000E944317BC018EE595E00E942A19CE01C8
:1023C00001960E94BD1768E873E180E090E00E94EA
:1023D000E80E23C068EE73E080E090E00E94E80E13
:1023E0006CE476E08EE595E00E94F118B701CE012D
:1023F00001960E947F186DE076E0CE0101960E9462
:102400004317B8010E944317BC018EE595E00E9476
:102410002A19CE0101960E94BD1726960FB6F89490
:10242000DEBF0FBECDBFDF91CF911F910F91FF9007
:10243000EF900895AF92BF92CF92DF92EF92FF920A
:102440000F931F93CF93DF93CDB7DEB7AA970FB645
:10245000F894DEBF0FBECDBF8C016DEC72E0CE01F3
:1024600001960E948818BE016F5F7F4FC8010E94CD
:1024700075164AE0BC01CE0107960E94EE17CE0108
:1024800007960E946F15AB014F5F5F4FB801CE01F9
:102490004F960E946E1FCE0107960E94BD17CE0177
:1024A00001960E94BD1766E376E0CE0101960E9478
:1024B0004718BE016F5F7F4FCE014F960E947F1677
:1024C000092FCE0101960E94BD170095001F00271D
:1024D000001F63ED72E0CE0107960E94881863E347
:1024E00076E0CE0101960E944718AE01495F5F4F2A
:1024F000BE016F5F7F4FCE014F960E947A15CE01CD
:1025000001960E94BD17CE0107960E94BD1763ED8C
:1025100072E0CE0107960E94881861E376E0CE0152
:1025200001960E944718AE01495F5F4FBE016F5F81
:102530007F4FCE014F960E947A15CE0101960E94E0
:10254000BD17CE0107960E94BD1763ED72E0CE0164
:1025500007960E9488186FE276E0CE0101960E94ED
:102560004718AE01495F5F4FBE016F5F7F4FCE01DD
:102570004F960E947A15CE0101960E94BD17CE019A
:1025800007960E94BD176AE073E0CE0101960E9493
:102590008818BE016F5F7F4FCE014F960E947F1655
:1025A0004AE0BC01CE0107960E94EE17CE010796C5
:1025B0000E946F159B0140E050E0BE01615E7F4FBD
:1025C000CE0149960E949D18CE0107960E94BD1724
:1025D000CE0101960E94BD176AE073E0CE0101961C
:1025E0000E948818BE016F5F7F4FCE014F960E94F8
:1025F00075164AE0BC01CE0107960E94EE17CE0187
:1026000007960E946F15AB014F5F5F4FBE01615E81
:102610007F4FCE0143960E946E1FCE0107960E9407
:10262000BD17CE0101960E94BD17CE0149960E94AA
:102630006F15162FBE016D5E7F4FCE0185960E94ED
:102640007F184AE0602FCE0101960E941A184AE0D6
:10265000612FCE010D960E941A18BE01635F7F4F55
:10266000CE0107960E947F186DE076E0CE010796B6
:102670000E944317BE016B5D7F4F0E9443176DE0C0
:1026800076E00E944317BE016F5F7F4F0E944317A1
:10269000BC018EE595E00E942A19CE0107960E94A2
:1026A000BD17CE010D960E94BD17CE0101960E9466
:1026B000BD171150183058F06BE176E08EE595E0CB
:1026C0000E943E190E9478040E94030945C046E218
:1026D00050E066E074E0CE0185960E941020C12E85
:1026E000D12C25E1129FF0011124EF5FFE4F838969
:1026F000948926E0E22E24E0F22EFC01E650F4401C
:102700005F01C5018E0D9F1DF70161917F019A83C5
:102710008983CE0101960E944E1FFCE2EF16F4E081
:10272000FF0679F785E18C9DF0018D9DF00D112458
:10273000EF5FFE4F83899489602F87960E946F1107
:1027400064E076E08EE595E00E943E190E947804F0
:102750000E947E040E94BC08CE0185960E94BD178F
:10276000CE0143960E94BD17CE0149960E94BD1727
:10277000CE014F960E94BD17AA960FB6F894DEBF01
:102780000FBECDBFDF91CF911F910F91FF90EF90C2
:10279000DF90CF90BF90AF9008950895CF92DF92D1
:1027A000EF92FF920F931F93CF93DF936C017A0107
:1027B0008B01C0E0D0E0CE15DF0589F0D8016D9126
:1027C0008D01D601ED91FC910190F081E02DC601C3
:1027D0000995892B11F47E0102C02196ECCFC70127
:1027E000DF91CF911F910F91FF90EF90DF90CF90ED
:1027F0000895FC01918D828D981761F0828DDF0123
:10280000A80FB11D5D968C91928D9F5F9F73928FE3
:1028100090E008958FEF9FEF0895FC01918D828DD8
:10282000981731F0828DE80FF11D858D90E00895A5
:102830008FEF9FEF0895FC01918D228D892F90E0FD
:10284000805C9F4F821B91098F73992708958EE5B5
:1028500095E00E941B1421E0892B09F420E0822FCF
:102860000895FC01848DDF01A80FB11DA35ABF4F4D
:102870002C91848D90E001968F739927848FA6897F
:10288000B7892C93A089B1898C9180648C93938DA6
:10289000848D981306C00288F389E02D80818F7D96
:1028A00080830895EF92FF920F931F93CF93DF934E
:1028B000EC0181E0888F9B8D8C8D981305C0E88991
:1028C000F989808185FD24C0F62E0B8D10E00F5F05
:1028D0001F4F0F731127E02E8C8DE8120CC00FB61E
:1028E00007FCFACFE889F989808185FFF5CFCE0111
:1028F0000E943114F1CF8B8DFE01E80FF11DE35AD8
:10290000FF4FF0820B8FEA89FB898081806207C0CC
:10291000EE89FF896083E889F989808180648083FA
:1029200081E090E0DF91CF911F910F91FF90EF90A8
:102930000895CF93DF93EC01888D8823C9F0EA894D
:10294000FB89808185FD05C0A889B9898C9186FDA8
:102950000FC00FB607FCF5CF808185FFF2CFA889A5
:10296000B9898C9185FFEDCFCE010E943114E7CF5C
:10297000DF91CF91089580E090E0892B29F00E94AB
:10298000271481110C94000008950E941F36AF9205
:10299000BF92CF92DF92EF92FF920F931F93CF934C
:1029A000DF937B018A01FB0144815581411551056B
:1029B00061F1FC01248135812115310531F12417A4
:1029C000350718F10217130718F089010150110992
:1029D000FC01A080B180C501DFEFCFEF6501C00E23
:1029E000D11EC816D906A0F0F701608171810E943E
:1029F0006636009769F09C012A193B0902171307F4
:102A000010F0D22FC32F0196ECCF8FEF9FEF02C0B3
:102A10008D2F9C2FDF91CF911F910F91FF90EF9001
:102A2000DF90CF90BF90AF9008950F931F93CF93F7
:102A3000DF93EC0188819981009729F02A813B81FD
:102A40002617370788F48B016F5F7F4F0E9455353B
:102A5000009761F0998388831B830A832C813D81D1
:102A6000232B11F4FC01108281E001C080E0DF9192
:102A7000CF911F910F910895CF93DF93EC0188813F
:102A80009981009711F00E94BD34198218821D822D
:102A90001C821B821A82DF91CF910895EF92FF92E0
:102AA0000F931F93CF93DF93EC017B018A01BA014F
:102AB0000E941515811104C0CE010E943C1507C06B
:102AC0001D830C83B701888199810E945036CE0105
:102AD000DF91CF911F910F91FF90EF900895FC012E
:102AE00080819181009711F00C94DC3660E070E0F9
:102AF000CB0108952F923F924F925F926F927F92F7
:102B00008F929F92AF92BF92CF92DF92EF92FF92FD
:102B10000F931F93CF93DF93FC01448055804114A2
:102B2000510409F4CFC0FB01648075806114710405
:102B300009F4C8C07A016B01EC01FA01A480B580E8
:102B4000A618B70808811981A114B104C1F4F601CF
:102B500060817181C8010E946636EC01892B09F4FD
:102B6000B1C0F7016081718144815581CE010E941D
:102B70002C36F701048115810C0F1D1FE8CFB7FE1D
:102B800002C0480106C0FB01208031804201C8011B
:102B900042C0F60160817181C4010E9466362C0139
:102BA000892B19F1320168187908A301B401C80111
:102BB0000E942C36060D171DF7016081718144813A
:102BC0005581C8010E942C36F70184819581080F38
:102BD000191FF60184809580840C951C8C819D8141
:102BE0008A0D9B1D9D838C83D4CFB401C801DF91D6
:102BF000CF911F910F91FF90EF90DF90CF90BF90FA
:102C0000AF909F908F907F906F905F904F903F908C
:102C10002F900C945036B1010E946636009729F02F
:102C2000860D971D8A0C9B1CF6CF8414950409F41D
:102C300049C08A819B818815990560F4B4016F5F52
:102C40007F4FC8010E9455350097E1F19983888331
:102C50009B828A824C815D814150510957FD32C06F
:102C6000B601CE010E94C7148C0197FD2BC088814C
:102C70009981F60124813581200F311F820F931F26
:102C80004C815D81421B530BBC018A0D9B1D0E9430
:102C900035368C819D818A0D9B1D9D838C83288177
:102CA0003981F901E80FF91F108288819981F701B4
:102CB0006081718144815581800F911F0E942C3663
:102CC000A801CACFDF91CF911F910F91FF90EF9094
:102CD000DF90CF90BF90AF909F908F907F906F903C
:102CE0005F904F903F902F900895FC014481558153
:102CF000FB0124813581421B530B0C94C714CF93E5
:102D0000DF93FC0124813581232B71F0FB01DC0171
:102D1000CD91DC9160817181CE010E946636009771
:102D200019F08C1B9D0B02C08FEF9FEFDF91CF91AD
:102D30000895FC0124813581FB01448155812417CC
:102D4000350721F5FC0180819181FB016081718152
:102D5000009719F061157105A1F46115710549F02D
:102D6000232BB1F0FB01808190E091958195910931
:102D70000AC0009769F0232B59F0FC01808190E094
:102D800002C00E94473621E0892B19F020E001C0E3
:102D900021E0822F0895EF92FF920F931F93CF931C
:102DA000DF93FC01248135816115710511F480E008
:102DB00019C041155105A9F07B01EC018A01020FF0
:102DC000131FB8010E941515882389F328813981C2
:102DD0008C819D81B701820F931F0E9450361D8305
:102DE0000C8381E0DF91CF911F910F91FF90EF90C5
:102DF0000895EF92FF920F931F93CF93DF9300D02C
:102E000000D0CDB7DEB77C01862F4AE08E010F5F80
:102E10001F4FB80190E00E941E37F801019000207A
:102E2000E9F73197AF01401B510BB801C7010E9470
:102E3000CB16811103C0C7010E943C15C7010F903A
:102E40000F900F900F90DF91CF911F910F91FF90F6
:102E5000EF900895CF93DF93EC016115710561F058
:102E6000FB0101900020E9F73197AF01461B570B9A
:102E70000E94CB16811103C0CE010E943C15CE01E9
:102E8000DF91CF910895CF93DF93EC01FB01448153
:102E90005581608171810E94CB16811103C0CE01E2
:102EA0000E943C15CE01DF91CF910895CF93DF931F
:102EB000EC016115710559F0FB0101900020E9F763
:102EC0003197AF01461B570B0E944E1502C00E945E
:102ED0003C15CE01DF91CF910895CF93DF93EC01A4
:102EE000FB018617970761F060817181611571059B
:102EF00029F0448155810E944E1502C00E943C1564
:102F0000CE01DF91CF9108950F931F93CF93DF935D
:102F10008C01EB01FC01808191810097B1F0688107
:102F200079816115710579F0428153812C813D8150
:102F30004217530740F00E9450368C819D81F80162
:102F40009583848313C00E94BD3488819981F801E0
:102F5000918380838A819B81938382838C819D81ED
:102F600095838483198218821B821A821D821C8297
:102F7000DF91CF911F910F910895FC018081918184
:102F80000C94BD340F931F93CF93DF93CDB7DEB76F
:102F900061970FB6F894DEBF0FBECDBF8C01CB0199
:102FA000F80111821082138212821582148250E07D
:102FB000BE016F5F7F4F0E943E37BE016F5F7F4F44
:102FC000C8010E94561761960FB6F894DEBF0FBE77
:102FD000CDBFDF91CF911F910F9108950F931F9354
:102FE000CF93DF93CDB7DEB762970FB6F894DEBF0D
:102FF0000FBECDBF8C01CB01F8011182108213826C
:1030000012821582148250E0BE016F5F7F4F0E94D2
:103010001337BE016F5F7F4FC8010E94561762963B
:103020000FB6F894DEBF0FBECDBFDF91CF911F91D9
:103030000F9108950F931F93CF93DF93CDB7DEB712
:1030400029970FB6F894DEBF0FBECDBF8C01862F37
:10305000F80111821082138212821582148250E0CC
:10306000BE016F5F7F4F90E00E943E37BE016F5FF1
:103070007F4FC8010E94561729960FB6F894DEBFFD
:103080000FBECDBFDF91CF911F910F910895EF92A9
:10309000FF920F931F93CF93DF93EC011982188255
:1030A0001B821A821D821C826115710509F18B0138
:1030B000CB010E940A377C01BC01CE010E9415158C
:1030C000811109C0CE01DF91CF911F910F91FF9027
:1030D000EF900C943C15FD82EC82B80188819981B7
:1030E000DF91CF911F910F91FF90EF900C940337D8
:1030F000DF91CF911F910F91FF90EF900895FC0108
:103100001182108213821282158214820C946D1720
:10311000FC011182108213821282158214826115C1
:10312000710551F0FB0101900020E9F73197AF01E3
:10313000461B570B0C944E150895BF92CF92DF9209
:10314000EF92FF920F931F93CF93DF937C016B015C
:103150008A01E9012417350720F4812F8901C42F42
:10316000D82F63ED72E0C7010E948818D60114962B
:103170008D919C91159708171907D0F48C179D070E
:1031800008F4EC01D601ED91FC911197EC0FFD1FB5
:10319000B08010824D915C91BA01600F711FC70120
:1031A0000E945617D601ED91FC91EC0FFD1FB082E5
:1031B000C701DF91CF911F910F91FF90EF90DF90AA
:1031C000CF90BF900895DC01ED91FC91DB01149646
:1031D0004D915C9115976D917C910280F381E02D6A
:1031E0000994EF92FF920F931F93CF93DF938C017B
:1031F0007B01C0E0D0E0F701EC0FFD1F6491662376
:1032000061F0D801ED91FC910190F081E02DC801B1
:103210000995892B11F02196EECFCE01DF91CF9148
:103220001F910F91FF90EF9008956115710579F04E
:10323000FB0101900020E9F73197AF01461B570BC6
:10324000DC01ED91FC910280F381E02D099480E096
:1032500090E008950F931F93CF93DF93EC010E94AA
:10326000E3188C0161ED72E0CE010E941519800F08
:10327000911FDF91CF911F910F9108950F931F938D
:10328000CF93DF93EC010E94F1188C0161ED72E0A5
:10329000CE010E941519800F911FDF91CF911F91D0
:1032A0000F9108951F920F920FB60F9211242F9332
:1032B0003F934F935F936F937F938F939F93AF93BE
:1032C000BF93EF93FF938EE595E00E943114FF9139
:1032D000EF91BF91AF919F918F917F916F915F918E
:1032E0004F913F912F910F900FBE0F901F90189507
:1032F0001F920F920FB60F9211242F938F939F93CB
:10330000EF93FF93E0916E05F0916F058081E0915E
:103310007405F091750582FD12C09081809177054A
:103320008F5F8F7320917805821751F0E0917705B8
:10333000F0E0E25AFA4F958F8093770501C08081C3
:10334000FF91EF919F918F912F910F900FBE0F9052
:103350001F901895CF93DF93282F30E0F901EF5994
:10336000F94F8491F901ED57F74FD491F901E159E3
:10337000F74FC491CC2391F081110E94530EEC2F92
:10338000F0E0EE0FFF1FEB59F74FA591B491EC91D0
:10339000ED2381E090E021F480E002C080E090E045
:1033A000DF91CF910895DF92EF92FF920F931F93D9
:1033B000CF93DF9300D000D000D0CDB7DEB77C0133
:1033C0000CEA11E06FEA73E0F801838994890E94A6
:1033D0001611BC01CE0101960E948818B701CE01DA
:1033E00001960E949916D82ECE0101960E94BD1713
:1033F000D11008C00B5E1F4FF2E00E371F0711F708
:1034000080E01FC06FEA73E0F801838994890E940D
:103410001611BC01CE0101960E948818BE016F5F93
:103420007F4F89E196E00E948417CE0101960E94A9
:10343000BD17F8018389948942960E947F118130DB
:10344000C9F626960FB6F894DEBF0FBECDBFDF914A
:10345000CF911F910F91FF90EF90DF9008950F9300
:103460001F93CF93DF9300D000D000D0CDB7DEB74D
:1034700060ED77E080E090E00E94E80E0E948B1FF4
:1034800010924C0610924B0610924A061092490672
:1034900010924806109247068DE991E090934E06EF
:1034A00080934D0690913D06963108F057C02DEB64
:1034B00030E030934806209347062BE931E0309303
:1034C0004A06209349062CE231E030934C062093C3
:1034D0004B0620916800983050F031E09E3008F49F
:1034E00030E081E001C0880F3A95EAF701C084E03E
:1034F000822B80936800983038F09E3040F09631EF
:1035000048F020E030E008C02DE630E005C02BE6B2
:1035100030E002C02CE630E03093450620934406AC
:10352000983030F481E001C0880F9A95EAF70EC018
:10353000292F30E09E3018F42850310902C02E5057
:10354000310981E001C0880F2A95EAF78093460689
:1035500080914D0690914E060197F1F780914B06B0
:1035600090914C06892B49F1E091E303F091E4033B
:1035700086E0E133F80709F1309739F0A389B4897F
:103580009C918589809589238C9380914F068E7FAD
:1035900080934F061092E1031092E20381E396E0DC
:1035A0009093E4038093E303E0914406F091450691
:1035B000908180914606892B80831AE068E578E047
:1035C00081E396E00E943E1968EC70E080E090E0B4
:1035D0000E94E80E115091F764E578E081E396E0EF
:1035E0000E943E196AE070E080E090E00E94E80EE0
:1035F00081E396E00E94180E892B09F460C081E3F4
:1036000096E00E94180E892B79F081E396E00E94E3
:10361000300E8093D6030E94482064E170E080E081
:1036200090E00E94E80EEBCF6FE478E0CE010196C7
:103630000E944718BE016F5F7F4F85E296E00E94AF
:103640007F168C01CE0101960E94BD1717FD03C0A5
:1036500081E08093D50368E478E0CE0101960E9472
:103660004718BE016F5F7F4F85E296E00E947F168C
:103670008C01CE0101960E94BD1717FD03C082E0A8
:103680008093D50365E478E0CE0101960E94471847
:10369000BE016F5F7F4F85E296E00E947F168C012E
:1036A000CE0101960E94BD1717FD03C083E08093F1
:1036B000D50363ED72E085E296E00E9456176BE356
:1036C00078E081E396E00E943E1964E670E080E0D5
:1036D00090E00E94E80E61E378E081E396E00E94CA
:1036E0003E1964E670E080E090E00E94E80E63E23C
:1036F00078E081E396E00E943E1964E670E080E0A5
:1037000090E00E94E80E67E178E081E396E00E9495
:103710003E1964E670E080E090E00E94E80E62E10D
:1037200078E081E396E00E943E1926960FB6F89461
:10373000DEBF0FBECDBFDF91CF911F910F910895D6
:10374000BF92CF92DF92EF92FF920F931F93CF938E
:10375000DF93CDB7DEB762970FB6F894DEBF0FBE2A
:10376000CDBF67E377E08EE595E00E943E198CEAD5
:10377000E82E81E0F82E00E010E06FEA73E0F70138
:10378000838994890E941611F701C388D488C601E1
:1037900043960E947F11B82EC60142960E947F1167
:1037A000D82E0F5F1F4F4AE0B801CE0101960E944C
:1037B000EE17BE016F5F7F4FCE0107960E947F1804
:1037C0006DE076E0CE0107960E9443176FEA73E042
:1037D0000E942A176DE076E00E9443176D2D0E942B
:1037E000F9166DE076E00E9443176B2D0E94F916E2
:1037F000BC01CE010D960E947F18BE01635F7F4F12
:103800008EE595E00E942A19CE010D960E94BD1703
:10381000CE0107960E94BD17CE0101960E94BD17EA
:10382000F5E1EF0EF11C0A30110509F0A6CF0E9458
:10383000780462960FB6F894DEBF0FBECDBFDF915D
:10384000CF911F910F91FF90EF90DF90CF90BF909D
:103850000895EF92FF920F931F93CF93DF9383E628
:1038600090E00E947F11813009F452C062E277E05B
:103870008EE595E00E943E19C4E6D0E06FEFCE01E0
:103880000E946F116AE070E080E090E00E94E80E14
:103890002196CC3281E0D80789F766E077E08EE5A3
:1038A00095E00E943E190E947804CCEAD1E000E045
:1038B00010E0BE018B899C890E943C11F801E455FF
:1038C000FE4F7F018B899C89618942960E946F110E
:1038D0008B899C89F701628943960E946F110B5E68
:1038E0001F4F6596023D110521F761E083E690E0E8
:1038F0000E946F1161E08DE00E947C0E60ED77E028
:1039000080E090E00E94E80E60E08DE00E947C0E76
:1039100083E690E00E947F11813041F4DF91CF91E6
:103920001F910F91FF90EF900C94A01BDF91CF910E
:103930001F910F91FF90EF9008950F931F93CF93D6
:10394000DF9300D000D000D0CDB7DEB78C01682F58
:1039500080E190E00E947B37612F81E190E00E943E
:103960007B3700938102109382026BEE76E08EE546
:1039700095E00E94F11860918102709182024AE004
:10398000CE0101960E94C217BE016F5F7F4F8EE588
:1039900095E00E942A19CE0101960E94BD170E944F
:1039A00078040E94BC0826960FB6F894DEBF0FBEBE
:1039B000CDBFDF91CF911F910F9108950F931F936A
:1039C000CF93DF9300D000D000D0CDB7DEB780E03A
:1039D00090E00E947F11813009F45EC066EF77E0CD
:1039E0008EE595E00E943E1900E010E06FEFC801FF
:1039F0000E946F116AE070E080E090E00E94E80EA3
:103A00000F5F1F4F0431110589F763ED77E08EE5F5
:103A100095E00E943E190E94780461E08AE090E0FF
:103A20000E946F1161E08BE090E00E946F1160E0F6
:103A30008CE090E00E946F1161E08DE090E00E94C8
:103A40006F1161E08EE090E00E946F116FE08FE0F7
:103A500090E00E946F118CE390E00E949D1C60E05A
:103A600082E190E00E946F1161E083E190E00E94AA
:103A70006F1161E080E090E00E946F1161E08DE0E5
:103A80000E947C0E60ED77E080E090E00E94E80EFE
:103A900060E08DE00E947C0E80E090E00E947F114B
:103AA000813009F066C162EB77E08EE595E00E9417
:103AB0003E198AE090E00E947F118093D30368EA68
:103AC00077E08EE595E00E94F1186091D303062E11
:103AD000000C770B4AE0CE0101960E94EE17BE0162
:103AE0006F5F7F4F8EE595E00E942A19CE01019607
:103AF0000E94BD178BE090E00E947F1180938002AE
:103B00006CE977E08EE595E00E94F1186091800203
:103B1000062E000C770B4AE0CE0101960E94EE17AC
:103B2000BE016F5F7F4F8EE595E00E942A19CE019E
:103B300001960E94BD178CE090E00E947F11809357
:103B4000D10360E977E08EE595E00E94F11860917D
:103B5000D103062E000C770B4AE0CE0101960E949D
:103B6000EE17BE016F5F7F4F8EE595E00E942A1928
:103B7000CE0101960E94BD178DE090E00E947F115A
:103B800080937E0268E877E08EE595E00E94F11868
:103B900060917E02062E000C770B4AE0CE01019662
:103BA0000E94EE17BE016F5F7F4F8EE595E00E9489
:103BB0002A19CE0101960E94BD178EE090E00E9466
:103BC0007F118093AB0160E877E08EE595E00E947D
:103BD000F1186091AB01062E000C770B4AE0CE0184
:103BE00001960E94EE17BE016F5F7F4F8EE595E054
:103BF0000E942A19CE0101960E94BD178FE090E025
:103C00000E947F118093830264E777E08EE595E060
:103C10000E94F1184AE060918302CE0101960E9451
:103C20001A18BE016F5F7F4F8EE595E00E942A193A
:103C3000CE0101960E94BD1780E190E00E947F11A5
:103C4000182F81E190E00E947F11109381028093F0
:103C5000820264E677E08EE595E00E94F1186091BB
:103C60008102709182024AE0CE0101960E94C21741
:103C7000BE016F5F7F4F8EE595E00E942A19CE014D
:103C800001960E94BD1782E190E00E947F1180930F
:103C9000D20369E577E08EE595E00E94F118609126
:103CA000D203062E000C770B4AE0CE0101960E944B
:103CB000EE17BE016F5F7F4F8EE595E00E942A19D7
:103CC000CE0101960E94BD1783E190E00E947F1112
:103CD00080937F0269E477E08EE595E00E94F11819
:103CE00060917F02062E000C770B4AE0CE01019610
:103CF0000E94EE17BE016F5F7F4F8EE595E00E9438
:103D00002A19CE0101960E94BD178091AB01813026
:103D1000A9F463E176E0CE0101960E947F186CE081
:103D200073E0CE0101960E942A17BC0183E196E060
:103D30000E946D17CE0101960E94BD178091AB01C4
:103D4000811115C063E176E0CE0101960E947F18D3
:103D50006FE073E0CE0101960E942A17BC0183E157
:103D600096E00E946D17CE0101960E94BD170E9439
:103D7000780426960FB6F894DEBF0FBECDBFDF9154
:103D8000CF911F910F910895CF93DF9300D000D072
:103D900000D0CDB7DEB781E390E00E947F11813083
:103DA00081F164ED76E08EE595E00E943E1966EBC8
:103DB00076E08EE595E00E943E190E94780463E16A
:103DC00073E08BE296E00E94561786E180938402AE
:103DD00041E150E060EC73E08BE296E00E9410203D
:103DE00060EC73E08EE190E00E943C1160918402EF
:103DF00080E390E00E946F1161E081E390E00E9417
:103E00006F1181E390E00E947F118130F1F560EC49
:103E100073E08EE190E00E941611BC01CE01019684
:103E20000E948818BE016F5F7F4F8BE296E00E9470
:103E30008417CE0101960E94BD1780E390E00E9496
:103E40007F118093840266E976E08EE595E00E941A
:103E5000F1186BE276E08EE595E00E942A1965E79D
:103E600076E08EE595E00E94F1186091840270E0A2
:103E700080E090E04AE00E94CD1F61ED72E08EE5A7
:103E800095E00E9415190E94780426960FB6F894C2
:103E9000DEBF0FBECDBFDF91CF910895EF92FF92AD
:103EA0000F931F93CF93DF931F92CDB7DEB77C01A3
:103EB000FC0100811181C80169830E947337698107
:103EC000681719F0C8010E947B37C7010F90DF9176
:103ED000CF911F910F91FF90EF900895CF93DF93B3
:103EE000EC01FB01248135810E949D18CE01DF91F8
:103EF000CF910895DC0114962D913C911597232BB9
:103F000041F0ED91FC9181E09081992319F080E0DE
:103F1000089581E00895EEE5F5E0A089B18982E099
:103F20008C93A485B5851C92A685B7858FEC8C9360
:103F3000108EA489B58986E08C93A289B3898C916F
:103F400080618C93A289B3898C9188608C93A289BB
:103F5000B3898C9180688C930288F389E02D8081ED
:103F60008F7D808308950F931F93CF93DF93C8E3D2
:103F7000D5E08C0108531540C8018C0F9D1F0E948D
:103F80007337899385E0CE35D807B1F788E395E09C
:103F9000DF91CF911F910F9108958F929F92AF92D1
:103FA000BF920F931F93CF93DF93CDB7DEB7A19747
:103FB0000FB6F894DEBF0FBECDBF19A2423008F491
:103FC0004AE08E010F5D1F4F842E912CA12CB12C45
:103FD000A50194010E94F237E62FB901CA010150F0
:103FE0001109EA3014F4E05D01C0E95CD801EC93FA
:103FF000232B242B252B61F7B8018EE595E00E9439
:104000001519A1960FB6F894DEBF0FBECDBFDF9194
:10401000CF911F910F91BF90AF909F908F90089577
:104020000F931F93CF93DF93FC01248135812115DA
:10403000310519F4FB01108211C0EA0121972C17F8
:104040003D0708F4E9018B01FC0160817181AE013B
:10405000C8010E945736C00FD11F1882DF91CF913F
:104060001F910F910895CF93DF93C0912506D091B2
:104070002606209751F08881882339F0082E000CFD
:10408000990B0E9424368993F6CFDF91CF91089542
:10409000CF93DF9300D0CDB7DEB789831A8241E09A
:1040A00050E0BE016F5F7F4F85E296E00E94CB1625
:1040B0000F900F90DF91CF910895CF93DF93CDB7FD
:1040C000DEB7AA970FB6F894DEBF0FBECDBF7894C7
:1040D00084B5826084BD84B5816084BD85B582600D
:1040E00085BD85B5816085BD80916E0081608093BE
:1040F0006E00109281008091810082608093810027
:104100008091810081608093810080918000816036
:10411000809380008091B10084608093B100809191
:10412000B00081608093B00080917A0084608093B9
:104130007A0080917A00826080937A0080917A0080
:10414000816080937A0080917A00806880937A0001
:104150001092C1000E948B1F109281031092820363
:1041600010923903109238031092600381E080931B
:104170005F0310925A0361E082E10E947C0E61E0CD
:1041800083E10E947C0E8091B9008E7F8093B900FC
:104190008091B9008D7F8093B90088E48093B80046
:1041A00085E48093BC006CED70E08EE595E00E94A4
:1041B0003E190E9478046FEC70E08EE595E00E9455
:1041C0003E191CE06DEC70E08EE595E00E94F11860
:1041D0006AEF70E080E090E00E94E80E115091F7E5
:1041E0000E9478040E94780480E480937C0080918F
:1041F0007A00806480937A0080917A0086FDFCCFFB
:10420000609178008091790070E0782B072E000C87
:10421000880B990B611571058105910511F00E94BC
:10422000D33661E08DE00E94AC0E0E94DE1C0E943D
:10423000291C0E94C41E82E690E00E947F118130FA
:1042400009F460C065E870E08EE595E00E943E19D3
:104250000CE211E06FEFC8010E946F116AE070E09C
:1042600080E090E00E94E80E0F5F1F4F0D3C21E0C0
:10427000120781F768E670E08EE595E00E943E192E
:104280000E94780401E011E043E1A42E41E0B42E45
:10429000F801C388D4887801C01AD10AC6018E0DEE
:1042A0009F1DF70161917F019A838983CE01019659
:1042B0000E944E1FEA14FB0489F7F8018389948950
:1042C000F701608187960E946F110B5E1F4F5701A7
:1042D000F5E1AF0EB11C21E0093A1207C9F661E021
:1042E00082E690E00E946F1161E08DE00E947C0EFA
:1042F00060ED77E080E090E00E94E80E60E08DE005
:104300000E947C0E0E94F40461E08AE00E94AC0EE0
:1043100061E08CE00E94AC0E61E08BE00E94AC0E8C
:1043200061E08AE00E947C0E61E08CE00E947C0EDD
:1043300061E08BE00E947C0E60E08AE00E947C0ECF
:1043400064EF71E080E090E00E94E80E61E08AE0B6
:104350000E947C0E60E08CE00E947C0E64EF71E0B5
:1043600080E090E00E94E80E61E08CE00E947C0E0C
:1043700060E08BE00E947C0E64EF71E080E090E0F2
:104380000E94E80E61E08BE00E947C0E60E086E017
:104390000E94AC0E60E08EE00E94AC0E60E087E010
:1043A0000E94AC0E61E084E00E94AC0E60E084E00C
:1043B0000E947C0E61E085E00E94AC0E61E085E029
:1043C0000E947C0E0E942F1A6EEB70E08EE595E045
:1043D0000E943E1963E176E08EE595E00E942A197D
:1043E0008091D303882341F00E9478043DEF232E6F
:1043F000312C412C512C65C06BE970E08EE595E0C5
:104400000E943E1919E00E94BC081150E1F7ECCF60
:10441000882309F4D1C18FB7F89440919603509145
:10442000970360919803709199038FBF80919A03CD
:1044300090919B03A0919C03B0919D03481B590B45
:104440006A0B7B0BE0918102F091820228EE33E04F
:10445000E29FC001E39F900DF29F900D1124A0E018
:10446000B0E084179507A607B70740F460E084E042
:104470000E947C0E61E085E00E947C0E86E00E9436
:10448000AA198093DD03882309F4A4C18091DD0378
:10449000813009F4DEC18091D203813009F4E7C193
:1044A00081E396E00E94180E892B09F03FC28EE549
:1044B00095E00E941B14892B11F00C94A92F0E94E7
:1044C000BB1480917F02813009F056C01091AB017E
:1044D000113009F051C087E00E94AA198093D703D8
:1044E00081111BC080910001811117C01093000140
:1044F00064E670E080E090E00E94E80E63E071E026
:10450000CE0101960E94471860E0CE0101960E94FC
:10451000DB07CE0101960E94BD178091D703813041
:10452000D9F4809100018130B9F41092000164E661
:1045300070E080E090E00E94E80E6CEE70E0CE014A
:1045400001960E94471860E0CE0101960E94DB07A9
:10455000CE0101960E94BD178091D703813061F48E
:1045600080910001823041F41092000164E670E015
:1045700080E090E00E94E80E80919503811106C0D2
:104580008091D1038111D4C061E007C185E8E82E94
:1045900083E0F82E9DE8A92E93E0B92E21E0822E2B
:1045A00021E0922EC12CD12C01E0809183039091C7
:1045B00060039111FCCF0093600300935F033FEF12
:1045C00030935E0310925D0310925C0300935B03D3
:1045D00090915B03880F892B80935B0380915A0332
:1045E000813071F410925A0380915B038093BB0079
:1045F0008091BC0083FDF8CF85EC8093BC0003C0A4
:1046000095EE9093BC00809160038130E1F380913E
:104610005D03811103C080915D0301C081E0AAE3C5
:10462000B3E0E1E6F3E09E2F21E633E0921B98171A
:1046300018F49D919193F7CF109281038093820398
:10464000882329F08BEF95E00E94300D01C080E0B7
:1046500090E00C2C02C0959587950A94E2F7182FEC
:1046600011703501F5018081811341C0F70180810E
:1046700081113DC0008364E670E080E090E00E941C
:10468000E80E80917E02813021F460E08CE00E948F
:104690007C0EF401838994890E94B31F68E375E05E
:1046A000CE0107960E94881867E076E0CE01019659
:1046B0000E947F18BE01695F7F4FCE0101960E9464
:1046C0004317BC01CE010D960E947F1861E0CE0118
:1046D0000D960E94DB07CE010D960E94BD17CE01FC
:1046E00001960E94BD17CE0107960E94BD17FFEFED
:1046F000AF1ABF0AF3018081811759F0F701808159
:10470000813039F4108264E670E080E090E00E942D
:10471000E80EFFEFCF1ADF0A2FEFE21AF20A35E1B7
:10472000830E911C88E0C816D10409F03ECF28CF33
:104730008130B1F59FB7F89440919603509197035B
:1047400060919803709199039FBF0091D9031091D4
:10475000DA032091DB033091DC036A017B01C01A8C
:10476000D10AE20AF30A97018601053611052105EF
:104770003105B0F04093D9035093DA036093DB0323
:104780007093DC039091D803911103C08093D803F8
:1047900002C01092D8036091D8038BE00E947C0E77
:1047A0008091AB01813009F033CE61E08CE00E9452
:1047B0007C0E60E08AE00BC061E08AE00E947C0E23
:1047C00080917E02813009F026CE60E08CE00E946C
:1047D0007C0E21CE8091A901811158CE81E0809379
:1047E000A90164E670E080E090E00E94E80E80910C
:1047F0007E02813021F460E08CE00E947C0E6EE14C
:1048000071E0CE0107960E94471867E076E0CE017E
:104810000D960E947F18BE01695F7F4FCE010D96F5
:104820000E944317BC01CE0101960E947F1861E0EF
:10483000CE0101960E94DB07CE0101960E94BD17B2
:10484000CE010D960E94BD17CE0107960E94BD179E
:104850001DCE8091A901813009F01DCE1092A901D1
:1048600064E670E080E090E00E94E80E14CE8EE0F6
:104870000E94AA198093DE03813009F041C0909113
:10488000AA0191113DC08093AA0164E670E080E026
:1048900090E00E94E80E80917E02813021F460E079
:1048A0008CE00E947C0E6BE271E0CE0107960E94C4
:1048B000471867E076E0CE0101960E947F18BE019E
:1048C000695F7F4FCE0101960E944317BC01CE0164
:1048D0000D960E947F1861E0CE010D960E94DB07C5
:1048E000CE010D960E94BD17CE0101960E94BD1704
:1048F000CE0107960E94BD1761E08DE00E947C0EFC
:104900008091DE038111CCCD8091AA01813009F024
:10491000C7CD1092AA0164E670E080E090E00E94AA
:10492000E80E60E08DE00E947C0EBACD81E396E057
:104930000E94180E892B79F081E396E00E94300ED8
:104940008093D6030E94482064E170E080E090E00C
:104950000E94E80EEBCF8091D503823011F412E073
:1049600001C011E06CE974E0CE0101960E94471885
:10497000BE016F5F7F4F85E296E00E947F167C014B
:10498000CE0101960E94BD17F7FE0E942F1A67E91B
:1049900074E0CE0101960E944718BE016F5F7F4F01
:1049A00085E296E00E947F167C01CE0101960E946E
:1049B000BD17F7FCF3C065E276E08EE595E00E9456
:1049C0002A1963ED72E08FE196E00E94561760ECC1
:1049D00072E0CE010D960E948818BE01635F7F4F82
:1049E00085E296E00E947F164AE0BC01CE01079660
:1049F0000E94EE17CE0107960E946F156B017C0195
:104A000068EC72E0CE0149960E948818BE01675E8C
:104A10007F4F85E296E00E947F164AE0BC01CE01FE
:104A200043960E94EE17CE0143960E946F159601A1
:104A300021503109412F50E0460F571F65E276E0C3
:104A4000CE0101960E949D18BE016F5F7F4F8FE1DE
:104A500096E00E948417CE0101960E94BD17CE01F8
:104A600043960E94BD17CE0149960E94BD17CE0104
:104A700007960E94BD17CE010D960E94BD1769E8EA
:104A800074E08EE595E00E94F1186FE176E08EE526
:104A900095E00E942A196FE176E0CE0107960E9408
:104AA0007F186FEA73E08091BF019091C0010E946E
:104AB0001611BC01CE0101960E948818CE01019604
:104AC0000E947A1F182FCE0101960E94BD17112354
:104AD00089F141E150E06EE973E0CE0107960E9452
:104AE00010206EE973E08091BF019091C0010E9497
:104AF0003C118091BF019091C00161E042960E94FB
:104B00006F118091BF019091C00161E043960E94B6
:104B10006F1167E371E08EE595E00E94F118BE0128
:104B2000695F7F4F8EE595E00E942A190E94780404
:104B30000E94BC08CE0107960E94BD176FE176E087
:104B4000CE0101960E947F18CE0101960E94D319D2
:104B5000182FCE0101960E94BD171130B9F461E8FB
:104B600074E081E396E00E943E191093D403809193
:104B7000AB01813021F40E94EB060C94A12F81112E
:104B80000C94A12F0E94F8050C94A12F69E774E002
:104B900081E396E00E943E190C94A12F63E774E034
:104BA000CE0101960E944718BE016F5F7F4F85E2DC
:104BB00096E00E947F168C01CE0101960E94BD17DF
:104BC00017FF02C00C94DC2E65E276E08EE595E0DE
:104BD0000E942A1963ED72E08FE196E00E94561759
:104BE0008091D5038D7F813009F057C06FEB72E063
:104BF000CE010D960E948818BE01635F7F4F85E24B
:104C000096E00E947F164AE0BC01CE0107960E9402
:104C1000EE17CE0107960E946F156B017C0162ECC6
:104C200072E0CE0149960E948818BE01675E7F4FF0
:104C300085E296E00E947F164AE0BC01CE014396D1
:104C40000E94EE17CE0143960E946F1596012150E7
:104C50003109AB01485F5F4F65E276E0CE01019616
:104C60000E949D18BE016F5F7F4F8FE196E00E940A
:104C70008417CE0101960E94BD17CE0143960E9473
:104C8000BD17CE0149960E94BD17CE0107960E941E
:104C9000BD17CE010D960E94BD178091D5038230BD
:104CA00009F057C06AEC72E0CE010D960E94881898
:104CB000BE01635F7F4F85E296E00E947F164AE067
:104CC000BC01CE0107960E94EE17CE0107960E9406
:104CD0006F156B017C0162EC72E0CE0149960E9477
:104CE0008818BE01675E7F4F85E296E00E947F16BE
:104CF0004AE0BC01CE0143960E94EE17CE014396D6
:104D00000E946F15960121503109AB01485F5F4F3A
:104D100065E276E0CE0101960E949D18BE016F5FAC
:104D20007F4F8FE196E00E948417CE0101960E948A
:104D3000BD17CE0143960E94BD17CE0149960E9431
:104D4000BD17CE0107960E94BD17CE010D960E9499
:104D5000BD1766E674E08EE595E00E94F1186FE1FC
:104D600076E08EE595E00E942A196FE176E0CE01AB
:104D700001960E947F18CE0101960E94D319182F28
:104D8000CE0101960E94BD17113011F00C94A12F95
:104D90006FE176E0CE0107960E947F186FEA73E01C
:104DA0008091BF019091C0010E941611BC01CE01FB
:104DB00001960E948818BE01695F7F4FCE0101965F
:104DC0000E949916082FCE0101960E94BD17CE01B0
:104DD00007960E94BD1701111093DF0381E08093B5
:104DE000D4030E9433208091DF03813009F093C502
:104DF00066E073E0CE0101960E944718BE016F5F26
:104E00007F4F85E296E00E947F168C01CE010196CD
:104E10000E94BD1717FD0EC065E276E0CE01019637
:104E20000E947F18CE0101960E94550ACE0101967C
:104E30000E94BD176AEF72E0CE0101960E944718EA
:104E4000BE016F5F7F4F85E296E00E947F168C0166
:104E5000CE0101960E94BD1717FD0EC065E276E0F7
:104E6000CE0101960E947F18CE0101960E9407098B
:104E7000CE0101960E94BD176FEE72E0CE01019641
:104E80000E944718BE016F5F7F4F85E296E00E9447
:104E90007F168C01CE0101960E94BD1717FDFFC041
:104EA0006DEC72E0CE0107960E948818BE01695F22
:104EB0007F4F85E296E00E9475164AE0BC01CE0164
:104EC00001960E94EE17CE0101960E946F15AB016C
:104ED0004F5F5F4F65E276E0CE0149960E946E1FFC
:104EE000CE0101960E94BD17CE0107960E94BD1704
:104EF00063ED72E0CE0101960E94881862ED72E0C7
:104F0000CE0107960E948818AE014F5F5F4FBE0129
:104F1000695F7F4FCE0149960E947A15CE010796B0
:104F20000E94BD17CE0101960E94BD176FEC72E082
:104F3000CE0107960E948818BE01695F7F4FCE019F
:104F400049960E947F164AE0BC01CE0101960E945C
:104F5000EE17CE0101960E946F159B0140E050E0D4
:104F6000BE01675E7F4FCE0143960E949D18CE0121
:104F700001960E94BD17CE0107960E94BD176FECE7
:104F800072E0CE0107960E948818BE01695F7F4FCC
:104F900085E296E00E9475164AE0BC01CE010196BA
:104FA0000E94EE17CE0101960E946F15AB014F5F74
:104FB0005F4F65E276E0CE010D960E946E1FCE0136
:104FC00001960E94BD17CE0107960E94BD17CE0123
:104FD0000D960E946F15162FBE016D5E7F4FCE019C
:104FE00001960E947F1841E150E060EC73E0CE0131
:104FF00001960E94102060EC73E08EE190E00E9428
:105000003C11612F80E390E00E946F1161E081E329
:1050100090E00E946F116FE671E08EE595E00E94CE
:10502000F11860EC73E08EE190E00E941611BC0173
:105030008EE595E00E94151961ED72E08EE595E030
:105040000E9415196EE471E08EE595E00E94F1185A
:1050500080E390E00E947F11682F70E080E090E094
:105060004AE00E94CD1F61ED72E08EE595E00E945E
:1050700015190E94C41E0E9478040E94BC08CE012B
:1050800001960E94BD17CE010D960E94BD17CE015C
:1050900043960E94BD17CE0149960E94BD1765EE4A
:1050A00072E0CE0101960E944718BE016F5F7F4FEC
:1050B00085E296E00E947F168C01CE0101960E9447
:1050C000BD1717FD8EC06DEC72E0CE0107960E94F1
:1050D0008818BE01695F7F4F85E296E00E947516D1
:1050E0004AE0BC01CE0101960E94EE17CE01019666
:1050F0000E946F15AB014F5F5F4F65E276E0CE0116
:105100000D960E946E1FCE0101960E94BD17CE0122
:1051100007960E94BD1763ED72E0CE0101960E94D2
:10512000881862ED72E0CE0107960E948818AE01E1
:105130004F5F5F4FBE01695F7F4FCE010D960E94AA
:105140007A15CE0107960E94BD17CE0101960E94E6
:10515000BD17BE01635F7F4FCE0107960E947F1887
:10516000CE0107960E946F15DC01CB010197A109C2
:10517000B109CC97A105B10510F00C949932CE017C
:1051800007960E946F15162F8FE090E00E946F1116
:105190001093830261E971E08EE595E00E94F118B9
:1051A0008FE090E00E947F114AE0682FCE010196C7
:1051B0000E941A18BE016F5F7F4F8EE595E00E9436
:1051C0002A19CE0101960E94BD170E9478040E9400
:1051D000BC08CE0107960E94BD17CE010D960E9415
:1051E000BD1768ED72E0CE0101960E944718BE011E
:1051F0006F5F7F4F85E296E00E947F168C01CE01A3
:1052000001960E94BD1717FD6CC06DEC72E0CE01D7
:1052100007960E948818BE01695F7F4F85E296E07D
:105220000E9475164AE0BC01CE0101960E94EE175D
:10523000CE0101960E946F15AB014F5F5F4F65E293
:1052400076E0CE010D960E946E1FCE0101960E945F
:10525000BD17CE0107960E94BD1763ED72E0CE0127
:1052600001960E94881862ED72E0CE0107960E94B6
:105270008818AE014F5F5F4FBE01695F7F4FCE015F
:105280000D960E947A15CE0107960E94BD17CE0199
:1052900001960E94BD17BE01635F7F4FCE01079646
:1052A0000E947F18CE0107960E946F15DC01CB018A
:1052B0000197A109B109803C984AA105B10510F0F8
:1052C0000C94AD32CE0107960E946F15CB010E945F
:1052D0009D1CCE0107960E94BD17CE010D960E941F
:1052E000BD176EEC72E0CE0101960E944718BE0118
:1052F0006F5F7F4F85E296E00E947F168C01CE01A2
:1053000001960E94BD1717FD1CC06FEF80E090E072
:105310000E946F110E94DE1C68EE73E080E090E056
:105320000E94E80E6FEF83E690E00E946F110E94EA
:10533000291C68EE73E080E090E00E94E80E0E9475
:10534000BC0863EC72E0CE0101960E944718BE01D2
:105350006F5F7F4F85E296E00E947F168C01CE0141
:1053600001960E94BD1717FD09C06FEF83E690E01C
:105370000E946F110E94291C0E94BC0867EB72E01A
:10538000CE0101960E944718BE016F5F7F4F85E2F4
:1053900096E00E947F168C01CE0101960E94BD17F7
:1053A00017FD09C06FEF80E090E00E946F110E942E
:1053B000DE1C0E94BC0860EB72E0CE0101960E94E8
:1053C0004718BE016F5F7F4F85E296E00E947F160F
:1053D0008C01CE0101960E94BD1717FD3EC068EEFC
:1053E00073E080E090E00E94E80E81E0809380020C
:1053F00061E08BE090E00E946F116AE073E0CE0103
:1054000007960E94881869E176E0CE0107960E940F
:105410004317BC01CE0101960E947F1868EA72E032
:10542000CE010D960E944718BE016F5F7F4FCE01DF
:105430000D960E948111CE010D960E94BD17CE01DE
:1054400001960E94BD17CE0107960E94BD1768EE17
:1054500073E080E090E00E94E80E60EA72E0CE0126
:1054600001960E944718BE016F5F7F4F85E296E06C
:105470000E947F168C01CE0101960E94BD1717FD78
:105480003DC068EE73E080E090E00E94E80E10926C
:10549000800260E08BE090E00E946F116AE073E0B0
:1054A000CE0107960E94881869E176E0CE01079642
:1054B0000E944317BC01CE0101960E947F1867E944
:1054C00072E0CE010D960E944718BE016F5F7F4FBC
:1054D000CE010D960E948111CE010D960E94BD173E
:1054E000CE0101960E94BD17CE0107960E94BD17FE
:1054F00068EE73E080E090E00E94E80E61E972E0FF
:10550000CE0101960E944718BE016F5F7F4F85E272
:1055100096E00E947F168C01CE0101960E94BD1775
:1055200017FD3EC068EE73E080E090E00E94E80E58
:1055300081E08093D30361E08AE090E00E946F11E4
:105540006AE073E0CE0107960E94881869E176E070
:10555000CE0107960E944317BC01CE0101960E941E
:105560007F186AE872E0CE010D960E944718BE01CE
:105570006F5F7F4FCE010D960E948111CE010D9677
:105580000E94BD17CE0101960E94BD17CE0107965D
:105590000E94BD1768EE73E080E090E00E94E80E84
:1055A00063E872E0CE0101960E944718BE016F5F6A
:1055B0007F4F85E296E00E947F168C01CE01019616
:1055C0000E94BD1717FD3DC068EE73E080E090E0DB
:1055D0000E94E80E6AE073E0CE0107960E948818E8
:1055E00069E176E0CE0107960E944317BC01CE0127
:1055F00001960E947F186BE772E0CE010D960E9423
:105600004718BE016F5F7F4FCE010D960E9481113A
:10561000CE010D960E94BD17CE0101960E94BD17C6
:10562000CE0107960E94BD171092D30360E08AE076
:1056300090E00E946F1168EE73E080E090E00E94BD
:10564000E80E65E772E0CE0101960E944718BE01A0
:105650006F5F7F4F85E296E00E947F168C01CE013E
:1056600001960E94BD1717FD3EC068EE73E080E012
:1056700090E00E94E80E81E08093D20361E082E135
:1056800090E00E946F116AE073E0CE0107960E94DD
:10569000881869E176E0CE0107960E944317BC01A5
:1056A000CE0101960E947F186EE672E0CE010D9643
:1056B0000E944718BE016F5F7F4FCE010D960E947A
:1056C0008111CE010D960E94BD17CE0101960E9458
:1056D000BD17CE0107960E94BD1768EE73E080E00B
:1056E00090E00E94E80E67E672E0CE0101960E940B
:1056F0004718BE016F5F7F4F85E296E00E947F16DC
:105700008C01CE0101960E94BD1717FD3DC068EEC9
:1057100073E080E090E00E94E80E1092D20360E017
:1057200082E190E00E946F116AE073E0CE0107967B
:105730000E94881869E176E0CE0107960E9443171F
:10574000BC01CE0101960E947F186FE572E0CE0188
:105750000D960E944718BE016F5F7F4FCE010D96D8
:105760000E948111CE010D960E94BD17CE010196B7
:105770000E94BD17CE0107960E94BD1768EE73E028
:1057800080E090E00E94E80E62E572E0CE010196B2
:105790000E944718BE016F5F7F4F85E296E00E942E
:1057A0007F168C01CE0101960E94BD1717FD3EC0E9
:1057B00068EE73E080E090E00E94E80E81E0809364
:1057C0007F0261E083E190E00E946F116AE073E084
:1057D000CE0107960E94881869E176E0CE0107960F
:1057E0000E944317BC01CE0101960E947F186FE30F
:1057F00072E0CE010D960E944718BE016F5F7F4F89
:10580000CE010D960E948111CE010D960E94BD170A
:10581000CE0101960E94BD17CE0107960E94BD17CA
:1058200068EE73E080E090E00E94E80E61E372E0D1
:10583000CE0101960E944718BE016F5F7F4F85E23F
:1058400096E00E947F168C01CE0101960E94BD1742
:1058500017FD3DC068EE73E080E090E00E94E80E26
:1058600010927F0260E083E190E00E946F116AE095
:1058700073E0CE0107960E94881869E176E0CE01B8
:1058800007960E944317BC01CE0101960E947F1823
:105890006EE172E0CE010D960E944718BE016F5F67
:1058A0007F4FCE010D960E948111CE010D960E9470
:1058B000BD17CE0101960E94BD17CE0107960E942A
:1058C000BD1768EE73E080E090E00E94E80E63E1AF
:1058D00072E0CE0101960E944718BE016F5F7F4FB4
:1058E00085E296E00E947F168C01CE0101960E940F
:1058F000BD1717FD0EC065E276E0CE0101960E944D
:105900007F18CE0101960E941A12CE0101960E94C4
:10591000BD171092DF036DE072E0CE0101960E9488
:105920004718BE016F5F7F4F85E296E00E947F16A9
:105930008C01CE0101960E94BD1717FD2AC068EEAA
:1059400073E080E090E00E94E80E6CEA71E081E391
:1059500096E00E943E1968EC70E080E090E00E94C2
:10596000E80E68EA71E081E396E00E94F1186BE2CC
:1059700076E081E396E00E942A1968EC70E080E00E
:1059800090E00E94E80E68EE73E080E090E00E94F4
:10599000E80E67E072E0CE0101960E944718BE0152
:1059A0006F5F7F4F85E296E00E947F168C01CE01EB
:1059B00001960E94BD1717FD60C068EE73E080E09D
:1059C00090E00E94E80E6AE073E0CE0107960E9424
:1059D000881869E176E0CE0107960E944317BC0162
:1059E000CE0101960E947F184AE060918302CE01A9
:1059F00043960E941A1864ED72E0CE0149960E9407
:105A00008818BE016D5E7F4FCE0149960E944317F4
:105A10006BED72E00E942A17BC01CE010D960E9428
:105A20007F18BE016F5F7F4FCE010D960E948111DE
:105A3000CE010D960E94BD17CE0149960E94BD175A
:105A4000CE0143960E94BD17CE0101960E94BD175C
:105A5000CE0107960E94BD1760E08BE00E947C0E8D
:105A60002091830230E0A0E6BAEE0E9414380E9432
:105A7000E80E61E08BE00E947C0E6FEF71E0CE01DA
:105A800001960E944718BE016F5F7F4F85E296E046
:105A90000E947F168C01CE0101960E94BD1717FD52
:105AA00008C068EE73E080E090E00E94E80E0E947B
:105AB000F80566EF71E0CE0101960E944718BE011D
:105AC0006F5F7F4F85E296E00E947F168C01CE01CA
:105AD00001960E94BD1717FD08C068EE73E080E0D4
