:100000000C9414040C943C040C943C040C942C1894
:100010000C942C180C942C180C943C040C943C0458
:100020000C943C040C943C040C943C040C943C0450
:100030000C943C040C943C040C943C040C943C0440
:100040000C94B4160C943C040C94D1260C94AB265E
:100050000C943C040C943C040C943C040C943C0420
:100060000C94FE160C943C0450686F6E652061641D
:100070006465642E004572726F722C207468697317
:100080002070686F6E6520616C72656164792065AF
:10009000786973747320696E207468652063656C79
:1000A0006C3A20004572726F722C2077726F6E6707
:1000B000206E756D626572206F662063656C6C736F
:1000C0002E004572726F722C2066697273742072F2
:1000D000656769737465722061207072696D617201
:1000E000792070686F6E652E004572726F722064A1
:1000F000656C6574696E672070686F6E653A202B59
:100100000044656C6574652070686F6E653A202BDD
:1001100000506175736554696D652069733A2000FC
:1001200044656C61794265666F726547756172649A
:100130002069733A200044656C61794265666F728C
:1001400065416C61726D2069733A20005761746378
:10015000682074686520706F776572204F4646008E
:10016000477561726420627574746F6E3A204F4EE9
:100170002F4F4646206D6F6465004775617264209D
:10018000627574746F6E3A204F4E206D6F64650017
:10019000477561726420627574746F6E206F666655
:1001A0000053656E736F72206461746120736176B1
:1001B00065642E004572726F722073656E736F7284
:1001C000206E756D626572006661696C65642E00F3
:1001D0007061737365642E0054657374200046610A
:1001E000696C65642063656C6C3A2000420045458B
:1001F00050524F4D3A200043757272656E7420491B
:1002000044203D20004E6F206D6F64656D2E0053BD
:10021000494D3830304C004D3539306500456D75ED
:100220006C6174653A200050726576696F75732051
:100230004944203D200041542B435553443D312C2B
:100240002200534D532072656D6F76656400340053
:10025000302C340041542B434D47443D00636C65C2
:100260006172736D73006C65646F6666006C6564C3
:100270006F6E00746573746F666600746573746F77
:100280006E0020006F6E2E006F66662E00496E664F
:100290006F3A205049522000696E666F00677561A1
:1002A00072646F66660067756172646F6E0070617C
:1002B000757365006D6F6E6579003D006D6F6465E7
:1002C0006D6964006C69737470686F6E6500693283
:1002D000637363616E006D656D74657374006C6942
:1002E000737473656E736F72006C697374636F6E91
:1002F000666967006564697473656E736F72006721
:1003000075617264627574746F6E6F66660067758E
:10031000617264627574746F6E6F6E3200677561BE
:100320007264627574746F6E6F6E3100776174639E
:1003300068706F7765726F66660077617463687066
:100340006F7765726F6E32007761746368706F7774
:1003500065726F6E3100504952204F6666007069B9
:10036000726F666600504952204F6E007069726F5E
:100370006E00536D73204F666600736D736F666613
:1003800000536D73204F6E00736D736F6E00526972
:100390006E67204F66660072696E676F6666005210
:1003A000696E67204F6E0072696E676F6E007265CE
:1003B000736574636F6E66696700726573657470E8
:1003C000686F6E650066756C6C726573657400614C
:1003D0006C61726D70696E74696D650064656C61E5
:1003E000796265666F7265616C61726D0064656CDF
:1003F00061796265666F7265677561726400736CBE
:1004000065657074696D650062616C616E63656ECF
:10041000756D0064656C65746570686F6E6500610C
:10042000646470686F6E65004C6F6164206465661B
:1004300061756C742073656E736F72206461746192
:100440002E0044656C6574696E672073656E736F0A
:100450007220646174612E0053696C656E74206D46
:100460006F64652100476F2100496E6974207061D7
:1004700072616D732E2E2E0047534D20416C6172B8
:100480006D2031372E30342E323400506F77657244
:1004900020737570706C7920726573746F72656407
:1004A0002100506F77657220737570706C792064CD
:1004B0006973636F6E6E656374656421004D616975
:1004C0006E2073656E736F72210050495220736500
:1004D0006E736F7221005072696D6172792070685D
:1004E0006F6E653A202B0041542B43485550004114
:1004F000542B435553443D3000555353442071759C
:100500006572793A20002B435553443A00534D53BA
:100510002066726F6D3A202B002C22002C2C002BB1
:10052000434D543A0052696E672066726F6D3A20EF
:100530002B002C0052494E47004775617264204FD2
:100540006E004775617264204F6E2E204275747480
:100550006F6E003B004154442B000000000024005B
:1005600027002A0000000008000201000003040721
:1005700000000000000000004C656E677468207485
:100580006F2072657475726E3A20004E756D6265EB
:10059000723A20004C6F61642064656661756C740A
:1005A0002062616C616E636520646174612E004439
:1005B000656C6574696E672062616C616E6365204D
:1005C000646174612E00416C61726D496E74657274
:1005D00076616C2069733A20004C6F616420646519
:1005E0006661756C742070686F6E652064617461FB
:1005F0002E0044656C6574696E672070686F6E6567
:1006000020646174612E00526561642061727261C0
:10061000792070686F6E653A0044656C6179426557
:10062000666F7265416C61726D3A200044656C6161
:10063000794265666F726547756172643A2000475A
:1006400075617264427574746F6E456E61626C653B
:100650003A20005761746368457874506F7765720B
:100660003A200050495247756172643A2000416C4B
:1006700061726D496E74657276616C3A20005061EA
:1006800075736554696D653A200047756172643A07
:1006900020004C65644F6E3A2000546573744F6EB1
:1006A0003A2000416C61726D52696E673A200053C6
:1006B000656E64536D733A20005265616420656510
:1006C00070726F6D636F6E6669673A004C6F61643C
:1006D0002064656661756C7420656570726F6D630A
:1006E0006F6E66696720646174612E0044656C6595
:1006F00074696E6720656570726F6D636F6E666991
:100700006720646174612E004154453000415445B6
:10071000310041542B434E4D493D322C320041545F
:100720002B435343533D2247534D220041542B4307
:100730004D47463D310041542B434C49503D31001B
:1007400041360053494D383030004D353930004185
:100750005449004154004775617264204F66660039
:100760004775617264204F66662E20427574746FFF
:100770006E0057617463682074686520706F7765D8
:1007800072204F4E00493243206465766963657379
:10079000206E6F7420666F756E6400300045727253
:1007A0006F722061742030780064657465637465CD
:1007B0006420504346383537340A0030004932430C
:1007C0002064657669636520617420307800536524
:1007D0006E736F7220646174613A00220041542B81
:1007E000434D47533D220000000000250028002B08
:1007F0000000000000230026002900040404040473
:1008000004040402020202020203030303030301BD
:100810000204081020408001020408102001020494
:1008200008102000AF32733211241FBECFEFD8E082
:10083000DEBFCDBF13E0A0E0B1E0E2EAFFE602C018
:1008400005900D92AC34B107D9F726E0ACE4B3E0E3
:1008500001C01D92A038B207E1F714E0C3E1D4E073
:1008600004C02197FE010E946635C231D107C9F745
:100870000E94672A0C94C4370C9400009F92AF9298
:10088000BF92CF92DF92EF92FF920F931F93CF937D
:10089000DF93CDB7DEB7E0970FB6F894DEBF0FBE9B
:1008A000CDBF00914B0610914C060115110539F48E
:1008B00080910A04813011F00C9482110DC0F8016E
:1008C00080818823A9F3082E000C990B0E946837B9
:1008D000F80181938F01F3CF6FE174E0CE010196AF
:1008E0000E94CF25BE016F5F7F4F8BE496E00E9490
:1008F000D9238C01CE0101960E94712517FD02C2F9
:100900006BE476E0CE018A960E94D82563EC72E013
:10091000CE0142960E94E125BE016E5E7F4FCE0160
:100920008A960E94CF234AE0BC01CE0101960E9424
:100930007625CE0101960E94C922AB014F5F5F4F21
:10094000BE01665D7F4FCE0184960E941B21CE01C1
:1009500001960E947125CE0142960E94712565EC98
:1009600072E0CE0101960E94E125BE016F5F7F4FCC
:10097000CE0184960E94D923C92ECE0101960E94F1
:10098000712567EC72E0CE0101960E94E125BE015F
:100990006F5F7F4FCE0184960E94D923D92ECE015E
:1009A00001960E94712562E273E0CE0101960E94D9
:1009B000E12565EC72E0CE0142960E94E125AE0190
:1009C0004F5F5F4FBE016E5E7F4FCE0184960E94E7
:1009D000D422CE0142960E947125CE0101960E943A
:1009E000712562E273E0CE0101960E94E12567EC79
:1009F00072E0CE0142960E94E125AE014F5F5F4F4B
:100A0000BE016E5E7F4FCE0184960E94D422CE013D
:100A100042960E947125CE0101960E94712562E2E4
:100A200073E0CE0101960E94E12569EC72E0CE01EF
:100A300042960E94E125AE014F5F5F4FBE016E5EA0
:100A40007F4FCE0184960E94D422CE0142960E940E
:100A50007125CE0101960E94712562E273E0CE01FC
:100A600001960E94E1256EEC72E0CE0142960E9452
:100A7000E125AE014F5F5F4FBE016E5E7F4FCE013D
:100A800084960E94D422CE0142960E947125CE0106
:100A900001960E94712562E273E0CE0101960E94E8
:100AA000E12561E273E0CE0142960E94E125AE01AC
:100AB0004F5F5F4FBE016E5E7F4FCE0184960E94F6
:100AC000D422CE0142960E947125CE0101960E9449
:100AD000712561E173E0CE0142960E94E125BE01DD
:100AE0006E5E7F4FCE0184960E94D9234AE0BC01FE
:100AF000CE0101960E947625CE0101960E94C92260
:100B00009B0140E050E0BE016C5D7F4FCE014E96F0
:100B10000E94F625CE0101960E947125CE014296D3
:100B20000E94712561E173E0CE0142960E94E125A9
:100B3000BE016E5E7F4FCE0184960E94CF234AE0B5
:100B4000BC01CE0101960E947625CE0101960E943D
:100B5000C922AB014F5F5F4FBE016C5D7F4FCE017D
:100B600048960E941B21CE0101960E947125CE015C
:100B700042960E947125CE014E960E94C922062FF0
:100B8000BE01685E7F4FCE0142960E94D82567EF76
:100B900073E08091C8019091C9010E94A818BC011E
:100BA000CE0101960E94E125CE0101960E941D29E9
:100BB000182FCE0101960E947125112361F062EC7D
:100BC00070E084E895E00E9499260E9472270E94B6
:100BD000231C10E001C011E08EEF800F8A3058F026
:100BE00064EA70E084E895E00E9499260E947227EA
:100BF0000E94231C10E045EBA42E41E0B42EE12C12
:100C0000F12C67EF73E0F501838994890E94A8189D
:100C1000BC01CE0101960E94E125BE016E5E7F4FB0
:100C2000CE0101960E94F323982ECE0101960E94D8
:100C3000712597012F5F3F4F7901992071F065E78A
:100C400070E084E895E00E944A26C7010E94D429FA
:100C50000E9472270E94231C10E035E1A30EB11CF4
:100C60008AE0E816F10469F61130B1F541E150E08F
:100C700066EE73E0CE0142960E940D2A015095E186
:100C8000099F800111240B541E4F66EE73E0F8019A
:100C9000838994890E9482196C2D6095661F66274E
:100CA000661FF8018389948942960E94B5196D2DBB
:100CB0006095661F6627661FF801838994894396AD
:100CC0000E94B51968E670E084E895E00E949926D4
:100CD0000E9472270E940B1C0E94E91DCE014296C1
:100CE0000E947125CE0148960E947125CE014E9634
:100CF0000E947125CE0184960E947125CE018A96AC
:100D00000E94712563E174E0CE0101960E94CF2517
:100D1000BE016F5F7F4F8BE496E00E94D9238C0168
:100D2000CE0101960E94712517FD3BC16BE476E070
:100D3000CE0184960E94D82563EC72E0CE014296E3
:100D40000E94E125BE016E5E7F4FCE0184960E9417
:100D5000CF234AE0BC01CE0101960E947625CE0148
:100D600001960E94C922AB014F5F5F4FBE016C5DCF
:100D70007F4FCE014E960E941B21CE0101960E940C
:100D80007125CE0142960E94712562E273E0CE0188
:100D900001960E94E12569EC72E0CE0142960E9424
:100DA000E125AE014F5F5F4FBE016E5E7F4FCE010A
:100DB0004E960E94D422CE0142960E947125CE0109
:100DC00001960E94712562E273E0CE0101960E94B5
:100DD000E1256EEC72E0CE0142960E94E125AE0163
:100DE0004F5F5F4FBE016E5E7F4FCE014E960E94F9
:100DF000D422CE0142960E947125CE0101960E9416
:100E0000712562E273E0CE0101960E94E12561E264
:100E100073E0CE0142960E94E125AE014F5F5F4F25
:100E2000BE016E5E7F4FCE014E960E94D422CE014F
:100E300042960E947125CE0101960E94712561E1C2
:100E400073E0CE0142960E94E125BE016E5E7F4FA7
:100E5000CE014E960E94CF234AE0BC01CE010196FE
:100E60000E947625CE0101960E94C922AB014F5FF8
:100E70005F4FBE01625E7F4FCE0148960E941B21EC
:100E8000CE0101960E947125CE0142960E947125E5
:100E9000BE01685E7F4FCE0142960E94D8250DEDBF
:100EA00011E021E03DE0F32E6E01F5E0CF0ED11C04
:100EB00067EF73E0F8018081918128AB0E94A81848
:100EC000BC01CE0101960E94E125BE016E5E7F4FFE
:100ED000CE0101960E94F323E82ECE0101960E94D6
:100EE000712528A9EE2099F119821A821B821C8291
:100EF000F6012F2D11922A95E9F7BE016F5F7F4F02
:100F0000F801808191810E948219F801808191818C
:100F100060E042960E94B519F8018081918160E0FD
:100F200043960E94B51961E071E084E895E00E9463
:100F30004A26BE016E5E7F4F84E895E00E948726B8
:100F40000E9472270E94E91D0E940B1C20E00B5E8C
:100F50001F4FF2E00A391F0709F0AACF213089F4A8
:100F600069EE70E084E895E00E944A26BE016E5E5C
:100F70007F4F84E895E00E9487260E9472270E9496
:100F8000231CCE0142960E947125CE0148960E94F4
:100F90007125CE014E960E947125CE0184960E9445
:100FA000712568E074E0CE0101960E94CF25BE0154
:100FB0006F5F7F4F8BE496E00E94D9238C01CE01B6
:100FC00001960E94712517FDD3C063EC72E0CE013B
:100FD00001960E94E125BE016F5F7F4F8BE496E092
:100FE0000E94CF234AE0BC01CE0142960E947625A2
:100FF000CE0142960E94C922AB014F5F5F4F6BE466
:1010000076E0CE0148960E941B21CE0142960E94B6
:101010007125CE0101960E94712562E273E0CE0136
:1010200042960E94E12561E273E0CE0101960E94A2
:10103000E125AE014E5E5F4FBE016F5F7F4FCE0177
:1010400048960E94D422CE0101960E947125CE01BD
:1010500042960E94712560ED72E0CE0101960E94D9
:10106000E125BE016F5F7F4FCE0148960E94D923D4
:101070004AE0BC01CE014E960E947625CE014E96E6
:101080000E94C9229B0140E050E0BE01685E7F4F94
:10109000CE0142960E94F625CE014E960E94712501
:1010A000CE0101960E94712560ED72E0CE014E9650
:1010B0000E94E125BE01625E7F4F8BE496E00E94B4
:1010C000CF234AE0BC01CE0184960E947625CE0152
:1010D00084960E94C922AB014F5F5F4F6BE476E0BC
:1010E000CE0101960E941B21CE0184960E9471259B
:1010F000CE014E960E947125CE0101960E94C92212
:10110000162FBE016E5E7F4FCE014E960E94D825EF
:1011100041E150E06CE473E0CE014E960E940D2A4E
:101120006CE473E08EE190E00E948219612F80E30D
:1011300090E00E94B51961E081E390E00E94B5194A
:101140000E94932084E895E00E9483260E940B1C55
:10115000CE014E960E947125CE0101960E94712506
:10116000CE0142960E947125CE0148960E947125BB
:101170006EEF73E0CE0101960E94CF25BE016F5F36
:101180007F4F8BE496E00E94D9238C01CE0101961B
:101190000E94712517FD81C063EC72E0CE010196BB
:1011A0000E94E125BE016F5F7F4F8BE496E00E94B5
:1011B000CF234AE0BC01CE0148960E947625CE019D
:1011C00048960E94C922AB014F5F5F4F6BE476E007
:1011D000CE0142960E941B21CE0148960E947125A5
:1011E000CE0101960E94712562E273E0CE0148961D
:1011F0000E94E12561E273E0CE0101960E94E125A3
:10120000AE01485E5F4FBE016F5F7F4FCE014296D9
:101210000E94D422CE0101960E947125CE014896EB
:101220000E947125BE016E5E7F4FCE0101960E9425
:10123000D825CE0101960E94C922DC01CB0101977D
:10124000A109B109CC97A105B10510F00C94AD131B
:10125000CE0101960E94C922162F8FE090E00E94D5
:10126000B5191093000161E171E084E895E00E94F6
:101270004A268FE090E00E9403276AE070E00E9417
:10128000B3290E9472270E940B1CCE0101960E9476
:101290007125CE0142960E9471256DEE73E0CE015C
:1012A00001960E94CF25BE016F5F7F4F8BE496E0D1
:1012B0000E94D9238C01CE0101960E94712517FD51
:1012C0007EC063EC72E0CE0101960E94E125BE0172
:1012D0006F5F7F4F8BE496E00E94CF234AE0BC0112
:1012E000CE0148960E947625CE0148960E94C922DA
:1012F000AB014F5F5F4F6BE476E0CE0142960E94F8
:101300001B21CE0148960E947125CE0101960E94B4
:10131000712562E273E0CE0148960E94E12561E208
:1013200073E0CE0101960E94E125AE01485E5F4F59
:10133000BE016F5F7F4FCE0142960E94D422CE0144
:1013400001960E947125CE0148960E947125BE012A
:101350006E5E7F4FCE0101960E94D825CE01019688
:101360000E94C9226F3F71058105910519F010F0A7
:101370000C94C113CE0101960E94C922162F85E15B
:1013800090E00E94B51910931C0460E271E084E8BB
:1013900095E00E944A2685E190E00E9403276AE0DA
:1013A00070E00E94B3290E9472270E940B1CCE019C
:1013B00001960E947125CE0142960E9471256CED26
:1013C00073E0CE0101960E94CF25BE016F5F7F4F73
:1013D0008BE496E00E94D9238C01CE0101960E94F5
:1013E000712517FD7EC063EC72E0CE0101960E946C
:1013F000E125BE016F5F7F4F8BE496E00E94CF2313
:101400004AE0BC01CE0148960E947625CE0148965E
:101410000E94C922AB014F5F5F4F6BE476E0CE01C3
:1014200042960E941B21CE0148960E947125CE0152
:1014300001960E94712562E273E0CE0148960E94F7
:10144000E12561E273E0CE0101960E94E125AE0143
:10145000485E5F4FBE016F5F7F4FCE0142960E9494
:10146000D422CE0101960E947125CE0148960E9499
:101470007125BE016E5E7F4FCE0101960E94D82578
:10148000CE0101960E94C9226F3F71058105910529
:1014900019F010F00C94D513CE0101960E94C922C8
:1014A000162F86E190E00E94B5191093E50366E3DC
:1014B00071E084E895E00E944A2686E190E00E946F
:1014C00003276AE070E00E94B3290E9472270E94FD
:1014D0000B1CCE0101960E947125CE0142960E94FE
:1014E00071256FEC73E0CE0101960E94CF25BE01FD
:1014F0006F5F7F4F8BE496E00E94D9238C01CE0171
:1015000001960E94712517FD6CC063EC72E0CE015C
:1015100001960E94E125BE016F5F7F4F8BE496E04C
:101520000E94CF234AE0BC01CE0142960E9476255C
:10153000CE0142960E94C922AB014F5F5F4F6BE420
:1015400076E0CE0148960E941B21CE0142960E9471
:101550007125CE0101960E94712562E273E0CE01F1
:1015600042960E94E12561E273E0CE0101960E945D
:10157000E125AE014E5E5F4FBE016F5F7F4FCE0132
:1015800048960E94D422CE0101960E947125CE0178
:1015900042960E947125BE01685E7F4FCE01429641
:1015A0000E94D825CE0142960E94C922DC01CB01BF
:1015B0000197A109B109803C984AA105B10510F035
:1015C0000C94E913CE0142960E94C922CB010E94DD
:1015D000BF1ECE0142960E947125CE0148960E9400
:1015E000712565EC73E0CE0101960E94CF25BE0106
:1015F0006F5F7F4F8BE496E00E94D9238C01CE0170
:1016000001960E94712517FD17C06FEF80E090E0F2
:101610000E94B5190E94EA1E6FEF83E690E00E94D7
:10162000B5190E94591E6FEF81E390E00E94B51931
:101630000E9493200E940B1C6AEB73E0CE0101967E
:101640000E94CF25BE016F5F7F4F8BE496E00E9422
:10165000D9238C01CE0101960E94712517FD09C086
:101660006FEF83E690E00E94B5190E94591E0E9418
:101670000B1C6EEA73E0CE0101960E94CF25BE01DD
:101680006F5F7F4F8BE496E00E94D9238C01CE01DF
:1016900001960E94712517FD09C06FEF80E090E070
:1016A0000E94B5190E94EA1E0E940B1C67EA73E0B3
:1016B000CE0101960E94CF25BE016F5F7F4F8BE464
:1016C00096E00E94D9238C01CE0101960E947125DB
:1016D00017FD37C081E08093880261E08BE090E0E5
:1016E0000E94B51980910904813059F561E173E0D8
:1016F000CE0142960E94E1256FE376E0CE0142964C
:101700000E94CF24BC01CE0148960E94D8256FE9E3
:1017100073E0CE0101960E94CF2540E0BE01685ED5
:101720007F4FCE0101960E940527CE0101960E94AF
:101730007125CE0148960E947125CE0142960E94E5
:10174000712567E973E0CE0101960E94CF25BE01A5
:101750006F5F7F4F8BE496E00E94D9238C01CE010E
:1017600001960E94712517FD36C01092880260E034
:101770008BE090E00E94B51980910904813059F501
:1017800061E173E0CE0142960E94E1256FE376E0CD
:10179000CE0142960E94CF24BC01CE0148960E9401
:1017A000D8256EE873E0CE0101960E94CF2540E077
:1017B000BE01685E7F4FCE0101960E940527CE01D3
:1017C00001960E947125CE0148960E947125CE0196
:1017D00042960E94712568E873E0CE0101960E944E
:1017E000CF25BE016F5F7F4F8BE496E00E94D92327
:1017F0008C01CE0101960E94712517FD37C081E052
:101800008093010161E08AE090E00E94B519809127
:101810000904813059F561E173E0CE0142960E94DE
:10182000E1256FE376E0CE0142960E94CF24BC0111
:10183000CE0148960E94D82561E873E0CE0101965A
:101840000E94CF2540E0BE01685E7F4FCE01019629
:101850000E940527CE0101960E947125CE0148966F
:101860000E947125CE0142960E9471256AE773E0BD
:10187000CE0101960E94CF25BE016F5F7F4F8BE4A2
:1018800096E00E94D9238C01CE0101960E94712519
:1018900017FD36C080910904813059F561E173E08C
:1018A000CE0142960E94E1256FE376E0CE0142969A
:1018B0000E94CF24BC01CE0148960E94D82562E741
:1018C00073E0CE0101960E94CF2540E0BE01685E24
:1018D0007F4FCE0101960E940527CE0101960E94FE
:1018E0007125CE0148960E947125CE0142960E9434
:1018F00071251092010160E08AE090E00E94B51924
:101900006CE673E0CE0101960E94CF25BE016F5FA9
:101910007F4F8BE496E00E94D9238C01CE01019683
:101920000E94712517FD37C081E08093E30361E0D9
:1019300082E190E00E94B51980910904813059F547
:1019400061E173E0CE0142960E94E1256FE376E00B
:10195000CE0142960E94CF24BC01CE0148960E943F
:10196000D82565E673E0CE0101960E94CF2540E0C0
:10197000BE01685E7F4FCE0101960E940527CE0111
:1019800001960E947125CE0148960E947125CE01D4
:1019900042960E9471256EE573E0CE0101960E9489
:1019A000CF25BE016F5F7F4F8BE496E00E94D92365
:1019B0008C01CE0101960E94712517FD36C0109250
:1019C000E30360E082E190E00E94B5198091090490
:1019D000813059F561E173E0CE0142960E94E12524
:1019E0006FE376E0CE0142960E94CF24BC01CE0187
:1019F00048960E94D82566E573E0CE0101960E94C4
:101A0000CF2540E0BE01685E7F4FCE0101960E9467
:101A10000527CE0101960E947125CE0148960E94AD
:101A20007125CE0142960E94712568E473E0CE01D3
:101A300001960E94CF25BE016F5F7F4F8BE496E039
:101A40000E94D9238C01CE0101960E94712517FDB9
:101A500005C061E0809109040E94D0286AE373E028
:101A6000CE0101960E94CF25BE016F5F7F4F8BE4B0
:101A700096E00E94D9238C01CE0101960E94712527
:101A800017FD05C062E0809109040E94D0286CE235
:101A900073E0CE0101960E94CF25BE016F5F7F4F9C
:101AA0008BE496E00E94D9238C01CE0101960E941E
:101AB000712517FD3AC0109109041092060160E0EB
:101AC00083E190E00E94B519113079F58091090405
:101AD000813059F561E173E0CE0142960E94E12523
:101AE0006FE376E0CE0142960E94CF24BC01CE0186
:101AF00048960E94D8256CE471E0CE0101960E94C0
:101B0000CF2540E0BE01685E7F4FCE0101960E9466
:101B10000527CE0101960E947125CE0148960E94AC
:101B20007125CE0142960E9471256DE173E0CE01D0
:101B300001960E94CF25BE016F5F7F4F8BE496E038
:101B40000E94D9238C01CE0101960E94712517FDB8
:101B50003BC01091090481E08093860361E084E139
:101B600090E00E94B519113079F580910904813017
:101B700059F561E173E0CE0142960E94E1256FE3E1
:101B800076E0CE0142960E94CF24BC01CE01489659
:101B90000E94D82560E671E0CE0101960E94CF2513
:101BA00040E0BE01685E7F4FCE0101960E9405278E
:101BB000CE0101960E947125CE0148960E947125A2
:101BC000CE0142960E9471256EE073E0CE0101962F
:101BD0000E94CF25BE016F5F7F4F8BE496E00E948D
:101BE000D9238C01CE0101960E94712517FD3BC0BF
:101BF0001091090482E08093860362E084E190E022
:101C00000E94B519113079F580910904813059F598
:101C100061E173E0CE0142960E94E1256FE376E038
:101C2000CE0142960E94CF24BC01CE0148960E946C
:101C3000D8256AE771E0CE0101960E94CF2540E0E9
:101C4000BE01685E7F4FCE0101960E940527CE013E
:101C500001960E947125CE0148960E947125CE0101
:101C600042960E9471256FEF72E0CE0101960E94AC
:101C7000CF25BE016F5F7F4F8BE496E00E94D92392
:101C80008C01CE0101960E94712517FD3AC010917A
:101C900009041092860360E084E190E00E94B51987
:101CA000113079F580910904813059F561E173E0D3
:101CB000CE0142960E94E1256FE376E0CE01429686
:101CC0000E94CF24BC01CE0148960E94D82560E92D
:101CD00071E0CE0101960E94CF2540E0BE01685E12
:101CE0007F4FCE0101960E940527CE0101960E94EA
:101CF0007125CE0148960E947125CE0142960E9420
:101D0000712564EF72E0CE0101960E94CF25BE01DD
:101D10006F5F7F4F8BE496E00E94D9238C01CE0148
:101D200001960E94712517FD62C16BE476E0CE0139
:101D30008A960E94D82563EC72E0CE0142960E94FA
:101D4000E125BE016E5E7F4FCE018A960E94CF23B1
:101D50004AE0BC01CE0101960E947625CE01019693
:101D60000E94C922AB014F5F5F4FBE01665D7F4F8E
:101D7000CE0184960E941B21CE0101960E947125FE
:101D8000CE0142960E94712562ED72E0CE0101966D
:101D90000E94E125BE016F5F7F4FCE0184960E94B5
:101DA000D923092FCE0101960E94712562E273E0CA
:101DB000CE0101960E94E12562ED72E0CE014296CD
:101DC0000E94E125AE014F5F5F4FBE016E5E7F4F07
:101DD000CE0184960E94D422CE0142960E947125A3
:101DE000CE0101960E94712562E273E0CE01019658
:101DF0000E94E1256EEC72E0CE0142960E94E12540
:101E0000AE014F5F5F4FBE016E5E7F4FCE01849685
:101E10000E94D422CE0142960E947125CE010196E5
:101E20000E94712562E273E0CE0101960E94E125D5
:101E300061E273E0CE0142960E94E125AE014F5F60
:101E40005F4FBE016E5E7F4FCE0184960E94D4220A
:101E5000CE0142960E947125CE0101960E94712505
:101E600061E173E0CE0142960E94E125BE016E5E03
:101E70007F4FCE0184960E94D9234AE0BC01CE0157
:101E800001960E947625CE0101960E94C9229B01EF
:101E900040E050E0BE016C5D7F4FCE014E960E9447
:101EA000F625CE0101960E947125CE0142960E9430
:101EB000712561E173E0CE0142960E94E125BE01E9
:101EC0006E5E7F4FCE0184960E94CF234AE0BC0114
:101ED000CE0101960E947625CE0101960E94C9226C
:101EE000AB014F5F5F4FBE016C5D7F4FCE014896E7
:101EF0000E941B21CE0101960E947125CE014296BF
:101F00000E947125CE014E960E94C922162FBE0155
:101F1000685E7F4FCE0101960E94D825115018307F
:101F200048F064EB71E084E895E00E9499260E94F5
:101F3000231C45C046E250E06DE573E0CE010196FA
:101F40000E940D2AC12ED12C35E1139FF0011124DE
:101F5000E95FFE4F838994892DE5E22E23E0F22E7E
:101F6000FC01ED55F3405F01C5018E0D9F1DF7018A
:101F700061917F019B8B8A8BCE0142960E94FB2050
:101F8000F3E8EF16F3E0FF0679F7602F6095661F20
:101F90006627661F85E18C9DF0018D9DF00D112453
:101FA000E95FFE4F8389948987960E94B51961EA9B
:101FB00071E084E895E00E9499260E940B1C0E9423
:101FC00072270E947627CE0101960E947125CE01CC
:101FD00048960E947125CE014E960E947125CE0131
:101FE00084960E947125CE018A960E94712569EE21
:101FF00072E0CE0101960E94CF25BE016F5F7F4F38
:102000008BE496E00E94D9238C01CE0101960E94B8
:10201000712517FD04C00E94EA1E0E9493206EEDF8
:1020200072E0CE0101960E94CF25BE016F5F7F4F07
:102030008BE496E00E94D9238C01CE0101960E9488
:10204000712517FF0E94762766ED72E0CE0101969A
:102050000E94CF25BE016F5F7F4F8BE496E00E9408
:10206000D9238C01CE0101960E94712517FD93C0E2
:102070000E94E9332DEF30E040E050E00E94A434AC
:1020800082E0F82EF60E6EEE71E084E895E00E9494
:102090004A264AE060E074E080E090E00E94702907
:1020A0006CEE71E084E895E00E94992600E010E073
:1020B0006F2DC8010E94963465E070E080E090E0EA
:1020C0000E946E160F5F1F4F011524E0120781F763
:1020D000C12CD12C00E010E0C8010E9403278F150D
:1020E000F1F16EED71E084E895E00E944A26C801A6
:1020F0000E940327E82E1B8A1A8A1D8A1C8A1F8ABF
:102100001E8A4AE0BE016F5F7F4FC8010E9464349F
:10211000BE016F5F7F4FCE0142960E940A25BE012D
:102120006E5E7F4FCE0101960E94D82563E376E074
:10213000CE0101960E94CF246E2D0E948524BC0101
:1021400084E895E00E948726CE0101960E947125C1
:10215000CE0142960E9471253FEFC31AD30A65E073
:1021600070E080E090E00E946E160F5F1F4F011537
:1021700084E0180709F0B0CF68ED71E084E895E0DD
:102180000E944A26CD2809F048C360ED71E084E83A
:1021900095E00E9499266EEC72E0CE0101960E94B5
:1021A000CF25BE016F5F7F4F8BE496E00E94D9235D
:1021B0008C01CE0101960E94712517FF0E94D22743
:1021C00064EC72E0CE0101960E94CF25BE016F5FE4
:1021D0007F4F8BE496E00E94D9238C01CE010196BB
:1021E0000E94712517FF0E94E91D6CEB72E0CE0181
:1021F00001960E94CF25BE016F5F7F4F8BE496E072
:102200000E94D9238C01CE0101960E94712517FDF1
:1022100077C06AEB72E0CE0142960E94CF25BE01E4
:102220006E5E7F4F8BE496E00E94CF234AE0BC01B4
:10223000CE0148960E947625CE0148960E94C9227A
:10224000AB014F5F5F4F6BE476E0CE0101960E94D9
:102250001B21CE0148960E947125CE0142960E9414
:102260007125CE0101960E94C922DC01CB010197A4
:10227000A109B1090A97A105B10508F0D1C2CE01A3
:1022800001960E94C922162F67E272E084E895E069
:102290000E944A2680910C04082E000C990B0E9483
:1022A000D4296DE172E084E895E00E944A2611305D
:1022B00029F410930C0467E172E00BC0123029F48A
:1022C00010930C046FE072E004C010920C0465E0FF
:1022D00072E084E895E00E94992667EF71E084E857
:1022E00095E00E944A2680910C04082E000C990B60
:1022F0000E94D4290E947227CE0101960E94712566
:1023000010920A0464EB72E0CE0101960E94CF2580
:10231000BE016F5F7F4F8BE496E00E94D9238C0152
:10232000CE0101960E94712517FD1CC068EE73E076
:1023300080E090E00E946E1666E372E08DE596E024
:102340000E944A2661E576E08DE596E00E943C26F3
:1023500065ED72E08DE596E00E946E268DE596E0D3
:102360000E9483266EEA72E0CE0101960E94CF257C
:10237000BE016F5F7F4F8BE496E00E94D9238C01F2
:10238000CE0101960E94712517FD60C0809109045D
:10239000813009F04AC061E173E0CE014E960E949F
:1023A000E1256FE376E0CE014E960E94CF24BC017A
:1023B000CE0184960E94D8254AE060910001CE01AA
:1023C00042960E94A2256AED72E0CE0101960E941B
:1023D000E125BE016E5E7F4FCE0101960E94CF24A3
:1023E00061EE72E00E94B624BC01CE0148960E94C4
:1023F000D82541E0BE016C5D7F4FCE0148960E941A
:102400000527CE0148960E947125CE0101960E94B3
:102410007125CE0142960E947125CE0184960E94BC
:102420007125CE014E960E94712560E08BE00E94DE
:1024300002162091000130E0A0E6BAEE0E942F358E
:102440000E946E1661E08BE00E94021666EA72E05E
:10245000CE0101960E94CF25BE016F5F7F4F8BE4B6
:1024600096E00E94D9238C01CE0101960E9471252D
:1024700017FF0E94ED1B6DE972E0CE0101960E94EC
:10248000CF25BE016F5F7F4F8BE496E00E94D9237A
:102490008C01CE0101960E94712517FD06C0109295
:1024A000E40310925D050E94E71A68E972E0CE012C
:1024B00001960E94CF25BE016F5F7F4F8BE496E0AF
:1024C0000E94D9238C01CE0101960E94712517FD2F
:1024D0007BC068EE73E080E090E00E946E166DE8CD
:1024E00072E0CE0101960E94CF258091E303BE01E8
:1024F0006F5F7F4F811107C0CE0142960E94D825A1
:1025000068E872E006C0CE0142960E94D82564E8D1
:1025100072E0CE0142960E942524BC01CE010196B4
:102520000E942125CE0142960E947125BE016F5F57
:102530007F4FCE0142960E94D82562E872E0CE011C
:1025400042960E94252469E376E00E94CF24BC01D4
:10255000CE0101960E942125CE0142960E9471254E
:1025600080910904813061F561E173E0CE01489604
:102570000E94E1256FE376E0CE0148960E94CF24C9
:10258000BC01CE014E960E94D825BE016F5F7F4FE1
:10259000CE0142960E94D82541E0BE01625E7F4F87
:1025A000CE0142960E940527CE0142960E947125D7
:1025B000CE014E960E947125CE0148960E9471254B
:1025C000CE0101960E9471256BE772E0CE01019663
:1025D0000E94CF25BE016F5F7F4F8BE496E00E9483
:1025E000D9238C01CE0101960E94712517FD0AC0E6
:1025F00081E08093080461E08CE090E00E94B519CE
:102600000E94711C63E772E0CE0101960E94CF2503
:10261000BE016F5F7F4F8BE496E00E94D9238C014F
:10262000CE0101960E94712517FD0DC0109208047D
:1026300060E08CE090E00E94B51961E08BE00E94C0
:1026400002160E94711C6DE672E0CE0101960E9496
:10265000CF25BE016F5F7F4F8BE496E00E94D923A8
:102660008C01CE0101960E94712517FD0CC081E0FE
:102670008093B20161E08DE090E00E94B51960E0C6
:102680008CE00E94021666E672E0CE0101960E947E
:10269000CF25BE016F5F7F4F8BE496E00E94D92368
:1026A0008C01CE0101960E94712517FD0BC010927E
:1026B000B20160E08DE090E00E94B51961E08CE02D
:1026C0000E9402166DE572E0CE0101960E94CF25B0
:1026D000BE016F5F7F4F8BE496E00E94D9238C018F
:1026E000CE0101960E94712517FD23C064E572E0BA
:1026F0008DE596E00E944A2680910C04813031F4E9
:1027000060E572E08DE596E00E94992680910C04C8
:102710008250823030F46EE472E08DE596E00E94E3
:10272000992662E472E084E895E00E9499260E946E
:102730000B1C10920904E0960FB6F894DEBF0FBE92
:10274000CDBFDF91CF911F910F91FF90EF90DF9060
:10275000CF90BF90AF909F9008954AE060910001A4
:10276000CE0148960E94A225BE01685E7F4FCE0131
:1027700001960E943825CE0148960E9471250C943E
:1027800028094AE060911C04CE0148960E94A225C7
:10279000BE01685E7F4FCE0101960E943825CE01B2
:1027A00048960E9471250C94BA094AE06091E503AD
:1027B000CE0148960E94A225BE01685E7F4FCE01E1
:1027C00001960E943825CE0148960E9471250C94EE
:1027D0004C0A8091AF019091B0011F8E1E8E19A2FC
:1027E00018A21BA21AA24AE0BE016F5F7F4F0E948F
:1027F0006434BE016F5F7F4FCE014E960E940A2562
:10280000BE01625E7F4FCE0142960E943825CE0106
:102810004E960E9471250C94E20A68EC71E0B7CCE8
:1028200060910C04062E000C770B4AE0CE01429614
:102830000E947625BE016E5E7F4FCE0101960E94FA
:102840003825CE0142960E94712519CD833081F042
:1028500028F4813099F08230A1F008958730A9F0F2
:102860008830B9F08430D1F4809180008F7D03C02E
:10287000809180008F7780938000089584B58F7752
:1028800002C084B58F7D84BD08958091B0008F779C
:1028900003C08091B0008F7D8093B00008953FB752
:1028A000F8948091520590915305A0915405B091F0
:1028B000550526B5A89B05C02F3F19F00196A11D0F
:1028C000B11D3FBFBA2FA92F982F8827820F911DC6
:1028D000A11DB11DBC01CD0142E0660F771F881F0D
:1028E000991F4A95D1F7089585ED8093BC0080919A
:1028F000BC0084FDFCCF1092AD03089540912805E3
:10290000262F30E0240F311D21323105DCF42091D7
:10291000AD032430C9F4FC0180E090E0861758F440
:10292000309128052191DC01AA5FBA4FA30FB11D98
:102930002C930196F3CF80912805680F60932805AA
:1029400080E0089581E0089582E008950895E0917F
:10295000CE038091CF03E81730F4F0E0E255FC4F4E
:10296000808190E008958FEF9FEF08959091CE03BE
:102970008091CF03981750F4E92FF0E0E255FC4F17
:10298000208130E09F5F9093CE0302C02FEF3FEF96
:10299000C90108958091CF0390E02091CE03821B5E
:1029A00091090895CF92DF92EF92FF920F931F93B8
:1029B000CF93DF937C01262F972F8A0180914504C6
:1029C000882391F0C62FD72F6E01C40ED51ECC15CB
:1029D000DD0571F06991D701ED91FC910190F081D5
:1029E000E02DC7010995F3CF642F822F0E947E143A
:1029F000C801DF91CF911F910F91FF90EF90DF9071
:102A0000CF900895CF93DF931F92CDB7DEB7698340
:102A1000209145042223D1F020918303203240F0FD
:102A200021E030E0FC013383228380E090E015C098
:102A300080918403E82FF0E0EB5DFB4F9981908358
:102A40008F5F809384038093830305C061E0CE0190
:102A500001960E947E1481E090E00F90DF91CF916B
:102A6000089520912304309124042817390771F424
:102A70009091220480912104981741F0E091220462
:102A8000F0E0EA5BFB4F808190E008958FEF9FEFCD
:102A9000089508951F93CF93DF93DC015C962D91E9
:102AA0003C915D972115310539F481E090E0139652
:102AB0009C938E9312973DC05196ED91FC91529745
:102AC00050969C915097892F80951FB75E964C9198
:102AD0005E9741FB772770F941FD6095F89440813E
:102AE000772311F0492B01C048234083E901219746
:102AF000F1F748E0508160FF02C0592B01C0582314
:102B00005083E9012197F1F76695415099F77723B2
:102B100021F090818923808303C08081982B90834A
:102B20001FBF5C968D919C915D970197F1F721E015
:102B300030E0C901DF91CF911F91089520912304C6
:102B4000309124042817390771F4809121042091D1
:102B5000220490E080549F4F821B910960EC70E04A
:102B60000E943E35089580E090E00895209123046E
:102B70003091240428173907C9F4909122048091D8
:102B80002104981799F0E0912204F0E0EA5BFB4FF2
:102B900020818091220490E0019660EC70E00E9418
:102BA0003E3580932204822F90E008958FEF9FEFAF
:102BB0000895CF93DF93282F30E0F901EC59FA4FB5
:102BC0008491F901E15FF74FD491F901E550F84F95
:102BD000C491CC2391F081110E942614EC2FF0E0D7
:102BE000EE0FFF1FEF50F84FA591B491EC91ED233C
:102BF00081E090E021F480E002C080E090E0DF918D
:102C0000CF9108951F93CF93DF93282F30E0F901E0
:102C1000EC59FA4F8491F901E15FF74FD491F90132
:102C2000E550F84FC491CC23C9F0162F81110E94B2
:102C30002614EC2FF0E0EE0FFF1FE951F84FA5919D
:102C4000B4918FB7F894111105C09C91ED2FE095C8
:102C5000E92302C0EC91ED2BEC938FBFDF91CF9174
:102C60001F910895CF93DF9390E0FC01E15FF74F50
:102C70002491FC01E550F84F8491882361F190E0A4
:102C8000880F991FFC01E65AFA4FC591D491FC01B7
:102C9000E951F84FA591B491611109C09FB7F8941B
:102CA0008881209582238883EC912E230BC062308B
:102CB00061F49FB7F8943881822F809583238883AD
:102CC000EC912E2B2C939FBF06C08FB7F894E88110
:102CD0002E2B28838FBFDF91CF9108958F929F92E3
:102CE000AF92BF92CF92DF92EF92FF926B017C0185
:102CF0000E944F144B015C01C114D104E104F104A2
:102D0000F1F00E944F14DC01CB0188199909AA093E
:102D1000BB09883E9340A105B10570F321E0C21ABA
:102D2000D108E108F10888EE880E83E0981EA11C06
:102D3000B11CC114D104E104F10419F7DDCFFF90F7
:102D4000EF90DF90CF90BF90AF909F908F900895BD
:102D50002FB7F89460914E0570914F058091500502
:102D6000909151052FBF08951F920F920FB60F92A9
:102D700011242F933F938F939F93AF93BF93809191
:102D80004E0590914F05A0915005B091510530919D
:102D90004D0523E0230F2D3720F40196A11DB11D11
:102DA00005C026E8230F0296A11DB11D20934D05F5
:102DB00080934E0590934F05A0935005B093510515
:102DC0008091520590915305A0915405B0915505FD
:102DD0000196A11DB11D8093520590935305A093B8
:102DE0005405B0935505BF91AF919F918F913F913D
:102DF0002F910F900FBE0F901F9018951F920F925A
:102E00000FB60F9211242F933F934F935F936F93BD
:102E10007F938F939F93AF93BF93EF93FF93809193
:102E2000B900887F803609F49CC068F5883209F4BF
:102E30005BC090F4803109F454C038F4882309F45D
:102E4000F6C0883009F44DC0F6C0883109F44CC092
:102E5000803209F45DC0EFC0803409F468C048F4E2
:102E6000803309F455C0883309F0E5C08093AB0383
:102E7000D8C0803509F44FC0883509F45DC0883466
:102E800009F0D9C0D6C0883909F4C7C0A8F488377A
:102E900009F467C038F4883609F463C0803709F450
:102EA00060C0C9C0883809F4B8C0803909F45FC06F
:102EB000803809F0C0C05BC0803B09F486C038F49C
:102EC000803A09F466C0883A09F47FC0B4C0803CF7
:102ED00009F4A7C0883C09F4A4C0883B09F48AC05F
:102EE000AAC08091A80310C09091AA038091A90361
:102EF000981770F5E091AA0381E08E0F8093AA03E2
:102F0000F0E0E957FC4F80818093BB0085EC86C0E0
:102F10008093AB038EC0E091AA0381E08E0F809373
:102F2000AA038091BB00F0E0E957FC4F80839091A9
:102F3000AA038091A9036EC0E091AA0381E08E0FDD
:102F40008093AA038091BB00F0E0E957FC4F808397
:102F50008091AC0381116DC081E08093A70384EA66
:102F600061C083E08093AD0310924C05CFCF809178
:102F70004C05803208F051C0E0914C0581E08E0F85
:102F800080934C058091BB00F0E0E45DFA4F8083B4
:102F9000BDCF85EC8093BC001092AD0380914C05B1
:102FA000803230F4E0914C05F0E0E45DFA4F10829D
:102FB00060914C0570E0E0912A05F0912B058CE2C0
:102FC00095E0099510924C0536C084E08093AD03DE
:102FD0001092290510922805E0912605F091270509
:102FE000099580912805811105C081E0809328050D
:102FF00010920605E091290581E08E0F8093290546
:10300000F0E0EA5FFA4F80818093BB009091290540
:1030100080912805981708F479CF85E88093BC0043
:103020000AC085EC8093BC001092AD0304C01092DE
:10303000AB030E947414FF91EF91BF91AF919F91E8
:103040008F917F916F915F914F913F912F910F9051
:103050000FBE0F901F9018951F920F920FB60F92F0
:1030600011242F933F934F935F936F937F938F938D
:103070009F93AF93BF93EF93FF93E0912304F0915D
:103080002404309709F453C0968DA685B7858585AD
:1030900091FF04C09C91892329F449C09C91892304
:1030A00009F045C0A389B4899C91858980958923BD
:1030B0008C93868997890197F1F7608D718DA6852C
:1030C000B785558538E020E0CB010197F1F7822FD5
:1030D00090E095958795282F4C91452309F020681D
:1030E000315091F7868D81FD20958091210490E0EB
:1030F000019660EC70E00E943E3590912204981792
:1031000049F0A0912104B0E0AA5BBB4F2C938093BF
:10311000210403C0868D8160868F828D938D0197F7
:10312000F1F7A389B4899C918589892B8C93FF91B0
:10313000EF91BF91AF919F918F917F916F915F912F
:103140004F913F912F910F900FBE0F901F901895A8
:10315000CF92DF92EF92FF920F931F93CF93DF9363
:10316000EB017B0121E1E20EF11C8B016C01C61A1F
:10317000D70AC601800F911F0E948E34F8018193F7
:103180008F01EE15FF05A9F7CE01DF91CF911F91B9
:103190000F91FF90EF90DF90CF900895AF92BF9284
:1031A000CF92DF92EF92FF920F931F93CF93DF9313
:1031B000CDB7DEB768970FB6F894DEBF0FBECDBFB0
:1031C0007C01B62EA42EBC0184E895E00E948726DF
:1031D00005EB11E0F801C388D488C60143960E942C
:1031E0000327813009F03FC067EF73E0C6010E94FA
:1031F000A818BC01CE0107960E94E12561E173E0A9
:10320000CE010D960E94E125BE01695F7F4FCE0180
:103210000D960E94CF24BC01CE0101960E94D825B4
:10322000B701CE0143960E94D8254A2DBE016F5F9B
:103230007F4FCE0143960E940527CE0143960E9400
:103240007125CE0101960E947125CE010D960E9436
:103250007125CE0107960E94712568EE73E080E02B
:1032600090E00E946E160B5E1F4FF2E007381F07BA
:1032700009F0B0CF80918802813099F5B81231C041
:1032800067EF73E08091C8019091C9010E94A8186E
:10329000BC01CE0101960E94E125CE0101960E945B
:1032A0001D29182FCE0101960E947125111119C0F8
:1032B00065E575E08DE596E00E944A2667EF73E0CC
:1032C0008091C8019091C9010E94A818BC018DE5A8
:1032D00096E00E946E2663E575E08DE596E00E941B
:1032E000992668960FB6F894DEBF0FBECDBFDF916A
:1032F000CF911F910F91FF90EF90DF90CF90BF90F3
:10330000AF900895AF92BF92CF92DF92EF92FF926B
:103310000F931F93CF93DF9300D0CDB7DEB78B0110
:103320006B0121E1C20ED11C7B015C01A61AB70A18
:1033300095012E0D3F1DF70161917F013A8329838D
:10334000CE0101960E94FB20EC14FD0489F7C80110
:103350000F900F90DF91CF911F910F91FF90EF9001
:10336000DF90CF90BF90AF900895CF93DF9300D0C0
:10337000CDB7DEB79A838983CE0101960E94FB20E8
:103380000F900F90DF91CF910895EF92FF920F93DE
:103390001F93CF93DF93CDB7DEB768970FB6F8943E
:1033A000DEBF0FBECDBF0E94A81600911D04109174
:1033B0001E0420911F0430912004601B710B820BAE
:1033C000930B28EE33E040E050E00E940D358091F1
:1033D0001C0490E0A0E0B0E082179307A407B507B3
:1033E00008F0E8C011E01093B40161E08EE090E0D5
:1033F0000E94B5191093B1016EEE72E0CE010196F4
:103400000E94E1256FE376E0CE0101960E94CF2471
:10341000BC0189E396E00E942125CE0101960E941D
:10342000712580918503813031F462E475E089E390
:1034300096E00E94E22469E376E084E895E00E9449
:10344000872668EE73E080E090E00E946E1605EB40
:1034500011E0F801E388F488C70143960E9403272E
:10346000813009F061C067EF73E0C7010E94A818BE
:10347000BC01CE0101960E94E125BE016F5F7F4F26
:103480008FE396E00E94F323F82ECE0101960E946E
:103490007125F11010920B0468EE73E080E090E06B
:1034A0000E946E1667EF73E0F801838994890E9489
:1034B000A818BC01CE0107960E94E12561E173E0E6
:1034C000CE010D960E94E125BE01695F7F4FCE01BE
:1034D0000D960E94CF24BC01CE0101960E94D825F2
:1034E00069E376E0CE0143960E94D82540E0BE0114
:1034F0006F5F7F4FCE0143960E940527CE01439612
:103500000E947125CE0101960E947125CE010D9673
:103510000E947125CE0107960E94712568EE73E026
:1035200080E090E00E946E160B5E1F4FF2E00738BD
:103530001F0709F08ECF80910B048130B9F568EE3A
:1035400073E080E090E00E946E1661E173E0CE01CE
:1035500007960E94E1256FE376E0CE0107960E9470
:10356000CF24BC01CE0101960E94D82569E375E005
:10357000CE010D960E94CF2540E0BE016F5F7F4FC8
:10358000CE010D960E940527CE010D960E94712551
:10359000CE0101960E947125CE0107960E947125E9
:1035A00068EE73E080E090E00E946E161092850352
:1035B0001092E40368960FB6F894DEBF0FBECDBF3D
:1035C000DF91CF911F910F91FF90EF900895EF92AF
:1035D000FF920F931F93CF93DF93CDB7DEB768971A
:1035E0000FB6F894DEBF0FBECDBF1092B40160E0FD
:1035F0008EE090E00E94B51960E073E0CE01019684
:103600000E94E1256FE376E0CE0101960E94CF246F
:10361000BC0189E396E00E942125CE0101960E941B
:10362000712580918503813031F460E677E089E38C
:1036300096E00E94E22469E376E084E895E00E9447
:10364000872668EE73E080E090E00E946E1605EB3E
:1036500011E0F801E388F488C70143960E9403272C
:10366000813009F061C067EF73E0C7010E94A818BC
:10367000BC01CE0101960E94E125BE016F5F7F4F24
:103680008FE396E00E94F323F82ECE0101960E946C
:103690007125F11010920B0468EE73E080E090E069
:1036A0000E946E1667EF73E0F801838994890E9487
:1036B000A818BC01CE010D960E94E12561E173E0DE
:1036C000CE0107960E94E125BE01635F7F4FCE01C8
:1036D00007960E94CF24BC01CE0143960E94D825B4
:1036E00069E376E0CE0101960E94D82540E0BE0154
:1036F0006D5E7F4FCE0101960E940527CE01019697
:103700000E947125CE0143960E947125CE01079635
:103710000E947125CE010D960E94712568EE73E01E
:1037200080E090E00E946E160B5E1F4FF2E00738BB
:103730001F0709F08ECF80910B048130B9F568EE38
:1037400073E080E090E00E946E1661E173E0CE01CC
:1037500007960E94E1256FE376E0CE0107960E946E
:10376000CF24BC01CE010D960E94D82566E577E0F6
:10377000CE0101960E94CF2540E0BE01635F7F4FDE
:10378000CE0101960E940527CE0101960E94712567
:10379000CE010D960E947125CE0107960E947125DB
:1037A00068EE73E080E090E00E946E1680918603E0
:1037B000823021F4109203011092020110928503CD
:1037C00068960FB6F894DEBF0FBECDBFDF91CF91E4
:1037D0001F910F91FF90EF9008950E94A81660939B
:1037E0001D0470931E0480931F049093200481E0B5
:1037F0008093E4030C94C5198091B401813031F4B5
:103800001092E40310925D050C94E71A811102C036
:103810000C94ED1B089561E08BE00E94021664E6B3
:1038200070E080E090E00E946E1660E08BE00E9405
:10383000021664E670E080E090E00E946E1661E09F
:103840008BE00C9402160E940B1C0C940B1CDF9254
:10385000EF92FF920F931F93CF93DF9300D000D08E
:1038600000D0CDB7DEB77C0105EB11E067EF73E068
:10387000F801838994890E94A818BC01CE010196A1
:103880000E94E125B701CE0101960E94F323D82EB4
:10389000CE0101960E947125D11008C00B5E1F4F0A
:1038A000F2E007381F0711F780E00DC0B7018FE382
:1038B00096E00E942125F8018389948942960E940E
:1038C0000327813059F726960FB6F894DEBF0FBE56
:1038D000CDBFDF91CF911F910F91FF90EF90DF90BF
:1038E00008950F931F93CF93DF9300D000D000D0A3
:1038F000CDB7DEB760ED77E080E090E00E946E1615
:103900000E942E2910927806109277061092760661
:103910001092750610927406109273068DE991E06C
:1039200090937A068093790690916906963108F013
:1039300057C02DEB30E030937406209373062BE9CB
:1039400031E030937606209375062CE231E0309317
:1039500078062093770620916800983050F031E087
:103960009E3008F430E081E001C0880F3A95EAF714
:1039700001C084E0822B80936800983038F09E303C
:1039800040F0963148F020E030E008C02DE630E00D
:1039900005C02BE630E002C02CE630E03093710623
:1039A00020937006983030F481E001C0880F9A951A
:1039B000EAF70EC0292F30E09E3018F42850310964
:1039C00002C02E50310981E001C0880F2A95EAF724
:1039D000809372068091790690917A060197F1F7AB
:1039E0008091770690917806892B49F1E091230424
:1039F000F091240486E0ED35F80709F1309739F0AD
:103A0000A389B4899C918589809589238C93809121
:103A10007B068E7F80937B061092210410922204F5
:103A20008DE596E09093240480932304E091700642
:103A3000F0917106908180917206892B80831AE043
:103A400063E577E08DE596E00E94992668EC70E0EA
:103A500080E090E00E946E16115091F76FE477E0DD
:103A60008DE596E00E9499266AE070E080E090E0A3
:103A70000E946E168DE596E00E949E15892B09F432
:103A800060C08DE596E00E949E15892B79F08DE54A
:103A900096E00E94B61580930D040E94522A64E1BC
:103AA00070E080E090E00E946E16EBCF6AE477E071
:103AB000CE0101960E94CF25BE016F5F7F4F8BE440
:103AC00096E00E94D9238C01CE0101960E947125B7
:103AD00017FD03C081E080930C0463E477E0CE011E
:103AE00001960E94CF25BE016F5F7F4F8BE496E069
:103AF0000E94D9238C01CE0101960E94712517FDE9
:103B000003C082E080930C0460E477E0CE0101966C
:103B10000E94CF25BE016F5F7F4F8BE496E00E942D
:103B2000D9238C01CE0101960E94712517FD03C097
:103B300083E080930C0462E273E08BE496E00E94E1
:103B40000A2566E377E08DE596E00E94992664E613
:103B500070E080E090E00E946E166CE277E08DE508
:103B600096E00E94992664E670E080E090E00E9472
:103B70006E166EE177E08DE596E00E94992664E688
:103B800070E080E090E00E946E1662E177E08DE5E3
:103B900096E00E94992664E670E080E090E00E9442
:103BA0006E1680910804813019F46DE077E002C050
:103BB00068E077E08DE596E00E94992626960FB69C
:103BC000F894DEBF0FBECDBFDF91CF911F910F9153
:103BD0000895BF92CF92DF92EF92FF920F931F93BF
:103BE000CF93DF9300D000D000D0CDB7DEB767E031
:103BF00076E084E895E00E94992685EBE82E81E046
:103C0000F82E00E010E067EF73E0F70183899489F4
:103C10000E94A818F701C388D488C60143960E9461
:103C20000327B82EC60142960E940327D82E0F5FA5
:103C30001F4F4AE0B801CE0101960E94762563E34A
:103C400076E0CE0101960E94CF2467EF73E00E94D8
:103C5000B62463E376E00E94CF246D2D0E94852474
:103C600063E376E00E94CF246B2D0E948524BC0183
:103C700084E895E00E948726CE0101960E94712576
:103C8000F5E1EF0EF11C0A30110509F0BCCF0E94DE
:103C9000722726960FB6F894DEBF0FBECDBFDF9118
:103CA000CF911F910F91FF90EF90DF90CF90BF9039
:103CB0000895EF92FF920F931F93CF93DF9383E6C4
:103CC00090E00E940327813009F444C062EF75E060
:103CD00084E895E00E949926C4E6D0E06FEFCE011B
:103CE0000E94B5196AE070E080E090E00E946E16D4
:103CF0002196CC3281E0D80789F769ED75E084E838
:103D000095E00E9499260E947227C5EBD1E000E061
:103D100010E0BE018B899C890E948219F801EB5446
:103D2000FE4F7F018B899C89618942960E94B5195B
:103D30008B899C89F701628943960E94B5190B5EB5
:103D40001F4F6596023D110521F761E083E690E083
:103D50000E94B51983E690E00E940327813041F468
:103D6000DF91CF911F910F91FF90EF900C94E91D7F
:103D7000DF91CF911F910F91FF90EF900895CF9316
:103D8000DF93D82FC92F682F80E190E00E949634EE
:103D90006C2F81E190E00E949634D093AF01C093E4
:103DA000B00166EC75E084E895E00E944A266091D7
:103DB000AF017091B00180E090E04AE00E9470296C
:103DC00084E895E00E9483260E947227DF91CF91BC
:103DD0000C940B1C0F931F93CF93DF9300D000D054
:103DE00000D0CDB7DEB780E090E00E94032781309D
:103DF00009F45FC06CEE76E084E895E00E949926B5
:103E000000E010E06FEFC8010E94B5196AE070E0B1
:103E100080E090E00E946E160F5F1F4F0E3111057B
:103E200089F76CEC76E084E895E00E9499260E9480
:103E3000722761E08AE090E00E94B51961E08BE0B2
:103E400090E00E94B51960E08CE090E00E94B51906
:103E500061E08DE090E00E94B51961E08EE090E0B5
:103E60000E94B5196FE08FE090E00E94B5198CE3D5
:103E700090E00E94BF1E60E082E190E00E94B519D0
:103E800061E083E190E00E94B51960E084E190E098
:103E90000E94B51960E085E190E00E94B51960E0EC
:103EA00086E190E00E94B51961E080E090E00E9418
:103EB000B51980E090E00E940327813009F028C105
:103EC00069EB76E084E895E00E9499268AE090E02C
:103ED0000E940327809301016FEA76E084E895E071
:103EE0000E944A2680910101082E000C990B0E9425
:103EF000D4298BE090E00E9403278093880263EA34
:103F000076E084E895E00E944A2680918802082E97
:103F1000000C990B0E94D4298CE090E00E940327AA
:103F2000809308046AE976E084E895E00E944A26D6
:103F300080910804082E000C990B0E94D4298DE072
:103F400090E00E9403278093B20162E976E084E862
:103F500095E00E944A268091B201082E000C990B30
:103F60000E94D4298EE090E00E9403278093B40140
:103F70006AE876E084E895E00E944A268091B401E0
:103F8000082E000C990B0E94D4298FE090E00E942B
:103F90000327809300016EE776E084E895E00E94B5
:103FA0004A266AE070E0809100010E94B32980E116
:103FB00090E00E940327182F81E190E00E940327E0
:103FC0001093AF018093B0016EE676E084E895E04F
:103FD0000E944A266091AF017091B00180E090E0AC
:103FE0004AE00E94702984E895E00E94832682E1DD
:103FF00090E00E9403278093E30363E676E084E881
:1040000095E00E944A268091E303082E000C990B4C
:104010000E94D42983E190E00E9403278093060147
:1040200063E576E084E895E00E944A2680910601E7
:10403000082E000C990B0E94D42984E190E00E9484
:104040000327809386036FE376E084E895E00E947F
:104050004A2680918603082E000C990B0E94D429D1
:1040600085E190E00E94032780931C046CE276E0D7
:1040700084E895E00E944A266AE070E080911C0482
:104080000E94B32986E190E00E9403278093E50314
:1040900069E176E084E895E00E944A266AE070E0F3
:1040A0008091E5030E94B3298091B4018130A9F485
:1040B00069E376E0CE0101960E94D82563E173E0C2
:1040C000CE0101960E94B624BC0189E396E00E94CD
:1040D0002125CE0101960E9471258091B4018111A4
:1040E00015C069E376E0CE0101960E94D82566E10D
:1040F00073E0CE0101960E94B624BC0189E396E0EC
:104100000E942125CE0101960E9471250E947227EE
:1041100026960FB6F894DEBF0FBECDBFDF91CF91CC
:104120001F910F91089581E390E00E940327813051
:1041300081F16FEA75E084E895E00E94992664E9D0
:1041400075E084E895E00E9499260E9472276AE152
:1041500073E081E596E00E940A2586E1809387025C
:1041600041E150E06CE473E081E596E00E940D2AA5
:104170006CE473E08EE190E00E9482196091870206
:1041800080E390E00E94B51961E081E390E00E9435
:10419000B51981E390E00E940327813059F56CE462
:1041A00073E08EE190E00E94A818BC0181E596E0E2
:1041B0000E940A2580E390E00E94032780938702F3
:1041C0006BE875E084E895E00E944A2661E576E0B8
:1041D00084E895E00E94872668E775E084E895E02A
:1041E0000E944A266AE070E0809187020E94B3290B
:1041F0000C9472270895EF92FF920F931F93CF9321
:10420000DF931F92CDB7DEB77C01FC0100811181E5
:10421000C80169830E948E346981681719F0C8014A
:104220000E949634C7010F90DF91CF911F910F919B
:10423000FF90EF900895CF93DF93EC01FB01248171
:1042400035810E94F625CE01DF91CF910895089522
:10425000CF92DF92EF92FF920F931F93CF93DF9352
:104260006C017A018B01C0E0D0E0CE15DF0589F04A
:10427000D8016D918D01D601ED91FC910190F081F5
:10428000E02DC6010995892B11F47E0102C021960B
:10429000ECCFC701DF91CF911F910F91FF90EF906D
:1042A000DF90CF900895FC01918D828D981761F079
:1042B000828DDF01A80FB11D5D968C91928D9F5F5D
:1042C0009F73928F90E008958FEF9FEF0895FC0108
:1042D000918D828D981731F0828DE80FF11D858DBB
:1042E00090E008958FEF9FEF0895FC01918D228D4E
:1042F000892F90E0805C9F4F821B91098F739927D3
:10430000089584E895E00E94752121E0892B09F445
:1043100020E0822F0895FC01848DDF01A80FB11DDC
:10432000A35ABF4F2C91848D90E001968F739927EB
:10433000848FA689B7892C93A089B1898C918064D8
:104340008C93938D848D981306C00288F389E02D99
:1043500080818F7D80830895EF92FF920F931F934A
:10436000CF93DF93EC0181E0888F9B8D8C8D981328
:1043700005C0E889F989808185FD24C0F62E0B8D62
:1043800010E00F5F1F4F0F731127E02E8C8DE81286
:104390000CC00FB607FCFACFE889F989808185FF48
:1043A000F5CFCE010E948B21F1CF8B8DFE01E80F5E
:1043B000F11DE35AFF4FF0820B8FEA89FB89808160
:1043C000806207C0EE89FF896083E889F98980816E
:1043D0008064808381E090E0DF91CF911F910F9105
:1043E000FF90EF900895CF93DF93EC01888D8823A1
:1043F000C9F0EA89FB89808185FD05C0A889B98952
:104400008C9186FD0FC00FB607FCF5CF808185FF2C
:10441000F2CFA889B9898C9185FFEDCFCE010E949A
:104420008B21E7CFDF91CF91089580E090E0892B39
:1044300029F00E94812181110C94000008950E94AE
:104440006337AF92BF92CF92DF92EF92FF920F93BA
:104450001F93CF93DF937B018A01FB014481558138
:104460004115510561F1FC0124813581211531058A
:1044700031F12417350718F10217130718F08901D5
:1044800001501109FC01A080B180C501DFEFCFEF21
:104490006501C00ED11EC816D906A0F0F7016081D3
:1044A00071810E94AA37009769F09C012A193B0983
:1044B0000217130710F0D22FC32F0196ECCF8FEF06
:1044C0009FEF02C08D2F9C2FDF91CF911F910F91F5
:1044D000FF90EF90DF90CF90BF90AF9008950F9333
:1044E0001F93CF93DF93EC0188819981009729F086
:1044F0002A813B812617370788F48B016F5F7F4F36
:104500000E949936009761F0998388831B830A8300
:104510002C813D81232B11F4FC01108281E001C02C
:1045200080E0DF91CF911F910F910895CF93DF939A
:10453000EC0188819981009711F00E94013619825F
:1045400018821D821C821B821A82DF91CF910895EE
:10455000EF92FF920F931F93CF93DF93EC017B01B8
:104560008A01BA010E946F22811104C0CE010E940B
:10457000962207C01D830C83B701888199810E9410
:104580009437CE01DF91CF911F910F91FF90EF9063
:104590000895FC0180819181009711F00C94F7330C
:1045A00060E070E0CB0108952F923F924F925F92AE
:1045B0006F927F928F929F92AF92BF92CF92DF9233
:1045C000EF92FF920F931F93CF93DF93FC014480F0
:1045D00055804114510409F4CFC0FB0164807580FB
:1045E0006114710409F4C8C07A016B01EC01FA018D
:1045F000A480B580A618B70808811981A114B10458
:10460000C1F4F60160817181C8010E94AA37EC01F2
:10461000892B09F4B1C0F701608171814481558112
:10462000CE010E947037F701048115810C0F1D1F08
:10463000E8CFB7FE02C0480106C0FB0120803180F0
:104640004201C80142C0F60160817181C4010E942B
:10465000AA372C01892B19F1320168187908A301B6
:10466000B401C8010E947037060D171DF701608163
:10467000718144815581C8010E947037F70184819E
:104680009581080F191FF60184809580840C951C74
:104690008C819D818A0D9B1D9D838C83D4CFB40119
:1046A000C801DF91CF911F910F91FF90EF90DF90A4
:1046B000CF90BF90AF909F908F907F906F905F90C2
:1046C0004F903F902F900C949437B1010E94AA37DD
:1046D000009729F0860D971D8A0C9B1CF6CF841439
:1046E000950409F449C08A819B818815990560F475
:1046F000B4016F5F7F4FC8010E9499360097E1F1C6
:10470000998388839B828A824C815D8141505109C3
:1047100057FD32C0B601CE010E9421228C0197FDC7
:104720002BC088819981F60124813581200F311FAA
:10473000820F931F4C815D81421B530BBC018A0D7C
:104740009B1D0E9479378C819D818A0D9B1D9D83C5
:104750008C8328813981F901E80FF91F1082888143
:104760009981F7016081718144815581800F911F8A
:104770000E947037A801CACFDF91CF911F910F918E
:10478000FF90EF90DF90CF90BF90AF909F908F9071
:104790007F906F905F904F903F902F900895FC0115
:1047A00044815581FB0124813581421B530B0C94BC
:1047B0002122CF93DF93FC0124813581232B71F0DB
:1047C000FB01DC01CD91DC9160817181CE010E9401
:1047D000AA37009719F08C1B9D0B02C08FEF9FEF3B
:1047E000DF91CF910895FC0124813581FB01448143
:1047F00055812417350721F5FC0180819181FB014A
:1048000060817181009719F061157105A1F461153E
:10481000710549F0232BB1F0FB01808190E0919567
:10482000819591090AC0009769F0232B59F0FC018A
:10483000808190E002C00E948B3721E0892B19F023
:1048400020E001C021E0822F0895EF92FF920F93A4
:104850001F93CF93DF93EC017B0161157105E1F0AC
:10486000CB010E9425340097D1F02C813D818C0131
:10487000020F131FB801CE010E946F22882361F03E
:10488000288139818C819D81B701820F931F0E94FD
:104890001E341D830C8303C0CE010E949622CE01DC
:1048A000DF91CF911F910F91FF90EF900895EF92BC
:1048B000FF920F931F93CF93DF93FC0124813581E7
:1048C0006115710511F480E019C041155105A9F079
:1048D0007B01EC018A01020F131FB8010E946F22B5
:1048E000882389F3288139818C819D81B701820FCA
:1048F000931F0E9494371D830C8381E0DF91CF9139
:104900001F910F91FF90EF900895EF92FF920F93F8
:104910001F93CF93DF9300D000D0CDB7DEB77C01DB
:10492000862F4AE08E010F5F1F4FB80190E00E9472
:104930003934F80101900020E9F73197AF01401BAD
:10494000510BB801C7010E945724811103C0C70150
:104950000E949622C7010F900F900F900F90DF9149
:10496000CF911F910F91FF90EF900895CF93DF9318
:10497000EC016115710561F0FB0101900020E9F780
:104980003197AF01461B570B0E945724811103C07A
:10499000CE010E949622CE01DF91CF910895CF9350
:1049A000DF93EC01FB0144815581608171810E949C
:1049B0005724811103C0CE010E949622CE01DF91BF
:1049C000CF910895EF92FF920F931F93CF93DF93B0
:1049D000EC018B016115710551F0CB010E9425346A
:1049E0007C01BC01CE010E946F22811104C0CE0166
:1049F0000E94962207C0FD82EC82B80188819981CD
:104A00000E941E34CE01DF91CF911F910F91FF9034
:104A1000EF900895CF93DF93EC016115710559F084
:104A2000FB0101900020E9F73197AF01461B570BBE
:104A30000E94A82202C00E949622CE01DF91CF914F
:104A40000895CF93DF93EC01FB018617970761F080
:104A5000608171816115710529F0448155810E9441
:104A6000A82202C00E949622CE01DF91CF91089524
:104A70000F931F93CF93DF938C01EB01FC01808197
:104A800091810097B1F0688179816115710579F0A4
:104A9000428153812C813D814217530740F00E948F
:104AA00094378C819D81F8019583848313C00E9483
:104AB000013688819981F801918380838A819B8165
:104AC000938382838C819D8195838483198218824C
:104AD0001B821A821D821C82DF91CF911F910F9140
:104AE0000895FC01808191810C9401360F931F93EE
:104AF000CF93DF93CDB7DEB762970FB6F894DEBFE2
:104B00000FBECDBF8C01CB01F80111821082138240
:104B100012821582148250E0BE016F5F7F4F0E94A7
:104B20002E34BE016F5F7F4FC8010E940A25629636
:104B30000FB6F894DEBF0FBECDBFDF91CF911F91AE
:104B40000F9108950F931F93CF93DF93CDB7DEB7E7
:104B500029970FB6F894DEBF0FBECDBF8C01862F0C
:104B6000F80111821082138212821582148250E0A1
:104B7000BE016F5F7F4F90E00E945934BE016F5FAE
:104B80007F4FC8010E940A2529960FB6F894DEBF10
:104B90000FBECDBFDF91CF911F910F910895FC0102
:104BA0001182108213821282158214820C94E224E4
:104BB000FC011182108213821282158214820C94DD
:104BC0002125FC0111821082138212821582148227
:104BD0006115710551F0FB0101900020E9F7319753
:104BE000AF01461B570B0C94A8220895BF92CF9299
:104BF000DF92EF92FF920F931F93CF93DF937C018D
:104C00006B018A01E9012417350720F4812F8901FE
:104C1000C42FD82F62E273E0C7010E94E125D601BC
:104C200014968D919C91159708171907D0F48C173D
:104C30009D0708F4EC01D601ED91FC911197EC0F62
:104C4000FD1FB08010824D915C91BA01600F711F01
:104C5000C7010E940A25D601ED91FC91EC0FFD1FC2
:104C6000B082C701DF91CF911F910F91FF90EF901C
:104C7000DF90CF90BF900895DC01ED91FC91DB01B6
:104C800014964D915C9115976D917C910280F38102
:104C9000E02D0994EF92FF920F931F93CF93DF9330
:104CA0008C017B01C0E0D0E0F701EC0FFD1F6491A7
:104CB000662361F0D801ED91FC910190F081E02D27
:104CC000C8010995892B11F02196EECFCE01DF9115
:104CD000CF911F910F91FF90EF900895611571058D
:104CE00079F0FB0101900020E9F73197AF01461BF5
:104CF000570BDC01ED91FC910280F381E02D0994CA
:104D000080E090E0089560E273E00C946E260F93CB
:104D10001F93CF93DF93EC010E943C268C01CE01C0
:104D20000E948326800F911FDF91CF911F910F91D9
:104D300008950F931F93CF93DF93EC010E944A26AF
:104D40008C01CE010E948326800F911FDF91CF91AD
:104D50001F910F9108951F920F920FB60F92112479
:104D60002F933F934F935F936F937F938F939F9373
:104D7000AF93BF93EF93FF9384E895E00E948B215C
:104D8000FF91EF91BF91AF919F918F917F916F9123
:104D90005F914F913F912F910F900FBE0F901F90F9
:104DA00018951F920F920FB60F9211242F938F9385
:104DB0009F93EF93FF93E0919405F0919505808187
:104DC000E0919A05F0919B0582FD12C0908180913F
:104DD0009D058F5F8F7320919E05821751F0E091A2
:104DE0009D05F0E0EC57FA4F958F80939D0501C02B
:104DF0008081FF91EF919F918F912F910F900FBE26
:104E00000F901F9018950C948E340F931F93CF938F
:104E1000DF93EC018B0180910101813019F0413069
:104E200009F046C068EE73E080E090E00E946E16E4
:104E30006DED77E08DE596E00E944A26B8018DE59C
:104E400096E00E943C266BED77E08DE596E00E94AF
:104E5000992664EF71E080E090E00E946E16BE013A
:104E60008DE596E00E943C2664EF71E080E090E0E2
:104E70000E946E16E0915D06F0915E060190F08151
:104E8000E02D6AE18DE596E0099564EF71E080E040
:104E900090E00E946E1667E273E084E895E00E945D
:104EA0006E2668E873E180E090E00E946E1606C00E
:104EB00063E273E084E895E00E946E26B80184E81E
:104EC00095E00E943C2663E376E084E895E00E944A
:104ED0003C26BE0184E895E0DF91CF911F910F91B0
:104EE0000C94872684E895E00C948326DF92EF9259
:104EF000FF920F931F93CF93DF9300D000D000D089
:104F0000CDB7DEB76EEC77E084E895E00E94992695
:104F100087E0E82E81E0F82E00E010E0F7018389B9
:104F200094890E945629F7018389948987960E9463
:104F30000327D82E0F5F1F4F4AE0B801CE0101961C
:104F40000E94762563E376E0CE0101960E94CF248D
:104F50006EE575E00E94B62463E376E00E94CF24FC
:104F60006D2D0E948524BC0184E895E00E9487266F
:104F7000CE0101960E947125F5E1EF0EF11C08307B
:104F8000110561F60E94722726960FB6F894DEBFCF
:104F90000FBECDBFDF91CF911F910F91FF90EF908A
:104FA000DF9008957F928F929F92AF92BF92CF929F
:104FB000DF92EF92FF920F931F93CF93DF93C12C59
:104FC000D12C7601C394D0E0BB24B39462E0A62E2A
:104FD00099249A9475EE872EE5EC7E2ECC2DB09216
:104FE0004504C09256051092840310928303909159
:104FF000AD039111FCCFA092AD03B092AC0390929F
:10500000AB031092AA031092A9031092A8038091F7
:10501000A80386019601220F331F282B2093A80393
:105020008091A703813069F41092A7038091A803AF
:105030008093BB008091BC0083FDF8CF7092BC00D0
:1050400002C08092BC008091AD038230E1F3809178
:10505000AB038F3F69F08091AB03803231F08091D8
:10506000AB03803321F094E003C092E001C093E0F1
:10507000109284031092830310924504911134C05E
:105080006DEB77E084E895E00E944A2680E1C8163F
:10509000D104E104F10430F46BEB77E084E895E0AF
:1050A0000E944A2640E1C701B6010E947029C05201
:1050B000C830B0F463E376E084E895E00E943C26D3
:1050C00069EA77E084E895E00E9499261093D1037D
:1050D0000093D0038091E2038F5F8093E20302C0CC
:1050E0000E947227DF5F19C09430B9F46DE977E050
:1050F00084E895E00E944A26E0E1CE16D104E1045E
:10510000F10430F46BE977E084E895E00E944A26E8
:1051100060E170E08C2F0E94B329FFEFCF1ADF0A05
:10512000EF0AFF0A8FE7C816D104E104F10409F081
:1051300055CFD11106C065E877E084E895E00E947C
:1051400099268091E2038823E9F00E94762707E000
:1051500011E0CAEDD3E0FC2EE8E0FE0EF8018389F1
:10516000948987960E94032789930B5E1F4FFC1238
:10517000F5CF0E947227E2EDF3E088E08E0F1192E6
:105180008E13FDCFDF91CF911F910F91FF90EF9084
:10519000DF90CF90BF90AF909F908F907F900895B9
:1051A0001F93CF93DF93CDB7DEB762970FB6F89416
:1051B000DEBF0FBECDBF182F6093060183E190E0E4
:1051C0000E94B519113079F580910904813059F5A3
:1051D00061E173E0CE0107960E94E1256FE376E07E
:1051E000CE0107960E94CF24BC01CE010D960E94ED
:1051F000D82562E777E0CE0101960E94CF2540E0F6
:10520000BE01635F7F4FCE0101960E940527CE014C
:1052100001960E947125CE010D960E947125CE0146
:1052200007960E94712562960FB6F894DEBF0FBEF6
:10523000CDBFDF91CF911F910895DC0114962D9180
:105240003C911597232B41F0ED91FC9181E09081E9
:10525000992319F080E0089581E00895E4E8F5E0ED
:10526000A089B18982E08C93A485B5851C92A6851E
:10527000B7858FEC8C93108EA489B58986E08C93CA
:10528000A289B3898C9180618C93A289B3898C9116
:1052900088608C93A289B3898C9180688C930288F2
:1052A000F389E02D80818F7D808308950F931F9374
:1052B000CF93DF93CEE5D5E08C010E551540C801A4
:1052C0008C0F9D1F0E948E34899385E0C438D807C7
:1052D000B1F78EE595E0DF91CF911F910F91089581
:1052E0008F929F92AF92BF920F931F93CF93DF93B2
:1052F000CDB7DEB7A1970FB6F894DEBF0FBECDBF16
:1053000019A2423008F44AE08E010F5D1F4F842E2F
:10531000912CA12CB12CA50194010E940D35E62FF2
:10532000B901CA0101501109EA3014F4E05D01C06D
:10533000E95CD801EC93232B242B252B61F7B801D2
:1053400084E895E00E946E26A1960FB6F894DEBF21
:105350000FBECDBFDF91CF911F910F91BF90AF9046
:105360009F908F900895CF93DF93AB01672B61F4EB
:10537000E0918405F09185050190F081E02D682F82
:1053800084E895E0099506C0682F70E080E090E021
:105390000E947029EC0184E895E00E9483268C0F1E
:1053A0009D1FDF91CF910895CF92DF92EF92FF92F0
:1053B000CF93DF936C01990FEE08FF08F7FE1AC038
:1053C000E0918405F09185050190F081E02D6DE27A
:1053D00084E895E00995EC0166277727CB016C19E5
:1053E0007D098E099F094AE00E9470297C01EC0E1C
:1053F000FD1E06C04AE0C701B6010E9470297C016B
:1054000084E895E00E9483268E0D9F1DDF91CF9149
:10541000FF90EF90DF90CF9008950F931F93CF935D
:10542000DF93FC01248135812115310519F4FB013D
:10543000108211C0EA0121972C173D0708F4E901F9
:105440008B01FC0160817181AE01C8010E949B3714
:10545000C00FD11F1882DF91CF911F910F91089536
:105460000F931F93CF938C0180915D0581110AC02A
:105470000E94A8166093590570935A0580935B05A6
:1054800090935C05C1E0C0935D05B80187E596E0A7
:105490000E942125C093580510925705CF911F9166
:1054A0000F910895CF93DF9300D0CDB7DEB78983F6
:1054B0001A8241E050E0BE016F5F7F4F8BE496E0BF
:1054C0000E9457240F900F90DF91CF910895CF93B2
:1054D000DF93CDB7DEB7AB970FB6F894DEBF0FBE44
:1054E000CDBF789484B5826084BD84B5816084BD6D
:1054F00085B5826085BD85B5816085BD80916E0072
:10550000816080936E0010928100809181008260A2
:1055100080938100809181008160809381008091DF
:1055200080008160809380008091B10084608093CE
:10553000B1008091B00081608093B00080917A00CA
:10554000846080937A0080917A00826080937A00F0
:1055500080917A00816080937A0080917A008068DF
:1055600080937A001092C1000E942E291092CE03DF
:105570001092CF0310928403109283031092AD0314
:1055800081E08093AC031092A70361E082E10E9466
:10559000021661E083E10E9402168091B9008E7FBD
:1055A0008093B9008091B9008D7F8093B90088E421
:1055B0008093B80085E48093BC0068E774E084E8D9
:1055C00095E00E94992669E674E084E895E00E94DF
:1055D000992664EC79E080E090E00E946E1680E409
:1055E00080937C0080917A00806480937A0080911F
:1055F0007A0086FDFCCF609178008091790070E0A0
:10560000782B072E000C880B990B6115710581050D
:10561000910511F00E94EE330E94EA1E0E94591E6D
:105620000E94932082E690E00E940327813009F4D3
:1056300052C062E474E084E895E00E9499260CE28E
:1056400011E06FEFC8010E94B5196AE070E080E0D8
:1056500090E00E946E160F5F1F4F0D3C21E0120775
:1056600081F768E274E084E895E00E9499260E9440
:10567000722707E011E059E1A52E51E0B52EF8019F
:10568000C388D4887801C01AD10AC6018E0D9F1D27
:10569000F70161917F019A838983CE0101960E946F
:1056A000FB20EA14FB0489F7F80183899489F70148
:1056B000608187960E94B5190B5E1F4F5701F5E177
:1056C000AF0EB11C21E00F3A1207C9F661E082E685
:1056D00090E00E94B5190E94D22761E08AE00E9402
:1056E000321661E08CE00E94321661E08BE00E948D
:1056F000321661E08AE00E94021661E08CE00E94AE
:10570000021661E08BE00E94021660E08AE00E94CF
:10571000021664EF71E080E090E00E946E1661E096
:105720008AE00E94021660E08CE00E94021664EF9C
:1057300071E080E090E00E946E1661E08CE00E94D3
:10574000021660E08BE00E94021664EF71E080E0D8
:1057500090E00E946E1661E08BE00E94021660E00D
:1057600086E00E94321660E08EE00E94321660E011
:1057700087E00E94321660E08FE00E94321660E0FF
:1057800080E10E94321661E084E00E94321660E0FF
:1057900084E00E94021661E085E00E94321661E01A
:1057A00085E00E9402160E94711C65E674E084E8A0
:1057B00095E00E94992669E376E084E895E00E94EE
:1057C000872680910101882369F00E9472273EEAB2
:1057D000632E33E0732E48EE242E43E0342E412C0A
:1057E000512C8FC068E574E084E895E00E9499260A
:1057F00019E00E940B1C1150E1F7E7CF113009F4BA
:105800000CC286E00E94D915809316041091B40151
:10581000113009F050C2811144C261E08CE00E9455
:1058200002160E94A816C0901204D0901304E090B3
:105830001404F09015049B01AC012C193D094E098C
:105840005F0969017A0135E6C316D104E104F10468
:1058500008F013C20E94A816C0901804D090190432
:10586000E0901A04F0901B049B01AC012C193D0937
:105870004E095F0969017A014091AF015091B00171
:1058800028EE33E0429FC001439F900D529F900D40
:105890001124A0E0B0E08C159D05AE05BF0508F40D
:1058A0001AC2112309F417C286E00E94D915809309
:1058B0001604882309F418C280911604813009F473
:1058C00046C28091E303813009F454C28091E4031D
:1058D000813011F40E94C51980915D05813009F471
:1058E00093C28DE596E00E949E15892B09F0D9C2DE
:1058F00084E895E00E947521892B09F0C9C50E94B2
:10590000152280918603813039F0823009F05EC023
:105910008091B40181115AC08FE00E94D915182FCF
:1059200080930E0480E10E94D91580930401113008
:10593000A1F480910301811110C01093030168EC60
:1059400070E080E090E00E946E160E940B1C1093A5
:10595000850310920B040E94FC1B809104018111AD
:1059600015C080910201811111C011E01093020154
:1059700068EC70E080E090E00E946E160E940B1CC4
:105980001093850310920B040E94FC1B80910E045F
:1059900081110CC080910301882341F01092030112
:1059A00068EC70E080E090E00E946E168091040147
:1059B000813061F480910201882341F0109202014C
:1059C00068EC70E080E090E00E946E168091060125
:1059D000813031F48091B401813009F058C003C0A6
:1059E000823009F054C087E00E94D91580930F04DB
:1059F00081111DC080910501811119C081E0809342
:105A0000050164E670E080E090E00E946E1662EAB4
:105A100074E0CE0101960E94CF2541E060E0CE0106
:105A200001960E94CE18CE0101960E9471258091A8
:105A30000F048130E1F4809105018130C1F41092AE
:105A4000050164E670E080E090E00E946E166BE86D
:105A500074E0CE0101960E94CF2541E060E0CE01C6
:105A600001960E94CE18CE0101960E947125809168
:105A70000F04813061F480910501823041F410926D
:105A8000050164E670E080E090E00E946E1680916F
:105A9000E203811106C0109108041111AFCE61E03C
:105AA000E8C002ED13E08AED882E83E0982E97E09F
:105AB000A92E91E0B92EE12CF12CDD24D39425EC14
:105AC000C22E8091D0039091AD039111FCCFD09262
:105AD000AD03D092AC033FEF3093AB031092AA0317
