:100000000C9468040C9490040C9490040C943F1786
:100010000C943F170C943F170C9490040C9490048C
:100020000C9490040C9490040C9490040C94900400
:100030000C9490040C9490040C9490040C949004F0
:100040000C94C7150C9490040C94F1260C94CB26B8
:100050000C9490040C9490040C9490040C949004D0
:100060000C9411160C9490044572726F72206465A2
:100070006C6574696E672070686F6E653A202B003E
:1000800044656C6574652070686F6E653A202B005E
:10009000506175736554696D652069733A20004439
:1000A000656C61794265666F72654775617264203F
:1000B00069733A200044656C61794265666F7265C8
:1000C000416C61726D2069733A20005761746368F6
:1000D000506F77657254696D652069733A200052DC
:1000E000696E6754696D652069733A200053656EC7
:1000F000736F7220646174612073617665642E0091
:100100004572726F722073656E736F72206E756DBB
:10011000626572006661696C65642E00706173735C
:1001200065642E005465737420004661696C6564D3
:100130002063656C6C3A20004200454550524F4D9B
:100140003A20004E6F74207573652E0041362E00E4
:1001500053494D3830304C2E004D353930652E0026
:100160005265626F6F742E004175746F64657465BB
:1001700063742E002E204D6F64656D3A2000437528
:100180007272656E742049443A2000507265766937
:100190006F75732049443A200041542B4355534412
:1001A0003D312C2200534D532072656D6F7665648E
:1001B000003400302C340041542B434D47443D0063
:1001C0006F70656E00636C656172736D73006C6552
:1001D000646F00746573746F0067756172646F6635
:1001E000660067756172646F6E007061757365009B
:1001F0006D6F6E6579002E2000496E666F3A205053
:100200004952204F00696E666F00457874446576E8
:1002100069636554696D652069733A200065787477
:1002200064657669636574696D650068696768000F
:100230006C6F77006578746465766963656C657664
:10024000656C006D6F64656D6964007265626F6FE7
:1002500074006C69737470686F6E650069326373E3
:1002600063616E006D656D74657374006C697374A1
:1002700073656E736F72006C697374636F6E666919
:100280006700656469746D61696E70686F6E6500A2
:100290006564697473656E736F720044697361623B
:1002A0006C6564004F4E206D6F6465006E32004FC8
:1002B0004E2F4F4646206D6F6465006E31004775C6
:1002C00061726420627574746F6E3A2000677561A4
:1002D0007264627574746F6E6F006E32006E3100FE
:1002E00057617463682074686520706F7765722049
:1002F0004F007761746368706F7765726F00504963
:1003000052204F007069726F00536D73204F00735D
:100310006D736F005265656420537769746368205C
:100320004F00726565647377697463686F00726506
:1003300073657473656E736F720072657365746351
:100340006F6E66696700726573657470686F6E655D
:100350000066756C6C726573657400616C61726DBA
:1003600070696E74696D650072696E6774696D6538
:10037000007761746368706F77657274696D65008A
:1003800064656C61796265666F7265616C61726DDE
:100390000064656C61796265666F7265677561722C
:1003A0006400736C65657074696D650062616C6191
:1003B0006E63656E756D0064656C65746570686FFD
:1003C0006E650061646470686F6E650053696C658A
:1003D0006E74206D6F646521004F46462E004F4EAF
:1003E0002E0047534D20416C61726D2031372E3005
:1003F000382E3033202D204F6E6520796561722EA6
:100400002E2E00506F77657220737570706C792096
:10041000726573746F72656400506F7765722073D4
:100420007570706C7920646973636F6E6E65637448
:10043000656420004D61696E2073656E736F722173
:10044000005049522073656E736F722100206D69F0
:100450006E757465732061676F003B004154442BD7
:1004600000416C61726D2052696E673A202B00501A
:1004700072696D6172792070686F6E653A202B0029
:1004800041542B435553443D300055535344207140
:10049000756572793A20002B435553443A00534D09
:1004A000532066726F6D3A202B002C22002C2C00FA
:1004B0002B434D543A0052696E672066726F6D3A55
:1004C000202B002C0052494E470053656E736F720B
:1004D00020646174613A0041542B43485550002216
:1004E0000041542B434D47533D22004775617264D0
:1004F000204F4E2E0000000000240027002A00009C
:1005000000000800020100000304070000000000D2
:100510000000004C656E67746820746F207265740B
:1005200075726E3A200042616C616E6365206E7573
:100530006D6265723A20004C6F616420646566618B
:10054000756C742062616C616E63652064617461B6
:100550002E0044656C6574652062616C616E636534
:1005600020646174612E00416C61726D496E746526
:100570007276616C2069733A20004C6F616420646C
:10058000656661756C742070686F6E652064617457
:10059000612E0044656C6574696E672070686F6ECB
:1005A0006520646174612E00690070007200730040
:1005B00050686F6E6500E284960052656164206148
:1005C000727261792070686F6E653A004175746F60
:1005D000646574656374004D6F64656D49443A20C9
:1005E0000045787444657669636554696D653A20A1
:1005F000004578744465766963654C6576656C3A48
:10060000200044656C61794265666F7265416C617A
:10061000726D3A200044656C61794265666F72655F
:1006200047756172643A200047756172644275745F
:10063000746F6E3A20005761746368506F7765720B
:1006400054696D653A20005761746368506F77652F
:10065000723A200050495247756172643A20005244
:1006600065656453776974636847756172643A209D
:1006700000416C61726D50696E54696D653A20007D
:10068000536C65657054696D653A200047756172F9
:10069000643A20004C65643A2000546573743A2033
:1006A0000052696E6754696D653A200053656E6447
:1006B000536D733A20005265616420656570726FF6
:1006C0006D636F6E6669673A004C6F6164206465A4
:1006D0006661756C7420656570726F6D636F6E66B0
:1006E000696720646174612E0044656C6574696E8D
:1006F0006720656570726F6D636F6E6669672064F1
:100700006174612E0041544530004154453100412F
:10071000542B434E4D493D322C320041542B435310
:1007200043533D2247534D220041542B434D4746EE
:100730003D310041542B434C49503D3100446574D8
:100740006563746564204D6F64656D49443A2000AB
:1007500041360053494D383030004D353930004175
:100760005449004154004775617264204F46462E3B
:100770000020427574746F6E002050686F6E6520A3
:100780002B0020436F6E736F6C650050686F6E6551
:100790002061646465642E0050686F6E6520616C32
:1007A00072656164792065786973747320696E205D
:1007B0007468652063656C6C3A20004572726F72D4
:1007C0002C2077726F6E67206E756D626572206F78
:1007D000662063656C6C732E004572726F722C20FC
:1007E00066697273742072656769737465722061DB
:1007F000207072696D6172792070686F6E652E006D
:1008000050686F6E652073657474696E67732063DA
:1008100068616E6765642E004932432064657669BD
:10082000636573206E6F7420666F756E64003000B0
:100830004572726F7220617420307800646574654F
:1008400063746564205043463835373400300049BE
:1008500032432064657669636520617420307800D6
:100860004C6F61642064656661756C742073656E9D
:10087000736F7220646174612E0044656C657469E5
:100880006E672073656E736F7220646174612E00F1
:1008900000000000250028002B00000000002300BD
:1008A00026002900040404040404040402020202D1
:1008B0000202030303030303010204081020408023
:1008C000010204081020010204081020713535359A
:1008D00011241FBECFEFD8E0DEBFCDBF13E0A0E0F4
:1008E000B1E0E6E2F5E702C005900D92A034B10751
:1008F000D9F726E0A0E4B3E001C01D92A438B20706
:10090000E1F714E0C7E6D4E004C02197FE010E949D
:100910002838C636D107C9F70E94842C0C94863A31
:100920000C940000AF92BF92CF92DF92EF92FF92B1
:100930000F931F93CF93DF93CDB7DEB7E0970FB63A
:10094000F894DEBF0FBECDBF80910004813031F43A
:1009500065E576E088E895E00E94A72669E173E006
:10096000CE0142960E94012662EE72E0CE0101960F
:100970000E940126AE014E5E5F4FBE016F5F7F4F4A
:1009800085E596E00E94B422CE0101960E9465257D
:10099000CE0142960E94652569E173E0CE01429640
:1009A0000E94012668E173E0CE0101960E940126B3
:1009B000AE014E5E5F4FBE016F5F7F4F85E596E0F3
:1009C0000E94B422CE0101960E946525CE01429676
:1009D0000E946525009155061091560601151105D6
:1009E00039F480910404813011F00C947C100DC016
:1009F000F80180818823A9F3082E000C990B0E942E
:100A00002A3AF80181938F01F3CF63EC73E0CE01B2
:100A100001960E94EF25BE016F5F7F4F85E596E04E
:100A20000E94B9238C01CE0101960E94652517FD15
:100A30000FC065E576E0CE0101960E94F82561E0E1
:100A4000CE0101960E949C28CE0101960E94652548
:100A500067EB73E0CE0101960E94EF25BE016F5F48
:100A60007F4F85E596E00E94B9238C01CE01019667
:100A70000E94652517FD0EC165E576E0CE018496DE
:100A80000E94F82564EE72E0CE0142960E94012693
:100A9000BE016E5E7F4FCE0184960E94AF234AE076
:100AA000BC01CE0101960E949625CE0101960E94BE
:100AB000A922AB014F5F5F4FBE016C5D7F4FCE013E
:100AC0004E960E94EC20CE0101960E946525CE0133
:100AD00042960E94652569E173E0CE0101960E946D
:100AE000012666EE72E0CE0142960E940126AE011A
:100AF0004F5F5F4FBE016E5E7F4FCE014E960E94EC
:100B0000B422CE0142960E946525CE0101960E9434
:100B100065256BEE72E0CE0142960E940126BE0171
:100B20006E5E7F4FCE014E960E94AF234AE0BC011D
:100B3000CE0101960E949625CE0101960E94A9221F
:100B4000AB014F5F5F4FBE01625E7F4FCE014896A3
:100B50000E94EC20CE0101960E946525CE014296AE
:100B60000E946525BE01685E7F4FCE0142960E94BD
:100B7000F82507EE11E021E03DE0F32E6E01F5E0EF
:100B8000CF0ED11C6FEE73E0F8018081918128AB0C
:100B90000E94BB17BC01CE0101960E940126BE0136
:100BA0006E5E7F4FCE0101960E94D323E82ECE01C8
:100BB00001960E94652528A9EE2009F441C01982FA
:100BC0001A821B821C82F6012F2D11922A95E9F7B9
:100BD000BE016F5F7F4FF801808191810E94E11714
:100BE000F8018081918160E043960E941418F80119
:100BF0008081918160E044960E941418F801808100
:100C0000918160E045960E941418F80180819181DD
:100C100060E046960E94141860E870E088E895E06D
:100C20000E946A26BE016E5E7F4F88E895E00E94B2
:100C3000A7260E9423270E94EA1C0E94011B20E095
:100C4000095E1F4FF2E0063B1F0709F09BCF2130E2
:100C500089F468E670E088E895E00E946A26BE01A3
:100C60006E5E7F4F88E895E00E94A7260E942327AA
:100C70000E94191BCE0142960E946525CE0148961E
:100C80000E946525CE014E960E946525CE01849670
:100C90000E9465256CEA73E0CE0101960E94EF2563
:100CA000BE016F5F7F4F85E596E00E94B9238C01FE
:100CB000CE0101960E94652517FDB5C064EE72E075
:100CC000CE0101960E940126BE016F5F7F4F85E530
:100CD00096E00E94AF234AE0BC01CE0142960E94FA
:100CE0009625CE0142960E94A922AB014F5F5F4F2D
:100CF00065E576E0CE0148960E94EC20CE01429652
:100D00000E946525CE0101960E9465256DEE72E078
:100D1000CE0101960E940126BE016F5F7F4FCE017A
:100D200048960E94B9234AE0BC01CE014E960E942B
:100D30009625CE014E960E94A9229B0140E050E0EC
:100D4000BE01685E7F4FCE0142960E941626CE01FC
:100D50004E960E946525CE0101960E9465256DEE96
:100D600072E0CE014E960E940126BE01625E7F4F68
:100D700085E596E00E94AF234AE0BC01CE0184964F
:100D80000E949625CE0184960E94A922AB014F5F56
:100D90005F4F65E576E0CE0101960E94EC20CE0122
:100DA00084960E946525CE014E960E946525CE014F
:100DB00001960E94A922162FBE016E5E7F4FCE01C2
:100DC0004E960E94F82541E150E060E473E0CE01C8
:100DD0004E960E94252C60E473E08EE190E00E9424
:100DE000E117612F80E390E00E94141861E081E335
:100DF00090E00E9414180E94642088E895E00E9408
:100E0000A3260E94011BCE014E960E946525CE01AD
:100E100001960E946525CE0142960E946525CE016D
:100E200048960E94652562EA73E0CE0101960E9411
:100E3000EF25BE016F5F7F4F85E596E00E94B923E5
:100E40008C01CE0101960E94652517FD67C064EEF6
:100E500072E0CE0101960E940126BE016F5F7F4FB6
:100E600085E596E00E94AF234AE0BC01CE0148969A
:100E70000E949625CE0148960E94A922AB014F5FA1
:100E80005F4F65E576E0CE0142960E94EC20CE01F0
:100E900048960E946525CE0101960E946525BE01F7
:100EA0006E5E7F4FCE0101960E94F825CE0101961D
:100EB0000E94A922DC01CB010197A109B109CC97BD
:100EC000A105B10510F00C948412CE0101960E9488
:100ED000A922162F8FE090E00E941418612F70E075
:100EE000709302016093010160E970E088E895E089
:100EF0000E946A268FE090E00E9424186AE070E069
:100F00000E94B32B0E9423270E94011BCE01019651
:100F10000E946525CE0142960E94652561E973E035
:100F2000CE0101960E94EF25BE016F5F7F4F85E5E0
:100F300096E00E94B9238C01CE0101960E9465259E
:100F400017FD60C064EE72E0CE0101960E9401269A
:100F5000BE016F5F7F4F85E596E00E94AF234AE0B8
:100F6000BC01CE0148960E949625CE0148960E946B
:100F7000A922AB014F5F5F4F65E576E0CE01429657
:100F80000E94EC20CE0148960E946525CE01019674
:100F90000E946525BE016E5E7F4FCE0101960E94C4
:100FA000F825CE0101960E94A9226F3F71058105A7
:100FB000910519F010F00C949A12CE0101960E943E
:100FC000A922162F85E190E00E94141810932004A6
:100FD0006FE970E088E895E00E946A2685E190E07C
:100FE0000E9424186AE070E00E94B32B0E9423271D
:100FF0000E94011BCE0101960E946525CE014296FA
:101000000E94652560E873E0CE0101960E94EF25FD
:10101000BE016F5F7F4F85E596E00E94B9238C018A
:10102000CE0101960E94652517FD60C064EE72E056
:10103000CE0101960E940126BE016F5F7F4F85E5BC
:1010400096E00E94AF234AE0BC01CE0148960E9480
:101050009625CE0148960E94A922AB014F5F5F4FB3
:1010600065E576E0CE0142960E94EC20CE014896DE
:101070000E946525CE0101960E946525BE016E5E27
:101080007F4FCE0101960E94F825CE0101960E9465
:10109000A9226F3F71058105910519F010F00C949C
:1010A000AE12CE0101960E94A922162F86E190E091
:1010B0000E9414181093DA0365EB70E088E895E05D
:1010C0000E946A2686E190E00E9424186AE070E09F
:1010D0000E94B32B0E9423270E94011BCE01019680
:1010E0000E946525CE0142960E94652561E773E066
:1010F000CE0101960E94EF25BE016F5F7F4F85E50F
:1011000096E00E94B9238C01CE0101960E946525CC
:1011100017FD60C064EE72E0CE0101960E940126C8
:10112000BE016F5F7F4F85E596E00E94AF234AE0E6
:10113000BC01CE0148960E949625CE0148960E9499
:10114000A922AB014F5F5F4F65E576E0CE01429685
:101150000E94EC20CE0148960E946525CE010196A2
:101160000E946525BE016E5E7F4FCE0101960E94F2
:10117000F825CE0101960E94A9226F3F71058105D5
:10118000910519F010F00C94C212CE0101960E9444
:10119000A922162F87E190E00E9414181093D9031A
:1011A0006BEC70E088E895E00E946A2687E190E0A9
:1011B0000E9424186AE070E00E94B32B0E9423274B
:1011C0000E94011BCE0101960E946525CE01429628
:1011D0000E94652568E673E0CE0101960E94EF2526
:1011E000BE016F5F7F4F85E596E00E94B9238C01B9
:1011F000CE0101960E94652517FD68C064EE72E07D
:10120000CE0101960E940126BE016F5F7F4F85E5EA
:1012100096E00E94AF234AE0BC01CE0148960E94AE
:101220009625CE0148960E94A922AB014F5F5F4FE1
:1012300065E576E0CE0142960E94EC20CE0148960C
:101240000E946525CE0101960E946525BE016E5E55
:101250007F4FCE0101960E94F825CE0101960E9493
:10126000A922DC01CB010A97A109B109863F9105AA
:10127000A105B10510F00C94D612CE0101960E9482
:10128000A922162F88E190E00E941418612F70E0C7
:101290007093BA016093B9016FED70E088E895E052
:1012A0000E946A2688E190E00E9424186AE070E0BB
:1012B0000E94B32B0E9423270E94011BCE0101969E
:1012C0000E946525CE0142960E9465256BE573E07C
:1012D000CE0101960E94EF25BE016F5F7F4F85E52D
:1012E00096E00E94B9238C01CE0101960E946525EB
:1012F00017FD4EC064EE72E0CE0101960E940126F9
:10130000BE016F5F7F4F85E596E00E94AF234AE004
:10131000BC01CE0148960E949625CE0148960E94B7
:10132000A922AB014F5F5F4F65E576E0CE014296A3
:101330000E94EC20CE0148960E946525CE010196C0
:101340000E946525BE016E5E7F4FCE0101960E9410
:10135000F825CE0101960E94A922DC01CB0101975C
:10136000A109B109803C984AA105B10510F00C947F
:10137000EC12CE0101960E94A922CB010E94571EB9
:10138000CE0101960E946525CE0142960E946525F8
:1013900061E573E0CE0101960E94EF25BE016F5F0B
:1013A0007F4F85E596E00E94B9238C01CE0101961E
:1013B0000E94652517FD1AC06FEF80E090E00E9443
:1013C00014180E947B1E6FEF83E690E00E941418B1
:1013D0000E94F11D6FEF81E390E00E9414180E94BB
:1013E00064200E94011BE0E0F0E0099566E473E0F0
:1013F000CE0101960E94EF25BE016F5F7F4F85E50C
:1014000096E00E94B9238C01CE0101960E946525C9
:1014100017FD0CC06FEF83E690E00E9414180E9445
:10142000F11D0E94011BE0E0F0E009956AE373E022
:10143000CE0101960E94EF25BE016F5F7F4F85E5CB
:1014400096E00E94B9238C01CE0101960E94652589
:1014500017FD0CC06FEF80E090E00E9414180E940E
:101460007B1E0E94011BE0E0F0E009956EE273E054
:10147000CE0101960E94EF25BE016F5F7F4F85E58B
:1014800096E00E94B9238C01CE0101960E94652549
:1014900017FD0CC06FEF82E690E00E9414180E94C6
:1014A00027270E94011BE0E0F0E0099562E273E06B
:1014B000CE0101960E94EF25BE016F5F7F4F85E54B
:1014C00096E00E94B9238C01CE0101960E94652509
:1014D00017FD4EC064E173E081E396E00E94D624DC
:1014E0006FEE72E0CE0101960E940126BE016F5F91
:1014F0007F4F85E596E00E94B9238C01CE010196CD
:101500000E94652517FD06C081E08093B50181EF3B
:1015100092E004C01092B50183EF92E00E94732C18
:101520006091B5018BE090E00E9414188091030453
:101530008130F1F46BEE72E0CE0101960E9401263B
:1015400069E476E0CE0101960E948A24BC01CE01B6
:1015500042960E94F82560E0CE0142960E9426182D
:10156000CE0142960E946525CE0101960E94652516
:101570006FE073E0CE0101960E94EF25BE016F5F20
:101580007F4F85E596E00E94B9238C01CE0101963C
:101590000E94652517FD73C069E073E081E396E062
:1015A0000E94D6246FEE72E0CE0101960E940126C1
:1015B000BE016F5F7F4F85E596E00E94B9238C01E5
:1015C000CE0101960E94652517FD2BC081E0809316
:1015D000030181EF92E00E94732C8091030481301B
:1015E00009F047C06BEE72E0CE0101960E94012621
:1015F00069E476E0CE0101960E948A24BC01CE0106
:1016000042960E94F82560E0CE0142960E9426187C
:10161000CE0142960E946525CE0101960E94652565
:1016200028C083EF92E00E94732C809103048130E4
:10163000F1F46BEE72E0CE0101960E94012669E49E
:1016400076E0CE0101960E948A24BC01CE0142962A
:101650000E94F82560E0CE0142960E942618CE0135
:1016600042960E946525CE0101960E946525109242
:101670000301609103018AE090E00E94141864E085
:1016800073E0CE0101960E94EF25BE016F5F7F4F90
:1016900085E596E00E94B9238C01CE0101960E9457
:1016A000652517FD4EC06EEF72E081E396E00E9463
:1016B000D6246FEE72E0CE0101960E940126BE0193
:1016C0006F5F7F4F85E596E00E94B9238C01CE01C4
:1016D00001960E94652517FD06C081E08093D7031F
:1016E00081EF92E004C01092D70383EF92E00E9452
:1016F000732C6091D70382E190E00E9414188091CE
:1017000003048130F1F46BEE72E0CE0101960E9489
:10171000012669E476E0CE0101960E948A24BC018C
:10172000CE0142960E94F82560E0CE0142960E94CA
:101730002618CE0142960E946525CE0101960E9490
:10174000652562EF72E0CE0101960E94EF25BE0191
:101750006F5F7F4F85E596E00E94B9238C01CE0133
:1017600001960E94652517FD69C060EE72E081E375
:1017700096E00E94D6246DED72E0CE0101960E94A3
:10178000EF25BE016F5F7F4F85E596E00E94B9238C
:101790008C01CE0101960E94652517FD07C081E0EE
:1017A0008093090181EF92E00E94732C6AED72E050
:1017B000CE0101960E94EF25BE016F5F7F4F85E548
:1017C00096E00E94B9238C01CE0101960E94652506
:1017D00017FD06C082E08093090181EF92E004C00A
:1017E0001092090183EF92E00E94732C609109012D
:1017F00083E190E00E941418809103048130F1F499
:101800006BEE72E0CE0101960E94012669E476E05B
:10181000CE0101960E948A24BC01CE0142960E940C
:10182000F82560E0CE0142960E942618CE0142962D
:101830000E946525CE0101960E9465256DEC72E03F
:10184000CE0101960E94EF25BE016F5F7F4F85E5B7
:1018500096E00E94B9238C01CE0101960E94652575
:1018600017FD6DC06EEB72E081E396E00E94D62416
:101870006BEB72E0CE0101960E94EF25BE016F5F17
:101880007F4F85E596E00E94B9238C01CE01019639
:101890000E94652517FD09C081E080937A036FEAF5
:1018A00072E081E396E00E9405246CEA72E0CE01CA
:1018B00001960E94EF25BE016F5F7F4F85E596E0A0
:1018C0000E94B9238C01CE0101960E94652517FD67
:1018D00006C082E080937A0364EA72E004C010924A
:1018E0007A036BE972E081E396E00E94052460913F
:1018F0007A0384E190E00E941418809103048130FF
:10190000F1F46BEE72E0CE0101960E94012669E4CB
:1019100076E0CE0101960E948A24BC01CE01429657
:101920000E94F82560E0CE0142960E942618CE0162
:1019300042960E946525CE0101960E94652560E9C8
:1019400072E0CE0101960E94EF25BE016F5F7F4FCE
:1019500085E596E00E94B9238C01CE0101960E9494
:10196000652517FD26C165E576E0CE018A960E94C1
:10197000F82564EE72E0CE0142960E940126BE0177
:101980006E5E7F4FCE018A960E94AF234AE0BC0173
:10199000CE0101960E949625CE0101960E94A922B1
:1019A000AB014F5F5F4FBE01665D7F4FCE018496F6
:1019B0000E94EC20CE0101960E946525CE01429640
:1019C0000E94652566EF72E0CE0101960E94012615
:1019D000BE016F5F7F4FCE0184960E94B923092F0D
:1019E000CE0101960E94652569E173E0CE01019662
:1019F0000E94012666EF72E0CE0142960E94012607
:101A0000AE014F5F5F4FBE016E5E7F4FCE01849689
:101A10000E94B422CE0142960E946525CE01019615
:101A20000E9465256BEE72E0CE0142960E9401266F
:101A3000BE016E5E7F4FCE0184960E94B9234AE0BC
:101A4000BC01CE0101960E949625CE0101960E940E
:101A5000A9229B0140E050E0BE016C5D7F4FCE01AA
:101A60004E960E941626CE0101960E946525CE0153
:101A700042960E9465256BEE72E0CE0142960E946E
:101A80000126BE016E5E7F4FCE0184960E94AF2379
:101A90004AE0BC01CE0101960E949625CE01019636
:101AA0000E94A922AB014F5F5F4FBE016C5D7F4F6B
:101AB000CE0148960E94EC20CE0101960E94652539
:101AC000CE0142960E946525CE014E960E94A92223
:101AD000162FBE01685E7F4FCE0101960E94F82549
:101AE0001150183048F060E071E088E895E00E94FD
:101AF000B9260E94191B45C046E250E061E573E03B
:101B0000CE0101960E94252CC12ED12C25E1129FD9
:101B1000F0011124E65FFE4F8389948921E5E22ECE
:101B200023E0F22EFC01E155F3405F01C5018E0D6B
:101B30009F1DF70161917F019B8B8A8BCE0142969D
:101B40000E94CC20F7E7EF16F3E0FF0679F7602F4D
:101B50006095661F6627661F85E18C9DF0018D9D4F
:101B6000F00D1124E65FFE4F8389948987960E94C9
:101B700014186DEE70E088E895E00E94B9260E9486
:101B8000011B0E9423270E94D019CE0101960E94BA
:101B90006525CE0148960E946525CE014E960E948D
:101BA0006525CE0184960E946525CE018A960E9405
:101BB000652562E872E0CE0101960E94EF25BE0124
:101BC0006F5F7F4F85E596E00E94B9238C01CE01BF
:101BD00001960E94652517FD0FC065E576E0CE01F0
:101BE00001960E94F82562E0CE0101960E949C2891
:101BF000CE0101960E94652567E772E0CE0101964D
:101C00000E94EF25BE016F5F7F4F85E596E00E9441
:101C1000B9238C01CE0101960E94652517FD04C0F1
:101C20000E947B1E0E9464206CE672E0CE01019649
:101C30000E94EF25BE016F5F7F4F85E596E00E9411
:101C4000B9238C01CE0101960E94652517FF0E94E1
:101C5000D01964E672E0CE0101960E94EF25BE0124
:101C60006F5F7F4F85E596E00E94B9238C01CE011E
:101C700001960E94652517FD84C00E94AB362DEFAA
:101C800030E040E050E00E94663782E0D82ED60E69
:101C90006AE371E088E895E00E946A264AE060E025
:101CA00074E080E090E00E94702B68E371E088E8C7
:101CB00095E00E94B92600E010E06D2DC8010E9459
:101CC000583765E070E080E090E00E9481150F5F7A
:101CD0001F4F011524E0120781F7E12CF12C00E0E1
:101CE00010E0C8010E9424188D1529F16AE271E004
:101CF00088E895E00E946A26C8010E942418C82E30
:101D00004AE0B801CE0101960E946A256DE376E0B3
:101D1000CE0101960E948A246C2D0E94C824BC0129
:101D200088E895E00E94A726CE0101960E946525CD
:101D30003FEFE31AF30A65E070E080E090E00E9474
:101D400081150F5F1F4F011584E0180751F664E2FB
:101D500071E088E895E00E946A26E114F10409F038
:101D600051C46CE171E088E895E00E94B9260E94B8
:101D7000232764EF71E080E090E00E948115F70175
:101D800009956CE572E0CE0101960E94EF25BE0137
:101D90006F5F7F4F85E596E00E94B9238C01CE01ED
:101DA00001960E94652517FF0E949A2762E572E05E
:101DB000CE0101960E94EF25BE016F5F7F4F85E542
:101DC00096E00E94B9238C01CE0101960E94652500
:101DD00017FF0E94EA1C6BE472E0CE0101960E949C
:101DE000EF25BE016F5F7F4F85E596E00E94B92326
:101DF0008C01CE0101960E94652517FD09C064EF94
:101E000071E080E090E00E948115E0E0F0E009954B
:101E100063E472E0CE0101960E94EF25BE016F5F80
:101E20007F4F85E596E00E94B9238C01CE01019693
:101E30000E94652517FD99C064EE72E0CE014296BE
:101E40000E940126BE016E5E7F4F85E596E00E94EE
:101E5000AF234AE0BC01CE0148960E949625CE01F0
:101E600048960E94A922AB014F5F5F4F65E576E07F
:101E7000CE0101960E94EC20CE0148960E94652575
:101E8000CE0142960E946525CE0101960E94A922AC
:101E90006B3071058105910508F0BBC3CE01019639
:101EA0000E94A922162F6BE871E088E895E00E9455
:101EB0006A2680910504082E000C990B0E940D2CB7
:101EC000612F89E190E00E941418109305046EE7D9
:101ED00071E088E895E00E946A2660910504062E6C
:101EE000000C770B880B990B97FF03C00E94E62B21
:101EF00003C04AE00E94702B64E771E088E895E037
:101F00000E946A26111116C068E671E088E895E023
:101F10000E94B92660E671E088E895E00E94B92643
:101F200064EF71E080E090E00E948115E0E0F0E075
:101F3000099515C0113019F469E571E00CC0123033
:101F400019F460E571E007C0133019F46CE471E036
:101F500002C063E471E088E895E00E94B9260E941F
:101F60002327CE0101960E94652564E372E0CE012D
:101F700001960E94EF25BE016F5F7F4F85E596E0D9
:101F80000E94B9238C01CE0101960E94652517FDA0
:101F90003BC060E372E0CE0101960E94EF25BE01D6
:101FA0006F5F7F4F85E596E00E94B9238C01CE01DB
:101FB00001960E94652517FD05C060E08AE190E06A
:101FC0000E9414186BE272E0CE0101960E94EF2588
:101FD000BE016F5F7F4F85E596E00E94B9238C01BB
:101FE000CE0101960E94652517FD05C061E08AE1DA
:101FF00090E00E94141864EF71E080E090E00E948D
:102000008115E0E0F0E009956DE172E0CE01019606
:102010000E94EF25BE016F5F7F4F85E596E00E942D
:10202000B9238C01CE0101960E94652517FD62C07F
:1020300064EE72E0CE0101960E940126BE016F5F40
:102040007F4F85E596E00E94AF234AE0BC01CE01B8
:1020500048960E949625CE0148960E94A922AB017F
:102060004F5F5F4F65E576E0CE0142960E94EC201F
:10207000CE0148960E946525CE0101960E946525F5
:10208000BE016E5E7F4FCE0101960E94F825CE0103
:1020900001960E94A9226F3F71058105910511F0FB
:1020A00008F0CDC2CE0101960E94A9228BE190E0FA
:1020B0000E941418CE0101960E94A922609300018B
:1020C0006AE072E088E895E00E946A268BE190E081
:1020D0000E9424186AE070E00E94B32B0E9423271C
:1020E0000E94011BCE0101960E946525CE014296F9
:1020F0000E9465251092040465E072E0CE0101960D
:102100000E94EF25BE016F5F7F4F85E596E00E943C
:10211000B9238C01CE0101960E94652517FD55C09B
:1021200069EF71E081E396E00E94D6248091D703A5
:10213000811103C083EF92E002C081EF92E00E9420
:10214000732C66EF71E081E396E00E9405244091D4
:10215000470650914806609143067091440681E31A
:1021600096E00E94432460ED77E080E090E00E94DA
:102170008115809103048130F1F46BEE72E0CE01A1
:1021800001960E94012669E476E0CE0101960E9444
:102190008A24BC01CE0142960E94F82561E0CE015E
:1021A00042960E942618CE0142960E946525CE01D5
:1021B00001960E94652580910004813031F461E32D
:1021C00076E088E895E00E94A72660EF71E0CE01F6
:1021D00001960E94EF25BE016F5F7F4F85E596E077
:1021E0000E94B9238C01CE0101960E94652517FD3E
:1021F00022C080910004813011F48093020468EEC3
:1022000073E080E090E00E94811569E971E081E669
:1022100096E00E946A266BE576E081E696E00E94F1
:102220005C2669EF72E081E696E00E948E2681E6E8
:1022300096E00E94A3266AEE71E0CE0101960E940C
:10224000EF25BE016F5F7F4F85E596E00E94B923C1
:102250008C01CE0101960E94652517FD12C060E039
:102260008BE00E9415152091010130910201A0E63A
:10227000BAEE0E94F1370E94811561E08BE00E9466
:10228000151562EE71E0CE0101960E94EF25BE01A8
:102290006F5F7F4F85E596E00E94B9238C01CE01E8
:1022A00001960E94652517FD04C0809100040E94DC
:1022B000DF1A69ED71E0CE0101960E94EF25BE01A3
:1022C0006F5F7F4F85E596E00E94B9238C01CE01B8
:1022D00001960E94652517FD0CC080910004813095
:1022E00011F4809302041092D803109261050E94A9
:1022F0004F1A63ED71E0CE0101960E94EF25BE01F9
:102300006F5F7F4F85E596E00E94B9238C01CE0177
:1023100001960E94652517FD2AC06FEE72E0CE017E
:1023200001960E940126BE016F5F7F4F85E596E012
:102330000E94B9238C01CE0101960E94652517FDEC
:1023400009C081E08093010461E08CE090E00E948C
:1023500014180BC01092010460E08CE090E00E9421
:10236000141861E08BE00E9415150E94611B6EEC51
:1023700071E0CE0101960E94EF25BE016F5F7F4F95
:1023800085E596E00E94B9238C01CE0101960E945A
:10239000652517FD29C06FEE72E0CE0101960E94FF
:1023A0000126BE016F5F7F4F85E596E00E94B9234D
:1023B0008C01CE0101960E94652517FD0AC081E0BF
:1023C0008093B60161E08DE090E00E94141860E017
:1023D00008C01092B60160E08DE090E00E941418F1
:1023E00061E08CE00E94151565EC71E0CE0101966C
:1023F0000E94EF25BE016F5F7F4F85E596E00E944A
:10240000B9238C01CE0101960E94652517FD23C0DA
:1024100067EB71E081E696E00E946A2680910504F0
:10242000813031F463EB71E081E696E00E94B926D9
:10243000809105048250823030F461EB71E081E6D6
:1024400096E00E94B92665EA71E088E895E00E946E
:10245000B9260E94011B60EC71E0CE0101960E943A
:10246000EF25BE016F5F7F4F85E596E00E94B9239F
:102470008C01CE0101960E94652517FD30C0809128
:1024800004018130A9F461E081E10E9415154091B9
:10249000000128EE33E04203B001439F700D112488
:1024A000072E000C880B990B0E94811560E014C068
:1024B00060E081E10E9415154091000128EE33E0B3
:1024C0004203B001439F700D1124072E000C880BAE
:1024D000990B0E94811561E081E10E94151510920F
:1024E000030410920004E0960FB6F894DEBF0FBE0E
:1024F000CDBFDF91CF911F910F91FF90EF90DF90B3
:10250000CF90BF90AF90089560910101709102014A
:102510004AE0CE0148960E946A25BE01685E7F4F60
:10252000CE0101960E942C25CE0148960E94652579
:102530000C9465074AE060912004CE0148960E9401
:10254000C225BE01685E7F4FCE0101960E942C25F8
:10255000CE0148960E9465250C94DD074AE0609103
:10256000DA03CE0148960E94C225BE01685E7F4F05
:10257000CE0101960E942C25CE0148960E94652529
:102580000C9451084AE06091D903CE0148960E940C
:10259000C225BE01685E7F4FCE0101960E942C25A8
:1025A000CE0148960E9465250C94C5086091B9013A
:1025B0007091BA014AE0CE0148960E946A25BE0198
:1025C000685E7F4FCE0101960E942C25CE01489671
:1025D0000E9465250C943D096091B2017091B30190
:1025E0004AE0CE0148960E946A25BE01685E7F4F90
:1025F000CE0101960E942C25CE0148960E946525A9
:102600000C94B90964E171E088E895E00E94B9266C
:10261000B8CB60910504062E000C770B4AE0CE0182
:1026200042960E949625BE016E5E7F4FCE010196B6
:102630000E942C25CE0142960E9465252FCC6091E8
:102640000001062E000C770B4AE0CE0148960E944E
:102650009625BE01685E7F4FCE0101960E942C2513
:10266000CE0148960E9465251DCD833081F028F467
:10267000813099F08230A1F008958730A9F0883038
:10268000B9F08430D1F4809180008F7D03C08091B7
:1026900080008F7780938000089584B58F7702C083
:1026A00084B58F7D84BD08958091B0008F7703C07D
:1026B0008091B0008F7D8093B00008953FB7F8946B
:1026C0008091560590915705A0915805B0915905F4
:1026D00026B5A89B05C02F3F19F00196A11DB11D7D
:1026E0003FBFBA2FA92F982F8827820F911DA11DB8
:1026F000B11DBC01CD0142E0660F771F881F991FF5
:102700004A95D1F7089585ED8093BC008091BC0077
:1027100084FDFCCF1092A103089540912C05262F33
:1027200030E0240F311D21323105DCF42091A1036A
:102730002430C9F4FC0180E090E0861758F4309111
:102740002C052191DC01A65FBA4FA30FB11D2C937C
:102750000196F3CF80912C05680F60932C0580E0E3
:10276000089581E0089582E008950895E091C203FC
:102770008091C303E81730F4F0E0EE55FC4F808100
:1027800090E008958FEF9FEF08959091C20380919C
:10279000C303981750F4E92FF0E0EE55FC4F208169
:1027A00030E09F5F9093C20302C02FEF3FEFC9015B
:1027B00008958091C30390E02091C203821B910988
:1027C0000895CF92DF92EF92FF920F931F93CF93D2
:1027D000DF937C01262F972F8A018091490488235B
:1027E00091F0C62FD72F6E01C40ED51ECC15DD0576
:1027F00071F06991D701ED91FC910190F081E02D8C
:10280000C7010995F3CF642F822F0E948D13C80151
:10281000DF91CF911F910F91FF90EF90DF90CF90BC
:102820000895CF93DF931F92CDB7DEB769832091D0
:1028300049042223D1F020917703203240F021E097
:1028400030E0FC013383228380E090E015C080916A
:102850007803E82FF0E0E75DFB4F998190838F5F6D
:10286000809378038093770305C061E0CE010196E1
:102870000E948D1381E090E00F90DF91CF91089539
:1028800020912704309128042817390771F490917A
:10289000260480912504981741F0E0912604F0E089
:1028A000E65BFB4F808190E008958FEF9FEF0895E6
:1028B00008951F93CF93DF93DC015C962D913C919B
:1028C0005D972115310539F481E090E013969C93D2
:1028D0008E9312973DC05196ED91FC915297509670
:1028E0009C915097892F80951FB75E964C915E976B
:1028F00041FB772770F941FD6095F894408177237B
:1029000011F0492B01C048234083E9012197F1F7D9
:1029100048E0508160FF02C0592B01C0582350830A
:10292000E9012197F1F76695415099F7772321F056
:1029300090818923808303C08081982B90831FBF5F
:102940005C968D919C915D970197F1F721E030E0C5
:10295000C901DF91CF911F910895209127043091F3
:1029600028042817390771F4809125042091260442
:1029700090E080549F4F821B910960EC70E00E94B0
:102980000038089580E090E0089520912704309168
:10299000280428173907C9F490912604809125044A
:1029A000981799F0E0912604F0E0E65BFB4F208158
:1029B0008091260490E0019660EC70E00E9400385F
:1029C00080932604822F90E008958FEF9FEF089563
:1029D000089580E090E00895CF93DF93282F30E0B2
:1029E000F901E150FB4F8491F901E854F74FD4917C
:1029F000F901EC55F74FC491CC2391F081110E945D
:102A00003513EC2FF0E0EE0FFF1FE656F74FA591C0
:102A1000B491EC91ED2381E090E021F480E002C0DC
:102A200080E090E0DF91CF9108951F93CF93DF93E3
:102A3000282F30E0F901E150FB4F8491F901E8546F
:102A4000F74FD491F901EC55F74FC491CC23C9F05D
:102A5000162F81110E943513EC2FF0E0EE0FFF1FAF
:102A6000E057F74FA591B4918FB7F894111105C0B5
:102A70009C91ED2FE095E92302C0EC91ED2BEC93B6
:102A80008FBFDF91CF911F910895CF93DF9390E097
:102A9000FC01E854F74F2491FC01EC55F74F849169
:102AA000882361F190E0880F991FFC01EB50FB4FE8
:102AB000C591D491FC01E057F74FA591B4916111F4
:102AC00009C09FB7F8948881209582238883EC9170
:102AD0002E230BC0623061F49FB7F8943881822FA7
:102AE000809583238883EC912E2B2C939FBF06C067
:102AF0008FB7F894E8812E2B28838FBFDF91CF9179
:102B000008958F929F92AF92BF92CF92DF92EF92F1
:102B1000FF926B017C010E945E134B015C01C114AA
:102B2000D104E104F104F1F00E945E13DC01CB0159
:102B300088199909AA09BB09883E9340A105B105E6
:102B400070F321E0C21AD108E108F10888EE880E7E
:102B500083E0981EA11CB11CC114D104E104F1044E
:102B600019F7DDCFFF90EF90DF90CF90BF90AF903F
:102B70009F908F9008952FB7F894609152057091AF
:102B8000530580915405909155052FBF08951F92CC
:102B90000F920FB60F9211242F933F938F939F9311
:102BA000AF93BF938091520590915305A091540526
:102BB000B09155053091510523E0230F2D3720F4B6
:102BC0000196A11DB11D05C026E8230F0296A11D87
:102BD000B11D209351058093520590935305A09306
:102BE0005405B09355058091560590915705A091D5
:102BF0005805B09159050196A11DB11D8093560548
:102C000090935705A0935805B0935905BF91AF9184
:102C10009F918F913F912F910F900FBE0F901F901A
:102C200018951F920F920FB60F9211242F933F9376
:102C30004F935F936F937F938F939F93AF93BF93C4
:102C4000EF93FF938091B900887F803609F49CC090
:102C500068F5883209F45BC090F4803109F454C0FF
:102C600038F4882309F4F6C0883009F44DC0F6C062
:102C7000883109F44CC0803209F45DC0EFC0803463
:102C800009F468C048F4803309F455C0883309F06A
:102C9000E5C080939F03D8C0803509F44FC08835C4
:102CA00009F45DC0883409F0D9C0D6C0883909F468
:102CB000C7C0A8F4883709F467C038F4883609F427
:102CC00063C0803709F460C0C9C0883809F4B8C04F
:102CD000803909F45FC0803809F0C0C05BC0803B18
:102CE00009F486C038F4803A09F466C0883A09F4D9
:102CF0007FC0B4C0803C09F4A7C0883C09F4A4C0DC
:102D0000883B09F48AC0AAC080919C0310C09091AE
:102D10009E0380919D03981770F5E0919E0381E0DA
:102D20008E0F80939E03F0E0E558FC4F80818093E6
:102D3000BB0085EC86C080939F038EC0E0919E030C
:102D400081E08E0F80939E038091BB00F0E0E558F8
:102D5000FC4F808390919E0380919D036EC0E09113
:102D60009E0381E08E0F80939E038091BB00F0E074
:102D7000E558FC4F80838091A00381116DC081E0F4
:102D800080939B0384EA61C083E08093A103109247
:102D90005005CFCF80915005803208F051C0E091AE
:102DA000500581E08E0F809350058091BB00F0E0CC
:102DB000E05DFA4F8083BDCF85EC8093BC0010921C
:102DC000A10380915005803230F4E0915005F0E08D
:102DD000E05DFA4F10826091500570E0E0912E05A1
:102DE000F0912F0580E395E009951092500536C0CB
:102DF00084E08093A10310922D0510922C05E091A0
:102E00002A05F0912B05099580912C05811105C0AB
:102E100081E080932C0510920A05E0912D0581E058
:102E20008E0F80932D05F0E0E65FFA4F808180934E
:102E3000BB0090912D0580912C05981708F479CF4F
:102E400085E88093BC000AC085EC8093BC0010929A
:102E5000A10304C010929F030E948313FF91EF917E
:102E6000BF91AF919F918F917F916F915F914F91A2
:102E70003F912F910F900FBE0F901F9018951F92AA
:102E80000F920FB60F9211242F933F934F935F939E
:102E90006F937F938F939F93AF93BF93EF93FF9322
:102EA000E0912704F0912804309709F453C0968DDF
:102EB000A685B785858591FF04C09C91892329F457
:102EC00049C09C91892309F045C0A389B4899C918C
:102ED0008589809589238C93868997890197F1F755
:102EE000608D718DA685B785558538E020E0CB01D2
:102EF0000197F1F7822F90E095958795282F4C91B7
:102F0000452309F02068315091F7868D81FD209589
:102F10008091250490E0019660EC70E00E940038FA
:102F200090912604981749F0A0912504B0E0A65B83
:102F3000BB4F2C938093250403C0868D8160868FC0
:102F4000828D938D0197F1F7A389B4899C9185892E
:102F5000892B8C93FF91EF91BF91AF919F918F91AE
:102F60007F916F915F914F913F912F910F900FBE85
:102F70000F901F901895CF92DF92EF92FF920F93D0
:102F80001F93CF93DF93EB017B0121E1E20EF11C54
:102F90008B016C01C61AD70AC601800F911F0E94CF
:102FA0005037F80181938F01EE15FF05A9F7CE0187
:102FB000DF91CF911F910F91FF90EF90DF90CF9015
:102FC0000895AF92BF92CF92DF92EF92FF920F934C
:102FD0001F93CF93DF9300D0CDB7DEB78B016B018A
:102FE00021E1C20ED11C7B015C01A61AB70A950132
:102FF0002E0D3F1DF70161917F013A832983CE0198
:1030000001960E94CC20EC14FD0489F7C8010F90B2
:103010000F90DF91CF911F910F91FF90EF90DF9074
:10302000CF90BF90AF900895CF93DF9300D0CDB7EE
:10303000DEB79A838983CE0101960E94CC200F903F
:103040000F90DF91CF9108950C945037CF93DF9379
:10305000EC0180910301813019F0613009F047C023
:1030600068EE73E080E090E00E94811561EE74E00C
:1030700081E696E00E946A26BE0181E696E00E9403
:103080005C266FED74E081E696E00E94B92664EF5D
:1030900071E080E090E00E94811561E376E081E6D6
:1030A00096E00E945C2664EF71E080E090E00E9470
:1030B0008115E0916106F09162060190F081E02DAA
:1030C0006AE181E696E0099564EF71E080E090E0C6
:1030D0000E9481156AE073E088E895E00E948E26E0
:1030E00068E873E180E090E00E94811506C066E028
:1030F00073E088E895E00E948E26BE0188E895E09E
:103100000E945C266DE376E088E895E00E945C26EC
:1031100061E376E088E895E0DF91CF910C94A726F3
:103120000F931F93CF93DF93CDB7DEB762970FB6A0
:10313000F894DEBF0FBECDBF0E94BB1500912104E5
:10314000109122042091230430912404601B710B00
:10315000820B930B28EE33E040E050E00E94CF3723
:103160008091200490E0A0E0B0E082179307A407CC
:10317000B50708F076C011E01093B80161E08EE069
:1031800090E00E9414181093B4016BEE74E083E495
:1031900096E00E94D6240E942C1A63E476E088E828
:1031A00095E00E94A72663E476E081E396E00E9422
:1031B000152568EE73E080E090E00E9481150BEB2E
:1031C00011E0F8018589968946960E94241881307D
:1031D000D9F568EE73E080E090E00E9481156FEE13
:1031E00073E0F801858996890E94BB17BC01CE0166
:1031F00007960E9401266BEE72E0CE010D960E94AA
:103200000126BE01695F7F4FCE010D960E948A2480
:10321000BC01CE0101960E94F82560E0CE01019626
:103220000E942618CE0101960E946525CE010D96BA
:103230000E946525CE0107960E94652568EE73E021
:1032400080E090E00E948115095E1F4FF2E0013A94
:103250001F0709F0B6CF1092790310920204109262
:10326000D80362960FB6F894DEBF0FBECDBFDF91D4
:10327000CF911F910F91089560ED77E080E090E08D
:103280000E94811567ED74E081E696E00E94B92600
:103290001092DD030895AF92BF92CF92DF92FF921A
:1032A0000F931F93CF93DF93CDB7DEB762970FB61F
:1032B000F894DEBF0FBECDBF9091B801913049F4B4
:1032C000162F082F8BEBA82E81E0B82E9AE0F92E4E
:1032D00048C0813009F054C0F3CF1230E1F5F50158
:1032E000C588D688C60145960E942418813099F574
:1032F0006FEE73E0C6010E94BB17BC01CE010796BA
:103300000E9401266BEE72E0CE0101960E9401261A
:10331000BE01695F7F4FCE0101960E948A24BC01E5
:10332000CE010D960E94F825602FCE010D960E94C9
:103330002618CE010D960E946525CE0101960E94A9
:103340006525CE0107960E94652568EE73E080E052
:1033500090E00E948115FA94F7E1AF0EB11CFF20B6
:1033600049F0113009F0B9CFF501C588D688C601FA
:103370004396BACF113021F41093DB031093DC0392
:1033800062960FB6F894DEBF0FBECDBFDF91CF912E
:103390001F910F91FF90DF90CF90BF90AF90089555
:1033A000DF92EF92FF920F931F93CF93DF9300D0A2
:1033B00000D000D0CDB7DEB76AEC74E088E895E0C5
:1033C0000E94B9268AE0E82E81E0F82E00E010E0A5
:1033D000F701838994890E94562BF7018389948988
:1033E00087960E942418D82E0F5F1F4F4AE0B8011D
:1033F000CE0101960E9496256DE376E0CE010196FE
:103400000E948A2462E675E00E9471246DE376E0F2
:103410000E948A246D2D0E94C824BC0188E895E092
:103420000E94A726CE0101960E946525F5E1EF0EC8
:10343000F11C0830110561F60E94232726960FB66D
:10344000F894DEBF0FBECDBFDF91CF911F910F91DA
:10345000FF90EF90DF90089580917903813019F407
:1034600061E777E006C080910204813031F462E8C0
:1034700077E083E496E00C94052469E777E083E441
:1034800096E00E94052440914D0650914E066091B1
:10349000490670914A0683E496E00C9443240F9306
:1034A0001F93CF93DF93CDB7DEB762970FB6F89433
:1034B000DEBF0FBECDBF1092B80160E08EE090E09D
:1034C0000E94141866E677E083E496E00E94D62412
:1034D0000E942C1A63E476E088E895E00E94A72613
:1034E00063E476E081E396E00E94152568EE73E0E0
:1034F00080E090E00E9481150BEB11E0F8018589D6
:10350000968946960E9424188130D9F568EE73E0BA
:1035100080E090E00E9481156FEE73E0F8018589EC
:1035200096890E94BB17BC01CE0107960E94012616
:103530006BEE72E0CE0101960E940126BE01695F2A
:103540007F4FCE0101960E948A24BC01CE010D96C8
:103550000E94F82560E0CE010D960E942618CE014B
:103560000D960E946525CE0101960E946525CE012B
:1035700007960E94652568EE73E080E090E00E9467
:103580008115095E1F4FF2E0013A1F0709F0B6CF1F
:1035900080917A03823021F4109206011092050185
:1035A000109279031092020462960FB6F894DEBF6F
:1035B0000FBECDBFDF91CF911F910F910895813044
:1035C00011F4809302040E94BB1560932104709350
:1035D0002204809323049093240481E08093D803F1
:1035E0000C9490188091B801813031F41092D80376
:1035F000109261050C944F1A811102C00C94DF1ACD
:10360000089561E08BE00E94151564E670E080E0AB
:1036100090E00E94811560E08BE00E94151564E641
:1036200070E080E090E00E94811561E08BE00C94F6
:1036300015150E94011B0C94011BCF92DF92FF9283
:103640000F931F93CF93DF9300D000D000D0CDB75E
:10365000DEB76C010BEB11E06FEE73E0F8018589CA
:1036600096890E94BB17BC01CE0101960E940126DB
:10367000B601CE0101960E94D323F82ECE01019609
:103680000E946525FF2041F0B60189E496E00E9482
:103690001525FF24F39406C0095E1F4FF2E0013A9E
:1036A0001F07D1F68F2D26960FB6F894DEBF0FBEFA
:1036B000CDBFDF91CF911F910F91FF90DF90CF9001
:1036C00008950F931F93CF93DF9300D000D000D0C5
:1036D000CDB7DEB760ED77E080E090E00E94811525
:1036E0000E942E2B10927C0610927B0610927A0676
:1036F0001092790610927806109277068DE991E083
:1037000090937E0680937D0690916D06963108F029
:1037100057C02DEB30E030937806209377062BE9E5
:1037200031E030937A06209379062CE231E0309331
:103730007C0620937B0620916800983050F031E0A1
:103740009E3008F430E081E001C0880F3A95EAF736
:1037500001C084E0822B80936800983038F09E305E
:1037600040F0963148F020E030E008C02DE630E02F
:1037700005C02BE630E002C02CE630E03093750641
:1037800020937406983030F481E001C0880F9A9538
:10379000EAF70EC0292F30E09E3018F42850310986
:1037A00002C02E50310981E001C0880F2A95EAF746
:1037B0008093760680917D0690917E060197F1F7C1
:1037C00080917B0690917C06892B49F1E09127043A
:1037D000F091280486E0E136F80709F1309739F0D6
:1037E000A389B4899C918589809589238C93809144
:1037F0007F068E7F80937F06109225041092260408
:1038000081E696E09093280480932704E091740663
:10381000F0917506908180917606892B80831AE05D
:1038200063E677E081E696E00E94B92668EC70E0F6
:1038300080E090E00E948115115091F76FE577E0EC
:1038400081E696E00E94B9266AE070E080E090E0B0
:103850000E94811581E696E00E94AD14892B09F43F
:1038600071C081E696E00E94AD14892B79F081E663
:1038700096E00E94C514809306040E945E2C64E1C9
:1038800070E080E090E00E948115EBCF809105040C
:10389000811152C06AE577E0CE0101960E94EF25C2
:1038A000BE016F5F7F4F85E596E00E94B9238C01D2
:1038B000CE0101960E94652517FD03C081E080932B
:1038C000050463E577E0CE0101960E94EF25BE0175
:1038D0006F5F7F4F85E596E00E94B9238C01CE0192
:1038E00001960E94652517FD03C082E080930504C0
:1038F00060E577E0CE0101960E94EF25BE016F5F83
:103900007F4F85E596E00E94B9238C01CE01019698
:103910000E94652517FD03C083E0809305046DE3D5
:1039200077E088E895E00E946A2680910504082ED9
:10393000000C990B0E940D2C69E173E085E596E07F
:103940000E94FE2463E377E081E696E00E94B926B8
:1039500064E670E080E090E00E94811569E277E023
:1039600081E696E00E94B92664E670E080E090E08F
:103970000E9481156BE177E081E696E00E94B9260E
:1039800064E670E080E090E00E9481156FE077E0EF
:1039900081E696E00E94B92664E670E080E090E05F
:1039A0000E94811580910104813019F46AE077E06A
:1039B00002C065E077E081E696E00E94B92626968F
:1039C0000FB6F894DEBF0FBECDBFDF91CF911F9130
:1039D0000F910895AF92BF92CF92DF92EF92FF9234
:1039E0000F931F93CF93DF9300D000D000D0CDB7BB
:1039F000DEB76AEB75E088E895E00E94B92666EBD1
:103A000075E088E895E00E946A266DE376E0CE01D5
:103A100001960E94F82560EB75E0CE0101960E94A8
:103A20003524BC0188E895E00E945C26CE01019611
:103A30000E9465256DE376E0CE0101960E94F8258F
:103A40006EEA75E0CE0101960E943524BC0188E83B
:103A500095E00E945C26CE0101960E9465256DE3EB
:103A600076E0CE0101960E94F8256CEA75E0CE0161
:103A700001960E943524BC0188E895E00E945C26EE
:103A8000CE0101960E9465256DE376E0CE01019698
:103A90000E94F8256AEA75E0CE0101960E9435245D
:103AA000BC0188E895E00E945C26CE0101960E9448
:103AB00065256DE376E0CE0101960E94F82568EA5F
:103AC00075E0CE0101960E943524BC0188E895E09E
:103AD0000E94A726CE0101960E9465250BEB11E0FE
:103AE000E12CF12C6FEE73E0F801858996890E9434
:103AF000BB17F8018589968943960E942418D82E11
:103B0000FFEFEF1AFF0A4AE0B701CE0101960E94CB
:103B100096256DE376E0CE0101960E948A246FEE31
:103B200073E00E9471246DE376E00E948A246D2D7B
:103B30000E94C824BC0188E895E00E945C26CE0162
:103B400001960E946525F801C588D688C60146966B
:103B50000E942418B82EC60145960E942418A82E4B
:103B6000C60144960E942418D82E6DE376E0CE015B
:103B700001960E94F8256D2DCE0101960E94C82461
:103B80006DE376E00E948A246A2D0E94C8246DE3CA
:103B900076E00E948A246B2D0E94C824BC0188E82C
:103BA00095E00E94A726CE0101960E946525095E38
:103BB0001F4FFAE0EF16F10409F094CF0E9423277B
:103BC00026960FB6F894DEBF0FBECDBFDF91CF9122
:103BD0001F910F91FF90EF90DF90CF90BF90AF902B
:103BE0000895CF93DF9383E690E00E9424188130FC
:103BF00009F450C063E975E088E895E00E94B926B1
:103C0000C4E6D0E06FEFCE010E9414186AE070E0C5
:103C100080E090E00E9481152196C03981E0D807AC
:103C200089F76AE775E088E895E00E94B9260E9466
:103C30002327CFECD1E0BE016451710989819A81BB
:103C40000E94E117FE01339789819A816081439632
:103C50000E941418FE01329789819A8160814496EE
:103C60000E941418FE01319789819A8160814596DE
:103C70000E94141889819A81688146960E941418BE
:103C8000679682E0C53BD807B1F661E083E690E035
:103C90000E94141883E690E00E942418813021F4D9
:103CA000DF91CF910C94EA1CDF91CF910895CF93CF
:103CB000DF93D82FC92F682F80E190E00E945837FA
:103CC0006C2F81E190E00E945837D093B201C093ED
:103CD000B30167E675E088E895E00E946A26809166
:103CE000B2019091B3010E94D42B0E942327DF914F
:103CF000CF910C94011BCF93DF9380E090E00E9462
:103D00002418813009F477C069EE76E088E895E000
:103D10000E94B926C0E0D0E06FEFCE010E941418D7
:103D20006AE070E080E090E00E9481152196CE313B
:103D3000D10591F769EC76E088E895E00E94B92614
:103D40000E94232761E08AE090E00E94141861E05D
:103D50008BE090E00E94141860E08CE090E00E94FC
:103D6000141861E08DE090E00E94141861E08EE08C
:103D700090E00E9414186FE08FE090E00E94141809
:103D80008CE390E00E94571E60E082E190E00E9488
:103D9000141861E083E190E00E94141860E084E16F
:103DA00090E00E94141860E085E190E00E941418F1
:103DB00060E086E190E00E94141860E087E190E006
:103DC0000E94141868E288E190E00E94141860E0F4
:103DD00089E190E00E94141861E08AE190E00E947D
:103DE000141861E08BE190E00E94141861E080E01B
:103DF00090E00E94141880E090E00E942418813026
:103E000009F05FC166EB76E088E895E00E94B9268C
:103E10000E9423278AE090E00E94241880930301E7
:103E20006CEA76E088E895E00E946A2680910301BA
:103E3000082E000C990B0E940D2C88E190E00E9446
:103E4000241890E09093BA018093B90161EA76E07A
:103E500088E895E00E946A268091B9019091BA01A4
:103E60000E94D42B8CE090E00E94241880930104DF
:103E70006AE976E088E895E00E946A26809101046C
:103E8000082E000C990B0E940D2C8DE090E00E94F2
:103E900024188093B60164E976E088E895E00E94F2
:103EA0006A268091B601082E000C990B0E940D2CF9
:103EB0008EE090E00E9424188093B8016CE876E0D0
:103EC00088E895E00E946A268091B801082E000CCF
:103ED000990B0E940D2C8FE090E00E94241890E036
:103EE000909302018093010160E876E088E895E014
:103EF0000E946A2680910101909102010E94D42BB8
:103F000080E190E00E942418C82F81E190E00E9497
:103F10002418C093B2018093B30161E776E088E88A
:103F200095E00E946A268091B2019091B3010E94AF
:103F3000D42B8BE090E00E9424188093B5016FE5AC
:103F400076E088E895E00E946A268091B501082E07
:103F5000000C990B0E940D2C82E190E00E94241825
:103F60008093D70364E576E088E895E00E946A26AE
:103F70008091D703082E000C990B0E940D2C83E131
:103F800090E00E9424188093090167E476E088E8B5
:103F900095E00E946A2680910901082E000C990B79
:103FA0000E940D2C87E190E00E9424188093D90391
:103FB00066E376E088E895E00E946A266AE070E0B1
:103FC0008091D9030E94B32B84E190E00E942418D1
:103FD00080937A0368E276E088E895E00E946A269A
:103FE00080917A03082E000C990B0E940D2C85E11C
:103FF00090E00E9424188093200465E176E088E830
:1040000095E00E946A266AE070E0809120040E9498
:10401000B32B86E190E00E9424188093DA0362E0DB
:1040200076E088E895E00E946A266AE070E0809178
:10403000DA030E94B32B8AE190E00E942418809357
:10404000040161EF75E088E895E00E946A2680919E
:104050000401082E000C990B0E940D2C8BE190E0BE
:104060000E9424188093000161EE75E088E895E0D5
:104070000E946A2680910001082E000C990B0E9474
:104080000D2C89E190E00E9424188093050467EDCF
:1040900075E088E895E00E946A2680910504811108
:1040A00007C06CEC75E088E895E00E94B92605C071
:1040B000082E000C990B0E940D2CDF91CF910C94CF
:1040C0002327DF91CF91089581E390E00E94241887
:1040D000813081F162E575E088E895E00E94B926BB
:1040E00067E375E088E895E00E94B9260E942327DF
:1040F00061E173E08BE596E00E94FE2486E1809307
:10410000A10241E150E060E473E08BE596E00E949B
:10411000252C60E473E08EE190E00E94E11760914D
:10412000A10280E390E00E94141861E081E390E036
:104130000E94141881E390E00E942418813059F500
:1041400060E473E08EE190E00E94BB17BC018BE558
:1041500096E00E94FE2480E390E00E942418809361
:10416000A10266E275E088E895E00E946A266BE5A8
:1041700076E088E895E00E94A72663E175E088E88C
:1041800095E00E946A266AE070E08091A1020E9498
:10419000B32B0C9423270895EF92FF920F931F9354
:1041A000CF93DF931F92CDB7DEB77C01FC01008176
:1041B0001181C80169830E9450376981681719F01D
:1041C000C8010E945837C7010F90DF91CF911F910E
:1041D0000F91FF90EF900895CF93DF93EC01FB01D7
:1041E000248135810E941626CE01DF91CF9108955A
:1041F0000895CF92DF92EF92FF920F931F93CF9388
:10420000DF936C017A018B01C0E0D0E0CE15DF05B1
:1042100089F0D8016D918D01D601ED91FC9101904D
:10422000F081E02DC6010995892B11F47E0102C0B1
:104230002196ECCFC701DF91CF911F910F91FF9095
:10424000EF90DF90CF900895FC01538D448D252F82
:1042500030E0842F90E0821B930B541710F0CF9620
:10426000089501970895FC01918D828D981761F052
:10427000828DDF01A80FB11D5D968C91928D9F5F9D
:104280009F73928F90E008958FEF9FEF0895FC0148
:10429000918D828D981731F0828DE80FF11D858DFB
:1042A00090E008958FEF9FEF0895FC01918D228D8E
:1042B000892F90E0805C9F4F821B91098F73992713
:1042C000089588E895E00E94552121E0892B09F4A2
:1042D00020E0822F0895FC01848DDF01A80FB11D1D
:1042E000A35ABF4F2C91848D90E001968F7399272C
:1042F000848FA689B7892C93A089B1898C91806419
:104300008C93938D848D981306C00288F389E02DD9
:1043100080818F7D80830895EF92FF920F931F938A
:10432000CF93DF93EC0181E0888F9B8D8C8D981368
:1043300005C0E889F989808185FD24C0F62E0B8DA2
:1043400010E00F5F1F4F0F731127E02E8C8DE812C6
:104350000CC00FB607FCFACFE889F989808185FF88
:10436000F5CFCE010E946B21F1CF8B8DFE01E80FBE
:10437000F11DE35AFF4FF0820B8FEA89FB898081A0
:10438000806207C0EE89FF896083E889F9898081AE
:104390008064808381E090E0DF91CF911F910F9145
:1043A000FF90EF900895CF93DF93EC01888D8823E1
:1043B000C9F0EA89FB89808185FD05C0A889B98992
:1043C0008C9186FD0FC00FB607FCF5CF808185FF6D
:1043D000F2CFA889B9898C9185FFEDCFCE010E94DB
:1043E0006B21E7CFDF91CF91089580E090E0892B9A
:1043F00029F00E94612181110C94000008950E940F
:10440000253AAF92BF92CF92DF92EF92FF920F9335
:104410001F93CF93DF937B018A01FB014481558178
:104420004115510561F1FC012481358121153105CA
:1044300031F12417350718F10217130718F0890115
:1044400001501109FC01A080B180C501DFEFCFEF61
:104450006501C00ED11EC816D906A0F0F701608113
:1044600071810E946C3A009769F09C012A193B09FE
:104470000217130710F0D22FC32F0196ECCF8FEF46
:104480009FEF02C08D2F9C2FDF91CF911F910F9135
:10449000FF90EF90DF90CF90BF90AF9008950F9373
:1044A0001F93CF93DF93EC0188819981009729F0C6
:1044B0002A813B812617370788F48B016F5F7F4F76
:1044C0000E945B39009761F0998388831B830A837C
:1044D0002C813D81232B11F4FC01108281E001C06D
:1044E00080E0DF91CF911F910F910895CF93DF93DB
:1044F000EC0188819981009711F00E94C3381982DC
:1045000018821D821C821B821A82DF91CF9108952E
:10451000EF92FF920F931F93CF93DF93EC017B01F8
:104520008A01BA010E944F22811104C0CE010E946B
:10453000762207C01D830C83B701888199810E9470
:10454000563ACE01DF91CF911F910F91FF90EF90DE
:104550000895FC0180819181009711F00C94B93687
:1045600060E070E0CB0108952F923F924F925F92EE
:104570006F927F928F929F92AF92BF92CF92DF9273
:10458000EF92FF920F931F93CF93DF93FC01448030
:1045900055804114510409F4CFC0FB01648075803B
:1045A0006114710409F4C8C07A016B01EC01FA01CD
:1045B000A480B580A618B70808811981A114B10498
:1045C000C1F4F60160817181C8010E946C3AEC016E
:1045D000892B09F4B1C0F701608171814481558153
:1045E000CE010E94323AF701048115810C0F1D1F84
:1045F000E8CFB7FE02C0480106C0FB012080318031
:104600004201C80142C0F60160817181C4010E946B
:104610006C3A2C01892B19F1320168187908A30131
:10462000B401C8010E94323A060D171DF7016081DE
:10463000718144815581C8010E94323AF701848119
:104640009581080F191FF60184809580840C951CB4
:104650008C819D818A0D9B1D9D838C83D4CFB40159
:10466000C801DF91CF911F910F91FF90EF90DF90E4
:10467000CF90BF90AF909F908F907F906F905F9002
:104680004F903F902F900C94563AB1010E946C3A93
:10469000009729F0860D971D8A0C9B1CF6CF841479
:1046A000950409F449C08A819B818815990560F4B5
:1046B000B4016F5F7F4FC8010E945B390097E1F141
:1046C000998388839B828A824C815D814150510904
:1046D00057FD32C0B601CE010E9401228C0197FD28
:1046E0002BC088819981F60124813581200F311FEB
:1046F000820F931F4C815D81421B530BBC018A0DBD
:104700009B1D0E943B3A8C819D818A0D9B1D9D8340
:104710008C8328813981F901E80FF91F1082888183
:104720009981F7016081718144815581800F911FCA
:104730000E94323AA801CACFDF91CF911F910F9109
:10474000FF90EF90DF90CF90BF90AF909F908F90B1
:104750007F906F905F904F903F902F900895FC0155
:1047600044815581FB0124813581421B530B0C94FC
:104770000122CF93DF93FC0124813581232B71F03B
:10478000FB01DC01CD91DC9160817181CE010E9441
:104790006C3A009719F08C1B9D0B02C08FEF9FEFB6
:1047A000DF91CF910895FC0124813581FB01448183
:1047B00055812417350721F5FC0180819181FB018A
:1047C00060817181009719F061157105A1F461157F
:1047D000710549F0232BB1F0FB01808190E09195A8
:1047E000819591090AC0009769F0232B59F0FC01CB
:1047F000808190E002C00E944D3A21E0892B19F09F
:1048000020E001C021E0822F0895EF92FF920F93E4
:104810001F93CF93DF936115710511F480E01EC0E3
:104820008B01EC01CB010E94E7360097B1F02C819F
:104830003D817C01E20EF31EB701CE010E944F22A2
:10484000882361F3288139818C819D81B801820F91
:10485000931F0E94E036FD82EC8281E0DF91CF91D0
:104860001F910F91FF90EF900895CF93DF93EC018C
:104870000E940524811103C0CE010E947622CE0140
:10488000DF91CF910895EF92FF920F931F93CF93F3
:10489000DF93FC01248135816115710511F480E0FD
:1048A00019C041155105A9F07B01EC018A01020FE5
:1048B000131FB8010E944F22882389F32881398170
:1048C0008C819D81B701820F931F0E94563A1D83F0
:1048D0000C8381E0DF91CF911F910F91FF90EF90BA
:1048E0000895CF93DF93EC016115710561F0FB0131
:1048F00001900020E9F73197AF01461B570B0E944A
:104900004324811103C0CE010E947622CE01DF91A3
:10491000CF910895CF93DF93EC01FB014481558142
:10492000608171810E944324811103C0CE010E94E5
:104930007622CE01DF91CF910895EF92FF920F93EF
:104940001F93CF93DF9300D000D0CDB7DEB77C01AB
:10495000862F4AE08E010F5F1F4FB80190E00E9442
:10496000FB36F80101900020E9F73197AF01401BB9
:10497000510BB801C7010E9443240F900F900F9074
:104980000F90DF91CF911F910F91FF90EF900895BD
:10499000CF93DF93EC010E949D24811103C0CE01CF
:1049A0000E947622CE01DF91CF910895EF92FF927F
:1049B0000F931F93CF93DF93EC018B01611571056A
:1049C00051F0CB010E94E7367C01BC01CE010E9470
:1049D0004F22811104C0CE010E94762207C0FD82C1
:1049E000EC82B801888199810E94E036CE01DF9186
:1049F000CF911F910F91FF90EF900895CF93DF9388
:104A0000EC016115710559F0FB0101900020E9F7F7
:104A10003197AF01461B570B0E94882202C00E94AB
:104A20007622CE01DF91CF910895CF93DF93EC01F1
:104A3000FB018617970761F060817181611571052F
:104A400029F0448155810E94882202C00E9476226A
:104A5000CE01DF91CF9108950F931F93CF93DF93F2
:104A60008C01EB01FC01808191810097B1F068819C
:104A700079816115710579F0428153812C813D81E5
:104A80004217530740F00E94563A8C819D81F801ED
:104A90009583848313C00E94C33888819981F8016B
:104AA000918380838A819B81938382838C819D8182
:104AB00095838483198218821B821A821D821C822C
:104AC000DF91CF911F910F910895FC018081918119
:104AD0000C94C3380F931F93CF93DF93CDB7DEB7FA
:104AE00061970FB6F894DEBF0FBECDBF8C01CB012E
:104AF000F80111821082138212821582148250E012
:104B0000BE016F5F7F4F0E941B37BE016F5F7F4FFB
:104B1000C8010E94FE2461960FB6F894DEBF0FBE56
:104B2000CDBFDF91CF911F910F9108950F931F93E8
:104B3000CF93DF93CDB7DEB762970FB6F894DEBFA1
:104B40000FBECDBF8C01CB01F80111821082138200
:104B500012821582148250E0BE016F5F7F4F0E9467
:104B6000F036BE016F5F7F4FC8010E94FE2462963F
:104B70000FB6F894DEBF0FBECDBFDF91CF911F916E
:104B80000F9108950F931F93CF93DF93CDB7DEB7A7
:104B900029970FB6F894DEBF0FBECDBF8C01862FCC
:104BA000F80111821082138212821582148250E061
:104BB000BE016F5F7F4F90E00E941B37BE016F5FA9
:104BC0007F4FC8010E94FE2429960FB6F894DEBFDD
:104BD0000FBECDBFDF91CF911F910F910895FC01C2
:104BE0001182108213821282158214820C94D624B0
:104BF000FC011182108213821282158214820C949D
:104C00001525FC01118210821382128215821482F2
:104C10006115710551F0FB0101900020E9F7319712
:104C2000AF01461B570B0C9488220895BF92CF9278
:104C3000DF92EF92FF920F931F93CF93DF937C014C
:104C40006B018A01E9012417350720F4812F8901BE
:104C5000C42FD82F69E173E0C7010E940126D60155
:104C600014968D919C91159708171907D0F48C17FD
:104C70009D0708F4EC01D601ED91FC911197EC0F22
:104C8000FD1FB08010824D915C91BA01600F711FC1
:104C9000C7010E94FE24D601ED91FC91EC0FFD1F8F
:104CA000B082C701DF91CF911F910F91FF90EF90DC
:104CB000DF90CF90BF900895DC01ED91FC91DB0176
:104CC00014964D915C9115976D917C910280F381C2
:104CD000E02D0994EF92FF920F931F93CF93DF93F0
:104CE0008C017B01C0E0D0E0F701EC0FFD1F649167
:104CF000662361F0D801ED91FC910190F081E02DE7
:104D0000C8010995892B11F02196EECFCE01DF91D4
:104D1000CF911F910F91FF90EF900895611571054C
:104D200079F0FB0101900020E9F73197AF01461BB4
:104D3000570BDC01ED91FC910280F381E02D099489
:104D400080E090E0089567E173E00C948E260F9365
:104D50001F93CF93DF93EC010E945C268C01CE0160
:104D60000E94A326800F911FDF91CF911F910F9179
:104D700008950F931F93CF93DF93EC010E946A264F
:104D80008C01CE010E94A326800F911FDF91CF914D
:104D90001F910F9108951F920F920FB60F92112439
:104DA0002F933F934F935F936F937F938F939F9333
:104DB000AF93BF93EF93FF9388E895E00E946B2138
:104DC000FF91EF91BF91AF919F918F917F916F91E3
:104DD0005F914F913F912F910F900FBE0F901F90B9
:104DE00018951F920F920FB60F9211242F938F9345
:104DF0009F93EF93FF93E0919805F091990580813F
:104E0000E0919E05F0919F0582FD12C090818091F6
:104E1000A1058F5F8F732091A205821751F0E09159
:104E2000A105F0E0E857FA4F958F8093A10501C0E6
:104E30008081FF91EF919F918F912F910F900FBEE5
:104E40000F901F90189588E895E00C94A326AF92D8
:104E5000BF92CF92DF92EF92FF920F931F93CF9367
:104E6000DF9300D0CDB7DEB782E690E00E94241831
:104E7000813009F452C06AE778E088E895E00E9442
:104E8000B92604EF11E06FEFC8010E9414186AE020
:104E900070E080E090E00E9481150F5F1F4F0533A6
:104EA00083E0180781F760E678E088E895E00E94E3
:104EB000B9260E9423270AE011E08CE1A82E81E0A8
:104EC000B82EF801C388D4887801C01AD10AC60167
:104ED0008E0D9F1DF70161917F019A838983CE0119
:104EE00001960E94CC20EA14FB0489F7F80183891B
:104EF0009489F701608187960E9414180B5E1F4FFA
:104F00005701F5E1AF0EB11C81E0023B1807C9F66D
:104F100061E082E690E00E9414180F900F90DF91FC
:104F2000CF911F910F91FF90EF90DF90CF90BF90A6
:104F3000AF9008957F928F929F92AF92BF92CF923F
:104F4000DF92EF92FF920F931F93CF93DF93C12CC9
:104F5000D12C7601C394D0E0BB24B39462E0A62E9A
:104F600099249A9475EE872EE5EC7E2ECC2DB09286
:104F70004904C0925A0510927803109277039091D9
:104F8000A1039111FCCFA092A103B092A003909233
:104F90009F0310929E0310929D0310929C03809198
:104FA0009C0386019601220F331F282B20939C031C
:104FB00080919B03813069F410929B0380919C0344
:104FC0008093BB008091BC0083FDF8CF7092BC0041
:104FD00002C08092BC008091A1038230E1F38091F5
:104FE0009F038F3F69F080919F03803231F0809161
:104FF0009F03803321F094E003C092E001C093E06E
:10500000109278031092770310924904911138C0DE
:105010006FE478E088E895E00E946A2680E1C8168F
:10502000D104E104F10430F46DE478E088E895E01F
:105030000E946A2640E1C701B6010E94702B80EEF3
:105040008C0F883018F0C853C830B0F46DE376E0A8
:1050500088E895E00E945C266CE378E088E895E0BB
:105060000E94B9261093C5030093C4038091D60310
:105070008F5F8093D60302C00E942327DF5F19C091
:105080009430B9F460E378E088E895E00E946A26FD
:10509000E0E1CE16D104E104F10430F46EE278E0F0
:1050A00088E895E00E946A2660E170E08C2F0E94FB
:1050B000B32BFFEFCF1ADF0AEF0AFF0A8FE7C816FC
:1050C000D104E104F10409F051CFD11106C068E127
:1050D00078E088E895E00E94B9268091D60388237D
:1050E000E9F00E94D0190AE011E0CEECD3E0FC2EEA
:1050F000E8E0FE0EF8018389948987960E942418BF
:1051000089930B5E1F4FFC12F5CF0E942327E6EC1C
:10511000F3E088E08E0F11928E13FDCFDF91CF91D7
:105120001F910F91FF90EF90DF90CF90BF90AF90C5
:105130009F908F907F9008958F929F92AF92BF9291
:10514000CF92DF92EF92FF920F931F93CF93DF9353
:10515000CDB7DEB76E970FB6F894DEBF0FBECDBFEA
:105160007C01162F64EE72E0CE0101960E940126AA
:10517000BE016F5F7F4FC7010E94AF234AE0BC01B1
:10518000CE0107960E949625CE0107960E94A9227D
:10519000AB014F5F5F4FB701CE0143960E94EC20F9
:1051A000CE0107960E946525CE0101960E946525D5
:1051B0006AE173E0CE0101960E940126BE016F5F95
:1051C0007F4FCE0143960E94B923D92ECE0101967E
:1051D0000E946525D094DD1CDD24DD1C6CE173E0AC
:1051E000CE0101960E940126BE016F5F7F4FCE0166
:1051F00043960E94B923C92ECE0101960E946525CF
:10520000C094CC1CCC24CC1C6EE173E0CE01019682
:105210000E940126BE016F5F7F4FCE0143960E9420
:10522000B923E92ECE0101960E946525E094EE1C7B
:10523000EE24EE1C60E273E0CE0101960E9401268E
:10524000BE016F5F7F4FCE0143960E94B923F92EB6
:10525000CE0101960E946525F094FF1CFF24FF1CDF
:1052600069E173E0CE0107960E9401266AE173E0CE
:10527000CE0101960E940126AE01495F5F4FBE013B
:105280006F5F7F4FCE0143960E94B422CE010196FC
:105290000E946525CE0107960E94652569E173E0AD
:1052A000CE0107960E9401266CE173E0CE010196C3
:1052B0000E940126AE01495F5F4FBE016F5F7F4FC5
:1052C000CE0143960E94B422CE0101960E9465252C
:1052D000CE0107960E94652569E173E0CE0107962D
:1052E0000E9401266EE173E0CE0101960E94012624
:1052F000AE01495F5F4FBE016F5F7F4FCE014396A6
:105300000E94B422CE0101960E946525CE01079627
:105310000E94652569E173E0CE0107960E9401268F
:1053200060E273E0CE0101960E940126AE01495F62
:105330005F4FBE016F5F7F4FCE0143960E94B42244
:10534000CE0101960E946525CE0107960E94652533
:1053500069E173E0CE0107960E94012666EE72E0D5
:10536000CE0101960E940126AE01495F5F4FBE014A
:105370006F5F7F4FCE0143960E94B422CE0101960B
:105380000E946525CE0107960E9465256BEE72E0AE
:10539000CE0101960E940126BE016F5F7F4FCE01B4
:1053A00043960E94B9234AE0BC01CE0107960E94B1
:1053B0009625CE0107960E94A9229B0140E050E06D
:1053C000BE016D5E7F4FCE010D960E941626CE0166
:1053D00007960E946525CE0101960E9465256BEE19
:1053E00072E0CE0101960E940126BE016F5F7F4FE1
:1053F000CE0143960E94AF234AE0BC01CE014996FC
:105400000E949625CE0149960E94A922AB014F5FCA
:105410005F4FBE016D5E7F4FCE0107960E94EC206C
:10542000CE0149960E946525CE0101960E94652510
:10543000113009F0C8C0CE010D960E94A922062F96
:10544000BE01695F7F4FCE0149960E94F8256FEE3D
:1054500073E08091D0019091D1010E94BB17BC01F3
:10546000CE0101960E9401268D819E81892B39F003
:10547000E981FA818081882319F010E001C011E0F0
:10548000CE0101960E946525112361F069ED77E058
:1054900088E895E00E94B9260E9423270E94191BE4
:1054A00080E001C081E09EEF900F9A3058F06BEBE6
:1054B00077E088E895E00E94B9260E9423270E94A1
:1054C000191B7CC0813009F079C001508BEB882E0C
:1054D00081E0982EAA24A394B12C6FEE73E0F4011E
:1054E000858996890E94BB17BC01CE0101960E9456
:1054F0000126BE01675E7F4FCE0101960E94D32335
:10550000182FCE0101960E946525112391F068E9BC
:1055100077E088E895E00E946A26C5010E940D2C7C
:105520000E9423278FEF8A0D801719F0F12CE12CB0
:10553000D12CF7E18F0E911C8FEFA81AB80AEBE07F
:10554000AE16B10451F641E150E06EED73E0CE01CC
:1055500049960E94252CF7E10F9F800111240554E4
:105560001E4F6EED73E0F801858996890E94E11760
:10557000F801858996896D2D43960E941418F801CB
:10558000858996896C2D44960E941418F8018589A6
:1055900096896E2D45960E941418F8018589968982
:1055A0006F2D46960E9414186BE877E088E895E026
:1055B0000E94B9260E9423270E94011BCE01499612
:1055C0000E9465252CC0123051F58091D001909138
:1055D000D1016D2D43960E9414188091D0019091B5
:1055E000D1016C2D44960E9414188091D0019091A5
:1055F000D1016E2D45960E9414188091D001909192
:10560000D1016F2D46960E94141860E078E088E87A
:1056100095E00E94B9260E9423270E94011BCE011B
:1056200007960E946525CE010D960E946525CE0144
:1056300043960E9465256E960FB6F894DEBF0FBEA6
:10564000CDBFDF91CF911F910F91FF90EF90DF9031
:10565000CF90BF90AF909F908F900895E8E8F5E0CD
:10566000A089B18982E08C93A485B5851C92A6851A
:10567000B7858FEC8C93108EA489B58986E08C93C6
:10568000A289B3898C9180618C93A289B3898C9112
:1056900088608C93A289B3898C9180688C930288EE
:1056A000F389E02D80818F7D808308950F931F9370
:1056B000CF93DF93C2E6D5E08C0102561540C801B6
:1056C0008C0F9D1F0E945037899385E0C838D807FA
:1056D000B1F782E695E0DF91CF911F910F91089588
:1056E0008F929F92AF92BF920F931F93CF93DF93AE
:1056F000CDB7DEB7A1970FB6F894DEBF0FBECDBF12
:1057000019A2423008F44AE08E010F5D1F4F842E2B
:10571000912CA12CB12CA50194010E94CF37E62F2A
:10572000B901CA0101501109EA3014F4E05D01C069
:10573000E95CD801EC93232B242B252B61F7B801CE
:1057400088E895E00E948E26A1960FB6F894DEBFF9
:105750000FBECDBFDF91CF911F910F91BF90AF9042
:105760009F908F900895CF93DF93AB01672B61F4E7
:10577000E0918805F09189050190F081E02D682F76
:1057800088E895E0099506C0682F70E080E090E019
:105790000E94702BEC0188E895E00E94A3268C0FF4
:1057A0009D1FDF91CF910895CF93DF93BC0180E0DF
:1057B00090E04AE00E94702BEC0188E895E00E949E
:1057C000A3268C0F9D1FDF91CF910895CF92DF927A
:1057D000EF92FF92CF93DF936B017C01E0918805FC
:1057E000F09189050190F081E02D6DE288E895E067
:1057F0000995EC0166277727CB016C197D098E0985
:105800009F094AE00E94702B8C0F9D1FDF91CF9162
:10581000FF90EF90DF90CF900895CF93DF93BC017E
:10582000990F880B990B97FF03C00E94E62B03C0CA
:105830004AE00E94702BEC0188E895E00E94A326C4
:105840008C0F9D1FDF91CF9108950F931F93CF93DE
:10585000DF93FC01248135812115310519F4FB0109
:10586000108211C0EA0121972C173D0708F4E901C5
:105870008B01FC0160817181AE01C8010E945D3A1B
:10588000C00FD11F1882DF91CF911F910F91089502
:105890008091610581110AC00E94BB1560935D056E
:1058A00070935E0580935F059093600581E080931F
:1058B000610510925C0580935B050895CF93DF939B
:1058C00000D0CDB7DEB789831A8241E050E0BE0137
:1058D0006F5F7F4F85E596E00E9443240F900F9005
:1058E000DF91CF910895009769F0FC0101900020AD
:1058F000E9F73197AF01481B590BBC0181E396E0F2
:105900000C94432480E00895CF93DF93CDB7DEB7A6
:105910006E970FB6F894DEBF0FBECDBF789484B5F6
:10592000826084BD84B5816084BD85B5826085BD9B
:1059300085B5816085BD80916E00816080936E0029
:10594000109281008091810082608093810080911B
:1059500081008160809381008091800081608093CC
:1059600080008091B10084608093B1008091B0008C
:1059700081608093B00080917A00846080937A0087
:1059800080917A00826080937A0080917A008160B1
:1059900080937A0080917A00806880937A001092D8
:1059A000C1000E942E2B1092C2031092C3031092CA
:1059B0007803109277031092A10381E08093A003F3
:1059C00010929B0361E082E10E94151561E083E182
:1059D0000E9415158091B9008E7F8093B900809147
:1059E000B9008D7F8093B90088E48093B80085E486
:1059F0008093BC0062EE73E088E895E00E94B926CF
:105A00000E94232764EC79E080E090E00E948115F9
:105A100080E480937C0080917A00806480937A0097
:105A200080917A0086FDFCCF6091780080917900AA
:105A300070E0782B072E000C880B990B611571050F
:105A40008105910511F00E94B0360E947B1E0E94D4
:105A500064200E94F11D0E9427270E949A2761E07E
:105A60008AE00E94451561E08CE00E94451561E0E6
:105A70008BE00E94451561E08AE00E94151561E007
:105A80008CE00E94151561E08BE00E94151560E026
:105A90008AE00E94151564EF71E080E090E00E94BA
:105AA000811561E08AE00E94151560E08CE00E949B
:105AB000151564EF71E080E090E00E94811561E0CF
:105AC0008CE00E94151560E08BE00E94151564EFD4
:105AD00071E080E090E00E94811561E08BE00E941F
