:100000000C946F040C9497040C9497040C94CB1CE0
:100010000C94CB1C0C94CB1C0C9497040C9497045C
:100020000C9497040C9497040C9497040C949704E4
:100030000C9497040C9497040C9497040C949704D4
:100040000C94531B0C9497040C94B8180C949218AD
:100050000C9497040C9497040C9497040C949704B4
:100060000C949D1B0C9497044572726F722064650A
:100070006C6574696E672070686F6E653A202B003E
:1000800044656C6574652070686F6E653A202B005E
:10009000506175736554696D652069733A20004439
:1000A000656C61794265666F72654775617264203F
:1000B00069733A200044656C61794265666F7265C8
:1000C000416C61726D2069733A20005761746368F6
:1000D000506F77657254696D652069733A200052DC
:1000E000696E6754696D652069733A2000576174C1
:1000F00063682074686520706F776572204F46468C
:1001000000477561726420627574746F6E3A204F97
:100110004E2F4F4646206D6F6465004775617264CF
:1001200020627574746F6E3A204F4E206D6F646557
:1001300000477561726420627574746F6E204F465B
:10014000460053656E736F72206461746120736141
:100150007665642E004572726F722073656E736FE0
:1001600072206E756D626572006661696C65642EE1
:10017000007061737365642E0054657374200046CB
:1001800061696C65642063656C6C3A2000420045CF
:100190004550524F4D3A200043757272656E74207F
:1001A0004944203D20004E6F206D6F64656D2E0028
:1001B00053494D3830304C004D3539306500456D70
:1001C000756C6174653A200050726576696F75735D
:1001D000204944203D200041542B435553443D3198
:1001E0002C2200534D532072656D6F766564003488
:1001F00000302C340041542B434D47443D00636C88
:10020000656172736D73006C65646F6666006C6522
:10021000646F6E00746573746F66660074657374E2
:100220006F6E0067756172646F66660067756172F4
:10023000646F6E007061757365006D6F6E65790037
:100240004E2E200046462E2000496E666F3A205002
:100250004952204F00696E666F003D006D6F646506
:100260006D6964007265626F6F74006C697374709D
:10027000686F6E65006932637363616E006D656DF2
:1002800074657374006C69737473656E736F720058
:100290006C697374636F6E66696700656469746D19
:1002A00061696E70686F6E65006564697473656E10
:1002B000736F72006775617264627574746F6E6FCC
:1002C0006666006775617264627574746F6E6F6ED6
:1002D00032006775617264627574746F6E6F6E312F
:1002E000007761746368706F7765726F6666007718
:1002F00061746368706F7765726F6E3200776174D6
:100300006368706F7765726F6E3100504952204F8D
:100310004646007069726F666600504952204F4E23
:10032000007069726F6E00536D73204F4646007304
:100330006D736F666600536D73204F4E00736D735F
:100340006F6E005265656420537769746368204F4F
:10035000464600726565647377697463686F6666A4
:10036000005265656420537769746368204F4E00BE
:10037000726565647377697463686F6E0072657324
:10038000657473656E736F72007265736574636F05
:100390006E66696700726573657470686F6E65007C
:1003A00066756C6C726573657400616C61726D70FA
:1003B000696E74696D650072696E6774696D650058
:1003C0007761746368706F77657274696D650064D6
:1003D000656C61796265666F7265616C61726D00F2
:1003E00064656C61796265666F7265677561726478
:1003F00000736C65657074696D650062616C616E37
:1004000063656E756D0064656C65746570686F6EAC
:10041000650061646470686F6E650053696C656E39
:1004200074206D6F646521004F46462E004F4E2E9E
:100430000047534D20416C61726D2031372E3037AB
:100440002E323400506F77657220737570706C793E
:1004500020726573746F72656400506F77657220E7
:10046000737570706C7920646973636F6E6E656309
:1004700074656420004D61696E2073656E736F72E0
:1004800021005049522073656E736F722100206DF8
:10049000696E757465732061676F003B0041544459
:1004A0002B00416C61726D2052696E673A202B00FF
:1004B0005072696D6172792070686F6E653A202B99
:1004C0000041542B435553443D3000555353442071
:1004D00071756572793A20002B435553443A0053A5
:1004E0004D532066726F6D3A202B002C22002C2C6D
:1004F000002B434D543A0052696E672066726F6D4F
:100500003A202B002C0052494E47000000000024E6
:100510000027002A00000000080002010000030478
:1005200007000000000000000053656E736F72202A
:10053000646174613A0041542B43485550002200D5
:1005400041542B434D47533D22004775617264204F
:100550004F4E2E004C656E67746820746F20726574
:100560007475726E3A200042616C616E6365204E54
:10057000756D6265723A20004C6F61642064656637
:1005800061756C742062616C616E63652064617476
:10059000612E0044656C6574696E672062616C61F0
:1005A0006E636520646174612E00416C61726D49F7
:1005B0006E74657276616C2069733A20004C6F61CD
:1005C000642064656661756C742070686F6E652068
:1005D000646174612E0044656C6574696E67207097
:1005E000686F6E6520646174612E0069007000722E
:1005F00000730050686F6E6500E28496005265617A
:10060000642061727261792070686F6E653A00448F
:10061000656C61794265666F7265416C61726D3AB5
:10062000200044656C61794265666F72654775614B
:1006300072643A20004775617264427574746F6E1B
:100640003A20005761746368506F77657254696D22
:10065000653A20005761746368506F7765723A207D
:100660000050495247756172643A200052656564D2
:1006700053776974636847756172643A2000416C0E
:1006800061726D50696E54696D653A2000536C65F6
:10069000657054696D653A200047756172643A204F
:1006A000004C65643A2000546573743A2000526926
:1006B0006E6754696D653A200053656E64536D73BF
:1006C0003A20005265616420656570726F6D636FDA
:1006D0006E6669673A004C6F616420646566617597
:1006E0006C7420656570726F6D636F6E66696720EC
:1006F000646174612E0044656C6574696E67206581
:100700006570726F6D636F6E666967206461746196
:100710002E004154453000415445310041542B4393
:100720004E4D493D322C320041542B435343533DEF
:100730002247534D220041542B434D47463D310043
:1007400041542B434C49503D310041360053494DF3
:10075000383030004D3539300041544900415400A3
:100760004775617264204F46462E002042757474AE
:100770006F6E002050686F6E65202B0020436F6EF7
:10078000736F6C65005761746368207468652070CE
:100790006F776572204F4E0050686F6E6520616400
:1007A0006465642E0050686F6E6520616C726561CF
:1007B00064792065786973747320696E2074686544
:1007C0002063656C6C3A20004572726F722C207742
:1007D000726F6E67206E756D626572206F66206342
:1007E000656C6C732E004572726F722C2066697294
:1007F000737420726567697374657220612070720A
:10080000696D6172792070686F6E652E0050686F37
:100810006E652073657474696E6773206368616EBA
:100820006765642E004932432064657669636573A9
:10083000206E6F7420666F756E64003000457272B2
:100840006F7220617420307800646574656374652C
:100850006420504346383537340030004932432055
:10086000646576696365206174203078004C6F613F
:10087000642064656661756C742073656E736F7255
:1008800020646174612E0044656C6574696E672034
:1008900073656E736F7220646174612E00000000D6
:1008A00000250028002B000000000023002600295E
:1008B0000004040404040404040202020202020309
:1008C0000303030303010204081020408001020413
:1008D000081020010204081020008F345334112422
:1008E0001FBECFEFD8E0DEBFCDBF13E0A0E0B1E088
:1008F000E2E6F3E702C005900D92A833B107D9F7FD
:1009000026E0A8E3B3E001C01D92AC37B207E1F7DF
:1009100014E0CEE6D4E004C02197FE010E944637E1
:10092000CD36D107C9F70E94B02B0C94A4390C9492
:100930000000AF92BF92CF92DF92EF92FF920F939F
:100940001F93CF93DF93CDB7DEB7E0970FB6F89440
:10095000DEBF0FBECDBF8091F803813031F46DE46E
:1009600076E080E895E00E946E186FEF72E0CE01AD
:1009700042960E94C81760EE72E0CE0101960E9476
:10098000C817AE014E5E5F4FBE016F5F7F4F8DE4B3
:1009900096E00E947B14CE0101960E942C17CE0196
:1009A00042960E942C176FEF72E0CE0142960E9491
:1009B000C8176EEF72E0CE0101960E94C817AE0113
:1009C0004E5E5F4FBE016F5F7F4F8DE496E00E94E9
:1009D0007B14CE0101960E942C17CE0142960E94F4
:1009E0002C1700914D0610914E060115110539F492
:1009F0008091FC03813011F00C9438100DC0F80187
:100A000080818823A9F3082E000C990B0E94483995
:100A1000F80181938F01F3CF62E174E0CE0101967A
:100A20000E94B617BE016F5F7F4F8DE496E00E9473
:100A300080158C01CE0101960E942C1717FD0FC066
:100A40006DE476E0CE0101960E94BF1761E0CE0111
:100A500001960E949927CE0101960E942C1766E00C
:100A600074E0CE0101960E94B617BE016F5F7F4F02
:100A70008DE496E00E9480158C01CE0101960E94C3
:100A80002C1717FD0EC16DE476E0CE0184960E940E
:100A9000BF1762EE72E0CE0142960E94C817BE01F7
:100AA0006E5E7F4FCE0184960E9476154AE0BC01AF
:100AB000CE0101960E945D17CE0101960E9470142E
:100AC000AB014F5F5F4FBE016C5D7F4FCE014E9615
:100AD0000E941426CE0101960E942C17CE01429648
:100AE0000E942C176FEF72E0CE0101960E94C8178A
:100AF00064EE72E0CE0142960E94C817AE014F5FCD
:100B00005F4FBE016E5E7F4FCE014E960E947B14FA
:100B1000CE0142960E942C17CE0101960E942C17FE
:100B200069EE72E0CE0142960E94C817BE016E5E69
:100B30007F4FCE014E960E9476154AE0BC01CE0151
:100B400001960E945D17CE0101960E947014AB01C0
:100B50004F5F5F4FBE01625E7F4FCE0148960E949D
:100B60001426CE0101960E942C17CE0142960E94B7
:100B70002C17BE01685E7F4FCE0142960E94BF17C0
:100B800005EE11E021E03DE0F32E6E01F5E0CF0E21
:100B9000D11C67EE73E0F8018081918128AB0E943F
:100BA000471DBC01CE0101960E94C817BE016E5EB2
:100BB0007F4FCE0101960E949A15E82ECE01019634
:100BC0000E942C1728A9EE2009F441C019821A822C
:100BD0001B821C82F6012F2D11922A95E9F7BE0186
:100BE0006F5F7F4FF801808191810E946D1DF80138
:100BF0008081918160E043960E94A01DF801808170
:100C0000918160E044960E94A01DF801808191814D
:100C100060E045960E94A01DF8018081918160E00E
:100C200046960E94A01D60E870E080E895E00E9472
:100C30003118BE016E5E7F4F80E895E00E946E180D
:100C40000E9420260E9465220E948D2020E0095EDD
:100C50001F4FF2E0043B1F0709F09BCF213089F4BE
:100C600068E670E080E895E00E943118BE016E5E93
:100C70007F4F80E895E00E946E180E9420260E9417
:100C8000A520CE0142960E942C17CE0148960E94C4
:100C90002C17CE014E960E942C17CE0184960E94EE
:100CA0002C176BEF73E0CE0101960E94B617BE01C0
:100CB0006F5F7F4F8DE496E00E9480158C01CE011E
:100CC00001960E942C1717FDB5C062EE72E0CE01AE
:100CD00001960E94C817BE016F5F7F4F8DE496E0BA
:100CE0000E9476154AE0BC01CE0142960E945D1733
:100CF000CE0142960E947014AB014F5F5F4F6DE4CE
:100D000076E0CE0148960E941426CE0142960E94BB
:100D10002C17CE0101960E942C176BEE72E0CE01CB
:100D200001960E94C817BE016F5F7F4FCE014896A3
:100D30000E9480154AE0BC01CE014E960E945D17CC
:100D4000CE014E960E9470149B0140E050E0BE011F
:100D5000685E7F4FCE0142960E94DD17CE014E960F
:100D60000E942C17CE0101960E942C176BEE72E0A8
:100D7000CE014E960E94C817BE01625E7F4F8DE481
:100D800096E00E9476154AE0BC01CE0184960E944E
:100D90005D17CE0184960E947014AB014F5F5F4FC8
:100DA0006DE476E0CE0101960E941426CE01849671
:100DB0000E942C17CE014E960E942C17CE01019650
:100DC0000E947014162FBE016E5E7F4FCE014E96AC
:100DD0000E94BF1741E150E068E373E0CE014E96F8
:100DE0000E94622B68E373E08EE190E00E946D1D2B
:100DF000612F80E390E00E94A01D61E081E390E01C
:100E00000E94A01D0E948C2580E895E00E946A182F
:100E10000E948D20CE014E960E942C17CE01019685
:100E20000E942C17CE0142960E942C17CE014896A4
:100E30000E942C1761EF73E0CE0101960E94B61755
:100E4000BE016F5F7F4F8DE496E00E9480158C019C
:100E5000CE0101960E942C1717FD67C062EE72E06A
:100E6000CE0101960E94C817BE016F5F7F4F8DE4CF
:100E700096E00E9476154AE0BC01CE0148960E9499
:100E80005D17CE0148960E947014AB014F5F5F4F13
:100E90006DE476E0CE0142960E941426CE0148967B
:100EA0000E942C17CE0101960E942C17BE016E5E87
:100EB0007F4FCE0101960E94BF17CE0101960E947E
:100EC0007014DC01CB010197A109B109CC97A105F0
:100ED000B10510F00C94FB11CE0101960E94701424
:100EE000162F8FE090E00E94A01D612F70E070939C
:100EF00001016093000160E970E080E895E00E94E4
:100F000031188FE090E00E94B01D6AE070E00E940E
:100F1000F62A0E9420260E948D20CE0101960E9472
:100F20002C17CE0142960E942C1760EE73E0CE0182
:100F300001960E94B617BE016F5F7F4F8DE496E069
:100F40000E9480158C01CE0101960E942C1717FD7E
:100F500060C062EE72E0CE0101960E94C817BE0129
:100F60006F5F7F4F8DE496E00E9476154AE0BC01EA
:100F7000CE0148960E945D17CE0148960E947014DB
:100F8000AB014F5F5F4F6DE476E0CE0142960E9469
:100F90001426CE0148960E942C17CE0101960E947D
:100FA0002C17BE016E5E7F4FCE0101960E94BF17C7
:100FB000CE0101960E9470146F3F71058105910565
:100FC00019F010F00C941112CE0101960E947014C9
:100FD000162F85E190E00E94A01D109318046FE980
:100FE00070E080E895E00E94311885E190E00E9471
:100FF000B01D6AE070E00E94F62A0E9420260E943E
:101000008D20CE0101960E942C17CE0142960E949F
:101010002C176FEC73E0CE0101960E94B617BE014B
:101020006F5F7F4F8DE496E00E9480158C01CE01AA
:1010300001960E942C1717FD60C062EE72E0CE018F
:1010400001960E94C817BE016F5F7F4F8DE496E046
:101050000E9476154AE0BC01CE0148960E945D17B9
:10106000CE0148960E947014AB014F5F5F4F6DE454
:1010700076E0CE0142960E941426CE0148960E9448
:101080002C17CE0101960E942C17BE016E5E7F4F79
:10109000CE0101960E94BF17CE0101960E947014E6
:1010A0006F3F71058105910519F010F00C94251220
:1010B000CE0101960E947014162F86E190E00E94E6
:1010C000A01D1093D20365EB70E080E895E00E94CC
:1010D000311886E190E00E94B01D6AE070E00E9445
:1010E000F62A0E9420260E948D20CE0101960E94A1
:1010F0002C17CE0142960E942C1760EC73E0CE01B3
:1011000001960E94B617BE016F5F7F4F8DE496E097
:101110000E9480158C01CE0101960E942C1717FDAC
:1011200060C062EE72E0CE0101960E94C817BE0157
:101130006F5F7F4F8DE496E00E9476154AE0BC0118
:10114000CE0148960E945D17CE0148960E94701409
:10115000AB014F5F5F4F6DE476E0CE0142960E9497
:101160001426CE0148960E942C17CE0101960E94AB
:101170002C17BE016E5E7F4FCE0101960E94BF17F5
:10118000CE0101960E9470146F3F71058105910593
:1011900019F010F00C943912CE0101960E947014CF
:1011A000162F87E190E00E94A01D1093D1036BECF5
:1011B00070E080E895E00E94311887E190E00E949D
:1011C000B01D6AE070E00E94F62A0E9420260E946C
:1011D0008D20CE0101960E942C17CE0142960E94CE
:1011E0002C1767EB73E0CE0101960E94B617BE0183
:1011F0006F5F7F4F8DE496E00E9480158C01CE01D9
:1012000001960E942C1717FD68C062EE72E0CE01B5
:1012100001960E94C817BE016F5F7F4F8DE496E074
:101220000E9476154AE0BC01CE0148960E945D17E7
:10123000CE0148960E947014AB014F5F5F4F6DE482
:1012400076E0CE0142960E941426CE0148960E9476
:101250002C17CE0101960E942C17BE016E5E7F4FA7
:10126000CE0101960E94BF17CE0101960E94701414
:10127000DC01CB010A97A109B109863F9105A105BF
:10128000B10510F00C944D12CE0101960E9470141D
:10129000162F88E190E00E94A01D612F70E07093EE
:1012A000B8016093B7016FED70E080E895E00E94AF
:1012B000311888E190E00E94B01D6AE070E00E9461
:1012C000F62A0E9420260E948D20CE0101960E94BF
:1012D0002C17CE0142960E942C176AEA73E0CE01C9
:1012E00001960E94B617BE016F5F7F4F8DE496E0B6
:1012F0000E9480158C01CE0101960E942C1717FDCB
:101300004EC062EE72E0CE0101960E94C817BE0187
:101310006F5F7F4F8DE496E00E9476154AE0BC0136
:10132000CE0148960E945D17CE0148960E94701427
:10133000AB014F5F5F4F6DE476E0CE0142960E94B5
:101340001426CE0148960E942C17CE0101960E94C9
:101350002C17BE016E5E7F4FCE0101960E94BF1713
:10136000CE0101960E947014DC01CB010197A10906
:10137000B109803C984AA105B10510F00C946312A4
:10138000CE0101960E947014CB010E94D223CE019F
:1013900001960E942C17CE0142960E942C1760EAFB
:1013A00073E0CE0101960E94B617BE016F5F7F4FBA
:1013B0008DE496E00E9480158C01CE0101960E947A
:1013C0002C1717FD1AC06FEF80E090E00E94A01D5F
:1013D0000E94F6236FEF83E690E00E94A01D0E941A
:1013E0006C236FEF81E390E00E94A01D0E948C258A
:1013F0000E948D20E0E0F0E0099565E973E0CE0100
:1014000001960E94B617BE016F5F7F4F8DE496E094
:101410000E9480158C01CE0101960E942C1717FDA9
:101420000CC06FEF83E690E00E94A01D0E946C2329
:101430000E948D20E0E0F0E0099569E873E0CE01BC
:1014400001960E94B617BE016F5F7F4F8DE496E054
:101450000E9480158C01CE0101960E942C1717FD69
:101460000CC06FEF80E090E00E94A01D0E94F62368
:101470000E948D20E0E0F0E009956DE773E0CE0179
:1014800001960E94B617BE016F5F7F4F8DE496E014
:101490000E9480158C01CE0101960E942C1717FD29
:1014A0000CC06FEF82E690E00E94A01D0E942426EF
:1014B0000E948D20E0E0F0E0099560E773E0CE0146
:1014C00001960E94B617BE016F5F7F4F8DE496E0D4
:1014D0000E9480158C01CE0101960E942C1717FDE9
:1014E00030C081E08093B30161E08BE090E00E9426
:1014F000A01D61E673E089E296E00E949D1680914E
:10150000FB038130F1F469EE72E0CE0101960E9496
:10151000C81761E476E0CE0101960E945116BC0125
:10152000CE0142960E94BF1760E0CE0142960E9413
:10153000B21DCE0142960E942C17CE0101960E9448
:101540002C1763E573E0CE0101960E94B617BE0129
:101550006F5F7F4F8DE496E00E9480158C01CE0175
:1015600001960E942C1717FD2FC01092B30160E066
:101570008BE090E00E94A01D63E473E089E296E0B6
:101580000E949D168091FB038130F1F469EE72E0B8
:10159000CE0101960E94C81761E476E0CE01019663
:1015A0000E945116BC01CE0142960E94BF1760E016
:1015B000CE0142960E94B21DCE0142960E942C1787
:1015C000CE0101960E942C176DE373E0CE010196C7
:1015D0000E94B617BE016F5F7F4F8DE496E00E94B8
:1015E00080158C01CE0101960E942C1717FD30C08A
:1015F00081E08093020161E08AE090E00E94A01DFA
:1016000066E373E089E296E00E949D168091FB03F9
:101610008130F1F469EE72E0CE0101960E94C817A4
:1016200061E476E0CE0101960E945116BC01CE0124
:1016300042960E94BF1760E0CE0142960E94B21D02
:10164000CE0142960E942C17CE0101960E942C17C3
:101650006FE273E0CE0101960E94B617BE016F5F84
:101660007F4F8DE496E00E9480158C01CE0101969B
:101670000E942C1717FD2FC067E273E089E296E005
:101680000E949D168091FB038130F1F469EE72E0B7
:10169000CE0101960E94C81761E476E0CE01019662
:1016A0000E945116BC01CE0142960E94BF1760E015
:1016B000CE0142960E94B21DCE0142960E942C1786
:1016C000CE0101960E942C171092020160E08AE080
:1016D00090E00E94A01D61E273E0CE0101960E949D
:1016E000B617BE016F5F7F4F8DE496E00E948015B4
:1016F0008C01CE0101960E942C1717FD30C081E0AD
:101700008093CF0361E082E190E00E94A01D6AE136
:1017100073E089E296E00E949D168091FB03813080
:10172000F1F469EE72E0CE0101960E94C81761E4FF
:1017300076E0CE0101960E945116BC01CE01429680
:101740000E94BF1760E0CE0142960E94B21DCE01FA
:1017500042960E942C17CE0101960E942C1763E13D
:1017600073E0CE0101960E94B617BE016F5F7F4FF6
:101770008DE496E00E9480158C01CE0101960E94B6
:101780002C1717FD2FC01092CF0360E082E190E08C
:101790000E94A01D6BE073E089E296E00E949D1616
:1017A0008091FB038130F1F469EE72E0CE01019685
:1017B0000E94C81761E476E0CE0101960E9451169E
:1017C000BC01CE0142960E94BF1760E0CE01429656
:1017D0000E94B21DCE0142960E942C17CE010196A6
:1017E0000E942C176DEF72E0CE0101960E94B61791
:1017F000BE016F5F7F4F8DE496E00E9480158C01E3
:10180000CE0101960E942C1717FD05C061E0809162
:10181000FB030E942B2A6FEE72E0CE0101960E941C
:10182000B617BE016F5F7F4F8DE496E00E94801572
:101830008C01CE0101960E942C1717FD05C062E0B5
:101840008091FB030E942B2A61EE72E0CE0101968B
:101850000E94B617BE016F5F7F4F8DE496E00E9435
:1018600080158C01CE0101960E942C1717FD33C004
:101870001091FB031092070160E083E190E00E9469
:10188000A01D6DEE70E089E296E00E949D16113079
:1018900011F58091FB038130F1F469EE72E0CE0125
:1018A00001960E94C81761E476E0CE0101960E947D
:1018B0005116BC01CE0142960E94BF1760E0CE01D6
:1018C00042960E94B21DCE0142960E942C17CE0174
:1018D00001960E942C1762ED72E0CE0101960E94E3
:1018E000B617BE016F5F7F4F8DE496E00E948015B2
:1018F0008C01CE0101960E942C1717FD34C0109167
:10190000FB0381E08093720361E084E190E00E9438
:10191000A01D61E071E089E296E00E949D16113001
:1019200011F58091FB038130F1F469EE72E0CE0194
:1019300001960E94C81761E476E0CE0101960E94EC
:101940005116BC01CE0142960E94BF1760E0CE0145
:1019500042960E94B21DCE0142960E942C17CE01E3
:1019600001960E942C1763EC72E0CE0101960E9452
:10197000B617BE016F5F7F4F8DE496E00E94801521
:101980008C01CE0101960E942C1717FD34C01091D6
:10199000FB0382E08093720362E084E190E00E94A6
:1019A000A01D6BE171E089E296E00E949D16113066
:1019B00011F58091FB038130F1F469EE72E0CE0104
:1019C00001960E94C81761E476E0CE0101960E945C
:1019D0005116BC01CE0142960E94BF1760E0CE01B5
:1019E00042960E94B21DCE0142960E942C17CE0153
:1019F00001960E942C1764EB72E0CE0101960E94C2
:101A0000B617BE016F5F7F4F8DE496E00E94801590
:101A10008C01CE0101960E942C1717FD33C0109146
:101A2000FB031092720360E084E190E00E94A01D2D
:101A300061E371E089E296E00E949D16113011F594
:101A40008091FB038130F1F469EE72E0CE010196E2
:101A50000E94C81761E476E0CE0101960E945116FB
:101A6000BC01CE0142960E94BF1760E0CE014296B3
:101A70000E94B21DCE0142960E942C17CE01019603
:101A80000E942C1769EA72E0CE0101960E94B617F7
:101A9000BE016F5F7F4F8DE496E00E9480158C0140
:101AA000CE0101960E942C1717FD26C16DE476E049
:101AB000CE018A960E94BF1762EE72E0CE01429676
:101AC0000E94C817BE016E5E7F4FCE018A960E94AB
:101AD00076154AE0BC01CE0101960E945D17CE0149
:101AE00001960E947014AB014F5F5F4FBE01665DAF
:101AF0007F4FCE0184960E941426CE0101960E944B
:101B00002C17CE0142960E942C176DEE72E0CE018A
:101B100001960E94C817BE016F5F7F4FCE01849669
:101B20000E948015092FCE0101960E942C176FEF9D
:101B300072E0CE0101960E94C8176DEE72E0CE01F0
:101B400042960E94C817AE014F5F5F4FBE016E5EA6
:101B50007F4FCE0184960E947B14CE0142960E9454
:101B60002C17CE0101960E942C1769EE72E0CE016F
:101B700042960E94C817BE016E5E7F4FCE018496CA
:101B80000E9480154AE0BC01CE0101960E945D17BB
:101B9000CE0101960E9470149B0140E050E0BE010E
:101BA0006C5D7F4FCE014E960E94DD17CE010196EF
:101BB0000E942C17CE0142960E942C1769EE72E00B
:101BC000CE0142960E94C817BE016E5E7F4FCE01C5
:101BD00084960E9476154AE0BC01CE0101960E94CF
:101BE0005D17CE0101960E947014AB014F5F5F4FED
:101BF000BE016C5D7F4FCE0148960E941426CE0137
:101C000001960E942C17CE0142960E942C17CE01FD
:101C10004E960E947014162FBE01685E7F4FCE0153
:101C200001960E94BF171150183048F065E571E029
:101C300080E895E00E9480180E94A52045C046E2F9
:101C400050E069E473E0CE0101960E94622BC12E40
:101C5000D12C25E1129FF0011124E85FFE4F83890A
:101C6000948929E4E22E23E0F22EFC01E954F340AA
:101C70005F01C5018E0D9F1DF70161917F019B8B57
:101C80008A8BCE0142960E94F425FFE6EF16F3E020
:101C9000FF0679F7602F6095661F6627661F85E14E
:101CA0008C9DF0018D9DF00D1124E85FFE4F83891E
:101CB000948987960E94A01D62E471E080E895E017
:101CC0000E9480180E948D200E9420260E945C1F86
:101CD000CE0101960E942C17CE0148960E942C1727
:101CE000CE014E960E942C17CE0184960E942C178E
:101CF000CE018A960E942C176BE972E0CE01019604
:101D00000E94B617BE016F5F7F4F8DE496E00E9480
:101D100080158C01CE0101960E942C1717FD0FC073
:101D20006DE476E0CE0101960E94BF1762E0CE011D
:101D300001960E949927CE0101960E942C1760E916
:101D400072E0CE0101960E94B617BE016F5F7F4F11
:101D50008DE496E00E9480158C01CE0101960E94D0
:101D60002C1717FD04C00E94F6230E948C2565E8FD
:101D700072E0CE0101960E94B617BE016F5F7F4FE1
:101D80008DE496E00E9480158C01CE0101960E94A0
:101D90002C1717FF0E945C1F6DE772E0CE010196C1
:101DA0000E94B617BE016F5F7F4F8DE496E00E94E0
:101DB00080158C01CE0101960E942C1717FD84C05E
:101DC0000E94C9352DEF30E040E050E00E9484369B
:101DD00082E0D82ED60E6FE871E080E895E00E9490
:101DE00031184AE060E074E080E090E00E94B32A9D
:101DF0006DE871E080E895E00E94801800E010E056
:101E00006D2DC8010E94763665E070E080E090E0BC
:101E10000E940D1B0F5F1F4F011524E0120781F771
:101E2000E12CF12C00E010E0C8010E94B01D8D15DE
:101E300029F16FE771E080E895E00E943118C80150
:101E40000E94B01DC82E4AE0B801CE0101960E9442
:101E5000311765E376E0CE0101960E9451166C2D94
:101E60000E948F16BC0180E895E00E946E18CE019A
:101E700001960E942C173FEFE31AF30A65E070E029
:101E800080E090E00E940D1B0F5F1F4F011584E062
:101E9000180751F669E771E080E895E00E94311873
:101EA000E114F10409F025C361E771E080E895E0F1
:101EB0000E9480180E94202664EF71E080E090E08C
:101EC0000E940D1BF701099565E772E0CE010196AE
:101ED0000E94B617BE016F5F7F4F8DE496E00E94AF
:101EE00080158C01CE0101960E942C1717FF0E94CD
:101EF00097266BE672E0CE0101960E94B617BE01EE
:101F00006F5F7F4F8DE496E00E9480158C01CE01BB
:101F100001960E942C1717FF0E94652264E672E06A
:101F2000CE0101960E94B617BE016F5F7F4F8DE410
:101F300096E00E9480158C01CE0101960E942C171C
:101F400017FD09C064EF71E080E090E00E940D1B76
:101F5000E0E0F0E009956CE572E0CE0101960E94A8
:101F6000B617BE016F5F7F4F8DE496E00E9480152B
:101F70008C01CE0101960E942C1717FD77C06AE5EF
:101F800072E0CE0142960E94B617BE016E5E7F4F90
:101F90008DE496E00E9476154AE0BC01CE01489699
:101FA0000E945D17CE0148960E947014AB014F5FEE
:101FB0005F4F6DE476E0CE0101960E941426CE01BB
:101FC00048960E942C17CE0142960E942C17CE01F3
:101FD00001960E947014DC01CB010197A109B1099F
:101FE0000A97A105B10508F08BC2CE0101960E94A7
:101FF0007014162F68EC71E080E895E00E943118AB
:102000008091FD03082E000C990B0E94292B6EEB8A
:1020100071E080E895E00E943118113029F41093A6
:10202000FD0368EB71E00BC0123029F41093FD033F
:1020300060EB71E004C01092FD0366EA71E080E895
:1020400095E00E94801868E971E080E895E00E94C0
:1020500031188091FD03082E000C990B0E94292B4A
:102060000E942026CE0101960E942C171092FC039C
:1020700065E572E0CE0101960E94B617BE016F5F62
:102080007F4F8DE496E00E9480158C01CE01019671
:102090000E942C1717FD51C069E472E089E296E0B6
:1020A0000E949D168091CF03811103C064E472E009
:1020B00002C060E472E089E296E00E94CC15409193
:1020C0003F065091400660913B0670913C0689E2C4
:1020D00096E00E940A1660ED77E080E090E00E94B2
:1020E0000D1B8091FB038130F1F469EE72E0CE01AB
:1020F00001960E94C81761E476E0CE0101960E9425
:102100005116BC01CE0142960E94BF1761E0CE017C
:1021100042960E94B21DCE0142960E942C17CE011B
:1021200001960E942C178091F803813031F469E206
:1021300076E080E895E00E946E186AE372E0CE01D6
:1021400001960E94B617BE016F5F7F4F8DE496E047
:102150000E9480158C01CE0101960E942C1717FD5C
:1021600022C08091F803813011F48093FA0368EE65
:1021700073E080E090E00E940D1B67ED71E089E55F
:1021800096E00E94311863E576E089E596E00E94CA
:10219000231860EF72E089E596E00E94551889E502
:1021A00096E00E946A1864E372E0CE0101960E94F4
:1021B000B617BE016F5F7F4F8DE496E00E948015D9
:1021C0008C01CE0101960E942C1717FD12C060E011
:1021D0008BE00E9413192091000130910101A0E6CB
:1021E000BAEE0E940F370E940D1B61E08BE00E9447
:1021F00013196CE272E0CE0101960E94B617BE017F
:102200006F5F7F4F8DE496E00E9480158C01CE01B8
:1022100001960E942C1717FD04C08091F8030E94BC
:102220006B2063E272E0CE0101960E94B617BE01F8
:102230006F5F7F4F8DE496E00E9480158C01CE0188
:1022400001960E942C1717FD0CC08091F803813075
:1022500011F48093FA031092D003109259050E9452
:10226000DB1F6CE172E0CE0101960E94B617BE0141
:102270006F5F7F4F8DE496E00E9480158C01CE0148
:1022800001960E942C1717FD0AC081E08093F90384
:1022900061E08CE090E00E94A01D0E94ED2064E1CE
:1022A00072E0CE0101960E94B617BE016F5F7F4FAC
:1022B0008DE496E00E9480158C01CE0101960E946B
:1022C0002C1717FD0DC01092F90360E08CE090E030
:1022D0000E94A01D61E08BE00E9413190E94ED2076
:1022E0006EE072E0CE0101960E94B617BE016F5FEC
:1022F0007F4F8DE496E00E9480158C01CE010196FF
:102300000E942C1717FD0CC081E08093B40161E09E
:102310008DE090E00E94A01D60E08CE00E94131907
:1023200067E072E0CE0101960E94B617BE016F5FB2
:102330007F4F8DE496E00E9480158C01CE010196BE
:102340000E942C1717FD0BC01092B40160E08DE0C5
:1023500090E00E94A01D61E08CE00E9413196EEFD6
:1023600071E0CE0101960E94B617BE016F5F7F4FEC
:102370008DE496E00E9480158C01CE0101960E94AA
:102380002C1717FD23C065EF71E089E596E00E94E8
:1023900031188091FD03813031F461EF71E089E5FE
:1023A00096E00E9480188091FD038250823030F4C4
:1023B0006FEE71E089E596E00E94801863EE71E0AF
:1023C00080E895E00E9480180E948D201092FB0307
:1023D0001092F803E0960FB6F894DEBF0FBECDBFA3
:1023E000DF91CF911F910F91FF90EF90DF90CF90F1
:1023F000BF90AF90089560910001709101014AE093
:10240000CE0148960E943117BE01685E7F4FCE0113
:1024100001960E94F316CE0148960E942C170C9448
:102420006C074AE060911804CE0148960E94891713
:10243000BE01685E7F4FCE0101960E94F316CE0169
:1024400048960E942C170C94E4074AE06091D2034E
:10245000CE0148960E948917BE01685E7F4FCE016B
:1024600001960E94F316CE0148960E942C170C94F8
:1024700058084AE06091D103CE0148960E9489171E
:10248000BE01685E7F4FCE0101960E94F316CE0119
:1024900048960E942C170C94CC086091B70170915B
:1024A000B8014AE0CE0148960E943117BE01685E2D
:1024B0007F4FCE0101960E94F316CE0148960E94EE
:1024C0002C170C9444096091B0017091B1014AE05D
:1024D000CE0148960E943117BE01685E7F4FCE0143
:1024E00001960E94F316CE0148960E942C170C9478
:1024F000C00969E671E080E895E00E948018E4CCAC
:102500006091FD03062E000C770B4AE0CE01429647
:102510000E945D17BE016E5E7F4FCE0101960E9444
:10252000F316CE0142960E942C175FCD0895CF92EC
:10253000DF92EF92FF920F931F93CF93DF936C0183
:102540007A018B01C0E0D0E0CE15DF0589F0D8011B
:102550006D918D01D601ED91FC910190F081E02DFE
:10256000C6010995892B11F47E0102C02196ECCF9A
:10257000C701DF91CF911F910F91FF90EF90DF90F6
:10258000CF900895FC01538D448D252F30E0842F8A
:1025900090E0821B930B541710F0CF96089501978B
:1025A0000895FC01918D828D981761F0828DDF0175
:1025B000A80FB11D5D968C91928D9F5F9F73928F36
:1025C00090E008958FEF9FEF0895FC01918D828D2B
:1025D000981731F0828DE80FF11D858D90E00895F8
:1025E0008FEF9FEF0895FC01918D228D892F90E050
:1025F000805C9F4F821B91098F739927089580E813
:1026000095E00E94F31221E0892B09F420E0822F4B
:102610000895FC01848DDF01A80FB11DA35ABF4F9F
:102620002C91848D90E001968F739927848FA689D1
:10263000B7892C93A089B1898C9180648C93938DF8
:10264000848D981306C00288F389E02D80818F7DE8
:1026500080830895EF92FF920F931F93CF93DF93A0
:10266000EC0181E0888F9B8D8C8D981305C0E889E3
:10267000F989808185FD24C0F62E0B8D10E00F5F57
:102680001F4F0F731127E02E8C8DE8120CC00FB670
:1026900007FCFACFE889F989808185FFF5CFCE0163
:1026A0000E940913F1CF8B8DFE01E80FF11DE35A53
:1026B000FF4FF0820B8FEA89FB898081806207C01F
:1026C000EE89FF896083E889F9898081806480834D
:1026D00081E090E0DF91CF911F910F91FF90EF90FB
:1026E0000895CF93DF93EC01888D8823C9F0EA89A0
:1026F000FB89808185FD05C0A889B9898C9186FDFB
:102700000FC00FB607FCF5CF808185FFF2CFA889F7
:10271000B9898C9185FFEDCFCE010E940913E7CFD7
:10272000DF91CF91089580E090E0892B29F00E94FD
:10273000FF1281110C9400000895833081F028F479
:10274000813099F08230A1F008958730A9F0883067
:10275000B9F08430D1F4809180008F7D03C08091E6
:1027600080008F7780938000089584B58F7702C0B2
:1027700084B58F7D84BD08958091B0008F7703C0AC
:102780008091B0008F7D8093B00008950E944339FE
:10279000AF92BF92CF92DF92EF92FF920F931F936F
:1027A000CF93DF937B018A01FB0144815581411561
:1027B000510561F1FC01248135812115310531F18B
:1027C0002417350718F10217130718F08901015073
:1027D0001109FC01A080B180C501DFEFCFEF6501D9
:1027E000C00ED11EC816D906A0F0F7016081718114
:1027F0000E948A39009769F09C012A193B09021747
:10280000130710F0D22FC32F0196ECCF8FEF9FEF5D
:1028100002C08D2F9C2FDF91CF911F910F91FF90C0
:10282000EF90DF90CF90BF90AF9008950F931F93DC
:10283000CF93DF93EC0188819981009729F02A8159
:102840003B812617370788F48B016F5F7F4F0E940B
:102850007938009761F0998388831B830A832C81E0
:102860003D81232B11F4FC01108281E001C080E046
:10287000DF91CF911F910F910895CF93DF93EC01DA
:1028800088819981009711F00E94E137198218829E
:102890001D821C821B821A82DF91CF910895EF92D4
:1028A000FF920F931F93CF93DF93EC017B018A017B
:1028B000BA010E941614811104C0CE010E943D1479
:1028C00007C01D830C83B701888199810E947439E8
:1028D000CE01DF91CF911F910F91FF90EF9008955E
:1028E000FC0180819181009711F00C94D73560E054
:1028F00070E0CB0108952F923F924F925F926F92BA
:102900007F928F929F92AF92BF92CF92DF92EF927F
:10291000FF920F931F93CF93DF93FC014480558068
:102920004114510409F4CFC0FB0164807580611427
:10293000710409F4C8C07A016B01EC01FA01A480AA
:10294000B580A618B70808811981A114B104C1F493
:10295000F60160817181C8010E948A39EC01892BDE
:1029600009F4B1C0F7016081718144815581CE01C4
:102970000E945039F701048115810C0F1D1FE8CF0B
:10298000B7FE02C0480106C0FB0120803180420131
:10299000C80142C0F60160817181C4010E948A3978
:1029A0002C01892B19F1320168187908A301B401AF
:1029B000C8010E945039060D171DF7016081718111
:1029C00044815581C8010E945039F7018481958165
:1029D000080F191FF60184809580840C951C8C814A
:1029E0009D818A0D9B1D9D838C83D4CFB401C8012A
:1029F000DF91CF911F910F91FF90EF90DF90CF90DB
:102A0000BF90AF909F908F907F906F905F904F900E
:102A10003F902F900C947439B1010E948A3900972D
:102A200029F0860D971D8A0C9B1CF6CF8414950403
:102A300009F449C08A819B818815990560F4B40125
:102A40006F5F7F4FC8010E9479380097E1F1998349
:102A500088839B828A824C815D814150510957FD58
:102A600032C0B601CE010E94C8138C0197FD2BC065
:102A700088819981F60124813581200F311F820FD1
:102A8000931F4C815D81421B530BBC018A0D9B1D22
:102A90000E9459398C819D818A0D9B1D9D838C8359
:102AA00028813981F901E80FF91F10828881998105
:102AB000F7016081718144815581800F911F0E94CF
:102AC0005039A801CACFDF91CF911F910F91FF908C
:102AD000EF90DF90CF90BF90AF909F908F907F90BE
:102AE0006F905F904F903F902F900895FC0144812C
:102AF0005581FB0124813581421B530B0C94C81373
:102B0000CF93DF93FC0124813581232B71F0FB01EE
:102B1000DC01CD91DC9160817181CE010E948A3906
:102B2000009719F08C1B9D0B02C08FEF9FEFDF9178
:102B3000CF910895FC0124813581FB0144815581A9
:102B40002417350721F5FC0180819181FB0160810B
:102B50007181009719F061157105A1F46115710576
:102B600049F0232BB1F0FB01808190E09195819594
:102B700091090AC0009769F0232B59F0FC0180816C
:102B800090E002C00E946B3921E0892B19F020E00F
:102B900001C021E0822F0895EF92FF920F931F93BF
:102BA000CF93DF936115710511F480E01EC08B0196
:102BB000EC01CB010E9405360097B1F02C813D81DC
:102BC0007C01E20EF31EB701CE010E941614882389
:102BD00061F3288139818C819D81B801820F931F17
:102BE0000E94FE35FD82EC8281E0DF91CF911F9142
:102BF0000F91FF90EF900895CF93DF93EC010E9427
:102C0000CC15811103C0CE010E943D14CE01DF918D
:102C1000CF910895EF92FF920F931F93CF93DF937D
:102C2000FC01248135816115710511F480E019C022
:102C300041155105A9F07B01EC018A01020F131F18
:102C4000B8010E941614882389F3288139818C8168
:102C50009D81B701820F931F0E9474391D830C83DD
:102C600081E0DF91CF911F910F91FF90EF90089538
:102C7000CF93DF93EC016115710561F0FB010190C9
:102C80000020E9F73197AF01461B570B0E940A1647
:102C9000811103C0CE010E943D14CE01DF91CF917E
:102CA0000895CF93DF93EC01FB014481558160814E
:102CB00071810E940A16811103C0CE010E943D1449
:102CC000CE01DF91CF910895EF92FF920F931F9362
:102CD000CF93DF9300D000D0CDB7DEB77C01862F35
:102CE0004AE08E010F5F1F4FB80190E00E94193635
:102CF000F80101900020E9F73197AF01401B510B1B
:102D0000B801C7010E940A160F900F900F900F9004
:102D1000DF91CF911F910F91FF90EF900895CF9386
:102D2000DF93EC010E946416811103C0CE010E9462
:102D30003D14CE01DF91CF910895EF92FF920F9352
:102D40001F93CF93DF93EC018B016115710551F057
:102D5000CB010E9405367C01BC01CE010E941614F5
:102D6000811104C0CE010E943D1407C0FD82EC8297
:102D7000B801888199810E94FE35CE01DF91CF9103
:102D80001F910F91FF90EF900895CF93DF93EC0187
:102D90006115710559F0FB0101900020E9F73197A9
:102DA000AF01461B570B0E944F1402C00E943D14F6
:102DB000CE01DF91CF910895CF93DF93EC01FB011A
:102DC0008617970761F0608171816115710529F09F
:102DD000448155810E944F1402C00E943D14CE01CF
:102DE000DF91CF9108950F931F93CF93DF938C01C1
:102DF000EB01FC01808191810097B1F068817981BC
:102E00006115710579F0428153812C813D81421712
:102E1000530740F00E9474398C819D81F80195839D
:102E2000848313C00E94E13788819981F8019183DE
:102E300080838A819B81938382838C819D8195830A
:102E40008483198218821B821A821D821C82DF9160
:102E5000CF911F910F910895FC01808191810C9475
:102E6000E1370F931F93CF93DF93CDB7DEB7619711
:102E70000FB6F894DEBF0FBECDBF8C01CB01F801B9
:102E800011821082138212821582148250E0BE01D8
:102E90006F5F7F4F0E943936BE016F5F7F4FC80161
:102EA0000E94C51661960FB6F894DEBF0FBECDBF67
:102EB000DF91CF911F910F9108950F931F93CF939F
:102EC000DF93CDB7DEB762970FB6F894DEBF0FBEC3
:102ED000CDBF8C01CB01F8011182108213821282C6
:102EE0001582148250E0BE016F5F7F4F0E940E3644
:102EF000BE016F5F7F4FC8010E94C51662960FB674
:102F0000F894DEBF0FBECDBFDF91CF911F910F911F
:102F100008950F931F93CF93DF93CDB7DEB7299713
:102F20000FB6F894DEBF0FBECDBF8C01862FF8011F
:102F300011821082138212821582148250E0BE0127
:102F40006F5F7F4F90E00E943936BE016F5F7F4F09
:102F5000C8010E94C51629960FB6F894DEBF0FBEB1
:102F6000CDBFDF91CF911F910F910895FC01118288
:102F7000108213821282158214820C949D16FC0119
:102F80001182108213821282158214820C94DC1634
:102F9000FC01118210821382128215821482611543
:102FA000710551F0FB0101900020E9F73197AF0165
:102FB000461B570B0C944F140895BF92CF92DF928B
:102FC000EF92FF920F931F93CF93DF937C016B01DE
:102FD0008A01E9012417350720F4812F8901C42FC4
:102FE000D82F6FEF72E0C7010E94C817D601149660
:102FF0008D919C91159708171907D0F48C179D0790
:1030000008F4EC01D601ED91FC911197EC0FFD1F36
:10301000B08010824D915C91BA01600F711FC701A1
:103020000E94C516D601ED91FC91EC0FFD1FB082F8
:10303000C701DF91CF911F910F91FF90EF90DF902B
:10304000CF90BF900895DC01ED91FC91DB011496C7
:103050004D915C9115976D917C910280F381E02DEB
:103060000994EF92FF920F931F93CF93DF938C01FC
:103070007B01C0E0D0E0F701EC0FFD1F64916623F7
:1030800061F0D801ED91FC910190F081E02DC80133
:103090000995892B11F02196EECFCE01DF91CF91CA
:1030A0001F910F91FF90EF9008956115710579F0D0
:1030B000FB0101900020E9F73197AF01461B570B48
:1030C000DC01ED91FC910280F381E02D099480E018
:1030D00090E008956DEF72E00C9455180F931F93D4
:1030E000CF93DF93EC010E9423188C01CE010E9444
:1030F0006A18800F911FDF91CF911F910F91089552
:103100000F931F93CF93DF93EC010E9431188C0132
:10311000CE010E946A18800F911FDF91CF911F91FD
:103120000F9108951F920F920FB60F9211242F93B3
:103130003F934F935F936F937F938F939F93AF933F
:10314000BF93EF93FF9380E895E00E940913FF91EE
:10315000EF91BF91AF919F918F917F916F915F910F
:103160004F913F912F910F900FBE0F901F90189588
:103170001F920F920FB60F9211242F938F939F934C
:10318000EF93FF93E0919005F09191058081E0919C
:103190009605F091970582FD12C090818091990566
:1031A0008F5F8F7320919A05821751F0E0919905F6
:1031B000F0E0E058FA4F958F8093990501C0808127
:1031C000FF91EF919F918F912F910F900FBE0F90D4
:1031D0001F901895CF93DF93282F30E0F901EB5E15
:1031E000FA4F8491F901EB53F74FD491F901EF5461
:1031F000F74FC491CC2391F081110E949D13EC2FC5
:10320000F0E0EE0FFF1FE955F74FA591B491EC9157
:10321000ED2381E090E021F480E002C080E090E0C6
:10322000DF91CF9108951F93CF93DF93282F30E044
:10323000F901EB5EFA4F8491F901EB53F74FD4910A
:10324000F901EF54F74FC491CC23C9F0162F811127
:103250000E949D13EC2FF0E0EE0FFF1FE356F74F97
:10326000A591B4918FB7F894111105C09C91ED2FE1
:10327000E095E92302C0EC91ED2BEC938FBFDF9139
:10328000CF911F910895CF93DF9390E0FC01EB5312
:10329000F74F2491FC01EF54F74F8491882361F19B
:1032A00090E0880F991FFC01E55FFA4FC591D4911A
:1032B000FC01E356F74FA591B491611109C09FB786
:1032C000F8948881209582238883EC912E230BC06B
:1032D000623061F49FB7F8943881822F8095832300
:1032E0008883EC912E2B2C939FBF06C08FB7F89448
:1032F000E8812E2B28838FBFDF91CF9108953FB7B0
:10330000F89480914E0590914F05A0915005B09191
:10331000510526B5A89B05C02F3F19F00196A11DA8
:10332000B11D3FBFBA2FA92F982F8827820F911D5B
:10333000A11DB11DBC01CD0142E0660F771F881FA2
:10334000991F4A95D1F7089585ED8093BC0080912F
:10335000BC0084FDFCCF1092990308954091240590
:10336000262F30E0240F311D21323105DCF420916D
:1033700099032430C9F4FC0180E090E0861758F4EA
:10338000309124052191DC01AE5FBA4FA30FB11D2E
:103390002C930196F3CF80912405680F6093240548
:1033A00080E0089581E0089582E008950895E09115
:1033B000BA038091BB03E81730F4F0E0E656FC4F07
:1033C000808190E008958FEF9FEF08959091BA0368
:1033D0008091BB03981750F4E92FF0E0E656FC4FBC
:1033E000208130E09F5F9093BA0302C02FEF3FEF40
:1033F000C90108958091BB0390E02091BA03821B1C
:1034000091090895CF92DF92EF92FF920F931F934D
:10341000CF93DF937C01262F972F8A01809141045F
:10342000882391F0C62FD72F6E01C40ED51ECC1560
:10343000DD0571F06991D701ED91FC910190F0816A
:10344000E02DC7010995F3CF642F822F0E94AE199A
:10345000C801DF91CF911F910F91FF90EF90DF9006
:10346000CF900895CF93DF931F92CDB7DEB76983D6
:10347000209141042223D1F020916F03203240F0AB
:1034800021E030E0FC013383228380E090E015C02E
:1034900080917003E82FF0E0EF5DFB4F99819083FE
:1034A0008F5F8093700380936F0305C061E0CE014E
:1034B00001960E94AE1981E090E00F90DF91CF91CC
:1034C000089520911F04309120042817390771F4C2
:1034D00090911E0480911D04981741F0E0911E0404
:1034E000F0E0EE5BFB4F808190E008958FEF9FEF5F
:1034F000089508951F93CF93DF93DC015C962D917F
:103500003C915D972115310539F481E090E01396E7
:103510009C938E9312973DC05196ED91FC915297DA
:1035200050969C915097892F80951FB75E964C912D
:103530005E9741FB772770F941FD6095F8944081D3
:10354000772311F0492B01C048234083E9012197DB
:10355000F1F748E0508160FF02C0592B01C05823A9
:103560005083E9012197F1F76695415099F7772348
:1035700021F090818923808303C08081982B9083E0
:103580001FBF5C968D919C915D970197F1F721E0AB
:1035900030E0C901DF91CF911F91089520911F0460
:1035A000309120042817390771F480911D0420916F
:1035B0001E0490E080549F4F821B910960EC70E0E4
:1035C0000E941E37089580E090E0089520911F0426
:1035D0003091200428173907C9F490911E04809176
:1035E0001D04981799F0E0911E04F0E0EE5BFB4F8C
:1035F000208180911E0490E0019660EC70E00E94B2
:103600001E3780931E04822F90E008958FEF9FEF66
:103610000895089580E090E008958F929F92AF9270
:10362000BF92CF92DF92EF92FF926B017C010E94DA
:103630007F194B015C01C114D104E104F104F1F0E4
:103640000E947F19DC01CB0188199909AA09BB09DD
:10365000883E9340A105B10570F321E0C21AD1085C
:10366000E108F10888EE880E83E0981EA11CB11CC9
:10367000C114D104E104F10419F7DDCFFF90EF90FC
:10368000DF90CF90BF90AF909F908F9008952FB70D
:10369000F89460914A0570914B0580914C0590918A
:1036A0004D052FBF08951F920F920FB60F92112450
:1036B0002F933F938F939F93AF93BF9380914A052E
:1036C00090914B05A0914C05B0914D053091490565
:1036D00023E0230F2D3720F40196A11DB11D05C055
:1036E00026E8230F0296A11DB11D20934905809362
:1036F0004A0590934B05A0934C05B0934D058091DE
:103700004E0590914F05A0915005B091510501963D
:10371000A11DB11D80934E0590934F05A0935005B8
:10372000B0935105BF91AF919F918F913F912F9190
:103730000F900FBE0F901F9018951F920F920FB60B
:103740000F9211242F933F934F935F936F937F9327
:103750008F939F93AF93BF93EF93FF938091B900A3
:10376000887F803609F49CC068F5883209F45BC014
:1037700090F4803109F454C038F4882309F4F6C079
:10378000883009F44DC0F6C0883109F44CC080324D
:1037900009F45DC0EFC0803409F468C048F4803398
:1037A00009F455C0883309F0E5C080939703D8C069
:1037B000803509F44FC0883509F45DC0883409F0BC
:1037C000D9C0D6C0883909F4C7C0A8F4883709F42D
:1037D00067C038F4883609F463C0803709F460C0E4
:1037E000C9C0883809F4B8C0803909F45FC080388E
:1037F00009F0C0C05BC0803B09F486C038F4803A51
:1038000009F466C0883A09F47FC0B4C0803C09F46A
:10381000A7C0883C09F4A4C0883B09F48AC0AAC0A8
:103820008091940310C0909196038091950398170E
:1038300070F5E091960381E08E0F80939603F0E09F
:10384000ED58FC4F80818093BB0085EC86C080934F
:1038500097038EC0E091960381E08E0F80939603CC
:103860008091BB00F0E0ED58FC4F8083909196036F
:10387000809195036EC0E091960381E08E0F809356
:1038800096038091BB00F0E0ED58FC4F808380915F
:10389000980381116DC081E08093930384EA61C035
:1038A00083E08093990310924805CFCF809148051B
:1038B000803208F051C0E091480581E08E0F80937E
:1038C00048058091BB00F0E0E85DFA4F8083BDCFF2
:1038D00085EC8093BC00109299038091480580325A
:1038E00030F4E0914805F0E0E85DFA4F1082609115
:1038F000480570E0E0912605F091270588E295E003
:1039000009951092480536C084E08093990310927F
:10391000250510922405E0912205F09123050995D3
:1039200080912405811105C081E0809324051092C7
:103930000205E091250581E08E0F80932505F0E0DA
:10394000EE5FFA4F80818093BB00909125058091B6
:103950002405981708F479CF85E88093BC000AC045
:1039600085EC8093BC001092990304C010929703D9
:103970000E94A419FF91EF91BF91AF919F918F91F8
:103980007F916F915F914F913F912F910F900FBE5B
:103990000F901F9018951F920F920FB60F9211243F
:1039A0002F933F934F935F936F937F938F939F9347
:1039B000AF93BF93EF93FF93E0911F04F091200426
:1039C000309709F453C0968DA685B785858591FFFC
:1039D00004C09C91892329F449C09C91892309F052
:1039E00045C0A389B4899C918589809589238C934E
:1039F000868997890197F1F7608D718DA685B785C6
:103A0000558538E020E0CB010197F1F7822F90E057
:103A100095958795282F4C91452309F020683150C2
:103A200091F7868D81FD209580911D0490E001968F
:103A300060EC70E00E941E3790911E04981749F0C8
:103A4000A0911D04B0E0AE5BBB4F2C9380931D048E
:103A500003C0868D8160868F828D938D0197F1F7EB
:103A6000A389B4899C918589892B8C93FF91EF91CF
:103A7000BF91AF919F918F917F916F915F914F9186
:103A80003F912F910F900FBE0F901F901895CF92DE
:103A9000DF92EF92FF920F931F93CF93DF93EB018F
:103AA0007B0121E1E20EF11C8B016C01C61AD70AE1
:103AB000C601800F911F0E946E36F80181938F011D
:103AC000EE15FF05A9F7CE01DF91CF911F910F9160
:103AD000FF90EF90DF90CF900895AF92BF92CF927A
:103AE000DF92EF92FF920F931F93CF93DF9300D05B
:103AF000CDB7DEB78B016B0121E1C20ED11C7B017A
:103B00005C01A61AB70A95012E0D3F1DF7016191C0
:103B10007F013A832983CE0101960E94F425EC149B
:103B2000FD0489F7C8010F900F90DF91CF911F918D
:103B30000F91FF90EF90DF90CF90BF90AF900895DE
:103B4000CF93DF9300D0CDB7DEB79A838983CE01C0
:103B500001960E94F4250F900F90DF91CF91089568
:103B60000C946E36CF93DF93EC018091020181308B
:103B700019F0613009F047C068EE73E080E090E032
:103B80000E940D1B60E475E089E596E00E94311803
:103B9000BE0189E596E00E9423186EE375E089E591
:103BA00096E00E94801864EF71E080E090E00E944F
:103BB0000D1B69E276E089E596E00E94231864EF28
:103BC00071E080E090E00E940D1BE0915906F091B9
:103BD0005A060190F081E02D6AE189E596E00995A9
:103BE00064EF71E080E090E00E940D1B64E073E000
:103BF00080E895E00E94551868E873E180E090E065
:103C00000E940D1B06C060E073E080E895E00E9412
:103C10005518BE0180E895E00E94231865E376E020
:103C200080E895E00E94231869E276E080E895E05C
:103C3000DF91CF910C946E180F931F93CF93DF9366
:103C4000CDB7DEB762970FB6F894DEBF0FBECDBF1B
:103C50000E94471B0091190410911A0420911B0423
:103C600030911C04601B710B820B930B28EE33E028
:103C700040E050E00E94ED368091180490E0A0E012
:103C8000B0E082179307A407B50708F076C011E0EB
:103C90001093B60161E08EE090E00E94A01D1093A9
:103CA000B2016AE475E08BE396E00E949D160E94E3
:103CB000B81F6BE376E080E895E00E946E186BE336
:103CC00076E089E296E00E94DC1668EE73E080E020
:103CD00090E00E940D1B09EB11E0F801858996899F
:103CE00046960E94B01D8130D9F568EE73E080E001
:103CF00090E00E940D1B67EE73E0F80185899689BC
:103D00000E94471DBC01CE0107960E94C81769EEAC
:103D100072E0CE010D960E94C817BE01695F7F4F09
:103D2000CE010D960E945116BC01CE0101960E9453
:103D3000BF1760E0CE0101960E94B21DCE01019630
:103D40000E942C17CE010D960E942C17CE010796CB
:103D50000E942C1768EE73E080E090E00E940D1B3B
:103D6000095E1F4FF2E00F391F0709F0B6CF10921E
:103D700071031092FA031092D00362960FB6F89472
:103D8000DEBF0FBECDBFDF91CF911F910F91089580
:103D900060ED77E080E090E00E940D1B66E375E047
:103DA00089E596E00E9480181092D5030895AF929D
:103DB000BF92CF92DF92FF920F931F93CF93DF9327
:103DC000CDB7DEB762970FB6F894DEBF0FBECDBF9A
:103DD0009091B601913049F4162F082F89EBA82E47
:103DE00081E0B82E9AE0F92E48C0813009F054C025
:103DF000F3CF1230E1F5F501C588D688C6014596A6
:103E00000E94B01D813099F567EE73E0C6010E94F3
:103E1000471DBC01CE0107960E94C81769EE72E0EB
:103E2000CE0101960E94C817BE01695F7F4FCE0187
:103E300001960E945116BC01CE010D960E94BF173B
:103E4000602FCE010D960E94B21DCE010D960E94EC
:103E50002C17CE0101960E942C17CE0107960E94C6
:103E60002C1768EE73E080E090E00E940D1BFA943E
:103E7000F7E1AF0EB11CFF2049F0113009F0B9CFC6
:103E8000F501C588D688C6014396BACF113021F412
:103E90001093D3031093D40362960FB6F894DEBF49
:103EA0000FBECDBFDF91CF911F910F91FF90DF909B
:103EB000CF90BF90AF900895DF92EF92FF920F9353
:103EC0001F93CF93DF9300D000D000D0CDB7DEB7E3
:103ED00069E275E080E895E00E94801888E0E82EAD
:103EE00081E0F82E00E010E0F701838994890E94B8
:103EF000992AF7018389948987960E94B01DD82E4C
:103F00000F5F1F4F4AE0B801CE0101960E945D1776
:103F100065E376E0CE0101960E9451166AE575E0F0
:103F20000E94381665E376E00E9451166D2D0E94BE
:103F30008F16BC0180E895E00E946E18CE010196B4
:103F40000E942C17F5E1EF0EF11C0830110561F607
:103F50000E94202626960FB6F894DEBF0FBECDBF76
:103F6000DF91CF911F910F91FF90EF90DF90089517
:103F700080917103813019F46BE677E006C080917F
:103F8000FA03813031F46CE777E08BE396E00C9430
:103F9000CC1563E777E08BE396E00E94CC15409167
:103FA00045065091460660914106709142068BE3AA
:103FB00096E00C940A160F931F93CF93DF93CDB71F
:103FC000DEB762970FB6F894DEBF0FBECDBF10927A
:103FD000B60160E08EE090E00E94A01D60E677E010
:103FE0008BE396E00E949D160E94B81F6BE376E07B
:103FF00080E895E00E946E186BE376E089E296E037
:104000000E94DC1668EE73E080E090E00E940D1BD9
:1040100009EB11E0F8018589968946960E94B01D4A
:104020008130D9F568EE73E080E090E00E940D1BCE
:1040300067EE73E0F801858996890E94471DBC01EF
:10404000CE0107960E94C81769EE72E0CE01019674
:104050000E94C817BE01695F7F4FCE0101960E9482
:104060005116BC01CE010D960E94BF1760E0CE0133
:104070000D960E94B21DCE010D960E942C17CE0106
:1040800001960E942C17CE0107960E942C1768EE0D
:1040900073E080E090E00E940D1B095E1F4FF2E08C
:1040A0000F391F0709F0B6CF80917203823021F4D7
:1040B0001092040110920301109271031092FA03FE
:1040C00062960FB6F894DEBF0FBECDBFDF91CF91E1
:1040D0001F910F910895813011F48093FA030E948B
:1040E000471B6093190470931A0480931B049093E8
:1040F0001C0481E08093D0030C941C1E8091B601B7
:10410000813031F41092D003109259050C94DB1FCA
:10411000811102C00C946B20089561E08BE00E9435
:10412000131964E670E080E090E00E940D1B60E0EF
:104130008BE00E94131964E670E080E090E00E943A
:104140000D1B61E08BE00C9413190E948D200C94E0
:104150008D20CF92DF92FF920F931F93CF93DF9327
:1041600000D000D000D0CDB7DEB76C0109EB11E074
:1041700067EE73E0F801858996890E94471DBC01AE
:10418000CE0101960E94C817B601CE0101960E9489
:104190009A15F82ECE0101960E942C17FF2041F0AF
:1041A000B60181E496E00E94DC16FF24F39406C079
:1041B000095E1F4FF2E00F391F07D1F68F2D2696AB
:1041C0000FB6F894DEBF0FBECDBFDF91CF911F9128
:1041D0000F91FF90DF90CF9008950F931F93CF938F
:1041E000DF9300D000D000D0CDB7DEB760ED77E030
:1041F00080E090E00E940D1B0E94712A10927406CC
:104200001092730610927206109271061092700648
:1042100010926F068DE991E0909376068093750673
:1042200090916506963108F057C02DEB30E0309341
:10423000700620936F062BE931E0309372062093CD
:1042400071062CE231E030937406209373062091BE
:104250006800983050F031E09E3008F430E081E0A2
:1042600001C0880F3A95EAF701C084E0822B809361
:104270006800983038F09E3040F0963148F020E0E9
:1042800030E008C02DE630E005C02BE630E002C08B
:104290002CE630E030936D0620936C06983030F4B5
:1042A00081E001C0880F9A95EAF70EC0292F30E00F
:1042B0009E3018F42850310902C02E50310981E097
:1042C00001C0880F2A95EAF780936E0680917506E3
:1042D000909176060197F1F780917306909174069C
:1042E000892B49F1E0911F04F091200486E0E93523
:1042F000F80709F1309739F0A389B4899C91858931
:10430000809589238C93809177068E7F80937706A2
:1043100010921D0410921E0489E596E090932004EB
:1043200080931F04E0916C06F0916D06908180915E
:104330006E06892B80831AE06DE577E089E596E0CB
:104340000E94801868EC70E080E090E00E940D1BF5
:10435000115091F769E577E089E596E00E948018B1
:104360006AE070E080E090E00E940D1B89E596E035
:104370000E94CE1A892B09F460C089E596E00E945C
:10438000CE1A892B79F089E596E00E94E61A80938F
:10439000FE030E949B2B64E170E080E090E00E94AD
:1043A0000D1BEBCF64E577E0CE0101960E94B617B6
:1043B000BE016F5F7F4F8DE496E00E9480158C01F7
:1043C000CE0101960E942C1717FD03C081E0809357
:1043D000FD036DE477E0CE0101960E94B617BE01A1
:1043E0006F5F7F4F8DE496E00E9480158C01CE01B7
:1043F00001960E942C1717FD03C082E08093FD03F5
:104400006AE477E0CE0101960E94B617BE016F5FA5
:104410007F4F8DE496E00E9480158C01CE010196BD
:104420000E942C1717FD03C083E08093FD036FEFFC
:1044300072E08DE496E00E94C51660E477E089E5BD
:1044400096E00E94801864E670E080E090E00E94B0
:104450000D1B66E377E089E596E00E94801864E62C
:1044600070E080E090E00E940D1B68E277E089E553
:1044700096E00E94801864E670E080E090E00E9480
:104480000D1B6CE177E089E596E00E94801864E6F8
:1044900070E080E090E00E940D1B8091F903813074
:1044A00019F467E177E002C062E177E089E596E020
:1044B0000E94801826960FB6F894DEBF0FBECDBFBF
:1044C000DF91CF911F910F910895AF92BF92CF923C
:1044D000DF92EF92FF920F931F93CF93DF9300D061
:1044E00000D000D0CDB7DEB76DEF75E080E895E085
:1044F0000E94801869EF75E080E895E00E9431180D
:1045000065E376E0CE0101960E94BF1763EF75E088
:10451000CE0101960E94FC15BC0180E895E00E9446
:104520002318CE0101960E942C1765E376E0CE0198
:1045300001960E94BF1761EF75E0CE0101960E94BF
:10454000FC15BC0180E895E00E942318CE0101967D
:104550000E942C1765E376E0CE0101960E94BF17FA
:104560006FEE75E0CE0101960E94FC15BC0180E85B
:1045700095E00E942318CE0101960E942C1765E356
:1045800076E0CE0101960E94BF176DEE75E0CE0178
:1045900001960E94FC15BC0180E895E00E9423185A
:1045A000CE0101960E942C1765E376E0CE010196BC
:1045B0000E94BF176BEE75E0CE0101960E94FC15BC
:1045C000BC0180E895E00E946E18CE0101960E9421
:1045D0002C1709EB11E0E12CF12C67EE73E0F801E8
:1045E000858996890E94471DF80185899689439699
:1045F0000E94B01DD82EFFEFEF1AFF0A4AE0B70164
:10460000CE0101960E945D1765E376E0CE0101962A
:104610000E94511667EE73E00E94381665E376E05B
:104620000E9451166D2D0E948F16BC0180E895E006
:104630000E942318CE0101960E942C17F801C5880C
:10464000D688C60146960E94B01DB82EC601459672
:104650000E94B01DA82EC60144960E94B01DD82EFF
:1046600065E376E0CE0101960E94BF176D2DCE0165
:1046700001960E948F1665E376E00E9451166A2D1E
:104680000E948F1665E376E00E9451166B2D0E9402
:104690008F16BC0180E895E00E946E18CE0101964D
:1046A0000E942C17095E1F4FFAE0EF16F10409F083
:1046B00094CF0E94202626960FB6F894DEBF0FBE38
:1046C000CDBFDF91CF911F910F91FF90EF90DF90C1
:1046D000CF90BF90AF900895CF93DF9383E690E0A3
:1046E0000E94B01D813009F450C066ED75E080E88D
:1046F00095E00E948018C4E6D0E06FEFCE010E94E2
:10470000A01D6AE070E080E090E00E940D1B219601
:10471000C03981E0D80789F76DEB75E080E895E056
:104720000E9480180E942026CDECD1E0BE01645189
:10473000710989819A810E946D1DFE0133978981DB
:104740009A81608143960E94A01DFE013297898163
:104750009A81608144960E94A01DFE013197898153
:104760009A81608145960E94A01D89819A81688105
:1047700046960E94A01D679682E0C33BD807B1F61B
:1047800061E083E690E00E94A01D83E690E00E9435
:10479000B01D813021F4DF91CF910C946522DF911F
:1047A000CF910895CF93DF93D82FC92F682F80E141
:1047B00090E00E9476366C2F81E190E00E94763680
:1047C000D093B001C093B1016AEA75E080E895E04A
:1047D0000E9431188091B0019091B1010E94172B75
:1047E0000E942026DF91CF910C948D20CF93DF93F0
:1047F00080E090E00E94B01D813009F468C066EF4F
:1048000076E080E895E00E948018C0E0D0E06FEF8D
:10481000CE010E94A01D6AE070E080E090E00E945E
:104820000D1B2196CE31D10591F766ED76E080E83B
:1048300095E00E9480180E94202661E08AE090E0C6
:104840000E94A01D61E08BE090E00E94A01D60E04E
:104850008CE090E00E94A01D61E08DE090E00E945D
:10486000A01D61E08EE090E00E94A01D6FE08FE04F
:1048700090E00E94A01D8CE390E00E94D22360E0B3
:1048800082E190E00E94A01D61E083E190E00E943F
:10489000A01D60E084E190E00E94A01D60E085E141
:1048A00090E00E94A01D60E086E190E00E94A01DC3
:1048B00060E087E190E00E94A01D68E288E190E05E
:1048C0000E94A01D61E080E090E00E94A01D80E0B9
:1048D00090E00E94B01D813009F01BC163EC76E0CE
:1048E00080E895E00E9480188AE090E00E94B01D68
:1048F0008093020169EB76E080E895E00E94311830
:1049000080910201082E000C990B0E94292B88E14E
:1049100090E00E94B01D90E09093B8018093B701A1
:104920006EEA76E080E895E00E9431188091B70148
:104930009091B8010E94172B8CE090E00E94B01D6E
:104940008093F90367EA76E080E895E00E943118E9
:104950008091F903082E000C990B0E94292B8DE001
:1049600090E00E94B01D8093B40161EA76E080E897
:1049700095E00E9431188091B401082E000C990B2B
:104980000E94292B8EE090E00E94B01D8093B6011A
:1049900069E976E080E895E00E9431188091B601DF
:1049A000082E000C990B0E94292B8FE090E00E94AA
:1049B000B01D90E090930101809300016DE876E0D6
:1049C00080E895E00E9431188091000190910101EA
:1049D0000E94172B80E190E00E94B01DC82F81E15A
:1049E00090E00E94B01DC093B0018093B1016EE7CA
:1049F00076E080E895E00E9431188091B0019091B6
:104A0000B1010E94172B8BE090E00E94B01D8093B3
:104A1000B3016CE676E080E895E00E943118809161
:104A2000B301082E000C990B0E94292B82E190E023
:104A30000E94B01D8093CF0361E676E080E895E0A8
:104A40000E9431188091CF03082E000C990B0E9410
:104A5000292B83E190E00E94B01D8093070164E55B
:104A600076E080E895E00E94311880910701082ED9
:104A7000000C990B0E94292B87E190E00E94B01D49
:104A80008093D10363E476E080E895E00E943118DA
:104A90006AE070E08091D1030E94F62A84E190E000
:104AA0000E94B01D8093720365E376E080E895E094
:104AB0000E94311880917203082E000C990B0E94FD
:104AC000292B85E190E00E94B01D8093180462E2DA
:104AD00076E080E895E00E9431186AE070E080910D
:104AE00018040E94F62A86E190E00E94B01D80938F
:104AF000D2036FE076E080E895E00E9431186AE02A
:104B000070E08091D2030E94F62ADF91CF910C943D
:104B10002026DF91CF91089581E390E00E94B01D9F
:104B2000813081F163E975E080E895E00E948018AA
:104B300068E775E080E895E00E9480180E942026D2
:104B40006BE073E083E596E00E94C51686E18093F2
:104B50009F0241E150E068E373E083E596E00E9444
:104B6000622B68E373E08EE190E00E946D1D60911E
:104B70009F0280E390E00E94A01D61E081E390E04D
:104B80000E94A01D81E390E00E94B01D813059F584
:104B900068E373E08EE190E00E94471DBC0183E56D
:104BA00096E00E94C51680E390E00E94B01D8093BD
:104BB0009F0267E675E080E895E00E94311863E5A2
:104BC00076E080E895E00E946E1864E575E080E884
:104BD00095E00E9431186AE070E080919F020E9487
:104BE000F62A0C9420260895EF92FF920F931F93BC
:104BF000CF93DF931F92CDB7DEB77C01FC0100811C
:104C00001181C80169830E946E366981681719F0A5
:104C1000C8010E947636C7010F90DF91CF911F9196
:104C20000F91FF90EF900895CF93DF93EC01FB017C
:104C3000248135810E94DD17CE01DF91CF91089547
:104C400080E895E00C946A18AF92BF92CF92DF9201
:104C5000EF92FF920F931F93CF93DF9300D0CDB7C6
:104C6000DEB782E690E00E94B01D813009F452C0A8
:104C700067E878E080E895E00E94801804EF11E092
:104C80006FEFC8010E94A01D6AE070E080E090E034
:104C90000E940D1B0F5F1F4F053383E0180781F73C
:104CA0006DE678E080E895E00E9480180E9420265A
:104CB00008E011E08AE1A82E81E0B82EF801C3884F
:104CC000D4887801C01AD10AC6018E0D9F1DF70144
:104CD00061917F019A838983CE0101960E94F42518
:104CE000EA14FB0489F7F80183899489F70160814C
:104CF00087960E94A01D0B5E1F4F5701F5E1AF0E76
:104D0000B11C81E0003B1807C9F661E082E690E043
:104D10000E94A01D0F900F90DF91CF911F910F91D6
:104D2000FF90EF90DF90CF90BF90AF9008957F926B
:104D30008F929F92AF92BF92CF92DF92EF92FF92AB
:104D40000F931F93CF93DF93C12CD12C7601C39483
:104D5000D0E0BB24B39462E0A62E99249A9475EE19
:104D6000872EE5EC7E2ECC2DB0924104C0925205E8
:104D70001092700310926F03909199039111FCCFE0
:104D8000A0929903B0929803909297031092960381
:104D900010929503109294038091940386019601DA
:104DA000220F331F282B209394038091930381308B
:104DB00069F410929303809194038093BB008091D7
:104DC000BC0083FDF8CF7092BC0002C08092BC0092
:104DD000809199038230E1F3809197038F3F69F0CE
:104DE00080919703803231F080919703803321F0D6
:104DF00094E003C092E001C093E01092700310921F
:104E00006F0310924104911138C06CE578E080E89E
:104E100095E00E94311880E1C816D104E104F10444
:104E200030F46AE578E080E895E00E94311840E1CE
:104E3000C701B6010E94B32A80EE8C0F883018F0AB
:104E4000C853C830B0F465E376E080E895E00E948E
:104E5000231869E478E080E895E00E9480181093B8
:104E6000BD030093BC038091CE038F5F8093CE037C
:104E700002C00E942026DF5F19C09430B9F46DE3B0
:104E800078E080E895E00E943118E0E1CE16D10488
:104E9000E104F10430F46BE378E080E895E00E94EF
:104EA000311860E170E08C2F0E94F62AFFEFCF1AD4
:104EB000DF0AEF0AFF0A8FE7C816D104E104F10404
:104EC00009F051CFD11106C065E278E080E895E0A5
:104ED0000E9480188091CE038823E9F00E945C1F15
:104EE00008E011E0C6ECD3E0FC2EE8E0FE0EF8018D
:104EF0008389948987960E94B01D89930B5E1F4F0A
:104F0000FC12F5CF0E942026EEEBF3E088E08E0F36
:104F100011928E13FDCFDF91CF911F910F91FF90D2
:104F2000EF90DF90CF90BF90AF909F908F907F9049
:104F300008958F929F92AF92BF92CF92DF92EF929D
:104F4000FF920F931F93CF93DF93CDB7DEB76E978A
:104F50000FB6F894DEBF0FBECDBF7C01162F62EEF8
:104F600072E0CE0101960E94C817BE016F5F7F4FAD
:104F7000C7010E9476154AE0BC01CE0107960E9447
:104F80005D17CE0107960E947014AB014F5F5F4F13
:104F9000B701CE0143960E941426CE0107960E94C7
:104FA0002C17CE0101960E942C1761E173E0CE010F
:104FB00001960E94C817BE016F5F7F4FCE014396D6
:104FC0000E948015D92ECE0101960E942C17D094F4
:104FD000DD1CDD24DD1C63E173E0CE0101960E943F
:104FE000C817BE016F5F7F4FCE0143960E948015A8
:104FF000C92ECE0101960E942C17C094CC1CCC2443
:10500000CC1C65E173E0CE0101960E94C817BE0179
:105010006F5F7F4FCE0143960E948015E92ECE012F
:1050200001960E942C17E094EE1CEE24EE1C67E122
:1050300073E0CE0101960E94C817BE016F5F7F4FDB
:10504000CE0143960E948015F92ECE0101960E9452
:105050002C17F094FF1CFF24FF1C6FEF72E0CE01B1
:1050600007960E94C81761E173E0CE0101960E9485
:10507000C817AE01495F5F4FBE016F5F7F4FCE0122
:1050800043960E947B14CE0101960E942C17CE01FC
:1050900007960E942C176FEF72E0CE0107960E94D0
:1050A000C81763E173E0CE0101960E94C817AE01F4
:1050B000495F5F4FBE016F5F7F4FCE0143960E94F5
:1050C0007B14CE0101960E942C17CE0107960E94F8
:1050D0002C176FEF72E0CE0107960E94C81765E1AA
:1050E00073E0CE0101960E94C817AE01495F5F4F81
:1050F000BE016F5F7F4FCE0143960E947B14CE01AD
:1051000001960E942C17CE0107960E942C176FEF74
:1051100072E0CE0107960E94C81767E173E0CE01E6
:1051200001960E94C817AE01495F5F4FBE016F5FD5
:105130007F4FCE0143960E947B14CE0101960E94C0
:105140002C17CE0107960E942C176FEF72E0CE014C
:1051500007960E94C81764EE72E0CE0101960E9485
:10516000C817AE01495F5F4FBE016F5F7F4FCE0131
:1051700043960E947B14CE0101960E942C17CE010B
:1051800007960E942C1769EE72E0CE0101960E94EC
:10519000C817BE016F5F7F4FCE0143960E948015F6
:1051A0004AE0BC01CE0107960E945D17CE0107962A
:1051B0000E9470149B0140E050E0BE016D5E7F4F85
:1051C000CE010D960E94DD17CE0107960E942C1786
:1051D000CE0101960E942C1769EE72E0CE01019675
:1051E0000E94C817BE016F5F7F4FCE0143960E9499
:1051F00076154AE0BC01CE0149960E945D17CE01AA
:1052000049960E947014AB014F5F5F4FBE016D5E07
:105210007F4FCE0107960E941426CE0149960E9428
:105220002C17CE0101960E942C17113009F0C8C02E
:10523000CE010D960E947014062FBE01695F7F4F4C
:10524000CE0149960E94BF1767EE73E08091CE01B0
:105250009091CF010E94471DBC01CE0101960E9492
:10526000C8178D819E81892B39F0E981FA8180816F
:10527000882319F010E001C011E0CE0101960E94D0
:105280002C17112361F066EE77E080E895E00E942C
:1052900080180E9420260E94A52080E001C081E0A5
:1052A0009EEF900F9A3058F068EC77E080E895E038
:1052B0000E9480180E9420260E94A5207CC0813078
:1052C00009F079C0015089EB882E81E0982EAA243C
:1052D000A394B12C67EE73E0F401858996890E944E
:1052E000471DBC01CE0101960E94C817BE01675E32
:1052F0007F4FCE0101960E949A15182FCE0101967C
:105300000E942C17112391F065EA77E080E895E080
:105310000E943118C5010E94292B0E9420268FEF80
:105320008A0D801719F0F12CE12CD12CF7E18F0EAA
:10533000911C8FEFA81AB80AEBE0AE16B10451F633
:1053400041E150E066ED73E0CE0149960E94622B88
:10535000F7E10F9F8001112407541E4F66ED73E0A3
:10536000F801858996890E946D1DF80185899689C5
:105370006D2D43960E94A01DF801858996896C2D9C
:1053800044960E94A01DF801858996896E2D459648
:105390000E94A01DF801858996896F2D46960E946E
:1053A000A01D68E977E080E895E00E9480180E94DF
:1053B00020260E948D20CE0149960E942C172CC0D9
:1053C000123051F58091CE019091CF016D2D439611
:1053D0000E94A01D8091CE019091CF016C2D44962A
:1053E0000E94A01D8091CE019091CF016E2D459617
:1053F0000E94A01D8091CE019091CF016F2D469605
:105400000E94A01D6DE078E080E895E00E94801881
:105410000E9420260E948D20CE0107960E942C1704
:10542000CE010D960E942C17CE0143960E942C1798
:105430006E960FB6F894DEBF0FBECDBFDF91CF9151
:105440001F910F91FF90EF90DF90CF90BF90AF90A2
:105450009F908F9008951F93CF93DF93CDB7DEB7C2
:105460002C970FB6F894DEBF0FBECDBF182F6093F8
:10547000070183E190E00E94A01D65E877E089E2E2
:1054800096E00E949D16113011F58091FB0381304A
:10549000F1F469EE72E0CE0101960E94C81761E452
:1054A00076E0CE0101960E945116BC01CE0107960E
:1054B0000E94BF1760E0CE0107960E94B21DCE0188
:1054C00007960E942C17CE0101960E942C172C964D
:1054D0000FB6F894DEBF0FBECDBFDF91CF911F9105
:1054E0000895E0E8F5E0A089B18982E08C93A48575
:1054F000B5851C92A685B7858FEC8C93108EA489F8
:10550000B58986E08C93A289B3898C9180618C9354
:10551000A289B3898C9188608C93A289B3898C917C
:1055200080688C930288F389E02D80818F7D808351
:1055300008950F931F93CF93DF93CAE5D5E08C01B5
:105540000A551540C8018C0F9D1F0E946E36899325
:1055500085E0C038D807B1F78AE595E0DF91CF91B3
:105560001F910F9108958F929F92AF92BF920F93C8
:105570001F93CF93DF93CDB7DEB7A1970FB6F89403
:10558000DEBF0FBECDBF19A2423008F44AE08E0143
:105590000F5D1F4F842E912CA12CB12CA5019401DD
:1055A0000E94ED36E62FB901CA0101501109EA3017
:1055B00014F4E05D01C0E95CD801EC93232B242BAB
:1055C000252B61F7B80180E895E00E945518A19657
:1055D0000FB6F894DEBF0FBECDBFDF91CF911F9104
:1055E0000F91BF90AF909F908F900895CF93DF93CE
:1055F000AB01672B61F4E0918005F091810501908A
:10560000F081E02D682F80E895E0099506C0682FAD
:1056100070E080E090E00E94B32AEC0180E895E021
:105620000E946A188C0F9D1FDF91CF910895CF9330
:10563000DF93BC0180E090E04AE00E94B32AEC01D5
:1056400080E895E00E946A188C0F9D1FDF91CF9132
:105650000895CF92DF92EF92FF92CF93DF936C0188
:10566000990FEE08FF08F7FE1AC0E0918005F0914F
:1056700081050190F081E02D6DE280E895E00995CB
:10568000EC0166277727CB016C197D098E099F09EC
:105690004AE00E94B32A7C01EC0EFD1E06C04AE0DF
:1056A000C701B6010E94B32A7C0180E895E00E9400
:1056B0006A188E0D9F1DDF91CF91FF90EF90DF90C4
:1056C000CF9008950F931F93CF93DF93FC01248114
:1056D00035812115310519F4FB01108211C0EA0151
:1056E00021972C173D0708F4E9018B01FC0160812B
:1056F0007181AE01C8010E947B39C00FD11F188291
:10570000DF91CF911F910F910895809159058111DB
:105710000AC00E94471B60935505709356058093FD
:1057200057059093580581E08093590510925405D0
:10573000809353050895CF93DF9300D0CDB7DEB7A4
:1057400089831A8241E050E0BE016F5F7F4F8DE494
:1057500096E00E940A160F900F90DF91CF91089566
:10576000CF93DF93CDB7DEB76E970FB6F894DEBF59
:105770000FBECDBF789484B5826084BD84B581604E
:1057800084BD85B5826085BD85B5816085BD80910C
:105790006E00816080936E00109281008091810084
:1057A000826080938100809181008160809381007C
:1057B000809180008160809380008091B10084603E
:1057C0008093B1008091B00081608093B00080919F
:1057D0007A00846080937A0080917A00826080935E
:1057E0007A0080917A00816080937A0080917A00BB
:1057F000806880937A001092C1000E94712A1092F2
:10580000BA031092BB031092700310926F031092B0
:10581000990381E0809398031092930361E082E101
:105820000E94131961E083E10E9413198091B9006D
:105830008E7F8093B9008091B9008D7F8093B900ED
:1058400088E48093B80085E48093BC0061E374E051
:1058500080E895E00E9480180E94202664EC79E0A0
:1058600080E090E00E940D1B80E480937C0080919A
:105870007A00806480937A0080917A0086FDFCCF64
:10588000609178008091790070E0782B072E000CF1
:10589000880B990B611571058105910511F00E9426
:1058A000CE350E94F6230E948C250E946C230E9414
:1058B00024260E94972661E08AE00E94431961E055
:1058C0008CE00E94431961E08BE00E94431961E083
:1058D0008AE00E94131961E08CE00E94131961E0D4
:1058E0008BE00E94131960E08AE00E94131964EFB4
:1058F00071E080E090E00E940D1B61E08AE00E9470
:10590000131960E08CE00E94131964EF71E080E0ED
:1059100090E00E940D1B61E08CE00E94131960E092
:105920008BE00E94131964EF71E080E090E00E9428
:105930000D1B61E08BE00E94131960E086E00E947D
:10594000431960E08EE00E94431960E087E00E9406
:10595000431960E08FE00E94431960E080E10E94FB
:10596000431961E084E00E94431960E084E00E94F2
:10597000131961E085E00E94431961E085E00E940F
:1059800013190E94ED208091B601813031F46DE24F
:1059900074E08BE396E00E94CC158091B6018111F2
:1059A00006C068E274E08BE396E00E94CC156BE3DE
:1059B00076E080E895E00E946E18809102018823CD
:1059C00069F00E9420263AE9232E33E0332E48EE78
:1059D000442E43E0542E612C712C9DC06BE174E089
:1059E00080E895E00E94801819E00E948D201150F7
:1059F000E1F7E7CF113009F41EC286E00E94EA18F1
:105A0000809307041091B601113009F062C2811130
:105A100056C261E08CE00E9413190E94471BC0909F
:105A20000304D0900404E0900504F09006049B0168
:105A3000AC012C193D094E095F0969017A0135E66F
:105A4000C316D104E104F10408F025C20E94471BEB
:105A5000C0900904D0900A04E0900B04F0900C046C
:105A60006C197D098E099F09A30192010E94ED36F0
:105A70008091B0019091B101A0E0B0E0821793074E
:105A8000A407B50708F435C2112309F432C2009106
:105A9000B301013009F436C28091CF03813009F49B
:105AA0007DC28091D003813011F40E941C1E809130
:105AB0005905813009F4BAC280911204813009F489
:105AC000EDC28091D503813011F40E94C81E8091EF
:105AD000D403813009F41DC31091D303113009F4AC
