:100000000C9468040C9490040C9490040C9437178E
:100010000C9437170C9437170C9490040C9490049C
:100020000C9490040C9490040C9490040C94900400
:100030000C9490040C9490040C9490040C949004F0
:100040000C94BF150C9490040C94E9260C94C326D0
:100050000C9490040C9490040C9490040C949004D0
:100060000C9409160C9490044572726F72206465AA
:100070006C6574696E672070686F6E653A202B003E
:1000800044656C6574652070686F6E653A202B005E
:10009000506175736554696D652069733A20004439
:1000A000656C61794265666F72654775617264203F
:1000B00069733A200044656C61794265666F7265C8
:1000C000416C61726D2069733A20005761746368F6
:1000D000506F77657254696D652069733A200052DC
:1000E000696E6754696D652069733A200053656EC7
:1000F000736F7220646174612073617665642E0091
:100100004572726F722073656E736F72206E756DBB
:10011000626572006661696C65642E00706173735C
:1001200065642E005465737420004661696C6564D3
:100130002063656C6C3A20004200454550524F4D9B
:100140003A20004E6F74207573652E0041362E00E4
:1001500053494D3830304C2E004D353930652E0026
:100160005265626F6F742E004175746F64657465BB
:1001700063742E002E204D6F64656D3A2000437528
:100180007272656E742049443A2000507265766937
:100190006F75732049443A200041542B4355534412
:1001A0003D312C2200534D532072656D6F7665648E
:1001B000003400302C340041542B434D47443D0063
:1001C0006F70656E00636C656172736D73006C6552
:1001D000646F00746573746F0067756172646F6635
:1001E000660067756172646F6E007061757365009B
:1001F0006D6F6E6579002E2000496E666F3A205053
:100200004952204F00696E666F00457874446576E8
:1002100069636554696D652069733A200065787477
:1002200064657669636574696D650068696768000F
:100230006C6F77006578746465766963656C657664
:10024000656C006D6F64656D6964007265626F6FE7
:1002500074006C69737470686F6E650069326373E3
:1002600063616E006D656D74657374006C697374A1
:1002700073656E736F72006C697374636F6E666919
:100280006700656469746D61696E70686F6E6500A2
:100290006564697473656E736F720044697361623B
:1002A0006C6564004F4E206D6F6465006E32004FC8
:1002B0004E2F4F4646206D6F6465006E31004775C6
:1002C00061726420627574746F6E3A2000677561A4
:1002D0007264627574746F6E6F006E32006E3100FE
:1002E00057617463682074686520706F7765722049
:1002F0004F007761746368706F7765726F00504963
:1003000052204F007069726F00536D73204F00735D
:100310006D736F005265656420537769746368205C
:100320004F00726565647377697463686F00726506
:1003300073657473656E736F720072657365746351
:100340006F6E66696700726573657470686F6E655D
:100350000066756C6C726573657400616C61726DBA
:1003600070696E74696D650072696E6774696D6538
:10037000007761746368706F77657274696D65008A
:1003800064656C61796265666F7265616C61726DDE
:100390000064656C61796265666F7265677561722C
:1003A0006400736C65657074696D650062616C6191
:1003B0006E63656E756D0064656C65746570686FFD
:1003C0006E650061646470686F6E650053696C658A
:1003D0006E74206D6F646521004F46462E004F4EAF
:1003E0002E0047534D20416C61726D2031372E3005
:1003F000382E3033202D204F6E6520796561722EA6
:100400002E2E00506F77657220737570706C792096
:10041000726573746F72656400506F7765722073D4
:100420007570706C7920646973636F6E6E65637448
:10043000656420004D61696E2073656E736F722173
:10044000005049522073656E736F722100206D69F0
:100450006E757465732061676F003B004154442BD7
:1004600000416C61726D2052696E673A202B00501A
:1004700072696D6172792070686F6E653A202B0029
:1004800041542B435553443D300055535344207140
:10049000756572793A20002B435553443A00534D09
:1004A000532066726F6D3A202B002C22002C2C00FA
:1004B0002B434D543A0052696E672066726F6D3A55
:1004C000202B002C0052494E470053656E736F720B
:1004D00020646174613A0041542B43485550002216
:1004E0000041542B434D47533D22004775617264D0
:1004F000204F4E2E0000000000240027002A00009C
:1005000000000800020100000304070000000000D2
:100510000000004C656E67746820746F207265740B
:1005200075726E3A200042616C616E6365206E7573
:100530006D6265723A20004C6F616420646566618B
:10054000756C742062616C616E63652064617461B6
:100550002E0044656C6574652062616C616E636534
:1005600020646174612E00416C61726D496E746526
:100570007276616C2069733A20004C6F616420646C
:10058000656661756C742070686F6E652064617457
:10059000612E0044656C6574696E672070686F6ECB
:1005A0006520646174612E00690070007200730040
:1005B00050686F6E6500E284960052656164206148
:1005C000727261792070686F6E653A004175746F60
:1005D000646574656374004D6F64656D49443A20C9
:1005E0000045787444657669636554696D653A20A1
:1005F000004578744465766963654C6576656C3A48
:10060000200044656C61794265666F7265416C617A
:10061000726D3A200044656C61794265666F72655F
:1006200047756172643A200047756172644275745F
:10063000746F6E3A20005761746368506F7765720B
:1006400054696D653A20005761746368506F77652F
:10065000723A200050495247756172643A20005244
:1006600065656453776974636847756172643A209D
:1006700000416C61726D50696E54696D653A20007D
:10068000536C65657054696D653A200047756172F9
:10069000643A20004C65643A2000546573743A2033
:1006A0000052696E6754696D653A200053656E6447
:1006B000536D733A20005265616420656570726FF6
:1006C0006D636F6E6669673A004C6F6164206465A4
:1006D0006661756C7420656570726F6D636F6E66B0
:1006E000696720646174612E0044656C6574696E8D
:1006F0006720656570726F6D636F6E6669672064F1
:100700006174612E0041544530004154453100412F
:10071000542B434E4D493D322C320041542B435310
:1007200043533D2247534D220041542B434D4746EE
:100730003D310041542B434C49503D3100446574D8
:100740006563746564204D6F64656D49443A2000AB
:1007500041360053494D383030004D353930004175
:100760005449004154004775617264204F46462E3B
:100770000020427574746F6E002050686F6E6520A3
:100780002B0020436F6E736F6C650050686F6E6551
:100790002061646465642E0050686F6E6520616C32
:1007A00072656164792065786973747320696E205D
:1007B0007468652063656C6C3A20004572726F72D4
:1007C0002C2077726F6E67206E756D626572206F78
:1007D000662063656C6C732E004572726F722C20FC
:1007E00066697273742072656769737465722061DB
:1007F000207072696D6172792070686F6E652E006D
:1008000050686F6E652073657474696E67732063DA
:1008100068616E6765642E004932432064657669BD
:10082000636573206E6F7420666F756E64003000B0
:100830004572726F7220617420307800646574654F
:1008400063746564205043463835373400300049BE
:1008500032432064657669636520617420307800D6
:100860004C6F61642064656661756C742073656E9D
:10087000736F7220646174612E0044656C657469E5
:100880006E672073656E736F7220646174612E00F1
:1008900000000000250028002B00000000002300BD
:1008A00026002900040404040404040402020202D1
:1008B0000202030303030303010204081020408023
:1008C00001020408102001020408102069352D35AA
:1008D00011241FBECFEFD8E0DEBFCDBF13E0A0E0F4
:1008E000B1E0E6E1F5E702C005900D92A034B10752
:1008F000D9F726E0A0E4B3E001C01D92A438B20706
:10090000E1F714E0C7E6D4E004C02197FE010E949D
:100910002038C636D107C9F70E947C2C0C947E3A49
:100920000C940000AF92BF92CF92DF92EF92FF92B1
:100930000F931F93CF93DF93CDB7DEB7E0970FB63A
:10094000F894DEBF0FBECDBF80910004813031F43A
:1009500065E576E088E895E00E949F2669E173E00E
:10096000CE0142960E94F92562EE72E0CE01019618
:100970000E94F925AE014E5E5F4FBE016F5F7F4F53
:1009800085E596E00E94AC22CE0101960E945D258D
:10099000CE0142960E945D2569E173E0CE01429648
:1009A0000E94F92568E173E0CE0101960E94F925C5
:1009B000AE014E5E5F4FBE016F5F7F4F85E596E0F3
:1009C0000E94AC22CE0101960E945D25CE01429686
:1009D0000E945D25009155061091560601151105DE
:1009E00039F480910404813011F00C9474100DC01E
:1009F000F80180818823A9F3082E000C990B0E942E
:100A0000223AF80181938F01F3CF63EC73E0CE01BA
:100A100001960E94E725BE016F5F7F4F85E596E056
:100A20000E94B1238C01CE0101960E945D2517FD25
:100A30000FC065E576E0CE0101960E94F02561E0E9
:100A4000CE0101960E949428CE0101960E945D2558
:100A500067EB73E0CE0101960E94E725BE016F5F50
:100A60007F4F85E596E00E94B1238C01CE0101966F
:100A70000E945D2517FD0EC165E576E0CE018496E6
:100A80000E94F02564EE72E0CE0142960E94F925A4
:100A9000BE016E5E7F4FCE0184960E94A7234AE07E
:100AA000BC01CE0101960E948E25CE0101960E94C6
:100AB000A122AB014F5F5F4FBE016C5D7F4FCE0146
:100AC0004E960E94E420CE0101960E945D25CE0143
:100AD00042960E945D2569E173E0CE0101960E9475
:100AE000F92566EE72E0CE0142960E94F925AE012C
:100AF0004F5F5F4FBE016E5E7F4FCE014E960E94EC
:100B0000AC22CE0142960E945D25CE0101960E9444
:100B10005D256BEE72E0CE0142960E94F925BE0182
:100B20006E5E7F4FCE014E960E94A7234AE0BC0125
:100B3000CE0101960E948E25CE0101960E94A1222F
:100B4000AB014F5F5F4FBE01625E7F4FCE014896A3
:100B50000E94E420CE0101960E945D25CE014296BE
:100B60000E945D25BE01685E7F4FCE0142960E94C5
:100B7000F02507EE11E021E03DE0F32E6E01F5E0F7
:100B8000CF0ED11C6FEE73E0F8018081918128AB0C
:100B90000E94B317BC01CE0101960E94F925BE0147
:100BA0006E5E7F4FCE0101960E94CB23E82ECE01D0
:100BB00001960E945D2528A9EE2009F441C0198202
:100BC0001A821B821C82F6012F2D11922A95E9F7B9
:100BD000BE016F5F7F4FF801808191810E94D9171C
:100BE000F8018081918160E043960E940C18F80121
:100BF0008081918160E044960E940C18F801808108
:100C0000918160E045960E940C18F80180819181E5
:100C100060E046960E940C1860E870E088E895E075
:100C20000E946226BE016E5E7F4F88E895E00E94BA
:100C30009F260E941B270E94E21C0E94F91A20E0B6
:100C4000095E1F4FF2E0063B1F0709F09BCF2130E2
:100C500089F468E670E088E895E00E946226BE01AB
:100C60006E5E7F4F88E895E00E949F260E941B27BA
:100C70000E94111BCE0142960E945D25CE0148962E
:100C80000E945D25CE014E960E945D25CE01849680
:100C90000E945D256CEA73E0CE0101960E94E72573
:100CA000BE016F5F7F4F85E596E00E94B1238C0106
:100CB000CE0101960E945D2517FDB5C064EE72E07D
:100CC000CE0101960E94F925BE016F5F7F4F85E539
:100CD00096E00E94A7234AE0BC01CE0142960E9402
:100CE0008E25CE0142960E94A122AB014F5F5F4F3D
:100CF00065E576E0CE0148960E94E420CE0142965A
:100D00000E945D25CE0101960E945D256DEE72E088
:100D1000CE0101960E94F925BE016F5F7F4FCE0183
:100D200048960E94B1234AE0BC01CE014E960E9433
:100D30008E25CE014E960E94A1229B0140E050E0FC
:100D4000BE01685E7F4FCE0142960E940E26CE0104
:100D50004E960E945D25CE0101960E945D256DEEA6
:100D600072E0CE014E960E94F925BE01625E7F4F71
:100D700085E596E00E94A7234AE0BC01CE01849657
:100D80000E948E25CE0184960E94A122AB014F5F66
:100D90005F4F65E576E0CE0101960E94E420CE012A
:100DA00084960E945D25CE014E960E945D25CE015F
:100DB00001960E94A122162FBE016E5E7F4FCE01CA
:100DC0004E960E94F02541E150E060E473E0CE01D0
:100DD0004E960E941D2C60E473E08EE190E00E942C
:100DE000D917612F80E390E00E940C1861E081E345
:100DF00090E00E940C180E945C2088E895E00E9418
:100E00009B260E94F91ACE014E960E945D25CE01C6
:100E100001960E945D25CE0142960E945D25CE017D
:100E200048960E945D2562EA73E0CE0101960E9419
:100E3000E725BE016F5F7F4F85E596E00E94B123F5
:100E40008C01CE0101960E945D2517FD67C064EEFE
:100E500072E0CE0101960E94F925BE016F5F7F4FBF
:100E600085E596E00E94A7234AE0BC01CE014896A2
:100E70000E948E25CE0148960E94A122AB014F5FB1
:100E80005F4F65E576E0CE0142960E94E420CE01F8
:100E900048960E945D25CE0101960E945D25BE0107
:100EA0006E5E7F4FCE0101960E94F025CE01019625
:100EB0000E94A122DC01CB010197A109B109CC97C5
:100EC000A105B10510F00C947C12CE0101960E9490
:100ED000A122162F8FE090E00E940C18612F70E085
:100EE000709302016093010160E970E088E895E089
:100EF0000E9462268FE090E00E941C186AE070E079
:100F00000E94AB2B0E941B270E94F91ACE0101966A
:100F10000E945D25CE0142960E945D2561E973E045
:100F2000CE0101960E94E725BE016F5F7F4F85E5E8
:100F300096E00E94B1238C01CE0101960E945D25AE
:100F400017FD60C064EE72E0CE0101960E94F925A3
:100F5000BE016F5F7F4F85E596E00E94A7234AE0C0
:100F6000BC01CE0148960E948E25CE0148960E9473
:100F7000A122AB014F5F5F4F65E576E0CE0142965F
:100F80000E94E420CE0148960E945D25CE01019684
:100F90000E945D25BE016E5E7F4FCE0101960E94CC
:100FA000F025CE0101960E94A1226F3F71058105B7
:100FB000910519F010F00C949212CE0101960E9446
:100FC000A122162F85E190E00E940C1810932004B6
:100FD0006FE970E088E895E00E94622685E190E084
:100FE0000E941C186AE070E00E94AB2B0E941B2735
:100FF0000E94F91ACE0101960E945D25CE0142960B
:101000000E945D2560E873E0CE0101960E94E7250D
:10101000BE016F5F7F4F85E596E00E94B1238C0192
:10102000CE0101960E945D2517FD60C064EE72E05E
:10103000CE0101960E94F925BE016F5F7F4F85E5C5
:1010400096E00E94A7234AE0BC01CE0148960E9488
:101050008E25CE0148960E94A122AB014F5F5F4FC3
:1010600065E576E0CE0142960E94E420CE014896E6
:101070000E945D25CE0101960E945D25BE016E5E37
:101080007F4FCE0101960E94F025CE0101960E946D
:10109000A1226F3F71058105910519F010F00C94A4
:1010A000A612CE0101960E94A122162F86E190E0A1
:1010B0000E940C181093DA0365EB70E088E895E065
:1010C0000E94622686E190E00E941C186AE070E0AF
:1010D0000E94AB2B0E941B270E94F91ACE01019699
:1010E0000E945D25CE0142960E945D2561E773E076
:1010F000CE0101960E94E725BE016F5F7F4F85E517
:1011000096E00E94B1238C01CE0101960E945D25DC
:1011100017FD60C064EE72E0CE0101960E94F925D1
:10112000BE016F5F7F4F85E596E00E94A7234AE0EE
:10113000BC01CE0148960E948E25CE0148960E94A1
:10114000A122AB014F5F5F4F65E576E0CE0142968D
:101150000E94E420CE0148960E945D25CE010196B2
:101160000E945D25BE016E5E7F4FCE0101960E94FA
:10117000F025CE0101960E94A1226F3F71058105E5
:10118000910519F010F00C94BA12CE0101960E944C
:10119000A122162F87E190E00E940C181093D9032A
:1011A0006BEC70E088E895E00E94622687E190E0B1
:1011B0000E941C186AE070E00E94AB2B0E941B2763
:1011C0000E94F91ACE0101960E945D25CE01429639
:1011D0000E945D2568E673E0CE0101960E94E72536
:1011E000BE016F5F7F4F85E596E00E94B1238C01C1
:1011F000CE0101960E945D2517FD68C064EE72E085
:10120000CE0101960E94F925BE016F5F7F4F85E5F3
:1012100096E00E94A7234AE0BC01CE0148960E94B6
:101220008E25CE0148960E94A122AB014F5F5F4FF1
:1012300065E576E0CE0142960E94E420CE01489614
:101240000E945D25CE0101960E945D25BE016E5E65
:101250007F4FCE0101960E94F025CE0101960E949B
:10126000A122DC01CB010A97A109B109863F9105B2
:10127000A105B10510F00C94CE12CE0101960E948A
:10128000A122162F88E190E00E940C18612F70E0D7
:101290007093BA016093B9016FED70E088E895E052
:1012A0000E94622688E190E00E941C186AE070E0CB
:1012B0000E94AB2B0E941B270E94F91ACE010196B7
:1012C0000E945D25CE0142960E945D256BE573E08C
:1012D000CE0101960E94E725BE016F5F7F4F85E535
:1012E00096E00E94B1238C01CE0101960E945D25FB
:1012F00017FD4EC064EE72E0CE0101960E94F92502
:10130000BE016F5F7F4F85E596E00E94A7234AE00C
:10131000BC01CE0148960E948E25CE0148960E94BF
:10132000A122AB014F5F5F4F65E576E0CE014296AB
:101330000E94E420CE0148960E945D25CE010196D0
:101340000E945D25BE016E5E7F4FCE0101960E9418
:10135000F025CE0101960E94A122DC01CB0101976C
:10136000A109B109803C984AA105B10510F00C947F
:10137000E412CE0101960E94A122CB010E944F1ED1
:10138000CE0101960E945D25CE0142960E945D2508
:1013900061E573E0CE0101960E94E725BE016F5F13
:1013A0007F4F85E596E00E94B1238C01CE01019626
:1013B0000E945D2517FD1AC06FEF80E090E00E944B
:1013C0000C180E94731E6FEF83E690E00E940C18C9
:1013D0000E94E91D6FEF81E390E00E940C180E94CB
:1013E0005C200E94F91AE0E0F0E0099566E473E001
:1013F000CE0101960E94E725BE016F5F7F4F85E514
:1014000096E00E94B1238C01CE0101960E945D25D9
:1014100017FD0CC06FEF83E690E00E940C180E944D
:10142000E91D0E94F91AE0E0F0E009956AE373E033
:10143000CE0101960E94E725BE016F5F7F4F85E5D3
:1014400096E00E94B1238C01CE0101960E945D2599
:1014500017FD0CC06FEF80E090E00E940C180E9416
:10146000731E0E94F91AE0E0F0E009956EE273E065
:10147000CE0101960E94E725BE016F5F7F4F85E593
:1014800096E00E94B1238C01CE0101960E945D2559
:1014900017FD0CC06FEF82E690E00E940C180E94CE
:1014A0001F270E94F91AE0E0F0E0099562E273E07C
:1014B000CE0101960E94E725BE016F5F7F4F85E553
:1014C00096E00E94B1238C01CE0101960E945D2519
:1014D00017FD4EC064E173E081E396E00E94CE24E4
:1014E0006FEE72E0CE0101960E94F925BE016F5F9A
:1014F0007F4F85E596E00E94B1238C01CE010196D5
:101500000E945D2517FD06C081E08093B50181EF43
:1015100092E004C01092B50183EF92E00E946B2C20
:101520006091B5018BE090E00E940C18809103045B
:101530008130F1F46BEE72E0CE0101960E94F92544
:1015400069E476E0CE0101960E948224BC01CE01BE
:1015500042960E94F02560E0CE0142960E941E183D
:10156000CE0142960E945D25CE0101960E945D2526
:101570006FE073E0CE0101960E94E725BE016F5F28
:101580007F4F85E596E00E94B1238C01CE01019644
:101590000E945D2517FD73C069E073E081E396E06A
:1015A0000E94CE246FEE72E0CE0101960E94F925D2
:1015B000BE016F5F7F4F85E596E00E94B1238C01ED
:1015C000CE0101960E945D2517FD2BC081E080931E
:1015D000030181EF92E00E946B2C80910304813023
:1015E00009F047C06BEE72E0CE0101960E94F9252A
:1015F00069E476E0CE0101960E948224BC01CE010E
:1016000042960E94F02560E0CE0142960E941E188C
:10161000CE0142960E945D25CE0101960E945D2575
:1016200028C083EF92E00E946B2C809103048130EC
:10163000F1F46BEE72E0CE0101960E94F92569E4A7
:1016400076E0CE0101960E948224BC01CE01429632
:101650000E94F02560E0CE0142960E941E18CE0145
:1016600042960E945D25CE0101960E945D25109252
:101670000301609103018AE090E00E940C1864E08D
:1016800073E0CE0101960E94E725BE016F5F7F4F98
:1016900085E596E00E94B1238C01CE0101960E945F
:1016A0005D2517FD4EC06EEF72E081E396E00E946B
:1016B000CE246FEE72E0CE0101960E94F925BE01A4
:1016C0006F5F7F4F85E596E00E94B1238C01CE01CC
:1016D00001960E945D2517FD06C081E08093D70327
:1016E00081EF92E004C01092D70383EF92E00E9452
:1016F0006B2C6091D70382E190E00E940C188091DE
:1017000003048130F1F46BEE72E0CE0101960E9489
:10171000F92569E476E0CE0101960E948224BC019D
:10172000CE0142960E94F02560E0CE0142960E94D2
:101730001E18CE0142960E945D25CE0101960E94A0
:101740005D2562EF72E0CE0101960E94E725BE01A1
:101750006F5F7F4F85E596E00E94B1238C01CE013B
:1017600001960E945D2517FD64C060EE72E081E382
:1017700096E00E94CE246DED72E0CE0101960E94AB
:10178000E725BE016F5F7F4F85E596E00E94B1239C
:101790008C01CE0101960E945D2517FD02C081E0FB
:1017A00015C06AED72E0CE0101960E94E725BE01E8
:1017B0006F5F7F4F85E596E00E94B1238C01CE01DB
:1017C00001960E945D2517FD06C082E08093090105
:1017D00081EF92E004C01092090183EF92E00E9431
:1017E0006B2C6091090183E190E00E940C188091BC
:1017F00003048130F1F46BEE72E0CE0101960E9499
:10180000F92569E476E0CE0101960E948224BC01AC
:10181000CE0142960E94F02560E0CE0142960E94E1
:101820001E18CE0142960E945D25CE0101960E94AF
:101830005D256DEC72E0CE0101960E94E725BE01A8
:101840006F5F7F4F85E596E00E94B1238C01CE014A
:1018500001960E945D2517FD6AC06EEB72E081E380
:1018600096E00E94CE246BEB72E0CE0101960E94BE
:10187000E725BE016F5F7F4F85E596E00E94B123AB
:101880008C01CE0101960E945D2517FD06C081E006
:1018900080937A036FEA72E01EC06CEA72E0CE01B8
:1018A00001960E94E725BE016F5F7F4F85E596E0B8
:1018B0000E94B1238C01CE0101960E945D2517FD87
:1018C00006C082E080937A0364EA72E004C010925A
:1018D0007A036BE972E081E396E00E94FD23609158
:1018E0007A0384E190E00E940C1880910304813017
:1018F000F1F46BEE72E0CE0101960E94F92569E4E5
:1019000076E0CE0101960E948224BC01CE0142966F
:101910000E94F02560E0CE0142960E941E18CE0182
:1019200042960E945D25CE0101960E945D2560E9E8
:1019300072E0CE0101960E94E725BE016F5F7F4FE6
:1019400085E596E00E94B1238C01CE0101960E94AC
:101950005D2517FD26C165E576E0CE018A960E94D9
:10196000F02564EE72E0CE0142960E94F925BE0198
:101970006E5E7F4FCE018A960E94A7234AE0BC018B
:10198000CE0101960E948E25CE0101960E94A122D1
:10199000AB014F5F5F4FBE01665D7F4FCE01849606
:1019A0000E94E420CE0101960E945D25CE01429660
:1019B0000E945D2566EF72E0CE0101960E94F92536
:1019C000BE016F5F7F4FCE0184960E94B123092F25
:1019D000CE0101960E945D2569E173E0CE0101967A
:1019E0000E94F92566EF72E0CE0142960E94F92529
:1019F000AE014F5F5F4FBE016E5E7F4FCE0184969A
:101A00000E94AC22CE0142960E945D25CE01019635
:101A10000E945D256BEE72E0CE0142960E94F92590
:101A2000BE016E5E7F4FCE0184960E94B1234AE0D4
:101A3000BC01CE0101960E948E25CE0101960E9426
:101A4000A1229B0140E050E0BE016C5D7F4FCE01C2
:101A50004E960E940E26CE0101960E945D25CE0173
:101A600042960E945D256BEE72E0CE0142960E9486
:101A7000F925BE016E5E7F4FCE0184960E94A7239A
:101A80004AE0BC01CE0101960E948E25CE0101964E
:101A90000E94A122AB014F5F5F4FBE016C5D7F4F83
:101AA000CE0148960E94E420CE0101960E945D2559
:101AB000CE0142960E945D25CE014E960E94A12243
:101AC000162FBE01685E7F4FCE0101960E94F02561
:101AD0001150183048F060E071E088E895E00E940D
:101AE000B1260E94111B45C046E250E061E573E05B
:101AF000CE0101960E941D2CC12ED12C25E1129FF2
:101B0000F0011124E65FFE4F8389948921E5E22EDE
:101B100023E0F22EFC01E155F3405F01C5018E0D7B
:101B20009F1DF70161917F019B8B8A8BCE014296AD
:101B30000E94C420F7E7EF16F3E0FF0679F7602F65
:101B40006095661F6627661F85E18C9DF0018D9D5F
:101B5000F00D1124E65FFE4F8389948987960E94D9
:101B60000C186DEE70E088E895E00E94B1260E94A6
:101B7000F91A0E941B270E94C819CE0101960E94E3
:101B80005D25CE0148960E945D25CE014E960E94AD
:101B90005D25CE0184960E945D25CE018A960E9425
:101BA0005D2562E872E0CE0101960E94E725BE0144
:101BB0006F5F7F4F85E596E00E94B1238C01CE01D7
:101BC00001960E945D2517FD0FC065E576E0CE0108
:101BD00001960E94F02562E0CE0101960E949428B1
:101BE000CE0101960E945D2567E772E0CE01019665
:101BF0000E94E725BE016F5F7F4F85E596E00E945A
:101C0000B1238C01CE0101960E945D2517FD04C011
:101C10000E94731E0E945C206CE672E0CE01019669
:101C20000E94E725BE016F5F7F4F85E596E00E9429
:101C3000B1238C01CE0101960E945D2517FF0E9401
:101C4000C81964E672E0CE0101960E94E725BE0144
:101C50006F5F7F4F85E596E00E94B1238C01CE0136
:101C600001960E945D2517FD84C00E94A3362DEFCA
:101C700030E040E050E00E945E3782E0D82ED60E81
:101C80006AE371E088E895E00E9462264AE060E03D
:101C900074E080E090E00E94682B68E371E088E8DF
:101CA00095E00E94B12600E010E06D2DC8010E9471
:101CB000503765E070E080E090E00E9479150F5F9A
:101CC0001F4F011524E0120781F7E12CF12C00E0F1
:101CD00010E0C8010E941C188D1529F16AE271E01C
:101CE00088E895E00E946226C8010E941C18C82E50
:101CF0004AE0B801CE0101960E9462256DE376E0CC
:101D0000CE0101960E9482246C2D0E94C024BC0149
:101D100088E895E00E949F26CE0101960E945D25ED
:101D20003FEFE31AF30A65E070E080E090E00E9484
:101D300079150F5F1F4F011584E0180751F664E213
:101D400071E088E895E00E946226E114F10409F050
:101D500051C46CE171E088E895E00E94B1260E94D0
:101D60001B2764EF71E080E090E00E947915F70195
:101D700009956CE572E0CE0101960E94E725BE014F
:101D80006F5F7F4F85E596E00E94B1238C01CE0105
:101D900001960E945D2517FF0E94922762E572E07E
:101DA000CE0101960E94E725BE016F5F7F4F85E55A
:101DB00096E00E94B1238C01CE0101960E945D2520
:101DC00017FF0E94E21C6BE472E0CE0101960E94B4
:101DD000E725BE016F5F7F4F85E596E00E94B12346
:101DE0008C01CE0101960E945D2517FD09C064EFAC
:101DF00071E080E090E00E947915E0E0F0E0099564
:101E000063E472E0CE0101960E94E725BE016F5F98
:101E10007F4F85E596E00E94B1238C01CE010196AB
:101E20000E945D2517FD99C064EE72E0CE014296D6
:101E30000E94F925BE016E5E7F4F85E596E00E9407
:101E4000A7234AE0BC01CE0148960E948E25CE0110
:101E500048960E94A122AB014F5F5F4F65E576E097
:101E6000CE0101960E94E420CE0148960E945D2595
:101E7000CE0142960E945D25CE0101960E94A122CC
:101E80006B3071058105910508F0BBC3CE01019649
:101E90000E94A122162F6BE871E088E895E00E946D
:101EA000622680910504082E000C990B0E94052CD7
:101EB000612F89E190E00E940C18109305046EE7F1
:101EC00071E088E895E00E94622660910504062E84
:101ED000000C770B880B990B97FF03C00E94DE2B39
:101EE00003C04AE00E94682B64E771E088E895E04F
:101EF0000E946226111116C068E671E088E895E03C
:101F00000E94B12660E671E088E895E00E94B12663
:101F100064EF71E080E090E00E947915E0E0F0E08D
:101F2000099515C0113019F469E571E00CC0123043
:101F300019F460E571E007C0133019F46CE471E046
:101F400002C063E471E088E895E00E94B1260E9437
:101F50001B27CE0101960E945D2564E372E0CE014D
:101F600001960E94E725BE016F5F7F4F85E596E0F1
:101F70000E94B1238C01CE0101960E945D2517FDC0
:101F80003BC060E372E0CE0101960E94E725BE01EE
:101F90006F5F7F4F85E596E00E94B1238C01CE01F3
:101FA00001960E945D2517FD05C060E08AE190E082
:101FB0000E940C186BE272E0CE0101960E94E725A8
:101FC000BE016F5F7F4F85E596E00E94B1238C01D3
:101FD000CE0101960E945D2517FD05C061E08AE1F2
:101FE00090E00E940C1864EF71E080E090E00E94A5
:101FF0007915E0E0F0E009956DE172E0CE0101961F
:102000000E94E725BE016F5F7F4F85E596E00E9445
:10201000B1238C01CE0101960E945D2517FD62C09F
:1020200064EE72E0CE0101960E94F925BE016F5F59
:102030007F4F85E596E00E94A7234AE0BC01CE01D0
:1020400048960E948E25CE0148960E94A122AB019F
:102050004F5F5F4F65E576E0CE0142960E94E42037
:10206000CE0148960E945D25CE0101960E945D2515
:10207000BE016E5E7F4FCE0101960E94F025CE011B
:1020800001960E94A1226F3F71058105910511F013
:1020900008F0CDC2CE0101960E94A1228BE190E012
:1020A0000E940C18CE0101960E94A12260930001AB
:1020B0006AE072E088E895E00E9462268BE190E099
:1020C0000E941C186AE070E00E94AB2B0E941B2744
:1020D0000E94F91ACE0101960E945D25CE0142961A
:1020E0000E945D251092040465E072E0CE01019625
:1020F0000E94E725BE016F5F7F4F85E596E00E9455
:10210000B1238C01CE0101960E945D2517FD55C0BB
:1021100069EF71E081E396E00E94CE248091D703BD
:10212000811103C083EF92E002C081EF92E00E9430
:102130006B2C66EF71E081E396E00E94FD234091F5
:10214000470650914806609143067091440681E32A
:1021500096E00E943B2460ED77E080E090E00E94F2
:102160007915809103048130F1F46BEE72E0CE01B9
:1021700001960E94F92569E476E0CE0101960E945D
:102180008224BC01CE0142960E94F02561E0CE017E
:1021900042960E941E18CE0142960E945D25CE01F5
:1021A00001960E945D2580910004813031F461E345
:1021B00076E088E895E00E949F2660EF71E0CE010E
:1021C00001960E94E725BE016F5F7F4F85E596E08F
:1021D0000E94B1238C01CE0101960E945D2517FD5E
:1021E00022C080910004813011F48093020468EED3
:1021F00073E080E090E00E94791569E971E081E682
:1022000096E00E9462266BE576E081E696E00E9409
:10221000542669EF72E081E696E00E94862681E608
:1022200096E00E949B266AEE71E0CE0101960E9424
:10223000E725BE016F5F7F4F85E596E00E94B123E1
:102240008C01CE0101960E945D2517FD12C060E051
:102250008BE00E940D152091010130910201A0E652
:10226000BAEE0E94E9370E94791561E08BE00E9486
:102270000D1562EE71E0CE0101960E94E725BE01C8
:102280006F5F7F4F85E596E00E94B1238C01CE0100
:1022900001960E945D2517FD04C0809100040E94F4
:1022A000D71A69ED71E0CE0101960E94E725BE01C3
:1022B0006F5F7F4F85E596E00E94B1238C01CE01D0
:1022C00001960E945D2517FD0CC0809100048130AD
:1022D00011F4809302041092D803109261050E94B9
:1022E000471A63ED71E0CE0101960E94E725BE0119
:1022F0006F5F7F4F85E596E00E94B1238C01CE0190
:1023000001960E945D2517FD2AC06FEE72E0CE0196
:1023100001960E94F925BE016F5F7F4F85E596E02B
:102320000E94B1238C01CE0101960E945D2517FD0C
:1023300009C081E08093010461E08CE090E00E949C
:102340000C180BC01092010460E08CE090E00E9439
:102350000C1861E08BE00E940D150E94591B6EEC79
:1023600071E0CE0101960E94E725BE016F5F7F4FAD
:1023700085E596E00E94B1238C01CE0101960E9472
:102380005D2517FD29C06FEE72E0CE0101960E9417
:10239000F925BE016F5F7F4F85E596E00E94B1236E
:1023A0008C01CE0101960E945D2517FD0AC081E0D7
:1023B0008093B60161E08DE090E00E940C1860E02F
:1023C00008C01092B60160E08DE090E00E940C1809
:1023D00061E08CE00E940D1565EC71E0CE01019684
:1023E0000E94E725BE016F5F7F4F85E596E00E9462
:1023F000B1238C01CE0101960E945D2517FD23C0FB
:1024000067EB71E081E696E00E9462268091050408
:10241000813031F463EB71E081E696E00E94B126F1
:10242000809105048250823030F461EB71E081E6E6
:1024300096E00E94B12665EA71E088E895E00E9486
:10244000B1260E94F91A60EC71E0CE0101960E945B
:10245000E725BE016F5F7F4F85E596E00E94B123BF
:102460008C01CE0101960E945D2517FD30C0809140
:1024700004018130A9F461E081E10E940D154091D1
:10248000000128EE33E04203B001439F700D112498
:10249000072E000C880B990B0E94791560E014C080
:1024A00060E081E10E940D154091000128EE33E0CB
:1024B0004203B001439F700D1124072E000C880BBE
:1024C000990B0E94791561E081E10E940D1510922F
:1024D000030410920004E0960FB6F894DEBF0FBE1E
:1024E000CDBFDF91CF911F910F91FF90EF90DF90C3
:1024F000CF90BF90AF90089560910101709102015B
:102500004AE0CE0148960E946225BE01685E7F4F78
:10251000CE0101960E942425CE0148960E945D2599
:102520000C9465074AE060912004CE0148960E9411
:10253000BA25BE01685E7F4FCE0101960E94242518
:10254000CE0148960E945D250C94DD074AE060911B
:10255000DA03CE0148960E94BA25BE01685E7F4F1D
:10256000CE0101960E942425CE0148960E945D2549
:102570000C9451084AE06091D903CE0148960E941C
:10258000BA25BE01685E7F4FCE0101960E942425C8
:10259000CE0148960E945D250C94C5086091B90152
:1025A0007091BA014AE0CE0148960E946225BE01B0
:1025B000685E7F4FCE0101960E942425CE01489689
:1025C0000E945D250C943D096091B2017091B301A8
:1025D0004AE0CE0148960E946225BE01685E7F4FA8
:1025E000CE0101960E942425CE0148960E945D25C9
:1025F0000C94B90964E171E088E895E00E94B12685
:10260000B8CB60910504062E000C770B4AE0CE0192
:1026100042960E948E25BE016E5E7F4FCE010196CE
:102620000E942425CE0142960E945D252FCC609108
:102630000001062E000C770B4AE0CE0148960E945E
:102640008E25BE01685E7F4FCE0101960E94242533
:10265000CE0148960E945D251DCD833081F028F47F
:10266000813099F08230A1F008958730A9F0883048
:10267000B9F08430D1F4809180008F7D03C08091C7
:1026800080008F7780938000089584B58F7702C093
:1026900084B58F7D84BD08958091B0008F7703C08D
:1026A0008091B0008F7D8093B00008953FB7F8947B
:1026B0008091560590915705A0915805B091590504
:1026C00026B5A89B05C02F3F19F00196A11DB11D8D
:1026D0003FBFBA2FA92F982F8827820F911DA11DC8
:1026E000B11DBC01CD0142E0660F771F881F991F05
:1026F0004A95D1F7089585ED8093BC008091BC0088
:1027000084FDFCCF1092A103089540912C05262F43
:1027100030E0240F311D21323105DCF42091A1037A
:102720002430C9F4FC0180E090E0861758F4309121
:102730002C052191DC01A65FBA4FA30FB11D2C938C
:102740000196F3CF80912C05680F60932C0580E0F3
:10275000089581E0089582E008950895E091C2030C
:102760008091C303E81730F4F0E0EE55FC4F808110
:1027700090E008958FEF9FEF08959091C2038091AC
:10278000C303981750F4E92FF0E0EE55FC4F208179
:1027900030E09F5F9093C20302C02FEF3FEFC9016B
:1027A00008958091C30390E02091C203821B910998
:1027B0000895CF92DF92EF92FF920F931F93CF93E2
:1027C000DF937C01262F972F8A018091490488236B
:1027D00091F0C62FD72F6E01C40ED51ECC15DD0586
:1027E00071F06991D701ED91FC910190F081E02D9C
:1027F000C7010995F3CF642F822F0E948513C8016A
:10280000DF91CF911F910F91FF90EF90DF90CF90CC
:102810000895CF93DF931F92CDB7DEB769832091E0
:1028200049042223D1F020917703203240F021E0A7
:1028300030E0FC013383228380E090E015C080917A
:102840007803E82FF0E0E75DFB4F998190838F5F7D
:10285000809378038093770305C061E0CE010196F1
:102860000E94851381E090E00F90DF91CF91089551
:1028700020912704309128042817390771F490918A
:10288000260480912504981741F0E0912604F0E099
:10289000E65BFB4F808190E008958FEF9FEF0895F6
:1028A00008951F93CF93DF93DC015C962D913C91AB
:1028B0005D972115310539F481E090E013969C93E2
:1028C0008E9312973DC05196ED91FC915297509680
:1028D0009C915097892F80951FB75E964C915E977B
:1028E00041FB772770F941FD6095F894408177238B
:1028F00011F0492B01C048234083E9012197F1F7EA
:1029000048E0508160FF02C0592B01C0582350831A
:10291000E9012197F1F76695415099F7772321F066
:1029200090818923808303C08081982B90831FBF6F
:102930005C968D919C915D970197F1F721E030E0D5
:10294000C901DF91CF911F91089520912704309103
:1029500028042817390771F4809125042091260452
:1029600090E080549F4F821B910960EC70E00E94C0
:10297000F837089580E090E0089520912704309181
:10298000280428173907C9F490912604809125045A
:10299000981799F0E0912604F0E0E65BFB4F208168
:1029A0008091260490E0019660EC70E00E94F83778
:1029B00080932604822F90E008958FEF9FEF089573
:1029C000089580E090E00895CF93DF93282F30E0C2
:1029D000F901E150FB4F8491F901E854F74FD4918C
:1029E000F901EC55F74FC491CC2391F081110E946D
:1029F0002D13EC2FF0E0EE0FFF1FE656F74FA591D9
:102A0000B491EC91ED2381E090E021F480E002C0EC
:102A100080E090E0DF91CF9108951F93CF93DF93F3
:102A2000282F30E0F901E150FB4F8491F901E8547F
:102A3000F74FD491F901EC55F74FC491CC23C9F06D
:102A4000162F81110E942D13EC2FF0E0EE0FFF1FC7
:102A5000E057F74FA591B4918FB7F894111105C0C5
:102A60009C91ED2FE095E92302C0EC91ED2BEC93C6
:102A70008FBFDF91CF911F910895CF93DF9390E0A7
:102A8000FC01E854F74F2491FC01EC55F74F849179
:102A9000882361F190E0880F991FFC01EB50FB4FF8
:102AA000C591D491FC01E057F74FA591B491611104
:102AB00009C09FB7F8948881209582238883EC9180
:102AC0002E230BC0623061F49FB7F8943881822FB7
:102AD000809583238883EC912E2B2C939FBF06C077
:102AE0008FB7F894E8812E2B28838FBFDF91CF9189
:102AF00008958F929F92AF92BF92CF92DF92EF9202
:102B0000FF926B017C010E9456134B015C01C114C2
:102B1000D104E104F104F1F00E945613DC01CB0171
:102B200088199909AA09BB09883E9340A105B105F6
:102B300070F321E0C21AD108E108F10888EE880E8E
:102B400083E0981EA11CB11CC114D104E104F1045E
:102B500019F7DDCFFF90EF90DF90CF90BF90AF904F
:102B60009F908F9008952FB7F894609152057091BF
:102B7000530580915405909155052FBF08951F92DC
:102B80000F920FB60F9211242F933F938F939F9321
:102B9000AF93BF938091520590915305A091540536
:102BA000B09155053091510523E0230F2D3720F4C6
:102BB0000196A11DB11D05C026E8230F0296A11D97
:102BC000B11D209351058093520590935305A09316
:102BD0005405B09355058091560590915705A091E5
:102BE0005805B09159050196A11DB11D8093560558
:102BF00090935705A0935805B0935905BF91AF9195
:102C00009F918F913F912F910F900FBE0F901F902A
:102C100018951F920F920FB60F9211242F933F9386
:102C20004F935F936F937F938F939F93AF93BF93D4
:102C3000EF93FF938091B900887F803609F49CC0A0
:102C400068F5883209F45BC090F4803109F454C00F
:102C500038F4882309F4F6C0883009F44DC0F6C072
:102C6000883109F44CC0803209F45DC0EFC0803473
:102C700009F468C048F4803309F455C0883309F07A
:102C8000E5C080939F03D8C0803509F44FC08835D4
:102C900009F45DC0883409F0D9C0D6C0883909F478
:102CA000C7C0A8F4883709F467C038F4883609F437
:102CB00063C0803709F460C0C9C0883809F4B8C05F
:102CC000803909F45FC0803809F0C0C05BC0803B28
:102CD00009F486C038F4803A09F466C0883A09F4E9
:102CE0007FC0B4C0803C09F4A7C0883C09F4A4C0EC
:102CF000883B09F48AC0AAC080919C0310C09091BF
:102D00009E0380919D03981770F5E0919E0381E0EA
:102D10008E0F80939E03F0E0E558FC4F80818093F6
:102D2000BB0085EC86C080939F038EC0E0919E031C
:102D300081E08E0F80939E038091BB00F0E0E55808
:102D4000FC4F808390919E0380919D036EC0E09123
:102D50009E0381E08E0F80939E038091BB00F0E084
:102D6000E558FC4F80838091A00381116DC081E004
:102D700080939B0384EA61C083E08093A103109257
:102D80005005CFCF80915005803208F051C0E091BE
:102D9000500581E08E0F809350058091BB00F0E0DC
:102DA000E05DFA4F8083BDCF85EC8093BC0010922C
:102DB000A10380915005803230F4E0915005F0E09D
:102DC000E05DFA4F10826091500570E0E0912E05B1
:102DD000F0912F0580E395E009951092500536C0DB
:102DE00084E08093A10310922D0510922C05E091B0
:102DF0002A05F0912B05099580912C05811105C0BC
:102E000081E080932C0510920A05E0912D0581E068
:102E10008E0F80932D05F0E0E65FFA4F808180935E
:102E2000BB0090912D0580912C05981708F479CF5F
:102E300085E88093BC000AC085EC8093BC001092AA
:102E4000A10304C010929F030E947B13FF91EF9196
:102E5000BF91AF919F918F917F916F915F914F91B2
:102E60003F912F910F900FBE0F901F9018951F92BA
:102E70000F920FB60F9211242F933F934F935F93AE
:102E80006F937F938F939F93AF93BF93EF93FF9332
:102E9000E0912704F0912804309709F453C0968DEF
:102EA000A685B785858591FF04C09C91892329F467
:102EB00049C09C91892309F045C0A389B4899C919C
:102EC0008589809589238C93868997890197F1F765
:102ED000608D718DA685B785558538E020E0CB01E2
:102EE0000197F1F7822F90E095958795282F4C91C7
:102EF000452309F02068315091F7868D81FD20959A
:102F00008091250490E0019660EC70E00E94F83713
:102F100090912604981749F0A0912504B0E0A65B93
:102F2000BB4F2C938093250403C0868D8160868FD0
:102F3000828D938D0197F1F7A389B4899C9185893E
:102F4000892B8C93FF91EF91BF91AF919F918F91BE
:102F50007F916F915F914F913F912F910F900FBE95
:102F60000F901F901895CF92DF92EF92FF920F93E0
:102F70001F93CF93DF93EB017B0121E1E20EF11C64
:102F80008B016C01C61AD70AC601800F911F0E94DF
:102F90004837F80181938F01EE15FF05A9F7CE019F
:102FA000DF91CF911F910F91FF90EF90DF90CF9025
:102FB0000895AF92BF92CF92DF92EF92FF920F935C
:102FC0001F93CF93DF9300D0CDB7DEB78B016B019A
:102FD00021E1C20ED11C7B015C01A61AB70A950142
:102FE0002E0D3F1DF70161917F013A832983CE01A8
:102FF00001960E94C420EC14FD0489F7C8010F90CB
:103000000F90DF91CF911F910F91FF90EF90DF9084
:10301000CF90BF90AF900895CF93DF9300D0CDB7FE
:10302000DEB79A838983CE0101960E94C4200F9057
:103030000F90DF91CF9108950C944837CF93DF9391
:10304000EC0180910301813019F0613009F047C033
:1030500068EE73E080E090E00E94791561EE74E024
:1030600081E696E00E946226BE0181E696E00E941B
:1030700054266FED74E081E696E00E94B12664EF7D
:1030800071E080E090E00E94791561E376E081E6EE
:1030900096E00E94542664EF71E080E090E00E9488
:1030A0007915E0916106F09162060190F081E02DC2
:1030B0006AE181E696E0099564EF71E080E090E0D6
:1030C0000E9479156AE073E088E895E00E94862600
:1030D00068E873E180E090E00E94791506C066E040
:1030E00073E088E895E00E948626BE0188E895E0B6
:1030F0000E9454266DE376E088E895E00E9454260D
:1031000061E376E088E895E0DF91CF910C949F260B
:103110000F931F93CF93DF93CDB7DEB762970FB6B0
:10312000F894DEBF0FBECDBF0E94B31500912104FD
:10313000109122042091230430912404601B710B10
:10314000820B930B28EE33E040E050E00E94C7373B
:103150008091200490E0A0E0B0E082179307A407DC
:10316000B50708F076C011E01093B80161E08EE079
:1031700090E00E940C181093B4016BEE74E083E4AD
:1031800096E00E94CE240E94241A63E476E088E848
:1031900095E00E949F2663E476E081E396E00E943A
:1031A0000D2568EE73E080E090E00E9479150BEB4E
:1031B00011E0F8018589968946960E941C18813095
:1031C000D9F568EE73E080E090E00E9479156FEE2B
:1031D00073E0F801858996890E94B317BC01CE017E
:1031E00007960E94F9256BEE72E0CE010D960E94C3
:1031F000F925BE01695F7F4FCE010D960E948224A2
:10320000BC01CE0101960E94F02560E0CE0101963E
:103210000E941E18CE0101960E945D25CE010D96DA
:103220000E945D25CE0107960E945D2568EE73E041
:1032300080E090E00E947915095E1F4FF2E0013AAC
:103240001F0709F0B6CF1092790310920204109272
:10325000D80362960FB6F894DEBF0FBECDBFDF91E4
:10326000CF911F910F91089560ED77E080E090E09D
:103270000E94791567ED74E081E696E00E94B12620
:103280001092DD030895AF92BF92CF92DF92FF922A
:103290000F931F93CF93DF93CDB7DEB762970FB62F
:1032A000F894DEBF0FBECDBF9091B801913049F4C4
:1032B000162F082F8BEBA82E81E0B82E9AE0F92E5E
:1032C00048C0813009F054C0F3CF1230E1F5F50168
:1032D000C588D688C60145960E941C18813099F58C
:1032E0006FEE73E0C6010E94B317BC01CE010796D2
:1032F0000E94F9256BEE72E0CE0101960E94F9253D
:10330000BE01695F7F4FCE0101960E948224BC01FD
:10331000CE010D960E94F025602FCE010D960E94E1
:103320001E18CE010D960E945D25CE0101960E94C9
:103330005D25CE0107960E945D2568EE73E080E072
:1033400090E00E947915FA94F7E1AF0EB11CFF20CE
:1033500049F0113009F0B9CFF501C588D688C6010A
:103360004396BACF113021F41093DB031093DC03A2
:1033700062960FB6F894DEBF0FBECDBFDF91CF913E
:103380001F910F91FF90DF90CF90BF90AF90089565
:10339000DF92EF92FF920F931F93CF93DF9300D0B2
:1033A00000D000D0CDB7DEB76AEC74E088E895E0D5
:1033B0000E94B1268AE0E82E81E0F82E00E010E0BD
:1033C000F701838994890E944E2BF70183899489A0
:1033D00087960E941C18D82E0F5F1F4F4AE0B80135
:1033E000CE0101960E948E256DE376E0CE01019616
:1033F0000E94822462E675E00E9469246DE376E013
:103400000E9482246D2D0E94C024BC0188E895E0B2
:103410000E949F26CE0101960E945D25F5E1EF0EE8
:10342000F11C0830110561F60E941B2726960FB685
:10343000F894DEBF0FBECDBFDF91CF911F910F91EA
:10344000FF90EF90DF90089580917903813019F417
:1034500061E777E006C080910204813031F462E8D0
:1034600077E083E496E00C94FD2369E777E083E45A
:1034700096E00E94FD2340914D0650914E066091CA
:10348000490670914A0683E496E00C943B240F931E
:103490001F93CF93DF93CDB7DEB762970FB6F89443
:1034A000DEBF0FBECDBF1092B80160E08EE090E0AD
:1034B0000E940C1866E677E083E496E00E94CE2432
:1034C0000E94241A63E476E088E895E00E949F2633
:1034D00063E476E081E396E00E940D2568EE73E0F8
:1034E00080E090E00E9479150BEB11E0F8018589EE
:1034F000968946960E941C188130D9F568EE73E0D3
:1035000080E090E00E9479156FEE73E0F801858904
:1035100096890E94B317BC01CE0107960E94F92537
:103520006BEE72E0CE0101960E94F925BE01695F43
:103530007F4FCE0101960E948224BC01CE010D96E0
:103540000E94F02560E0CE010D960E941E18CE016B
:103550000D960E945D25CE0101960E945D25CE014B
:1035600007960E945D2568EE73E080E090E00E947F
:103570007915095E1F4FF2E0013A1F0709F0B6CF37
:1035800080917A03823021F4109206011092050195
:10359000109279031092020462960FB6F894DEBF7F
:1035A0000FBECDBFDF91CF911F910F910895813054
:1035B00011F4809302040E94B31560932104709368
:1035C0002204809323049093240481E08093D80301
:1035D0000C9488188091B801813031F41092D8038E
:1035E000109261050C94471A811102C00C94D71AED
:1035F000089561E08BE00E940D1564E670E080E0C4
:1036000090E00E94791560E08BE00E940D1564E661
:1036100070E080E090E00E94791561E08BE00C940E
:103620000D150E94F91A0C94F91ACF92DF92FF92AD
:103630000F931F93CF93DF9300D000D000D0CDB76E
:10364000DEB76C010BEB11E06FEE73E0F8018589DA
:1036500096890E94B317BC01CE0101960E94F925FC
:10366000B601CE0101960E94CB23F82ECE01019621
:103670000E945D25FF2041F0B60189E496E00E949A
:103680000D25FF24F39406C0095E1F4FF2E0013AB6
:103690001F07D1F68F2D26960FB6F894DEBF0FBE0A
:1036A000CDBFDF91CF911F910F91FF90DF90CF9011
:1036B00008950F931F93CF93DF9300D000D000D0D5
:1036C000CDB7DEB760ED77E080E090E00E9479153D
:1036D0000E94262B10927C0610927B0610927A068E
:1036E0001092790610927806109277068DE991E093
:1036F00090937E0680937D0690916D06963108F03A
:1037000057C02DEB30E030937806209377062BE9F5
:1037100031E030937A06209379062CE231E0309341
:103720007C0620937B0620916800983050F031E0B1
:103730009E3008F430E081E001C0880F3A95EAF746
:1037400001C084E0822B80936800983038F09E306E
:1037500040F0963148F020E030E008C02DE630E03F
:1037600005C02BE630E002C02CE630E03093750651
:1037700020937406983030F481E001C0880F9A9548
:10378000EAF70EC0292F30E09E3018F42850310996
:1037900002C02E50310981E001C0880F2A95EAF756
:1037A0008093760680917D0690917E060197F1F7D1
:1037B00080917B0690917C06892B49F1E09127044A
:1037C000F091280486E0E136F80709F1309739F0E6
:1037D000A389B4899C918589809589238C93809154
:1037E0007F068E7F80937F06109225041092260418
:1037F00081E696E09093280480932704E091740674
:10380000F0917506908180917606892B80831AE06D
:1038100063E677E081E696E00E94B12668EC70E00E
:1038200080E090E00E947915115091F76FE577E004
:1038300081E696E00E94B1266AE070E080E090E0C8
:103840000E94791581E696E00E94A514892B09F45F
:1038500071C081E696E00E94A514892B79F081E67B
:1038600096E00E94BD14809306040E94562C64E1E9
:1038700070E080E090E00E947915EBCF8091050424
:10388000811152C06AE577E0CE0101960E94E725DA
:10389000BE016F5F7F4F85E596E00E94B1238C01EA
:1038A000CE0101960E945D2517FD03C081E0809343
:1038B000050463E577E0CE0101960E94E725BE018D
:1038C0006F5F7F4F85E596E00E94B1238C01CE01AA
:1038D00001960E945D2517FD03C082E080930504D8
:1038E00060E577E0CE0101960E94E725BE016F5F9B
:1038F0007F4F85E596E00E94B1238C01CE010196B1
:103900000E945D2517FD03C083E0809305046DE3ED
:1039100077E088E895E00E94622680910504082EF1
:10392000000C990B0E94052C69E173E085E596E097
:103930000E94F62463E377E081E696E00E94B126D8
:1039400064E670E080E090E00E94791569E277E03B
:1039500081E696E00E94B12664E670E080E090E0A7
:103960000E9479156BE177E081E696E00E94B1262E
:1039700064E670E080E090E00E9479156FE077E007
:1039800081E696E00E94B12664E670E080E090E077
:103990000E94791580910104813019F46AE077E082
:1039A00002C065E077E081E696E00E94B1262696A7
:1039B0000FB6F894DEBF0FBECDBFDF91CF911F9140
:1039C0000F910895AF92BF92CF92DF92EF92FF9244
:1039D0000F931F93CF93DF9300D000D000D0CDB7CB
:1039E000DEB76AEB75E088E895E00E94B12666EBE9
:1039F00075E088E895E00E9462266DE376E0CE01EE
:103A000001960E94F02560EB75E0CE0101960E94C0
:103A10002D24BC0188E895E00E945426CE01019631
:103A20000E945D256DE376E0CE0101960E94F025AF
:103A30006EEA75E0CE0101960E942D24BC0188E853
:103A400095E00E945426CE0101960E945D256DE30B
:103A500076E0CE0101960E94F0256CEA75E0CE0179
:103A600001960E942D24BC0188E895E00E9454260E
:103A7000CE0101960E945D256DE376E0CE010196B0
:103A80000E94F0256AEA75E0CE0101960E942D247D
:103A9000BC0188E895E00E945426CE0101960E9460
:103AA0005D256DE376E0CE0101960E94F02568EA7F
:103AB00075E0CE0101960E942D24BC0188E895E0B6
:103AC0000E949F26CE0101960E945D250BEB11E01E
:103AD000E12CF12C6FEE73E0F801858996890E9444
:103AE000B317F8018589968943960E941C18D82E31
:103AF000FFEFEF1AFF0A4AE0B701CE0101960E94DC
:103B00008E256DE376E0CE0101960E9482246FEE51
:103B100073E00E9469246DE376E00E9482246D2D9B
:103B20000E94C024BC0188E895E00E945426CE0182
:103B300001960E945D25F801C588D688C601469683
:103B40000E941C18B82EC60145960E941C18A82E6B
:103B5000C60144960E941C18D82E6DE376E0CE0173
:103B600001960E94F0256D2DCE0101960E94C02481
:103B70006DE376E00E9482246A2D0E94C0246DE3EA
:103B800076E00E9482246B2D0E94C024BC0188E84C
:103B900095E00E949F26CE0101960E945D25095E58
:103BA0001F4FFAE0EF16F10409F094CF0E941B2793
:103BB00026960FB6F894DEBF0FBECDBFDF91CF9132
:103BC0001F910F91FF90EF90DF90CF90BF90AF903B
:103BD0000895CF93DF9383E690E00E941C18813014
:103BE00009F450C063E975E088E895E00E94B126C9
:103BF000C4E6D0E06FEFCE010E940C186AE070E0DE
:103C000080E090E00E9479152196C03981E0D807C4
:103C100089F76AE775E088E895E00E94B1260E947E
:103C20001B27CFECD1E0BE016451710989819A81D3
:103C30000E94D917FE01339789819A81608143964A
:103C40000E940C18FE01329789819A816081449606
:103C50000E940C18FE01319789819A8160814596F6
:103C60000E940C1889819A81688146960E940C18DE
:103C7000679682E0C53BD807B1F661E083E690E045
:103C80000E940C1883E690E00E941C18813021F4F9
:103C9000DF91CF910C94E21CDF91CF910895CF93E7
:103CA000DF93D82FC92F682F80E190E00E94503712
:103CB0006C2F81E190E00E945037D093B201C09305
:103CC000B30167E675E088E895E00E94622680917E
:103CD000B2019091B3010E94CC2B0E941B27DF916F
:103CE000CF910C94F91ACF93DF9380E090E00E947B
:103CF0001C18813009F477C069EE76E088E895E019
:103D00000E94B126C0E0D0E06FEFCE010E940C18F7
:103D10006AE070E080E090E00E9479152196CE3153
:103D2000D10591F769EC76E088E895E00E94B1262C
:103D30000E941B2761E08AE090E00E940C1861E07D
:103D40008BE090E00E940C1860E08CE090E00E9414
:103D50000C1861E08DE090E00E940C1861E08EE0AC
:103D600090E00E940C186FE08FE090E00E940C1829
:103D70008CE390E00E944F1E60E082E190E00E94A0
:103D80000C1861E083E190E00E940C1860E084E18F
:103D900090E00E940C1860E085E190E00E940C1811
:103DA00060E086E190E00E940C1860E087E190E01E
:103DB0000E940C1868E288E190E00E940C1860E014
:103DC00089E190E00E940C1861E08AE190E00E9495
:103DD0000C1861E08BE190E00E940C1861E080E03B
:103DE00090E00E940C1880E090E00E941C18813046
:103DF00009F05FC166EB76E088E895E00E94B126A5
:103E00000E941B278AE090E00E941C188093030107
:103E10006CEA76E088E895E00E94622680910301D2
:103E2000082E000C990B0E94052C88E190E00E945E
:103E30001C1890E09093BA018093B90161EA76E092
:103E400088E895E00E9462268091B9019091BA01BC
:103E50000E94CC2B8CE090E00E941C1880930104FF
:103E60006AE976E088E895E00E9462268091010484
:103E7000082E000C990B0E94052C8DE090E00E940A
:103E80001C188093B60164E976E088E895E00E940A
:103E900062268091B601082E000C990B0E94052C19
:103EA0008EE090E00E941C188093B8016CE876E0E8
:103EB00088E895E00E9462268091B801082E000CE7
:103EC000990B0E94052C8FE090E00E941C1890E056
:103ED000909302018093010160E876E088E895E024
:103EE0000E94622680910101909102010E94CC2BD8
:103EF00080E190E00E941C18C82F81E190E00E94B0
:103F00001C18C093B2018093B30161E776E088E8A2
:103F100095E00E9462268091B2019091B3010E94C7
:103F2000CC2B8BE090E00E941C188093B5016FE5CC
:103F300076E088E895E00E9462268091B501082E1F
:103F4000000C990B0E94052C82E190E00E941C1845
:103F50008093D70364E576E088E895E00E946226C6
:103F60008091D703082E000C990B0E94052C83E149
:103F700090E00E941C188093090167E476E088E8CD
:103F800095E00E94622680910901082E000C990B91
:103F90000E94052C87E190E00E941C188093D903B1
:103FA00066E376E088E895E00E9462266AE070E0C9
:103FB0008091D9030E94AB2B84E190E00E941C18F1
:103FC00080937A0368E276E088E895E00E946226B2
:103FD00080917A03082E000C990B0E94052C85E134
:103FE00090E00E941C188093200465E176E088E848
:103FF00095E00E9462266AE070E0809120040E94B1
:10400000AB2B86E190E00E941C188093DA0362E0FB
:1040100076E088E895E00E9462266AE070E0809190
:10402000DA030E94AB2B8AE190E00E941C18809377
:10403000040161EF75E088E895E00E9462268091B6
:104040000401082E000C990B0E94052C8BE190E0D6
:104050000E941C188093000161EE75E088E895E0ED
:104060000E94622680910001082E000C990B0E948C
:10407000052C89E190E00E941C188093050467EDEF
:1040800075E088E895E00E94622680910504811120
:1040900007C06CEC75E088E895E00E94B12605C089
:1040A000082E000C990B0E94052CDF91CF910C94E7
:1040B0001B27DF91CF91089581E390E00E941C18A7
:1040C000813081F162E575E088E895E00E94B126D3
:1040D00067E375E088E895E00E94B1260E941B27FF
:1040E00061E173E08BE596E00E94F62486E180931F
:1040F000A10241E150E060E473E08BE596E00E94AC
:104100001D2C60E473E08EE190E00E94D91760916D
:10411000A10280E390E00E940C1861E081E390E04E
:104120000E940C1881E390E00E941C18813059F520
:1041300060E473E08EE190E00E94B317BC018BE570
:1041400096E00E94F62480E390E00E941C18809381
:10415000A10266E275E088E895E00E9462266BE5C0
:1041600076E088E895E00E949F2663E175E088E8A4
:1041700095E00E9462266AE070E08091A1020E94B0
:10418000AB2B0C941B270895EF92FF920F931F9374
:10419000CF93DF931F92CDB7DEB77C01FC01008186
:1041A0001181C80169830E9448376981681719F035
:1041B000C8010E945037C7010F90DF91CF911F9126
:1041C0000F91FF90EF900895CF93DF93EC01FB01E7
:1041D000248135810E940E26CE01DF91CF91089572
:1041E0000895CF92DF92EF92FF920F931F93CF9398
:1041F000DF936C017A018B01C0E0D0E0CE15DF05C2
:1042000089F0D8016D918D01D601ED91FC9101905D
:10421000F081E02DC6010995892B11F47E0102C0C1
:104220002196ECCFC701DF91CF911F910F91FF90A5
:10423000EF90DF90CF900895FC01538D448D252F92
:1042400030E0842F90E0821B930B541710F0CF9630
:10425000089501970895FC01918D828D981761F062
:10426000828DDF01A80FB11D5D968C91928D9F5FAD
:104270009F73928F90E008958FEF9FEF0895FC0158
:10428000918D828D981731F0828DE80FF11D858D0B
:1042900090E008958FEF9FEF0895FC01918D228D9E
:1042A000892F90E0805C9F4F821B91098F73992723
:1042B000089588E895E00E944D2121E0892B09F4BA
:1042C00020E0822F0895FC01848DDF01A80FB11D2D
:1042D000A35ABF4F2C91848D90E001968F7399273C
:1042E000848FA689B7892C93A089B1898C91806429
:1042F0008C93938D848D981306C00288F389E02DEA
:1043000080818F7D80830895EF92FF920F931F939A
:10431000CF93DF93EC0181E0888F9B8D8C8D981378
:1043200005C0E889F989808185FD24C0F62E0B8DB2
:1043300010E00F5F1F4F0F731127E02E8C8DE812D6
:104340000CC00FB607FCFACFE889F989808185FF98
:10435000F5CFCE010E946321F1CF8B8DFE01E80FD6
:10436000F11DE35AFF4FF0820B8FEA89FB898081B0
:10437000806207C0EE89FF896083E889F9898081BE
:104380008064808381E090E0DF91CF911F910F9155
:10439000FF90EF900895CF93DF93EC01888D8823F1
:1043A000C9F0EA89FB89808185FD05C0A889B989A2
:1043B0008C9186FD0FC00FB607FCF5CF808185FF7D
:1043C000F2CFA889B9898C9185FFEDCFCE010E94EB
:1043D0006321E7CFDF91CF91089580E090E0892BB2
:1043E00029F00E94592181110C94000008950E9427
:1043F0001D3AAF92BF92CF92DF92EF92FF920F934E
:104400001F93CF93DF937B018A01FB014481558188
:104410004115510561F1FC012481358121153105DA
:1044200031F12417350718F10217130718F0890125
:1044300001501109FC01A080B180C501DFEFCFEF71
:104440006501C00ED11EC816D906A0F0F701608123
:1044500071810E94643A009769F09C012A193B0916
:104460000217130710F0D22FC32F0196ECCF8FEF56
:104470009FEF02C08D2F9C2FDF91CF911F910F9145
:10448000FF90EF90DF90CF90BF90AF9008950F9383
:104490001F93CF93DF93EC0188819981009729F0D6
:1044A0002A813B812617370788F48B016F5F7F4F86
:1044B0000E945339009761F0998388831B830A8394
:1044C0002C813D81232B11F4FC01108281E001C07D
:1044D00080E0DF91CF911F910F910895CF93DF93EB
:1044E000EC0188819981009711F00E94BB381982F4
:1044F00018821D821C821B821A82DF91CF9108953F
:10450000EF92FF920F931F93CF93DF93EC017B0108
:104510008A01BA010E944722811104C0CE010E9483
:104520006E2207C01D830C83B701888199810E9488
:104530004E3ACE01DF91CF911F910F91FF90EF90F6
:104540000895FC0180819181009711F00C94B1369F
:1045500060E070E0CB0108952F923F924F925F92FE
:104560006F927F928F929F92AF92BF92CF92DF9283
:10457000EF92FF920F931F93CF93DF93FC01448040
:1045800055804114510409F4CFC0FB01648075804B
:104590006114710409F4C8C07A016B01EC01FA01DD
:1045A000A480B580A618B70808811981A114B104A8
:1045B000C1F4F60160817181C8010E94643AEC0186
:1045C000892B09F4B1C0F701608171814481558163
:1045D000CE010E942A3AF701048115810C0F1D1F9C
:1045E000E8CFB7FE02C0480106C0FB012080318041
:1045F0004201C80142C0F60160817181C4010E947C
:10460000643A2C01892B19F1320168187908A30149
:10461000B401C8010E942A3A060D171DF7016081F6
:10462000718144815581C8010E942A3AF701848131
:104630009581080F191FF60184809580840C951CC4
:104640008C819D818A0D9B1D9D838C83D4CFB40169
:10465000C801DF91CF911F910F91FF90EF90DF90F4
:10466000CF90BF90AF909F908F907F906F905F9012
:104670004F903F902F900C944E3AB1010E94643AB3
:10468000009729F0860D971D8A0C9B1CF6CF841489
:10469000950409F449C08A819B818815990560F4C5
:1046A000B4016F5F7F4FC8010E9453390097E1F159
:1046B000998388839B828A824C815D814150510914
:1046C00057FD32C0B601CE010E94F9218C0197FD41
:1046D0002BC088819981F60124813581200F311FFB
:1046E000820F931F4C815D81421B530BBC018A0DCD
:1046F0009B1D0E94333A8C819D818A0D9B1D9D8359
:104700008C8328813981F901E80FF91F1082888193
:104710009981F7016081718144815581800F911FDA
:104720000E942A3AA801CACFDF91CF911F910F9121
:10473000FF90EF90DF90CF90BF90AF909F908F90C1
:104740007F906F905F904F903F902F900895FC0165
:1047500044815581FB0124813581421B530B0C940C
:10476000F921CF93DF93FC0124813581232B71F054
:10477000FB01DC01CD91DC9160817181CE010E9451
:10478000643A009719F08C1B9D0B02C08FEF9FEFCE
:10479000DF91CF910895FC0124813581FB01448193
:1047A00055812417350721F5FC0180819181FB019A
:1047B00060817181009719F061157105A1F461158F
:1047C000710549F0232BB1F0FB01808190E09195B8
:1047D000819591090AC0009769F0232B59F0FC01DB
:1047E000808190E002C00E94453A21E0892B19F0B7
:1047F00020E001C021E0822F0895EF92FF920F93F5
:104800001F93CF93DF936115710511F480E01EC0F3
:104810008B01EC01CB010E94DF360097B1F02C81B7
:104820003D817C01E20EF31EB701CE010E944722BA
:10483000882361F3288139818C819D81B801820FA1
:10484000931F0E94D836FD82EC8281E0DF91CF91E8
:104850001F910F91FF90EF900895CF93DF93EC019C
:104860000E94FD23811103C0CE010E946E22CE0161
:10487000DF91CF910895EF92FF920F931F93CF9303
:10488000DF93FC01248135816115710511F480E00D
:1048900019C041155105A9F07B01EC018A01020FF5
:1048A000131FB8010E944722882389F32881398188
:1048B0008C819D81B701820F931F0E944E3A1D8308
:1048C0000C8381E0DF91CF911F910F91FF90EF90CA
:1048D0000895CF93DF93EC016115710561F0FB0141
:1048E00001900020E9F73197AF01461B570B0E945A
:1048F0003B24811103C0CE010E946E22CE01DF91C4
:10490000CF910895CF93DF93EC01FB014481558152
:10491000608171810E943B24811103C0CE010E94FD
:104920006E22CE01DF91CF910895EF92FF920F9307
:104930001F93CF93DF9300D000D0CDB7DEB77C01BB
:10494000862F4AE08E010F5F1F4FB80190E00E9452
:10495000F336F80101900020E9F73197AF01401BD1
:10496000510BB801C7010E943B240F900F900F908C
:104970000F90DF91CF911F910F91FF90EF900895CD
:10498000CF93DF93EC010E949524811103C0CE01E7
:104990000E946E22CE01DF91CF910895EF92FF9297
:1049A0000F931F93CF93DF93EC018B01611571057A
:1049B00051F0CB010E94DF367C01BC01CE010E9488
:1049C0004722811104C0CE010E946E2207C0FD82E1
:1049D000EC82B801888199810E94D836CE01DF919E
:1049E000CF911F910F91FF90EF900895CF93DF9398
:1049F000EC016115710559F0FB0101900020E9F708
:104A00003197AF01461B570B0E94802202C00E94C3
:104A10006E22CE01DF91CF910895CF93DF93EC0109
:104A2000FB018617970761F060817181611571053F
:104A300029F0448155810E94802202C00E946E228A
:104A4000CE01DF91CF9108950F931F93CF93DF9302
:104A50008C01EB01FC01808191810097B1F06881AC
:104A600079816115710579F0428153812C813D81F5
:104A70004217530740F00E944E3A8C819D81F80105
:104A80009583848313C00E94BB3888819981F80183
:104A9000918380838A819B81938382838C819D8192
:104AA00095838483198218821B821A821D821C823C
:104AB000DF91CF911F910F910895FC018081918129
:104AC0000C94BB380F931F93CF93DF93CDB7DEB712
:104AD00061970FB6F894DEBF0FBECDBF8C01CB013E
:104AE000F80111821082138212821582148250E022
:104AF000BE016F5F7F4F0E941337BE016F5F7F4F14
:104B0000C8010E94F62461960FB6F894DEBF0FBE6E
:104B1000CDBFDF91CF911F910F9108950F931F93F8
:104B2000CF93DF93CDB7DEB762970FB6F894DEBFB1
:104B30000FBECDBF8C01CB01F80111821082138210
:104B400012821582148250E0BE016F5F7F4F0E9477
:104B5000E836BE016F5F7F4FC8010E94F62462965F
:104B60000FB6F894DEBF0FBECDBFDF91CF911F917E
:104B70000F9108950F931F93CF93DF93CDB7DEB7B7
:104B800029970FB6F894DEBF0FBECDBF8C01862FDC
:104B9000F80111821082138212821582148250E071
:104BA000BE016F5F7F4F90E00E941337BE016F5FC1
:104BB0007F4FC8010E94F62429960FB6F894DEBFF5
:104BC0000FBECDBFDF91CF911F910F910895FC01D2
:104BD0001182108213821282158214820C94CE24C8
:104BE000FC011182108213821282158214820C94AD
:104BF0000D25FC011182108213821282158214820B
:104C00006115710551F0FB0101900020E9F7319722
:104C1000AF01461B570B0C9480220895BF92CF9290
:104C2000DF92EF92FF920F931F93CF93DF937C015C
:104C30006B018A01E9012417350720F4812F8901CE
:104C4000C42FD82F69E173E0C7010E94F925D6016E
:104C500014968D919C91159708171907D0F48C170D
:104C60009D0708F4EC01D601ED91FC911197EC0F32
:104C7000FD1FB08010824D915C91BA01600F711FD1
:104C8000C7010E94F624D601ED91FC91EC0FFD1FA7
:104C9000B082C701DF91CF911F910F91FF90EF90EC
:104CA000DF90CF90BF900895DC01ED91FC91DB0186
:104CB00014964D915C9115976D917C910280F381D2
:104CC000E02D0994EF92FF920F931F93CF93DF9300
:104CD0008C017B01C0E0D0E0F701EC0FFD1F649177
:104CE000662361F0D801ED91FC910190F081E02DF7
:104CF000C8010995892B11F02196EECFCE01DF91E5
:104D0000CF911F910F91FF90EF900895611571055C
:104D100079F0FB0101900020E9F73197AF01461BC4
:104D2000570BDC01ED91FC910280F381E02D099499
:104D300080E090E0089567E173E00C9486260F937D
:104D40001F93CF93DF93EC010E9454268C01CE0178
:104D50000E949B26800F911FDF91CF911F910F9191
:104D600008950F931F93CF93DF93EC010E94622667
:104D70008C01CE010E949B26800F911FDF91CF9165
:104D80001F910F9108951F920F920FB60F92112449
:104D90002F933F934F935F936F937F938F939F9343
:104DA000AF93BF93EF93FF9388E895E00E94632150
:104DB000FF91EF91BF91AF919F918F917F916F91F3
:104DC0005F914F913F912F910F900FBE0F901F90C9
:104DD00018951F920F920FB60F9211242F938F9355
:104DE0009F93EF93FF93E0919805F091990580814F
:104DF000E0919E05F0919F0582FD12C09081809107
:104E0000A1058F5F8F732091A205821751F0E09169
:104E1000A105F0E0E857FA4F958F8093A10501C0F6
:104E20008081FF91EF919F918F912F910F900FBEF5
:104E30000F901F90189588E895E00C949B26AF92F0
:104E4000BF92CF92DF92EF92FF920F931F93CF9377
:104E5000DF9300D0CDB7DEB782E690E00E941C1849
:104E6000813009F452C06AE778E088E895E00E9452
:104E7000B12604EF11E06FEFC8010E940C186AE040
:104E800070E080E090E00E9479150F5F1F4F0533BE
:104E900083E0180781F760E678E088E895E00E94F3
:104EA000B1260E941B270AE011E08CE1A82E81E0C8
:104EB000B82EF801C388D4887801C01AD10AC60177
:104EC0008E0D9F1DF70161917F019A838983CE0129
:104ED00001960E94C420EA14FB0489F7F801838933
:104EE0009489F701608187960E940C180B5E1F4F12
:104EF0005701F5E1AF0EB11C81E0023B1807C9F67E
:104F000061E082E690E00E940C180F900F90DF9114
:104F1000CF911F910F91FF90EF90DF90CF90BF90B6
:104F2000AF9008957F928F929F92AF92BF92CF924F
:104F3000DF92EF92FF920F931F93CF93DF93C12CD9
:104F4000D12C7601C394D0E0BB24B39462E0A62EAA
:104F500099249A9475EE872EE5EC7E2ECC2DB09296
:104F60004904C0925A0510927803109277039091E9
:104F7000A1039111FCCFA092A103B092A003909243
:104F80009F0310929E0310929D0310929C038091A8
:104F90009C0386019601220F331F282B20939C032C
:104FA00080919B03813069F410929B0380919C0354
:104FB0008093BB008091BC0083FDF8CF7092BC0051
:104FC00002C08092BC008091A1038230E1F3809105
:104FD0009F038F3F69F080919F03803231F0809171
:104FE0009F03803321F094E003C092E001C093E07E
:104FF000109278031092770310924904911138C0EF
:105000006FE478E088E895E00E94622680E1C816A7
:10501000D104E104F10430F46DE478E088E895E02F
:105020000E94622640E1C701B6010E94682B80EE13
:105030008C0F883018F0C853C830B0F46DE376E0B8
:1050400088E895E00E9454266CE378E088E895E0D3
:105050000E94B1261093C5030093C4038091D60328
:105060008F5F8093D60302C00E941B27DF5F19C0A9
:105070009430B9F460E378E088E895E00E94622615
:10508000E0E1CE16D104E104F10430F46EE278E000
:1050900088E895E00E94622660E170E08C2F0E9413
:1050A000AB2BFFEFCF1ADF0AEF0AFF0A8FE7C81614
:1050B000D104E104F10409F051CFD11106C068E137
:1050C00078E088E895E00E94B1268091D603882395
:1050D000E9F00E94C8190AE011E0CEECD3E0FC2E02
:1050E000E8E0FE0EF8018389948987960E941C18D7
:1050F00089930B5E1F4FFC12F5CF0E941B27E6EC35
:10510000F3E088E08E0F11928E13FDCFDF91CF91E7
:105110001F910F91FF90EF90DF90CF90BF90AF90D5
:105120009F908F907F9008958F929F92AF92BF92A1
:10513000CF92DF92EF92FF920F931F93CF93DF9363
:10514000CDB7DEB76E970FB6F894DEBF0FBECDBFFA
:105150007C01162F64EE72E0CE0101960E94F925C3
:10516000BE016F5F7F4FC7010E94A7234AE0BC01C9
:10517000CE0107960E948E25CE0107960E94A1229D
:10518000AB014F5F5F4FB701CE0143960E94E42011
:10519000CE0107960E945D25CE0101960E945D25F5
:1051A0006AE173E0CE0101960E94F925BE016F5FAE
:1051B0007F4FCE0143960E94B123D92ECE01019696
:1051C0000E945D25D094DD1CDD24DD1C6CE173E0C4
:1051D000CE0101960E94F925BE016F5F7F4FCE017F
:1051E00043960E94B123C92ECE0101960E945D25EF
:1051F000C094CC1CCC24CC1C6EE173E0CE01019693
:105200000E94F925BE016F5F7F4FCE0143960E9439
:10521000B123E92ECE0101960E945D25E094EE1C9B
:10522000EE24EE1C60E273E0CE0101960E94F925A7
:10523000BE016F5F7F4FCE0143960E94B123F92ECE
:10524000CE0101960E945D25F094FF1CFF24FF1CF7
:1052500069E173E0CE0107960E94F9256AE173E0E7
:10526000CE0101960E94F925AE01495F5F4FBE0154
:105270006F5F7F4FCE0143960E94AC22CE01019614
:105280000E945D25CE0107960E945D2569E173E0CD
:10529000CE0107960E94F9256CE173E0CE010196DC
:1052A0000E94F925AE01495F5F4FBE016F5F7F4FDE
:1052B000CE0143960E94AC22CE0101960E945D254C
:1052C000CE0107960E945D2569E173E0CE01079645
:1052D0000E94F9256EE173E0CE0101960E94F92546
:1052E000AE01495F5F4FBE016F5F7F4FCE014396B6
:1052F0000E94AC22CE0101960E945D25CE01079648
:105300000E945D2569E173E0CE0107960E94F925B0
:1053100060E273E0CE0101960E94F925AE01495F7B
:105320005F4FBE016F5F7F4FCE0143960E94AC225C
:10533000CE0101960E945D25CE0107960E945D2553
:1053400069E173E0CE0107960E94F92566EE72E0EE
:10535000CE0101960E94F925AE01495F5F4FBE0163
:105360006F5F7F4FCE0143960E94AC22CE01019623
:105370000E945D25CE0107960E945D256BEE72E0CE
:10538000CE0101960E94F925BE016F5F7F4FCE01CD
:1053900043960E94B1234AE0BC01CE0107960E94C9
:1053A0008E25CE0107960E94A1229B0140E050E08D
:1053B000BE016D5E7F4FCE010D960E940E26CE017E
:1053C00007960E945D25CE0101960E945D256BEE39
:1053D00072E0CE0101960E94F925BE016F5F7F4FFA
:1053E000CE0143960E94A7234AE0BC01CE01499614
:1053F0000E948E25CE0149960E94A122AB014F5FEB
:105400005F4FBE016D5E7F4FCE0107960E94E42084
:10541000CE0149960E945D25CE0101960E945D2530
:10542000113009F0C8C0CE010D960E94A122062FAE
:10543000BE01695F7F4FCE0149960E94F0256FEE55
:1054400073E08091D0019091D1010E94B317BC010B
:10545000CE0101960E94F9258D819E81892B39F01C
:10546000E981FA818081882319F010E001C011E000
:10547000CE0101960E945D25112361F069ED77E070
:1054800088E895E00E94B1260E941B270E94111B0C
:1054900080E001C081E09EEF900F9A3058F06BEBF6
:1054A00077E088E895E00E94B1260E941B270E94C1
:1054B000111B7CC0813009F079C001508BEB882E24
:1054C00081E0982EAA24A394B12C6FEE73E0F4012E
:1054D000858996890E94B317BC01CE0101960E946E
:1054E000F925BE01675E7F4FCE0101960E94CB2356
:1054F000182FCE0101960E945D25112391F068E9D5
:1055000077E088E895E00E946226C5010E94052C9C
:105510000E941B278FEF8A0D801719F0F12CE12CC8
:10552000D12CF7E18F0E911C8FEFA81AB80AEBE08F
:10553000AE16B10451F641E150E06EED73E0CE01DC
:1055400049960E941D2CF7E10F9F800111240554FC
:105550001E4F6EED73E0F801858996890E94D91778
:10556000F801858996896D2D43960E940C18F801E3
:10557000858996896C2D44960E940C18F8018589BE
:1055800096896E2D45960E940C18F801858996899A
:105590006F2D46960E940C186BE877E088E895E03E
:1055A0000E94B1260E941B270E94F91ACE0149963B
:1055B0000E945D252CC0123051F58091D001909150
:1055C000D1016D2D43960E940C188091D0019091CD
:1055D000D1016C2D44960E940C188091D0019091BD
:1055E000D1016E2D45960E940C188091D0019091AA
:1055F000D1016F2D46960E940C1860E078E088E893
:1056000095E00E94B1260E941B270E94F91ACE0144
:1056100007960E945D25CE010D960E945D25CE0164
:1056200043960E945D256E960FB6F894DEBF0FBEBE
:10563000CDBFDF91CF911F910F91FF90EF90DF9041
:10564000CF90BF90AF909F908F900895E8E8F5E0DD
:10565000A089B18982E08C93A485B5851C92A6852A
:10566000B7858FEC8C93108EA489B58986E08C93D6
:10567000A289B3898C9180618C93A289B3898C9122
:1056800088608C93A289B3898C9180688C930288FE
:10569000F389E02D80818F7D808308950F931F9380
:1056A000CF93DF93C2E6D5E08C0102561540C801C6
:1056B0008C0F9D1F0E944837899385E0C838D80712
:1056C000B1F782E695E0DF91CF911F910F91089598
:1056D0008F929F92AF92BF920F931F93CF93DF93BE
:1056E000CDB7DEB7A1970FB6F894DEBF0FBECDBF22
:1056F00019A2423008F44AE08E010F5D1F4F842E3C
:10570000912CA12CB12CA50194010E94C737E62F42
:10571000B901CA0101501109EA3014F4E05D01C079
:10572000E95CD801EC93232B242B252B61F7B801DE
:1057300088E895E00E948626A1960FB6F894DEBF11
:105740000FBECDBFDF91CF911F910F91BF90AF9052
:105750009F908F900895CF93DF93AB01672B61F4F7
:10576000E0918805F09189050190F081E02D682F86
:1057700088E895E0099506C0682F70E080E090E029
:105780000E94682BEC0188E895E00E949B268C0F14
:105790009D1FDF91CF910895CF93DF93BC0180E0EF
:1057A00090E04AE00E94682BEC0188E895E00E94B6
:1057B0009B268C0F9D1FDF91CF910895CF92DF9292
:1057C000EF92FF92CF93DF936B017C01E09188050C
:1057D000F09189050190F081E02D6DE288E895E077
:1057E0000995EC0166277727CB016C197D098E0995
:1057F0009F094AE00E94682B8C0F9D1FDF91CF917B
:10580000FF90EF90DF90CF900895CF93DF93BC018E
:10581000990F880B990B97FF03C00E94DE2B03C0E2
:105820004AE00E94682BEC0188E895E00E949B26E4
:105830008C0F9D1FDF91CF9108950F931F93CF93EE
:10584000DF93FC01248135812115310519F4FB0119
:10585000108211C0EA0121972C173D0708F4E901D5
:105860008B01FC0160817181AE01C8010E94553A33
:10587000C00FD11F1882DF91CF911F910F91089512
:105880008091610581110AC00E94B31560935D0586
:1058900070935E0580935F059093600581E080932F
:1058A000610510925C0580935B050895CF93DF93AB
:1058B00000D0CDB7DEB789831A8241E050E0BE0147
:1058C0006F5F7F4F85E596E00E943B240F900F901D
:1058D000DF91CF910895009769F0FC0101900020BD
:1058E000E9F73197AF01481B590BBC0181E396E002
:1058F0000C943B2480E00895CF93DF93CDB7DEB7BF
:105900006E970FB6F894DEBF0FBECDBF789484B506
:10591000826084BD84B5816084BD85B5826085BDAB
:1059200085B5816085BD80916E00816080936E0039
:10593000109281008091810082608093810080912B
:1059400081008160809381008091800081608093DC
:1059500080008091B10084608093B1008091B0009C
:1059600081608093B00080917A00846080937A0097
:1059700080917A00826080937A0080917A008160C1
:1059800080937A0080917A00806880937A001092E8
:10599000C1000E94262B1092C2031092C3031092E2
:1059A0007803109277031092A10381E08093A00303
:1059B00010929B0361E082E10E940D1561E083E19A
:1059C0000E940D158091B9008E7F8093B90080915F
:1059D000B9008D7F8093B90088E48093B80085E496
:1059E0008093BC0062EE73E088E895E00E94B126E7
:1059F0000E941B2764EC79E080E090E00E9479151A
:105A000080E480937C0080917A00806480937A00A7
:105A100080917A0086FDFCCF6091780080917900BA
:105A200070E0782B072E000C880B990B611571051F
:105A30008105910511F00E94A8360E94731E0E94F4
:105A40005C200E94E91D0E941F270E94922761E0AE
:105A50008AE00E943D1561E08CE00E943D1561E006
:105A60008BE00E943D1561E08AE00E940D1561E027
:105A70008CE00E940D1561E08BE00E940D1560E046
:105A80008AE00E940D1564EF71E080E090E00E94D2
:105A9000791561E08AE00E940D1560E08CE00E94BB
:105AA0000D1564EF71E080E090E00E94791561E0EF
:105AB0008CE00E940D1560E08BE00E940D1564EFF4
:105AC00071E080E090E00E94791561E08BE00E9437
:105AD0000D1560E086E00E943D1560E08EE00E94BA
